{"contracts/content/ReaderLicenseAMM.sol":{"ReaderLicenseAMM":{"abi":[{"inputs":[{"internalType":"address","name":"_encryptedArticles","type":"address"}],"stateMutability":"nonpayable","type":"constructor"},{"inputs":[{"internalType":"address","name":"sender","type":"address"},{"internalType":"uint256","name":"balance","type":"uint256"},{"internalType":"uint256","name":"needed","type":"uint256"},{"internalType":"uint256","name":"tokenId","type":"uint256"}],"name":"ERC1155InsufficientBalance","type":"error"},{"inputs":[{"internalType":"address","name":"approver","type":"address"}],"name":"ERC1155InvalidApprover","type":"error"},{"inputs":[{"internalType":"uint256","name":"idsLength","type":"uint256"},{"internalType":"uint256","name":"valuesLength","type":"uint256"}],"name":"ERC1155InvalidArrayLength","type":"error"},{"inputs":[{"internalType":"address","name":"operator","type":"address"}],"name":"ERC1155InvalidOperator","type":"error"},{"inputs":[{"internalType":"address","name":"receiver","type":"address"}],"name":"ERC1155InvalidReceiver","type":"error"},{"inputs":[{"internalType":"address","name":"sender","type":"address"}],"name":"ERC1155InvalidSender","type":"error"},{"inputs":[{"internalType":"address","name":"operator","type":"address"},{"internalType":"address","name":"owner","type":"address"}],"name":"ERC1155MissingApprovalForAll","type":"error"},{"inputs":[{"internalType":"address","name":"owner","type":"address"}],"name":"OwnableInvalidOwner","type":"error"},{"inputs":[{"internalType":"address","name":"account","type":"address"}],"name":"OwnableUnauthorizedAccount","type":"error"},{"anonymous":false,"inputs":[{"indexed":true,"internalType":"uint256","name":"articleId","type":"uint256"},{"indexed":true,"internalType":"address","name":"user","type":"address"},{"indexed":false,"internalType":"uint256","name":"expiryTime","type":"uint256"}],"name":"AccessGranted","type":"event"},{"anonymous":false,"inputs":[{"indexed":true,"internalType":"address","name":"account","type":"address"},{"indexed":true,"internalType":"address","name":"operator","type":"address"},{"indexed":false,"internalType":"bool","name":"approved","type":"bool"}],"name":"ApprovalForAll","type":"event"},{"anonymous":false,"inputs":[{"indexed":true,"internalType":"uint256","name":"articleId","type":"uint256"},{"indexed":true,"internalType":"address","name":"user","type":"address"},{"indexed":false,"internalType":"uint256","name":"expiryTime","type":"uint256"}],"name":"LicenseBurned","type":"event"},{"anonymous":false,"inputs":[{"indexed":true,"internalType":"uint256","name":"articleId","type":"uint256"},{"indexed":true,"internalType":"address","name":"holder","type":"address"},{"indexed":false,"internalType":"uint256","name":"count","type":"uint256"},{"indexed":false,"internalType":"uint256","name":"editionNumber","type":"uint256"}],"name":"LicenseMinted","type":"event"},{"anonymous":false,"inputs":[{"indexed":true,"internalType":"uint256","name":"articleId","type":"uint256"},{"indexed":true,"internalType":"address","name":"buyer","type":"address"},{"indexed":true,"internalType":"address","name":"seller","type":"address"},{"indexed":false,"internalType":"uint256","name":"price","type":"uint256"}],"name":"LicensePurchased","type":"event"},{"anonymous":false,"inputs":[{"indexed":true,"internalType":"uint256","name":"articleId","type":"uint256"},{"indexed":false,"internalType":"uint256","name":"count","type":"uint256"},{"indexed":false,"internalType":"uint256","name":"totalActive","type":"uint256"}],"name":"LicenseRegenerated","type":"event"},{"anonymous":false,"inputs":[{"indexed":true,"internalType":"address","name":"previousOwner","type":"address"},{"indexed":true,"internalType":"address","name":"newOwner","type":"address"}],"name":"OwnershipTransferred","type":"event"},{"anonymous":false,"inputs":[{"indexed":true,"internalType":"address","name":"operator","type":"address"},{"indexed":true,"internalType":"address","name":"from","type":"address"},{"indexed":true,"internalType":"address","name":"to","type":"address"},{"indexed":false,"internalType":"uint256[]","name":"ids","type":"uint256[]"},{"indexed":false,"internalType":"uint256[]","name":"values","type":"uint256[]"}],"name":"TransferBatch","type":"event"},{"anonymous":false,"inputs":[{"indexed":true,"internalType":"address","name":"operator","type":"address"},{"indexed":true,"internalType":"address","name":"from","type":"address"},{"indexed":true,"internalType":"address","name":"to","type":"address"},{"indexed":false,"internalType":"uint256","name":"id","type":"uint256"},{"indexed":false,"internalType":"uint256","name":"value","type":"uint256"}],"name":"TransferSingle","type":"event"},{"anonymous":false,"inputs":[{"indexed":false,"internalType":"string","name":"value","type":"string"},{"indexed":true,"internalType":"uint256","name":"id","type":"uint256"}],"name":"URI","type":"event"},{"inputs":[],"name":"BASE_PRICE","outputs":[{"internalType":"uint256","name":"","type":"uint256"}],"stateMutability":"view","type":"function"},{"inputs":[],"name":"CREATOR_PERCENTAGE","outputs":[{"internalType":"uint256","name":"","type":"uint256"}],"stateMutability":"view","type":"function"},{"inputs":[],"name":"ENCRYPTED_ARTICLES","outputs":[{"internalType":"contract IEncryptedArticles","name":"","type":"address"}],"stateMutability":"view","type":"function"},{"inputs":[],"name":"GAS_REIMBURSEMENT","outputs":[{"internalType":"uint256","name":"","type":"uint256"}],"stateMutability":"view","type":"function"},{"inputs":[],"name":"MAX_PRICE","outputs":[{"internalType":"uint256","name":"","type":"uint256"}],"stateMutability":"view","type":"function"},{"inputs":[],"name":"PLATFORM_PERCENTAGE","outputs":[{"internalType":"uint256","name":"","type":"uint256"}],"stateMutability":"view","type":"function"},{"inputs":[],"name":"REGENERATION_THRESHOLD","outputs":[{"internalType":"uint256","name":"","type":"uint256"}],"stateMutability":"view","type":"function"},{"inputs":[],"name":"SELLER_PERCENTAGE","outputs":[{"internalType":"uint256","name":"","type":"uint256"}],"stateMutability":"view","type":"function"},{"inputs":[],"name":"TREASURY","outputs":[{"internalType":"address","name":"","type":"address"}],"stateMutability":"view","type":"function"},{"inputs":[{"internalType":"uint256","name":"","type":"uint256"},{"internalType":"address","name":"","type":"address"}],"name":"accessInfo","outputs":[{"internalType":"uint256","name":"expiryTime","type":"uint256"},{"internalType":"bool","name":"hasAccess","type":"bool"}],"stateMutability":"view","type":"function"},{"inputs":[{"internalType":"address","name":"account","type":"address"},{"internalType":"uint256","name":"id","type":"uint256"}],"name":"balanceOf","outputs":[{"internalType":"uint256","name":"","type":"uint256"}],"stateMutability":"view","type":"function"},{"inputs":[{"internalType":"address[]","name":"accounts","type":"address[]"},{"internalType":"uint256[]","name":"ids","type":"uint256[]"}],"name":"balanceOfBatch","outputs":[{"internalType":"uint256[]","name":"","type":"uint256[]"}],"stateMutability":"view","type":"function"},{"inputs":[{"internalType":"uint256","name":"_articleId","type":"uint256"}],"name":"burnLicenseForAccess","outputs":[],"stateMutability":"nonpayable","type":"function"},{"inputs":[{"internalType":"uint256","name":"_articleId","type":"uint256"},{"internalType":"address","name":"_seller","type":"address"}],"name":"buyLicense","outputs":[],"stateMutability":"payable","type":"function"},{"inputs":[{"internalType":"uint256","name":"","type":"uint256"},{"internalType":"uint256","name":"","type":"uint256"}],"name":"dailyPurchases","outputs":[{"internalType":"uint256","name":"","type":"uint256"}],"stateMutability":"view","type":"function"},{"inputs":[],"name":"emergencyWithdrawGasPool","outputs":[],"stateMutability":"nonpayable","type":"function"},{"inputs":[],"name":"gasPool","outputs":[{"internalType":"uint256","name":"","type":"uint256"}],"stateMutability":"view","type":"function"},{"inputs":[{"internalType":"uint256","name":"_articleId","type":"uint256"}],"name":"getArticleSummary","outputs":[{"internalType":"string","name":"","type":"string"}],"stateMutability":"view","type":"function"},{"inputs":[{"internalType":"uint256","name":"_articleId","type":"uint256"}],"name":"getCurrentPrice","outputs":[{"internalType":"uint256","name":"","type":"uint256"}],"stateMutability":"view","type":"function"},{"inputs":[{"internalType":"uint256","name":"_articleId","type":"uint256"}],"name":"getEncryptedContent","outputs":[{"internalType":"string","name":"","type":"string"}],"stateMutability":"view","type":"function"},{"inputs":[{"internalType":"uint256","name":"_articleId","type":"uint256"}],"name":"getLicenseHolders","outputs":[{"internalType":"address[]","name":"","type":"address[]"},{"internalType":"uint256[]","name":"","type":"uint256[]"}],"stateMutability":"view","type":"function"},{"inputs":[{"internalType":"uint256","name":"_articleId","type":"uint256"}],"name":"getPurchaseHistory","outputs":[{"components":[{"internalType":"uint256","name":"timestamp","type":"uint256"},{"internalType":"uint256","name":"price","type":"uint256"},{"internalType":"address","name":"buyer","type":"address"},{"internalType":"address","name":"seller","type":"address"}],"internalType":"struct ReaderLicenseAMM.PurchaseRecord[]","name":"","type":"tuple[]"}],"stateMutability":"view","type":"function"},{"inputs":[{"internalType":"uint256","name":"_articleId","type":"uint256"},{"internalType":"address","name":"_user","type":"address"}],"name":"hasActiveAccess","outputs":[{"internalType":"bool","name":"","type":"bool"}],"stateMutability":"view","type":"function"},{"inputs":[{"internalType":"address","name":"account","type":"address"},{"internalType":"address","name":"operator","type":"address"}],"name":"isApprovedForAll","outputs":[{"internalType":"bool","name":"","type":"bool"}],"stateMutability":"view","type":"function"},{"inputs":[{"internalType":"uint256","name":"","type":"uint256"},{"internalType":"address","name":"","type":"address"}],"name":"licenseBalances","outputs":[{"internalType":"uint256","name":"","type":"uint256"}],"stateMutability":"view","type":"function"},{"inputs":[{"internalType":"uint256","name":"","type":"uint256"}],"name":"licenseInfo","outputs":[{"internalType":"uint256","name":"articleId","type":"uint256"},{"internalType":"uint256","name":"editionNumber","type":"uint256"},{"internalType":"uint256","name":"totalGenerated","type":"uint256"},{"internalType":"uint256","name":"activeLicenses","type":"uint256"},{"internalType":"uint256","name":"lastRegenerationTime","type":"uint256"}],"stateMutability":"view","type":"function"},{"inputs":[{"internalType":"uint256","name":"_articleId","type":"uint256"},{"internalType":"address","name":"_holder","type":"address"},{"internalType":"uint256","name":"_count","type":"uint256"},{"internalType":"uint256","name":"_editionNumber","type":"uint256"}],"name":"mintLicensesToHolder","outputs":[],"stateMutability":"nonpayable","type":"function"},{"inputs":[],"name":"owner","outputs":[{"internalType":"address","name":"","type":"address"}],"stateMutability":"view","type":"function"},{"inputs":[{"internalType":"uint256","name":"","type":"uint256"},{"internalType":"uint256","name":"","type":"uint256"}],"name":"purchaseHistory","outputs":[{"internalType":"uint256","name":"timestamp","type":"uint256"},{"internalType":"uint256","name":"price","type":"uint256"},{"internalType":"address","name":"buyer","type":"address"},{"internalType":"address","name":"seller","type":"address"}],"stateMutability":"view","type":"function"},{"inputs":[{"internalType":"uint256","name":"_articleId","type":"uint256"}],"name":"regenerateLicenses","outputs":[],"stateMutability":"nonpayable","type":"function"},{"inputs":[],"name":"renounceOwnership","outputs":[],"stateMutability":"nonpayable","type":"function"},{"inputs":[{"internalType":"address","name":"from","type":"address"},{"internalType":"address","name":"to","type":"address"},{"internalType":"uint256[]","name":"ids","type":"uint256[]"},{"internalType":"uint256[]","name":"values","type":"uint256[]"},{"internalType":"bytes","name":"data","type":"bytes"}],"name":"safeBatchTransferFrom","outputs":[],"stateMutability":"nonpayable","type":"function"},{"inputs":[{"internalType":"address","name":"from","type":"address"},{"internalType":"address","name":"to","type":"address"},{"internalType":"uint256","name":"id","type":"uint256"},{"internalType":"uint256","name":"value","type":"uint256"},{"internalType":"bytes","name":"data","type":"bytes"}],"name":"safeTransferFrom","outputs":[],"stateMutability":"nonpayable","type":"function"},{"inputs":[{"internalType":"address","name":"operator","type":"address"},{"internalType":"bool","name":"approved","type":"bool"}],"name":"setApprovalForAll","outputs":[],"stateMutability":"nonpayable","type":"function"},{"inputs":[{"internalType":"uint256","name":"_articleId","type":"uint256"}],"name":"shouldRegenerate","outputs":[{"internalType":"bool","name":"","type":"bool"}],"stateMutability":"view","type":"function"},{"inputs":[{"internalType":"bytes4","name":"interfaceId","type":"bytes4"}],"name":"supportsInterface","outputs":[{"internalType":"bool","name":"","type":"bool"}],"stateMutability":"view","type":"function"},{"inputs":[{"internalType":"uint256","name":"","type":"uint256"}],"name":"totalLicensesEverGenerated","outputs":[{"internalType":"uint256","name":"","type":"uint256"}],"stateMutability":"view","type":"function"},{"inputs":[{"internalType":"address","name":"newOwner","type":"address"}],"name":"transferOwnership","outputs":[],"stateMutability":"nonpayable","type":"function"},{"inputs":[{"internalType":"uint256","name":"tokenId","type":"uint256"}],"name":"uri","outputs":[{"internalType":"string","name":"","type":"string"}],"stateMutability":"view","type":"function"}],"evm":{"bytecode":{"linkReferences":{},"object":"60a034620001d8576001600160401b0390601f6200338c38819003918201601f191683019184831184841017620001c257808492602094604052833981010312620001d857516001600160a01b039182821691829003620001d857604051906020820190811182821017620001c25760405260008091526002546001908181811c91168015620001b7575b6020821014620001a357601f811162000159575b50508060025533156200014157600354903360018060a01b03198316176003557f8be0079c531659141344cd1fd0a4f28419497f9722a3daafe3b4186f6b6457e0604051943393169180a36080526131ae9081620001de823960805181818161049501528181610b1601528181610cfc01528181610e8e01528181610f8d01528181611395015281816115900152818161282b0152818161291f0152612f890152f35b60249060405190631e4fbdf760e01b82526004820152fd5b60028352601f0160051c7f405787fa12a823e0f2b7631cc41b3ba8828b3321ca811111fa75cd3aa3bb5ace908101905b8181106200019857506200009e565b838155820162000189565b634e487b7160e01b83526022600452602483fd5b90607f16906200008a565b634e487b7160e01b600052604160045260246000fd5b600080fdfe6080604052600436101561001257600080fd5b60003560e01c8062fdd58e1461028657806301c11d961461028157806301ffc9a71461027c5780630813d3f61461027757806309886c9c146102725780630e89341c1461026d5780631453a424146102685780631e084558146102635780632d2c55651461025e5780632eb2c2d61461025957806343c7580e146102545780634e1273f41461024f578063607ea36d1461024a578063715018a6146102455780637200952814610240578063753157161461023b5780638d40e0cd146102365780638da5cb5b1461023157806395f58ab81461022c57806398e9d0e014610227578063996cb74514610222578063a22cb4651461021d578063ab0b8b0414610218578063b3c655c014610213578063bca590031461020e578063c55d0f5614610209578063c98d6e9914610204578063ca9f19ef146101ff578063cb8b2522146101fa578063df81a823146101f5578063e3685397146101f0578063e985e9c5146101eb578063f242432a146101e6578063f24c4eac146101e1578063f2fde38b146101dc578063f499924b146101d7578063f4bf28a0146101d2578063f86325ed146101cd5763fa08b038146101c857600080fd5b611b15565b611af3565b611a4b565b6119b6565b611924565b6117c8565b611707565b61169f565b611683565b61153b565b611519565b6114fd565b6114c3565b61149d565b611471565b61135d565b6112a7565b6111e7565b610ebd565b610e78565b610e09565b610da9565b610cb4565b610c09565b610bed565b610b8f565b610ae8565b610a2d565b6109c0565b610893565b6106ed565b610695565b61064d565b61045f565b6103e7565b610395565b610327565b6102f2565b6102a1565b6001600160a01b0381160361029c57565b600080fd5b3461029c57604036600319011261029c5760206102e96004356102c38161028b565b6024356000526000835260406000209060018060a01b0316600052602052604060002090565b54604051908152f35b3461029c57600036600319011261029c576020604051670de0b6b3a76400008152f35b6001600160e01b031981160361029c57565b3461029c57602036600319011261029c57602060043561034681610315565b63ffffffff60e01b16636cdb3d1360e11b8114908115610384575b8115610373575b506040519015158152f35b6301ffc9a760e01b14905038610368565b6303a24d0760e21b81149150610361565b3461029c576000806003193601126103e4576103af611b33565b80808080600b5481600b5560018060a01b03600354168282156103db575bf1156103d65780f35b612172565b506108fc6103cd565b80fd5b3461029c57600036600319011261029c576020604051600a8152f35b60005b8381106104165750506000910152565b8181015183820152602001610406565b9060209161043f81518092818552858086019101610403565b601f01601f1916010190565b90602061045c928181520190610426565b90565b3461029c57602036600319011261029c576040516376e7d7f360e11b815260048035908201526000816024816001600160a01b037f0000000000000000000000000000000000000000000000000000000000000000165afa80156103d65760009081928291610617575b506040517f7b226e616d65223a2022526561646572204c6963656e7365202d2000000000006020820152928392603b840161050391613161565b61088b60f21b81526002016f113232b9b1b934b83a34b7b7111d101160811b815260100161053091613161565b61088b60f21b81526002016e2261747472696275746573223a205b60881b8152600f017f7b2274726169745f74797065223a20224c6f636174696f6e222c202276616c7581526432911d101160d91b602082015260250161059091613161565b62089f4b60ea1b81526003017f7b2274726169745f74797065223a20224c6963656e73652054797065222c202281527f76616c7565223a202252656164657220416363657373227d00000000000000006020820152603801615d7d60f01b815260020103601f1981018252610605908261076d565b60405161061381928261044b565b0390f35b91905061063692503d8091833e61062e818361076d565b810190612651565b5050505050505050509450509190509091386104c9565b3461029c57604036600319011261029c5760206102e960243561066f8161028b565b6004356000526006835260406000209060018060a01b0316600052602052604060002090565b3461029c57602036600319011261029c57600435600052600560205260a06040600020805490600181015490600281015460046003830154920154926040519485526020850152604084015260608301526080820152f35b3461029c57600036600319011261029c576020604051739402f9f20b4a27b55b1cc6cf015d98f764814fb28152f35b634e487b7160e01b600052604160045260246000fd5b608081019081106001600160401b0382111761074d57604052565b61071c565b602081019081106001600160401b0382111761074d57604052565b90601f801991011681019081106001600160401b0382111761074d57604052565b6040519061079b82610732565b565b60405190604082018281106001600160401b0382111761074d57604052565b6001600160401b03811161074d5760051b60200190565b81601f8201121561029c578035916107ea836107bc565b926107f8604051948561076d565b808452602092838086019260051b82010192831161029c578301905b828210610822575050505090565b81358152908301908301610814565b6001600160401b03811161074d57601f01601f191660200190565b81601f8201121561029c5780359061086382610831565b92610871604051948561076d565b8284526020838301011161029c57816000926020809301838601378301015290565b3461029c5760a036600319011261029c57600480356108b18161028b565b6024356108bd8161028b565b6001600160401b039060443582811161029c576108dd90369086016107d3565b9060643583811161029c576108f590369087016107d3565b9260843590811161029c5761090d903690870161084c565b936001600160a01b0380821690338214158061099c575b61096f5783161561095757156109405761093e9550611e90565b005b604051626a0d4560e21b8152600081880152602490fd5b604051632bfa23e760e11b8152600081890152602490fd5b6040805163711bec9160e11b815233818b019081526001600160a01b038616602082015290918291010390fd5b50600082815260016020908152604080832033845290915290205460ff1615610924565b3461029c57602036600319011261029c5760206109de600435612dc9565b6040519015158152f35b90815180825260208080930193019160005b828110610a08575050505090565b8351855293810193928101926001016109fa565b90602061045c9281815201906109e8565b3461029c57604036600319011261029c576004356001600160401b0380821161029c573660238301121561029c578160040135610a69816107bc565b92610a77604051948561076d565b81845260209160248386019160051b8301019136831161029c57602401905b828210610acf578560243586811161029c5761061391610abd610ac39236906004016107d3565b90611bcf565b60405191829182610a1c565b8380918335610add8161028b565b815201910190610a96565b3461029c57602036600319011261029c576040516376e7d7f360e11b815260048035908201526000816024817f00000000000000000000000000000000000000000000000000000000000000006001600160a01b03165afa80156103d65761061391600091610b67575b50604051918291602083526020830190610426565b610b7a913d8091833e61062e818361076d565b50505050505050505050509250505038610b52565b3461029c576000806003193601126103e457610ba9611b33565b600380546001600160a01b0319811690915581906001600160a01b03167f8be0079c531659141344cd1fd0a4f28419497f9722a3daafe3b4186f6b6457e08280a380f35b3461029c57600036600319011261029c57602060405160468152f35b3461029c57602036600319011261029c57600435610c2681612dc9565b15610c6f57610c4a6611c37937e0800091610c4583600b541015612e15565b612f23565b610c5d610c58600b54612785565b600b55565b600080808080943382f1156103d65780f35b60405162461bcd60e51b815260206004820152601760248201527f526567656e65726174696f6e206e6f74206e65656465640000000000000000006044820152606490fd5b3461029c57602036600319011261029c57600435610cd233826130fa565b15610d65576040516376e7d7f360e11b815260048101919091526000816024816001600160a01b037f0000000000000000000000000000000000000000000000000000000000000000165afa80156103d65761061391600091610d3d575b506040519182918261044b565b610d50913d8091833e61062e818361076d565b50505050505050505050505091505038610d30565b606460405162461bcd60e51b815260206004820152602060248201527f4e6f206163746976652061636365737320746f20746869732061727469636c656044820152fd5b3461029c57600036600319011261029c576003546040516001600160a01b039091168152602090f35b634e487b7160e01b600052603260045260246000fd5b8054821015610e045760005260206000209060021b0190600090565b610dd2565b3461029c57604036600319011261029c5760243560043560005260096020526040600020805482101561029c57608091610e4291610de8565b5080549060018101549060018060a01b036003816002840154169201541691604051938452602084015260408301526060820152f35b3461029c57600036600319011261029c576040517f00000000000000000000000000000000000000000000000000000000000000006001600160a01b03168152602090f35b604036600319011261029c57602435600435610ed88261028b565b610f12610f0a83610ef3846000526006602052604060002090565b9060018060a01b0316600052602052604060002090565b541515612a5c565b610f1b816127e4565b91610f258361208e565b92610f3284341015612aa1565b610f45610f3e82612746565b6064900490565b91610f52610f3e8361275c565b94610f6686610f6186866127a9565b6127a9565b6040516376e7d7f360e11b8152600481018790526000976001600160a01b039189816024817f000000000000000000000000000000000000000000000000000000000000000087165afa9081156103d6578a916111be575b50610fd786610ef38b6000526006602052604060002090565b610fe18154612ae4565b905561100d610ffa8a6000526006602052604060002090565b3360009081526020919091526040902090565b6110178154611ba7565b905561102c61102461217e565b8a3389611c5f565b89808080868a169b8c8282156111b5575bf1156103d6578992839283928392839183156111ab575b1690f1156103d65786808080938181156111a2575b739402f9f20b4a27b55b1cc6cf015d98f764814fb290f1156103d6576111158692611098610c58600b5461208e565b6110c46201518042046110b5896000526008602052604060002090565b90600052602052604060002090565b6110ce8154611ba7565b90556110e4876000526009602052604060002090565b6111106110ef61078e565b42815260208101889052336040820152926001600160a01b03166060840152565b612af1565b803411611175575b5050827f3846a81a03c71d25212027d222553680c4fc1bd52b8dfb1f1fbbbcd74c8fec79604051806111553395829190602083019252565b0390a461116181612dc9565b611169575080f35b61117290612f23565b80f35b81806111828193346127a9565b818115611199575b3390f1156103d657833861111d565b506108fc61118a565b506108fc611069565b6108fc9250611054565b506108fc61103d565b6111d291503d808c833e61062e818361076d565b50505050505050505050935050505038610fbe565b3461029c57604036600319011261029c576004356112048161028b565b602435908115159081830361029c576001600160a01b03811692831561128f576112506112619233600052600160205260406000209060018060a01b0316600052602052604060002090565b9060ff801983541691151516179055565b6040519081527f17307eab39ab6107e8899845ad3d59bd9653f200f220920489ca2b5937696c3160203392a3005b60405162ced3e160e81b815260006004820152602490fd5b3461029c57604036600319011261029c5760406112ef6024356112c98161028b565b6004356000526007602052826000209060018060a01b0316600052602052604060002090565b60ff6001825492015416825191825215156020820152f35b9092916040820191604081528451809352606081019260208096019060005b8181106113405750505061045c93948184039101526109e8565b82516001600160a01b031686529487019491870191600101611326565b3461029c57602036600319011261029c57604051639fb53fcb60e01b8152600480359082018190526000826024816001600160a01b037f0000000000000000000000000000000000000000000000000000000000000000165afa9182156103d65760009261144e575b506113d18251611b5f565b9160005b815181101561143f5761143a906114296113f9856000526006602052604060002090565b6114136114068487611bbb565b516001600160a01b031690565b60018060a01b0316600052602052604060002090565b546114348287611bbb565b52611ba7565b6113d5565b60405180610613868583611307565b61146a91923d8091833e611462818361076d565b810190612e59565b90386113c6565b3461029c57602036600319011261029c57600435600052600a6020526020604060002054604051908152f35b3461029c57602036600319011261029c5760206114bb6004356127e4565b604051908152f35b3461029c57604036600319011261029c57600435600052600860205260406000206024356000526020526020604060002054604051908152f35b3461029c57600036600319011261029c57602060405160148152f35b3461029c57600036600319011261029c5760206040516611c37937e080008152f35b3461029c57608036600319011261029c5760243560043561155b8261028b565b604435917fe3726a6d4ed43d7d4677d7dffa4cf0a0d67d40db3cd11cccf053dddceaf3d7d3906001600160a01b03906115b7337f000000000000000000000000000000000000000000000000000000000000000084161461243e565b836115cc816000526005602052604060002090565b5560026115e3856000526005602052604060002090565b016115ef8682546120c7565b90556003611607856000526005602052604060002090565b016116138682546120c7565b905561162984600052600a602052604060002090565b6116348682546120c7565b905561164e81610ef3866000526006602052604060002090565b6116598682546120c7565b905561166e61166661217e565b8686846124e1565b604080519586526064356020870152911693a3005b3461029c57600036600319011261029c57602060405160328152f35b3461029c57604036600319011261029c57602060ff6116fb6004356116c38161028b565b602435906116d08261028b565b60018060a01b03166000526001845260406000209060018060a01b0316600052602052604060002090565b54166040519015158152f35b3461029c5760a036600319011261029c576004356117248161028b565b6024356117308161028b565b6084356001600160401b03811161029c5761174f90369060040161084c565b906001600160a01b0383163381141590816117a2575b5061177b5761093e926064359160443591611ce0565b60405163711bec9160e11b81523360048201526001600160a01b0384166024820152604490fd5b6000908152600160209081526040808320338452909152902060ff915054161538611765565b3461029c57602036600319011261029c576004356117fe6117f6610ffa836000526006602052604060002090565b541515612b78565b61181761181261180e33846130fa565b1590565b612bb9565b61182f33610ef3836000526006602052604060002090565b6118398154612ae4565b90556003611851826000526005602052604060002090565b0161185c8154612ae4565b90556118688133612c28565b611871426120a2565b6118a361187c61079d565b8281526001602082015261189e33610ef3866000526007602052604060002090565b612c05565b604051818152339083907f8f4d6f0c7458447e5095acea28045c0cd637aa3b49812761a7ac022e6d643bf690602090a3817fc56e8aa8e9f4284830fd4657bc77d60640af2ec679f2099faf320ee4202ff422604051806119093395829190602083019252565b0390a361191581612dc9565b61191b57005b61093e90612f23565b3461029c57602036600319011261029c576004356119418161028b565b611949611b33565b6001600160a01b0390811690811561199d57600354826bffffffffffffffffffffffff60a01b821617600355167f8be0079c531659141344cd1fd0a4f28419497f9722a3daafe3b4186f6b6457e0600080a3005b604051631e4fbdf760e01b815260006004820152602490fd5b3461029c57604036600319011261029c5760206109de6024356119d88161028b565b6004356130fa565b60208082019080835283518092528060408094019401926000905b838210611a0a57505050505090565b8451805187528084015187850152808201516001600160a01b03908116888401526060918201511690870152608090950194938201936001909101906119fb565b3461029c5760208060031936011261029c576004908135600052600981526040918260002090815491611a7d836107bc565b93611a8a8651958661076d565b83855260009182528082208186015b858410611aad5787518061061389826119e0565b84836001928a51611abd81610732565b855481528486015483820152848060a01b03806002880154168d8301526003870154166060820152815201920193019290611a99565b3461029c57600036600319011261029c576020604051662386f26fc100008152f35b3461029c57600036600319011261029c576020600b54604051908152f35b6003546001600160a01b03163303611b4757565b60405163118cdaa760e01b8152336004820152602490fd5b90611b69826107bc565b611b76604051918261076d565b8281528092611b87601f19916107bc565b0190602036910137565b634e487b7160e01b600052601160045260246000fd5b6000198114611bb65760010190565b611b91565b8051821015610e045760209160051b010190565b91909180518351808203611c3d575050611be98151611b5f565b90600090815b8151811015611c355780611429611c309260051b85602080808489010151938c010151825252604086209060018060a01b0316600052602052604060002090565b611bef565b509193505050565b604051635b05999160e01b815260048101919091526024810191909152604490fd5b9192916001600160a01b0382811615611cc757811615611caf57611ca761079b9490604051916001835260208301526040820190600182526001606084015260808301604052565b929091611e90565b604051626a0d4560e21b815260006004820152602490fd5b604051632bfa23e760e11b815260006004820152602490fd5b92939290916001600160a01b0380841615611cc757821615611caf5761079b94611ca760405192600184526020840152604083019160018352606084015260808301604052565b908051835190818103611c3d57505060005b8151811015611da557600581901b8281016020908101519186010151611d73929185906001600160a01b038216611d78575b505050611ba7565b611d39565b611d9b91610ef3611d93926000526000602052604060002090565b9182546120c7565b9055388481611d6b565b50805191939291600103611e47576020818101518382015160408051928352928201526001600160a01b0386169160009133917fc3d58168c5ae7397731d063d5bbf3d657854427343f4c083240f7aacaa2d0f6291a45b6001600160a01b038416611e11575b50505050565b8051600103611e385790602080611e2f9593015191015191336121c1565b38808080611e0b565b611e4293336123d2565b611e2f565b6040516001600160a01b0385169060009033907f4a39dc06d4c0dbc64b70af90fd698a233a518aa5d07e595d983b8c0526c8f7fb9080611e888888836120d4565b0390a4611dfc565b949190918151845190818103611c3d57505060005b8251811015611f9857600581901b83810160209081015191870101516001600160a01b03929186908a8516611f11575b611ee7948216611eec57505050611ba7565b611ea5565b611f0791610ef3611d93926000526000602052604060002090565b9055388581611d6b565b9192939050611f2e8a610ef3846000526000602052604060002090565b54838110611f615791879184611ee796959403611f598d610ef3856000526000602052604060002090565b559450611ed5565b6040516303dee4c560e01b81526001600160a01b038c16600482015260248101919091526044810184905260648101839052608490fd5b509491939290936001855114600014612043576020858101518382015160408051928352928201526001600160a01b03838116929086169133917fc3d58168c5ae7397731d063d5bbf3d657854427343f4c083240f7aacaa2d0f6291a45b6001600160a01b03811661200c575b5050505050565b84516001036120325760208061202896015192015192336122bb565b3880808080612005565b61203e94919233612407565b612028565b6040516001600160a01b03828116919085169033907f4a39dc06d4c0dbc64b70af90fd698a233a518aa5d07e595d983b8c0526c8f7fb9080612086888c836120d4565b0390a4611ff6565b906611c37937e080008201809211611bb657565b9062093a808201809211611bb657565b90662386f26fc10000918201809211611bb657565b91908201809211611bb657565b90916120eb61045c936040845260408401906109e8565b9160208184039101526109e8565b9081602091031261029c575161045c81610315565b909260a09261045c9594600180861b0316835260006020840152604083015260608201528160808201520190610426565b919261045c95949160a094600180871b038092168552166020840152604083015260608201528160808201520190610426565b6040513d6000823e3d90fd5b6040519061218b82610752565b60008252565b3d156121bc573d906121a282610831565b916121b0604051938461076d565b82523d6000602084013e565b606090565b9293919093843b6121d3575050505050565b6020916121f6604051948593849363f23a6e6160e01b988986526004860161210e565b038160006001600160a01b0388165af16000918161228b575b5061224e578261221d612191565b805191908261224757604051632bfa23e760e11b81526001600160a01b0383166004820152602490fd5b9050602001fd5b6001600160e01b0319160361226857503880808080612005565b604051632bfa23e760e11b81526001600160a01b03919091166004820152602490fd5b6122ad91925060203d81116122b4575b6122a5818361076d565b8101906120f9565b903861220f565b503d61229b565b939290949194853b6122d0575b505050505050565b6122f3602093604051958694859463f23a6e6160e01b998a87526004870161213f565b038160006001600160a01b0388165af160009181612335575b5061231a578261221d612191565b6001600160e01b0319160361226857503880808080806122c8565b61234e91925060203d81116122b4576122a5818361076d565b903861230c565b9261238461045c95936123929360018060a01b031686526000602087015260a0604087015260a08601906109e8565b9084820360608601526109e8565b916080818403910152610426565b939061045c9593612384916123929460018060a01b03809216885216602087015260a0604087015260a08601906109e8565b9293919093843b6123e4575050505050565b6020916121f6604051948593849363bc197c8160e01b9889865260048601612355565b939290949194853b61241b57505050505050565b6122f3602093604051958694859463bc197c8160e01b998a8752600487016123a0565b1561244557565b60405162461bcd60e51b815260206004820152602860248201527f4f6e6c7920456e6372797074656441727469636c657320636f6e74726163742060448201526718d85b881b5a5b9d60c21b6064820152608490fd5b9091906001600160a01b03811615611cc7576124db61079b9390604051916001835260208301526040820190600182526001606084015260808301604052565b91611d27565b919291906001600160a01b03821615611cc75761079b936124db60405192600184526020840152604083019160018352606084015260808301604052565b1561252657565b60405162461bcd60e51b815260206004820152602260248201527f4e6f206c6963656e73657320657869737420666f7220746869732061727469636044820152616c6560f01b6064820152608490fd5b81601f8201121561029c57805161258c81610831565b9261259a604051948561076d565b8184526020828401011161029c5761045c9160208085019101610403565b519061079b8261028b565b9080601f8301121561029c578151906125db826107bc565b926125e9604051948561076d565b828452602092838086019160051b8301019280841161029c57848301915b8483106126175750505050505090565b82516001600160401b03811161029c57869161263884848094890101612576565b815201920191612607565b519060ff8216820361029c57565b91906101e08382031261029c578251926020810151926001600160401b039384811161029c5783612683918401612576565b93604083015181811161029c578461269c918501612576565b93606084015182811161029c57816126b5918601612576565b936126c2608082016125b8565b9360a082015184811161029c57836126db918401612576565b9360c083015181811161029c57846126f4918501612576565b9360e084015191821161029c5761270c9184016125c3565b9161010081015191610120820151916101408101519161016082015191610180810151916101c06127406101a08401612643565b92015190565b90604682029180830460461490151715611bb657565b90601482029180830460141490151715611bb657565b81810292918115918404141715611bb657565b6611c37937e07fff19810191908211611bb657565b600019810191908211611bb657565b91908203918211611bb657565b634e487b7160e01b600052601260045260246000fd5b80156127df57670dbd2fc137a300000490565b6127b6565b6127f881600052600a602052604060002090565b5461280481151561251f565b6040516376e7d7f360e11b8152600481018390526000929083816024816001600160a01b037f0000000000000000000000000000000000000000000000000000000000000000165afa80156103d6576128a4936128716128999261289e94889089926128cb575b50612772565b60018111156128c05761288e6128896128949261279a565b6127cc565b9161279a565b612772565b6120b2565b906128f6565b670de0b6b3a76400009150818111156128bb575090565b905090565b50612894869161279a565b90506128e191503d808a833e61062e818361076d565b50509b5050509750505050505050503861286b565b6040516376e7d7f360e11b81526004810182905260009391929084816024816001600160a01b037f0000000000000000000000000000000000000000000000000000000000000000165afa9081156103d6576129679161295e918791612a33575b50426127a9565b62015180900490565b9380936201518042049082955b87871080612a29575b15612a1c576129b1612999836000526008602052604060002090565b6129a389866127a9565b600052602052604060002090565b546129ce576129c26129c891611ba7565b96611ba7565b95612974565b93955050509193505b601e811115612a1057506129f0610f3e601e5b84612772565b905080821115612a035761045c916127a9565b505066038d7ea4c6800090565b610f3e6129f0916129ea565b93955050509193506129d7565b50601e871061297d565b612a4791503d8089833e61062e818361076d565b50505050505097505050505050505038612957565b15612a6357565b60405162461bcd60e51b815260206004820152601660248201527553656c6c657220686173206e6f206c6963656e73657360501b6044820152606490fd5b15612aa857565b60405162461bcd60e51b8152602060048201526014602482015273125b9cdd59999a58da595b9d081c185e5b595b9d60621b6044820152606490fd5b8015611bb6576000190190565b80546801000000000000000081101561074d57612b1391600182018155610de8565b612b6257815181556020820151600182015560408201516002820180546001600160a01b039283166001600160a01b031991821617909155606090930151600390920180549093169116179055565b634e487b7160e01b600052600060045260246000fd5b15612b7f57565b60405162461bcd60e51b81526020600482015260126024820152712737903634b1b2b739b2903a3790313ab93760711b6044820152606490fd5b15612bc057565b60405162461bcd60e51b815260206004820152601960248201527f416c7265616479206861732061637469766520616363657373000000000000006044820152606490fd5b6001602061079b93805184550151151591019060ff801983541691151516179055565b6001600160a01b038116918215611caf57612c62604051916001835260208301526040820190600182526001606084015260808301604052565b919060409460008651612c7481610752565b528151845190818103612da857505060005b8251811015612d21578060051b60208082860101519187010151612cb886610ef3846000526000602052604060002090565b54818110612ceb5786610ef3612ce6959493612ce09303936000526000602052604060002090565b55611ba7565b612c86565b89516303dee4c560e01b81526001600160a01b038816600482015260248101919091526044810182905260648101839052608490fd5b50949060009493925060018151148514612d765760209081015192810151915192835282015233907fc3d58168c5ae7397731d063d5bbf3d657854427343f4c083240f7aacaa2d0f629080604081015b0390a4565b905133927f4a39dc06d4c0dbc64b70af90fd698a233a518aa5d07e595d983b8c0526c8f7fb928291612d7191836120d4565b8751635b05999160e01b815260048101919091526024810191909152604490fd5b6000526005602052604060002060036002820154910154908015612e0e5781810391818311611bb657606483029283046064149082141715611bb65760329104101590565b5050600090565b15612e1c57565b60405162461bcd60e51b8152602060048201526015602482015274125b9cdd59999a58da595b9d0819d85cc81c1bdbdb605a1b6044820152606490fd5b602090818184031261029c578051906001600160401b03821161029c57019180601f8401121561029c578251612e8e816107bc565b93612e9c604051958661076d565b818552838086019260051b82010192831161029c578301905b828210612ec3575050505090565b8380918351612ed18161028b565b815201910190612eb5565b15612ee357565b60405162461bcd60e51b815260206004820152600e60248201526d4e6f204e465420686f6c6465727360901b6044820152606490fd5b81156127df570690565b90612f5d6002612f3d846000526005602052604060002090565b01546003612f55856000526005602052604060002090565b0154906127a9565b9182156130f557604051639fb53fcb60e01b815260048101829052926000846024816001600160a01b037f0000000000000000000000000000000000000000000000000000000000000000165afa9384156103d6576000946130da575b50612fc784511515612edc565b60005b81811061307f575081929350600361300c7eb4ea54fb8c538cd9c23515e23d54351acc66c4539507193ceae7d70e65d30d936000526005602052604060002090565b016130188282546120c7565b9055426004613031856000526005602052604060002090565b015561304783600052600a602052604060002090565b6130528282546120c7565b9055600361306a846000526005602052604060002090565b015460408051928352602083019190915290a2565b6130d5906130d061309d611406613097895185612f19565b89611bbb565b6130b581610ef3886000526006602052604060002090565b6130bf8154611ba7565b9055856130ca61217e565b9161249b565b611ba7565b612fca565b6130ee91943d8091833e611462818361076d565b9238612fba565b509050565b60009081526007602090815260408083206001600160a01b039094168352929052206040519060408201918083106001600160401b0384111761074d5760209260405260ff6001835493848452015416151592839101528161315a575090565b9050421090565b9061317460209282815194859201610403565b019056fea264697066735822122096df3bde2c8eb487b6f7c50a086eb13b2808f902614f9b5d6ad6651dc9bd34ca64736f6c63430008140033","opcodes":"PUSH1 0xA0 CALLVALUE PUSH3 0x1D8 JUMPI PUSH1 0x1 PUSH1 0x1 PUSH1 0x40 SHL SUB SWAP1 PUSH1 0x1F PUSH3 0x338C CODESIZE DUP2 SWAP1 SUB SWAP2 DUP3 ADD PUSH1 0x1F NOT AND DUP4 ADD SWAP2 DUP5 DUP4 GT DUP5 DUP5 LT OR PUSH3 0x1C2 JUMPI DUP1 DUP5 SWAP3 PUSH1 0x20 SWAP5 PUSH1 0x40 MSTORE DUP4 CODECOPY DUP2 ADD SUB SLT PUSH3 0x1D8 JUMPI MLOAD PUSH1 0x1 PUSH1 0x1 PUSH1 0xA0 SHL SUB SWAP2 DUP3 DUP3 AND SWAP2 DUP3 SWAP1 SUB PUSH3 0x1D8 JUMPI PUSH1 0x40 MLOAD SWAP1 PUSH1 0x20 DUP3 ADD SWAP1 DUP2 GT DUP3 DUP3 LT OR PUSH3 0x1C2 JUMPI PUSH1 0x40 MSTORE PUSH1 0x0 DUP1 SWAP2 MSTORE PUSH1 0x2 SLOAD PUSH1 0x1 SWAP1 DUP2 DUP2 DUP2 SHR SWAP2 AND DUP1 ISZERO PUSH3 0x1B7 JUMPI JUMPDEST PUSH1 0x20 DUP3 LT EQ PUSH3 0x1A3 JUMPI PUSH1 0x1F DUP2 GT PUSH3 0x159 JUMPI JUMPDEST POP POP DUP1 PUSH1 0x2 SSTORE CALLER ISZERO PUSH3 0x141 JUMPI PUSH1 0x3 SLOAD SWAP1 CALLER PUSH1 0x1 DUP1 PUSH1 0xA0 SHL SUB NOT DUP4 AND OR PUSH1 0x3 SSTORE PUSH32 0x8BE0079C531659141344CD1FD0A4F28419497F9722A3DAAFE3B4186F6B6457E0 PUSH1 0x40 MLOAD SWAP5 CALLER SWAP4 AND SWAP2 DUP1 LOG3 PUSH1 0x80 MSTORE PUSH2 0x31AE SWAP1 DUP2 PUSH3 0x1DE DUP3 CODECOPY PUSH1 0x80 MLOAD DUP2 DUP2 DUP2 PUSH2 0x495 ADD MSTORE DUP2 DUP2 PUSH2 0xB16 ADD MSTORE DUP2 DUP2 PUSH2 0xCFC ADD MSTORE DUP2 DUP2 PUSH2 0xE8E ADD MSTORE DUP2 DUP2 PUSH2 0xF8D ADD MSTORE DUP2 DUP2 PUSH2 0x1395 ADD MSTORE DUP2 DUP2 PUSH2 0x1590 ADD MSTORE DUP2 DUP2 PUSH2 0x282B ADD MSTORE DUP2 DUP2 PUSH2 0x291F ADD MSTORE PUSH2 0x2F89 ADD MSTORE RETURN JUMPDEST PUSH1 0x24 SWAP1 PUSH1 0x40 MLOAD SWAP1 PUSH4 0x1E4FBDF7 PUSH1 0xE0 SHL DUP3 MSTORE PUSH1 0x4 DUP3 ADD MSTORE REVERT JUMPDEST PUSH1 0x2 DUP4 MSTORE PUSH1 0x1F ADD PUSH1 0x5 SHR PUSH32 0x405787FA12A823E0F2B7631CC41B3BA8828B3321CA811111FA75CD3AA3BB5ACE SWAP1 DUP2 ADD SWAP1 JUMPDEST DUP2 DUP2 LT PUSH3 0x198 JUMPI POP PUSH3 0x9E JUMP JUMPDEST DUP4 DUP2 SSTORE DUP3 ADD PUSH3 0x189 JUMP JUMPDEST PUSH4 0x4E487B71 PUSH1 0xE0 SHL DUP4 MSTORE PUSH1 0x22 PUSH1 0x4 MSTORE PUSH1 0x24 DUP4 REVERT JUMPDEST SWAP1 PUSH1 0x7F AND SWAP1 PUSH3 0x8A JUMP JUMPDEST PUSH4 0x4E487B71 PUSH1 0xE0 SHL PUSH1 0x0 MSTORE PUSH1 0x41 PUSH1 0x4 MSTORE PUSH1 0x24 PUSH1 0x0 REVERT JUMPDEST PUSH1 0x0 DUP1 REVERT INVALID PUSH1 0x80 PUSH1 0x40 MSTORE PUSH1 0x4 CALLDATASIZE LT ISZERO PUSH2 0x12 JUMPI PUSH1 0x0 DUP1 REVERT JUMPDEST PUSH1 0x0 CALLDATALOAD PUSH1 0xE0 SHR DUP1 PUSH3 0xFDD58E EQ PUSH2 0x286 JUMPI DUP1 PUSH4 0x1C11D96 EQ PUSH2 0x281 JUMPI DUP1 PUSH4 0x1FFC9A7 EQ PUSH2 0x27C JUMPI DUP1 PUSH4 0x813D3F6 EQ PUSH2 0x277 JUMPI DUP1 PUSH4 0x9886C9C EQ PUSH2 0x272 JUMPI DUP1 PUSH4 0xE89341C EQ PUSH2 0x26D JUMPI DUP1 PUSH4 0x1453A424 EQ PUSH2 0x268 JUMPI DUP1 PUSH4 0x1E084558 EQ PUSH2 0x263 JUMPI DUP1 PUSH4 0x2D2C5565 EQ PUSH2 0x25E JUMPI DUP1 PUSH4 0x2EB2C2D6 EQ PUSH2 0x259 JUMPI DUP1 PUSH4 0x43C7580E EQ PUSH2 0x254 JUMPI DUP1 PUSH4 0x4E1273F4 EQ PUSH2 0x24F JUMPI DUP1 PUSH4 0x607EA36D EQ PUSH2 0x24A JUMPI DUP1 PUSH4 0x715018A6 EQ PUSH2 0x245 JUMPI DUP1 PUSH4 0x72009528 EQ PUSH2 0x240 JUMPI DUP1 PUSH4 0x75315716 EQ PUSH2 0x23B JUMPI DUP1 PUSH4 0x8D40E0CD EQ PUSH2 0x236 JUMPI DUP1 PUSH4 0x8DA5CB5B EQ PUSH2 0x231 JUMPI DUP1 PUSH4 0x95F58AB8 EQ PUSH2 0x22C JUMPI DUP1 PUSH4 0x98E9D0E0 EQ PUSH2 0x227 JUMPI DUP1 PUSH4 0x996CB745 EQ PUSH2 0x222 JUMPI DUP1 PUSH4 0xA22CB465 EQ PUSH2 0x21D JUMPI DUP1 PUSH4 0xAB0B8B04 EQ PUSH2 0x218 JUMPI DUP1 PUSH4 0xB3C655C0 EQ PUSH2 0x213 JUMPI DUP1 PUSH4 0xBCA59003 EQ PUSH2 0x20E JUMPI DUP1 PUSH4 0xC55D0F56 EQ PUSH2 0x209 JUMPI DUP1 PUSH4 0xC98D6E99 EQ PUSH2 0x204 JUMPI DUP1 PUSH4 0xCA9F19EF EQ PUSH2 0x1FF JUMPI DUP1 PUSH4 0xCB8B2522 EQ PUSH2 0x1FA JUMPI DUP1 PUSH4 0xDF81A823 EQ PUSH2 0x1F5 JUMPI DUP1 PUSH4 0xE3685397 EQ PUSH2 0x1F0 JUMPI DUP1 PUSH4 0xE985E9C5 EQ PUSH2 0x1EB JUMPI DUP1 PUSH4 0xF242432A EQ PUSH2 0x1E6 JUMPI DUP1 PUSH4 0xF24C4EAC EQ PUSH2 0x1E1 JUMPI DUP1 PUSH4 0xF2FDE38B EQ PUSH2 0x1DC JUMPI DUP1 PUSH4 0xF499924B EQ PUSH2 0x1D7 JUMPI DUP1 PUSH4 0xF4BF28A0 EQ PUSH2 0x1D2 JUMPI DUP1 PUSH4 0xF86325ED EQ PUSH2 0x1CD JUMPI PUSH4 0xFA08B038 EQ PUSH2 0x1C8 JUMPI PUSH1 0x0 DUP1 REVERT JUMPDEST PUSH2 0x1B15 JUMP JUMPDEST PUSH2 0x1AF3 JUMP JUMPDEST PUSH2 0x1A4B JUMP JUMPDEST PUSH2 0x19B6 JUMP JUMPDEST PUSH2 0x1924 JUMP JUMPDEST PUSH2 0x17C8 JUMP JUMPDEST PUSH2 0x1707 JUMP JUMPDEST PUSH2 0x169F JUMP JUMPDEST PUSH2 0x1683 JUMP JUMPDEST PUSH2 0x153B JUMP JUMPDEST PUSH2 0x1519 JUMP JUMPDEST PUSH2 0x14FD JUMP JUMPDEST PUSH2 0x14C3 JUMP JUMPDEST PUSH2 0x149D JUMP JUMPDEST PUSH2 0x1471 JUMP JUMPDEST PUSH2 0x135D JUMP JUMPDEST PUSH2 0x12A7 JUMP JUMPDEST PUSH2 0x11E7 JUMP JUMPDEST PUSH2 0xEBD JUMP JUMPDEST PUSH2 0xE78 JUMP JUMPDEST PUSH2 0xE09 JUMP JUMPDEST PUSH2 0xDA9 JUMP JUMPDEST PUSH2 0xCB4 JUMP JUMPDEST PUSH2 0xC09 JUMP JUMPDEST PUSH2 0xBED JUMP JUMPDEST PUSH2 0xB8F JUMP JUMPDEST PUSH2 0xAE8 JUMP JUMPDEST PUSH2 0xA2D JUMP JUMPDEST PUSH2 0x9C0 JUMP JUMPDEST PUSH2 0x893 JUMP JUMPDEST PUSH2 0x6ED JUMP JUMPDEST PUSH2 0x695 JUMP JUMPDEST PUSH2 0x64D JUMP JUMPDEST PUSH2 0x45F JUMP JUMPDEST PUSH2 0x3E7 JUMP JUMPDEST PUSH2 0x395 JUMP JUMPDEST PUSH2 0x327 JUMP JUMPDEST PUSH2 0x2F2 JUMP JUMPDEST PUSH2 0x2A1 JUMP JUMPDEST PUSH1 0x1 PUSH1 0x1 PUSH1 0xA0 SHL SUB DUP2 AND SUB PUSH2 0x29C JUMPI JUMP JUMPDEST PUSH1 0x0 DUP1 REVERT JUMPDEST CALLVALUE PUSH2 0x29C JUMPI PUSH1 0x40 CALLDATASIZE PUSH1 0x3 NOT ADD SLT PUSH2 0x29C JUMPI PUSH1 0x20 PUSH2 0x2E9 PUSH1 0x4 CALLDATALOAD PUSH2 0x2C3 DUP2 PUSH2 0x28B JUMP JUMPDEST PUSH1 0x24 CALLDATALOAD PUSH1 0x0 MSTORE PUSH1 0x0 DUP4 MSTORE PUSH1 0x40 PUSH1 0x0 KECCAK256 SWAP1 PUSH1 0x1 DUP1 PUSH1 0xA0 SHL SUB AND PUSH1 0x0 MSTORE PUSH1 0x20 MSTORE PUSH1 0x40 PUSH1 0x0 KECCAK256 SWAP1 JUMP JUMPDEST SLOAD PUSH1 0x40 MLOAD SWAP1 DUP2 MSTORE RETURN JUMPDEST CALLVALUE PUSH2 0x29C JUMPI PUSH1 0x0 CALLDATASIZE PUSH1 0x3 NOT ADD SLT PUSH2 0x29C JUMPI PUSH1 0x20 PUSH1 0x40 MLOAD PUSH8 0xDE0B6B3A7640000 DUP2 MSTORE RETURN JUMPDEST PUSH1 0x1 PUSH1 0x1 PUSH1 0xE0 SHL SUB NOT DUP2 AND SUB PUSH2 0x29C JUMPI JUMP JUMPDEST CALLVALUE PUSH2 0x29C JUMPI PUSH1 0x20 CALLDATASIZE PUSH1 0x3 NOT ADD SLT PUSH2 0x29C JUMPI PUSH1 0x20 PUSH1 0x4 CALLDATALOAD PUSH2 0x346 DUP2 PUSH2 0x315 JUMP JUMPDEST PUSH4 0xFFFFFFFF PUSH1 0xE0 SHL AND PUSH4 0x6CDB3D13 PUSH1 0xE1 SHL DUP2 EQ SWAP1 DUP2 ISZERO PUSH2 0x384 JUMPI JUMPDEST DUP2 ISZERO PUSH2 0x373 JUMPI JUMPDEST POP PUSH1 0x40 MLOAD SWAP1 ISZERO ISZERO DUP2 MSTORE RETURN JUMPDEST PUSH4 0x1FFC9A7 PUSH1 0xE0 SHL EQ SWAP1 POP CODESIZE PUSH2 0x368 JUMP JUMPDEST PUSH4 0x3A24D07 PUSH1 0xE2 SHL DUP2 EQ SWAP2 POP PUSH2 0x361 JUMP JUMPDEST CALLVALUE PUSH2 0x29C JUMPI PUSH1 0x0 DUP1 PUSH1 0x3 NOT CALLDATASIZE ADD SLT PUSH2 0x3E4 JUMPI PUSH2 0x3AF PUSH2 0x1B33 JUMP JUMPDEST DUP1 DUP1 DUP1 DUP1 PUSH1 0xB SLOAD DUP2 PUSH1 0xB SSTORE PUSH1 0x1 DUP1 PUSH1 0xA0 SHL SUB PUSH1 0x3 SLOAD AND DUP3 DUP3 ISZERO PUSH2 0x3DB JUMPI JUMPDEST CALL ISZERO PUSH2 0x3D6 JUMPI DUP1 RETURN JUMPDEST PUSH2 0x2172 JUMP JUMPDEST POP PUSH2 0x8FC PUSH2 0x3CD JUMP JUMPDEST DUP1 REVERT JUMPDEST CALLVALUE PUSH2 0x29C JUMPI PUSH1 0x0 CALLDATASIZE PUSH1 0x3 NOT ADD SLT PUSH2 0x29C JUMPI PUSH1 0x20 PUSH1 0x40 MLOAD PUSH1 0xA DUP2 MSTORE RETURN JUMPDEST PUSH1 0x0 JUMPDEST DUP4 DUP2 LT PUSH2 0x416 JUMPI POP POP PUSH1 0x0 SWAP2 ADD MSTORE JUMP JUMPDEST DUP2 DUP2 ADD MLOAD DUP4 DUP3 ADD MSTORE PUSH1 0x20 ADD PUSH2 0x406 JUMP JUMPDEST SWAP1 PUSH1 0x20 SWAP2 PUSH2 0x43F DUP2 MLOAD DUP1 SWAP3 DUP2 DUP6 MSTORE DUP6 DUP1 DUP7 ADD SWAP2 ADD PUSH2 0x403 JUMP JUMPDEST PUSH1 0x1F ADD PUSH1 0x1F NOT AND ADD ADD SWAP1 JUMP JUMPDEST SWAP1 PUSH1 0x20 PUSH2 0x45C SWAP3 DUP2 DUP2 MSTORE ADD SWAP1 PUSH2 0x426 JUMP JUMPDEST SWAP1 JUMP JUMPDEST CALLVALUE PUSH2 0x29C JUMPI PUSH1 0x20 CALLDATASIZE PUSH1 0x3 NOT ADD SLT PUSH2 0x29C JUMPI PUSH1 0x40 MLOAD PUSH4 0x76E7D7F3 PUSH1 0xE1 SHL DUP2 MSTORE PUSH1 0x4 DUP1 CALLDATALOAD SWAP1 DUP3 ADD MSTORE PUSH1 0x0 DUP2 PUSH1 0x24 DUP2 PUSH1 0x1 PUSH1 0x1 PUSH1 0xA0 SHL SUB PUSH32 0x0 AND GAS STATICCALL DUP1 ISZERO PUSH2 0x3D6 JUMPI PUSH1 0x0 SWAP1 DUP2 SWAP3 DUP3 SWAP2 PUSH2 0x617 JUMPI JUMPDEST POP PUSH1 0x40 MLOAD PUSH32 0x7B226E616D65223A2022526561646572204C6963656E7365202D200000000000 PUSH1 0x20 DUP3 ADD MSTORE SWAP3 DUP4 SWAP3 PUSH1 0x3B DUP5 ADD PUSH2 0x503 SWAP2 PUSH2 0x3161 JUMP JUMPDEST PUSH2 0x88B PUSH1 0xF2 SHL DUP2 MSTORE PUSH1 0x2 ADD PUSH16 0x113232B9B1B934B83A34B7B7111D1011 PUSH1 0x81 SHL DUP2 MSTORE PUSH1 0x10 ADD PUSH2 0x530 SWAP2 PUSH2 0x3161 JUMP JUMPDEST PUSH2 0x88B PUSH1 0xF2 SHL DUP2 MSTORE PUSH1 0x2 ADD PUSH15 0x2261747472696275746573223A205B PUSH1 0x88 SHL DUP2 MSTORE PUSH1 0xF ADD PUSH32 0x7B2274726169745F74797065223A20224C6F636174696F6E222C202276616C75 DUP2 MSTORE PUSH5 0x32911D1011 PUSH1 0xD9 SHL PUSH1 0x20 DUP3 ADD MSTORE PUSH1 0x25 ADD PUSH2 0x590 SWAP2 PUSH2 0x3161 JUMP JUMPDEST PUSH3 0x89F4B PUSH1 0xEA SHL DUP2 MSTORE PUSH1 0x3 ADD PUSH32 0x7B2274726169745F74797065223A20224C6963656E73652054797065222C2022 DUP2 MSTORE PUSH32 0x76616C7565223A202252656164657220416363657373227D0000000000000000 PUSH1 0x20 DUP3 ADD MSTORE PUSH1 0x38 ADD PUSH2 0x5D7D PUSH1 0xF0 SHL DUP2 MSTORE PUSH1 0x2 ADD SUB PUSH1 0x1F NOT DUP2 ADD DUP3 MSTORE PUSH2 0x605 SWAP1 DUP3 PUSH2 0x76D JUMP JUMPDEST PUSH1 0x40 MLOAD PUSH2 0x613 DUP2 SWAP3 DUP3 PUSH2 0x44B JUMP JUMPDEST SUB SWAP1 RETURN JUMPDEST SWAP2 SWAP1 POP PUSH2 0x636 SWAP3 POP RETURNDATASIZE DUP1 SWAP2 DUP4 RETURNDATACOPY PUSH2 0x62E DUP2 DUP4 PUSH2 0x76D JUMP JUMPDEST DUP2 ADD SWAP1 PUSH2 0x2651 JUMP JUMPDEST POP POP POP POP POP POP POP POP POP SWAP5 POP POP SWAP2 SWAP1 POP SWAP1 SWAP2 CODESIZE PUSH2 0x4C9 JUMP JUMPDEST CALLVALUE PUSH2 0x29C JUMPI PUSH1 0x40 CALLDATASIZE PUSH1 0x3 NOT ADD SLT PUSH2 0x29C JUMPI PUSH1 0x20 PUSH2 0x2E9 PUSH1 0x24 CALLDATALOAD PUSH2 0x66F DUP2 PUSH2 0x28B JUMP JUMPDEST PUSH1 0x4 CALLDATALOAD PUSH1 0x0 MSTORE PUSH1 0x6 DUP4 MSTORE PUSH1 0x40 PUSH1 0x0 KECCAK256 SWAP1 PUSH1 0x1 DUP1 PUSH1 0xA0 SHL SUB AND PUSH1 0x0 MSTORE PUSH1 0x20 MSTORE PUSH1 0x40 PUSH1 0x0 KECCAK256 SWAP1 JUMP JUMPDEST CALLVALUE PUSH2 0x29C JUMPI PUSH1 0x20 CALLDATASIZE PUSH1 0x3 NOT ADD SLT PUSH2 0x29C JUMPI PUSH1 0x4 CALLDATALOAD PUSH1 0x0 MSTORE PUSH1 0x5 PUSH1 0x20 MSTORE PUSH1 0xA0 PUSH1 0x40 PUSH1 0x0 KECCAK256 DUP1 SLOAD SWAP1 PUSH1 0x1 DUP2 ADD SLOAD SWAP1 PUSH1 0x2 DUP2 ADD SLOAD PUSH1 0x4 PUSH1 0x3 DUP4 ADD SLOAD SWAP3 ADD SLOAD SWAP3 PUSH1 0x40 MLOAD SWAP5 DUP6 MSTORE PUSH1 0x20 DUP6 ADD MSTORE PUSH1 0x40 DUP5 ADD MSTORE PUSH1 0x60 DUP4 ADD MSTORE PUSH1 0x80 DUP3 ADD MSTORE RETURN JUMPDEST CALLVALUE PUSH2 0x29C JUMPI PUSH1 0x0 CALLDATASIZE PUSH1 0x3 NOT ADD SLT PUSH2 0x29C JUMPI PUSH1 0x20 PUSH1 0x40 MLOAD PUSH20 0x9402F9F20B4A27B55B1CC6CF015D98F764814FB2 DUP2 MSTORE RETURN JUMPDEST PUSH4 0x4E487B71 PUSH1 0xE0 SHL PUSH1 0x0 MSTORE PUSH1 0x41 PUSH1 0x4 MSTORE PUSH1 0x24 PUSH1 0x0 REVERT JUMPDEST PUSH1 0x80 DUP2 ADD SWAP1 DUP2 LT PUSH1 0x1 PUSH1 0x1 PUSH1 0x40 SHL SUB DUP3 GT OR PUSH2 0x74D JUMPI PUSH1 0x40 MSTORE JUMP JUMPDEST PUSH2 0x71C JUMP JUMPDEST PUSH1 0x20 DUP2 ADD SWAP1 DUP2 LT PUSH1 0x1 PUSH1 0x1 PUSH1 0x40 SHL SUB DUP3 GT OR PUSH2 0x74D JUMPI PUSH1 0x40 MSTORE JUMP JUMPDEST SWAP1 PUSH1 0x1F DUP1 NOT SWAP2 ADD AND DUP2 ADD SWAP1 DUP2 LT PUSH1 0x1 PUSH1 0x1 PUSH1 0x40 SHL SUB DUP3 GT OR PUSH2 0x74D JUMPI PUSH1 0x40 MSTORE JUMP JUMPDEST PUSH1 0x40 MLOAD SWAP1 PUSH2 0x79B DUP3 PUSH2 0x732 JUMP JUMPDEST JUMP JUMPDEST PUSH1 0x40 MLOAD SWAP1 PUSH1 0x40 DUP3 ADD DUP3 DUP2 LT PUSH1 0x1 PUSH1 0x1 PUSH1 0x40 SHL SUB DUP3 GT OR PUSH2 0x74D JUMPI PUSH1 0x40 MSTORE JUMP JUMPDEST PUSH1 0x1 PUSH1 0x1 PUSH1 0x40 SHL SUB DUP2 GT PUSH2 0x74D JUMPI PUSH1 0x5 SHL PUSH1 0x20 ADD SWAP1 JUMP JUMPDEST DUP2 PUSH1 0x1F DUP3 ADD SLT ISZERO PUSH2 0x29C JUMPI DUP1 CALLDATALOAD SWAP2 PUSH2 0x7EA DUP4 PUSH2 0x7BC JUMP JUMPDEST SWAP3 PUSH2 0x7F8 PUSH1 0x40 MLOAD SWAP5 DUP6 PUSH2 0x76D JUMP JUMPDEST DUP1 DUP5 MSTORE PUSH1 0x20 SWAP3 DUP4 DUP1 DUP7 ADD SWAP3 PUSH1 0x5 SHL DUP3 ADD ADD SWAP3 DUP4 GT PUSH2 0x29C JUMPI DUP4 ADD SWAP1 JUMPDEST DUP3 DUP3 LT PUSH2 0x822 JUMPI POP POP POP POP SWAP1 JUMP JUMPDEST DUP2 CALLDATALOAD DUP2 MSTORE SWAP1 DUP4 ADD SWAP1 DUP4 ADD PUSH2 0x814 JUMP JUMPDEST PUSH1 0x1 PUSH1 0x1 PUSH1 0x40 SHL SUB DUP2 GT PUSH2 0x74D JUMPI PUSH1 0x1F ADD PUSH1 0x1F NOT AND PUSH1 0x20 ADD SWAP1 JUMP JUMPDEST DUP2 PUSH1 0x1F DUP3 ADD SLT ISZERO PUSH2 0x29C JUMPI DUP1 CALLDATALOAD SWAP1 PUSH2 0x863 DUP3 PUSH2 0x831 JUMP JUMPDEST SWAP3 PUSH2 0x871 PUSH1 0x40 MLOAD SWAP5 DUP6 PUSH2 0x76D JUMP JUMPDEST DUP3 DUP5 MSTORE PUSH1 0x20 DUP4 DUP4 ADD ADD GT PUSH2 0x29C JUMPI DUP2 PUSH1 0x0 SWAP3 PUSH1 0x20 DUP1 SWAP4 ADD DUP4 DUP7 ADD CALLDATACOPY DUP4 ADD ADD MSTORE SWAP1 JUMP JUMPDEST CALLVALUE PUSH2 0x29C JUMPI PUSH1 0xA0 CALLDATASIZE PUSH1 0x3 NOT ADD SLT PUSH2 0x29C JUMPI PUSH1 0x4 DUP1 CALLDATALOAD PUSH2 0x8B1 DUP2 PUSH2 0x28B JUMP JUMPDEST PUSH1 0x24 CALLDATALOAD PUSH2 0x8BD DUP2 PUSH2 0x28B JUMP JUMPDEST PUSH1 0x1 PUSH1 0x1 PUSH1 0x40 SHL SUB SWAP1 PUSH1 0x44 CALLDATALOAD DUP3 DUP2 GT PUSH2 0x29C JUMPI PUSH2 0x8DD SWAP1 CALLDATASIZE SWAP1 DUP7 ADD PUSH2 0x7D3 JUMP JUMPDEST SWAP1 PUSH1 0x64 CALLDATALOAD DUP4 DUP2 GT PUSH2 0x29C JUMPI PUSH2 0x8F5 SWAP1 CALLDATASIZE SWAP1 DUP8 ADD PUSH2 0x7D3 JUMP JUMPDEST SWAP3 PUSH1 0x84 CALLDATALOAD SWAP1 DUP2 GT PUSH2 0x29C JUMPI PUSH2 0x90D SWAP1 CALLDATASIZE SWAP1 DUP8 ADD PUSH2 0x84C JUMP JUMPDEST SWAP4 PUSH1 0x1 PUSH1 0x1 PUSH1 0xA0 SHL SUB DUP1 DUP3 AND SWAP1 CALLER DUP3 EQ ISZERO DUP1 PUSH2 0x99C JUMPI JUMPDEST PUSH2 0x96F JUMPI DUP4 AND ISZERO PUSH2 0x957 JUMPI ISZERO PUSH2 0x940 JUMPI PUSH2 0x93E SWAP6 POP PUSH2 0x1E90 JUMP JUMPDEST STOP JUMPDEST PUSH1 0x40 MLOAD PUSH3 0x6A0D45 PUSH1 0xE2 SHL DUP2 MSTORE PUSH1 0x0 DUP2 DUP9 ADD MSTORE PUSH1 0x24 SWAP1 REVERT JUMPDEST PUSH1 0x40 MLOAD PUSH4 0x2BFA23E7 PUSH1 0xE1 SHL DUP2 MSTORE PUSH1 0x0 DUP2 DUP10 ADD MSTORE PUSH1 0x24 SWAP1 REVERT JUMPDEST PUSH1 0x40 DUP1 MLOAD PUSH4 0x711BEC91 PUSH1 0xE1 SHL DUP2 MSTORE CALLER DUP2 DUP12 ADD SWAP1 DUP2 MSTORE PUSH1 0x1 PUSH1 0x1 PUSH1 0xA0 SHL SUB DUP7 AND PUSH1 0x20 DUP3 ADD MSTORE SWAP1 SWAP2 DUP3 SWAP2 ADD SUB SWAP1 REVERT JUMPDEST POP PUSH1 0x0 DUP3 DUP2 MSTORE PUSH1 0x1 PUSH1 0x20 SWAP1 DUP2 MSTORE PUSH1 0x40 DUP1 DUP4 KECCAK256 CALLER DUP5 MSTORE SWAP1 SWAP2 MSTORE SWAP1 KECCAK256 SLOAD PUSH1 0xFF AND ISZERO PUSH2 0x924 JUMP JUMPDEST CALLVALUE PUSH2 0x29C JUMPI PUSH1 0x20 CALLDATASIZE PUSH1 0x3 NOT ADD SLT PUSH2 0x29C JUMPI PUSH1 0x20 PUSH2 0x9DE PUSH1 0x4 CALLDATALOAD PUSH2 0x2DC9 JUMP JUMPDEST PUSH1 0x40 MLOAD SWAP1 ISZERO ISZERO DUP2 MSTORE RETURN JUMPDEST SWAP1 DUP2 MLOAD DUP1 DUP3 MSTORE PUSH1 0x20 DUP1 DUP1 SWAP4 ADD SWAP4 ADD SWAP2 PUSH1 0x0 JUMPDEST DUP3 DUP2 LT PUSH2 0xA08 JUMPI POP POP POP POP SWAP1 JUMP JUMPDEST DUP4 MLOAD DUP6 MSTORE SWAP4 DUP2 ADD SWAP4 SWAP3 DUP2 ADD SWAP3 PUSH1 0x1 ADD PUSH2 0x9FA JUMP JUMPDEST SWAP1 PUSH1 0x20 PUSH2 0x45C SWAP3 DUP2 DUP2 MSTORE ADD SWAP1 PUSH2 0x9E8 JUMP JUMPDEST CALLVALUE PUSH2 0x29C JUMPI PUSH1 0x40 CALLDATASIZE PUSH1 0x3 NOT ADD SLT PUSH2 0x29C JUMPI PUSH1 0x4 CALLDATALOAD PUSH1 0x1 PUSH1 0x1 PUSH1 0x40 SHL SUB DUP1 DUP3 GT PUSH2 0x29C JUMPI CALLDATASIZE PUSH1 0x23 DUP4 ADD SLT ISZERO PUSH2 0x29C JUMPI DUP2 PUSH1 0x4 ADD CALLDATALOAD PUSH2 0xA69 DUP2 PUSH2 0x7BC JUMP JUMPDEST SWAP3 PUSH2 0xA77 PUSH1 0x40 MLOAD SWAP5 DUP6 PUSH2 0x76D JUMP JUMPDEST DUP2 DUP5 MSTORE PUSH1 0x20 SWAP2 PUSH1 0x24 DUP4 DUP7 ADD SWAP2 PUSH1 0x5 SHL DUP4 ADD ADD SWAP2 CALLDATASIZE DUP4 GT PUSH2 0x29C JUMPI PUSH1 0x24 ADD SWAP1 JUMPDEST DUP3 DUP3 LT PUSH2 0xACF JUMPI DUP6 PUSH1 0x24 CALLDATALOAD DUP7 DUP2 GT PUSH2 0x29C JUMPI PUSH2 0x613 SWAP2 PUSH2 0xABD PUSH2 0xAC3 SWAP3 CALLDATASIZE SWAP1 PUSH1 0x4 ADD PUSH2 0x7D3 JUMP JUMPDEST SWAP1 PUSH2 0x1BCF JUMP JUMPDEST PUSH1 0x40 MLOAD SWAP2 DUP3 SWAP2 DUP3 PUSH2 0xA1C JUMP JUMPDEST DUP4 DUP1 SWAP2 DUP4 CALLDATALOAD PUSH2 0xADD DUP2 PUSH2 0x28B JUMP JUMPDEST DUP2 MSTORE ADD SWAP2 ADD SWAP1 PUSH2 0xA96 JUMP JUMPDEST CALLVALUE PUSH2 0x29C JUMPI PUSH1 0x20 CALLDATASIZE PUSH1 0x3 NOT ADD SLT PUSH2 0x29C JUMPI PUSH1 0x40 MLOAD PUSH4 0x76E7D7F3 PUSH1 0xE1 SHL DUP2 MSTORE PUSH1 0x4 DUP1 CALLDATALOAD SWAP1 DUP3 ADD MSTORE PUSH1 0x0 DUP2 PUSH1 0x24 DUP2 PUSH32 0x0 PUSH1 0x1 PUSH1 0x1 PUSH1 0xA0 SHL SUB AND GAS STATICCALL DUP1 ISZERO PUSH2 0x3D6 JUMPI PUSH2 0x613 SWAP2 PUSH1 0x0 SWAP2 PUSH2 0xB67 JUMPI JUMPDEST POP PUSH1 0x40 MLOAD SWAP2 DUP3 SWAP2 PUSH1 0x20 DUP4 MSTORE PUSH1 0x20 DUP4 ADD SWAP1 PUSH2 0x426 JUMP JUMPDEST PUSH2 0xB7A SWAP2 RETURNDATASIZE DUP1 SWAP2 DUP4 RETURNDATACOPY PUSH2 0x62E DUP2 DUP4 PUSH2 0x76D JUMP JUMPDEST POP POP POP POP POP POP POP POP POP POP POP SWAP3 POP POP POP CODESIZE PUSH2 0xB52 JUMP JUMPDEST CALLVALUE PUSH2 0x29C JUMPI PUSH1 0x0 DUP1 PUSH1 0x3 NOT CALLDATASIZE ADD SLT PUSH2 0x3E4 JUMPI PUSH2 0xBA9 PUSH2 0x1B33 JUMP JUMPDEST PUSH1 0x3 DUP1 SLOAD PUSH1 0x1 PUSH1 0x1 PUSH1 0xA0 SHL SUB NOT DUP2 AND SWAP1 SWAP2 SSTORE DUP2 SWAP1 PUSH1 0x1 PUSH1 0x1 PUSH1 0xA0 SHL SUB AND PUSH32 0x8BE0079C531659141344CD1FD0A4F28419497F9722A3DAAFE3B4186F6B6457E0 DUP3 DUP1 LOG3 DUP1 RETURN JUMPDEST CALLVALUE PUSH2 0x29C JUMPI PUSH1 0x0 CALLDATASIZE PUSH1 0x3 NOT ADD SLT PUSH2 0x29C JUMPI PUSH1 0x20 PUSH1 0x40 MLOAD PUSH1 0x46 DUP2 MSTORE RETURN JUMPDEST CALLVALUE PUSH2 0x29C JUMPI PUSH1 0x20 CALLDATASIZE PUSH1 0x3 NOT ADD SLT PUSH2 0x29C JUMPI PUSH1 0x4 CALLDATALOAD PUSH2 0xC26 DUP2 PUSH2 0x2DC9 JUMP JUMPDEST ISZERO PUSH2 0xC6F JUMPI PUSH2 0xC4A PUSH7 0x11C37937E08000 SWAP2 PUSH2 0xC45 DUP4 PUSH1 0xB SLOAD LT ISZERO PUSH2 0x2E15 JUMP JUMPDEST PUSH2 0x2F23 JUMP JUMPDEST PUSH2 0xC5D PUSH2 0xC58 PUSH1 0xB SLOAD PUSH2 0x2785 JUMP JUMPDEST PUSH1 0xB SSTORE JUMP JUMPDEST PUSH1 0x0 DUP1 DUP1 DUP1 DUP1 SWAP5 CALLER DUP3 CALL ISZERO PUSH2 0x3D6 JUMPI DUP1 RETURN JUMPDEST PUSH1 0x40 MLOAD PUSH3 0x461BCD PUSH1 0xE5 SHL DUP2 MSTORE PUSH1 0x20 PUSH1 0x4 DUP3 ADD MSTORE PUSH1 0x17 PUSH1 0x24 DUP3 ADD MSTORE PUSH32 0x526567656E65726174696F6E206E6F74206E6565646564000000000000000000 PUSH1 0x44 DUP3 ADD MSTORE PUSH1 0x64 SWAP1 REVERT JUMPDEST CALLVALUE PUSH2 0x29C JUMPI PUSH1 0x20 CALLDATASIZE PUSH1 0x3 NOT ADD SLT PUSH2 0x29C JUMPI PUSH1 0x4 CALLDATALOAD PUSH2 0xCD2 CALLER DUP3 PUSH2 0x30FA JUMP JUMPDEST ISZERO PUSH2 0xD65 JUMPI PUSH1 0x40 MLOAD PUSH4 0x76E7D7F3 PUSH1 0xE1 SHL DUP2 MSTORE PUSH1 0x4 DUP2 ADD SWAP2 SWAP1 SWAP2 MSTORE PUSH1 0x0 DUP2 PUSH1 0x24 DUP2 PUSH1 0x1 PUSH1 0x1 PUSH1 0xA0 SHL SUB PUSH32 0x0 AND GAS STATICCALL DUP1 ISZERO PUSH2 0x3D6 JUMPI PUSH2 0x613 SWAP2 PUSH1 0x0 SWAP2 PUSH2 0xD3D JUMPI JUMPDEST POP PUSH1 0x40 MLOAD SWAP2 DUP3 SWAP2 DUP3 PUSH2 0x44B JUMP JUMPDEST PUSH2 0xD50 SWAP2 RETURNDATASIZE DUP1 SWAP2 DUP4 RETURNDATACOPY PUSH2 0x62E DUP2 DUP4 PUSH2 0x76D JUMP JUMPDEST POP POP POP POP POP POP POP POP POP POP POP POP SWAP2 POP POP CODESIZE PUSH2 0xD30 JUMP JUMPDEST PUSH1 0x64 PUSH1 0x40 MLOAD PUSH3 0x461BCD PUSH1 0xE5 SHL DUP2 MSTORE PUSH1 0x20 PUSH1 0x4 DUP3 ADD MSTORE PUSH1 0x20 PUSH1 0x24 DUP3 ADD MSTORE PUSH32 0x4E6F206163746976652061636365737320746F20746869732061727469636C65 PUSH1 0x44 DUP3 ADD MSTORE REVERT JUMPDEST CALLVALUE PUSH2 0x29C JUMPI PUSH1 0x0 CALLDATASIZE PUSH1 0x3 NOT ADD SLT PUSH2 0x29C JUMPI PUSH1 0x3 SLOAD PUSH1 0x40 MLOAD PUSH1 0x1 PUSH1 0x1 PUSH1 0xA0 SHL SUB SWAP1 SWAP2 AND DUP2 MSTORE PUSH1 0x20 SWAP1 RETURN JUMPDEST PUSH4 0x4E487B71 PUSH1 0xE0 SHL PUSH1 0x0 MSTORE PUSH1 0x32 PUSH1 0x4 MSTORE PUSH1 0x24 PUSH1 0x0 REVERT JUMPDEST DUP1 SLOAD DUP3 LT ISZERO PUSH2 0xE04 JUMPI PUSH1 0x0 MSTORE PUSH1 0x20 PUSH1 0x0 KECCAK256 SWAP1 PUSH1 0x2 SHL ADD SWAP1 PUSH1 0x0 SWAP1 JUMP JUMPDEST PUSH2 0xDD2 JUMP JUMPDEST CALLVALUE PUSH2 0x29C JUMPI PUSH1 0x40 CALLDATASIZE PUSH1 0x3 NOT ADD SLT PUSH2 0x29C JUMPI PUSH1 0x24 CALLDATALOAD PUSH1 0x4 CALLDATALOAD PUSH1 0x0 MSTORE PUSH1 0x9 PUSH1 0x20 MSTORE PUSH1 0x40 PUSH1 0x0 KECCAK256 DUP1 SLOAD DUP3 LT ISZERO PUSH2 0x29C JUMPI PUSH1 0x80 SWAP2 PUSH2 0xE42 SWAP2 PUSH2 0xDE8 JUMP JUMPDEST POP DUP1 SLOAD SWAP1 PUSH1 0x1 DUP2 ADD SLOAD SWAP1 PUSH1 0x1 DUP1 PUSH1 0xA0 SHL SUB PUSH1 0x3 DUP2 PUSH1 0x2 DUP5 ADD SLOAD AND SWAP3 ADD SLOAD AND SWAP2 PUSH1 0x40 MLOAD SWAP4 DUP5 MSTORE PUSH1 0x20 DUP5 ADD MSTORE PUSH1 0x40 DUP4 ADD MSTORE PUSH1 0x60 DUP3 ADD MSTORE RETURN JUMPDEST CALLVALUE PUSH2 0x29C JUMPI PUSH1 0x0 CALLDATASIZE PUSH1 0x3 NOT ADD SLT PUSH2 0x29C JUMPI PUSH1 0x40 MLOAD PUSH32 0x0 PUSH1 0x1 PUSH1 0x1 PUSH1 0xA0 SHL SUB AND DUP2 MSTORE PUSH1 0x20 SWAP1 RETURN JUMPDEST PUSH1 0x40 CALLDATASIZE PUSH1 0x3 NOT ADD SLT PUSH2 0x29C JUMPI PUSH1 0x24 CALLDATALOAD PUSH1 0x4 CALLDATALOAD PUSH2 0xED8 DUP3 PUSH2 0x28B JUMP JUMPDEST PUSH2 0xF12 PUSH2 0xF0A DUP4 PUSH2 0xEF3 DUP5 PUSH1 0x0 MSTORE PUSH1 0x6 PUSH1 0x20 MSTORE PUSH1 0x40 PUSH1 0x0 KECCAK256 SWAP1 JUMP JUMPDEST SWAP1 PUSH1 0x1 DUP1 PUSH1 0xA0 SHL SUB AND PUSH1 0x0 MSTORE PUSH1 0x20 MSTORE PUSH1 0x40 PUSH1 0x0 KECCAK256 SWAP1 JUMP JUMPDEST SLOAD ISZERO ISZERO PUSH2 0x2A5C JUMP JUMPDEST PUSH2 0xF1B DUP2 PUSH2 0x27E4 JUMP JUMPDEST SWAP2 PUSH2 0xF25 DUP4 PUSH2 0x208E JUMP JUMPDEST SWAP3 PUSH2 0xF32 DUP5 CALLVALUE LT ISZERO PUSH2 0x2AA1 JUMP JUMPDEST PUSH2 0xF45 PUSH2 0xF3E DUP3 PUSH2 0x2746 JUMP JUMPDEST PUSH1 0x64 SWAP1 DIV SWAP1 JUMP JUMPDEST SWAP2 PUSH2 0xF52 PUSH2 0xF3E DUP4 PUSH2 0x275C JUMP JUMPDEST SWAP5 PUSH2 0xF66 DUP7 PUSH2 0xF61 DUP7 DUP7 PUSH2 0x27A9 JUMP JUMPDEST PUSH2 0x27A9 JUMP JUMPDEST PUSH1 0x40 MLOAD PUSH4 0x76E7D7F3 PUSH1 0xE1 SHL DUP2 MSTORE PUSH1 0x4 DUP2 ADD DUP8 SWAP1 MSTORE PUSH1 0x0 SWAP8 PUSH1 0x1 PUSH1 0x1 PUSH1 0xA0 SHL SUB SWAP2 DUP10 DUP2 PUSH1 0x24 DUP2 PUSH32 0x0 DUP8 AND GAS STATICCALL SWAP1 DUP2 ISZERO PUSH2 0x3D6 JUMPI DUP11 SWAP2 PUSH2 0x11BE JUMPI JUMPDEST POP PUSH2 0xFD7 DUP7 PUSH2 0xEF3 DUP12 PUSH1 0x0 MSTORE PUSH1 0x6 PUSH1 0x20 MSTORE PUSH1 0x40 PUSH1 0x0 KECCAK256 SWAP1 JUMP JUMPDEST PUSH2 0xFE1 DUP2 SLOAD PUSH2 0x2AE4 JUMP JUMPDEST SWAP1 SSTORE PUSH2 0x100D PUSH2 0xFFA DUP11 PUSH1 0x0 MSTORE PUSH1 0x6 PUSH1 0x20 MSTORE PUSH1 0x40 PUSH1 0x0 KECCAK256 SWAP1 JUMP JUMPDEST CALLER PUSH1 0x0 SWAP1 DUP2 MSTORE PUSH1 0x20 SWAP2 SWAP1 SWAP2 MSTORE PUSH1 0x40 SWAP1 KECCAK256 SWAP1 JUMP JUMPDEST PUSH2 0x1017 DUP2 SLOAD PUSH2 0x1BA7 JUMP JUMPDEST SWAP1 SSTORE PUSH2 0x102C PUSH2 0x1024 PUSH2 0x217E JUMP JUMPDEST DUP11 CALLER DUP10 PUSH2 0x1C5F JUMP JUMPDEST DUP10 DUP1 DUP1 DUP1 DUP7 DUP11 AND SWAP12 DUP13 DUP3 DUP3 ISZERO PUSH2 0x11B5 JUMPI JUMPDEST CALL ISZERO PUSH2 0x3D6 JUMPI DUP10 SWAP3 DUP4 SWAP3 DUP4 SWAP3 DUP4 SWAP3 DUP4 SWAP2 DUP4 ISZERO PUSH2 0x11AB JUMPI JUMPDEST AND SWAP1 CALL ISZERO PUSH2 0x3D6 JUMPI DUP7 DUP1 DUP1 DUP1 SWAP4 DUP2 DUP2 ISZERO PUSH2 0x11A2 JUMPI JUMPDEST PUSH20 0x9402F9F20B4A27B55B1CC6CF015D98F764814FB2 SWAP1 CALL ISZERO PUSH2 0x3D6 JUMPI PUSH2 0x1115 DUP7 SWAP3 PUSH2 0x1098 PUSH2 0xC58 PUSH1 0xB SLOAD PUSH2 0x208E JUMP JUMPDEST PUSH2 0x10C4 PUSH3 0x15180 TIMESTAMP DIV PUSH2 0x10B5 DUP10 PUSH1 0x0 MSTORE PUSH1 0x8 PUSH1 0x20 MSTORE PUSH1 0x40 PUSH1 0x0 KECCAK256 SWAP1 JUMP JUMPDEST SWAP1 PUSH1 0x0 MSTORE PUSH1 0x20 MSTORE PUSH1 0x40 PUSH1 0x0 KECCAK256 SWAP1 JUMP JUMPDEST PUSH2 0x10CE DUP2 SLOAD PUSH2 0x1BA7 JUMP JUMPDEST SWAP1 SSTORE PUSH2 0x10E4 DUP8 PUSH1 0x0 MSTORE PUSH1 0x9 PUSH1 0x20 MSTORE PUSH1 0x40 PUSH1 0x0 KECCAK256 SWAP1 JUMP JUMPDEST PUSH2 0x1110 PUSH2 0x10EF PUSH2 0x78E JUMP JUMPDEST TIMESTAMP DUP2 MSTORE PUSH1 0x20 DUP2 ADD DUP9 SWAP1 MSTORE CALLER PUSH1 0x40 DUP3 ADD MSTORE SWAP3 PUSH1 0x1 PUSH1 0x1 PUSH1 0xA0 SHL SUB AND PUSH1 0x60 DUP5 ADD MSTORE JUMP JUMPDEST PUSH2 0x2AF1 JUMP JUMPDEST DUP1 CALLVALUE GT PUSH2 0x1175 JUMPI JUMPDEST POP POP DUP3 PUSH32 0x3846A81A03C71D25212027D222553680C4FC1BD52B8DFB1F1FBBBCD74C8FEC79 PUSH1 0x40 MLOAD DUP1 PUSH2 0x1155 CALLER SWAP6 DUP3 SWAP2 SWAP1 PUSH1 0x20 DUP4 ADD SWAP3 MSTORE JUMP JUMPDEST SUB SWAP1 LOG4 PUSH2 0x1161 DUP2 PUSH2 0x2DC9 JUMP JUMPDEST PUSH2 0x1169 JUMPI POP DUP1 RETURN JUMPDEST PUSH2 0x1172 SWAP1 PUSH2 0x2F23 JUMP JUMPDEST DUP1 RETURN JUMPDEST DUP2 DUP1 PUSH2 0x1182 DUP2 SWAP4 CALLVALUE PUSH2 0x27A9 JUMP JUMPDEST DUP2 DUP2 ISZERO PUSH2 0x1199 JUMPI JUMPDEST CALLER SWAP1 CALL ISZERO PUSH2 0x3D6 JUMPI DUP4 CODESIZE PUSH2 0x111D JUMP JUMPDEST POP PUSH2 0x8FC PUSH2 0x118A JUMP JUMPDEST POP PUSH2 0x8FC PUSH2 0x1069 JUMP JUMPDEST PUSH2 0x8FC SWAP3 POP PUSH2 0x1054 JUMP JUMPDEST POP PUSH2 0x8FC PUSH2 0x103D JUMP JUMPDEST PUSH2 0x11D2 SWAP2 POP RETURNDATASIZE DUP1 DUP13 DUP4 RETURNDATACOPY PUSH2 0x62E DUP2 DUP4 PUSH2 0x76D JUMP JUMPDEST POP POP POP POP POP POP POP POP POP POP SWAP4 POP POP POP POP CODESIZE PUSH2 0xFBE JUMP JUMPDEST CALLVALUE PUSH2 0x29C JUMPI PUSH1 0x40 CALLDATASIZE PUSH1 0x3 NOT ADD SLT PUSH2 0x29C JUMPI PUSH1 0x4 CALLDATALOAD PUSH2 0x1204 DUP2 PUSH2 0x28B JUMP JUMPDEST PUSH1 0x24 CALLDATALOAD SWAP1 DUP2 ISZERO ISZERO SWAP1 DUP2 DUP4 SUB PUSH2 0x29C JUMPI PUSH1 0x1 PUSH1 0x1 PUSH1 0xA0 SHL SUB DUP2 AND SWAP3 DUP4 ISZERO PUSH2 0x128F JUMPI PUSH2 0x1250 PUSH2 0x1261 SWAP3 CALLER PUSH1 0x0 MSTORE PUSH1 0x1 PUSH1 0x20 MSTORE PUSH1 0x40 PUSH1 0x0 KECCAK256 SWAP1 PUSH1 0x1 DUP1 PUSH1 0xA0 SHL SUB AND PUSH1 0x0 MSTORE PUSH1 0x20 MSTORE PUSH1 0x40 PUSH1 0x0 KECCAK256 SWAP1 JUMP JUMPDEST SWAP1 PUSH1 0xFF DUP1 NOT DUP4 SLOAD AND SWAP2 ISZERO ISZERO AND OR SWAP1 SSTORE JUMP JUMPDEST PUSH1 0x40 MLOAD SWAP1 DUP2 MSTORE PUSH32 0x17307EAB39AB6107E8899845AD3D59BD9653F200F220920489CA2B5937696C31 PUSH1 0x20 CALLER SWAP3 LOG3 STOP JUMPDEST PUSH1 0x40 MLOAD PUSH3 0xCED3E1 PUSH1 0xE8 SHL DUP2 MSTORE PUSH1 0x0 PUSH1 0x4 DUP3 ADD MSTORE PUSH1 0x24 SWAP1 REVERT JUMPDEST CALLVALUE PUSH2 0x29C JUMPI PUSH1 0x40 CALLDATASIZE PUSH1 0x3 NOT ADD SLT PUSH2 0x29C JUMPI PUSH1 0x40 PUSH2 0x12EF PUSH1 0x24 CALLDATALOAD PUSH2 0x12C9 DUP2 PUSH2 0x28B JUMP JUMPDEST PUSH1 0x4 CALLDATALOAD PUSH1 0x0 MSTORE PUSH1 0x7 PUSH1 0x20 MSTORE DUP3 PUSH1 0x0 KECCAK256 SWAP1 PUSH1 0x1 DUP1 PUSH1 0xA0 SHL SUB AND PUSH1 0x0 MSTORE PUSH1 0x20 MSTORE PUSH1 0x40 PUSH1 0x0 KECCAK256 SWAP1 JUMP JUMPDEST PUSH1 0xFF PUSH1 0x1 DUP3 SLOAD SWAP3 ADD SLOAD AND DUP3 MLOAD SWAP2 DUP3 MSTORE ISZERO ISZERO PUSH1 0x20 DUP3 ADD MSTORE RETURN JUMPDEST SWAP1 SWAP3 SWAP2 PUSH1 0x40 DUP3 ADD SWAP2 PUSH1 0x40 DUP2 MSTORE DUP5 MLOAD DUP1 SWAP4 MSTORE PUSH1 0x60 DUP2 ADD SWAP3 PUSH1 0x20 DUP1 SWAP7 ADD SWAP1 PUSH1 0x0 JUMPDEST DUP2 DUP2 LT PUSH2 0x1340 JUMPI POP POP POP PUSH2 0x45C SWAP4 SWAP5 DUP2 DUP5 SUB SWAP2 ADD MSTORE PUSH2 0x9E8 JUMP JUMPDEST DUP3 MLOAD PUSH1 0x1 PUSH1 0x1 PUSH1 0xA0 SHL SUB AND DUP7 MSTORE SWAP5 DUP8 ADD SWAP5 SWAP2 DUP8 ADD SWAP2 PUSH1 0x1 ADD PUSH2 0x1326 JUMP JUMPDEST CALLVALUE PUSH2 0x29C JUMPI PUSH1 0x20 CALLDATASIZE PUSH1 0x3 NOT ADD SLT PUSH2 0x29C JUMPI PUSH1 0x40 MLOAD PUSH4 0x9FB53FCB PUSH1 0xE0 SHL DUP2 MSTORE PUSH1 0x4 DUP1 CALLDATALOAD SWAP1 DUP3 ADD DUP2 SWAP1 MSTORE PUSH1 0x0 DUP3 PUSH1 0x24 DUP2 PUSH1 0x1 PUSH1 0x1 PUSH1 0xA0 SHL SUB PUSH32 0x0 AND GAS STATICCALL SWAP2 DUP3 ISZERO PUSH2 0x3D6 JUMPI PUSH1 0x0 SWAP3 PUSH2 0x144E JUMPI JUMPDEST POP PUSH2 0x13D1 DUP3 MLOAD PUSH2 0x1B5F JUMP JUMPDEST SWAP2 PUSH1 0x0 JUMPDEST DUP2 MLOAD DUP2 LT ISZERO PUSH2 0x143F JUMPI PUSH2 0x143A SWAP1 PUSH2 0x1429 PUSH2 0x13F9 DUP6 PUSH1 0x0 MSTORE PUSH1 0x6 PUSH1 0x20 MSTORE PUSH1 0x40 PUSH1 0x0 KECCAK256 SWAP1 JUMP JUMPDEST PUSH2 0x1413 PUSH2 0x1406 DUP5 DUP8 PUSH2 0x1BBB JUMP JUMPDEST MLOAD PUSH1 0x1 PUSH1 0x1 PUSH1 0xA0 SHL SUB AND SWAP1 JUMP JUMPDEST PUSH1 0x1 DUP1 PUSH1 0xA0 SHL SUB AND PUSH1 0x0 MSTORE PUSH1 0x20 MSTORE PUSH1 0x40 PUSH1 0x0 KECCAK256 SWAP1 JUMP JUMPDEST SLOAD PUSH2 0x1434 DUP3 DUP8 PUSH2 0x1BBB JUMP JUMPDEST MSTORE PUSH2 0x1BA7 JUMP JUMPDEST PUSH2 0x13D5 JUMP JUMPDEST PUSH1 0x40 MLOAD DUP1 PUSH2 0x613 DUP7 DUP6 DUP4 PUSH2 0x1307 JUMP JUMPDEST PUSH2 0x146A SWAP2 SWAP3 RETURNDATASIZE DUP1 SWAP2 DUP4 RETURNDATACOPY PUSH2 0x1462 DUP2 DUP4 PUSH2 0x76D JUMP JUMPDEST DUP2 ADD SWAP1 PUSH2 0x2E59 JUMP JUMPDEST SWAP1 CODESIZE PUSH2 0x13C6 JUMP JUMPDEST CALLVALUE PUSH2 0x29C JUMPI PUSH1 0x20 CALLDATASIZE PUSH1 0x3 NOT ADD SLT PUSH2 0x29C JUMPI PUSH1 0x4 CALLDATALOAD PUSH1 0x0 MSTORE PUSH1 0xA PUSH1 0x20 MSTORE PUSH1 0x20 PUSH1 0x40 PUSH1 0x0 KECCAK256 SLOAD PUSH1 0x40 MLOAD SWAP1 DUP2 MSTORE RETURN JUMPDEST CALLVALUE PUSH2 0x29C JUMPI PUSH1 0x20 CALLDATASIZE PUSH1 0x3 NOT ADD SLT PUSH2 0x29C JUMPI PUSH1 0x20 PUSH2 0x14BB PUSH1 0x4 CALLDATALOAD PUSH2 0x27E4 JUMP JUMPDEST PUSH1 0x40 MLOAD SWAP1 DUP2 MSTORE RETURN JUMPDEST CALLVALUE PUSH2 0x29C JUMPI PUSH1 0x40 CALLDATASIZE PUSH1 0x3 NOT ADD SLT PUSH2 0x29C JUMPI PUSH1 0x4 CALLDATALOAD PUSH1 0x0 MSTORE PUSH1 0x8 PUSH1 0x20 MSTORE PUSH1 0x40 PUSH1 0x0 KECCAK256 PUSH1 0x24 CALLDATALOAD PUSH1 0x0 MSTORE PUSH1 0x20 MSTORE PUSH1 0x20 PUSH1 0x40 PUSH1 0x0 KECCAK256 SLOAD PUSH1 0x40 MLOAD SWAP1 DUP2 MSTORE RETURN JUMPDEST CALLVALUE PUSH2 0x29C JUMPI PUSH1 0x0 CALLDATASIZE PUSH1 0x3 NOT ADD SLT PUSH2 0x29C JUMPI PUSH1 0x20 PUSH1 0x40 MLOAD PUSH1 0x14 DUP2 MSTORE RETURN JUMPDEST CALLVALUE PUSH2 0x29C JUMPI PUSH1 0x0 CALLDATASIZE PUSH1 0x3 NOT ADD SLT PUSH2 0x29C JUMPI PUSH1 0x20 PUSH1 0x40 MLOAD PUSH7 0x11C37937E08000 DUP2 MSTORE RETURN JUMPDEST CALLVALUE PUSH2 0x29C JUMPI PUSH1 0x80 CALLDATASIZE PUSH1 0x3 NOT ADD SLT PUSH2 0x29C JUMPI PUSH1 0x24 CALLDATALOAD PUSH1 0x4 CALLDATALOAD PUSH2 0x155B DUP3 PUSH2 0x28B JUMP JUMPDEST PUSH1 0x44 CALLDATALOAD SWAP2 PUSH32 0xE3726A6D4ED43D7D4677D7DFFA4CF0A0D67D40DB3CD11CCCF053DDDCEAF3D7D3 SWAP1 PUSH1 0x1 PUSH1 0x1 PUSH1 0xA0 SHL SUB SWAP1 PUSH2 0x15B7 CALLER PUSH32 0x0 DUP5 AND EQ PUSH2 0x243E JUMP JUMPDEST DUP4 PUSH2 0x15CC DUP2 PUSH1 0x0 MSTORE PUSH1 0x5 PUSH1 0x20 MSTORE PUSH1 0x40 PUSH1 0x0 KECCAK256 SWAP1 JUMP JUMPDEST SSTORE PUSH1 0x2 PUSH2 0x15E3 DUP6 PUSH1 0x0 MSTORE PUSH1 0x5 PUSH1 0x20 MSTORE PUSH1 0x40 PUSH1 0x0 KECCAK256 SWAP1 JUMP JUMPDEST ADD PUSH2 0x15EF DUP7 DUP3 SLOAD PUSH2 0x20C7 JUMP JUMPDEST SWAP1 SSTORE PUSH1 0x3 PUSH2 0x1607 DUP6 PUSH1 0x0 MSTORE PUSH1 0x5 PUSH1 0x20 MSTORE PUSH1 0x40 PUSH1 0x0 KECCAK256 SWAP1 JUMP JUMPDEST ADD PUSH2 0x1613 DUP7 DUP3 SLOAD PUSH2 0x20C7 JUMP JUMPDEST SWAP1 SSTORE PUSH2 0x1629 DUP5 PUSH1 0x0 MSTORE PUSH1 0xA PUSH1 0x20 MSTORE PUSH1 0x40 PUSH1 0x0 KECCAK256 SWAP1 JUMP JUMPDEST PUSH2 0x1634 DUP7 DUP3 SLOAD PUSH2 0x20C7 JUMP JUMPDEST SWAP1 SSTORE PUSH2 0x164E DUP2 PUSH2 0xEF3 DUP7 PUSH1 0x0 MSTORE PUSH1 0x6 PUSH1 0x20 MSTORE PUSH1 0x40 PUSH1 0x0 KECCAK256 SWAP1 JUMP JUMPDEST PUSH2 0x1659 DUP7 DUP3 SLOAD PUSH2 0x20C7 JUMP JUMPDEST SWAP1 SSTORE PUSH2 0x166E PUSH2 0x1666 PUSH2 0x217E JUMP JUMPDEST DUP7 DUP7 DUP5 PUSH2 0x24E1 JUMP JUMPDEST PUSH1 0x40 DUP1 MLOAD SWAP6 DUP7 MSTORE PUSH1 0x64 CALLDATALOAD PUSH1 0x20 DUP8 ADD MSTORE SWAP2 AND SWAP4 LOG3 STOP JUMPDEST CALLVALUE PUSH2 0x29C JUMPI PUSH1 0x0 CALLDATASIZE PUSH1 0x3 NOT ADD SLT PUSH2 0x29C JUMPI PUSH1 0x20 PUSH1 0x40 MLOAD PUSH1 0x32 DUP2 MSTORE RETURN JUMPDEST CALLVALUE PUSH2 0x29C JUMPI PUSH1 0x40 CALLDATASIZE PUSH1 0x3 NOT ADD SLT PUSH2 0x29C JUMPI PUSH1 0x20 PUSH1 0xFF PUSH2 0x16FB PUSH1 0x4 CALLDATALOAD PUSH2 0x16C3 DUP2 PUSH2 0x28B JUMP JUMPDEST PUSH1 0x24 CALLDATALOAD SWAP1 PUSH2 0x16D0 DUP3 PUSH2 0x28B JUMP JUMPDEST PUSH1 0x1 DUP1 PUSH1 0xA0 SHL SUB AND PUSH1 0x0 MSTORE PUSH1 0x1 DUP5 MSTORE PUSH1 0x40 PUSH1 0x0 KECCAK256 SWAP1 PUSH1 0x1 DUP1 PUSH1 0xA0 SHL SUB AND PUSH1 0x0 MSTORE PUSH1 0x20 MSTORE PUSH1 0x40 PUSH1 0x0 KECCAK256 SWAP1 JUMP JUMPDEST SLOAD AND PUSH1 0x40 MLOAD SWAP1 ISZERO ISZERO DUP2 MSTORE RETURN JUMPDEST CALLVALUE PUSH2 0x29C JUMPI PUSH1 0xA0 CALLDATASIZE PUSH1 0x3 NOT ADD SLT PUSH2 0x29C JUMPI PUSH1 0x4 CALLDATALOAD PUSH2 0x1724 DUP2 PUSH2 0x28B JUMP JUMPDEST PUSH1 0x24 CALLDATALOAD PUSH2 0x1730 DUP2 PUSH2 0x28B JUMP JUMPDEST PUSH1 0x84 CALLDATALOAD PUSH1 0x1 PUSH1 0x1 PUSH1 0x40 SHL SUB DUP2 GT PUSH2 0x29C JUMPI PUSH2 0x174F SWAP1 CALLDATASIZE SWAP1 PUSH1 0x4 ADD PUSH2 0x84C JUMP JUMPDEST SWAP1 PUSH1 0x1 PUSH1 0x1 PUSH1 0xA0 SHL SUB DUP4 AND CALLER DUP2 EQ ISZERO SWAP1 DUP2 PUSH2 0x17A2 JUMPI JUMPDEST POP PUSH2 0x177B JUMPI PUSH2 0x93E SWAP3 PUSH1 0x64 CALLDATALOAD SWAP2 PUSH1 0x44 CALLDATALOAD SWAP2 PUSH2 0x1CE0 JUMP JUMPDEST PUSH1 0x40 MLOAD PUSH4 0x711BEC91 PUSH1 0xE1 SHL DUP2 MSTORE CALLER PUSH1 0x4 DUP3 ADD MSTORE PUSH1 0x1 PUSH1 0x1 PUSH1 0xA0 SHL SUB DUP5 AND PUSH1 0x24 DUP3 ADD MSTORE PUSH1 0x44 SWAP1 REVERT JUMPDEST PUSH1 0x0 SWAP1 DUP2 MSTORE PUSH1 0x1 PUSH1 0x20 SWAP1 DUP2 MSTORE PUSH1 0x40 DUP1 DUP4 KECCAK256 CALLER DUP5 MSTORE SWAP1 SWAP2 MSTORE SWAP1 KECCAK256 PUSH1 0xFF SWAP2 POP SLOAD AND ISZERO CODESIZE PUSH2 0x1765 JUMP JUMPDEST CALLVALUE PUSH2 0x29C JUMPI PUSH1 0x20 CALLDATASIZE PUSH1 0x3 NOT ADD SLT PUSH2 0x29C JUMPI PUSH1 0x4 CALLDATALOAD PUSH2 0x17FE PUSH2 0x17F6 PUSH2 0xFFA DUP4 PUSH1 0x0 MSTORE PUSH1 0x6 PUSH1 0x20 MSTORE PUSH1 0x40 PUSH1 0x0 KECCAK256 SWAP1 JUMP JUMPDEST SLOAD ISZERO ISZERO PUSH2 0x2B78 JUMP JUMPDEST PUSH2 0x1817 PUSH2 0x1812 PUSH2 0x180E CALLER DUP5 PUSH2 0x30FA JUMP JUMPDEST ISZERO SWAP1 JUMP JUMPDEST PUSH2 0x2BB9 JUMP JUMPDEST PUSH2 0x182F CALLER PUSH2 0xEF3 DUP4 PUSH1 0x0 MSTORE PUSH1 0x6 PUSH1 0x20 MSTORE PUSH1 0x40 PUSH1 0x0 KECCAK256 SWAP1 JUMP JUMPDEST PUSH2 0x1839 DUP2 SLOAD PUSH2 0x2AE4 JUMP JUMPDEST SWAP1 SSTORE PUSH1 0x3 PUSH2 0x1851 DUP3 PUSH1 0x0 MSTORE PUSH1 0x5 PUSH1 0x20 MSTORE PUSH1 0x40 PUSH1 0x0 KECCAK256 SWAP1 JUMP JUMPDEST ADD PUSH2 0x185C DUP2 SLOAD PUSH2 0x2AE4 JUMP JUMPDEST SWAP1 SSTORE PUSH2 0x1868 DUP2 CALLER PUSH2 0x2C28 JUMP JUMPDEST PUSH2 0x1871 TIMESTAMP PUSH2 0x20A2 JUMP JUMPDEST PUSH2 0x18A3 PUSH2 0x187C PUSH2 0x79D JUMP JUMPDEST DUP3 DUP2 MSTORE PUSH1 0x1 PUSH1 0x20 DUP3 ADD MSTORE PUSH2 0x189E CALLER PUSH2 0xEF3 DUP7 PUSH1 0x0 MSTORE PUSH1 0x7 PUSH1 0x20 MSTORE PUSH1 0x40 PUSH1 0x0 KECCAK256 SWAP1 JUMP JUMPDEST PUSH2 0x2C05 JUMP JUMPDEST PUSH1 0x40 MLOAD DUP2 DUP2 MSTORE CALLER SWAP1 DUP4 SWAP1 PUSH32 0x8F4D6F0C7458447E5095ACEA28045C0CD637AA3B49812761A7AC022E6D643BF6 SWAP1 PUSH1 0x20 SWAP1 LOG3 DUP2 PUSH32 0xC56E8AA8E9F4284830FD4657BC77D60640AF2EC679F2099FAF320EE4202FF422 PUSH1 0x40 MLOAD DUP1 PUSH2 0x1909 CALLER SWAP6 DUP3 SWAP2 SWAP1 PUSH1 0x20 DUP4 ADD SWAP3 MSTORE JUMP JUMPDEST SUB SWAP1 LOG3 PUSH2 0x1915 DUP2 PUSH2 0x2DC9 JUMP JUMPDEST PUSH2 0x191B JUMPI STOP JUMPDEST PUSH2 0x93E SWAP1 PUSH2 0x2F23 JUMP JUMPDEST CALLVALUE PUSH2 0x29C JUMPI PUSH1 0x20 CALLDATASIZE PUSH1 0x3 NOT ADD SLT PUSH2 0x29C JUMPI PUSH1 0x4 CALLDATALOAD PUSH2 0x1941 DUP2 PUSH2 0x28B JUMP JUMPDEST PUSH2 0x1949 PUSH2 0x1B33 JUMP JUMPDEST PUSH1 0x1 PUSH1 0x1 PUSH1 0xA0 SHL SUB SWAP1 DUP2 AND SWAP1 DUP2 ISZERO PUSH2 0x199D JUMPI PUSH1 0x3 SLOAD DUP3 PUSH12 0xFFFFFFFFFFFFFFFFFFFFFFFF PUSH1 0xA0 SHL DUP3 AND OR PUSH1 0x3 SSTORE AND PUSH32 0x8BE0079C531659141344CD1FD0A4F28419497F9722A3DAAFE3B4186F6B6457E0 PUSH1 0x0 DUP1 LOG3 STOP JUMPDEST PUSH1 0x40 MLOAD PUSH4 0x1E4FBDF7 PUSH1 0xE0 SHL DUP2 MSTORE PUSH1 0x0 PUSH1 0x4 DUP3 ADD MSTORE PUSH1 0x24 SWAP1 REVERT JUMPDEST CALLVALUE PUSH2 0x29C JUMPI PUSH1 0x40 CALLDATASIZE PUSH1 0x3 NOT ADD SLT PUSH2 0x29C JUMPI PUSH1 0x20 PUSH2 0x9DE PUSH1 0x24 CALLDATALOAD PUSH2 0x19D8 DUP2 PUSH2 0x28B JUMP JUMPDEST PUSH1 0x4 CALLDATALOAD PUSH2 0x30FA JUMP JUMPDEST PUSH1 0x20 DUP1 DUP3 ADD SWAP1 DUP1 DUP4 MSTORE DUP4 MLOAD DUP1 SWAP3 MSTORE DUP1 PUSH1 0x40 DUP1 SWAP5 ADD SWAP5 ADD SWAP3 PUSH1 0x0 SWAP1 JUMPDEST DUP4 DUP3 LT PUSH2 0x1A0A JUMPI POP POP POP POP POP SWAP1 JUMP JUMPDEST DUP5 MLOAD DUP1 MLOAD DUP8 MSTORE DUP1 DUP5 ADD MLOAD DUP8 DUP6 ADD MSTORE DUP1 DUP3 ADD MLOAD PUSH1 0x1 PUSH1 0x1 PUSH1 0xA0 SHL SUB SWAP1 DUP2 AND DUP9 DUP5 ADD MSTORE PUSH1 0x60 SWAP2 DUP3 ADD MLOAD AND SWAP1 DUP8 ADD MSTORE PUSH1 0x80 SWAP1 SWAP6 ADD SWAP5 SWAP4 DUP3 ADD SWAP4 PUSH1 0x1 SWAP1 SWAP2 ADD SWAP1 PUSH2 0x19FB JUMP JUMPDEST CALLVALUE PUSH2 0x29C JUMPI PUSH1 0x20 DUP1 PUSH1 0x3 NOT CALLDATASIZE ADD SLT PUSH2 0x29C JUMPI PUSH1 0x4 SWAP1 DUP2 CALLDATALOAD PUSH1 0x0 MSTORE PUSH1 0x9 DUP2 MSTORE PUSH1 0x40 SWAP2 DUP3 PUSH1 0x0 KECCAK256 SWAP1 DUP2 SLOAD SWAP2 PUSH2 0x1A7D DUP4 PUSH2 0x7BC JUMP JUMPDEST SWAP4 PUSH2 0x1A8A DUP7 MLOAD SWAP6 DUP7 PUSH2 0x76D JUMP JUMPDEST DUP4 DUP6 MSTORE PUSH1 0x0 SWAP2 DUP3 MSTORE DUP1 DUP3 KECCAK256 DUP2 DUP7 ADD JUMPDEST DUP6 DUP5 LT PUSH2 0x1AAD JUMPI DUP8 MLOAD DUP1 PUSH2 0x613 DUP10 DUP3 PUSH2 0x19E0 JUMP JUMPDEST DUP5 DUP4 PUSH1 0x1 SWAP3 DUP11 MLOAD PUSH2 0x1ABD DUP2 PUSH2 0x732 JUMP JUMPDEST DUP6 SLOAD DUP2 MSTORE DUP5 DUP7 ADD SLOAD DUP4 DUP3 ADD MSTORE DUP5 DUP1 PUSH1 0xA0 SHL SUB DUP1 PUSH1 0x2 DUP9 ADD SLOAD AND DUP14 DUP4 ADD MSTORE PUSH1 0x3 DUP8 ADD SLOAD AND PUSH1 0x60 DUP3 ADD MSTORE DUP2 MSTORE ADD SWAP3 ADD SWAP4 ADD SWAP3 SWAP1 PUSH2 0x1A99 JUMP JUMPDEST CALLVALUE PUSH2 0x29C JUMPI PUSH1 0x0 CALLDATASIZE PUSH1 0x3 NOT ADD SLT PUSH2 0x29C JUMPI PUSH1 0x20 PUSH1 0x40 MLOAD PUSH7 0x2386F26FC10000 DUP2 MSTORE RETURN JUMPDEST CALLVALUE PUSH2 0x29C JUMPI PUSH1 0x0 CALLDATASIZE PUSH1 0x3 NOT ADD SLT PUSH2 0x29C JUMPI PUSH1 0x20 PUSH1 0xB SLOAD PUSH1 0x40 MLOAD SWAP1 DUP2 MSTORE RETURN JUMPDEST PUSH1 0x3 SLOAD PUSH1 0x1 PUSH1 0x1 PUSH1 0xA0 SHL SUB AND CALLER SUB PUSH2 0x1B47 JUMPI JUMP JUMPDEST PUSH1 0x40 MLOAD PUSH4 0x118CDAA7 PUSH1 0xE0 SHL DUP2 MSTORE CALLER PUSH1 0x4 DUP3 ADD MSTORE PUSH1 0x24 SWAP1 REVERT JUMPDEST SWAP1 PUSH2 0x1B69 DUP3 PUSH2 0x7BC JUMP JUMPDEST PUSH2 0x1B76 PUSH1 0x40 MLOAD SWAP2 DUP3 PUSH2 0x76D JUMP JUMPDEST DUP3 DUP2 MSTORE DUP1 SWAP3 PUSH2 0x1B87 PUSH1 0x1F NOT SWAP2 PUSH2 0x7BC JUMP JUMPDEST ADD SWAP1 PUSH1 0x20 CALLDATASIZE SWAP2 ADD CALLDATACOPY JUMP JUMPDEST PUSH4 0x4E487B71 PUSH1 0xE0 SHL PUSH1 0x0 MSTORE PUSH1 0x11 PUSH1 0x4 MSTORE PUSH1 0x24 PUSH1 0x0 REVERT JUMPDEST PUSH1 0x0 NOT DUP2 EQ PUSH2 0x1BB6 JUMPI PUSH1 0x1 ADD SWAP1 JUMP JUMPDEST PUSH2 0x1B91 JUMP JUMPDEST DUP1 MLOAD DUP3 LT ISZERO PUSH2 0xE04 JUMPI PUSH1 0x20 SWAP2 PUSH1 0x5 SHL ADD ADD SWAP1 JUMP JUMPDEST SWAP2 SWAP1 SWAP2 DUP1 MLOAD DUP4 MLOAD DUP1 DUP3 SUB PUSH2 0x1C3D JUMPI POP POP PUSH2 0x1BE9 DUP2 MLOAD PUSH2 0x1B5F JUMP JUMPDEST SWAP1 PUSH1 0x0 SWAP1 DUP2 JUMPDEST DUP2 MLOAD DUP2 LT ISZERO PUSH2 0x1C35 JUMPI DUP1 PUSH2 0x1429 PUSH2 0x1C30 SWAP3 PUSH1 0x5 SHL DUP6 PUSH1 0x20 DUP1 DUP1 DUP5 DUP10 ADD ADD MLOAD SWAP4 DUP13 ADD ADD MLOAD DUP3 MSTORE MSTORE PUSH1 0x40 DUP7 KECCAK256 SWAP1 PUSH1 0x1 DUP1 PUSH1 0xA0 SHL SUB AND PUSH1 0x0 MSTORE PUSH1 0x20 MSTORE PUSH1 0x40 PUSH1 0x0 KECCAK256 SWAP1 JUMP JUMPDEST PUSH2 0x1BEF JUMP JUMPDEST POP SWAP2 SWAP4 POP POP POP JUMP JUMPDEST PUSH1 0x40 MLOAD PUSH4 0x5B059991 PUSH1 0xE0 SHL DUP2 MSTORE PUSH1 0x4 DUP2 ADD SWAP2 SWAP1 SWAP2 MSTORE PUSH1 0x24 DUP2 ADD SWAP2 SWAP1 SWAP2 MSTORE PUSH1 0x44 SWAP1 REVERT JUMPDEST SWAP2 SWAP3 SWAP2 PUSH1 0x1 PUSH1 0x1 PUSH1 0xA0 SHL SUB DUP3 DUP2 AND ISZERO PUSH2 0x1CC7 JUMPI DUP2 AND ISZERO PUSH2 0x1CAF JUMPI PUSH2 0x1CA7 PUSH2 0x79B SWAP5 SWAP1 PUSH1 0x40 MLOAD SWAP2 PUSH1 0x1 DUP4 MSTORE PUSH1 0x20 DUP4 ADD MSTORE PUSH1 0x40 DUP3 ADD SWAP1 PUSH1 0x1 DUP3 MSTORE PUSH1 0x1 PUSH1 0x60 DUP5 ADD MSTORE PUSH1 0x80 DUP4 ADD PUSH1 0x40 MSTORE JUMP JUMPDEST SWAP3 SWAP1 SWAP2 PUSH2 0x1E90 JUMP JUMPDEST PUSH1 0x40 MLOAD PUSH3 0x6A0D45 PUSH1 0xE2 SHL DUP2 MSTORE PUSH1 0x0 PUSH1 0x4 DUP3 ADD MSTORE PUSH1 0x24 SWAP1 REVERT JUMPDEST PUSH1 0x40 MLOAD PUSH4 0x2BFA23E7 PUSH1 0xE1 SHL DUP2 MSTORE PUSH1 0x0 PUSH1 0x4 DUP3 ADD MSTORE PUSH1 0x24 SWAP1 REVERT JUMPDEST SWAP3 SWAP4 SWAP3 SWAP1 SWAP2 PUSH1 0x1 PUSH1 0x1 PUSH1 0xA0 SHL SUB DUP1 DUP5 AND ISZERO PUSH2 0x1CC7 JUMPI DUP3 AND ISZERO PUSH2 0x1CAF JUMPI PUSH2 0x79B SWAP5 PUSH2 0x1CA7 PUSH1 0x40 MLOAD SWAP3 PUSH1 0x1 DUP5 MSTORE PUSH1 0x20 DUP5 ADD MSTORE PUSH1 0x40 DUP4 ADD SWAP2 PUSH1 0x1 DUP4 MSTORE PUSH1 0x60 DUP5 ADD MSTORE PUSH1 0x80 DUP4 ADD PUSH1 0x40 MSTORE JUMP JUMPDEST SWAP1 DUP1 MLOAD DUP4 MLOAD SWAP1 DUP2 DUP2 SUB PUSH2 0x1C3D JUMPI POP POP PUSH1 0x0 JUMPDEST DUP2 MLOAD DUP2 LT ISZERO PUSH2 0x1DA5 JUMPI PUSH1 0x5 DUP2 SWAP1 SHL DUP3 DUP2 ADD PUSH1 0x20 SWAP1 DUP2 ADD MLOAD SWAP2 DUP7 ADD ADD MLOAD PUSH2 0x1D73 SWAP3 SWAP2 DUP6 SWAP1 PUSH1 0x1 PUSH1 0x1 PUSH1 0xA0 SHL SUB DUP3 AND PUSH2 0x1D78 JUMPI JUMPDEST POP POP POP PUSH2 0x1BA7 JUMP JUMPDEST PUSH2 0x1D39 JUMP JUMPDEST PUSH2 0x1D9B SWAP2 PUSH2 0xEF3 PUSH2 0x1D93 SWAP3 PUSH1 0x0 MSTORE PUSH1 0x0 PUSH1 0x20 MSTORE PUSH1 0x40 PUSH1 0x0 KECCAK256 SWAP1 JUMP JUMPDEST SWAP2 DUP3 SLOAD PUSH2 0x20C7 JUMP JUMPDEST SWAP1 SSTORE CODESIZE DUP5 DUP2 PUSH2 0x1D6B JUMP JUMPDEST POP DUP1 MLOAD SWAP2 SWAP4 SWAP3 SWAP2 PUSH1 0x1 SUB PUSH2 0x1E47 JUMPI PUSH1 0x20 DUP2 DUP2 ADD MLOAD DUP4 DUP3 ADD MLOAD PUSH1 0x40 DUP1 MLOAD SWAP3 DUP4 MSTORE SWAP3 DUP3 ADD MSTORE PUSH1 0x1 PUSH1 0x1 PUSH1 0xA0 SHL SUB DUP7 AND SWAP2 PUSH1 0x0 SWAP2 CALLER SWAP2 PUSH32 0xC3D58168C5AE7397731D063D5BBF3D657854427343F4C083240F7AACAA2D0F62 SWAP2 LOG4 JUMPDEST PUSH1 0x1 PUSH1 0x1 PUSH1 0xA0 SHL SUB DUP5 AND PUSH2 0x1E11 JUMPI JUMPDEST POP POP POP POP JUMP JUMPDEST DUP1 MLOAD PUSH1 0x1 SUB PUSH2 0x1E38 JUMPI SWAP1 PUSH1 0x20 DUP1 PUSH2 0x1E2F SWAP6 SWAP4 ADD MLOAD SWAP2 ADD MLOAD SWAP2 CALLER PUSH2 0x21C1 JUMP JUMPDEST CODESIZE DUP1 DUP1 DUP1 PUSH2 0x1E0B JUMP JUMPDEST PUSH2 0x1E42 SWAP4 CALLER PUSH2 0x23D2 JUMP JUMPDEST PUSH2 0x1E2F JUMP JUMPDEST PUSH1 0x40 MLOAD PUSH1 0x1 PUSH1 0x1 PUSH1 0xA0 SHL SUB DUP6 AND SWAP1 PUSH1 0x0 SWAP1 CALLER SWAP1 PUSH32 0x4A39DC06D4C0DBC64B70AF90FD698A233A518AA5D07E595D983B8C0526C8F7FB SWAP1 DUP1 PUSH2 0x1E88 DUP9 DUP9 DUP4 PUSH2 0x20D4 JUMP JUMPDEST SUB SWAP1 LOG4 PUSH2 0x1DFC JUMP JUMPDEST SWAP5 SWAP2 SWAP1 SWAP2 DUP2 MLOAD DUP5 MLOAD SWAP1 DUP2 DUP2 SUB PUSH2 0x1C3D JUMPI POP POP PUSH1 0x0 JUMPDEST DUP3 MLOAD DUP2 LT ISZERO PUSH2 0x1F98 JUMPI PUSH1 0x5 DUP2 SWAP1 SHL DUP4 DUP2 ADD PUSH1 0x20 SWAP1 DUP2 ADD MLOAD SWAP2 DUP8 ADD ADD MLOAD PUSH1 0x1 PUSH1 0x1 PUSH1 0xA0 SHL SUB SWAP3 SWAP2 DUP7 SWAP1 DUP11 DUP6 AND PUSH2 0x1F11 JUMPI JUMPDEST PUSH2 0x1EE7 SWAP5 DUP3 AND PUSH2 0x1EEC JUMPI POP POP POP PUSH2 0x1BA7 JUMP JUMPDEST PUSH2 0x1EA5 JUMP JUMPDEST PUSH2 0x1F07 SWAP2 PUSH2 0xEF3 PUSH2 0x1D93 SWAP3 PUSH1 0x0 MSTORE PUSH1 0x0 PUSH1 0x20 MSTORE PUSH1 0x40 PUSH1 0x0 KECCAK256 SWAP1 JUMP JUMPDEST SWAP1 SSTORE CODESIZE DUP6 DUP2 PUSH2 0x1D6B JUMP JUMPDEST SWAP2 SWAP3 SWAP4 SWAP1 POP PUSH2 0x1F2E DUP11 PUSH2 0xEF3 DUP5 PUSH1 0x0 MSTORE PUSH1 0x0 PUSH1 0x20 MSTORE PUSH1 0x40 PUSH1 0x0 KECCAK256 SWAP1 JUMP JUMPDEST SLOAD DUP4 DUP2 LT PUSH2 0x1F61 JUMPI SWAP2 DUP8 SWAP2 DUP5 PUSH2 0x1EE7 SWAP7 SWAP6 SWAP5 SUB PUSH2 0x1F59 DUP14 PUSH2 0xEF3 DUP6 PUSH1 0x0 MSTORE PUSH1 0x0 PUSH1 0x20 MSTORE PUSH1 0x40 PUSH1 0x0 KECCAK256 SWAP1 JUMP JUMPDEST SSTORE SWAP5 POP PUSH2 0x1ED5 JUMP JUMPDEST PUSH1 0x40 MLOAD PUSH4 0x3DEE4C5 PUSH1 0xE0 SHL DUP2 MSTORE PUSH1 0x1 PUSH1 0x1 PUSH1 0xA0 SHL SUB DUP13 AND PUSH1 0x4 DUP3 ADD MSTORE PUSH1 0x24 DUP2 ADD SWAP2 SWAP1 SWAP2 MSTORE PUSH1 0x44 DUP2 ADD DUP5 SWAP1 MSTORE PUSH1 0x64 DUP2 ADD DUP4 SWAP1 MSTORE PUSH1 0x84 SWAP1 REVERT JUMPDEST POP SWAP5 SWAP2 SWAP4 SWAP3 SWAP1 SWAP4 PUSH1 0x1 DUP6 MLOAD EQ PUSH1 0x0 EQ PUSH2 0x2043 JUMPI PUSH1 0x20 DUP6 DUP2 ADD MLOAD DUP4 DUP3 ADD MLOAD PUSH1 0x40 DUP1 MLOAD SWAP3 DUP4 MSTORE SWAP3 DUP3 ADD MSTORE PUSH1 0x1 PUSH1 0x1 PUSH1 0xA0 SHL SUB DUP4 DUP2 AND SWAP3 SWAP1 DUP7 AND SWAP2 CALLER SWAP2 PUSH32 0xC3D58168C5AE7397731D063D5BBF3D657854427343F4C083240F7AACAA2D0F62 SWAP2 LOG4 JUMPDEST PUSH1 0x1 PUSH1 0x1 PUSH1 0xA0 SHL SUB DUP2 AND PUSH2 0x200C JUMPI JUMPDEST POP POP POP POP POP JUMP JUMPDEST DUP5 MLOAD PUSH1 0x1 SUB PUSH2 0x2032 JUMPI PUSH1 0x20 DUP1 PUSH2 0x2028 SWAP7 ADD MLOAD SWAP3 ADD MLOAD SWAP3 CALLER PUSH2 0x22BB JUMP JUMPDEST CODESIZE DUP1 DUP1 DUP1 DUP1 PUSH2 0x2005 JUMP JUMPDEST PUSH2 0x203E SWAP5 SWAP2 SWAP3 CALLER PUSH2 0x2407 JUMP JUMPDEST PUSH2 0x2028 JUMP JUMPDEST PUSH1 0x40 MLOAD PUSH1 0x1 PUSH1 0x1 PUSH1 0xA0 SHL SUB DUP3 DUP2 AND SWAP2 SWAP1 DUP6 AND SWAP1 CALLER SWAP1 PUSH32 0x4A39DC06D4C0DBC64B70AF90FD698A233A518AA5D07E595D983B8C0526C8F7FB SWAP1 DUP1 PUSH2 0x2086 DUP9 DUP13 DUP4 PUSH2 0x20D4 JUMP JUMPDEST SUB SWAP1 LOG4 PUSH2 0x1FF6 JUMP JUMPDEST SWAP1 PUSH7 0x11C37937E08000 DUP3 ADD DUP1 SWAP3 GT PUSH2 0x1BB6 JUMPI JUMP JUMPDEST SWAP1 PUSH3 0x93A80 DUP3 ADD DUP1 SWAP3 GT PUSH2 0x1BB6 JUMPI JUMP JUMPDEST SWAP1 PUSH7 0x2386F26FC10000 SWAP2 DUP3 ADD DUP1 SWAP3 GT PUSH2 0x1BB6 JUMPI JUMP JUMPDEST SWAP2 SWAP1 DUP3 ADD DUP1 SWAP3 GT PUSH2 0x1BB6 JUMPI JUMP JUMPDEST SWAP1 SWAP2 PUSH2 0x20EB PUSH2 0x45C SWAP4 PUSH1 0x40 DUP5 MSTORE PUSH1 0x40 DUP5 ADD SWAP1 PUSH2 0x9E8 JUMP JUMPDEST SWAP2 PUSH1 0x20 DUP2 DUP5 SUB SWAP2 ADD MSTORE PUSH2 0x9E8 JUMP JUMPDEST SWAP1 DUP2 PUSH1 0x20 SWAP2 SUB SLT PUSH2 0x29C JUMPI MLOAD PUSH2 0x45C DUP2 PUSH2 0x315 JUMP JUMPDEST SWAP1 SWAP3 PUSH1 0xA0 SWAP3 PUSH2 0x45C SWAP6 SWAP5 PUSH1 0x1 DUP1 DUP7 SHL SUB AND DUP4 MSTORE PUSH1 0x0 PUSH1 0x20 DUP5 ADD MSTORE PUSH1 0x40 DUP4 ADD MSTORE PUSH1 0x60 DUP3 ADD MSTORE DUP2 PUSH1 0x80 DUP3 ADD MSTORE ADD SWAP1 PUSH2 0x426 JUMP JUMPDEST SWAP2 SWAP3 PUSH2 0x45C SWAP6 SWAP5 SWAP2 PUSH1 0xA0 SWAP5 PUSH1 0x1 DUP1 DUP8 SHL SUB DUP1 SWAP3 AND DUP6 MSTORE AND PUSH1 0x20 DUP5 ADD MSTORE PUSH1 0x40 DUP4 ADD MSTORE PUSH1 0x60 DUP3 ADD MSTORE DUP2 PUSH1 0x80 DUP3 ADD MSTORE ADD SWAP1 PUSH2 0x426 JUMP JUMPDEST PUSH1 0x40 MLOAD RETURNDATASIZE PUSH1 0x0 DUP3 RETURNDATACOPY RETURNDATASIZE SWAP1 REVERT JUMPDEST PUSH1 0x40 MLOAD SWAP1 PUSH2 0x218B DUP3 PUSH2 0x752 JUMP JUMPDEST PUSH1 0x0 DUP3 MSTORE JUMP JUMPDEST RETURNDATASIZE ISZERO PUSH2 0x21BC JUMPI RETURNDATASIZE SWAP1 PUSH2 0x21A2 DUP3 PUSH2 0x831 JUMP JUMPDEST SWAP2 PUSH2 0x21B0 PUSH1 0x40 MLOAD SWAP4 DUP5 PUSH2 0x76D JUMP JUMPDEST DUP3 MSTORE RETURNDATASIZE PUSH1 0x0 PUSH1 0x20 DUP5 ADD RETURNDATACOPY JUMP JUMPDEST PUSH1 0x60 SWAP1 JUMP JUMPDEST SWAP3 SWAP4 SWAP2 SWAP1 SWAP4 DUP5 EXTCODESIZE PUSH2 0x21D3 JUMPI POP POP POP POP POP JUMP JUMPDEST PUSH1 0x20 SWAP2 PUSH2 0x21F6 PUSH1 0x40 MLOAD SWAP5 DUP6 SWAP4 DUP5 SWAP4 PUSH4 0xF23A6E61 PUSH1 0xE0 SHL SWAP9 DUP10 DUP7 MSTORE PUSH1 0x4 DUP7 ADD PUSH2 0x210E JUMP JUMPDEST SUB DUP2 PUSH1 0x0 PUSH1 0x1 PUSH1 0x1 PUSH1 0xA0 SHL SUB DUP9 AND GAS CALL PUSH1 0x0 SWAP2 DUP2 PUSH2 0x228B JUMPI JUMPDEST POP PUSH2 0x224E JUMPI DUP3 PUSH2 0x221D PUSH2 0x2191 JUMP JUMPDEST DUP1 MLOAD SWAP2 SWAP1 DUP3 PUSH2 0x2247 JUMPI PUSH1 0x40 MLOAD PUSH4 0x2BFA23E7 PUSH1 0xE1 SHL DUP2 MSTORE PUSH1 0x1 PUSH1 0x1 PUSH1 0xA0 SHL SUB DUP4 AND PUSH1 0x4 DUP3 ADD MSTORE PUSH1 0x24 SWAP1 REVERT JUMPDEST SWAP1 POP PUSH1 0x20 ADD REVERT JUMPDEST PUSH1 0x1 PUSH1 0x1 PUSH1 0xE0 SHL SUB NOT AND SUB PUSH2 0x2268 JUMPI POP CODESIZE DUP1 DUP1 DUP1 DUP1 PUSH2 0x2005 JUMP JUMPDEST PUSH1 0x40 MLOAD PUSH4 0x2BFA23E7 PUSH1 0xE1 SHL DUP2 MSTORE PUSH1 0x1 PUSH1 0x1 PUSH1 0xA0 SHL SUB SWAP2 SWAP1 SWAP2 AND PUSH1 0x4 DUP3 ADD MSTORE PUSH1 0x24 SWAP1 REVERT JUMPDEST PUSH2 0x22AD SWAP2 SWAP3 POP PUSH1 0x20 RETURNDATASIZE DUP2 GT PUSH2 0x22B4 JUMPI JUMPDEST PUSH2 0x22A5 DUP2 DUP4 PUSH2 0x76D JUMP JUMPDEST DUP2 ADD SWAP1 PUSH2 0x20F9 JUMP JUMPDEST SWAP1 CODESIZE PUSH2 0x220F JUMP JUMPDEST POP RETURNDATASIZE PUSH2 0x229B JUMP JUMPDEST SWAP4 SWAP3 SWAP1 SWAP5 SWAP2 SWAP5 DUP6 EXTCODESIZE PUSH2 0x22D0 JUMPI JUMPDEST POP POP POP POP POP POP JUMP JUMPDEST PUSH2 0x22F3 PUSH1 0x20 SWAP4 PUSH1 0x40 MLOAD SWAP6 DUP7 SWAP5 DUP6 SWAP5 PUSH4 0xF23A6E61 PUSH1 0xE0 SHL SWAP10 DUP11 DUP8 MSTORE PUSH1 0x4 DUP8 ADD PUSH2 0x213F JUMP JUMPDEST SUB DUP2 PUSH1 0x0 PUSH1 0x1 PUSH1 0x1 PUSH1 0xA0 SHL SUB DUP9 AND GAS CALL PUSH1 0x0 SWAP2 DUP2 PUSH2 0x2335 JUMPI JUMPDEST POP PUSH2 0x231A JUMPI DUP3 PUSH2 0x221D PUSH2 0x2191 JUMP JUMPDEST PUSH1 0x1 PUSH1 0x1 PUSH1 0xE0 SHL SUB NOT AND SUB PUSH2 0x2268 JUMPI POP CODESIZE DUP1 DUP1 DUP1 DUP1 DUP1 PUSH2 0x22C8 JUMP JUMPDEST PUSH2 0x234E SWAP2 SWAP3 POP PUSH1 0x20 RETURNDATASIZE DUP2 GT PUSH2 0x22B4 JUMPI PUSH2 0x22A5 DUP2 DUP4 PUSH2 0x76D JUMP JUMPDEST SWAP1 CODESIZE PUSH2 0x230C JUMP JUMPDEST SWAP3 PUSH2 0x2384 PUSH2 0x45C SWAP6 SWAP4 PUSH2 0x2392 SWAP4 PUSH1 0x1 DUP1 PUSH1 0xA0 SHL SUB AND DUP7 MSTORE PUSH1 0x0 PUSH1 0x20 DUP8 ADD MSTORE PUSH1 0xA0 PUSH1 0x40 DUP8 ADD MSTORE PUSH1 0xA0 DUP7 ADD SWAP1 PUSH2 0x9E8 JUMP JUMPDEST SWAP1 DUP5 DUP3 SUB PUSH1 0x60 DUP7 ADD MSTORE PUSH2 0x9E8 JUMP JUMPDEST SWAP2 PUSH1 0x80 DUP2 DUP5 SUB SWAP2 ADD MSTORE PUSH2 0x426 JUMP JUMPDEST SWAP4 SWAP1 PUSH2 0x45C SWAP6 SWAP4 PUSH2 0x2384 SWAP2 PUSH2 0x2392 SWAP5 PUSH1 0x1 DUP1 PUSH1 0xA0 SHL SUB DUP1 SWAP3 AND DUP9 MSTORE AND PUSH1 0x20 DUP8 ADD MSTORE PUSH1 0xA0 PUSH1 0x40 DUP8 ADD MSTORE PUSH1 0xA0 DUP7 ADD SWAP1 PUSH2 0x9E8 JUMP JUMPDEST SWAP3 SWAP4 SWAP2 SWAP1 SWAP4 DUP5 EXTCODESIZE PUSH2 0x23E4 JUMPI POP POP POP POP POP JUMP JUMPDEST PUSH1 0x20 SWAP2 PUSH2 0x21F6 PUSH1 0x40 MLOAD SWAP5 DUP6 SWAP4 DUP5 SWAP4 PUSH4 0xBC197C81 PUSH1 0xE0 SHL SWAP9 DUP10 DUP7 MSTORE PUSH1 0x4 DUP7 ADD PUSH2 0x2355 JUMP JUMPDEST SWAP4 SWAP3 SWAP1 SWAP5 SWAP2 SWAP5 DUP6 EXTCODESIZE PUSH2 0x241B JUMPI POP POP POP POP POP POP JUMP JUMPDEST PUSH2 0x22F3 PUSH1 0x20 SWAP4 PUSH1 0x40 MLOAD SWAP6 DUP7 SWAP5 DUP6 SWAP5 PUSH4 0xBC197C81 PUSH1 0xE0 SHL SWAP10 DUP11 DUP8 MSTORE PUSH1 0x4 DUP8 ADD PUSH2 0x23A0 JUMP JUMPDEST ISZERO PUSH2 0x2445 JUMPI JUMP JUMPDEST PUSH1 0x40 MLOAD PUSH3 0x461BCD PUSH1 0xE5 SHL DUP2 MSTORE PUSH1 0x20 PUSH1 0x4 DUP3 ADD MSTORE PUSH1 0x28 PUSH1 0x24 DUP3 ADD MSTORE PUSH32 0x4F6E6C7920456E6372797074656441727469636C657320636F6E747261637420 PUSH1 0x44 DUP3 ADD MSTORE PUSH8 0x18D85B881B5A5B9D PUSH1 0xC2 SHL PUSH1 0x64 DUP3 ADD MSTORE PUSH1 0x84 SWAP1 REVERT JUMPDEST SWAP1 SWAP2 SWAP1 PUSH1 0x1 PUSH1 0x1 PUSH1 0xA0 SHL SUB DUP2 AND ISZERO PUSH2 0x1CC7 JUMPI PUSH2 0x24DB PUSH2 0x79B SWAP4 SWAP1 PUSH1 0x40 MLOAD SWAP2 PUSH1 0x1 DUP4 MSTORE PUSH1 0x20 DUP4 ADD MSTORE PUSH1 0x40 DUP3 ADD SWAP1 PUSH1 0x1 DUP3 MSTORE PUSH1 0x1 PUSH1 0x60 DUP5 ADD MSTORE PUSH1 0x80 DUP4 ADD PUSH1 0x40 MSTORE JUMP JUMPDEST SWAP2 PUSH2 0x1D27 JUMP JUMPDEST SWAP2 SWAP3 SWAP2 SWAP1 PUSH1 0x1 PUSH1 0x1 PUSH1 0xA0 SHL SUB DUP3 AND ISZERO PUSH2 0x1CC7 JUMPI PUSH2 0x79B SWAP4 PUSH2 0x24DB PUSH1 0x40 MLOAD SWAP3 PUSH1 0x1 DUP5 MSTORE PUSH1 0x20 DUP5 ADD MSTORE PUSH1 0x40 DUP4 ADD SWAP2 PUSH1 0x1 DUP4 MSTORE PUSH1 0x60 DUP5 ADD MSTORE PUSH1 0x80 DUP4 ADD PUSH1 0x40 MSTORE JUMP JUMPDEST ISZERO PUSH2 0x2526 JUMPI JUMP JUMPDEST PUSH1 0x40 MLOAD PUSH3 0x461BCD PUSH1 0xE5 SHL DUP2 MSTORE PUSH1 0x20 PUSH1 0x4 DUP3 ADD MSTORE PUSH1 0x22 PUSH1 0x24 DUP3 ADD MSTORE PUSH32 0x4E6F206C6963656E73657320657869737420666F722074686973206172746963 PUSH1 0x44 DUP3 ADD MSTORE PUSH2 0x6C65 PUSH1 0xF0 SHL PUSH1 0x64 DUP3 ADD MSTORE PUSH1 0x84 SWAP1 REVERT JUMPDEST DUP2 PUSH1 0x1F DUP3 ADD SLT ISZERO PUSH2 0x29C JUMPI DUP1 MLOAD PUSH2 0x258C DUP2 PUSH2 0x831 JUMP JUMPDEST SWAP3 PUSH2 0x259A PUSH1 0x40 MLOAD SWAP5 DUP6 PUSH2 0x76D JUMP JUMPDEST DUP2 DUP5 MSTORE PUSH1 0x20 DUP3 DUP5 ADD ADD GT PUSH2 0x29C JUMPI PUSH2 0x45C SWAP2 PUSH1 0x20 DUP1 DUP6 ADD SWAP2 ADD PUSH2 0x403 JUMP JUMPDEST MLOAD SWAP1 PUSH2 0x79B DUP3 PUSH2 0x28B JUMP JUMPDEST SWAP1 DUP1 PUSH1 0x1F DUP4 ADD SLT ISZERO PUSH2 0x29C JUMPI DUP2 MLOAD SWAP1 PUSH2 0x25DB DUP3 PUSH2 0x7BC JUMP JUMPDEST SWAP3 PUSH2 0x25E9 PUSH1 0x40 MLOAD SWAP5 DUP6 PUSH2 0x76D JUMP JUMPDEST DUP3 DUP5 MSTORE PUSH1 0x20 SWAP3 DUP4 DUP1 DUP7 ADD SWAP2 PUSH1 0x5 SHL DUP4 ADD ADD SWAP3 DUP1 DUP5 GT PUSH2 0x29C JUMPI DUP5 DUP4 ADD SWAP2 JUMPDEST DUP5 DUP4 LT PUSH2 0x2617 JUMPI POP POP POP POP POP POP SWAP1 JUMP JUMPDEST DUP3 MLOAD PUSH1 0x1 PUSH1 0x1 PUSH1 0x40 SHL SUB DUP2 GT PUSH2 0x29C JUMPI DUP7 SWAP2 PUSH2 0x2638 DUP5 DUP5 DUP1 SWAP5 DUP10 ADD ADD PUSH2 0x2576 JUMP JUMPDEST DUP2 MSTORE ADD SWAP3 ADD SWAP2 PUSH2 0x2607 JUMP JUMPDEST MLOAD SWAP1 PUSH1 0xFF DUP3 AND DUP3 SUB PUSH2 0x29C JUMPI JUMP JUMPDEST SWAP2 SWAP1 PUSH2 0x1E0 DUP4 DUP3 SUB SLT PUSH2 0x29C JUMPI DUP3 MLOAD SWAP3 PUSH1 0x20 DUP2 ADD MLOAD SWAP3 PUSH1 0x1 PUSH1 0x1 PUSH1 0x40 SHL SUB SWAP4 DUP5 DUP2 GT PUSH2 0x29C JUMPI DUP4 PUSH2 0x2683 SWAP2 DUP5 ADD PUSH2 0x2576 JUMP JUMPDEST SWAP4 PUSH1 0x40 DUP4 ADD MLOAD DUP2 DUP2 GT PUSH2 0x29C JUMPI DUP5 PUSH2 0x269C SWAP2 DUP6 ADD PUSH2 0x2576 JUMP JUMPDEST SWAP4 PUSH1 0x60 DUP5 ADD MLOAD DUP3 DUP2 GT PUSH2 0x29C JUMPI DUP2 PUSH2 0x26B5 SWAP2 DUP7 ADD PUSH2 0x2576 JUMP JUMPDEST SWAP4 PUSH2 0x26C2 PUSH1 0x80 DUP3 ADD PUSH2 0x25B8 JUMP JUMPDEST SWAP4 PUSH1 0xA0 DUP3 ADD MLOAD DUP5 DUP2 GT PUSH2 0x29C JUMPI DUP4 PUSH2 0x26DB SWAP2 DUP5 ADD PUSH2 0x2576 JUMP JUMPDEST SWAP4 PUSH1 0xC0 DUP4 ADD MLOAD DUP2 DUP2 GT PUSH2 0x29C JUMPI DUP5 PUSH2 0x26F4 SWAP2 DUP6 ADD PUSH2 0x2576 JUMP JUMPDEST SWAP4 PUSH1 0xE0 DUP5 ADD MLOAD SWAP2 DUP3 GT PUSH2 0x29C JUMPI PUSH2 0x270C SWAP2 DUP5 ADD PUSH2 0x25C3 JUMP JUMPDEST SWAP2 PUSH2 0x100 DUP2 ADD MLOAD SWAP2 PUSH2 0x120 DUP3 ADD MLOAD SWAP2 PUSH2 0x140 DUP2 ADD MLOAD SWAP2 PUSH2 0x160 DUP3 ADD MLOAD SWAP2 PUSH2 0x180 DUP2 ADD MLOAD SWAP2 PUSH2 0x1C0 PUSH2 0x2740 PUSH2 0x1A0 DUP5 ADD PUSH2 0x2643 JUMP JUMPDEST SWAP3 ADD MLOAD SWAP1 JUMP JUMPDEST SWAP1 PUSH1 0x46 DUP3 MUL SWAP2 DUP1 DUP4 DIV PUSH1 0x46 EQ SWAP1 ISZERO OR ISZERO PUSH2 0x1BB6 JUMPI JUMP JUMPDEST SWAP1 PUSH1 0x14 DUP3 MUL SWAP2 DUP1 DUP4 DIV PUSH1 0x14 EQ SWAP1 ISZERO OR ISZERO PUSH2 0x1BB6 JUMPI JUMP JUMPDEST DUP2 DUP2 MUL SWAP3 SWAP2 DUP2 ISZERO SWAP2 DUP5 DIV EQ OR ISZERO PUSH2 0x1BB6 JUMPI JUMP JUMPDEST PUSH7 0x11C37937E07FFF NOT DUP2 ADD SWAP2 SWAP1 DUP3 GT PUSH2 0x1BB6 JUMPI JUMP JUMPDEST PUSH1 0x0 NOT DUP2 ADD SWAP2 SWAP1 DUP3 GT PUSH2 0x1BB6 JUMPI JUMP JUMPDEST SWAP2 SWAP1 DUP3 SUB SWAP2 DUP3 GT PUSH2 0x1BB6 JUMPI JUMP JUMPDEST PUSH4 0x4E487B71 PUSH1 0xE0 SHL PUSH1 0x0 MSTORE PUSH1 0x12 PUSH1 0x4 MSTORE PUSH1 0x24 PUSH1 0x0 REVERT JUMPDEST DUP1 ISZERO PUSH2 0x27DF JUMPI PUSH8 0xDBD2FC137A30000 DIV SWAP1 JUMP JUMPDEST PUSH2 0x27B6 JUMP JUMPDEST PUSH2 0x27F8 DUP2 PUSH1 0x0 MSTORE PUSH1 0xA PUSH1 0x20 MSTORE PUSH1 0x40 PUSH1 0x0 KECCAK256 SWAP1 JUMP JUMPDEST SLOAD PUSH2 0x2804 DUP2 ISZERO ISZERO PUSH2 0x251F JUMP JUMPDEST PUSH1 0x40 MLOAD PUSH4 0x76E7D7F3 PUSH1 0xE1 SHL DUP2 MSTORE PUSH1 0x4 DUP2 ADD DUP4 SWAP1 MSTORE PUSH1 0x0 SWAP3 SWAP1 DUP4 DUP2 PUSH1 0x24 DUP2 PUSH1 0x1 PUSH1 0x1 PUSH1 0xA0 SHL SUB PUSH32 0x0 AND GAS STATICCALL DUP1 ISZERO PUSH2 0x3D6 JUMPI PUSH2 0x28A4 SWAP4 PUSH2 0x2871 PUSH2 0x2899 SWAP3 PUSH2 0x289E SWAP5 DUP9 SWAP1 DUP10 SWAP3 PUSH2 0x28CB JUMPI JUMPDEST POP PUSH2 0x2772 JUMP JUMPDEST PUSH1 0x1 DUP2 GT ISZERO PUSH2 0x28C0 JUMPI PUSH2 0x288E PUSH2 0x2889 PUSH2 0x2894 SWAP3 PUSH2 0x279A JUMP JUMPDEST PUSH2 0x27CC JUMP JUMPDEST SWAP2 PUSH2 0x279A JUMP JUMPDEST PUSH2 0x2772 JUMP JUMPDEST PUSH2 0x20B2 JUMP JUMPDEST SWAP1 PUSH2 0x28F6 JUMP JUMPDEST PUSH8 0xDE0B6B3A7640000 SWAP2 POP DUP2 DUP2 GT ISZERO PUSH2 0x28BB JUMPI POP SWAP1 JUMP JUMPDEST SWAP1 POP SWAP1 JUMP JUMPDEST POP PUSH2 0x2894 DUP7 SWAP2 PUSH2 0x279A JUMP JUMPDEST SWAP1 POP PUSH2 0x28E1 SWAP2 POP RETURNDATASIZE DUP1 DUP11 DUP4 RETURNDATACOPY PUSH2 0x62E DUP2 DUP4 PUSH2 0x76D JUMP JUMPDEST POP POP SWAP12 POP POP POP SWAP8 POP POP POP POP POP POP POP POP CODESIZE PUSH2 0x286B JUMP JUMPDEST PUSH1 0x40 MLOAD PUSH4 0x76E7D7F3 PUSH1 0xE1 SHL DUP2 MSTORE PUSH1 0x4 DUP2 ADD DUP3 SWAP1 MSTORE PUSH1 0x0 SWAP4 SWAP2 SWAP3 SWAP1 DUP5 DUP2 PUSH1 0x24 DUP2 PUSH1 0x1 PUSH1 0x1 PUSH1 0xA0 SHL SUB PUSH32 0x0 AND GAS STATICCALL SWAP1 DUP2 ISZERO PUSH2 0x3D6 JUMPI PUSH2 0x2967 SWAP2 PUSH2 0x295E SWAP2 DUP8 SWAP2 PUSH2 0x2A33 JUMPI JUMPDEST POP TIMESTAMP PUSH2 0x27A9 JUMP JUMPDEST PUSH3 0x15180 SWAP1 DIV SWAP1 JUMP JUMPDEST SWAP4 DUP1 SWAP4 PUSH3 0x15180 TIMESTAMP DIV SWAP1 DUP3 SWAP6 JUMPDEST DUP8 DUP8 LT DUP1 PUSH2 0x2A29 JUMPI JUMPDEST ISZERO PUSH2 0x2A1C JUMPI PUSH2 0x29B1 PUSH2 0x2999 DUP4 PUSH1 0x0 MSTORE PUSH1 0x8 PUSH1 0x20 MSTORE PUSH1 0x40 PUSH1 0x0 KECCAK256 SWAP1 JUMP JUMPDEST PUSH2 0x29A3 DUP10 DUP7 PUSH2 0x27A9 JUMP JUMPDEST PUSH1 0x0 MSTORE PUSH1 0x20 MSTORE PUSH1 0x40 PUSH1 0x0 KECCAK256 SWAP1 JUMP JUMPDEST SLOAD PUSH2 0x29CE JUMPI PUSH2 0x29C2 PUSH2 0x29C8 SWAP2 PUSH2 0x1BA7 JUMP JUMPDEST SWAP7 PUSH2 0x1BA7 JUMP JUMPDEST SWAP6 PUSH2 0x2974 JUMP JUMPDEST SWAP4 SWAP6 POP POP POP SWAP2 SWAP4 POP JUMPDEST PUSH1 0x1E DUP2 GT ISZERO PUSH2 0x2A10 JUMPI POP PUSH2 0x29F0 PUSH2 0xF3E PUSH1 0x1E JUMPDEST DUP5 PUSH2 0x2772 JUMP JUMPDEST SWAP1 POP DUP1 DUP3 GT ISZERO PUSH2 0x2A03 JUMPI PUSH2 0x45C SWAP2 PUSH2 0x27A9 JUMP JUMPDEST POP POP PUSH7 0x38D7EA4C68000 SWAP1 JUMP JUMPDEST PUSH2 0xF3E PUSH2 0x29F0 SWAP2 PUSH2 0x29EA JUMP JUMPDEST SWAP4 SWAP6 POP POP POP SWAP2 SWAP4 POP PUSH2 0x29D7 JUMP JUMPDEST POP PUSH1 0x1E DUP8 LT PUSH2 0x297D JUMP JUMPDEST PUSH2 0x2A47 SWAP2 POP RETURNDATASIZE DUP1 DUP10 DUP4 RETURNDATACOPY PUSH2 0x62E DUP2 DUP4 PUSH2 0x76D JUMP JUMPDEST POP POP POP POP POP POP SWAP8 POP POP POP POP POP POP POP POP CODESIZE PUSH2 0x2957 JUMP JUMPDEST ISZERO PUSH2 0x2A63 JUMPI JUMP JUMPDEST PUSH1 0x40 MLOAD PUSH3 0x461BCD PUSH1 0xE5 SHL DUP2 MSTORE PUSH1 0x20 PUSH1 0x4 DUP3 ADD MSTORE PUSH1 0x16 PUSH1 0x24 DUP3 ADD MSTORE PUSH22 0x53656C6C657220686173206E6F206C6963656E736573 PUSH1 0x50 SHL PUSH1 0x44 DUP3 ADD MSTORE PUSH1 0x64 SWAP1 REVERT JUMPDEST ISZERO PUSH2 0x2AA8 JUMPI JUMP JUMPDEST PUSH1 0x40 MLOAD PUSH3 0x461BCD PUSH1 0xE5 SHL DUP2 MSTORE PUSH1 0x20 PUSH1 0x4 DUP3 ADD MSTORE PUSH1 0x14 PUSH1 0x24 DUP3 ADD MSTORE PUSH20 0x125B9CDD59999A58DA595B9D081C185E5B595B9D PUSH1 0x62 SHL PUSH1 0x44 DUP3 ADD MSTORE PUSH1 0x64 SWAP1 REVERT JUMPDEST DUP1 ISZERO PUSH2 0x1BB6 JUMPI PUSH1 0x0 NOT ADD SWAP1 JUMP JUMPDEST DUP1 SLOAD PUSH9 0x10000000000000000 DUP2 LT ISZERO PUSH2 0x74D JUMPI PUSH2 0x2B13 SWAP2 PUSH1 0x1 DUP3 ADD DUP2 SSTORE PUSH2 0xDE8 JUMP JUMPDEST PUSH2 0x2B62 JUMPI DUP2 MLOAD DUP2 SSTORE PUSH1 0x20 DUP3 ADD MLOAD PUSH1 0x1 DUP3 ADD SSTORE PUSH1 0x40 DUP3 ADD MLOAD PUSH1 0x2 DUP3 ADD DUP1 SLOAD PUSH1 0x1 PUSH1 0x1 PUSH1 0xA0 SHL SUB SWAP3 DUP4 AND PUSH1 0x1 PUSH1 0x1 PUSH1 0xA0 SHL SUB NOT SWAP2 DUP3 AND OR SWAP1 SWAP2 SSTORE PUSH1 0x60 SWAP1 SWAP4 ADD MLOAD PUSH1 0x3 SWAP1 SWAP3 ADD DUP1 SLOAD SWAP1 SWAP4 AND SWAP2 AND OR SWAP1 SSTORE JUMP JUMPDEST PUSH4 0x4E487B71 PUSH1 0xE0 SHL PUSH1 0x0 MSTORE PUSH1 0x0 PUSH1 0x4 MSTORE PUSH1 0x24 PUSH1 0x0 REVERT JUMPDEST ISZERO PUSH2 0x2B7F JUMPI JUMP JUMPDEST PUSH1 0x40 MLOAD PUSH3 0x461BCD PUSH1 0xE5 SHL DUP2 MSTORE PUSH1 0x20 PUSH1 0x4 DUP3 ADD MSTORE PUSH1 0x12 PUSH1 0x24 DUP3 ADD MSTORE PUSH18 0x2737903634B1B2B739B2903A3790313AB937 PUSH1 0x71 SHL PUSH1 0x44 DUP3 ADD MSTORE PUSH1 0x64 SWAP1 REVERT JUMPDEST ISZERO PUSH2 0x2BC0 JUMPI JUMP JUMPDEST PUSH1 0x40 MLOAD PUSH3 0x461BCD PUSH1 0xE5 SHL DUP2 MSTORE PUSH1 0x20 PUSH1 0x4 DUP3 ADD MSTORE PUSH1 0x19 PUSH1 0x24 DUP3 ADD MSTORE PUSH32 0x416C726561647920686173206163746976652061636365737300000000000000 PUSH1 0x44 DUP3 ADD MSTORE PUSH1 0x64 SWAP1 REVERT JUMPDEST PUSH1 0x1 PUSH1 0x20 PUSH2 0x79B SWAP4 DUP1 MLOAD DUP5 SSTORE ADD MLOAD ISZERO ISZERO SWAP2 ADD SWAP1 PUSH1 0xFF DUP1 NOT DUP4 SLOAD AND SWAP2 ISZERO ISZERO AND OR SWAP1 SSTORE JUMP JUMPDEST PUSH1 0x1 PUSH1 0x1 PUSH1 0xA0 SHL SUB DUP2 AND SWAP2 DUP3 ISZERO PUSH2 0x1CAF JUMPI PUSH2 0x2C62 PUSH1 0x40 MLOAD SWAP2 PUSH1 0x1 DUP4 MSTORE PUSH1 0x20 DUP4 ADD MSTORE PUSH1 0x40 DUP3 ADD SWAP1 PUSH1 0x1 DUP3 MSTORE PUSH1 0x1 PUSH1 0x60 DUP5 ADD MSTORE PUSH1 0x80 DUP4 ADD PUSH1 0x40 MSTORE JUMP JUMPDEST SWAP2 SWAP1 PUSH1 0x40 SWAP5 PUSH1 0x0 DUP7 MLOAD PUSH2 0x2C74 DUP2 PUSH2 0x752 JUMP JUMPDEST MSTORE DUP2 MLOAD DUP5 MLOAD SWAP1 DUP2 DUP2 SUB PUSH2 0x2DA8 JUMPI POP POP PUSH1 0x0 JUMPDEST DUP3 MLOAD DUP2 LT ISZERO PUSH2 0x2D21 JUMPI DUP1 PUSH1 0x5 SHL PUSH1 0x20 DUP1 DUP3 DUP7 ADD ADD MLOAD SWAP2 DUP8 ADD ADD MLOAD PUSH2 0x2CB8 DUP7 PUSH2 0xEF3 DUP5 PUSH1 0x0 MSTORE PUSH1 0x0 PUSH1 0x20 MSTORE PUSH1 0x40 PUSH1 0x0 KECCAK256 SWAP1 JUMP JUMPDEST SLOAD DUP2 DUP2 LT PUSH2 0x2CEB JUMPI DUP7 PUSH2 0xEF3 PUSH2 0x2CE6 SWAP6 SWAP5 SWAP4 PUSH2 0x2CE0 SWAP4 SUB SWAP4 PUSH1 0x0 MSTORE PUSH1 0x0 PUSH1 0x20 MSTORE PUSH1 0x40 PUSH1 0x0 KECCAK256 SWAP1 JUMP JUMPDEST SSTORE PUSH2 0x1BA7 JUMP JUMPDEST PUSH2 0x2C86 JUMP JUMPDEST DUP10 MLOAD PUSH4 0x3DEE4C5 PUSH1 0xE0 SHL DUP2 MSTORE PUSH1 0x1 PUSH1 0x1 PUSH1 0xA0 SHL SUB DUP9 AND PUSH1 0x4 DUP3 ADD MSTORE PUSH1 0x24 DUP2 ADD SWAP2 SWAP1 SWAP2 MSTORE PUSH1 0x44 DUP2 ADD DUP3 SWAP1 MSTORE PUSH1 0x64 DUP2 ADD DUP4 SWAP1 MSTORE PUSH1 0x84 SWAP1 REVERT JUMPDEST POP SWAP5 SWAP1 PUSH1 0x0 SWAP5 SWAP4 SWAP3 POP PUSH1 0x1 DUP2 MLOAD EQ DUP6 EQ PUSH2 0x2D76 JUMPI PUSH1 0x20 SWAP1 DUP2 ADD MLOAD SWAP3 DUP2 ADD MLOAD SWAP2 MLOAD SWAP3 DUP4 MSTORE DUP3 ADD MSTORE CALLER SWAP1 PUSH32 0xC3D58168C5AE7397731D063D5BBF3D657854427343F4C083240F7AACAA2D0F62 SWAP1 DUP1 PUSH1 0x40 DUP2 ADD JUMPDEST SUB SWAP1 LOG4 JUMP JUMPDEST SWAP1 MLOAD CALLER SWAP3 PUSH32 0x4A39DC06D4C0DBC64B70AF90FD698A233A518AA5D07E595D983B8C0526C8F7FB SWAP3 DUP3 SWAP2 PUSH2 0x2D71 SWAP2 DUP4 PUSH2 0x20D4 JUMP JUMPDEST DUP8 MLOAD PUSH4 0x5B059991 PUSH1 0xE0 SHL DUP2 MSTORE PUSH1 0x4 DUP2 ADD SWAP2 SWAP1 SWAP2 MSTORE PUSH1 0x24 DUP2 ADD SWAP2 SWAP1 SWAP2 MSTORE PUSH1 0x44 SWAP1 REVERT JUMPDEST PUSH1 0x0 MSTORE PUSH1 0x5 PUSH1 0x20 MSTORE PUSH1 0x40 PUSH1 0x0 KECCAK256 PUSH1 0x3 PUSH1 0x2 DUP3 ADD SLOAD SWAP2 ADD SLOAD SWAP1 DUP1 ISZERO PUSH2 0x2E0E JUMPI DUP2 DUP2 SUB SWAP2 DUP2 DUP4 GT PUSH2 0x1BB6 JUMPI PUSH1 0x64 DUP4 MUL SWAP3 DUP4 DIV PUSH1 0x64 EQ SWAP1 DUP3 EQ OR ISZERO PUSH2 0x1BB6 JUMPI PUSH1 0x32 SWAP2 DIV LT ISZERO SWAP1 JUMP JUMPDEST POP POP PUSH1 0x0 SWAP1 JUMP JUMPDEST ISZERO PUSH2 0x2E1C JUMPI JUMP JUMPDEST PUSH1 0x40 MLOAD PUSH3 0x461BCD PUSH1 0xE5 SHL DUP2 MSTORE PUSH1 0x20 PUSH1 0x4 DUP3 ADD MSTORE PUSH1 0x15 PUSH1 0x24 DUP3 ADD MSTORE PUSH21 0x125B9CDD59999A58DA595B9D0819D85CC81C1BDBDB PUSH1 0x5A SHL PUSH1 0x44 DUP3 ADD MSTORE PUSH1 0x64 SWAP1 REVERT JUMPDEST PUSH1 0x20 SWAP1 DUP2 DUP2 DUP5 SUB SLT PUSH2 0x29C JUMPI DUP1 MLOAD SWAP1 PUSH1 0x1 PUSH1 0x1 PUSH1 0x40 SHL SUB DUP3 GT PUSH2 0x29C JUMPI ADD SWAP2 DUP1 PUSH1 0x1F DUP5 ADD SLT ISZERO PUSH2 0x29C JUMPI DUP3 MLOAD PUSH2 0x2E8E DUP2 PUSH2 0x7BC JUMP JUMPDEST SWAP4 PUSH2 0x2E9C PUSH1 0x40 MLOAD SWAP6 DUP7 PUSH2 0x76D JUMP JUMPDEST DUP2 DUP6 MSTORE DUP4 DUP1 DUP7 ADD SWAP3 PUSH1 0x5 SHL DUP3 ADD ADD SWAP3 DUP4 GT PUSH2 0x29C JUMPI DUP4 ADD SWAP1 JUMPDEST DUP3 DUP3 LT PUSH2 0x2EC3 JUMPI POP POP POP POP SWAP1 JUMP JUMPDEST DUP4 DUP1 SWAP2 DUP4 MLOAD PUSH2 0x2ED1 DUP2 PUSH2 0x28B JUMP JUMPDEST DUP2 MSTORE ADD SWAP2 ADD SWAP1 PUSH2 0x2EB5 JUMP JUMPDEST ISZERO PUSH2 0x2EE3 JUMPI JUMP JUMPDEST PUSH1 0x40 MLOAD PUSH3 0x461BCD PUSH1 0xE5 SHL DUP2 MSTORE PUSH1 0x20 PUSH1 0x4 DUP3 ADD MSTORE PUSH1 0xE PUSH1 0x24 DUP3 ADD MSTORE PUSH14 0x4E6F204E465420686F6C64657273 PUSH1 0x90 SHL PUSH1 0x44 DUP3 ADD MSTORE PUSH1 0x64 SWAP1 REVERT JUMPDEST DUP2 ISZERO PUSH2 0x27DF JUMPI MOD SWAP1 JUMP JUMPDEST SWAP1 PUSH2 0x2F5D PUSH1 0x2 PUSH2 0x2F3D DUP5 PUSH1 0x0 MSTORE PUSH1 0x5 PUSH1 0x20 MSTORE PUSH1 0x40 PUSH1 0x0 KECCAK256 SWAP1 JUMP JUMPDEST ADD SLOAD PUSH1 0x3 PUSH2 0x2F55 DUP6 PUSH1 0x0 MSTORE PUSH1 0x5 PUSH1 0x20 MSTORE PUSH1 0x40 PUSH1 0x0 KECCAK256 SWAP1 JUMP JUMPDEST ADD SLOAD SWAP1 PUSH2 0x27A9 JUMP JUMPDEST SWAP2 DUP3 ISZERO PUSH2 0x30F5 JUMPI PUSH1 0x40 MLOAD PUSH4 0x9FB53FCB PUSH1 0xE0 SHL DUP2 MSTORE PUSH1 0x4 DUP2 ADD DUP3 SWAP1 MSTORE SWAP3 PUSH1 0x0 DUP5 PUSH1 0x24 DUP2 PUSH1 0x1 PUSH1 0x1 PUSH1 0xA0 SHL SUB PUSH32 0x0 AND GAS STATICCALL SWAP4 DUP5 ISZERO PUSH2 0x3D6 JUMPI PUSH1 0x0 SWAP5 PUSH2 0x30DA JUMPI JUMPDEST POP PUSH2 0x2FC7 DUP5 MLOAD ISZERO ISZERO PUSH2 0x2EDC JUMP JUMPDEST PUSH1 0x0 JUMPDEST DUP2 DUP2 LT PUSH2 0x307F JUMPI POP DUP2 SWAP3 SWAP4 POP PUSH1 0x3 PUSH2 0x300C PUSH31 0xB4EA54FB8C538CD9C23515E23D54351ACC66C4539507193CEAE7D70E65D30D SWAP4 PUSH1 0x0 MSTORE PUSH1 0x5 PUSH1 0x20 MSTORE PUSH1 0x40 PUSH1 0x0 KECCAK256 SWAP1 JUMP JUMPDEST ADD PUSH2 0x3018 DUP3 DUP3 SLOAD PUSH2 0x20C7 JUMP JUMPDEST SWAP1 SSTORE TIMESTAMP PUSH1 0x4 PUSH2 0x3031 DUP6 PUSH1 0x0 MSTORE PUSH1 0x5 PUSH1 0x20 MSTORE PUSH1 0x40 PUSH1 0x0 KECCAK256 SWAP1 JUMP JUMPDEST ADD SSTORE PUSH2 0x3047 DUP4 PUSH1 0x0 MSTORE PUSH1 0xA PUSH1 0x20 MSTORE PUSH1 0x40 PUSH1 0x0 KECCAK256 SWAP1 JUMP JUMPDEST PUSH2 0x3052 DUP3 DUP3 SLOAD PUSH2 0x20C7 JUMP JUMPDEST SWAP1 SSTORE PUSH1 0x3 PUSH2 0x306A DUP5 PUSH1 0x0 MSTORE PUSH1 0x5 PUSH1 0x20 MSTORE PUSH1 0x40 PUSH1 0x0 KECCAK256 SWAP1 JUMP JUMPDEST ADD SLOAD PUSH1 0x40 DUP1 MLOAD SWAP3 DUP4 MSTORE PUSH1 0x20 DUP4 ADD SWAP2 SWAP1 SWAP2 MSTORE SWAP1 LOG2 JUMP JUMPDEST PUSH2 0x30D5 SWAP1 PUSH2 0x30D0 PUSH2 0x309D PUSH2 0x1406 PUSH2 0x3097 DUP10 MLOAD DUP6 PUSH2 0x2F19 JUMP JUMPDEST DUP10 PUSH2 0x1BBB JUMP JUMPDEST PUSH2 0x30B5 DUP2 PUSH2 0xEF3 DUP9 PUSH1 0x0 MSTORE PUSH1 0x6 PUSH1 0x20 MSTORE PUSH1 0x40 PUSH1 0x0 KECCAK256 SWAP1 JUMP JUMPDEST PUSH2 0x30BF DUP2 SLOAD PUSH2 0x1BA7 JUMP JUMPDEST SWAP1 SSTORE DUP6 PUSH2 0x30CA PUSH2 0x217E JUMP JUMPDEST SWAP2 PUSH2 0x249B JUMP JUMPDEST PUSH2 0x1BA7 JUMP JUMPDEST PUSH2 0x2FCA JUMP JUMPDEST PUSH2 0x30EE SWAP2 SWAP5 RETURNDATASIZE DUP1 SWAP2 DUP4 RETURNDATACOPY PUSH2 0x1462 DUP2 DUP4 PUSH2 0x76D JUMP JUMPDEST SWAP3 CODESIZE PUSH2 0x2FBA JUMP JUMPDEST POP SWAP1 POP JUMP JUMPDEST PUSH1 0x0 SWAP1 DUP2 MSTORE PUSH1 0x7 PUSH1 0x20 SWAP1 DUP2 MSTORE PUSH1 0x40 DUP1 DUP4 KECCAK256 PUSH1 0x1 PUSH1 0x1 PUSH1 0xA0 SHL SUB SWAP1 SWAP5 AND DUP4 MSTORE SWAP3 SWAP1 MSTORE KECCAK256 PUSH1 0x40 MLOAD SWAP1 PUSH1 0x40 DUP3 ADD SWAP2 DUP1 DUP4 LT PUSH1 0x1 PUSH1 0x1 PUSH1 0x40 SHL SUB DUP5 GT OR PUSH2 0x74D JUMPI PUSH1 0x20 SWAP3 PUSH1 0x40 MSTORE PUSH1 0xFF PUSH1 0x1 DUP4 SLOAD SWAP4 DUP5 DUP5 MSTORE ADD SLOAD AND ISZERO ISZERO SWAP3 DUP4 SWAP2 ADD MSTORE DUP2 PUSH2 0x315A JUMPI POP SWAP1 JUMP JUMPDEST SWAP1 POP TIMESTAMP LT SWAP1 JUMP JUMPDEST SWAP1 PUSH2 0x3174 PUSH1 0x20 SWAP3 DUP3 DUP2 MLOAD SWAP5 DUP6 SWAP3 ADD PUSH2 0x403 JUMP JUMPDEST ADD SWAP1 JUMP INVALID LOG2 PUSH5 0x6970667358 0x22 SLT KECCAK256 SWAP7 0xDF EXTCODESIZE 0xDE 0x2C DUP15 0xB4 DUP8 0xB6 0xF7 0xC5 EXP ADDMOD PUSH15 0xB13B2808F902614F9B5D6AD6651DC9 0xBD CALLVALUE 0xCA PUSH5 0x736F6C6343 STOP ADDMOD EQ STOP CALLER "},"methodIdentifiers":{"BASE_PRICE()":"f86325ed","CREATOR_PERCENTAGE()":"ca9f19ef","ENCRYPTED_ARTICLES()":"98e9d0e0","GAS_REIMBURSEMENT()":"cb8b2522","MAX_PRICE()":"01c11d96","PLATFORM_PERCENTAGE()":"09886c9c","REGENERATION_THRESHOLD()":"e3685397","SELLER_PERCENTAGE()":"72009528","TREASURY()":"2d2c5565","accessInfo(uint256,address)":"ab0b8b04","balanceOf(address,uint256)":"00fdd58e","balanceOfBatch(address[],uint256[])":"4e1273f4","burnLicenseForAccess(uint256)":"f24c4eac","buyLicense(uint256,address)":"996cb745","dailyPurchases(uint256,uint256)":"c98d6e99","emergencyWithdrawGasPool()":"0813d3f6","gasPool()":"fa08b038","getArticleSummary(uint256)":"607ea36d","getCurrentPrice(uint256)":"c55d0f56","getEncryptedContent(uint256)":"8d40e0cd","getLicenseHolders(uint256)":"b3c655c0","getPurchaseHistory(uint256)":"f4bf28a0","hasActiveAccess(uint256,address)":"f499924b","isApprovedForAll(address,address)":"e985e9c5","licenseBalances(uint256,address)":"1453a424","licenseInfo(uint256)":"1e084558","mintLicensesToHolder(uint256,address,uint256,uint256)":"df81a823","owner()":"8da5cb5b","purchaseHistory(uint256,uint256)":"95f58ab8","regenerateLicenses(uint256)":"75315716","renounceOwnership()":"715018a6","safeBatchTransferFrom(address,address,uint256[],uint256[],bytes)":"2eb2c2d6","safeTransferFrom(address,address,uint256,uint256,bytes)":"f242432a","setApprovalForAll(address,bool)":"a22cb465","shouldRegenerate(uint256)":"43c7580e","supportsInterface(bytes4)":"01ffc9a7","totalLicensesEverGenerated(uint256)":"bca59003","transferOwnership(address)":"f2fde38b","uri(uint256)":"0e89341c"}}}}}