{"contracts/content/EncryptedArticles.sol":{"EncryptedArticles":{"abi":[{"inputs":[{"internalType":"address","name":"_publisherCredentials","type":"address"},{"internalType":"address","name":"_membershipTokens","type":"address"}],"stateMutability":"nonpayable","type":"constructor"},{"inputs":[{"internalType":"uint256","name":"numerator","type":"uint256"},{"internalType":"uint256","name":"denominator","type":"uint256"}],"name":"ERC2981InvalidDefaultRoyalty","type":"error"},{"inputs":[{"internalType":"address","name":"receiver","type":"address"}],"name":"ERC2981InvalidDefaultRoyaltyReceiver","type":"error"},{"inputs":[{"internalType":"uint256","name":"tokenId","type":"uint256"},{"internalType":"uint256","name":"numerator","type":"uint256"},{"internalType":"uint256","name":"denominator","type":"uint256"}],"name":"ERC2981InvalidTokenRoyalty","type":"error"},{"inputs":[{"internalType":"uint256","name":"tokenId","type":"uint256"},{"internalType":"address","name":"receiver","type":"address"}],"name":"ERC2981InvalidTokenRoyaltyReceiver","type":"error"},{"inputs":[{"internalType":"address","name":"sender","type":"address"},{"internalType":"uint256","name":"tokenId","type":"uint256"},{"internalType":"address","name":"owner","type":"address"}],"name":"ERC721IncorrectOwner","type":"error"},{"inputs":[{"internalType":"address","name":"operator","type":"address"},{"internalType":"uint256","name":"tokenId","type":"uint256"}],"name":"ERC721InsufficientApproval","type":"error"},{"inputs":[{"internalType":"address","name":"approver","type":"address"}],"name":"ERC721InvalidApprover","type":"error"},{"inputs":[{"internalType":"address","name":"operator","type":"address"}],"name":"ERC721InvalidOperator","type":"error"},{"inputs":[{"internalType":"address","name":"owner","type":"address"}],"name":"ERC721InvalidOwner","type":"error"},{"inputs":[{"internalType":"address","name":"receiver","type":"address"}],"name":"ERC721InvalidReceiver","type":"error"},{"inputs":[{"internalType":"address","name":"sender","type":"address"}],"name":"ERC721InvalidSender","type":"error"},{"inputs":[{"internalType":"uint256","name":"tokenId","type":"uint256"}],"name":"ERC721NonexistentToken","type":"error"},{"inputs":[{"internalType":"address","name":"owner","type":"address"}],"name":"OwnableInvalidOwner","type":"error"},{"inputs":[{"internalType":"address","name":"account","type":"address"}],"name":"OwnableUnauthorizedAccount","type":"error"},{"anonymous":false,"inputs":[{"indexed":true,"internalType":"address","name":"owner","type":"address"},{"indexed":true,"internalType":"address","name":"approved","type":"address"},{"indexed":true,"internalType":"uint256","name":"tokenId","type":"uint256"}],"name":"Approval","type":"event"},{"anonymous":false,"inputs":[{"indexed":true,"internalType":"address","name":"owner","type":"address"},{"indexed":true,"internalType":"address","name":"operator","type":"address"},{"indexed":false,"internalType":"bool","name":"approved","type":"bool"}],"name":"ApprovalForAll","type":"event"},{"anonymous":false,"inputs":[{"indexed":true,"internalType":"uint256","name":"articleId","type":"uint256"},{"indexed":true,"internalType":"address","name":"author","type":"address"},{"indexed":false,"internalType":"string","name":"title","type":"string"},{"indexed":false,"internalType":"string","name":"location","type":"string"},{"indexed":false,"internalType":"uint256","name":"nftCount","type":"uint256"},{"indexed":false,"internalType":"uint256","name":"nftPrice","type":"uint256"}],"name":"ArticlePublished","type":"event"},{"anonymous":false,"inputs":[{"indexed":false,"internalType":"uint256","name":"_fromTokenId","type":"uint256"},{"indexed":false,"internalType":"uint256","name":"_toTokenId","type":"uint256"}],"name":"BatchMetadataUpdate","type":"event"},{"anonymous":false,"inputs":[{"indexed":false,"internalType":"uint256","name":"_tokenId","type":"uint256"}],"name":"MetadataUpdate","type":"event"},{"anonymous":false,"inputs":[{"indexed":true,"internalType":"uint256","name":"tokenId","type":"uint256"},{"indexed":true,"internalType":"uint256","name":"articleId","type":"uint256"},{"indexed":true,"internalType":"address","name":"buyer","type":"address"},{"indexed":false,"internalType":"uint256","name":"editionNumber","type":"uint256"},{"indexed":false,"internalType":"uint256","name":"price","type":"uint256"},{"indexed":false,"internalType":"uint256","name":"licensesGenerated","type":"uint256"}],"name":"NFTMinted","type":"event"},{"anonymous":false,"inputs":[{"indexed":true,"internalType":"address","name":"previousOwner","type":"address"},{"indexed":true,"internalType":"address","name":"newOwner","type":"address"}],"name":"OwnershipTransferred","type":"event"},{"anonymous":false,"inputs":[{"indexed":true,"internalType":"address","name":"from","type":"address"},{"indexed":true,"internalType":"address","name":"to","type":"address"},{"indexed":true,"internalType":"uint256","name":"tokenId","type":"uint256"}],"name":"Transfer","type":"event"},{"inputs":[],"name":"BUYER_FEE","outputs":[{"internalType":"uint256","name":"","type":"uint256"}],"stateMutability":"view","type":"function"},{"inputs":[],"name":"DAILY_NATIVE_LIMIT","outputs":[{"internalType":"uint256","name":"","type":"uint256"}],"stateMutability":"view","type":"function"},{"inputs":[],"name":"MAX_CONTENT_LENGTH","outputs":[{"internalType":"uint256","name":"","type":"uint256"}],"stateMutability":"view","type":"function"},{"inputs":[],"name":"MAX_SUMMARY_LENGTH","outputs":[{"internalType":"uint256","name":"","type":"uint256"}],"stateMutability":"view","type":"function"},{"inputs":[],"name":"MAX_TAGS","outputs":[{"internalType":"uint256","name":"","type":"uint256"}],"stateMutability":"view","type":"function"},{"inputs":[],"name":"MAX_TAG_LENGTH","outputs":[{"internalType":"uint256","name":"","type":"uint256"}],"stateMutability":"view","type":"function"},{"inputs":[],"name":"MAX_TITLE_LENGTH","outputs":[{"internalType":"uint256","name":"","type":"uint256"}],"stateMutability":"view","type":"function"},{"inputs":[],"name":"MEMBERSHIP_TOKENS","outputs":[{"internalType":"contract IMembershipTokens","name":"","type":"address"}],"stateMutability":"view","type":"function"},{"inputs":[],"name":"PLATFORM_TAKE_RATE","outputs":[{"internalType":"uint256","name":"","type":"uint256"}],"stateMutability":"view","type":"function"},{"inputs":[],"name":"PUBLISHER_CREDENTIALS","outputs":[{"internalType":"contract IPublisherCredentials","name":"","type":"address"}],"stateMutability":"view","type":"function"},{"inputs":[],"name":"PUBLISHING_FEE","outputs":[{"internalType":"uint256","name":"","type":"uint256"}],"stateMutability":"view","type":"function"},{"inputs":[],"name":"READER_LICENSE_AMM","outputs":[{"internalType":"contract IReaderLicenseAMM","name":"","type":"address"}],"stateMutability":"view","type":"function"},{"inputs":[],"name":"TREASURY","outputs":[{"internalType":"address","name":"","type":"address"}],"stateMutability":"view","type":"function"},{"inputs":[{"internalType":"address","name":"to","type":"address"},{"internalType":"uint256","name":"tokenId","type":"uint256"}],"name":"approve","outputs":[],"stateMutability":"nonpayable","type":"function"},{"inputs":[{"internalType":"uint256","name":"","type":"uint256"},{"internalType":"uint256","name":"","type":"uint256"}],"name":"articleNFTHolders","outputs":[{"internalType":"address","name":"","type":"address"}],"stateMutability":"view","type":"function"},{"inputs":[{"internalType":"uint256","name":"","type":"uint256"}],"name":"articles","outputs":[{"internalType":"uint256","name":"id","type":"uint256"},{"internalType":"string","name":"title","type":"string"},{"internalType":"string","name":"encryptedContent","type":"string"},{"internalType":"string","name":"summary","type":"string"},{"internalType":"address","name":"author","type":"address"},{"internalType":"string","name":"location","type":"string"},{"internalType":"string","name":"category","type":"string"},{"internalType":"uint256","name":"publishedAt","type":"uint256"},{"internalType":"uint256","name":"nftCount","type":"uint256"},{"internalType":"uint256","name":"nftPrice","type":"uint256"},{"internalType":"uint256","name":"journalistRetained","type":"uint256"},{"internalType":"uint256","name":"readerLicenseRatio","type":"uint256"},{"internalType":"enum EncryptedArticles.CreationSource","name":"creationSource","type":"uint8"},{"internalType":"uint256","name":"proposalId","type":"uint256"}],"stateMutability":"view","type":"function"},{"inputs":[{"internalType":"uint256","name":"","type":"uint256"},{"internalType":"uint256","name":"","type":"uint256"}],"name":"availableEditions","outputs":[{"internalType":"uint256","name":"","type":"uint256"}],"stateMutability":"view","type":"function"},{"inputs":[{"internalType":"address","name":"owner","type":"address"}],"name":"balanceOf","outputs":[{"internalType":"uint256","name":"","type":"uint256"}],"stateMutability":"view","type":"function"},{"inputs":[{"internalType":"address","name":"","type":"address"},{"internalType":"uint256","name":"","type":"uint256"}],"name":"dailyPublishCount","outputs":[{"internalType":"uint256","name":"","type":"uint256"}],"stateMutability":"view","type":"function"},{"inputs":[{"internalType":"uint256","name":"","type":"uint256"}],"name":"editionsSold","outputs":[{"internalType":"uint256","name":"","type":"uint256"}],"stateMutability":"view","type":"function"},{"inputs":[{"internalType":"uint256","name":"tokenId","type":"uint256"}],"name":"generateSVG","outputs":[{"internalType":"string","name":"","type":"string"}],"stateMutability":"view","type":"function"},{"inputs":[{"internalType":"uint256","name":"tokenId","type":"uint256"}],"name":"getApproved","outputs":[{"internalType":"address","name":"","type":"address"}],"stateMutability":"view","type":"function"},{"inputs":[{"internalType":"address","name":"_author","type":"address"}],"name":"getArticlesByAuthor","outputs":[{"internalType":"uint256[]","name":"","type":"uint256[]"}],"stateMutability":"view","type":"function"},{"inputs":[{"internalType":"uint256","name":"_articleId","type":"uint256"}],"name":"getAvailableEditions","outputs":[{"internalType":"uint256[]","name":"","type":"uint256[]"}],"stateMutability":"view","type":"function"},{"inputs":[{"internalType":"uint256","name":"tokenId","type":"uint256"}],"name":"getEditionNumber","outputs":[{"internalType":"uint256","name":"","type":"uint256"}],"stateMutability":"view","type":"function"},{"inputs":[{"internalType":"uint256","name":"_articleId","type":"uint256"}],"name":"getNFTHolders","outputs":[{"internalType":"address[]","name":"","type":"address[]"}],"stateMutability":"view","type":"function"},{"inputs":[],"name":"getTotalArticles","outputs":[{"internalType":"uint256","name":"","type":"uint256"}],"stateMutability":"view","type":"function"},{"inputs":[{"internalType":"uint256","name":"","type":"uint256"},{"internalType":"address","name":"","type":"address"}],"name":"holderNFTCount","outputs":[{"internalType":"uint256","name":"","type":"uint256"}],"stateMutability":"view","type":"function"},{"inputs":[{"internalType":"address","name":"owner","type":"address"},{"internalType":"address","name":"operator","type":"address"}],"name":"isApprovedForAll","outputs":[{"internalType":"bool","name":"","type":"bool"}],"stateMutability":"view","type":"function"},{"inputs":[{"internalType":"uint256","name":"_articleId","type":"uint256"}],"name":"mintNFTEdition","outputs":[],"stateMutability":"payable","type":"function"},{"inputs":[],"name":"name","outputs":[{"internalType":"string","name":"","type":"string"}],"stateMutability":"view","type":"function"},{"inputs":[],"name":"owner","outputs":[{"internalType":"address","name":"","type":"address"}],"stateMutability":"view","type":"function"},{"inputs":[{"internalType":"uint256","name":"tokenId","type":"uint256"}],"name":"ownerOf","outputs":[{"internalType":"address","name":"","type":"address"}],"stateMutability":"view","type":"function"},{"inputs":[{"internalType":"string","name":"_title","type":"string"},{"internalType":"string","name":"_encryptedContent","type":"string"},{"internalType":"string","name":"_summary","type":"string"},{"internalType":"string","name":"_location","type":"string"},{"internalType":"string","name":"_category","type":"string"},{"internalType":"string[]","name":"_tags","type":"string[]"},{"internalType":"uint256","name":"_nftCount","type":"uint256"},{"internalType":"uint256","name":"_nftPrice","type":"uint256"},{"internalType":"uint256","name":"_journalistRetained","type":"uint256"},{"internalType":"uint256","name":"_readerLicenseRatio","type":"uint256"}],"name":"publishArticle","outputs":[],"stateMutability":"payable","type":"function"},{"inputs":[],"name":"renounceOwnership","outputs":[],"stateMutability":"nonpayable","type":"function"},{"inputs":[{"internalType":"uint256","name":"tokenId","type":"uint256"},{"internalType":"uint256","name":"salePrice","type":"uint256"}],"name":"royaltyInfo","outputs":[{"internalType":"address","name":"","type":"address"},{"internalType":"uint256","name":"","type":"uint256"}],"stateMutability":"view","type":"function"},{"inputs":[{"internalType":"address","name":"from","type":"address"},{"internalType":"address","name":"to","type":"address"},{"internalType":"uint256","name":"tokenId","type":"uint256"}],"name":"safeTransferFrom","outputs":[],"stateMutability":"nonpayable","type":"function"},{"inputs":[{"internalType":"address","name":"from","type":"address"},{"internalType":"address","name":"to","type":"address"},{"internalType":"uint256","name":"tokenId","type":"uint256"},{"internalType":"bytes","name":"data","type":"bytes"}],"name":"safeTransferFrom","outputs":[],"stateMutability":"nonpayable","type":"function"},{"inputs":[{"internalType":"address","name":"operator","type":"address"},{"internalType":"bool","name":"approved","type":"bool"}],"name":"setApprovalForAll","outputs":[],"stateMutability":"nonpayable","type":"function"},{"inputs":[{"internalType":"address","name":"_ammAddress","type":"address"}],"name":"setReaderLicenseAMM","outputs":[],"stateMutability":"nonpayable","type":"function"},{"inputs":[{"internalType":"bytes4","name":"interfaceId","type":"bytes4"}],"name":"supportsInterface","outputs":[{"internalType":"bool","name":"","type":"bool"}],"stateMutability":"view","type":"function"},{"inputs":[],"name":"symbol","outputs":[{"internalType":"string","name":"","type":"string"}],"stateMutability":"view","type":"function"},{"inputs":[{"internalType":"uint256","name":"","type":"uint256"}],"name":"tokenToArticle","outputs":[{"internalType":"uint256","name":"","type":"uint256"}],"stateMutability":"view","type":"function"},{"inputs":[{"internalType":"uint256","name":"","type":"uint256"}],"name":"tokenToEdition","outputs":[{"internalType":"uint256","name":"","type":"uint256"}],"stateMutability":"view","type":"function"},{"inputs":[{"internalType":"uint256","name":"tokenId","type":"uint256"}],"name":"tokenURI","outputs":[{"internalType":"string","name":"","type":"string"}],"stateMutability":"view","type":"function"},{"inputs":[{"internalType":"address","name":"from","type":"address"},{"internalType":"address","name":"to","type":"address"},{"internalType":"uint256","name":"tokenId","type":"uint256"}],"name":"transferFrom","outputs":[],"stateMutability":"nonpayable","type":"function"},{"inputs":[{"internalType":"address","name":"newOwner","type":"address"}],"name":"transferOwnership","outputs":[],"stateMutability":"nonpayable","type":"function"}],"evm":{"bytecode":{"linkReferences":{},"object":"60c0346200043857601f199062004c6b906001600160401b03601f388490038181018616840190838211858310176200043d57808591604097889485528339810103126200043857620000528362000473565b9062000062602080950162000473565b906200006d62000453565b968588527f496d6d757461626c655479706520456e637279707465642041727469636c657386890152620000a062000453565b91600498898452634954454160e01b8885015280518781116200034d57600254916001928381811c911680156200042d575b8b8210146200032d57908185849311620003d6575b508a908583116001146200036e5760009262000362575b5050600019600383901b1c191690821b176002555b8351918783116200034d5760039485548381811c9116801562000342575b8b8210146200032d57828111620002e2575b50899184116001146200027d578394509083929160009462000271575b50501b9160001990841b1c19161790555b33156200025a5760098054336001600160a01b0319821681179092556001600160a01b03938492909183167f8be0079c531659141344cd1fd0a4f28419497f9722a3daafe3b4186f6b6457e0600080a3166080521660a05230156200024357825190818401908111828210176200022e57836101ea94955052308152015260f560a11b3017600055516147e290816200048982396080518181816105160152611f5e015260a051818181610d39015281816116360152611fb60152f35b604185634e487b7160e01b6000525260246000fd5b8251635b6cc80560e11b8152600081860152602490fd5b8451631e4fbdf760e01b8152600081880152602490fd5b01519250388062000160565b919383169185600052838a6000209360005b8c88838310620002ca5750505010620002b1575b505050811b01905562000171565b015160001983861b60f8161c19169055388080620002a3565b8686015188559096019594850194879350016200028f565b866000528a6000208380870160051c8201928d881062000323575b0160051c019084905b8281106200031657505062000143565b6000815501849062000306565b92508192620002fd565b60228d634e487b7160e01b6000525260246000fd5b90607f169062000131565b60418b634e487b7160e01b6000525260246000fd5b015190503880620000fe565b90868594169160026000528c600020928d6000905b828210620003be5750508411620003a4575b505050811b0160025562000113565b015160001960f88460031b161c1916905538808062000395565b83850151865588979095019493840193018e62000383565b90915060026000528a6000208580850160051c8201928d861062000423575b918691869594930160051c01915b82811062000413575050620000e7565b6000815585945086910162000403565b92508192620003f5565b90607f1690620000d2565b600080fd5b634e487b7160e01b600052604160045260246000fd5b60408051919082016001600160401b038111838210176200043d57604052565b51906001600160a01b0382168203620004385756fe608080604052600436101561001357600080fd5b600090813560e01c90816301ffc9a71461322b5750806302c839021461320f57806305b746b5146131f257806306fdde031461314c578063081812fc1461310f578063095ea7b31461302c5780630ebf1d3d1461300e57806311d0d53814612fce5780631521ba3f14612eca578063160953c314611e3257806323b872dd14611e1a57806324aa774a146119935780632683494d14611dcf5780632a55205a14611bfb5780632d2c556514611bcc5780632ef9a16014611bb05780633bc3a45414611b9457806342842e0e14611b6c5780634baf079c14611b29578063544b5e6114611b0c578063602787ed14611ae25780636352211e14611ab15780636dcee4ca14611a915780636ef8712114611a4d57806370a08231146119f5578063715018a6146119985780638368a0c2146119935780638ba1393d146119695780638da5cb5b1461194057806395d89b411461186f578063968b5635146117fe57806398c6e821146117be5780639fb53fcb14611708578063a22cb46514611665578063a7d0f2fb14611620578063b27dde6a146115f6578063b88d4fde1461158f578063bdeb0fb114610cc5578063c87b56dd14610545578063cb541ef214610500578063cce67226146104e4578063e91dab621461049d578063e985e9c514610449578063edcfafe6146102f8578063ef6fe9b7146102cf578063f2fde38b146102445763f50496f41461022657600080fd5b34610241578060031936011261024157602060405160328152f35b80fd5b50346102415760203660031901126102415761025e613314565b610266613627565b6001600160a01b039081169081156102b657600954826001600160601b0360a01b821617600955167f8be0079c531659141344cd1fd0a4f28419497f9722a3daafe3b4186f6b6457e0600080a380f35b604051631e4fbdf760e01b815260048101849052602490fd5b5034610241578060031936011261024157600a546040516001600160a01b039091168152602090f35b5034610241576020366003190112610241576004358152600d6020526040812080549061032760018201613581565b61033360028301613581565b9161034060038201613581565b60048201546001600160a01b0316939061035c60058401613581565b9461036960068501613581565b95600885015496600986015491600a87015493600b88015495600c89015497600d8a015460ff1699600e01549a6040519d8e528d6101c090816020820152016103b1916132ef565b8d810360408f01526103c2916132ef565b8c810360608e01526103d3916132ef565b9060808c01528a810360a08c01526103ea916132ef565b89810360c08b01526103fb916132ef565b9660e08901526101008801526101208701526101408601526101608501526002811015610435578394506101808401526101a08301520390f35b634e487b7160e01b85526021600452602485fd5b503461024157604036600319011261024157610463613314565b604061046d61332f565b9260018060a01b0380931681526007602052209116600052602052602060ff604060002054166040519015158152f35b5034610241576020366003190112610241576040602091600435808252600484526104d460018060a01b0384842054161515613a5c565b8152600f83522054604051908152f35b50346102415780600319360112610241576020604051600a8152f35b50346102415780600319360112610241576040517f00000000000000000000000000000000000000000000000000000000000000006001600160a01b03168152602090f35b5034610241576020366003190112610241576004803582526020526040812054610579906001600160a01b03161515613a5c565b6004358152600e602052604081205490600f6020526040812054918152600d60205260408120604051906105ac826133c4565b805482526105bc60018201613581565b60208301526105cd60028201613581565b60408301526105de60038201613581565b606083015260048101546001600160a01b0316608083015261060260058201613581565b60a083015261061360068201613581565b60c0830152600781018054610627816134d8565b916106356040519384613447565b81835285526020808620869184015b838310610ca8575050505090600e9160e084015260088101546101008401526009810154610120840152600a810154610140840152600b810154610160840152600c8101546101808401526106a460ff600d830154166101a08501613a16565b01546101c08201526020810151926106bb8161448d565b9260608301516106dd6106cf600435613a9f565b6106d76145d0565b9061462f565b9160a08501519060c08601519460018060a01b036080880151169160405161070481613411565b601081526f181899199a1a9b1b9c1cb0b131b232b360811b60208201526040519361072e8561342c565b602a85526040366020870137845115610c945760306020860153845160011015610c945760786021860153825b60148110610ba157505050610b9d610b366107e76106cf6101b98e8e8e8e8e8e8e8e6107868f61448d565b9161079561012088015161448d565b946107b26101806107aa6101008b015161448d565b99015161448d565b98602a6040519e8f809d607b60f81b602083015268113730b6b2911d101160b91b6021830152602081519485930191016132cc565b8b016b202d2045646974696f6e202360a01b602a8201526108128251809360206036850191016132cc565b019461088b60f21b958660368201526f113232b9b1b934b83a34b7b7111d101160811b603882015261084e8251809360206048850191016132cc565b018560488201527f22696d616765223a2022646174613a696d6167652f7376672b786d6c3b626173604a82015263194d8d0b60e21b606a82015261089c825180936020606e850191016132cc565b0193606e8501526e2261747472696275746573223a205b60881b60708501527f7b2274726169745f74797065223a20224c6f636174696f6e222c202276616c75607f8501526432911d101160d91b9384609f82015261090582518093602060a4850191016132cc565b019462089f4b60ea1b9586948560a48301527f7b2274726169745f74797065223a202243617465676f7279222c202276616c7560a783015260c782015261095682518093602060cc850191016132cc565b018360cc8201527f7b2274726169745f74797065223a2022417574686f72222c202276616c75652260cf820152621d101160e91b60ef8201526109a382518093602060f2850191016132cc565b01908260f28301527f7b2274726169745f74797065223a202245646974696f6e204e756d626572222c60f58301526a10113b30b63ab2911d101160a91b91826101158201526109fd825180936020610120850191016132cc565b0190826101208301527f7b2274726169745f74797065223a2022546f74616c2045646974696f6e73222c610123830152610143820152825190610a4a8261014e95602087850191016132cc565b01918201527f7b2274726169745f74797065223a20225075626c69636174696f6e20446174656101518201526c111610113b30b63ab2911d101160991b610171820152825190610aa48261017e95602087850191016132cc565b01918201527f7b2274726169745f74797065223a2022526561646572204c6963656e73657320610181820152732832b91027232a111610113b30b63ab2911d101160611b6101a1820152815190610b05826101b594602086850191016132cc565b019061227d60f01b90820152605d60f81b6101b7820152607d60f81b6101b882015203610199810184520182613447565b610b89603d60405180937f646174613a6170706c69636174696f6e2f6a736f6e3b6261736536342c0000006020830152610b7981518092602086860191016132cc565b810103601d810184520182613447565b6040519182916020835260208301906132ef565b0390f35b600c81018111610c80576020600c82011015610c6c576001600160f81b0319610bd6600c830184901a60041c600f1685614727565b5116818060011b0460021482151715610c58578160011b600201600211610c5857841a610c098260011b60020188614727565b536001600160f81b0319610c26600c830184901a600f1685614727565b51168160011b600301600311610c585790610c5391851a610c4d8260011b60030189614727565b536139dd565b61075b565b634e487b7160e01b85526011600452602485fd5b634e487b7160e01b84526032600452602484fd5b634e487b7160e01b84526011600452602484fd5b634e487b7160e01b83526032600452602483fd5b600160208192610cb785613581565b815201920192019190610644565b506020366003190112610241576004358152600d60205260408120805415611551576004358252601260205260408220338352602052604082205461150257600435825260136020526040822054156114af57610d2460058201613581565b6040516370a0823160e01b81523360048201527f00000000000000000000000000000000000000000000000000000000000000006001600160a01b031690602081602481855afa908115611219578591611479575b5015611434578360249160405192838092632e0fdc5760e01b82523360048301525afa908115611177578491611412575b50604051610dd560208281610dc881830196878151938492016132cc565b8101038084520182613447565b51902090604051610df660208281610dc881830196878151938492016132cc565b519020036113be57600a8101805491670de0b6b3a764000083018311610c8057670de0b6b3a7640000830134106113825760043584526014602052604084205460405160208101914283524460408301523360601b6060830152600435607483015260948201526094815260c081018181106001600160401b0382111761136e576040525190209160043585526013602052604085205492831561135a5760043586526013602052610ead8482066040882061335b565b90549060031b1c9360043587526013602052604087208054806000198101116113465791610ee7610f0392610f1c9594600019019061335b565b90549060031b1c926004358a526013602052066040892061335b565b90919082549060031b91821b91600019901b1916179055565b600435855260136020526040852080548015611332576000190190610f41828261335b565b8154906000199060031b1b1916905555610f5c600c546139dd565b9384600c55331561131957848652600460205260408620546001600160a01b0316801515908690826112e4575b33895260056020526040892060018154019055818952600460205260408920336001600160601b0360a01b82541617905533907fddf252ad1be2c89b69c2b068fc378daa952ba7f163c4a11628f55a4df523b3ef8a80a46112cb57848652600e6020526004356040872055600f6020528360408720556004358652601260205260408620338752602052604086205415611269575b60043586526012602052604086203387526020526040862061104081546139dd565b9055600435865260146020526040862061105a81546139dd565b9055815460be810281810460be1482151715611255578780806110836127108295048096613a4f565b60048901546001600160a01b031682821561124c575bf11561124157670de0b6b3a7640000810180911161122d578680808093818115611224575b739402f9f20b4a27b55b1cc6cf015d98f764814fb290f11561121957600a5486906001600160a01b03168061118b575b5090670de0b6b3a764000081013411611149575b5050600c9054910154906040519283526020830152604082015233917f8fc9383161350d0d960dd74934d021dba1d6aad105ce6a90f55c4b99d853ae4c606060043593a480f35b8180611160670de0b6b3a764000082940134613a4f565b818115611182575b3390f115611177578438611102565b6040513d86823e3d90fd5b506108fc611168565b600c85015490803b156112155760848392604051948593849263df81a82360e01b8452600435600485015233602485015260448401528a60648401525af1801561120a576111db575b86906110ee565b6001600160401b0381979297116111f65760405294386111d4565b634e487b7160e01b82526041600452602482fd5b6040513d89823e3d90fd5b8280fd5b6040513d87823e3d90fd5b506108fc6110be565b634e487b7160e01b87526011600452602487fd5b6040513d88823e3d90fd5b506108fc611099565b634e487b7160e01b88526011600452602488fd5b6004358652601160205260408620805490600160401b8210156112b757906112969160018201815561335b565b81546001600160a01b0360039290921b91821b19163390911b17905561101e565b634e487b7160e01b88526041600452602488fd5b6040516339e3563760e11b815260048101879052602490fd5b600082815260066020526040902080546001600160a01b03191690558089526005602052604089208054600019019055610f89565b604051633250574960e11b815260048101879052602490fd5b634e487b7160e01b87526031600452602487fd5b634e487b7160e01b89526011600452602489fd5b634e487b7160e01b86526012600452602486fd5b634e487b7160e01b87526041600452602487fd5b60405162461bcd60e51b8152602060048201526014602482015273125b9cdd59999a58da595b9d081c185e5b595b9d60621b6044820152606490fd5b60405162461bcd60e51b815260206004820152602660248201527f4d7573742068617665206c6f63616c20746f6b656e20746f207075726368617360448201526565204e46547360d01b6064820152608490fd5b61142e91503d8086833e6114268183613447565b81019061397f565b38610daa565b60405162461bcd60e51b815260206004820152601960248201527f4d656d6265727368697020746f6b656e207265717569726564000000000000006044820152606490fd5b90506020813d6020116114a7575b8161149460209383613447565b810103126114a3575138610d79565b8480fd5b3d9150611487565b60405162461bcd60e51b815260206004820152602560248201527f4e6f2065646974696f6e7320617661696c61626c6520666f72207075626c69636044820152642073616c6560d81b6064820152608490fd5b60405162461bcd60e51b815260206004820152602160248201527f416c7265616479206f776e73204e465420666f7220746869732061727469636c6044820152606560f81b6064820152608490fd5b60405162461bcd60e51b8152602060048201526016602482015275105c9d1a58db1948191bd95cc81b9bdd08195e1a5cdd60521b6044820152606490fd5b5034610241576080366003190112610241576115a9613314565b6115b161332f565b606435916001600160401b0383116115f257366023840112156115f2576115e56115ef933690602481600401359101613483565b91604435916137f5565b80f35b8380fd5b50346102415760203660031901126102415760406020916004358152600e83522054604051908152f35b50346102415780600319360112610241576040517f00000000000000000000000000000000000000000000000000000000000000006001600160a01b03168152602090f35b50346102415760403660031901126102415761167f613314565b60243590811515809203611215576001600160a01b03169081156116ef573383526007602052604083208284526020526040832060ff1981541660ff83161790556040519081527f17307eab39ab6107e8899845ad3d59bd9653f200f220920489ca2b5937696c3160203392a380f35b604051630b61174360e31b815260048101839052602490fd5b5034610241576020806003193601126117ba576004358252601181526040822060405192838383549182815201908193835284832090835b81811061179d5750505084611756910385613447565b60405193838594850191818652518092526040850193925b82811061177d57505050500390f35b83516001600160a01b03168552869550938101939281019260010161176e565b82546001600160a01b031684529286019260019283019201611740565b5080fd5b5034610241576020366003190112610241576117d8613314565b6117e0613627565b60018060a01b03166001600160601b0360a01b600a541617600a5580f35b5034610241576020806003193601126117ba5760043582526013815260408220916040518092808554928381520194835280832092905b82821061185857610b9d8561184c81890382613447565b60405191829182613389565b835486529485019460019384019390910190611835565b5034610241578060031936011261024157604051908060035461189181613547565b8085529160019180831690811561191657506001146118bb575b610b9d85610b8981870382613447565b9250600383527fc2575a0e9e593c00f959f8c92f12db2869c3395a3b0502d05e2516446f71f85b5b8284106118fe575050508101602001610b8982610b9d6118ab565b805460208587018101919091529093019281016118e3565b869550610b9d96935060209250610b8994915060ff191682840152151560051b82010192936118ab565b50346102415780600319360112610241576009546040516001600160a01b039091168152602090f35b50346102415760203660031901126102415760406020916004358152601483522054604051908152f35b613524565b50346102415780600319360112610241576119b1613627565b600980546001600160a01b0319811690915581906001600160a01b03167f8be0079c531659141344cd1fd0a4f28419497f9722a3daafe3b4186f6b6457e08280a380f35b5034610241576020366003190112610241576001600160a01b03611a17613314565b168015611a34578160409160209352600583522054604051908152f35b6040516322718ad960e21b815260048101839052602490fd5b5034610241576040366003190112610241576040602091611a6c61332f565b6004358252601284528282206001600160a01b03909116825283522054604051908152f35b503461024157602036600319011261024157610b9d610b89600435613a9f565b5034610241576020366003190112610241576020611ad0600435613944565b6040516001600160a01b039091168152f35b50346102415760203660031901126102415760406020916004358152600f83522054604051908152f35b503461024157806003193601126102415760206040516101f48152f35b5034610241576040366003190112610241576020906040906001600160a01b03611b51613314565b16815260108352818120602435825283522054604051908152f35b5034610241576115ef611b7e366134ef565b9060405192611b8c846133f6565b8584526137f5565b5034610241578060031936011261024157602060405160038152f35b5034610241578060031936011261024157602060405160c88152f35b50346102415780600319360112610241576020604051739402f9f20b4a27b55b1cc6cf015d98f764814fb28152f35b503461024157611c0a36613345565b91908152602091600e835260408220548252600d83526040822090604051611c31816133c4565b82548152600192611c43848201613581565b86830152611c5360028201613581565b6040830152611c6460038201613581565b606083015260048101546001600160a01b039081166080840190815290969094611c9060058401613581565b60a0850152611ca160068401613581565b60c085015260078301805490611cb6826134d8565b93611cc46040519586613447565b828552808501918a52808a208a925b848410611db4575050505050506101c091600e9160e085015260088101546101008501526009810154610120850152600a810154610140850152600b810154610160850152600c810154610180850152611d3860ff600d830154166101a08601613a16565b01549101526101ea90818102918183041490151715611da057612710900491606283029280840460621490151715611d8c57505160408051939091166001600160a01b031683526064909104602083015290f35b634e487b7160e01b81526011600452602490fd5b634e487b7160e01b83526011600452602483fd5b85838192611dc185613581565b815201920193019290611cd3565b503461024157611dde36613345565b91908152601160205260408120908154831015610241576020611e01848461335b565b905460405160039290921b1c6001600160a01b03168152f35b5034610241576115ef611e2c366134ef565b91613653565b50610140366003190112610241576004356001600160401b0381116117ba57611e5f9036906004016134ba565b906024356001600160401b0381116117ba57611e7f9036906004016134ba565b906044356001600160401b0381116117ba57611e9f9036906004016134ba565b926064356001600160401b03811161121557611ebf9036906004016134ba565b936084356001600160401b0381116115f257611edf9036906004016134ba565b9460a435946001600160401b0386116114a357366023870112156114a357856004013595611f0c876134d8565b96611f1a6040519889613447565b80885260051b810160240160208801368211612ec65760248301905b828210612e935750506040516370a0823160e01b8152336004820152915060209050816024817f00000000000000000000000000000000000000000000000000000000000000006001600160a01b03165afa908115611241578691612e5d575b5015612e1857604051632e0fdc5760e01b815233600482015285816024817f00000000000000000000000000000000000000000000000000000000000000006001600160a01b03165afa908115611241578691612dfe575b5060405161200c60208281610dc881830196878151938492016132cc565b519020604051602081019061202c6020828751610dc88187858c016132cc565b51902003612da8573385526010602052604085206201518042048652602052600360408620541015612d5757670de0b6b3a76400003410612d125783518015159081612d06575b5015612cca5780518015159081612cbd575b5015612c7f5782518015159081612c72575b5015612c345760c435151580612c26575b15612bed5760e43515612bb45760c4356101043511612b645761012435151580612b56575b15612b1957600a865111612ae457845b865181101561213b5760326120f28289613a02565b51511161210757612102906139dd565b6120dd565b60405162461bcd60e51b815260206004820152600c60248201526b54616720746f6f206c6f6e6760a01b6044820152606490fd5b508587612149600b546139dd565b9485600b556040519361215b856133c4565b868552876020860152604085015260608401523360808401528360a084015260c083015260e08201524261010082015260c43561012082015260e4356101408201526101043561016082015261012435610180820152846101a0820152846101c0820152828552600d60205260408520908051825560208101518051906001600160401b0382116112b75781906121f56001860154613547565b601f8111612ab1575b50602090601f8311600114612a42578992612a37575b50508160011b916000199060031b1c19161760018301555b60408101518051906001600160401b0382116112b75781906122516002860154613547565b601f8111612a04575b50602090601f831160011461299557899261298a575b50508160011b916000199060031b1c19161760028301555b60608101518051906001600160401b0382116112b75781906122ad6003860154613547565b601f8111612957575b50602090601f83116001146128e85789926128dd575b50508160011b916000199060031b1c19161760038301555b6004820160018060a01b036080830151166001600160601b0360a01b82541617905560a08101518051906001600160401b0382116112b757819061232b6005860154613547565b601f81116128aa575b50602090601f831160011461283b578992612830575b50508160011b916000199060031b1c19161760058301555b60c08101518051906001600160401b0382116112b75781906123876006860154613547565b601f81116127fd575b50602090601f831160011461278e578992612783575b50508160011b916000199060031b1c19161760068301555b60e0810151805190600160401b82116112b757600784015482600786015580831061270f575b506020016007840188526020882088915b8383106125df575050505061010081015160088301556101208101516009830155610140810151600a830155610160810151600b830155610180810151600c830155600d82016101a082015160028110156125cb57916101c091600e9360ff8019835416911617905501519101556124726101043560c435613a4f565b5060016101043501806101043511610c58575b60c43581111561258e57503384526010602052604084206201518042048552602052604084206124b581546139dd565b905583808080670de0b6b3a7640000739402f9f20b4a27b55b1cc6cf015d98f764814fb282f11561257a57670de0b6b3a76400003411612552575b6125387f9a83921aa1958993687dbb52ee90c6d28584e48a022470265aa4d743a24c9ba79161252a604051956080875260808701906132ef565b9085820360208701526132ef565b9260c435604082015260e43560608201528033940390a380f35b670de0b6b3a763ffff193401348111610c58578480808093818115612585575b3390f16124f0575b6040513d85823e3d90fd5b506108fc612572565b828552601360205260408520805490600160401b82101561136e5782610f03836125c19360016125c6979601815561335b565b6139dd565b612485565b634e487b7160e01b88526021600452602488fd5b80518051906001600160401b0382116126fb578b6125fd8554613547565b601f81116126c0575b50506020908c601f841160011461265357928060209360019693879692612648575b5050600019600383901b1c191690841b1785555b019201920191906123f5565b015190508f80612628565b85905260208d2091908d5b601f19851681106126a8575083602093600196938796938794601f1981161061268f575b505050811b01855561263c565b015160001960f88460031b161c191690558f8080612682565b9192602060018192868501518155019401920161265e565b602082876126ea945220601f850160051c810191602086106126f1575b601f0160051c0190613a38565b8b8d612606565b90915081906126dd565b634e487b7160e01b8c52604160045260248cfd5b60078501895260208920908382015b818301811061272e5750506123e4565b808b61273c60019354613547565b8061274a575b50500161271e565b601f8111841461275f575081555b8b8d612742565b82825261277a601f60208420920160051c8201858301613a38565b81835555612758565b0151905088806123a6565b9250600685018952602089209089935b601f19841685106127e2576001945083601f198116106127c9575b505050811b0160068301556123be565b015160001960f88460031b161c191690558880806127b9565b8181015183556020948501946001909301929091019061279e565b61282a90600687018b5260208b20601f850160051c810191602086106126f157601f0160051c0190613a38565b89612390565b01519050888061234a565b9250600585018952602089209089935b601f198416851061288f576001945083601f19811610612876575b505050811b016005830155612362565b015160001960f88460031b161c19169055888080612866565b8181015183556020948501946001909301929091019061284b565b6128d790600587018b5260208b20601f850160051c810191602086106126f157601f0160051c0190613a38565b89612334565b0151905088806122cc565b9250600385018952602089209089935b601f198416851061293c576001945083601f19811610612923575b505050811b0160038301556122e4565b015160001960f88460031b161c19169055888080612913565b818101518355602094850194600190930192909101906128f8565b61298490600387018b5260208b20601f850160051c810191602086106126f157601f0160051c0190613a38565b896122b6565b015190508880612270565b9250600285018952602089209089935b601f19841685106129e9576001945083601f198116106129d0575b505050811b016002830155612288565b015160001960f88460031b161c191690558880806129c0565b818101518355602094850194600190930192909101906129a5565b612a3190600287018b5260208b20601f850160051c810191602086106126f157601f0160051c0190613a38565b8961225a565b015190508880612214565b9250600185018952602089209089935b601f1984168510612a96576001945083601f19811610612a7d575b505050811b01600183015561222c565b015160001960f88460031b161c19169055888080612a6d565b81810151835560209485019460019093019290910190612a52565b612ade90600187018b5260208b20601f850160051c810191602086106126f157601f0160051c0190613a38565b896121fe565b60405162461bcd60e51b815260206004820152600d60248201526c546f6f206d616e79207461677360981b6044820152606490fd5b60405162461bcd60e51b8152602060048201526015602482015274496e76616c6964206c6963656e736520726174696f60581b6044820152606490fd5b5060646101243511156120cd565b60405162461bcd60e51b815260206004820152602260248201527f43616e6e6f742072657461696e206d6f7265207468616e20746f74616c204e46604482015261547360f01b6064820152608490fd5b60405162461bcd60e51b8152602060048201526011602482015270496e76616c6964204e465420707269636560781b6044820152606490fd5b60405162461bcd60e51b8152602060048201526011602482015270125b9d985b1a59081391950818dbdd5b9d607a1b6044820152606490fd5b5061271060c43511156120a8565b60405162461bcd60e51b8152602060048201526016602482015275092dcecc2d8d2c840e6eadadac2e4f240d8cadccee8d60531b6044820152606490fd5b6101f49150111538612097565b60405162461bcd60e51b8152602060048201526016602482015275092dcecc2d8d2c840c6dedce8cadce840d8cadccee8d60531b6044820152606490fd5b6161a89150111538612085565b60405162461bcd60e51b8152602060048201526014602482015273092dcecc2d8d2c840e8d2e8d8ca40d8cadccee8d60631b6044820152606490fd5b60c89150111538612073565b60405162461bcd60e51b815260206004820152601b60248201527f496e73756666696369656e74207075626c697368696e672066656500000000006044820152606490fd5b60405162461bcd60e51b815260206004820152602360248201527f4461696c79206e61746976652061727469636c65206c696d697420657863656560448201526219195960ea1b6064820152608490fd5b60405162461bcd60e51b815260206004820152602860248201527f4d7573742068617665206c6f63616c20746f6b656e20666f7220746869732067604482015267656f67726170687960c01b6064820152608490fd5b612e1291503d8088833e6114268183613447565b38611fee565b60405162461bcd60e51b815260206004820152601e60248201527f5075626c69736865722063726564656e7469616c7320726571756972656400006044820152606490fd5b90506020813d602011612e8b575b81612e7860209383613447565b81010312612e87575138611f96565b8580fd5b3d9150612e6b565b81356001600160401b038111612ec257602091612eb78392602436918901016134ba565b815201910190611f36565b8980fd5b8780fd5b5034610241576020908160031936011261024157612ee6613314565b600b549192906001600160a01b03908116908460015b85811115612f935750612f0e866134d8565b95612f1c6040519788613447565b808752612f2b601f19916134d8565b013685880137809360015b86811115612f4c5760405180610b9d8a82613389565b808352600d8252848460046040862001541614612f72575b612f6d906139dd565b612f36565b94612f8b8187612f85612f6d948c613a02565b526139dd565b959050612f64565b808252600d8552838360046040852001541614612fb9575b612fb4906139dd565b612efc565b95612fc6612fb4916139dd565b969050612fab565b503461024157612fdd36613345565b91908152601360205260408120908154831015610241576020613000848461335b565b90546040519160031b1c8152f35b50346102415780600319360112610241576020600b54604051908152f35b503461024157604036600319011261024157613046613314565b60243561305281613944565b331515806130fc575b806130d1575b6130b9576001600160a01b039283169282918491167f8c5be1e5ebec7d5bd14f71427d1e84f3dd0314c0f7b2291e5b200ac8c7c3b9258680a4825260066020526040822080546001600160a01b031916909117905580f35b60405163a9fbf51f60e01b8152336004820152602490fd5b506001600160a01b038116845260076020908152604080862033875290915284205460ff1615613061565b506001600160a01b03811633141561305b565b50346102415760203660031901126102415760209060043561313081613944565b50815260068252604060018060a01b0391205416604051908152f35b5034610241578060031936011261024157604051908060025461316e81613547565b80855291600191808316908115611916575060011461319757610b9d85610b8981870382613447565b9250600283527f405787fa12a823e0f2b7631cc41b3ba8828b3321ca811111fa75cd3aa3bb5ace5b8284106131da575050508101602001610b8982610b9d6118ab565b805460208587018101919091529093019281016131bf565b503461024157806003193601126102415760206040516161a88152f35b5034610241578060031936011261024157602060405160be8152f35b9050346117ba5760203660031901126117ba5760043563ffffffff60e01b81168091036112155760209250632483248360e11b811490811561326f575b5015158152f35b6380ac58cd60e01b8114915081156132bb575b8115613290575b5038613268565b63152a902d60e11b8114915081156132aa575b5038613289565b6301ffc9a760e01b149050386132a3565b635b5e139f60e01b81149150613282565b60005b8381106132df5750506000910152565b81810151838201526020016132cf565b90602091613308815180928185528580860191016132cc565b601f01601f1916010190565b600435906001600160a01b038216820361332a57565b600080fd5b602435906001600160a01b038216820361332a57565b604090600319011261332a576004359060243590565b80548210156133735760005260206000200190600090565b634e487b7160e01b600052603260045260246000fd5b6020908160408183019282815285518094520193019160005b8281106133b0575050505090565b8351855293810193928101926001016133a2565b6101e081019081106001600160401b038211176133e057604052565b634e487b7160e01b600052604160045260246000fd5b602081019081106001600160401b038211176133e057604052565b604081019081106001600160401b038211176133e057604052565b606081019081106001600160401b038211176133e057604052565b90601f801991011681019081106001600160401b038211176133e057604052565b6001600160401b0381116133e057601f01601f191660200190565b92919261348f82613468565b9161349d6040519384613447565b82948184528183011161332a578281602093846000960137010152565b9080601f8301121561332a578160206134d593359101613483565b90565b6001600160401b0381116133e05760051b60200190565b606090600319011261332a576001600160a01b0390600435828116810361332a5791602435908116810361332a579060443590565b3461332a57600036600319011261332a576020604051670de0b6b3a76400008152f35b90600182811c92168015613577575b602083101461356157565b634e487b7160e01b600052602260045260246000fd5b91607f1691613556565b906040519182600082549261359584613547565b90818452600194858116908160001461360457506001146135c1575b50506135bf92500383613447565b565b9093915060005260209081600020936000915b8183106135ec5750506135bf935082010138806135b1565b855488840185015294850194879450918301916135d4565b9150506135bf94506020925060ff191682840152151560051b82010138806135b1565b6009546001600160a01b0316330361363b57565b60405163118cdaa760e01b8152336004820152602490fd5b6001600160a01b0391821692909183156137dc57600092828452826020956004875260409684888820541696879133151580613743575b509060047fddf252ad1be2c89b69c2b068fc378daa952ba7f163c4a11628f55a4df523b3ef9284613710575b858352600581528b8320805460010190558683525289812080546001600160a01b0319168517905580a416928383036136ef5750505050565b6064945051926364283d7b60e01b8452600484015260248301526044820152fd5b600087815260066020526040902080546001600160a01b0319169055848352600581528b832080546000190190556136b6565b9193945091508061379b575b1561375f5785929187913861368a565b87868861377c576024915190637e27328960e01b82526004820152fd5b905163177e802f60e01b81523360048201526024810191909152604490fd5b5033871480156137c0575b8061374f575085825260068152338589842054161461374f565b5086825260078152878220338352815260ff88832054166137a6565b604051633250574960e11b815260006004820152602490fd5b613800838383613653565b813b61380d575b50505050565b604051630a85bd0160e11b8082523360048301526001600160a01b0392831660248301526044820194909452608060648201526020959290911693909290839061385b9060848301906132ef565b039285816000958187895af1849181613904575b506138cf575050503d6000146138c7573d61388981613468565b906138976040519283613447565b81528091843d92013e5b805192836138c257604051633250574960e11b815260048101849052602490fd5b019050fd5b5060606138a1565b919450915063ffffffff60e01b16036138ec575038808080613807565b60249060405190633250574960e11b82526004820152fd5b9091508681813d831161393d575b61391c8183613447565b810103126114a357516001600160e01b0319811681036114a357903861386f565b503d613912565b6000818152600460205260409020546001600160a01b0316908115613967575090565b60249060405190637e27328960e01b82526004820152fd5b60208183031261332a578051906001600160401b03821161332a570181601f8201121561332a5780516139b181613468565b926139bf6040519485613447565b8184526020828401011161332a576134d591602080850191016132cc565b60001981146139ec5760010190565b634e487b7160e01b600052601160045260246000fd5b80518210156133735760209160051b010190565b6002821015613a225752565b634e487b7160e01b600052602160045260246000fd5b818110613a43575050565b60008155600101613a38565b919082039182116139ec57565b15613a6357565b60405162461bcd60e51b8152602060048201526014602482015273151bdad95b88191bd95cc81b9bdd08195e1a5cdd60621b6044820152606490fd5b60009080825260206004815260018060a01b03604092613ac58285872054161515613a5c565b8452600e825282842054600f835283852054908552600d835283852091845190613aee826133c4565b83548252600190613b00828601613581565b90868401918252613b1360028701613581565b88850152613b2360038701613581565b60608501526004860154166080840152613b3f60058601613581565b9760a08401988952613b5360068701613581565b9260c0850193845260078701805490613b6b826134d8565b93613b788c519586613447565b8285529081528981208a8086015b84841061443e5750505050505060e08401526008850154916101009283850152600e6009870154966101208601978852600a810154610140870152600b810154610160870152600c810154610180870152613bec60ff600d830154166101a08801613a16565b01546101c08501528751613bff81613411565b60078152660233242333939360cc1b88820152948851613c1e81613411565b6007815288810196662342333231314560c81b88527f0bbe70f0a12a12e8cfbdf026edf53845c04b28179b2c9393d342fa6e2cd4ef2a84518c51613c718d8281610dc881830196878151938492016132cc565b519020036143c057509088918a51613c8881613411565b60078152662331443746364560c81b848201529b5b5191613ca89061448d565b9851613cb39061448d565b93519451613cc090614738565b9651613ccb9061448d565b97838c519d8e809e8382017f3c7376672077696474683d2234303022206865696768743d223430302220786d905281017f6c6e733d22687474703a2f2f7777772e77332e6f72672f323030302f737667229052606001601f60f91b90528d606181017f3c646566733e3c6c696e6561724772616469656e742069643d2262672220783190526081017f3d223025222079313d223025222078323d2231303025222079323d223130302590528d61111f60f11b9060a101528d60a381017f3c73746f70206f66667365743d22302522207374796c653d2273746f702d636f905260c301633637b91d60e11b90528d81519260c7849201920191613dcc926132cc565b8c01721db9ba37b816b7b830b1b4ba3c9d189110179f60691b928360c783015260da82017f3c73746f70206f66667365743d223130302522207374796c653d2273746f702d905260fa82016531b7b637b91d60d11b9052519182898301613e32926132cc565b01958601527f3c2f6c696e6561724772616469656e743e3c2f646566733e00000000000000006101138601527f3c726563742077696474683d2234303022206865696768743d2234303022206661012b8601526f34b6361e913ab9361411b1339491179f60811b61014b8601527f3c7265637420783d2232302220793d223230222077696474683d22333630222061015b8601527f6865696768743d22333630222066696c6c3d2272676261283235352c3235352c61017b8601527f3235352c302e312922207374726f6b653d2272676261283235352c3235352c3261019b8601527f35352c302e332922207374726f6b652d77696474683d2232222f3e00000000006101bb8601527f3c7465787420783d223230302220793d2238302220746578742d616e63686f726101d68601527f3d226d6964646c65222066696c6c3d2277686974652220666f6e742d66616d696101f68601527f6c793d2273657269662220666f6e742d73697a653d2232342220666f6e742d776102168601526c32b4b3b43a1e913137b632111f60991b6102368601526c496d6d757461626c655479706560981b610243860152661e17ba32bc3a1f60c91b61025086018190527f3c7465787420783d223230302220793d223132302220746578742d616e63686f6102578701527f723d226d6964646c65222066696c6c3d2272676261283235352c3235352c323561027787018190527f352c302e39292220666f6e742d66616d696c793d2273657269662220666f6e746102978801526a16b9b4bd329e91189b111f60a91b6102b78801528251919990968a956102c29492938793919284926140a2908390898401908b016132cc565b01948501526102c984017f3c7465787420783d223230302220793d223134302220746578742d616e63686f9052876102e98501527f352c302e38292220666f6e742d66616d696c793d2273657269662220666f6e7492836103098601526a16b9b4bd329e91189a111f60a91b948561032982015261033481016845646974696f6e202360b81b905281519061033d928289858401920191614142926132cc565b01908101602f60f81b90528151918261033e97888401920191614164926132cc565b019384015261034583017f3c7465787420783d223230302220793d223136302220746578742d616e63686f9052856103658401526103858301526103a58201528251906103b093828a8684019201916141bc926132cc565b01918201527f3c666f726569676e4f626a65637420783d2234302220793d22323030222077696103b78201527f6474683d2233323022206865696768743d22313230223e0000000000000000006103d78201527f3c64697620786d6c6e733d22687474703a2f2f7777772e77332e6f72672f31396103ee8201527f39392f7868746d6c22207374796c653d22636f6c6f723a77686974653b666f6e61040e8201527f742d66616d696c793a73657269663b666f6e742d73697a653a313270783b746561042e8201527f78742d616c69676e3a63656e7465723b776f72642d777261703a627265616b2d61044e820152663bb7b9321d911f60c91b61046e8201528251610475939091906142d6908390868401908a016132cc565b651e17b234bb1f60d11b9101928301526f1e17b337b932b4b3b727b13532b1ba1f60811b61047b8301527f3c7465787420783d223230302220793d223335302220746578742d616e63686f61048b8301526104ab8201527f352c302e37292220666f6e742d66616d696c793d2273657269662220666f6e746104cb8201526a16b9b4bd329e911899111f60a91b6104eb8201526841727469636c65202360b81b6104f682015281516104ff94909261439491849187850191016132cc565b01918201526105068101651e17b9bb339f60d11b9052036104ec8101825261050c016134d59082613447565b9a7f34a632fd0bf9a1be0abdd53ecd86b54702208e50bc91af37fd598ede80e4a47e84518c516143ff8d8281610dc881830196878151938492016132cc565b51902014614411575b90899291613c9d565b9a509088918a5161442181613411565b60078152662345384133313760c81b848201529b90919250614408565b8591829161444b85613581565b8152019201920191908b90613b86565b9061446582613468565b6144726040519182613447565b8281528092614483601f1991613468565b0190602036910137565b806000917a184f03e93ff9f4daa797ed6e38ed64bf6a1f010000000000000000808210156145c2575b506d04ee2d6d415b85acef8100000000808310156145b3575b50662386f26fc10000808310156145a4575b506305f5e10080831015614595575b5061271080831015614586575b506064821015614576575b600a8092101561456c575b60019081602161452482870161445b565b95860101905b614536575b5050505090565b600019019083906f181899199a1a9b1b9c1cb0b131b232b360811b8282061a8353049182156145675791908261452a565b61452f565b9160010191614513565b9190606460029104910191614508565b600491939204910191386144fd565b600891939204910191386144f0565b601091939204910191386144e1565b602091939204910191386144cf565b6040935081049150386144b6565b604051906145dd8261342c565b604082527f6768696a6b6c6d6e6f707172737475767778797a303132333435363738392b2f6040837f4142434445464748494a4b4c4d4e4f505152535455565758595a61626364656660208201520152565b8051156147125780516002918282018092116139ec576003918290046001600160fe1b03811681036139ec57614668908495941b61445b565b936020850193829183518401906020820192835194600085525b8381106146c15750505050525106806001146146ae576002146146a3575090565b603d90600019015390565b50603d9081600019820153600119015390565b87600491999293949901918251600190603f9082828260121c16880101518453828282600c1c16880101518385015382828260061c1688010151888501531685010151898201530197929190614682565b5050604051614720816133f6565b6000815290565b908151811015613373570160200190565b606480825111156147a8576040519160a083018381106001600160401b038211176133e0576040528183526080366020850137600090815b83811061477e575050505090565b6147a3906001600160f81b03196147958285614727565b5116841a610c4d8288614727565b614770565b509056fea26469706673582212206f9c87f84f35e24ea596e062be226d35b82352fd3973a5af332f7022cb579a3c64736f6c63430008140033","opcodes":"PUSH1 0xC0 CALLVALUE PUSH3 0x438 JUMPI PUSH1 0x1F NOT SWAP1 PUSH3 0x4C6B SWAP1 PUSH1 0x1 PUSH1 0x1 PUSH1 0x40 SHL SUB PUSH1 0x1F CODESIZE DUP5 SWAP1 SUB DUP2 DUP2 ADD DUP7 AND DUP5 ADD SWAP1 DUP4 DUP3 GT DUP6 DUP4 LT OR PUSH3 0x43D JUMPI DUP1 DUP6 SWAP2 PUSH1 0x40 SWAP8 DUP9 SWAP5 DUP6 MSTORE DUP4 CODECOPY DUP2 ADD SUB SLT PUSH3 0x438 JUMPI PUSH3 0x52 DUP4 PUSH3 0x473 JUMP JUMPDEST SWAP1 PUSH3 0x62 PUSH1 0x20 DUP1 SWAP6 ADD PUSH3 0x473 JUMP JUMPDEST SWAP1 PUSH3 0x6D PUSH3 0x453 JUMP JUMPDEST SWAP7 DUP6 DUP9 MSTORE PUSH32 0x496D6D757461626C655479706520456E637279707465642041727469636C6573 DUP7 DUP10 ADD MSTORE PUSH3 0xA0 PUSH3 0x453 JUMP JUMPDEST SWAP2 PUSH1 0x4 SWAP9 DUP10 DUP5 MSTORE PUSH4 0x49544541 PUSH1 0xE0 SHL DUP9 DUP6 ADD MSTORE DUP1 MLOAD DUP8 DUP2 GT PUSH3 0x34D JUMPI PUSH1 0x2 SLOAD SWAP2 PUSH1 0x1 SWAP3 DUP4 DUP2 DUP2 SHR SWAP2 AND DUP1 ISZERO PUSH3 0x42D JUMPI JUMPDEST DUP12 DUP3 LT EQ PUSH3 0x32D JUMPI SWAP1 DUP2 DUP6 DUP5 SWAP4 GT PUSH3 0x3D6 JUMPI JUMPDEST POP DUP11 SWAP1 DUP6 DUP4 GT PUSH1 0x1 EQ PUSH3 0x36E JUMPI PUSH1 0x0 SWAP3 PUSH3 0x362 JUMPI JUMPDEST POP POP PUSH1 0x0 NOT PUSH1 0x3 DUP4 SWAP1 SHL SHR NOT AND SWAP1 DUP3 SHL OR PUSH1 0x2 SSTORE JUMPDEST DUP4 MLOAD SWAP2 DUP8 DUP4 GT PUSH3 0x34D JUMPI PUSH1 0x3 SWAP5 DUP6 SLOAD DUP4 DUP2 DUP2 SHR SWAP2 AND DUP1 ISZERO PUSH3 0x342 JUMPI JUMPDEST DUP12 DUP3 LT EQ PUSH3 0x32D JUMPI DUP3 DUP2 GT PUSH3 0x2E2 JUMPI JUMPDEST POP DUP10 SWAP2 DUP5 GT PUSH1 0x1 EQ PUSH3 0x27D JUMPI DUP4 SWAP5 POP SWAP1 DUP4 SWAP3 SWAP2 PUSH1 0x0 SWAP5 PUSH3 0x271 JUMPI JUMPDEST POP POP SHL SWAP2 PUSH1 0x0 NOT SWAP1 DUP5 SHL SHR NOT AND OR SWAP1 SSTORE JUMPDEST CALLER ISZERO PUSH3 0x25A JUMPI PUSH1 0x9 DUP1 SLOAD CALLER PUSH1 0x1 PUSH1 0x1 PUSH1 0xA0 SHL SUB NOT DUP3 AND DUP2 OR SWAP1 SWAP3 SSTORE PUSH1 0x1 PUSH1 0x1 PUSH1 0xA0 SHL SUB SWAP4 DUP5 SWAP3 SWAP1 SWAP2 DUP4 AND PUSH32 0x8BE0079C531659141344CD1FD0A4F28419497F9722A3DAAFE3B4186F6B6457E0 PUSH1 0x0 DUP1 LOG3 AND PUSH1 0x80 MSTORE AND PUSH1 0xA0 MSTORE ADDRESS ISZERO PUSH3 0x243 JUMPI DUP3 MLOAD SWAP1 DUP2 DUP5 ADD SWAP1 DUP2 GT DUP3 DUP3 LT OR PUSH3 0x22E JUMPI DUP4 PUSH2 0x1EA SWAP5 SWAP6 POP MSTORE ADDRESS DUP2 MSTORE ADD MSTORE PUSH1 0xF5 PUSH1 0xA1 SHL ADDRESS OR PUSH1 0x0 SSTORE MLOAD PUSH2 0x47E2 SWAP1 DUP2 PUSH3 0x489 DUP3 CODECOPY PUSH1 0x80 MLOAD DUP2 DUP2 DUP2 PUSH2 0x516 ADD MSTORE PUSH2 0x1F5E ADD MSTORE PUSH1 0xA0 MLOAD DUP2 DUP2 DUP2 PUSH2 0xD39 ADD MSTORE DUP2 DUP2 PUSH2 0x1636 ADD MSTORE PUSH2 0x1FB6 ADD MSTORE RETURN JUMPDEST PUSH1 0x41 DUP6 PUSH4 0x4E487B71 PUSH1 0xE0 SHL PUSH1 0x0 MSTORE MSTORE PUSH1 0x24 PUSH1 0x0 REVERT JUMPDEST DUP3 MLOAD PUSH4 0x5B6CC805 PUSH1 0xE1 SHL DUP2 MSTORE PUSH1 0x0 DUP2 DUP7 ADD MSTORE PUSH1 0x24 SWAP1 REVERT JUMPDEST DUP5 MLOAD PUSH4 0x1E4FBDF7 PUSH1 0xE0 SHL DUP2 MSTORE PUSH1 0x0 DUP2 DUP9 ADD MSTORE PUSH1 0x24 SWAP1 REVERT JUMPDEST ADD MLOAD SWAP3 POP CODESIZE DUP1 PUSH3 0x160 JUMP JUMPDEST SWAP2 SWAP4 DUP4 AND SWAP2 DUP6 PUSH1 0x0 MSTORE DUP4 DUP11 PUSH1 0x0 KECCAK256 SWAP4 PUSH1 0x0 JUMPDEST DUP13 DUP9 DUP4 DUP4 LT PUSH3 0x2CA JUMPI POP POP POP LT PUSH3 0x2B1 JUMPI JUMPDEST POP POP POP DUP2 SHL ADD SWAP1 SSTORE PUSH3 0x171 JUMP JUMPDEST ADD MLOAD PUSH1 0x0 NOT DUP4 DUP7 SHL PUSH1 0xF8 AND SHR NOT AND SWAP1 SSTORE CODESIZE DUP1 DUP1 PUSH3 0x2A3 JUMP JUMPDEST DUP7 DUP7 ADD MLOAD DUP9 SSTORE SWAP1 SWAP7 ADD SWAP6 SWAP5 DUP6 ADD SWAP5 DUP8 SWAP4 POP ADD PUSH3 0x28F JUMP JUMPDEST DUP7 PUSH1 0x0 MSTORE DUP11 PUSH1 0x0 KECCAK256 DUP4 DUP1 DUP8 ADD PUSH1 0x5 SHR DUP3 ADD SWAP3 DUP14 DUP9 LT PUSH3 0x323 JUMPI JUMPDEST ADD PUSH1 0x5 SHR ADD SWAP1 DUP5 SWAP1 JUMPDEST DUP3 DUP2 LT PUSH3 0x316 JUMPI POP POP PUSH3 0x143 JUMP JUMPDEST PUSH1 0x0 DUP2 SSTORE ADD DUP5 SWAP1 PUSH3 0x306 JUMP JUMPDEST SWAP3 POP DUP2 SWAP3 PUSH3 0x2FD JUMP JUMPDEST PUSH1 0x22 DUP14 PUSH4 0x4E487B71 PUSH1 0xE0 SHL PUSH1 0x0 MSTORE MSTORE PUSH1 0x24 PUSH1 0x0 REVERT JUMPDEST SWAP1 PUSH1 0x7F AND SWAP1 PUSH3 0x131 JUMP JUMPDEST PUSH1 0x41 DUP12 PUSH4 0x4E487B71 PUSH1 0xE0 SHL PUSH1 0x0 MSTORE MSTORE PUSH1 0x24 PUSH1 0x0 REVERT JUMPDEST ADD MLOAD SWAP1 POP CODESIZE DUP1 PUSH3 0xFE JUMP JUMPDEST SWAP1 DUP7 DUP6 SWAP5 AND SWAP2 PUSH1 0x2 PUSH1 0x0 MSTORE DUP13 PUSH1 0x0 KECCAK256 SWAP3 DUP14 PUSH1 0x0 SWAP1 JUMPDEST DUP3 DUP3 LT PUSH3 0x3BE JUMPI POP POP DUP5 GT PUSH3 0x3A4 JUMPI JUMPDEST POP POP POP DUP2 SHL ADD PUSH1 0x2 SSTORE PUSH3 0x113 JUMP JUMPDEST ADD MLOAD PUSH1 0x0 NOT PUSH1 0xF8 DUP5 PUSH1 0x3 SHL AND SHR NOT AND SWAP1 SSTORE CODESIZE DUP1 DUP1 PUSH3 0x395 JUMP JUMPDEST DUP4 DUP6 ADD MLOAD DUP7 SSTORE DUP9 SWAP8 SWAP1 SWAP6 ADD SWAP5 SWAP4 DUP5 ADD SWAP4 ADD DUP15 PUSH3 0x383 JUMP JUMPDEST SWAP1 SWAP2 POP PUSH1 0x2 PUSH1 0x0 MSTORE DUP11 PUSH1 0x0 KECCAK256 DUP6 DUP1 DUP6 ADD PUSH1 0x5 SHR DUP3 ADD SWAP3 DUP14 DUP7 LT PUSH3 0x423 JUMPI JUMPDEST SWAP2 DUP7 SWAP2 DUP7 SWAP6 SWAP5 SWAP4 ADD PUSH1 0x5 SHR ADD SWAP2 JUMPDEST DUP3 DUP2 LT PUSH3 0x413 JUMPI POP POP PUSH3 0xE7 JUMP JUMPDEST PUSH1 0x0 DUP2 SSTORE DUP6 SWAP5 POP DUP7 SWAP2 ADD PUSH3 0x403 JUMP JUMPDEST SWAP3 POP DUP2 SWAP3 PUSH3 0x3F5 JUMP JUMPDEST SWAP1 PUSH1 0x7F AND SWAP1 PUSH3 0xD2 JUMP JUMPDEST PUSH1 0x0 DUP1 REVERT JUMPDEST PUSH4 0x4E487B71 PUSH1 0xE0 SHL PUSH1 0x0 MSTORE PUSH1 0x41 PUSH1 0x4 MSTORE PUSH1 0x24 PUSH1 0x0 REVERT JUMPDEST PUSH1 0x40 DUP1 MLOAD SWAP2 SWAP1 DUP3 ADD PUSH1 0x1 PUSH1 0x1 PUSH1 0x40 SHL SUB DUP2 GT DUP4 DUP3 LT OR PUSH3 0x43D JUMPI PUSH1 0x40 MSTORE JUMP JUMPDEST MLOAD SWAP1 PUSH1 0x1 PUSH1 0x1 PUSH1 0xA0 SHL SUB DUP3 AND DUP3 SUB PUSH3 0x438 JUMPI JUMP INVALID PUSH1 0x80 DUP1 PUSH1 0x40 MSTORE PUSH1 0x4 CALLDATASIZE LT ISZERO PUSH2 0x13 JUMPI PUSH1 0x0 DUP1 REVERT JUMPDEST PUSH1 0x0 SWAP1 DUP2 CALLDATALOAD PUSH1 0xE0 SHR SWAP1 DUP2 PUSH4 0x1FFC9A7 EQ PUSH2 0x322B JUMPI POP DUP1 PUSH4 0x2C83902 EQ PUSH2 0x320F JUMPI DUP1 PUSH4 0x5B746B5 EQ PUSH2 0x31F2 JUMPI DUP1 PUSH4 0x6FDDE03 EQ PUSH2 0x314C JUMPI DUP1 PUSH4 0x81812FC EQ PUSH2 0x310F JUMPI DUP1 PUSH4 0x95EA7B3 EQ PUSH2 0x302C JUMPI DUP1 PUSH4 0xEBF1D3D EQ PUSH2 0x300E JUMPI DUP1 PUSH4 0x11D0D538 EQ PUSH2 0x2FCE JUMPI DUP1 PUSH4 0x1521BA3F EQ PUSH2 0x2ECA JUMPI DUP1 PUSH4 0x160953C3 EQ PUSH2 0x1E32 JUMPI DUP1 PUSH4 0x23B872DD EQ PUSH2 0x1E1A JUMPI DUP1 PUSH4 0x24AA774A EQ PUSH2 0x1993 JUMPI DUP1 PUSH4 0x2683494D EQ PUSH2 0x1DCF JUMPI DUP1 PUSH4 0x2A55205A EQ PUSH2 0x1BFB JUMPI DUP1 PUSH4 0x2D2C5565 EQ PUSH2 0x1BCC JUMPI DUP1 PUSH4 0x2EF9A160 EQ PUSH2 0x1BB0 JUMPI DUP1 PUSH4 0x3BC3A454 EQ PUSH2 0x1B94 JUMPI DUP1 PUSH4 0x42842E0E EQ PUSH2 0x1B6C JUMPI DUP1 PUSH4 0x4BAF079C EQ PUSH2 0x1B29 JUMPI DUP1 PUSH4 0x544B5E61 EQ PUSH2 0x1B0C JUMPI DUP1 PUSH4 0x602787ED EQ PUSH2 0x1AE2 JUMPI DUP1 PUSH4 0x6352211E EQ PUSH2 0x1AB1 JUMPI DUP1 PUSH4 0x6DCEE4CA EQ PUSH2 0x1A91 JUMPI DUP1 PUSH4 0x6EF87121 EQ PUSH2 0x1A4D JUMPI DUP1 PUSH4 0x70A08231 EQ PUSH2 0x19F5 JUMPI DUP1 PUSH4 0x715018A6 EQ PUSH2 0x1998 JUMPI DUP1 PUSH4 0x8368A0C2 EQ PUSH2 0x1993 JUMPI DUP1 PUSH4 0x8BA1393D EQ PUSH2 0x1969 JUMPI DUP1 PUSH4 0x8DA5CB5B EQ PUSH2 0x1940 JUMPI DUP1 PUSH4 0x95D89B41 EQ PUSH2 0x186F JUMPI DUP1 PUSH4 0x968B5635 EQ PUSH2 0x17FE JUMPI DUP1 PUSH4 0x98C6E821 EQ PUSH2 0x17BE JUMPI DUP1 PUSH4 0x9FB53FCB EQ PUSH2 0x1708 JUMPI DUP1 PUSH4 0xA22CB465 EQ PUSH2 0x1665 JUMPI DUP1 PUSH4 0xA7D0F2FB EQ PUSH2 0x1620 JUMPI DUP1 PUSH4 0xB27DDE6A EQ PUSH2 0x15F6 JUMPI DUP1 PUSH4 0xB88D4FDE EQ PUSH2 0x158F JUMPI DUP1 PUSH4 0xBDEB0FB1 EQ PUSH2 0xCC5 JUMPI DUP1 PUSH4 0xC87B56DD EQ PUSH2 0x545 JUMPI DUP1 PUSH4 0xCB541EF2 EQ PUSH2 0x500 JUMPI DUP1 PUSH4 0xCCE67226 EQ PUSH2 0x4E4 JUMPI DUP1 PUSH4 0xE91DAB62 EQ PUSH2 0x49D JUMPI DUP1 PUSH4 0xE985E9C5 EQ PUSH2 0x449 JUMPI DUP1 PUSH4 0xEDCFAFE6 EQ PUSH2 0x2F8 JUMPI DUP1 PUSH4 0xEF6FE9B7 EQ PUSH2 0x2CF JUMPI DUP1 PUSH4 0xF2FDE38B EQ PUSH2 0x244 JUMPI PUSH4 0xF50496F4 EQ PUSH2 0x226 JUMPI PUSH1 0x0 DUP1 REVERT JUMPDEST CALLVALUE PUSH2 0x241 JUMPI DUP1 PUSH1 0x3 NOT CALLDATASIZE ADD SLT PUSH2 0x241 JUMPI PUSH1 0x20 PUSH1 0x40 MLOAD PUSH1 0x32 DUP2 MSTORE RETURN JUMPDEST DUP1 REVERT JUMPDEST POP CALLVALUE PUSH2 0x241 JUMPI PUSH1 0x20 CALLDATASIZE PUSH1 0x3 NOT ADD SLT PUSH2 0x241 JUMPI PUSH2 0x25E PUSH2 0x3314 JUMP JUMPDEST PUSH2 0x266 PUSH2 0x3627 JUMP JUMPDEST PUSH1 0x1 PUSH1 0x1 PUSH1 0xA0 SHL SUB SWAP1 DUP2 AND SWAP1 DUP2 ISZERO PUSH2 0x2B6 JUMPI PUSH1 0x9 SLOAD DUP3 PUSH1 0x1 PUSH1 0x1 PUSH1 0x60 SHL SUB PUSH1 0xA0 SHL DUP3 AND OR PUSH1 0x9 SSTORE AND PUSH32 0x8BE0079C531659141344CD1FD0A4F28419497F9722A3DAAFE3B4186F6B6457E0 PUSH1 0x0 DUP1 LOG3 DUP1 RETURN JUMPDEST PUSH1 0x40 MLOAD PUSH4 0x1E4FBDF7 PUSH1 0xE0 SHL DUP2 MSTORE PUSH1 0x4 DUP2 ADD DUP5 SWAP1 MSTORE PUSH1 0x24 SWAP1 REVERT JUMPDEST POP CALLVALUE PUSH2 0x241 JUMPI DUP1 PUSH1 0x3 NOT CALLDATASIZE ADD SLT PUSH2 0x241 JUMPI PUSH1 0xA SLOAD PUSH1 0x40 MLOAD PUSH1 0x1 PUSH1 0x1 PUSH1 0xA0 SHL SUB SWAP1 SWAP2 AND DUP2 MSTORE PUSH1 0x20 SWAP1 RETURN JUMPDEST POP CALLVALUE PUSH2 0x241 JUMPI PUSH1 0x20 CALLDATASIZE PUSH1 0x3 NOT ADD SLT PUSH2 0x241 JUMPI PUSH1 0x4 CALLDATALOAD DUP2 MSTORE PUSH1 0xD PUSH1 0x20 MSTORE PUSH1 0x40 DUP2 KECCAK256 DUP1 SLOAD SWAP1 PUSH2 0x327 PUSH1 0x1 DUP3 ADD PUSH2 0x3581 JUMP JUMPDEST PUSH2 0x333 PUSH1 0x2 DUP4 ADD PUSH2 0x3581 JUMP JUMPDEST SWAP2 PUSH2 0x340 PUSH1 0x3 DUP3 ADD PUSH2 0x3581 JUMP JUMPDEST PUSH1 0x4 DUP3 ADD SLOAD PUSH1 0x1 PUSH1 0x1 PUSH1 0xA0 SHL SUB AND SWAP4 SWAP1 PUSH2 0x35C PUSH1 0x5 DUP5 ADD PUSH2 0x3581 JUMP JUMPDEST SWAP5 PUSH2 0x369 PUSH1 0x6 DUP6 ADD PUSH2 0x3581 JUMP JUMPDEST SWAP6 PUSH1 0x8 DUP6 ADD SLOAD SWAP7 PUSH1 0x9 DUP7 ADD SLOAD SWAP2 PUSH1 0xA DUP8 ADD SLOAD SWAP4 PUSH1 0xB DUP9 ADD SLOAD SWAP6 PUSH1 0xC DUP10 ADD SLOAD SWAP8 PUSH1 0xD DUP11 ADD SLOAD PUSH1 0xFF AND SWAP10 PUSH1 0xE ADD SLOAD SWAP11 PUSH1 0x40 MLOAD SWAP14 DUP15 MSTORE DUP14 PUSH2 0x1C0 SWAP1 DUP2 PUSH1 0x20 DUP3 ADD MSTORE ADD PUSH2 0x3B1 SWAP2 PUSH2 0x32EF JUMP JUMPDEST DUP14 DUP2 SUB PUSH1 0x40 DUP16 ADD MSTORE PUSH2 0x3C2 SWAP2 PUSH2 0x32EF JUMP JUMPDEST DUP13 DUP2 SUB PUSH1 0x60 DUP15 ADD MSTORE PUSH2 0x3D3 SWAP2 PUSH2 0x32EF JUMP JUMPDEST SWAP1 PUSH1 0x80 DUP13 ADD MSTORE DUP11 DUP2 SUB PUSH1 0xA0 DUP13 ADD MSTORE PUSH2 0x3EA SWAP2 PUSH2 0x32EF JUMP JUMPDEST DUP10 DUP2 SUB PUSH1 0xC0 DUP12 ADD MSTORE PUSH2 0x3FB SWAP2 PUSH2 0x32EF JUMP JUMPDEST SWAP7 PUSH1 0xE0 DUP10 ADD MSTORE PUSH2 0x100 DUP9 ADD MSTORE PUSH2 0x120 DUP8 ADD MSTORE PUSH2 0x140 DUP7 ADD MSTORE PUSH2 0x160 DUP6 ADD MSTORE PUSH1 0x2 DUP2 LT ISZERO PUSH2 0x435 JUMPI DUP4 SWAP5 POP PUSH2 0x180 DUP5 ADD MSTORE PUSH2 0x1A0 DUP4 ADD MSTORE SUB SWAP1 RETURN JUMPDEST PUSH4 0x4E487B71 PUSH1 0xE0 SHL DUP6 MSTORE PUSH1 0x21 PUSH1 0x4 MSTORE PUSH1 0x24 DUP6 REVERT JUMPDEST POP CALLVALUE PUSH2 0x241 JUMPI PUSH1 0x40 CALLDATASIZE PUSH1 0x3 NOT ADD SLT PUSH2 0x241 JUMPI PUSH2 0x463 PUSH2 0x3314 JUMP JUMPDEST PUSH1 0x40 PUSH2 0x46D PUSH2 0x332F JUMP JUMPDEST SWAP3 PUSH1 0x1 DUP1 PUSH1 0xA0 SHL SUB DUP1 SWAP4 AND DUP2 MSTORE PUSH1 0x7 PUSH1 0x20 MSTORE KECCAK256 SWAP2 AND PUSH1 0x0 MSTORE PUSH1 0x20 MSTORE PUSH1 0x20 PUSH1 0xFF PUSH1 0x40 PUSH1 0x0 KECCAK256 SLOAD AND PUSH1 0x40 MLOAD SWAP1 ISZERO ISZERO DUP2 MSTORE RETURN JUMPDEST POP CALLVALUE PUSH2 0x241 JUMPI PUSH1 0x20 CALLDATASIZE PUSH1 0x3 NOT ADD SLT PUSH2 0x241 JUMPI PUSH1 0x40 PUSH1 0x20 SWAP2 PUSH1 0x4 CALLDATALOAD DUP1 DUP3 MSTORE PUSH1 0x4 DUP5 MSTORE PUSH2 0x4D4 PUSH1 0x1 DUP1 PUSH1 0xA0 SHL SUB DUP5 DUP5 KECCAK256 SLOAD AND ISZERO ISZERO PUSH2 0x3A5C JUMP JUMPDEST DUP2 MSTORE PUSH1 0xF DUP4 MSTORE KECCAK256 SLOAD PUSH1 0x40 MLOAD SWAP1 DUP2 MSTORE RETURN JUMPDEST POP CALLVALUE PUSH2 0x241 JUMPI DUP1 PUSH1 0x3 NOT CALLDATASIZE ADD SLT PUSH2 0x241 JUMPI PUSH1 0x20 PUSH1 0x40 MLOAD PUSH1 0xA DUP2 MSTORE RETURN JUMPDEST POP CALLVALUE PUSH2 0x241 JUMPI DUP1 PUSH1 0x3 NOT CALLDATASIZE ADD SLT PUSH2 0x241 JUMPI PUSH1 0x40 MLOAD PUSH32 0x0 PUSH1 0x1 PUSH1 0x1 PUSH1 0xA0 SHL SUB AND DUP2 MSTORE PUSH1 0x20 SWAP1 RETURN JUMPDEST POP CALLVALUE PUSH2 0x241 JUMPI PUSH1 0x20 CALLDATASIZE PUSH1 0x3 NOT ADD SLT PUSH2 0x241 JUMPI PUSH1 0x4 DUP1 CALLDATALOAD DUP3 MSTORE PUSH1 0x20 MSTORE PUSH1 0x40 DUP2 KECCAK256 SLOAD PUSH2 0x579 SWAP1 PUSH1 0x1 PUSH1 0x1 PUSH1 0xA0 SHL SUB AND ISZERO ISZERO PUSH2 0x3A5C JUMP JUMPDEST PUSH1 0x4 CALLDATALOAD DUP2 MSTORE PUSH1 0xE PUSH1 0x20 MSTORE PUSH1 0x40 DUP2 KECCAK256 SLOAD SWAP1 PUSH1 0xF PUSH1 0x20 MSTORE PUSH1 0x40 DUP2 KECCAK256 SLOAD SWAP2 DUP2 MSTORE PUSH1 0xD PUSH1 0x20 MSTORE PUSH1 0x40 DUP2 KECCAK256 PUSH1 0x40 MLOAD SWAP1 PUSH2 0x5AC DUP3 PUSH2 0x33C4 JUMP JUMPDEST DUP1 SLOAD DUP3 MSTORE PUSH2 0x5BC PUSH1 0x1 DUP3 ADD PUSH2 0x3581 JUMP JUMPDEST PUSH1 0x20 DUP4 ADD MSTORE PUSH2 0x5CD PUSH1 0x2 DUP3 ADD PUSH2 0x3581 JUMP JUMPDEST PUSH1 0x40 DUP4 ADD MSTORE PUSH2 0x5DE PUSH1 0x3 DUP3 ADD PUSH2 0x3581 JUMP JUMPDEST PUSH1 0x60 DUP4 ADD MSTORE PUSH1 0x4 DUP2 ADD SLOAD PUSH1 0x1 PUSH1 0x1 PUSH1 0xA0 SHL SUB AND PUSH1 0x80 DUP4 ADD MSTORE PUSH2 0x602 PUSH1 0x5 DUP3 ADD PUSH2 0x3581 JUMP JUMPDEST PUSH1 0xA0 DUP4 ADD MSTORE PUSH2 0x613 PUSH1 0x6 DUP3 ADD PUSH2 0x3581 JUMP JUMPDEST PUSH1 0xC0 DUP4 ADD MSTORE PUSH1 0x7 DUP2 ADD DUP1 SLOAD PUSH2 0x627 DUP2 PUSH2 0x34D8 JUMP JUMPDEST SWAP2 PUSH2 0x635 PUSH1 0x40 MLOAD SWAP4 DUP5 PUSH2 0x3447 JUMP JUMPDEST DUP2 DUP4 MSTORE DUP6 MSTORE PUSH1 0x20 DUP1 DUP7 KECCAK256 DUP7 SWAP2 DUP5 ADD JUMPDEST DUP4 DUP4 LT PUSH2 0xCA8 JUMPI POP POP POP POP SWAP1 PUSH1 0xE SWAP2 PUSH1 0xE0 DUP5 ADD MSTORE PUSH1 0x8 DUP2 ADD SLOAD PUSH2 0x100 DUP5 ADD MSTORE PUSH1 0x9 DUP2 ADD SLOAD PUSH2 0x120 DUP5 ADD MSTORE PUSH1 0xA DUP2 ADD SLOAD PUSH2 0x140 DUP5 ADD MSTORE PUSH1 0xB DUP2 ADD SLOAD PUSH2 0x160 DUP5 ADD MSTORE PUSH1 0xC DUP2 ADD SLOAD PUSH2 0x180 DUP5 ADD MSTORE PUSH2 0x6A4 PUSH1 0xFF PUSH1 0xD DUP4 ADD SLOAD AND PUSH2 0x1A0 DUP6 ADD PUSH2 0x3A16 JUMP JUMPDEST ADD SLOAD PUSH2 0x1C0 DUP3 ADD MSTORE PUSH1 0x20 DUP2 ADD MLOAD SWAP3 PUSH2 0x6BB DUP2 PUSH2 0x448D JUMP JUMPDEST SWAP3 PUSH1 0x60 DUP4 ADD MLOAD PUSH2 0x6DD PUSH2 0x6CF PUSH1 0x4 CALLDATALOAD PUSH2 0x3A9F JUMP JUMPDEST PUSH2 0x6D7 PUSH2 0x45D0 JUMP JUMPDEST SWAP1 PUSH2 0x462F JUMP JUMPDEST SWAP2 PUSH1 0xA0 DUP6 ADD MLOAD SWAP1 PUSH1 0xC0 DUP7 ADD MLOAD SWAP5 PUSH1 0x1 DUP1 PUSH1 0xA0 SHL SUB PUSH1 0x80 DUP9 ADD MLOAD AND SWAP2 PUSH1 0x40 MLOAD PUSH2 0x704 DUP2 PUSH2 0x3411 JUMP JUMPDEST PUSH1 0x10 DUP2 MSTORE PUSH16 0x181899199A1A9B1B9C1CB0B131B232B3 PUSH1 0x81 SHL PUSH1 0x20 DUP3 ADD MSTORE PUSH1 0x40 MLOAD SWAP4 PUSH2 0x72E DUP6 PUSH2 0x342C JUMP JUMPDEST PUSH1 0x2A DUP6 MSTORE PUSH1 0x40 CALLDATASIZE PUSH1 0x20 DUP8 ADD CALLDATACOPY DUP5 MLOAD ISZERO PUSH2 0xC94 JUMPI PUSH1 0x30 PUSH1 0x20 DUP7 ADD MSTORE8 DUP5 MLOAD PUSH1 0x1 LT ISZERO PUSH2 0xC94 JUMPI PUSH1 0x78 PUSH1 0x21 DUP7 ADD MSTORE8 DUP3 JUMPDEST PUSH1 0x14 DUP2 LT PUSH2 0xBA1 JUMPI POP POP POP PUSH2 0xB9D PUSH2 0xB36 PUSH2 0x7E7 PUSH2 0x6CF PUSH2 0x1B9 DUP15 DUP15 DUP15 DUP15 DUP15 DUP15 DUP15 DUP15 PUSH2 0x786 DUP16 PUSH2 0x448D JUMP JUMPDEST SWAP2 PUSH2 0x795 PUSH2 0x120 DUP9 ADD MLOAD PUSH2 0x448D JUMP JUMPDEST SWAP5 PUSH2 0x7B2 PUSH2 0x180 PUSH2 0x7AA PUSH2 0x100 DUP12 ADD MLOAD PUSH2 0x448D JUMP JUMPDEST SWAP10 ADD MLOAD PUSH2 0x448D JUMP JUMPDEST SWAP9 PUSH1 0x2A PUSH1 0x40 MLOAD SWAP15 DUP16 DUP1 SWAP14 PUSH1 0x7B PUSH1 0xF8 SHL PUSH1 0x20 DUP4 ADD MSTORE PUSH9 0x113730B6B2911D1011 PUSH1 0xB9 SHL PUSH1 0x21 DUP4 ADD MSTORE PUSH1 0x20 DUP2 MLOAD SWAP5 DUP6 SWAP4 ADD SWAP2 ADD PUSH2 0x32CC JUMP JUMPDEST DUP12 ADD PUSH12 0x202D2045646974696F6E2023 PUSH1 0xA0 SHL PUSH1 0x2A DUP3 ADD MSTORE PUSH2 0x812 DUP3 MLOAD DUP1 SWAP4 PUSH1 0x20 PUSH1 0x36 DUP6 ADD SWAP2 ADD PUSH2 0x32CC JUMP JUMPDEST ADD SWAP5 PUSH2 0x88B PUSH1 0xF2 SHL SWAP6 DUP7 PUSH1 0x36 DUP3 ADD MSTORE PUSH16 0x113232B9B1B934B83A34B7B7111D1011 PUSH1 0x81 SHL PUSH1 0x38 DUP3 ADD MSTORE PUSH2 0x84E DUP3 MLOAD DUP1 SWAP4 PUSH1 0x20 PUSH1 0x48 DUP6 ADD SWAP2 ADD PUSH2 0x32CC JUMP JUMPDEST ADD DUP6 PUSH1 0x48 DUP3 ADD MSTORE PUSH32 0x22696D616765223A2022646174613A696D6167652F7376672B786D6C3B626173 PUSH1 0x4A DUP3 ADD MSTORE PUSH4 0x194D8D0B PUSH1 0xE2 SHL PUSH1 0x6A DUP3 ADD MSTORE PUSH2 0x89C DUP3 MLOAD DUP1 SWAP4 PUSH1 0x20 PUSH1 0x6E DUP6 ADD SWAP2 ADD PUSH2 0x32CC JUMP JUMPDEST ADD SWAP4 PUSH1 0x6E DUP6 ADD MSTORE PUSH15 0x2261747472696275746573223A205B PUSH1 0x88 SHL PUSH1 0x70 DUP6 ADD MSTORE PUSH32 0x7B2274726169745F74797065223A20224C6F636174696F6E222C202276616C75 PUSH1 0x7F DUP6 ADD MSTORE PUSH5 0x32911D1011 PUSH1 0xD9 SHL SWAP4 DUP5 PUSH1 0x9F DUP3 ADD MSTORE PUSH2 0x905 DUP3 MLOAD DUP1 SWAP4 PUSH1 0x20 PUSH1 0xA4 DUP6 ADD SWAP2 ADD PUSH2 0x32CC JUMP JUMPDEST ADD SWAP5 PUSH3 0x89F4B PUSH1 0xEA SHL SWAP6 DUP7 SWAP5 DUP6 PUSH1 0xA4 DUP4 ADD MSTORE PUSH32 0x7B2274726169745F74797065223A202243617465676F7279222C202276616C75 PUSH1 0xA7 DUP4 ADD MSTORE PUSH1 0xC7 DUP3 ADD MSTORE PUSH2 0x956 DUP3 MLOAD DUP1 SWAP4 PUSH1 0x20 PUSH1 0xCC DUP6 ADD SWAP2 ADD PUSH2 0x32CC JUMP JUMPDEST ADD DUP4 PUSH1 0xCC DUP3 ADD MSTORE PUSH32 0x7B2274726169745F74797065223A2022417574686F72222C202276616C756522 PUSH1 0xCF DUP3 ADD MSTORE PUSH3 0x1D1011 PUSH1 0xE9 SHL PUSH1 0xEF DUP3 ADD MSTORE PUSH2 0x9A3 DUP3 MLOAD DUP1 SWAP4 PUSH1 0x20 PUSH1 0xF2 DUP6 ADD SWAP2 ADD PUSH2 0x32CC JUMP JUMPDEST ADD SWAP1 DUP3 PUSH1 0xF2 DUP4 ADD MSTORE PUSH32 0x7B2274726169745F74797065223A202245646974696F6E204E756D626572222C PUSH1 0xF5 DUP4 ADD MSTORE PUSH11 0x10113B30B63AB2911D1011 PUSH1 0xA9 SHL SWAP2 DUP3 PUSH2 0x115 DUP3 ADD MSTORE PUSH2 0x9FD DUP3 MLOAD DUP1 SWAP4 PUSH1 0x20 PUSH2 0x120 DUP6 ADD SWAP2 ADD PUSH2 0x32CC JUMP JUMPDEST ADD SWAP1 DUP3 PUSH2 0x120 DUP4 ADD MSTORE PUSH32 0x7B2274726169745F74797065223A2022546F74616C2045646974696F6E73222C PUSH2 0x123 DUP4 ADD MSTORE PUSH2 0x143 DUP3 ADD MSTORE DUP3 MLOAD SWAP1 PUSH2 0xA4A DUP3 PUSH2 0x14E SWAP6 PUSH1 0x20 DUP8 DUP6 ADD SWAP2 ADD PUSH2 0x32CC JUMP JUMPDEST ADD SWAP2 DUP3 ADD MSTORE PUSH32 0x7B2274726169745F74797065223A20225075626C69636174696F6E2044617465 PUSH2 0x151 DUP3 ADD MSTORE PUSH13 0x111610113B30B63AB2911D1011 PUSH1 0x99 SHL PUSH2 0x171 DUP3 ADD MSTORE DUP3 MLOAD SWAP1 PUSH2 0xAA4 DUP3 PUSH2 0x17E SWAP6 PUSH1 0x20 DUP8 DUP6 ADD SWAP2 ADD PUSH2 0x32CC JUMP JUMPDEST ADD SWAP2 DUP3 ADD MSTORE PUSH32 0x7B2274726169745F74797065223A2022526561646572204C6963656E73657320 PUSH2 0x181 DUP3 ADD MSTORE PUSH20 0x2832B91027232A111610113B30B63AB2911D1011 PUSH1 0x61 SHL PUSH2 0x1A1 DUP3 ADD MSTORE DUP2 MLOAD SWAP1 PUSH2 0xB05 DUP3 PUSH2 0x1B5 SWAP5 PUSH1 0x20 DUP7 DUP6 ADD SWAP2 ADD PUSH2 0x32CC JUMP JUMPDEST ADD SWAP1 PUSH2 0x227D PUSH1 0xF0 SHL SWAP1 DUP3 ADD MSTORE PUSH1 0x5D PUSH1 0xF8 SHL PUSH2 0x1B7 DUP3 ADD MSTORE PUSH1 0x7D PUSH1 0xF8 SHL PUSH2 0x1B8 DUP3 ADD MSTORE SUB PUSH2 0x199 DUP2 ADD DUP5 MSTORE ADD DUP3 PUSH2 0x3447 JUMP JUMPDEST PUSH2 0xB89 PUSH1 0x3D PUSH1 0x40 MLOAD DUP1 SWAP4 PUSH32 0x646174613A6170706C69636174696F6E2F6A736F6E3B6261736536342C000000 PUSH1 0x20 DUP4 ADD MSTORE PUSH2 0xB79 DUP2 MLOAD DUP1 SWAP3 PUSH1 0x20 DUP7 DUP7 ADD SWAP2 ADD PUSH2 0x32CC JUMP JUMPDEST DUP2 ADD SUB PUSH1 0x1D DUP2 ADD DUP5 MSTORE ADD DUP3 PUSH2 0x3447 JUMP JUMPDEST PUSH1 0x40 MLOAD SWAP2 DUP3 SWAP2 PUSH1 0x20 DUP4 MSTORE PUSH1 0x20 DUP4 ADD SWAP1 PUSH2 0x32EF JUMP JUMPDEST SUB SWAP1 RETURN JUMPDEST PUSH1 0xC DUP2 ADD DUP2 GT PUSH2 0xC80 JUMPI PUSH1 0x20 PUSH1 0xC DUP3 ADD LT ISZERO PUSH2 0xC6C JUMPI PUSH1 0x1 PUSH1 0x1 PUSH1 0xF8 SHL SUB NOT PUSH2 0xBD6 PUSH1 0xC DUP4 ADD DUP5 SWAP1 BYTE PUSH1 0x4 SHR PUSH1 0xF AND DUP6 PUSH2 0x4727 JUMP JUMPDEST MLOAD AND DUP2 DUP1 PUSH1 0x1 SHL DIV PUSH1 0x2 EQ DUP3 ISZERO OR ISZERO PUSH2 0xC58 JUMPI DUP2 PUSH1 0x1 SHL PUSH1 0x2 ADD PUSH1 0x2 GT PUSH2 0xC58 JUMPI DUP5 BYTE PUSH2 0xC09 DUP3 PUSH1 0x1 SHL PUSH1 0x2 ADD DUP9 PUSH2 0x4727 JUMP JUMPDEST MSTORE8 PUSH1 0x1 PUSH1 0x1 PUSH1 0xF8 SHL SUB NOT PUSH2 0xC26 PUSH1 0xC DUP4 ADD DUP5 SWAP1 BYTE PUSH1 0xF AND DUP6 PUSH2 0x4727 JUMP JUMPDEST MLOAD AND DUP2 PUSH1 0x1 SHL PUSH1 0x3 ADD PUSH1 0x3 GT PUSH2 0xC58 JUMPI SWAP1 PUSH2 0xC53 SWAP2 DUP6 BYTE PUSH2 0xC4D DUP3 PUSH1 0x1 SHL PUSH1 0x3 ADD DUP10 PUSH2 0x4727 JUMP JUMPDEST MSTORE8 PUSH2 0x39DD JUMP JUMPDEST PUSH2 0x75B JUMP JUMPDEST PUSH4 0x4E487B71 PUSH1 0xE0 SHL DUP6 MSTORE PUSH1 0x11 PUSH1 0x4 MSTORE PUSH1 0x24 DUP6 REVERT JUMPDEST PUSH4 0x4E487B71 PUSH1 0xE0 SHL DUP5 MSTORE PUSH1 0x32 PUSH1 0x4 MSTORE PUSH1 0x24 DUP5 REVERT JUMPDEST PUSH4 0x4E487B71 PUSH1 0xE0 SHL DUP5 MSTORE PUSH1 0x11 PUSH1 0x4 MSTORE PUSH1 0x24 DUP5 REVERT JUMPDEST PUSH4 0x4E487B71 PUSH1 0xE0 SHL DUP4 MSTORE PUSH1 0x32 PUSH1 0x4 MSTORE PUSH1 0x24 DUP4 REVERT JUMPDEST PUSH1 0x1 PUSH1 0x20 DUP2 SWAP3 PUSH2 0xCB7 DUP6 PUSH2 0x3581 JUMP JUMPDEST DUP2 MSTORE ADD SWAP3 ADD SWAP3 ADD SWAP2 SWAP1 PUSH2 0x644 JUMP JUMPDEST POP PUSH1 0x20 CALLDATASIZE PUSH1 0x3 NOT ADD SLT PUSH2 0x241 JUMPI PUSH1 0x4 CALLDATALOAD DUP2 MSTORE PUSH1 0xD PUSH1 0x20 MSTORE PUSH1 0x40 DUP2 KECCAK256 DUP1 SLOAD ISZERO PUSH2 0x1551 JUMPI PUSH1 0x4 CALLDATALOAD DUP3 MSTORE PUSH1 0x12 PUSH1 0x20 MSTORE PUSH1 0x40 DUP3 KECCAK256 CALLER DUP4 MSTORE PUSH1 0x20 MSTORE PUSH1 0x40 DUP3 KECCAK256 SLOAD PUSH2 0x1502 JUMPI PUSH1 0x4 CALLDATALOAD DUP3 MSTORE PUSH1 0x13 PUSH1 0x20 MSTORE PUSH1 0x40 DUP3 KECCAK256 SLOAD ISZERO PUSH2 0x14AF JUMPI PUSH2 0xD24 PUSH1 0x5 DUP3 ADD PUSH2 0x3581 JUMP JUMPDEST PUSH1 0x40 MLOAD PUSH4 0x70A08231 PUSH1 0xE0 SHL DUP2 MSTORE CALLER PUSH1 0x4 DUP3 ADD MSTORE PUSH32 0x0 PUSH1 0x1 PUSH1 0x1 PUSH1 0xA0 SHL SUB AND SWAP1 PUSH1 0x20 DUP2 PUSH1 0x24 DUP2 DUP6 GAS STATICCALL SWAP1 DUP2 ISZERO PUSH2 0x1219 JUMPI DUP6 SWAP2 PUSH2 0x1479 JUMPI JUMPDEST POP ISZERO PUSH2 0x1434 JUMPI DUP4 PUSH1 0x24 SWAP2 PUSH1 0x40 MLOAD SWAP3 DUP4 DUP1 SWAP3 PUSH4 0x2E0FDC57 PUSH1 0xE0 SHL DUP3 MSTORE CALLER PUSH1 0x4 DUP4 ADD MSTORE GAS STATICCALL SWAP1 DUP2 ISZERO PUSH2 0x1177 JUMPI DUP5 SWAP2 PUSH2 0x1412 JUMPI JUMPDEST POP PUSH1 0x40 MLOAD PUSH2 0xDD5 PUSH1 0x20 DUP3 DUP2 PUSH2 0xDC8 DUP2 DUP4 ADD SWAP7 DUP8 DUP2 MLOAD SWAP4 DUP5 SWAP3 ADD PUSH2 0x32CC JUMP JUMPDEST DUP2 ADD SUB DUP1 DUP5 MSTORE ADD DUP3 PUSH2 0x3447 JUMP JUMPDEST MLOAD SWAP1 KECCAK256 SWAP1 PUSH1 0x40 MLOAD PUSH2 0xDF6 PUSH1 0x20 DUP3 DUP2 PUSH2 0xDC8 DUP2 DUP4 ADD SWAP7 DUP8 DUP2 MLOAD SWAP4 DUP5 SWAP3 ADD PUSH2 0x32CC JUMP JUMPDEST MLOAD SWAP1 KECCAK256 SUB PUSH2 0x13BE JUMPI PUSH1 0xA DUP2 ADD DUP1 SLOAD SWAP2 PUSH8 0xDE0B6B3A7640000 DUP4 ADD DUP4 GT PUSH2 0xC80 JUMPI PUSH8 0xDE0B6B3A7640000 DUP4 ADD CALLVALUE LT PUSH2 0x1382 JUMPI PUSH1 0x4 CALLDATALOAD DUP5 MSTORE PUSH1 0x14 PUSH1 0x20 MSTORE PUSH1 0x40 DUP5 KECCAK256 SLOAD PUSH1 0x40 MLOAD PUSH1 0x20 DUP2 ADD SWAP2 TIMESTAMP DUP4 MSTORE PREVRANDAO PUSH1 0x40 DUP4 ADD MSTORE CALLER PUSH1 0x60 SHL PUSH1 0x60 DUP4 ADD MSTORE PUSH1 0x4 CALLDATALOAD PUSH1 0x74 DUP4 ADD MSTORE PUSH1 0x94 DUP3 ADD MSTORE PUSH1 0x94 DUP2 MSTORE PUSH1 0xC0 DUP2 ADD DUP2 DUP2 LT PUSH1 0x1 PUSH1 0x1 PUSH1 0x40 SHL SUB DUP3 GT OR PUSH2 0x136E JUMPI PUSH1 0x40 MSTORE MLOAD SWAP1 KECCAK256 SWAP2 PUSH1 0x4 CALLDATALOAD DUP6 MSTORE PUSH1 0x13 PUSH1 0x20 MSTORE PUSH1 0x40 DUP6 KECCAK256 SLOAD SWAP3 DUP4 ISZERO PUSH2 0x135A JUMPI PUSH1 0x4 CALLDATALOAD DUP7 MSTORE PUSH1 0x13 PUSH1 0x20 MSTORE PUSH2 0xEAD DUP5 DUP3 MOD PUSH1 0x40 DUP9 KECCAK256 PUSH2 0x335B JUMP JUMPDEST SWAP1 SLOAD SWAP1 PUSH1 0x3 SHL SHR SWAP4 PUSH1 0x4 CALLDATALOAD DUP8 MSTORE PUSH1 0x13 PUSH1 0x20 MSTORE PUSH1 0x40 DUP8 KECCAK256 DUP1 SLOAD DUP1 PUSH1 0x0 NOT DUP2 ADD GT PUSH2 0x1346 JUMPI SWAP2 PUSH2 0xEE7 PUSH2 0xF03 SWAP3 PUSH2 0xF1C SWAP6 SWAP5 PUSH1 0x0 NOT ADD SWAP1 PUSH2 0x335B JUMP JUMPDEST SWAP1 SLOAD SWAP1 PUSH1 0x3 SHL SHR SWAP3 PUSH1 0x4 CALLDATALOAD DUP11 MSTORE PUSH1 0x13 PUSH1 0x20 MSTORE MOD PUSH1 0x40 DUP10 KECCAK256 PUSH2 0x335B JUMP JUMPDEST SWAP1 SWAP2 SWAP1 DUP3 SLOAD SWAP1 PUSH1 0x3 SHL SWAP2 DUP3 SHL SWAP2 PUSH1 0x0 NOT SWAP1 SHL NOT AND OR SWAP1 SSTORE JUMP JUMPDEST PUSH1 0x4 CALLDATALOAD DUP6 MSTORE PUSH1 0x13 PUSH1 0x20 MSTORE PUSH1 0x40 DUP6 KECCAK256 DUP1 SLOAD DUP1 ISZERO PUSH2 0x1332 JUMPI PUSH1 0x0 NOT ADD SWAP1 PUSH2 0xF41 DUP3 DUP3 PUSH2 0x335B JUMP JUMPDEST DUP2 SLOAD SWAP1 PUSH1 0x0 NOT SWAP1 PUSH1 0x3 SHL SHL NOT AND SWAP1 SSTORE SSTORE PUSH2 0xF5C PUSH1 0xC SLOAD PUSH2 0x39DD JUMP JUMPDEST SWAP4 DUP5 PUSH1 0xC SSTORE CALLER ISZERO PUSH2 0x1319 JUMPI DUP5 DUP7 MSTORE PUSH1 0x4 PUSH1 0x20 MSTORE PUSH1 0x40 DUP7 KECCAK256 SLOAD PUSH1 0x1 PUSH1 0x1 PUSH1 0xA0 SHL SUB AND DUP1 ISZERO ISZERO SWAP1 DUP7 SWAP1 DUP3 PUSH2 0x12E4 JUMPI JUMPDEST CALLER DUP10 MSTORE PUSH1 0x5 PUSH1 0x20 MSTORE PUSH1 0x40 DUP10 KECCAK256 PUSH1 0x1 DUP2 SLOAD ADD SWAP1 SSTORE DUP2 DUP10 MSTORE PUSH1 0x4 PUSH1 0x20 MSTORE PUSH1 0x40 DUP10 KECCAK256 CALLER PUSH1 0x1 PUSH1 0x1 PUSH1 0x60 SHL SUB PUSH1 0xA0 SHL DUP3 SLOAD AND OR SWAP1 SSTORE CALLER SWAP1 PUSH32 0xDDF252AD1BE2C89B69C2B068FC378DAA952BA7F163C4A11628F55A4DF523B3EF DUP11 DUP1 LOG4 PUSH2 0x12CB JUMPI DUP5 DUP7 MSTORE PUSH1 0xE PUSH1 0x20 MSTORE PUSH1 0x4 CALLDATALOAD PUSH1 0x40 DUP8 KECCAK256 SSTORE PUSH1 0xF PUSH1 0x20 MSTORE DUP4 PUSH1 0x40 DUP8 KECCAK256 SSTORE PUSH1 0x4 CALLDATALOAD DUP7 MSTORE PUSH1 0x12 PUSH1 0x20 MSTORE PUSH1 0x40 DUP7 KECCAK256 CALLER DUP8 MSTORE PUSH1 0x20 MSTORE PUSH1 0x40 DUP7 KECCAK256 SLOAD ISZERO PUSH2 0x1269 JUMPI JUMPDEST PUSH1 0x4 CALLDATALOAD DUP7 MSTORE PUSH1 0x12 PUSH1 0x20 MSTORE PUSH1 0x40 DUP7 KECCAK256 CALLER DUP8 MSTORE PUSH1 0x20 MSTORE PUSH1 0x40 DUP7 KECCAK256 PUSH2 0x1040 DUP2 SLOAD PUSH2 0x39DD JUMP JUMPDEST SWAP1 SSTORE PUSH1 0x4 CALLDATALOAD DUP7 MSTORE PUSH1 0x14 PUSH1 0x20 MSTORE PUSH1 0x40 DUP7 KECCAK256 PUSH2 0x105A DUP2 SLOAD PUSH2 0x39DD JUMP JUMPDEST SWAP1 SSTORE DUP2 SLOAD PUSH1 0xBE DUP2 MUL DUP2 DUP2 DIV PUSH1 0xBE EQ DUP3 ISZERO OR ISZERO PUSH2 0x1255 JUMPI DUP8 DUP1 DUP1 PUSH2 0x1083 PUSH2 0x2710 DUP3 SWAP6 DIV DUP1 SWAP7 PUSH2 0x3A4F JUMP JUMPDEST PUSH1 0x4 DUP10 ADD SLOAD PUSH1 0x1 PUSH1 0x1 PUSH1 0xA0 SHL SUB AND DUP3 DUP3 ISZERO PUSH2 0x124C JUMPI JUMPDEST CALL ISZERO PUSH2 0x1241 JUMPI PUSH8 0xDE0B6B3A7640000 DUP2 ADD DUP1 SWAP2 GT PUSH2 0x122D JUMPI DUP7 DUP1 DUP1 DUP1 SWAP4 DUP2 DUP2 ISZERO PUSH2 0x1224 JUMPI JUMPDEST PUSH20 0x9402F9F20B4A27B55B1CC6CF015D98F764814FB2 SWAP1 CALL ISZERO PUSH2 0x1219 JUMPI PUSH1 0xA SLOAD DUP7 SWAP1 PUSH1 0x1 PUSH1 0x1 PUSH1 0xA0 SHL SUB AND DUP1 PUSH2 0x118B JUMPI JUMPDEST POP SWAP1 PUSH8 0xDE0B6B3A7640000 DUP2 ADD CALLVALUE GT PUSH2 0x1149 JUMPI JUMPDEST POP POP PUSH1 0xC SWAP1 SLOAD SWAP2 ADD SLOAD SWAP1 PUSH1 0x40 MLOAD SWAP3 DUP4 MSTORE PUSH1 0x20 DUP4 ADD MSTORE PUSH1 0x40 DUP3 ADD MSTORE CALLER SWAP2 PUSH32 0x8FC9383161350D0D960DD74934D021DBA1D6AAD105CE6A90F55C4B99D853AE4C PUSH1 0x60 PUSH1 0x4 CALLDATALOAD SWAP4 LOG4 DUP1 RETURN JUMPDEST DUP2 DUP1 PUSH2 0x1160 PUSH8 0xDE0B6B3A7640000 DUP3 SWAP5 ADD CALLVALUE PUSH2 0x3A4F JUMP JUMPDEST DUP2 DUP2 ISZERO PUSH2 0x1182 JUMPI JUMPDEST CALLER SWAP1 CALL ISZERO PUSH2 0x1177 JUMPI DUP5 CODESIZE PUSH2 0x1102 JUMP JUMPDEST PUSH1 0x40 MLOAD RETURNDATASIZE DUP7 DUP3 RETURNDATACOPY RETURNDATASIZE SWAP1 REVERT JUMPDEST POP PUSH2 0x8FC PUSH2 0x1168 JUMP JUMPDEST PUSH1 0xC DUP6 ADD SLOAD SWAP1 DUP1 EXTCODESIZE ISZERO PUSH2 0x1215 JUMPI PUSH1 0x84 DUP4 SWAP3 PUSH1 0x40 MLOAD SWAP5 DUP6 SWAP4 DUP5 SWAP3 PUSH4 0xDF81A823 PUSH1 0xE0 SHL DUP5 MSTORE PUSH1 0x4 CALLDATALOAD PUSH1 0x4 DUP6 ADD MSTORE CALLER PUSH1 0x24 DUP6 ADD MSTORE PUSH1 0x44 DUP5 ADD MSTORE DUP11 PUSH1 0x64 DUP5 ADD MSTORE GAS CALL DUP1 ISZERO PUSH2 0x120A JUMPI PUSH2 0x11DB JUMPI JUMPDEST DUP7 SWAP1 PUSH2 0x10EE JUMP JUMPDEST PUSH1 0x1 PUSH1 0x1 PUSH1 0x40 SHL SUB DUP2 SWAP8 SWAP3 SWAP8 GT PUSH2 0x11F6 JUMPI PUSH1 0x40 MSTORE SWAP5 CODESIZE PUSH2 0x11D4 JUMP JUMPDEST PUSH4 0x4E487B71 PUSH1 0xE0 SHL DUP3 MSTORE PUSH1 0x41 PUSH1 0x4 MSTORE PUSH1 0x24 DUP3 REVERT JUMPDEST PUSH1 0x40 MLOAD RETURNDATASIZE DUP10 DUP3 RETURNDATACOPY RETURNDATASIZE SWAP1 REVERT JUMPDEST DUP3 DUP1 REVERT JUMPDEST PUSH1 0x40 MLOAD RETURNDATASIZE DUP8 DUP3 RETURNDATACOPY RETURNDATASIZE SWAP1 REVERT JUMPDEST POP PUSH2 0x8FC PUSH2 0x10BE JUMP JUMPDEST PUSH4 0x4E487B71 PUSH1 0xE0 SHL DUP8 MSTORE PUSH1 0x11 PUSH1 0x4 MSTORE PUSH1 0x24 DUP8 REVERT JUMPDEST PUSH1 0x40 MLOAD RETURNDATASIZE DUP9 DUP3 RETURNDATACOPY RETURNDATASIZE SWAP1 REVERT JUMPDEST POP PUSH2 0x8FC PUSH2 0x1099 JUMP JUMPDEST PUSH4 0x4E487B71 PUSH1 0xE0 SHL DUP9 MSTORE PUSH1 0x11 PUSH1 0x4 MSTORE PUSH1 0x24 DUP9 REVERT JUMPDEST PUSH1 0x4 CALLDATALOAD DUP7 MSTORE PUSH1 0x11 PUSH1 0x20 MSTORE PUSH1 0x40 DUP7 KECCAK256 DUP1 SLOAD SWAP1 PUSH1 0x1 PUSH1 0x40 SHL DUP3 LT ISZERO PUSH2 0x12B7 JUMPI SWAP1 PUSH2 0x1296 SWAP2 PUSH1 0x1 DUP3 ADD DUP2 SSTORE PUSH2 0x335B JUMP JUMPDEST DUP2 SLOAD PUSH1 0x1 PUSH1 0x1 PUSH1 0xA0 SHL SUB PUSH1 0x3 SWAP3 SWAP1 SWAP3 SHL SWAP2 DUP3 SHL NOT AND CALLER SWAP1 SWAP2 SHL OR SWAP1 SSTORE PUSH2 0x101E JUMP JUMPDEST PUSH4 0x4E487B71 PUSH1 0xE0 SHL DUP9 MSTORE PUSH1 0x41 PUSH1 0x4 MSTORE PUSH1 0x24 DUP9 REVERT JUMPDEST PUSH1 0x40 MLOAD PUSH4 0x39E35637 PUSH1 0xE1 SHL DUP2 MSTORE PUSH1 0x4 DUP2 ADD DUP8 SWAP1 MSTORE PUSH1 0x24 SWAP1 REVERT JUMPDEST PUSH1 0x0 DUP3 DUP2 MSTORE PUSH1 0x6 PUSH1 0x20 MSTORE PUSH1 0x40 SWAP1 KECCAK256 DUP1 SLOAD PUSH1 0x1 PUSH1 0x1 PUSH1 0xA0 SHL SUB NOT AND SWAP1 SSTORE DUP1 DUP10 MSTORE PUSH1 0x5 PUSH1 0x20 MSTORE PUSH1 0x40 DUP10 KECCAK256 DUP1 SLOAD PUSH1 0x0 NOT ADD SWAP1 SSTORE PUSH2 0xF89 JUMP JUMPDEST PUSH1 0x40 MLOAD PUSH4 0x32505749 PUSH1 0xE1 SHL DUP2 MSTORE PUSH1 0x4 DUP2 ADD DUP8 SWAP1 MSTORE PUSH1 0x24 SWAP1 REVERT JUMPDEST PUSH4 0x4E487B71 PUSH1 0xE0 SHL DUP8 MSTORE PUSH1 0x31 PUSH1 0x4 MSTORE PUSH1 0x24 DUP8 REVERT JUMPDEST PUSH4 0x4E487B71 PUSH1 0xE0 SHL DUP10 MSTORE PUSH1 0x11 PUSH1 0x4 MSTORE PUSH1 0x24 DUP10 REVERT JUMPDEST PUSH4 0x4E487B71 PUSH1 0xE0 SHL DUP7 MSTORE PUSH1 0x12 PUSH1 0x4 MSTORE PUSH1 0x24 DUP7 REVERT JUMPDEST PUSH4 0x4E487B71 PUSH1 0xE0 SHL DUP8 MSTORE PUSH1 0x41 PUSH1 0x4 MSTORE PUSH1 0x24 DUP8 REVERT JUMPDEST PUSH1 0x40 MLOAD PUSH3 0x461BCD PUSH1 0xE5 SHL DUP2 MSTORE PUSH1 0x20 PUSH1 0x4 DUP3 ADD MSTORE PUSH1 0x14 PUSH1 0x24 DUP3 ADD MSTORE PUSH20 0x125B9CDD59999A58DA595B9D081C185E5B595B9D PUSH1 0x62 SHL PUSH1 0x44 DUP3 ADD MSTORE PUSH1 0x64 SWAP1 REVERT JUMPDEST PUSH1 0x40 MLOAD PUSH3 0x461BCD PUSH1 0xE5 SHL DUP2 MSTORE PUSH1 0x20 PUSH1 0x4 DUP3 ADD MSTORE PUSH1 0x26 PUSH1 0x24 DUP3 ADD MSTORE PUSH32 0x4D7573742068617665206C6F63616C20746F6B656E20746F2070757263686173 PUSH1 0x44 DUP3 ADD MSTORE PUSH6 0x65204E465473 PUSH1 0xD0 SHL PUSH1 0x64 DUP3 ADD MSTORE PUSH1 0x84 SWAP1 REVERT JUMPDEST PUSH2 0x142E SWAP2 POP RETURNDATASIZE DUP1 DUP7 DUP4 RETURNDATACOPY PUSH2 0x1426 DUP2 DUP4 PUSH2 0x3447 JUMP JUMPDEST DUP2 ADD SWAP1 PUSH2 0x397F JUMP JUMPDEST CODESIZE PUSH2 0xDAA JUMP JUMPDEST PUSH1 0x40 MLOAD PUSH3 0x461BCD PUSH1 0xE5 SHL DUP2 MSTORE PUSH1 0x20 PUSH1 0x4 DUP3 ADD MSTORE PUSH1 0x19 PUSH1 0x24 DUP3 ADD MSTORE PUSH32 0x4D656D6265727368697020746F6B656E20726571756972656400000000000000 PUSH1 0x44 DUP3 ADD MSTORE PUSH1 0x64 SWAP1 REVERT JUMPDEST SWAP1 POP PUSH1 0x20 DUP2 RETURNDATASIZE PUSH1 0x20 GT PUSH2 0x14A7 JUMPI JUMPDEST DUP2 PUSH2 0x1494 PUSH1 0x20 SWAP4 DUP4 PUSH2 0x3447 JUMP JUMPDEST DUP2 ADD SUB SLT PUSH2 0x14A3 JUMPI MLOAD CODESIZE PUSH2 0xD79 JUMP JUMPDEST DUP5 DUP1 REVERT JUMPDEST RETURNDATASIZE SWAP2 POP PUSH2 0x1487 JUMP JUMPDEST PUSH1 0x40 MLOAD PUSH3 0x461BCD PUSH1 0xE5 SHL DUP2 MSTORE PUSH1 0x20 PUSH1 0x4 DUP3 ADD MSTORE PUSH1 0x25 PUSH1 0x24 DUP3 ADD MSTORE PUSH32 0x4E6F2065646974696F6E7320617661696C61626C6520666F72207075626C6963 PUSH1 0x44 DUP3 ADD MSTORE PUSH5 0x2073616C65 PUSH1 0xD8 SHL PUSH1 0x64 DUP3 ADD MSTORE PUSH1 0x84 SWAP1 REVERT JUMPDEST PUSH1 0x40 MLOAD PUSH3 0x461BCD PUSH1 0xE5 SHL DUP2 MSTORE PUSH1 0x20 PUSH1 0x4 DUP3 ADD MSTORE PUSH1 0x21 PUSH1 0x24 DUP3 ADD MSTORE PUSH32 0x416C7265616479206F776E73204E465420666F7220746869732061727469636C PUSH1 0x44 DUP3 ADD MSTORE PUSH1 0x65 PUSH1 0xF8 SHL PUSH1 0x64 DUP3 ADD MSTORE PUSH1 0x84 SWAP1 REVERT JUMPDEST PUSH1 0x40 MLOAD PUSH3 0x461BCD PUSH1 0xE5 SHL DUP2 MSTORE PUSH1 0x20 PUSH1 0x4 DUP3 ADD MSTORE PUSH1 0x16 PUSH1 0x24 DUP3 ADD MSTORE PUSH22 0x105C9D1A58DB1948191BD95CC81B9BDD08195E1A5CDD PUSH1 0x52 SHL PUSH1 0x44 DUP3 ADD MSTORE PUSH1 0x64 SWAP1 REVERT JUMPDEST POP CALLVALUE PUSH2 0x241 JUMPI PUSH1 0x80 CALLDATASIZE PUSH1 0x3 NOT ADD SLT PUSH2 0x241 JUMPI PUSH2 0x15A9 PUSH2 0x3314 JUMP JUMPDEST PUSH2 0x15B1 PUSH2 0x332F JUMP JUMPDEST PUSH1 0x64 CALLDATALOAD SWAP2 PUSH1 0x1 PUSH1 0x1 PUSH1 0x40 SHL SUB DUP4 GT PUSH2 0x15F2 JUMPI CALLDATASIZE PUSH1 0x23 DUP5 ADD SLT ISZERO PUSH2 0x15F2 JUMPI PUSH2 0x15E5 PUSH2 0x15EF SWAP4 CALLDATASIZE SWAP1 PUSH1 0x24 DUP2 PUSH1 0x4 ADD CALLDATALOAD SWAP2 ADD PUSH2 0x3483 JUMP JUMPDEST SWAP2 PUSH1 0x44 CALLDATALOAD SWAP2 PUSH2 0x37F5 JUMP JUMPDEST DUP1 RETURN JUMPDEST DUP4 DUP1 REVERT JUMPDEST POP CALLVALUE PUSH2 0x241 JUMPI PUSH1 0x20 CALLDATASIZE PUSH1 0x3 NOT ADD SLT PUSH2 0x241 JUMPI PUSH1 0x40 PUSH1 0x20 SWAP2 PUSH1 0x4 CALLDATALOAD DUP2 MSTORE PUSH1 0xE DUP4 MSTORE KECCAK256 SLOAD PUSH1 0x40 MLOAD SWAP1 DUP2 MSTORE RETURN JUMPDEST POP CALLVALUE PUSH2 0x241 JUMPI DUP1 PUSH1 0x3 NOT CALLDATASIZE ADD SLT PUSH2 0x241 JUMPI PUSH1 0x40 MLOAD PUSH32 0x0 PUSH1 0x1 PUSH1 0x1 PUSH1 0xA0 SHL SUB AND DUP2 MSTORE PUSH1 0x20 SWAP1 RETURN JUMPDEST POP CALLVALUE PUSH2 0x241 JUMPI PUSH1 0x40 CALLDATASIZE PUSH1 0x3 NOT ADD SLT PUSH2 0x241 JUMPI PUSH2 0x167F PUSH2 0x3314 JUMP JUMPDEST PUSH1 0x24 CALLDATALOAD SWAP1 DUP2 ISZERO ISZERO DUP1 SWAP3 SUB PUSH2 0x1215 JUMPI PUSH1 0x1 PUSH1 0x1 PUSH1 0xA0 SHL SUB AND SWAP1 DUP2 ISZERO PUSH2 0x16EF JUMPI CALLER DUP4 MSTORE PUSH1 0x7 PUSH1 0x20 MSTORE PUSH1 0x40 DUP4 KECCAK256 DUP3 DUP5 MSTORE PUSH1 0x20 MSTORE PUSH1 0x40 DUP4 KECCAK256 PUSH1 0xFF NOT DUP2 SLOAD AND PUSH1 0xFF DUP4 AND OR SWAP1 SSTORE PUSH1 0x40 MLOAD SWAP1 DUP2 MSTORE PUSH32 0x17307EAB39AB6107E8899845AD3D59BD9653F200F220920489CA2B5937696C31 PUSH1 0x20 CALLER SWAP3 LOG3 DUP1 RETURN JUMPDEST PUSH1 0x40 MLOAD PUSH4 0xB611743 PUSH1 0xE3 SHL DUP2 MSTORE PUSH1 0x4 DUP2 ADD DUP4 SWAP1 MSTORE PUSH1 0x24 SWAP1 REVERT JUMPDEST POP CALLVALUE PUSH2 0x241 JUMPI PUSH1 0x20 DUP1 PUSH1 0x3 NOT CALLDATASIZE ADD SLT PUSH2 0x17BA JUMPI PUSH1 0x4 CALLDATALOAD DUP3 MSTORE PUSH1 0x11 DUP2 MSTORE PUSH1 0x40 DUP3 KECCAK256 PUSH1 0x40 MLOAD SWAP3 DUP4 DUP4 DUP4 SLOAD SWAP2 DUP3 DUP2 MSTORE ADD SWAP1 DUP2 SWAP4 DUP4 MSTORE DUP5 DUP4 KECCAK256 SWAP1 DUP4 JUMPDEST DUP2 DUP2 LT PUSH2 0x179D JUMPI POP POP POP DUP5 PUSH2 0x1756 SWAP2 SUB DUP6 PUSH2 0x3447 JUMP JUMPDEST PUSH1 0x40 MLOAD SWAP4 DUP4 DUP6 SWAP5 DUP6 ADD SWAP2 DUP2 DUP7 MSTORE MLOAD DUP1 SWAP3 MSTORE PUSH1 0x40 DUP6 ADD SWAP4 SWAP3 JUMPDEST DUP3 DUP2 LT PUSH2 0x177D JUMPI POP POP POP POP SUB SWAP1 RETURN JUMPDEST DUP4 MLOAD PUSH1 0x1 PUSH1 0x1 PUSH1 0xA0 SHL SUB AND DUP6 MSTORE DUP7 SWAP6 POP SWAP4 DUP2 ADD SWAP4 SWAP3 DUP2 ADD SWAP3 PUSH1 0x1 ADD PUSH2 0x176E JUMP JUMPDEST DUP3 SLOAD PUSH1 0x1 PUSH1 0x1 PUSH1 0xA0 SHL SUB AND DUP5 MSTORE SWAP3 DUP7 ADD SWAP3 PUSH1 0x1 SWAP3 DUP4 ADD SWAP3 ADD PUSH2 0x1740 JUMP JUMPDEST POP DUP1 REVERT JUMPDEST POP CALLVALUE PUSH2 0x241 JUMPI PUSH1 0x20 CALLDATASIZE PUSH1 0x3 NOT ADD SLT PUSH2 0x241 JUMPI PUSH2 0x17D8 PUSH2 0x3314 JUMP JUMPDEST PUSH2 0x17E0 PUSH2 0x3627 JUMP JUMPDEST PUSH1 0x1 DUP1 PUSH1 0xA0 SHL SUB AND PUSH1 0x1 PUSH1 0x1 PUSH1 0x60 SHL SUB PUSH1 0xA0 SHL PUSH1 0xA SLOAD AND OR PUSH1 0xA SSTORE DUP1 RETURN JUMPDEST POP CALLVALUE PUSH2 0x241 JUMPI PUSH1 0x20 DUP1 PUSH1 0x3 NOT CALLDATASIZE ADD SLT PUSH2 0x17BA JUMPI PUSH1 0x4 CALLDATALOAD DUP3 MSTORE PUSH1 0x13 DUP2 MSTORE PUSH1 0x40 DUP3 KECCAK256 SWAP2 PUSH1 0x40 MLOAD DUP1 SWAP3 DUP1 DUP6 SLOAD SWAP3 DUP4 DUP2 MSTORE ADD SWAP5 DUP4 MSTORE DUP1 DUP4 KECCAK256 SWAP3 SWAP1 JUMPDEST DUP3 DUP3 LT PUSH2 0x1858 JUMPI PUSH2 0xB9D DUP6 PUSH2 0x184C DUP2 DUP10 SUB DUP3 PUSH2 0x3447 JUMP JUMPDEST PUSH1 0x40 MLOAD SWAP2 DUP3 SWAP2 DUP3 PUSH2 0x3389 JUMP JUMPDEST DUP4 SLOAD DUP7 MSTORE SWAP5 DUP6 ADD SWAP5 PUSH1 0x1 SWAP4 DUP5 ADD SWAP4 SWAP1 SWAP2 ADD SWAP1 PUSH2 0x1835 JUMP JUMPDEST POP CALLVALUE PUSH2 0x241 JUMPI DUP1 PUSH1 0x3 NOT CALLDATASIZE ADD SLT PUSH2 0x241 JUMPI PUSH1 0x40 MLOAD SWAP1 DUP1 PUSH1 0x3 SLOAD PUSH2 0x1891 DUP2 PUSH2 0x3547 JUMP JUMPDEST DUP1 DUP6 MSTORE SWAP2 PUSH1 0x1 SWAP2 DUP1 DUP4 AND SWAP1 DUP2 ISZERO PUSH2 0x1916 JUMPI POP PUSH1 0x1 EQ PUSH2 0x18BB JUMPI JUMPDEST PUSH2 0xB9D DUP6 PUSH2 0xB89 DUP2 DUP8 SUB DUP3 PUSH2 0x3447 JUMP JUMPDEST SWAP3 POP PUSH1 0x3 DUP4 MSTORE PUSH32 0xC2575A0E9E593C00F959F8C92F12DB2869C3395A3B0502D05E2516446F71F85B JUMPDEST DUP3 DUP5 LT PUSH2 0x18FE JUMPI POP POP POP DUP2 ADD PUSH1 0x20 ADD PUSH2 0xB89 DUP3 PUSH2 0xB9D PUSH2 0x18AB JUMP JUMPDEST DUP1 SLOAD PUSH1 0x20 DUP6 DUP8 ADD DUP2 ADD SWAP2 SWAP1 SWAP2 MSTORE SWAP1 SWAP4 ADD SWAP3 DUP2 ADD PUSH2 0x18E3 JUMP JUMPDEST DUP7 SWAP6 POP PUSH2 0xB9D SWAP7 SWAP4 POP PUSH1 0x20 SWAP3 POP PUSH2 0xB89 SWAP5 SWAP2 POP PUSH1 0xFF NOT AND DUP3 DUP5 ADD MSTORE ISZERO ISZERO PUSH1 0x5 SHL DUP3 ADD ADD SWAP3 SWAP4 PUSH2 0x18AB JUMP JUMPDEST POP CALLVALUE PUSH2 0x241 JUMPI DUP1 PUSH1 0x3 NOT CALLDATASIZE ADD SLT PUSH2 0x241 JUMPI PUSH1 0x9 SLOAD PUSH1 0x40 MLOAD PUSH1 0x1 PUSH1 0x1 PUSH1 0xA0 SHL SUB SWAP1 SWAP2 AND DUP2 MSTORE PUSH1 0x20 SWAP1 RETURN JUMPDEST POP CALLVALUE PUSH2 0x241 JUMPI PUSH1 0x20 CALLDATASIZE PUSH1 0x3 NOT ADD SLT PUSH2 0x241 JUMPI PUSH1 0x40 PUSH1 0x20 SWAP2 PUSH1 0x4 CALLDATALOAD DUP2 MSTORE PUSH1 0x14 DUP4 MSTORE KECCAK256 SLOAD PUSH1 0x40 MLOAD SWAP1 DUP2 MSTORE RETURN JUMPDEST PUSH2 0x3524 JUMP JUMPDEST POP CALLVALUE PUSH2 0x241 JUMPI DUP1 PUSH1 0x3 NOT CALLDATASIZE ADD SLT PUSH2 0x241 JUMPI PUSH2 0x19B1 PUSH2 0x3627 JUMP JUMPDEST PUSH1 0x9 DUP1 SLOAD PUSH1 0x1 PUSH1 0x1 PUSH1 0xA0 SHL SUB NOT DUP2 AND SWAP1 SWAP2 SSTORE DUP2 SWAP1 PUSH1 0x1 PUSH1 0x1 PUSH1 0xA0 SHL SUB AND PUSH32 0x8BE0079C531659141344CD1FD0A4F28419497F9722A3DAAFE3B4186F6B6457E0 DUP3 DUP1 LOG3 DUP1 RETURN JUMPDEST POP CALLVALUE PUSH2 0x241 JUMPI PUSH1 0x20 CALLDATASIZE PUSH1 0x3 NOT ADD SLT PUSH2 0x241 JUMPI PUSH1 0x1 PUSH1 0x1 PUSH1 0xA0 SHL SUB PUSH2 0x1A17 PUSH2 0x3314 JUMP JUMPDEST AND DUP1 ISZERO PUSH2 0x1A34 JUMPI DUP2 PUSH1 0x40 SWAP2 PUSH1 0x20 SWAP4 MSTORE PUSH1 0x5 DUP4 MSTORE KECCAK256 SLOAD PUSH1 0x40 MLOAD SWAP1 DUP2 MSTORE RETURN JUMPDEST PUSH1 0x40 MLOAD PUSH4 0x22718AD9 PUSH1 0xE2 SHL DUP2 MSTORE PUSH1 0x4 DUP2 ADD DUP4 SWAP1 MSTORE PUSH1 0x24 SWAP1 REVERT JUMPDEST POP CALLVALUE PUSH2 0x241 JUMPI PUSH1 0x40 CALLDATASIZE PUSH1 0x3 NOT ADD SLT PUSH2 0x241 JUMPI PUSH1 0x40 PUSH1 0x20 SWAP2 PUSH2 0x1A6C PUSH2 0x332F JUMP JUMPDEST PUSH1 0x4 CALLDATALOAD DUP3 MSTORE PUSH1 0x12 DUP5 MSTORE DUP3 DUP3 KECCAK256 PUSH1 0x1 PUSH1 0x1 PUSH1 0xA0 SHL SUB SWAP1 SWAP2 AND DUP3 MSTORE DUP4 MSTORE KECCAK256 SLOAD PUSH1 0x40 MLOAD SWAP1 DUP2 MSTORE RETURN JUMPDEST POP CALLVALUE PUSH2 0x241 JUMPI PUSH1 0x20 CALLDATASIZE PUSH1 0x3 NOT ADD SLT PUSH2 0x241 JUMPI PUSH2 0xB9D PUSH2 0xB89 PUSH1 0x4 CALLDATALOAD PUSH2 0x3A9F JUMP JUMPDEST POP CALLVALUE PUSH2 0x241 JUMPI PUSH1 0x20 CALLDATASIZE PUSH1 0x3 NOT ADD SLT PUSH2 0x241 JUMPI PUSH1 0x20 PUSH2 0x1AD0 PUSH1 0x4 CALLDATALOAD PUSH2 0x3944 JUMP JUMPDEST PUSH1 0x40 MLOAD PUSH1 0x1 PUSH1 0x1 PUSH1 0xA0 SHL SUB SWAP1 SWAP2 AND DUP2 MSTORE RETURN JUMPDEST POP CALLVALUE PUSH2 0x241 JUMPI PUSH1 0x20 CALLDATASIZE PUSH1 0x3 NOT ADD SLT PUSH2 0x241 JUMPI PUSH1 0x40 PUSH1 0x20 SWAP2 PUSH1 0x4 CALLDATALOAD DUP2 MSTORE PUSH1 0xF DUP4 MSTORE KECCAK256 SLOAD PUSH1 0x40 MLOAD SWAP1 DUP2 MSTORE RETURN JUMPDEST POP CALLVALUE PUSH2 0x241 JUMPI DUP1 PUSH1 0x3 NOT CALLDATASIZE ADD SLT PUSH2 0x241 JUMPI PUSH1 0x20 PUSH1 0x40 MLOAD PUSH2 0x1F4 DUP2 MSTORE RETURN JUMPDEST POP CALLVALUE PUSH2 0x241 JUMPI PUSH1 0x40 CALLDATASIZE PUSH1 0x3 NOT ADD SLT PUSH2 0x241 JUMPI PUSH1 0x20 SWAP1 PUSH1 0x40 SWAP1 PUSH1 0x1 PUSH1 0x1 PUSH1 0xA0 SHL SUB PUSH2 0x1B51 PUSH2 0x3314 JUMP JUMPDEST AND DUP2 MSTORE PUSH1 0x10 DUP4 MSTORE DUP2 DUP2 KECCAK256 PUSH1 0x24 CALLDATALOAD DUP3 MSTORE DUP4 MSTORE KECCAK256 SLOAD PUSH1 0x40 MLOAD SWAP1 DUP2 MSTORE RETURN JUMPDEST POP CALLVALUE PUSH2 0x241 JUMPI PUSH2 0x15EF PUSH2 0x1B7E CALLDATASIZE PUSH2 0x34EF JUMP JUMPDEST SWAP1 PUSH1 0x40 MLOAD SWAP3 PUSH2 0x1B8C DUP5 PUSH2 0x33F6 JUMP JUMPDEST DUP6 DUP5 MSTORE PUSH2 0x37F5 JUMP JUMPDEST POP CALLVALUE PUSH2 0x241 JUMPI DUP1 PUSH1 0x3 NOT CALLDATASIZE ADD SLT PUSH2 0x241 JUMPI PUSH1 0x20 PUSH1 0x40 MLOAD PUSH1 0x3 DUP2 MSTORE RETURN JUMPDEST POP CALLVALUE PUSH2 0x241 JUMPI DUP1 PUSH1 0x3 NOT CALLDATASIZE ADD SLT PUSH2 0x241 JUMPI PUSH1 0x20 PUSH1 0x40 MLOAD PUSH1 0xC8 DUP2 MSTORE RETURN JUMPDEST POP CALLVALUE PUSH2 0x241 JUMPI DUP1 PUSH1 0x3 NOT CALLDATASIZE ADD SLT PUSH2 0x241 JUMPI PUSH1 0x20 PUSH1 0x40 MLOAD PUSH20 0x9402F9F20B4A27B55B1CC6CF015D98F764814FB2 DUP2 MSTORE RETURN JUMPDEST POP CALLVALUE PUSH2 0x241 JUMPI PUSH2 0x1C0A CALLDATASIZE PUSH2 0x3345 JUMP JUMPDEST SWAP2 SWAP1 DUP2 MSTORE PUSH1 0x20 SWAP2 PUSH1 0xE DUP4 MSTORE PUSH1 0x40 DUP3 KECCAK256 SLOAD DUP3 MSTORE PUSH1 0xD DUP4 MSTORE PUSH1 0x40 DUP3 KECCAK256 SWAP1 PUSH1 0x40 MLOAD PUSH2 0x1C31 DUP2 PUSH2 0x33C4 JUMP JUMPDEST DUP3 SLOAD DUP2 MSTORE PUSH1 0x1 SWAP3 PUSH2 0x1C43 DUP5 DUP3 ADD PUSH2 0x3581 JUMP JUMPDEST DUP7 DUP4 ADD MSTORE PUSH2 0x1C53 PUSH1 0x2 DUP3 ADD PUSH2 0x3581 JUMP JUMPDEST PUSH1 0x40 DUP4 ADD MSTORE PUSH2 0x1C64 PUSH1 0x3 DUP3 ADD PUSH2 0x3581 JUMP JUMPDEST PUSH1 0x60 DUP4 ADD MSTORE PUSH1 0x4 DUP2 ADD SLOAD PUSH1 0x1 PUSH1 0x1 PUSH1 0xA0 SHL SUB SWAP1 DUP2 AND PUSH1 0x80 DUP5 ADD SWAP1 DUP2 MSTORE SWAP1 SWAP7 SWAP1 SWAP5 PUSH2 0x1C90 PUSH1 0x5 DUP5 ADD PUSH2 0x3581 JUMP JUMPDEST PUSH1 0xA0 DUP6 ADD MSTORE PUSH2 0x1CA1 PUSH1 0x6 DUP5 ADD PUSH2 0x3581 JUMP JUMPDEST PUSH1 0xC0 DUP6 ADD MSTORE PUSH1 0x7 DUP4 ADD DUP1 SLOAD SWAP1 PUSH2 0x1CB6 DUP3 PUSH2 0x34D8 JUMP JUMPDEST SWAP4 PUSH2 0x1CC4 PUSH1 0x40 MLOAD SWAP6 DUP7 PUSH2 0x3447 JUMP JUMPDEST DUP3 DUP6 MSTORE DUP1 DUP6 ADD SWAP2 DUP11 MSTORE DUP1 DUP11 KECCAK256 DUP11 SWAP3 JUMPDEST DUP5 DUP5 LT PUSH2 0x1DB4 JUMPI POP POP POP POP POP POP PUSH2 0x1C0 SWAP2 PUSH1 0xE SWAP2 PUSH1 0xE0 DUP6 ADD MSTORE PUSH1 0x8 DUP2 ADD SLOAD PUSH2 0x100 DUP6 ADD MSTORE PUSH1 0x9 DUP2 ADD SLOAD PUSH2 0x120 DUP6 ADD MSTORE PUSH1 0xA DUP2 ADD SLOAD PUSH2 0x140 DUP6 ADD MSTORE PUSH1 0xB DUP2 ADD SLOAD PUSH2 0x160 DUP6 ADD MSTORE PUSH1 0xC DUP2 ADD SLOAD PUSH2 0x180 DUP6 ADD MSTORE PUSH2 0x1D38 PUSH1 0xFF PUSH1 0xD DUP4 ADD SLOAD AND PUSH2 0x1A0 DUP7 ADD PUSH2 0x3A16 JUMP JUMPDEST ADD SLOAD SWAP2 ADD MSTORE PUSH2 0x1EA SWAP1 DUP2 DUP2 MUL SWAP2 DUP2 DUP4 DIV EQ SWAP1 ISZERO OR ISZERO PUSH2 0x1DA0 JUMPI PUSH2 0x2710 SWAP1 DIV SWAP2 PUSH1 0x62 DUP4 MUL SWAP3 DUP1 DUP5 DIV PUSH1 0x62 EQ SWAP1 ISZERO OR ISZERO PUSH2 0x1D8C JUMPI POP MLOAD PUSH1 0x40 DUP1 MLOAD SWAP4 SWAP1 SWAP2 AND PUSH1 0x1 PUSH1 0x1 PUSH1 0xA0 SHL SUB AND DUP4 MSTORE PUSH1 0x64 SWAP1 SWAP2 DIV PUSH1 0x20 DUP4 ADD MSTORE SWAP1 RETURN JUMPDEST PUSH4 0x4E487B71 PUSH1 0xE0 SHL DUP2 MSTORE PUSH1 0x11 PUSH1 0x4 MSTORE PUSH1 0x24 SWAP1 REVERT JUMPDEST PUSH4 0x4E487B71 PUSH1 0xE0 SHL DUP4 MSTORE PUSH1 0x11 PUSH1 0x4 MSTORE PUSH1 0x24 DUP4 REVERT JUMPDEST DUP6 DUP4 DUP2 SWAP3 PUSH2 0x1DC1 DUP6 PUSH2 0x3581 JUMP JUMPDEST DUP2 MSTORE ADD SWAP3 ADD SWAP4 ADD SWAP3 SWAP1 PUSH2 0x1CD3 JUMP JUMPDEST POP CALLVALUE PUSH2 0x241 JUMPI PUSH2 0x1DDE CALLDATASIZE PUSH2 0x3345 JUMP JUMPDEST SWAP2 SWAP1 DUP2 MSTORE PUSH1 0x11 PUSH1 0x20 MSTORE PUSH1 0x40 DUP2 KECCAK256 SWAP1 DUP2 SLOAD DUP4 LT ISZERO PUSH2 0x241 JUMPI PUSH1 0x20 PUSH2 0x1E01 DUP5 DUP5 PUSH2 0x335B JUMP JUMPDEST SWAP1 SLOAD PUSH1 0x40 MLOAD PUSH1 0x3 SWAP3 SWAP1 SWAP3 SHL SHR PUSH1 0x1 PUSH1 0x1 PUSH1 0xA0 SHL SUB AND DUP2 MSTORE RETURN JUMPDEST POP CALLVALUE PUSH2 0x241 JUMPI PUSH2 0x15EF PUSH2 0x1E2C CALLDATASIZE PUSH2 0x34EF JUMP JUMPDEST SWAP2 PUSH2 0x3653 JUMP JUMPDEST POP PUSH2 0x140 CALLDATASIZE PUSH1 0x3 NOT ADD SLT PUSH2 0x241 JUMPI PUSH1 0x4 CALLDATALOAD PUSH1 0x1 PUSH1 0x1 PUSH1 0x40 SHL SUB DUP2 GT PUSH2 0x17BA JUMPI PUSH2 0x1E5F SWAP1 CALLDATASIZE SWAP1 PUSH1 0x4 ADD PUSH2 0x34BA JUMP JUMPDEST SWAP1 PUSH1 0x24 CALLDATALOAD PUSH1 0x1 PUSH1 0x1 PUSH1 0x40 SHL SUB DUP2 GT PUSH2 0x17BA JUMPI PUSH2 0x1E7F SWAP1 CALLDATASIZE SWAP1 PUSH1 0x4 ADD PUSH2 0x34BA JUMP JUMPDEST SWAP1 PUSH1 0x44 CALLDATALOAD PUSH1 0x1 PUSH1 0x1 PUSH1 0x40 SHL SUB DUP2 GT PUSH2 0x17BA JUMPI PUSH2 0x1E9F SWAP1 CALLDATASIZE SWAP1 PUSH1 0x4 ADD PUSH2 0x34BA JUMP JUMPDEST SWAP3 PUSH1 0x64 CALLDATALOAD PUSH1 0x1 PUSH1 0x1 PUSH1 0x40 SHL SUB DUP2 GT PUSH2 0x1215 JUMPI PUSH2 0x1EBF SWAP1 CALLDATASIZE SWAP1 PUSH1 0x4 ADD PUSH2 0x34BA JUMP JUMPDEST SWAP4 PUSH1 0x84 CALLDATALOAD PUSH1 0x1 PUSH1 0x1 PUSH1 0x40 SHL SUB DUP2 GT PUSH2 0x15F2 JUMPI PUSH2 0x1EDF SWAP1 CALLDATASIZE SWAP1 PUSH1 0x4 ADD PUSH2 0x34BA JUMP JUMPDEST SWAP5 PUSH1 0xA4 CALLDATALOAD SWAP5 PUSH1 0x1 PUSH1 0x1 PUSH1 0x40 SHL SUB DUP7 GT PUSH2 0x14A3 JUMPI CALLDATASIZE PUSH1 0x23 DUP8 ADD SLT ISZERO PUSH2 0x14A3 JUMPI DUP6 PUSH1 0x4 ADD CALLDATALOAD SWAP6 PUSH2 0x1F0C DUP8 PUSH2 0x34D8 JUMP JUMPDEST SWAP7 PUSH2 0x1F1A PUSH1 0x40 MLOAD SWAP9 DUP10 PUSH2 0x3447 JUMP JUMPDEST DUP1 DUP9 MSTORE PUSH1 0x5 SHL DUP2 ADD PUSH1 0x24 ADD PUSH1 0x20 DUP9 ADD CALLDATASIZE DUP3 GT PUSH2 0x2EC6 JUMPI PUSH1 0x24 DUP4 ADD SWAP1 JUMPDEST DUP3 DUP3 LT PUSH2 0x2E93 JUMPI POP POP PUSH1 0x40 MLOAD PUSH4 0x70A08231 PUSH1 0xE0 SHL DUP2 MSTORE CALLER PUSH1 0x4 DUP3 ADD MSTORE SWAP2 POP PUSH1 0x20 SWAP1 POP DUP2 PUSH1 0x24 DUP2 PUSH32 0x0 PUSH1 0x1 PUSH1 0x1 PUSH1 0xA0 SHL SUB AND GAS STATICCALL SWAP1 DUP2 ISZERO PUSH2 0x1241 JUMPI DUP7 SWAP2 PUSH2 0x2E5D JUMPI JUMPDEST POP ISZERO PUSH2 0x2E18 JUMPI PUSH1 0x40 MLOAD PUSH4 0x2E0FDC57 PUSH1 0xE0 SHL DUP2 MSTORE CALLER PUSH1 0x4 DUP3 ADD MSTORE DUP6 DUP2 PUSH1 0x24 DUP2 PUSH32 0x0 PUSH1 0x1 PUSH1 0x1 PUSH1 0xA0 SHL SUB AND GAS STATICCALL SWAP1 DUP2 ISZERO PUSH2 0x1241 JUMPI DUP7 SWAP2 PUSH2 0x2DFE JUMPI JUMPDEST POP PUSH1 0x40 MLOAD PUSH2 0x200C PUSH1 0x20 DUP3 DUP2 PUSH2 0xDC8 DUP2 DUP4 ADD SWAP7 DUP8 DUP2 MLOAD SWAP4 DUP5 SWAP3 ADD PUSH2 0x32CC JUMP JUMPDEST MLOAD SWAP1 KECCAK256 PUSH1 0x40 MLOAD PUSH1 0x20 DUP2 ADD SWAP1 PUSH2 0x202C PUSH1 0x20 DUP3 DUP8 MLOAD PUSH2 0xDC8 DUP2 DUP8 DUP6 DUP13 ADD PUSH2 0x32CC JUMP JUMPDEST MLOAD SWAP1 KECCAK256 SUB PUSH2 0x2DA8 JUMPI CALLER DUP6 MSTORE PUSH1 0x10 PUSH1 0x20 MSTORE PUSH1 0x40 DUP6 KECCAK256 PUSH3 0x15180 TIMESTAMP DIV DUP7 MSTORE PUSH1 0x20 MSTORE PUSH1 0x3 PUSH1 0x40 DUP7 KECCAK256 SLOAD LT ISZERO PUSH2 0x2D57 JUMPI PUSH8 0xDE0B6B3A7640000 CALLVALUE LT PUSH2 0x2D12 JUMPI DUP4 MLOAD DUP1 ISZERO ISZERO SWAP1 DUP2 PUSH2 0x2D06 JUMPI JUMPDEST POP ISZERO PUSH2 0x2CCA JUMPI DUP1 MLOAD DUP1 ISZERO ISZERO SWAP1 DUP2 PUSH2 0x2CBD JUMPI JUMPDEST POP ISZERO PUSH2 0x2C7F JUMPI DUP3 MLOAD DUP1 ISZERO ISZERO SWAP1 DUP2 PUSH2 0x2C72 JUMPI JUMPDEST POP ISZERO PUSH2 0x2C34 JUMPI PUSH1 0xC4 CALLDATALOAD ISZERO ISZERO DUP1 PUSH2 0x2C26 JUMPI JUMPDEST ISZERO PUSH2 0x2BED JUMPI PUSH1 0xE4 CALLDATALOAD ISZERO PUSH2 0x2BB4 JUMPI PUSH1 0xC4 CALLDATALOAD PUSH2 0x104 CALLDATALOAD GT PUSH2 0x2B64 JUMPI PUSH2 0x124 CALLDATALOAD ISZERO ISZERO DUP1 PUSH2 0x2B56 JUMPI JUMPDEST ISZERO PUSH2 0x2B19 JUMPI PUSH1 0xA DUP7 MLOAD GT PUSH2 0x2AE4 JUMPI DUP5 JUMPDEST DUP7 MLOAD DUP2 LT ISZERO PUSH2 0x213B JUMPI PUSH1 0x32 PUSH2 0x20F2 DUP3 DUP10 PUSH2 0x3A02 JUMP JUMPDEST MLOAD MLOAD GT PUSH2 0x2107 JUMPI PUSH2 0x2102 SWAP1 PUSH2 0x39DD JUMP JUMPDEST PUSH2 0x20DD JUMP JUMPDEST PUSH1 0x40 MLOAD PUSH3 0x461BCD PUSH1 0xE5 SHL DUP2 MSTORE PUSH1 0x20 PUSH1 0x4 DUP3 ADD MSTORE PUSH1 0xC PUSH1 0x24 DUP3 ADD MSTORE PUSH12 0x54616720746F6F206C6F6E67 PUSH1 0xA0 SHL PUSH1 0x44 DUP3 ADD MSTORE PUSH1 0x64 SWAP1 REVERT JUMPDEST POP DUP6 DUP8 PUSH2 0x2149 PUSH1 0xB SLOAD PUSH2 0x39DD JUMP JUMPDEST SWAP5 DUP6 PUSH1 0xB SSTORE PUSH1 0x40 MLOAD SWAP4 PUSH2 0x215B DUP6 PUSH2 0x33C4 JUMP JUMPDEST DUP7 DUP6 MSTORE DUP8 PUSH1 0x20 DUP7 ADD MSTORE PUSH1 0x40 DUP6 ADD MSTORE PUSH1 0x60 DUP5 ADD MSTORE CALLER PUSH1 0x80 DUP5 ADD MSTORE DUP4 PUSH1 0xA0 DUP5 ADD MSTORE PUSH1 0xC0 DUP4 ADD MSTORE PUSH1 0xE0 DUP3 ADD MSTORE TIMESTAMP PUSH2 0x100 DUP3 ADD MSTORE PUSH1 0xC4 CALLDATALOAD PUSH2 0x120 DUP3 ADD MSTORE PUSH1 0xE4 CALLDATALOAD PUSH2 0x140 DUP3 ADD MSTORE PUSH2 0x104 CALLDATALOAD PUSH2 0x160 DUP3 ADD MSTORE PUSH2 0x124 CALLDATALOAD PUSH2 0x180 DUP3 ADD MSTORE DUP5 PUSH2 0x1A0 DUP3 ADD MSTORE DUP5 PUSH2 0x1C0 DUP3 ADD MSTORE DUP3 DUP6 MSTORE PUSH1 0xD PUSH1 0x20 MSTORE PUSH1 0x40 DUP6 KECCAK256 SWAP1 DUP1 MLOAD DUP3 SSTORE PUSH1 0x20 DUP2 ADD MLOAD DUP1 MLOAD SWAP1 PUSH1 0x1 PUSH1 0x1 PUSH1 0x40 SHL SUB DUP3 GT PUSH2 0x12B7 JUMPI DUP2 SWAP1 PUSH2 0x21F5 PUSH1 0x1 DUP7 ADD SLOAD PUSH2 0x3547 JUMP JUMPDEST PUSH1 0x1F DUP2 GT PUSH2 0x2AB1 JUMPI JUMPDEST POP PUSH1 0x20 SWAP1 PUSH1 0x1F DUP4 GT PUSH1 0x1 EQ PUSH2 0x2A42 JUMPI DUP10 SWAP3 PUSH2 0x2A37 JUMPI JUMPDEST POP POP DUP2 PUSH1 0x1 SHL SWAP2 PUSH1 0x0 NOT SWAP1 PUSH1 0x3 SHL SHR NOT AND OR PUSH1 0x1 DUP4 ADD SSTORE JUMPDEST PUSH1 0x40 DUP2 ADD MLOAD DUP1 MLOAD SWAP1 PUSH1 0x1 PUSH1 0x1 PUSH1 0x40 SHL SUB DUP3 GT PUSH2 0x12B7 JUMPI DUP2 SWAP1 PUSH2 0x2251 PUSH1 0x2 DUP7 ADD SLOAD PUSH2 0x3547 JUMP JUMPDEST PUSH1 0x1F DUP2 GT PUSH2 0x2A04 JUMPI JUMPDEST POP PUSH1 0x20 SWAP1 PUSH1 0x1F DUP4 GT PUSH1 0x1 EQ PUSH2 0x2995 JUMPI DUP10 SWAP3 PUSH2 0x298A JUMPI JUMPDEST POP POP DUP2 PUSH1 0x1 SHL SWAP2 PUSH1 0x0 NOT SWAP1 PUSH1 0x3 SHL SHR NOT AND OR PUSH1 0x2 DUP4 ADD SSTORE JUMPDEST PUSH1 0x60 DUP2 ADD MLOAD DUP1 MLOAD SWAP1 PUSH1 0x1 PUSH1 0x1 PUSH1 0x40 SHL SUB DUP3 GT PUSH2 0x12B7 JUMPI DUP2 SWAP1 PUSH2 0x22AD PUSH1 0x3 DUP7 ADD SLOAD PUSH2 0x3547 JUMP JUMPDEST PUSH1 0x1F DUP2 GT PUSH2 0x2957 JUMPI JUMPDEST POP PUSH1 0x20 SWAP1 PUSH1 0x1F DUP4 GT PUSH1 0x1 EQ PUSH2 0x28E8 JUMPI DUP10 SWAP3 PUSH2 0x28DD JUMPI JUMPDEST POP POP DUP2 PUSH1 0x1 SHL SWAP2 PUSH1 0x0 NOT SWAP1 PUSH1 0x3 SHL SHR NOT AND OR PUSH1 0x3 DUP4 ADD SSTORE JUMPDEST PUSH1 0x4 DUP3 ADD PUSH1 0x1 DUP1 PUSH1 0xA0 SHL SUB PUSH1 0x80 DUP4 ADD MLOAD AND PUSH1 0x1 PUSH1 0x1 PUSH1 0x60 SHL SUB PUSH1 0xA0 SHL DUP3 SLOAD AND OR SWAP1 SSTORE PUSH1 0xA0 DUP2 ADD MLOAD DUP1 MLOAD SWAP1 PUSH1 0x1 PUSH1 0x1 PUSH1 0x40 SHL SUB DUP3 GT PUSH2 0x12B7 JUMPI DUP2 SWAP1 PUSH2 0x232B PUSH1 0x5 DUP7 ADD SLOAD PUSH2 0x3547 JUMP JUMPDEST PUSH1 0x1F DUP2 GT PUSH2 0x28AA JUMPI JUMPDEST POP PUSH1 0x20 SWAP1 PUSH1 0x1F DUP4 GT PUSH1 0x1 EQ PUSH2 0x283B JUMPI DUP10 SWAP3 PUSH2 0x2830 JUMPI JUMPDEST POP POP DUP2 PUSH1 0x1 SHL SWAP2 PUSH1 0x0 NOT SWAP1 PUSH1 0x3 SHL SHR NOT AND OR PUSH1 0x5 DUP4 ADD SSTORE JUMPDEST PUSH1 0xC0 DUP2 ADD MLOAD DUP1 MLOAD SWAP1 PUSH1 0x1 PUSH1 0x1 PUSH1 0x40 SHL SUB DUP3 GT PUSH2 0x12B7 JUMPI DUP2 SWAP1 PUSH2 0x2387 PUSH1 0x6 DUP7 ADD SLOAD PUSH2 0x3547 JUMP JUMPDEST PUSH1 0x1F DUP2 GT PUSH2 0x27FD JUMPI JUMPDEST POP PUSH1 0x20 SWAP1 PUSH1 0x1F DUP4 GT PUSH1 0x1 EQ PUSH2 0x278E JUMPI DUP10 SWAP3 PUSH2 0x2783 JUMPI JUMPDEST POP POP DUP2 PUSH1 0x1 SHL SWAP2 PUSH1 0x0 NOT SWAP1 PUSH1 0x3 SHL SHR NOT AND OR PUSH1 0x6 DUP4 ADD SSTORE JUMPDEST PUSH1 0xE0 DUP2 ADD MLOAD DUP1 MLOAD SWAP1 PUSH1 0x1 PUSH1 0x40 SHL DUP3 GT PUSH2 0x12B7 JUMPI PUSH1 0x7 DUP5 ADD SLOAD DUP3 PUSH1 0x7 DUP7 ADD SSTORE DUP1 DUP4 LT PUSH2 0x270F JUMPI JUMPDEST POP PUSH1 0x20 ADD PUSH1 0x7 DUP5 ADD DUP9 MSTORE PUSH1 0x20 DUP9 KECCAK256 DUP9 SWAP2 JUMPDEST DUP4 DUP4 LT PUSH2 0x25DF JUMPI POP POP POP POP PUSH2 0x100 DUP2 ADD MLOAD PUSH1 0x8 DUP4 ADD SSTORE PUSH2 0x120 DUP2 ADD MLOAD PUSH1 0x9 DUP4 ADD SSTORE PUSH2 0x140 DUP2 ADD MLOAD PUSH1 0xA DUP4 ADD SSTORE PUSH2 0x160 DUP2 ADD MLOAD PUSH1 0xB DUP4 ADD SSTORE PUSH2 0x180 DUP2 ADD MLOAD PUSH1 0xC DUP4 ADD SSTORE PUSH1 0xD DUP3 ADD PUSH2 0x1A0 DUP3 ADD MLOAD PUSH1 0x2 DUP2 LT ISZERO PUSH2 0x25CB JUMPI SWAP2 PUSH2 0x1C0 SWAP2 PUSH1 0xE SWAP4 PUSH1 0xFF DUP1 NOT DUP4 SLOAD AND SWAP2 AND OR SWAP1 SSTORE ADD MLOAD SWAP2 ADD SSTORE PUSH2 0x2472 PUSH2 0x104 CALLDATALOAD PUSH1 0xC4 CALLDATALOAD PUSH2 0x3A4F JUMP JUMPDEST POP PUSH1 0x1 PUSH2 0x104 CALLDATALOAD ADD DUP1 PUSH2 0x104 CALLDATALOAD GT PUSH2 0xC58 JUMPI JUMPDEST PUSH1 0xC4 CALLDATALOAD DUP2 GT ISZERO PUSH2 0x258E JUMPI POP CALLER DUP5 MSTORE PUSH1 0x10 PUSH1 0x20 MSTORE PUSH1 0x40 DUP5 KECCAK256 PUSH3 0x15180 TIMESTAMP DIV DUP6 MSTORE PUSH1 0x20 MSTORE PUSH1 0x40 DUP5 KECCAK256 PUSH2 0x24B5 DUP2 SLOAD PUSH2 0x39DD JUMP JUMPDEST SWAP1 SSTORE DUP4 DUP1 DUP1 DUP1 PUSH8 0xDE0B6B3A7640000 PUSH20 0x9402F9F20B4A27B55B1CC6CF015D98F764814FB2 DUP3 CALL ISZERO PUSH2 0x257A JUMPI PUSH8 0xDE0B6B3A7640000 CALLVALUE GT PUSH2 0x2552 JUMPI JUMPDEST PUSH2 0x2538 PUSH32 0x9A83921AA1958993687DBB52EE90C6D28584E48A022470265AA4D743A24C9BA7 SWAP2 PUSH2 0x252A PUSH1 0x40 MLOAD SWAP6 PUSH1 0x80 DUP8 MSTORE PUSH1 0x80 DUP8 ADD SWAP1 PUSH2 0x32EF JUMP JUMPDEST SWAP1 DUP6 DUP3 SUB PUSH1 0x20 DUP8 ADD MSTORE PUSH2 0x32EF JUMP JUMPDEST SWAP3 PUSH1 0xC4 CALLDATALOAD PUSH1 0x40 DUP3 ADD MSTORE PUSH1 0xE4 CALLDATALOAD PUSH1 0x60 DUP3 ADD MSTORE DUP1 CALLER SWAP5 SUB SWAP1 LOG3 DUP1 RETURN JUMPDEST PUSH8 0xDE0B6B3A763FFFF NOT CALLVALUE ADD CALLVALUE DUP2 GT PUSH2 0xC58 JUMPI DUP5 DUP1 DUP1 DUP1 SWAP4 DUP2 DUP2 ISZERO PUSH2 0x2585 JUMPI JUMPDEST CALLER SWAP1 CALL PUSH2 0x24F0 JUMPI JUMPDEST PUSH1 0x40 MLOAD RETURNDATASIZE DUP6 DUP3 RETURNDATACOPY RETURNDATASIZE SWAP1 REVERT JUMPDEST POP PUSH2 0x8FC PUSH2 0x2572 JUMP JUMPDEST DUP3 DUP6 MSTORE PUSH1 0x13 PUSH1 0x20 MSTORE PUSH1 0x40 DUP6 KECCAK256 DUP1 SLOAD SWAP1 PUSH1 0x1 PUSH1 0x40 SHL DUP3 LT ISZERO PUSH2 0x136E JUMPI DUP3 PUSH2 0xF03 DUP4 PUSH2 0x25C1 SWAP4 PUSH1 0x1 PUSH2 0x25C6 SWAP8 SWAP7 ADD DUP2 SSTORE PUSH2 0x335B JUMP JUMPDEST PUSH2 0x39DD JUMP JUMPDEST PUSH2 0x2485 JUMP JUMPDEST PUSH4 0x4E487B71 PUSH1 0xE0 SHL DUP9 MSTORE PUSH1 0x21 PUSH1 0x4 MSTORE PUSH1 0x24 DUP9 REVERT JUMPDEST DUP1 MLOAD DUP1 MLOAD SWAP1 PUSH1 0x1 PUSH1 0x1 PUSH1 0x40 SHL SUB DUP3 GT PUSH2 0x26FB JUMPI DUP12 PUSH2 0x25FD DUP6 SLOAD PUSH2 0x3547 JUMP JUMPDEST PUSH1 0x1F DUP2 GT PUSH2 0x26C0 JUMPI JUMPDEST POP POP PUSH1 0x20 SWAP1 DUP13 PUSH1 0x1F DUP5 GT PUSH1 0x1 EQ PUSH2 0x2653 JUMPI SWAP3 DUP1 PUSH1 0x20 SWAP4 PUSH1 0x1 SWAP7 SWAP4 DUP8 SWAP7 SWAP3 PUSH2 0x2648 JUMPI JUMPDEST POP POP PUSH1 0x0 NOT PUSH1 0x3 DUP4 SWAP1 SHL SHR NOT AND SWAP1 DUP5 SHL OR DUP6 SSTORE JUMPDEST ADD SWAP3 ADD SWAP3 ADD SWAP2 SWAP1 PUSH2 0x23F5 JUMP JUMPDEST ADD MLOAD SWAP1 POP DUP16 DUP1 PUSH2 0x2628 JUMP JUMPDEST DUP6 SWAP1 MSTORE PUSH1 0x20 DUP14 KECCAK256 SWAP2 SWAP1 DUP14 JUMPDEST PUSH1 0x1F NOT DUP6 AND DUP2 LT PUSH2 0x26A8 JUMPI POP DUP4 PUSH1 0x20 SWAP4 PUSH1 0x1 SWAP7 SWAP4 DUP8 SWAP7 SWAP4 DUP8 SWAP5 PUSH1 0x1F NOT DUP2 AND LT PUSH2 0x268F JUMPI JUMPDEST POP POP POP DUP2 SHL ADD DUP6 SSTORE PUSH2 0x263C JUMP JUMPDEST ADD MLOAD PUSH1 0x0 NOT PUSH1 0xF8 DUP5 PUSH1 0x3 SHL AND SHR NOT AND SWAP1 SSTORE DUP16 DUP1 DUP1 PUSH2 0x2682 JUMP JUMPDEST SWAP2 SWAP3 PUSH1 0x20 PUSH1 0x1 DUP2 SWAP3 DUP7 DUP6 ADD MLOAD DUP2 SSTORE ADD SWAP5 ADD SWAP3 ADD PUSH2 0x265E JUMP JUMPDEST PUSH1 0x20 DUP3 DUP8 PUSH2 0x26EA SWAP5 MSTORE KECCAK256 PUSH1 0x1F DUP6 ADD PUSH1 0x5 SHR DUP2 ADD SWAP2 PUSH1 0x20 DUP7 LT PUSH2 0x26F1 JUMPI JUMPDEST PUSH1 0x1F ADD PUSH1 0x5 SHR ADD SWAP1 PUSH2 0x3A38 JUMP JUMPDEST DUP12 DUP14 PUSH2 0x2606 JUMP JUMPDEST SWAP1 SWAP2 POP DUP2 SWAP1 PUSH2 0x26DD JUMP JUMPDEST PUSH4 0x4E487B71 PUSH1 0xE0 SHL DUP13 MSTORE PUSH1 0x41 PUSH1 0x4 MSTORE PUSH1 0x24 DUP13 REVERT JUMPDEST PUSH1 0x7 DUP6 ADD DUP10 MSTORE PUSH1 0x20 DUP10 KECCAK256 SWAP1 DUP4 DUP3 ADD JUMPDEST DUP2 DUP4 ADD DUP2 LT PUSH2 0x272E JUMPI POP POP PUSH2 0x23E4 JUMP JUMPDEST DUP1 DUP12 PUSH2 0x273C PUSH1 0x1 SWAP4 SLOAD PUSH2 0x3547 JUMP JUMPDEST DUP1 PUSH2 0x274A JUMPI JUMPDEST POP POP ADD PUSH2 0x271E JUMP JUMPDEST PUSH1 0x1F DUP2 GT DUP5 EQ PUSH2 0x275F JUMPI POP DUP2 SSTORE JUMPDEST DUP12 DUP14 PUSH2 0x2742 JUMP JUMPDEST DUP3 DUP3 MSTORE PUSH2 0x277A PUSH1 0x1F PUSH1 0x20 DUP5 KECCAK256 SWAP3 ADD PUSH1 0x5 SHR DUP3 ADD DUP6 DUP4 ADD PUSH2 0x3A38 JUMP JUMPDEST DUP2 DUP4 SSTORE SSTORE PUSH2 0x2758 JUMP JUMPDEST ADD MLOAD SWAP1 POP DUP9 DUP1 PUSH2 0x23A6 JUMP JUMPDEST SWAP3 POP PUSH1 0x6 DUP6 ADD DUP10 MSTORE PUSH1 0x20 DUP10 KECCAK256 SWAP1 DUP10 SWAP4 JUMPDEST PUSH1 0x1F NOT DUP5 AND DUP6 LT PUSH2 0x27E2 JUMPI PUSH1 0x1 SWAP5 POP DUP4 PUSH1 0x1F NOT DUP2 AND LT PUSH2 0x27C9 JUMPI JUMPDEST POP POP POP DUP2 SHL ADD PUSH1 0x6 DUP4 ADD SSTORE PUSH2 0x23BE JUMP JUMPDEST ADD MLOAD PUSH1 0x0 NOT PUSH1 0xF8 DUP5 PUSH1 0x3 SHL AND SHR NOT AND SWAP1 SSTORE DUP9 DUP1 DUP1 PUSH2 0x27B9 JUMP JUMPDEST DUP2 DUP2 ADD MLOAD DUP4 SSTORE PUSH1 0x20 SWAP5 DUP6 ADD SWAP5 PUSH1 0x1 SWAP1 SWAP4 ADD SWAP3 SWAP1 SWAP2 ADD SWAP1 PUSH2 0x279E JUMP JUMPDEST PUSH2 0x282A SWAP1 PUSH1 0x6 DUP8 ADD DUP12 MSTORE PUSH1 0x20 DUP12 KECCAK256 PUSH1 0x1F DUP6 ADD PUSH1 0x5 SHR DUP2 ADD SWAP2 PUSH1 0x20 DUP7 LT PUSH2 0x26F1 JUMPI PUSH1 0x1F ADD PUSH1 0x5 SHR ADD SWAP1 PUSH2 0x3A38 JUMP JUMPDEST DUP10 PUSH2 0x2390 JUMP JUMPDEST ADD MLOAD SWAP1 POP DUP9 DUP1 PUSH2 0x234A JUMP JUMPDEST SWAP3 POP PUSH1 0x5 DUP6 ADD DUP10 MSTORE PUSH1 0x20 DUP10 KECCAK256 SWAP1 DUP10 SWAP4 JUMPDEST PUSH1 0x1F NOT DUP5 AND DUP6 LT PUSH2 0x288F JUMPI PUSH1 0x1 SWAP5 POP DUP4 PUSH1 0x1F NOT DUP2 AND LT PUSH2 0x2876 JUMPI JUMPDEST POP POP POP DUP2 SHL ADD PUSH1 0x5 DUP4 ADD SSTORE PUSH2 0x2362 JUMP JUMPDEST ADD MLOAD PUSH1 0x0 NOT PUSH1 0xF8 DUP5 PUSH1 0x3 SHL AND SHR NOT AND SWAP1 SSTORE DUP9 DUP1 DUP1 PUSH2 0x2866 JUMP JUMPDEST DUP2 DUP2 ADD MLOAD DUP4 SSTORE PUSH1 0x20 SWAP5 DUP6 ADD SWAP5 PUSH1 0x1 SWAP1 SWAP4 ADD SWAP3 SWAP1 SWAP2 ADD SWAP1 PUSH2 0x284B JUMP JUMPDEST PUSH2 0x28D7 SWAP1 PUSH1 0x5 DUP8 ADD DUP12 MSTORE PUSH1 0x20 DUP12 KECCAK256 PUSH1 0x1F DUP6 ADD PUSH1 0x5 SHR DUP2 ADD SWAP2 PUSH1 0x20 DUP7 LT PUSH2 0x26F1 JUMPI PUSH1 0x1F ADD PUSH1 0x5 SHR ADD SWAP1 PUSH2 0x3A38 JUMP JUMPDEST DUP10 PUSH2 0x2334 JUMP JUMPDEST ADD MLOAD SWAP1 POP DUP9 DUP1 PUSH2 0x22CC JUMP JUMPDEST SWAP3 POP PUSH1 0x3 DUP6 ADD DUP10 MSTORE PUSH1 0x20 DUP10 KECCAK256 SWAP1 DUP10 SWAP4 JUMPDEST PUSH1 0x1F NOT DUP5 AND DUP6 LT PUSH2 0x293C JUMPI PUSH1 0x1 SWAP5 POP DUP4 PUSH1 0x1F NOT DUP2 AND LT PUSH2 0x2923 JUMPI JUMPDEST POP POP POP DUP2 SHL ADD PUSH1 0x3 DUP4 ADD SSTORE PUSH2 0x22E4 JUMP JUMPDEST ADD MLOAD PUSH1 0x0 NOT PUSH1 0xF8 DUP5 PUSH1 0x3 SHL AND SHR NOT AND SWAP1 SSTORE DUP9 DUP1 DUP1 PUSH2 0x2913 JUMP JUMPDEST DUP2 DUP2 ADD MLOAD DUP4 SSTORE PUSH1 0x20 SWAP5 DUP6 ADD SWAP5 PUSH1 0x1 SWAP1 SWAP4 ADD SWAP3 SWAP1 SWAP2 ADD SWAP1 PUSH2 0x28F8 JUMP JUMPDEST PUSH2 0x2984 SWAP1 PUSH1 0x3 DUP8 ADD DUP12 MSTORE PUSH1 0x20 DUP12 KECCAK256 PUSH1 0x1F DUP6 ADD PUSH1 0x5 SHR DUP2 ADD SWAP2 PUSH1 0x20 DUP7 LT PUSH2 0x26F1 JUMPI PUSH1 0x1F ADD PUSH1 0x5 SHR ADD SWAP1 PUSH2 0x3A38 JUMP JUMPDEST DUP10 PUSH2 0x22B6 JUMP JUMPDEST ADD MLOAD SWAP1 POP DUP9 DUP1 PUSH2 0x2270 JUMP JUMPDEST SWAP3 POP PUSH1 0x2 DUP6 ADD DUP10 MSTORE PUSH1 0x20 DUP10 KECCAK256 SWAP1 DUP10 SWAP4 JUMPDEST PUSH1 0x1F NOT DUP5 AND DUP6 LT PUSH2 0x29E9 JUMPI PUSH1 0x1 SWAP5 POP DUP4 PUSH1 0x1F NOT DUP2 AND LT PUSH2 0x29D0 JUMPI JUMPDEST POP POP POP DUP2 SHL ADD PUSH1 0x2 DUP4 ADD SSTORE PUSH2 0x2288 JUMP JUMPDEST ADD MLOAD PUSH1 0x0 NOT PUSH1 0xF8 DUP5 PUSH1 0x3 SHL AND SHR NOT AND SWAP1 SSTORE DUP9 DUP1 DUP1 PUSH2 0x29C0 JUMP JUMPDEST DUP2 DUP2 ADD MLOAD DUP4 SSTORE PUSH1 0x20 SWAP5 DUP6 ADD SWAP5 PUSH1 0x1 SWAP1 SWAP4 ADD SWAP3 SWAP1 SWAP2 ADD SWAP1 PUSH2 0x29A5 JUMP JUMPDEST PUSH2 0x2A31 SWAP1 PUSH1 0x2 DUP8 ADD DUP12 MSTORE PUSH1 0x20 DUP12 KECCAK256 PUSH1 0x1F DUP6 ADD PUSH1 0x5 SHR DUP2 ADD SWAP2 PUSH1 0x20 DUP7 LT PUSH2 0x26F1 JUMPI PUSH1 0x1F ADD PUSH1 0x5 SHR ADD SWAP1 PUSH2 0x3A38 JUMP JUMPDEST DUP10 PUSH2 0x225A JUMP JUMPDEST ADD MLOAD SWAP1 POP DUP9 DUP1 PUSH2 0x2214 JUMP JUMPDEST SWAP3 POP PUSH1 0x1 DUP6 ADD DUP10 MSTORE PUSH1 0x20 DUP10 KECCAK256 SWAP1 DUP10 SWAP4 JUMPDEST PUSH1 0x1F NOT DUP5 AND DUP6 LT PUSH2 0x2A96 JUMPI PUSH1 0x1 SWAP5 POP DUP4 PUSH1 0x1F NOT DUP2 AND LT PUSH2 0x2A7D JUMPI JUMPDEST POP POP POP DUP2 SHL ADD PUSH1 0x1 DUP4 ADD SSTORE PUSH2 0x222C JUMP JUMPDEST ADD MLOAD PUSH1 0x0 NOT PUSH1 0xF8 DUP5 PUSH1 0x3 SHL AND SHR NOT AND SWAP1 SSTORE DUP9 DUP1 DUP1 PUSH2 0x2A6D JUMP JUMPDEST DUP2 DUP2 ADD MLOAD DUP4 SSTORE PUSH1 0x20 SWAP5 DUP6 ADD SWAP5 PUSH1 0x1 SWAP1 SWAP4 ADD SWAP3 SWAP1 SWAP2 ADD SWAP1 PUSH2 0x2A52 JUMP JUMPDEST PUSH2 0x2ADE SWAP1 PUSH1 0x1 DUP8 ADD DUP12 MSTORE PUSH1 0x20 DUP12 KECCAK256 PUSH1 0x1F DUP6 ADD PUSH1 0x5 SHR DUP2 ADD SWAP2 PUSH1 0x20 DUP7 LT PUSH2 0x26F1 JUMPI PUSH1 0x1F ADD PUSH1 0x5 SHR ADD SWAP1 PUSH2 0x3A38 JUMP JUMPDEST DUP10 PUSH2 0x21FE JUMP JUMPDEST PUSH1 0x40 MLOAD PUSH3 0x461BCD PUSH1 0xE5 SHL DUP2 MSTORE PUSH1 0x20 PUSH1 0x4 DUP3 ADD MSTORE PUSH1 0xD PUSH1 0x24 DUP3 ADD MSTORE PUSH13 0x546F6F206D616E792074616773 PUSH1 0x98 SHL PUSH1 0x44 DUP3 ADD MSTORE PUSH1 0x64 SWAP1 REVERT JUMPDEST PUSH1 0x40 MLOAD PUSH3 0x461BCD PUSH1 0xE5 SHL DUP2 MSTORE PUSH1 0x20 PUSH1 0x4 DUP3 ADD MSTORE PUSH1 0x15 PUSH1 0x24 DUP3 ADD MSTORE PUSH21 0x496E76616C6964206C6963656E736520726174696F PUSH1 0x58 SHL PUSH1 0x44 DUP3 ADD MSTORE PUSH1 0x64 SWAP1 REVERT JUMPDEST POP PUSH1 0x64 PUSH2 0x124 CALLDATALOAD GT ISZERO PUSH2 0x20CD JUMP JUMPDEST PUSH1 0x40 MLOAD PUSH3 0x461BCD PUSH1 0xE5 SHL DUP2 MSTORE PUSH1 0x20 PUSH1 0x4 DUP3 ADD MSTORE PUSH1 0x22 PUSH1 0x24 DUP3 ADD MSTORE PUSH32 0x43616E6E6F742072657461696E206D6F7265207468616E20746F74616C204E46 PUSH1 0x44 DUP3 ADD MSTORE PUSH2 0x5473 PUSH1 0xF0 SHL PUSH1 0x64 DUP3 ADD MSTORE PUSH1 0x84 SWAP1 REVERT JUMPDEST PUSH1 0x40 MLOAD PUSH3 0x461BCD PUSH1 0xE5 SHL DUP2 MSTORE PUSH1 0x20 PUSH1 0x4 DUP3 ADD MSTORE PUSH1 0x11 PUSH1 0x24 DUP3 ADD MSTORE PUSH17 0x496E76616C6964204E4654207072696365 PUSH1 0x78 SHL PUSH1 0x44 DUP3 ADD MSTORE PUSH1 0x64 SWAP1 REVERT JUMPDEST PUSH1 0x40 MLOAD PUSH3 0x461BCD PUSH1 0xE5 SHL DUP2 MSTORE PUSH1 0x20 PUSH1 0x4 DUP3 ADD MSTORE PUSH1 0x11 PUSH1 0x24 DUP3 ADD MSTORE PUSH17 0x125B9D985B1A59081391950818DBDD5B9D PUSH1 0x7A SHL PUSH1 0x44 DUP3 ADD MSTORE PUSH1 0x64 SWAP1 REVERT JUMPDEST POP PUSH2 0x2710 PUSH1 0xC4 CALLDATALOAD GT ISZERO PUSH2 0x20A8 JUMP JUMPDEST PUSH1 0x40 MLOAD PUSH3 0x461BCD PUSH1 0xE5 SHL DUP2 MSTORE PUSH1 0x20 PUSH1 0x4 DUP3 ADD MSTORE PUSH1 0x16 PUSH1 0x24 DUP3 ADD MSTORE PUSH22 0x92DCECC2D8D2C840E6EADADAC2E4F240D8CADCCEE8D PUSH1 0x53 SHL PUSH1 0x44 DUP3 ADD MSTORE PUSH1 0x64 SWAP1 REVERT JUMPDEST PUSH2 0x1F4 SWAP2 POP GT ISZERO CODESIZE PUSH2 0x2097 JUMP JUMPDEST PUSH1 0x40 MLOAD PUSH3 0x461BCD PUSH1 0xE5 SHL DUP2 MSTORE PUSH1 0x20 PUSH1 0x4 DUP3 ADD MSTORE PUSH1 0x16 PUSH1 0x24 DUP3 ADD MSTORE PUSH22 0x92DCECC2D8D2C840C6DEDCE8CADCE840D8CADCCEE8D PUSH1 0x53 SHL PUSH1 0x44 DUP3 ADD MSTORE PUSH1 0x64 SWAP1 REVERT JUMPDEST PUSH2 0x61A8 SWAP2 POP GT ISZERO CODESIZE PUSH2 0x2085 JUMP JUMPDEST PUSH1 0x40 MLOAD PUSH3 0x461BCD PUSH1 0xE5 SHL DUP2 MSTORE PUSH1 0x20 PUSH1 0x4 DUP3 ADD MSTORE PUSH1 0x14 PUSH1 0x24 DUP3 ADD MSTORE PUSH20 0x92DCECC2D8D2C840E8D2E8D8CA40D8CADCCEE8D PUSH1 0x63 SHL PUSH1 0x44 DUP3 ADD MSTORE PUSH1 0x64 SWAP1 REVERT JUMPDEST PUSH1 0xC8 SWAP2 POP GT ISZERO CODESIZE PUSH2 0x2073 JUMP JUMPDEST PUSH1 0x40 MLOAD PUSH3 0x461BCD PUSH1 0xE5 SHL DUP2 MSTORE PUSH1 0x20 PUSH1 0x4 DUP3 ADD MSTORE PUSH1 0x1B PUSH1 0x24 DUP3 ADD MSTORE PUSH32 0x496E73756666696369656E74207075626C697368696E67206665650000000000 PUSH1 0x44 DUP3 ADD MSTORE PUSH1 0x64 SWAP1 REVERT JUMPDEST PUSH1 0x40 MLOAD PUSH3 0x461BCD PUSH1 0xE5 SHL DUP2 MSTORE PUSH1 0x20 PUSH1 0x4 DUP3 ADD MSTORE PUSH1 0x23 PUSH1 0x24 DUP3 ADD MSTORE PUSH32 0x4461696C79206E61746976652061727469636C65206C696D6974206578636565 PUSH1 0x44 DUP3 ADD MSTORE PUSH3 0x191959 PUSH1 0xEA SHL PUSH1 0x64 DUP3 ADD MSTORE PUSH1 0x84 SWAP1 REVERT JUMPDEST PUSH1 0x40 MLOAD PUSH3 0x461BCD PUSH1 0xE5 SHL DUP2 MSTORE PUSH1 0x20 PUSH1 0x4 DUP3 ADD MSTORE PUSH1 0x28 PUSH1 0x24 DUP3 ADD MSTORE PUSH32 0x4D7573742068617665206C6F63616C20746F6B656E20666F7220746869732067 PUSH1 0x44 DUP3 ADD MSTORE PUSH8 0x656F677261706879 PUSH1 0xC0 SHL PUSH1 0x64 DUP3 ADD MSTORE PUSH1 0x84 SWAP1 REVERT JUMPDEST PUSH2 0x2E12 SWAP2 POP RETURNDATASIZE DUP1 DUP9 DUP4 RETURNDATACOPY PUSH2 0x1426 DUP2 DUP4 PUSH2 0x3447 JUMP JUMPDEST CODESIZE PUSH2 0x1FEE JUMP JUMPDEST PUSH1 0x40 MLOAD PUSH3 0x461BCD PUSH1 0xE5 SHL DUP2 MSTORE PUSH1 0x20 PUSH1 0x4 DUP3 ADD MSTORE PUSH1 0x1E PUSH1 0x24 DUP3 ADD MSTORE PUSH32 0x5075626C69736865722063726564656E7469616C732072657175697265640000 PUSH1 0x44 DUP3 ADD MSTORE PUSH1 0x64 SWAP1 REVERT JUMPDEST SWAP1 POP PUSH1 0x20 DUP2 RETURNDATASIZE PUSH1 0x20 GT PUSH2 0x2E8B JUMPI JUMPDEST DUP2 PUSH2 0x2E78 PUSH1 0x20 SWAP4 DUP4 PUSH2 0x3447 JUMP JUMPDEST DUP2 ADD SUB SLT PUSH2 0x2E87 JUMPI MLOAD CODESIZE PUSH2 0x1F96 JUMP JUMPDEST DUP6 DUP1 REVERT JUMPDEST RETURNDATASIZE SWAP2 POP PUSH2 0x2E6B JUMP JUMPDEST DUP2 CALLDATALOAD PUSH1 0x1 PUSH1 0x1 PUSH1 0x40 SHL SUB DUP2 GT PUSH2 0x2EC2 JUMPI PUSH1 0x20 SWAP2 PUSH2 0x2EB7 DUP4 SWAP3 PUSH1 0x24 CALLDATASIZE SWAP2 DUP10 ADD ADD PUSH2 0x34BA JUMP JUMPDEST DUP2 MSTORE ADD SWAP2 ADD SWAP1 PUSH2 0x1F36 JUMP JUMPDEST DUP10 DUP1 REVERT JUMPDEST DUP8 DUP1 REVERT JUMPDEST POP CALLVALUE PUSH2 0x241 JUMPI PUSH1 0x20 SWAP1 DUP2 PUSH1 0x3 NOT CALLDATASIZE ADD SLT PUSH2 0x241 JUMPI PUSH2 0x2EE6 PUSH2 0x3314 JUMP JUMPDEST PUSH1 0xB SLOAD SWAP2 SWAP3 SWAP1 PUSH1 0x1 PUSH1 0x1 PUSH1 0xA0 SHL SUB SWAP1 DUP2 AND SWAP1 DUP5 PUSH1 0x1 JUMPDEST DUP6 DUP2 GT ISZERO PUSH2 0x2F93 JUMPI POP PUSH2 0x2F0E DUP7 PUSH2 0x34D8 JUMP JUMPDEST SWAP6 PUSH2 0x2F1C PUSH1 0x40 MLOAD SWAP8 DUP9 PUSH2 0x3447 JUMP JUMPDEST DUP1 DUP8 MSTORE PUSH2 0x2F2B PUSH1 0x1F NOT SWAP2 PUSH2 0x34D8 JUMP JUMPDEST ADD CALLDATASIZE DUP6 DUP9 ADD CALLDATACOPY DUP1 SWAP4 PUSH1 0x1 JUMPDEST DUP7 DUP2 GT ISZERO PUSH2 0x2F4C JUMPI PUSH1 0x40 MLOAD DUP1 PUSH2 0xB9D DUP11 DUP3 PUSH2 0x3389 JUMP JUMPDEST DUP1 DUP4 MSTORE PUSH1 0xD DUP3 MSTORE DUP5 DUP5 PUSH1 0x4 PUSH1 0x40 DUP7 KECCAK256 ADD SLOAD AND EQ PUSH2 0x2F72 JUMPI JUMPDEST PUSH2 0x2F6D SWAP1 PUSH2 0x39DD JUMP JUMPDEST PUSH2 0x2F36 JUMP JUMPDEST SWAP5 PUSH2 0x2F8B DUP2 DUP8 PUSH2 0x2F85 PUSH2 0x2F6D SWAP5 DUP13 PUSH2 0x3A02 JUMP JUMPDEST MSTORE PUSH2 0x39DD JUMP JUMPDEST SWAP6 SWAP1 POP PUSH2 0x2F64 JUMP JUMPDEST DUP1 DUP3 MSTORE PUSH1 0xD DUP6 MSTORE DUP4 DUP4 PUSH1 0x4 PUSH1 0x40 DUP6 KECCAK256 ADD SLOAD AND EQ PUSH2 0x2FB9 JUMPI JUMPDEST PUSH2 0x2FB4 SWAP1 PUSH2 0x39DD JUMP JUMPDEST PUSH2 0x2EFC JUMP JUMPDEST SWAP6 PUSH2 0x2FC6 PUSH2 0x2FB4 SWAP2 PUSH2 0x39DD JUMP JUMPDEST SWAP7 SWAP1 POP PUSH2 0x2FAB JUMP JUMPDEST POP CALLVALUE PUSH2 0x241 JUMPI PUSH2 0x2FDD CALLDATASIZE PUSH2 0x3345 JUMP JUMPDEST SWAP2 SWAP1 DUP2 MSTORE PUSH1 0x13 PUSH1 0x20 MSTORE PUSH1 0x40 DUP2 KECCAK256 SWAP1 DUP2 SLOAD DUP4 LT ISZERO PUSH2 0x241 JUMPI PUSH1 0x20 PUSH2 0x3000 DUP5 DUP5 PUSH2 0x335B JUMP JUMPDEST SWAP1 SLOAD PUSH1 0x40 MLOAD SWAP2 PUSH1 0x3 SHL SHR DUP2 MSTORE RETURN JUMPDEST POP CALLVALUE PUSH2 0x241 JUMPI DUP1 PUSH1 0x3 NOT CALLDATASIZE ADD SLT PUSH2 0x241 JUMPI PUSH1 0x20 PUSH1 0xB SLOAD PUSH1 0x40 MLOAD SWAP1 DUP2 MSTORE RETURN JUMPDEST POP CALLVALUE PUSH2 0x241 JUMPI PUSH1 0x40 CALLDATASIZE PUSH1 0x3 NOT ADD SLT PUSH2 0x241 JUMPI PUSH2 0x3046 PUSH2 0x3314 JUMP JUMPDEST PUSH1 0x24 CALLDATALOAD PUSH2 0x3052 DUP2 PUSH2 0x3944 JUMP JUMPDEST CALLER ISZERO ISZERO DUP1 PUSH2 0x30FC JUMPI JUMPDEST DUP1 PUSH2 0x30D1 JUMPI JUMPDEST PUSH2 0x30B9 JUMPI PUSH1 0x1 PUSH1 0x1 PUSH1 0xA0 SHL SUB SWAP3 DUP4 AND SWAP3 DUP3 SWAP2 DUP5 SWAP2 AND PUSH32 0x8C5BE1E5EBEC7D5BD14F71427D1E84F3DD0314C0F7B2291E5B200AC8C7C3B925 DUP7 DUP1 LOG4 DUP3 MSTORE PUSH1 0x6 PUSH1 0x20 MSTORE PUSH1 0x40 DUP3 KECCAK256 DUP1 SLOAD PUSH1 0x1 PUSH1 0x1 PUSH1 0xA0 SHL SUB NOT AND SWAP1 SWAP2 OR SWAP1 SSTORE DUP1 RETURN JUMPDEST PUSH1 0x40 MLOAD PUSH4 0xA9FBF51F PUSH1 0xE0 SHL DUP2 MSTORE CALLER PUSH1 0x4 DUP3 ADD MSTORE PUSH1 0x24 SWAP1 REVERT JUMPDEST POP PUSH1 0x1 PUSH1 0x1 PUSH1 0xA0 SHL SUB DUP2 AND DUP5 MSTORE PUSH1 0x7 PUSH1 0x20 SWAP1 DUP2 MSTORE PUSH1 0x40 DUP1 DUP7 KECCAK256 CALLER DUP8 MSTORE SWAP1 SWAP2 MSTORE DUP5 KECCAK256 SLOAD PUSH1 0xFF AND ISZERO PUSH2 0x3061 JUMP JUMPDEST POP PUSH1 0x1 PUSH1 0x1 PUSH1 0xA0 SHL SUB DUP2 AND CALLER EQ ISZERO PUSH2 0x305B JUMP JUMPDEST POP CALLVALUE PUSH2 0x241 JUMPI PUSH1 0x20 CALLDATASIZE PUSH1 0x3 NOT ADD SLT PUSH2 0x241 JUMPI PUSH1 0x20 SWAP1 PUSH1 0x4 CALLDATALOAD PUSH2 0x3130 DUP2 PUSH2 0x3944 JUMP JUMPDEST POP DUP2 MSTORE PUSH1 0x6 DUP3 MSTORE PUSH1 0x40 PUSH1 0x1 DUP1 PUSH1 0xA0 SHL SUB SWAP2 KECCAK256 SLOAD AND PUSH1 0x40 MLOAD SWAP1 DUP2 MSTORE RETURN JUMPDEST POP CALLVALUE PUSH2 0x241 JUMPI DUP1 PUSH1 0x3 NOT CALLDATASIZE ADD SLT PUSH2 0x241 JUMPI PUSH1 0x40 MLOAD SWAP1 DUP1 PUSH1 0x2 SLOAD PUSH2 0x316E DUP2 PUSH2 0x3547 JUMP JUMPDEST DUP1 DUP6 MSTORE SWAP2 PUSH1 0x1 SWAP2 DUP1 DUP4 AND SWAP1 DUP2 ISZERO PUSH2 0x1916 JUMPI POP PUSH1 0x1 EQ PUSH2 0x3197 JUMPI PUSH2 0xB9D DUP6 PUSH2 0xB89 DUP2 DUP8 SUB DUP3 PUSH2 0x3447 JUMP JUMPDEST SWAP3 POP PUSH1 0x2 DUP4 MSTORE PUSH32 0x405787FA12A823E0F2B7631CC41B3BA8828B3321CA811111FA75CD3AA3BB5ACE JUMPDEST DUP3 DUP5 LT PUSH2 0x31DA JUMPI POP POP POP DUP2 ADD PUSH1 0x20 ADD PUSH2 0xB89 DUP3 PUSH2 0xB9D PUSH2 0x18AB JUMP JUMPDEST DUP1 SLOAD PUSH1 0x20 DUP6 DUP8 ADD DUP2 ADD SWAP2 SWAP1 SWAP2 MSTORE SWAP1 SWAP4 ADD SWAP3 DUP2 ADD PUSH2 0x31BF JUMP JUMPDEST POP CALLVALUE PUSH2 0x241 JUMPI DUP1 PUSH1 0x3 NOT CALLDATASIZE ADD SLT PUSH2 0x241 JUMPI PUSH1 0x20 PUSH1 0x40 MLOAD PUSH2 0x61A8 DUP2 MSTORE RETURN JUMPDEST POP CALLVALUE PUSH2 0x241 JUMPI DUP1 PUSH1 0x3 NOT CALLDATASIZE ADD SLT PUSH2 0x241 JUMPI PUSH1 0x20 PUSH1 0x40 MLOAD PUSH1 0xBE DUP2 MSTORE RETURN JUMPDEST SWAP1 POP CALLVALUE PUSH2 0x17BA JUMPI PUSH1 0x20 CALLDATASIZE PUSH1 0x3 NOT ADD SLT PUSH2 0x17BA JUMPI PUSH1 0x4 CALLDATALOAD PUSH4 0xFFFFFFFF PUSH1 0xE0 SHL DUP2 AND DUP1 SWAP2 SUB PUSH2 0x1215 JUMPI PUSH1 0x20 SWAP3 POP PUSH4 0x24832483 PUSH1 0xE1 SHL DUP2 EQ SWAP1 DUP2 ISZERO PUSH2 0x326F JUMPI JUMPDEST POP ISZERO ISZERO DUP2 MSTORE RETURN JUMPDEST PUSH4 0x80AC58CD PUSH1 0xE0 SHL DUP2 EQ SWAP2 POP DUP2 ISZERO PUSH2 0x32BB JUMPI JUMPDEST DUP2 ISZERO PUSH2 0x3290 JUMPI JUMPDEST POP CODESIZE PUSH2 0x3268 JUMP JUMPDEST PUSH4 0x152A902D PUSH1 0xE1 SHL DUP2 EQ SWAP2 POP DUP2 ISZERO PUSH2 0x32AA JUMPI JUMPDEST POP CODESIZE PUSH2 0x3289 JUMP JUMPDEST PUSH4 0x1FFC9A7 PUSH1 0xE0 SHL EQ SWAP1 POP CODESIZE PUSH2 0x32A3 JUMP JUMPDEST PUSH4 0x5B5E139F PUSH1 0xE0 SHL DUP2 EQ SWAP2 POP PUSH2 0x3282 JUMP JUMPDEST PUSH1 0x0 JUMPDEST DUP4 DUP2 LT PUSH2 0x32DF JUMPI POP POP PUSH1 0x0 SWAP2 ADD MSTORE JUMP JUMPDEST DUP2 DUP2 ADD MLOAD DUP4 DUP3 ADD MSTORE PUSH1 0x20 ADD PUSH2 0x32CF JUMP JUMPDEST SWAP1 PUSH1 0x20 SWAP2 PUSH2 0x3308 DUP2 MLOAD DUP1 SWAP3 DUP2 DUP6 MSTORE DUP6 DUP1 DUP7 ADD SWAP2 ADD PUSH2 0x32CC JUMP JUMPDEST PUSH1 0x1F ADD PUSH1 0x1F NOT AND ADD ADD SWAP1 JUMP JUMPDEST PUSH1 0x4 CALLDATALOAD SWAP1 PUSH1 0x1 PUSH1 0x1 PUSH1 0xA0 SHL SUB DUP3 AND DUP3 SUB PUSH2 0x332A JUMPI JUMP JUMPDEST PUSH1 0x0 DUP1 REVERT JUMPDEST PUSH1 0x24 CALLDATALOAD SWAP1 PUSH1 0x1 PUSH1 0x1 PUSH1 0xA0 SHL SUB DUP3 AND DUP3 SUB PUSH2 0x332A JUMPI JUMP JUMPDEST PUSH1 0x40 SWAP1 PUSH1 0x3 NOT ADD SLT PUSH2 0x332A JUMPI PUSH1 0x4 CALLDATALOAD SWAP1 PUSH1 0x24 CALLDATALOAD SWAP1 JUMP JUMPDEST DUP1 SLOAD DUP3 LT ISZERO PUSH2 0x3373 JUMPI PUSH1 0x0 MSTORE PUSH1 0x20 PUSH1 0x0 KECCAK256 ADD SWAP1 PUSH1 0x0 SWAP1 JUMP JUMPDEST PUSH4 0x4E487B71 PUSH1 0xE0 SHL PUSH1 0x0 MSTORE PUSH1 0x32 PUSH1 0x4 MSTORE PUSH1 0x24 PUSH1 0x0 REVERT JUMPDEST PUSH1 0x20 SWAP1 DUP2 PUSH1 0x40 DUP2 DUP4 ADD SWAP3 DUP3 DUP2 MSTORE DUP6 MLOAD DUP1 SWAP5 MSTORE ADD SWAP4 ADD SWAP2 PUSH1 0x0 JUMPDEST DUP3 DUP2 LT PUSH2 0x33B0 JUMPI POP POP POP POP SWAP1 JUMP JUMPDEST DUP4 MLOAD DUP6 MSTORE SWAP4 DUP2 ADD SWAP4 SWAP3 DUP2 ADD SWAP3 PUSH1 0x1 ADD PUSH2 0x33A2 JUMP JUMPDEST PUSH2 0x1E0 DUP2 ADD SWAP1 DUP2 LT PUSH1 0x1 PUSH1 0x1 PUSH1 0x40 SHL SUB DUP3 GT OR PUSH2 0x33E0 JUMPI PUSH1 0x40 MSTORE JUMP JUMPDEST PUSH4 0x4E487B71 PUSH1 0xE0 SHL PUSH1 0x0 MSTORE PUSH1 0x41 PUSH1 0x4 MSTORE PUSH1 0x24 PUSH1 0x0 REVERT JUMPDEST PUSH1 0x20 DUP2 ADD SWAP1 DUP2 LT PUSH1 0x1 PUSH1 0x1 PUSH1 0x40 SHL SUB DUP3 GT OR PUSH2 0x33E0 JUMPI PUSH1 0x40 MSTORE JUMP JUMPDEST PUSH1 0x40 DUP2 ADD SWAP1 DUP2 LT PUSH1 0x1 PUSH1 0x1 PUSH1 0x40 SHL SUB DUP3 GT OR PUSH2 0x33E0 JUMPI PUSH1 0x40 MSTORE JUMP JUMPDEST PUSH1 0x60 DUP2 ADD SWAP1 DUP2 LT PUSH1 0x1 PUSH1 0x1 PUSH1 0x40 SHL SUB DUP3 GT OR PUSH2 0x33E0 JUMPI PUSH1 0x40 MSTORE JUMP JUMPDEST SWAP1 PUSH1 0x1F DUP1 NOT SWAP2 ADD AND DUP2 ADD SWAP1 DUP2 LT PUSH1 0x1 PUSH1 0x1 PUSH1 0x40 SHL SUB DUP3 GT OR PUSH2 0x33E0 JUMPI PUSH1 0x40 MSTORE JUMP JUMPDEST PUSH1 0x1 PUSH1 0x1 PUSH1 0x40 SHL SUB DUP2 GT PUSH2 0x33E0 JUMPI PUSH1 0x1F ADD PUSH1 0x1F NOT AND PUSH1 0x20 ADD SWAP1 JUMP JUMPDEST SWAP3 SWAP2 SWAP3 PUSH2 0x348F DUP3 PUSH2 0x3468 JUMP JUMPDEST SWAP2 PUSH2 0x349D PUSH1 0x40 MLOAD SWAP4 DUP5 PUSH2 0x3447 JUMP JUMPDEST DUP3 SWAP5 DUP2 DUP5 MSTORE DUP2 DUP4 ADD GT PUSH2 0x332A JUMPI DUP3 DUP2 PUSH1 0x20 SWAP4 DUP5 PUSH1 0x0 SWAP7 ADD CALLDATACOPY ADD ADD MSTORE JUMP JUMPDEST SWAP1 DUP1 PUSH1 0x1F DUP4 ADD SLT ISZERO PUSH2 0x332A JUMPI DUP2 PUSH1 0x20 PUSH2 0x34D5 SWAP4 CALLDATALOAD SWAP2 ADD PUSH2 0x3483 JUMP JUMPDEST SWAP1 JUMP JUMPDEST PUSH1 0x1 PUSH1 0x1 PUSH1 0x40 SHL SUB DUP2 GT PUSH2 0x33E0 JUMPI PUSH1 0x5 SHL PUSH1 0x20 ADD SWAP1 JUMP JUMPDEST PUSH1 0x60 SWAP1 PUSH1 0x3 NOT ADD SLT PUSH2 0x332A JUMPI PUSH1 0x1 PUSH1 0x1 PUSH1 0xA0 SHL SUB SWAP1 PUSH1 0x4 CALLDATALOAD DUP3 DUP2 AND DUP2 SUB PUSH2 0x332A JUMPI SWAP2 PUSH1 0x24 CALLDATALOAD SWAP1 DUP2 AND DUP2 SUB PUSH2 0x332A JUMPI SWAP1 PUSH1 0x44 CALLDATALOAD SWAP1 JUMP JUMPDEST CALLVALUE PUSH2 0x332A JUMPI PUSH1 0x0 CALLDATASIZE PUSH1 0x3 NOT ADD SLT PUSH2 0x332A JUMPI PUSH1 0x20 PUSH1 0x40 MLOAD PUSH8 0xDE0B6B3A7640000 DUP2 MSTORE RETURN JUMPDEST SWAP1 PUSH1 0x1 DUP3 DUP2 SHR SWAP3 AND DUP1 ISZERO PUSH2 0x3577 JUMPI JUMPDEST PUSH1 0x20 DUP4 LT EQ PUSH2 0x3561 JUMPI JUMP JUMPDEST PUSH4 0x4E487B71 PUSH1 0xE0 SHL PUSH1 0x0 MSTORE PUSH1 0x22 PUSH1 0x4 MSTORE PUSH1 0x24 PUSH1 0x0 REVERT JUMPDEST SWAP2 PUSH1 0x7F AND SWAP2 PUSH2 0x3556 JUMP JUMPDEST SWAP1 PUSH1 0x40 MLOAD SWAP2 DUP3 PUSH1 0x0 DUP3 SLOAD SWAP3 PUSH2 0x3595 DUP5 PUSH2 0x3547 JUMP JUMPDEST SWAP1 DUP2 DUP5 MSTORE PUSH1 0x1 SWAP5 DUP6 DUP2 AND SWAP1 DUP2 PUSH1 0x0 EQ PUSH2 0x3604 JUMPI POP PUSH1 0x1 EQ PUSH2 0x35C1 JUMPI JUMPDEST POP POP PUSH2 0x35BF SWAP3 POP SUB DUP4 PUSH2 0x3447 JUMP JUMPDEST JUMP JUMPDEST SWAP1 SWAP4 SWAP2 POP PUSH1 0x0 MSTORE PUSH1 0x20 SWAP1 DUP2 PUSH1 0x0 KECCAK256 SWAP4 PUSH1 0x0 SWAP2 JUMPDEST DUP2 DUP4 LT PUSH2 0x35EC JUMPI POP POP PUSH2 0x35BF SWAP4 POP DUP3 ADD ADD CODESIZE DUP1 PUSH2 0x35B1 JUMP JUMPDEST DUP6 SLOAD DUP9 DUP5 ADD DUP6 ADD MSTORE SWAP5 DUP6 ADD SWAP5 DUP8 SWAP5 POP SWAP2 DUP4 ADD SWAP2 PUSH2 0x35D4 JUMP JUMPDEST SWAP2 POP POP PUSH2 0x35BF SWAP5 POP PUSH1 0x20 SWAP3 POP PUSH1 0xFF NOT AND DUP3 DUP5 ADD MSTORE ISZERO ISZERO PUSH1 0x5 SHL DUP3 ADD ADD CODESIZE DUP1 PUSH2 0x35B1 JUMP JUMPDEST PUSH1 0x9 SLOAD PUSH1 0x1 PUSH1 0x1 PUSH1 0xA0 SHL SUB AND CALLER SUB PUSH2 0x363B JUMPI JUMP JUMPDEST PUSH1 0x40 MLOAD PUSH4 0x118CDAA7 PUSH1 0xE0 SHL DUP2 MSTORE CALLER PUSH1 0x4 DUP3 ADD MSTORE PUSH1 0x24 SWAP1 REVERT JUMPDEST PUSH1 0x1 PUSH1 0x1 PUSH1 0xA0 SHL SUB SWAP2 DUP3 AND SWAP3 SWAP1 SWAP2 DUP4 ISZERO PUSH2 0x37DC JUMPI PUSH1 0x0 SWAP3 DUP3 DUP5 MSTORE DUP3 PUSH1 0x20 SWAP6 PUSH1 0x4 DUP8 MSTORE PUSH1 0x40 SWAP7 DUP5 DUP9 DUP9 KECCAK256 SLOAD AND SWAP7 DUP8 SWAP2 CALLER ISZERO ISZERO DUP1 PUSH2 0x3743 JUMPI JUMPDEST POP SWAP1 PUSH1 0x4 PUSH32 0xDDF252AD1BE2C89B69C2B068FC378DAA952BA7F163C4A11628F55A4DF523B3EF SWAP3 DUP5 PUSH2 0x3710 JUMPI JUMPDEST DUP6 DUP4 MSTORE PUSH1 0x5 DUP2 MSTORE DUP12 DUP4 KECCAK256 DUP1 SLOAD PUSH1 0x1 ADD SWAP1 SSTORE DUP7 DUP4 MSTORE MSTORE DUP10 DUP2 KECCAK256 DUP1 SLOAD PUSH1 0x1 PUSH1 0x1 PUSH1 0xA0 SHL SUB NOT AND DUP6 OR SWAP1 SSTORE DUP1 LOG4 AND SWAP3 DUP4 DUP4 SUB PUSH2 0x36EF JUMPI POP POP POP POP JUMP JUMPDEST PUSH1 0x64 SWAP5 POP MLOAD SWAP3 PUSH4 0x64283D7B PUSH1 0xE0 SHL DUP5 MSTORE PUSH1 0x4 DUP5 ADD MSTORE PUSH1 0x24 DUP4 ADD MSTORE PUSH1 0x44 DUP3 ADD MSTORE REVERT JUMPDEST PUSH1 0x0 DUP8 DUP2 MSTORE PUSH1 0x6 PUSH1 0x20 MSTORE PUSH1 0x40 SWAP1 KECCAK256 DUP1 SLOAD PUSH1 0x1 PUSH1 0x1 PUSH1 0xA0 SHL SUB NOT AND SWAP1 SSTORE DUP5 DUP4 MSTORE PUSH1 0x5 DUP2 MSTORE DUP12 DUP4 KECCAK256 DUP1 SLOAD PUSH1 0x0 NOT ADD SWAP1 SSTORE PUSH2 0x36B6 JUMP JUMPDEST SWAP2 SWAP4 SWAP5 POP SWAP2 POP DUP1 PUSH2 0x379B JUMPI JUMPDEST ISZERO PUSH2 0x375F JUMPI DUP6 SWAP3 SWAP2 DUP8 SWAP2 CODESIZE PUSH2 0x368A JUMP JUMPDEST DUP8 DUP7 DUP9 PUSH2 0x377C JUMPI PUSH1 0x24 SWAP2 MLOAD SWAP1 PUSH4 0x7E273289 PUSH1 0xE0 SHL DUP3 MSTORE PUSH1 0x4 DUP3 ADD MSTORE REVERT JUMPDEST SWAP1 MLOAD PUSH4 0x177E802F PUSH1 0xE0 SHL DUP2 MSTORE CALLER PUSH1 0x4 DUP3 ADD MSTORE PUSH1 0x24 DUP2 ADD SWAP2 SWAP1 SWAP2 MSTORE PUSH1 0x44 SWAP1 REVERT JUMPDEST POP CALLER DUP8 EQ DUP1 ISZERO PUSH2 0x37C0 JUMPI JUMPDEST DUP1 PUSH2 0x374F JUMPI POP DUP6 DUP3 MSTORE PUSH1 0x6 DUP2 MSTORE CALLER DUP6 DUP10 DUP5 KECCAK256 SLOAD AND EQ PUSH2 0x374F JUMP JUMPDEST POP DUP7 DUP3 MSTORE PUSH1 0x7 DUP2 MSTORE DUP8 DUP3 KECCAK256 CALLER DUP4 MSTORE DUP2 MSTORE PUSH1 0xFF DUP9 DUP4 KECCAK256 SLOAD AND PUSH2 0x37A6 JUMP JUMPDEST PUSH1 0x40 MLOAD PUSH4 0x32505749 PUSH1 0xE1 SHL DUP2 MSTORE PUSH1 0x0 PUSH1 0x4 DUP3 ADD MSTORE PUSH1 0x24 SWAP1 REVERT JUMPDEST PUSH2 0x3800 DUP4 DUP4 DUP4 PUSH2 0x3653 JUMP JUMPDEST DUP2 EXTCODESIZE PUSH2 0x380D JUMPI JUMPDEST POP POP POP POP JUMP JUMPDEST PUSH1 0x40 MLOAD PUSH4 0xA85BD01 PUSH1 0xE1 SHL DUP1 DUP3 MSTORE CALLER PUSH1 0x4 DUP4 ADD MSTORE PUSH1 0x1 PUSH1 0x1 PUSH1 0xA0 SHL SUB SWAP3 DUP4 AND PUSH1 0x24 DUP4 ADD MSTORE PUSH1 0x44 DUP3 ADD SWAP5 SWAP1 SWAP5 MSTORE PUSH1 0x80 PUSH1 0x64 DUP3 ADD MSTORE PUSH1 0x20 SWAP6 SWAP3 SWAP1 SWAP2 AND SWAP4 SWAP1 SWAP3 SWAP1 DUP4 SWAP1 PUSH2 0x385B SWAP1 PUSH1 0x84 DUP4 ADD SWAP1 PUSH2 0x32EF JUMP JUMPDEST SUB SWAP3 DUP6 DUP2 PUSH1 0x0 SWAP6 DUP2 DUP8 DUP10 GAS CALL DUP5 SWAP2 DUP2 PUSH2 0x3904 JUMPI JUMPDEST POP PUSH2 0x38CF JUMPI POP POP POP RETURNDATASIZE PUSH1 0x0 EQ PUSH2 0x38C7 JUMPI RETURNDATASIZE PUSH2 0x3889 DUP2 PUSH2 0x3468 JUMP JUMPDEST SWAP1 PUSH2 0x3897 PUSH1 0x40 MLOAD SWAP3 DUP4 PUSH2 0x3447 JUMP JUMPDEST DUP2 MSTORE DUP1 SWAP2 DUP5 RETURNDATASIZE SWAP3 ADD RETURNDATACOPY JUMPDEST DUP1 MLOAD SWAP3 DUP4 PUSH2 0x38C2 JUMPI PUSH1 0x40 MLOAD PUSH4 0x32505749 PUSH1 0xE1 SHL DUP2 MSTORE PUSH1 0x4 DUP2 ADD DUP5 SWAP1 MSTORE PUSH1 0x24 SWAP1 REVERT JUMPDEST ADD SWAP1 POP REVERT JUMPDEST POP PUSH1 0x60 PUSH2 0x38A1 JUMP JUMPDEST SWAP2 SWAP5 POP SWAP2 POP PUSH4 0xFFFFFFFF PUSH1 0xE0 SHL AND SUB PUSH2 0x38EC JUMPI POP CODESIZE DUP1 DUP1 DUP1 PUSH2 0x3807 JUMP JUMPDEST PUSH1 0x24 SWAP1 PUSH1 0x40 MLOAD SWAP1 PUSH4 0x32505749 PUSH1 0xE1 SHL DUP3 MSTORE PUSH1 0x4 DUP3 ADD MSTORE REVERT JUMPDEST SWAP1 SWAP2 POP DUP7 DUP2 DUP2 RETURNDATASIZE DUP4 GT PUSH2 0x393D JUMPI JUMPDEST PUSH2 0x391C DUP2 DUP4 PUSH2 0x3447 JUMP JUMPDEST DUP2 ADD SUB SLT PUSH2 0x14A3 JUMPI MLOAD PUSH1 0x1 PUSH1 0x1 PUSH1 0xE0 SHL SUB NOT DUP2 AND DUP2 SUB PUSH2 0x14A3 JUMPI SWAP1 CODESIZE PUSH2 0x386F JUMP JUMPDEST POP RETURNDATASIZE PUSH2 0x3912 JUMP JUMPDEST PUSH1 0x0 DUP2 DUP2 MSTORE PUSH1 0x4 PUSH1 0x20 MSTORE PUSH1 0x40 SWAP1 KECCAK256 SLOAD PUSH1 0x1 PUSH1 0x1 PUSH1 0xA0 SHL SUB AND SWAP1 DUP2 ISZERO PUSH2 0x3967 JUMPI POP SWAP1 JUMP JUMPDEST PUSH1 0x24 SWAP1 PUSH1 0x40 MLOAD SWAP1 PUSH4 0x7E273289 PUSH1 0xE0 SHL DUP3 MSTORE PUSH1 0x4 DUP3 ADD MSTORE REVERT JUMPDEST PUSH1 0x20 DUP2 DUP4 SUB SLT PUSH2 0x332A JUMPI DUP1 MLOAD SWAP1 PUSH1 0x1 PUSH1 0x1 PUSH1 0x40 SHL SUB DUP3 GT PUSH2 0x332A JUMPI ADD DUP2 PUSH1 0x1F DUP3 ADD SLT ISZERO PUSH2 0x332A JUMPI DUP1 MLOAD PUSH2 0x39B1 DUP2 PUSH2 0x3468 JUMP JUMPDEST SWAP3 PUSH2 0x39BF PUSH1 0x40 MLOAD SWAP5 DUP6 PUSH2 0x3447 JUMP JUMPDEST DUP2 DUP5 MSTORE PUSH1 0x20 DUP3 DUP5 ADD ADD GT PUSH2 0x332A JUMPI PUSH2 0x34D5 SWAP2 PUSH1 0x20 DUP1 DUP6 ADD SWAP2 ADD PUSH2 0x32CC JUMP JUMPDEST PUSH1 0x0 NOT DUP2 EQ PUSH2 0x39EC JUMPI PUSH1 0x1 ADD SWAP1 JUMP JUMPDEST PUSH4 0x4E487B71 PUSH1 0xE0 SHL PUSH1 0x0 MSTORE PUSH1 0x11 PUSH1 0x4 MSTORE PUSH1 0x24 PUSH1 0x0 REVERT JUMPDEST DUP1 MLOAD DUP3 LT ISZERO PUSH2 0x3373 JUMPI PUSH1 0x20 SWAP2 PUSH1 0x5 SHL ADD ADD SWAP1 JUMP JUMPDEST PUSH1 0x2 DUP3 LT ISZERO PUSH2 0x3A22 JUMPI MSTORE JUMP JUMPDEST PUSH4 0x4E487B71 PUSH1 0xE0 SHL PUSH1 0x0 MSTORE PUSH1 0x21 PUSH1 0x4 MSTORE PUSH1 0x24 PUSH1 0x0 REVERT JUMPDEST DUP2 DUP2 LT PUSH2 0x3A43 JUMPI POP POP JUMP JUMPDEST PUSH1 0x0 DUP2 SSTORE PUSH1 0x1 ADD PUSH2 0x3A38 JUMP JUMPDEST SWAP2 SWAP1 DUP3 SUB SWAP2 DUP3 GT PUSH2 0x39EC JUMPI JUMP JUMPDEST ISZERO PUSH2 0x3A63 JUMPI JUMP JUMPDEST PUSH1 0x40 MLOAD PUSH3 0x461BCD PUSH1 0xE5 SHL DUP2 MSTORE PUSH1 0x20 PUSH1 0x4 DUP3 ADD MSTORE PUSH1 0x14 PUSH1 0x24 DUP3 ADD MSTORE PUSH20 0x151BDAD95B88191BD95CC81B9BDD08195E1A5CDD PUSH1 0x62 SHL PUSH1 0x44 DUP3 ADD MSTORE PUSH1 0x64 SWAP1 REVERT JUMPDEST PUSH1 0x0 SWAP1 DUP1 DUP3 MSTORE PUSH1 0x20 PUSH1 0x4 DUP2 MSTORE PUSH1 0x1 DUP1 PUSH1 0xA0 SHL SUB PUSH1 0x40 SWAP3 PUSH2 0x3AC5 DUP3 DUP6 DUP8 KECCAK256 SLOAD AND ISZERO ISZERO PUSH2 0x3A5C JUMP JUMPDEST DUP5 MSTORE PUSH1 0xE DUP3 MSTORE DUP3 DUP5 KECCAK256 SLOAD PUSH1 0xF DUP4 MSTORE DUP4 DUP6 KECCAK256 SLOAD SWAP1 DUP6 MSTORE PUSH1 0xD DUP4 MSTORE DUP4 DUP6 KECCAK256 SWAP2 DUP5 MLOAD SWAP1 PUSH2 0x3AEE DUP3 PUSH2 0x33C4 JUMP JUMPDEST DUP4 SLOAD DUP3 MSTORE PUSH1 0x1 SWAP1 PUSH2 0x3B00 DUP3 DUP7 ADD PUSH2 0x3581 JUMP JUMPDEST SWAP1 DUP7 DUP5 ADD SWAP2 DUP3 MSTORE PUSH2 0x3B13 PUSH1 0x2 DUP8 ADD PUSH2 0x3581 JUMP JUMPDEST DUP9 DUP6 ADD MSTORE PUSH2 0x3B23 PUSH1 0x3 DUP8 ADD PUSH2 0x3581 JUMP JUMPDEST PUSH1 0x60 DUP6 ADD MSTORE PUSH1 0x4 DUP7 ADD SLOAD AND PUSH1 0x80 DUP5 ADD MSTORE PUSH2 0x3B3F PUSH1 0x5 DUP7 ADD PUSH2 0x3581 JUMP JUMPDEST SWAP8 PUSH1 0xA0 DUP5 ADD SWAP9 DUP10 MSTORE PUSH2 0x3B53 PUSH1 0x6 DUP8 ADD PUSH2 0x3581 JUMP JUMPDEST SWAP3 PUSH1 0xC0 DUP6 ADD SWAP4 DUP5 MSTORE PUSH1 0x7 DUP8 ADD DUP1 SLOAD SWAP1 PUSH2 0x3B6B DUP3 PUSH2 0x34D8 JUMP JUMPDEST SWAP4 PUSH2 0x3B78 DUP13 MLOAD SWAP6 DUP7 PUSH2 0x3447 JUMP JUMPDEST DUP3 DUP6 MSTORE SWAP1 DUP2 MSTORE DUP10 DUP2 KECCAK256 DUP11 DUP1 DUP7 ADD JUMPDEST DUP5 DUP5 LT PUSH2 0x443E JUMPI POP POP POP POP POP POP PUSH1 0xE0 DUP5 ADD MSTORE PUSH1 0x8 DUP6 ADD SLOAD SWAP2 PUSH2 0x100 SWAP3 DUP4 DUP6 ADD MSTORE PUSH1 0xE PUSH1 0x9 DUP8 ADD SLOAD SWAP7 PUSH2 0x120 DUP7 ADD SWAP8 DUP9 MSTORE PUSH1 0xA DUP2 ADD SLOAD PUSH2 0x140 DUP8 ADD MSTORE PUSH1 0xB DUP2 ADD SLOAD PUSH2 0x160 DUP8 ADD MSTORE PUSH1 0xC DUP2 ADD SLOAD PUSH2 0x180 DUP8 ADD MSTORE PUSH2 0x3BEC PUSH1 0xFF PUSH1 0xD DUP4 ADD SLOAD AND PUSH2 0x1A0 DUP9 ADD PUSH2 0x3A16 JUMP JUMPDEST ADD SLOAD PUSH2 0x1C0 DUP6 ADD MSTORE DUP8 MLOAD PUSH2 0x3BFF DUP2 PUSH2 0x3411 JUMP JUMPDEST PUSH1 0x7 DUP2 MSTORE PUSH7 0x2332423339393 PUSH1 0xCC SHL DUP9 DUP3 ADD MSTORE SWAP5 DUP9 MLOAD PUSH2 0x3C1E DUP2 PUSH2 0x3411 JUMP JUMPDEST PUSH1 0x7 DUP2 MSTORE DUP9 DUP2 ADD SWAP7 PUSH7 0x23423332313145 PUSH1 0xC8 SHL DUP9 MSTORE PUSH32 0xBBE70F0A12A12E8CFBDF026EDF53845C04B28179B2C9393D342FA6E2CD4EF2A DUP5 MLOAD DUP13 MLOAD PUSH2 0x3C71 DUP14 DUP3 DUP2 PUSH2 0xDC8 DUP2 DUP4 ADD SWAP7 DUP8 DUP2 MLOAD SWAP4 DUP5 SWAP3 ADD PUSH2 0x32CC JUMP JUMPDEST MLOAD SWAP1 KECCAK256 SUB PUSH2 0x43C0 JUMPI POP SWAP1 DUP9 SWAP2 DUP11 MLOAD PUSH2 0x3C88 DUP2 PUSH2 0x3411 JUMP JUMPDEST PUSH1 0x7 DUP2 MSTORE PUSH7 0x23314437463645 PUSH1 0xC8 SHL DUP5 DUP3 ADD MSTORE SWAP12 JUMPDEST MLOAD SWAP2 PUSH2 0x3CA8 SWAP1 PUSH2 0x448D JUMP JUMPDEST SWAP9 MLOAD PUSH2 0x3CB3 SWAP1 PUSH2 0x448D JUMP JUMPDEST SWAP4 MLOAD SWAP5 MLOAD PUSH2 0x3CC0 SWAP1 PUSH2 0x4738 JUMP JUMPDEST SWAP7 MLOAD PUSH2 0x3CCB SWAP1 PUSH2 0x448D JUMP JUMPDEST SWAP8 DUP4 DUP13 MLOAD SWAP14 DUP15 DUP1 SWAP15 DUP4 DUP3 ADD PUSH32 0x3C7376672077696474683D2234303022206865696768743D223430302220786D SWAP1 MSTORE DUP2 ADD PUSH32 0x6C6E733D22687474703A2F2F7777772E77332E6F72672F323030302F73766722 SWAP1 MSTORE PUSH1 0x60 ADD PUSH1 0x1F PUSH1 0xF9 SHL SWAP1 MSTORE DUP14 PUSH1 0x61 DUP2 ADD PUSH32 0x3C646566733E3C6C696E6561724772616469656E742069643D22626722207831 SWAP1 MSTORE PUSH1 0x81 ADD PUSH32 0x3D223025222079313D223025222078323D2231303025222079323D2231303025 SWAP1 MSTORE DUP14 PUSH2 0x111F PUSH1 0xF1 SHL SWAP1 PUSH1 0xA1 ADD MSTORE DUP14 PUSH1 0xA3 DUP2 ADD PUSH32 0x3C73746F70206F66667365743D22302522207374796C653D2273746F702D636F SWAP1 MSTORE PUSH1 0xC3 ADD PUSH4 0x3637B91D PUSH1 0xE1 SHL SWAP1 MSTORE DUP14 DUP2 MLOAD SWAP3 PUSH1 0xC7 DUP5 SWAP3 ADD SWAP3 ADD SWAP2 PUSH2 0x3DCC SWAP3 PUSH2 0x32CC JUMP JUMPDEST DUP13 ADD PUSH19 0x1DB9BA37B816B7B830B1B4BA3C9D189110179F PUSH1 0x69 SHL SWAP3 DUP4 PUSH1 0xC7 DUP4 ADD MSTORE PUSH1 0xDA DUP3 ADD PUSH32 0x3C73746F70206F66667365743D223130302522207374796C653D2273746F702D SWAP1 MSTORE PUSH1 0xFA DUP3 ADD PUSH6 0x31B7B637B91D PUSH1 0xD1 SHL SWAP1 MSTORE MLOAD SWAP2 DUP3 DUP10 DUP4 ADD PUSH2 0x3E32 SWAP3 PUSH2 0x32CC JUMP JUMPDEST ADD SWAP6 DUP7 ADD MSTORE PUSH32 0x3C2F6C696E6561724772616469656E743E3C2F646566733E0000000000000000 PUSH2 0x113 DUP7 ADD MSTORE PUSH32 0x3C726563742077696474683D2234303022206865696768743D22343030222066 PUSH2 0x12B DUP7 ADD MSTORE PUSH16 0x34B6361E913AB9361411B1339491179F PUSH1 0x81 SHL PUSH2 0x14B DUP7 ADD MSTORE PUSH32 0x3C7265637420783D2232302220793D223230222077696474683D223336302220 PUSH2 0x15B DUP7 ADD MSTORE PUSH32 0x6865696768743D22333630222066696C6C3D2272676261283235352C3235352C PUSH2 0x17B DUP7 ADD MSTORE PUSH32 0x3235352C302E312922207374726F6B653D2272676261283235352C3235352C32 PUSH2 0x19B DUP7 ADD MSTORE PUSH32 0x35352C302E332922207374726F6B652D77696474683D2232222F3E0000000000 PUSH2 0x1BB DUP7 ADD MSTORE PUSH32 0x3C7465787420783D223230302220793D2238302220746578742D616E63686F72 PUSH2 0x1D6 DUP7 ADD MSTORE PUSH32 0x3D226D6964646C65222066696C6C3D2277686974652220666F6E742D66616D69 PUSH2 0x1F6 DUP7 ADD MSTORE PUSH32 0x6C793D2273657269662220666F6E742D73697A653D2232342220666F6E742D77 PUSH2 0x216 DUP7 ADD MSTORE PUSH13 0x32B4B3B43A1E913137B632111F PUSH1 0x99 SHL PUSH2 0x236 DUP7 ADD MSTORE PUSH13 0x496D6D757461626C6554797065 PUSH1 0x98 SHL PUSH2 0x243 DUP7 ADD MSTORE PUSH7 0x1E17BA32BC3A1F PUSH1 0xC9 SHL PUSH2 0x250 DUP7 ADD DUP2 SWAP1 MSTORE PUSH32 0x3C7465787420783D223230302220793D223132302220746578742D616E63686F PUSH2 0x257 DUP8 ADD MSTORE PUSH32 0x723D226D6964646C65222066696C6C3D2272676261283235352C3235352C3235 PUSH2 0x277 DUP8 ADD DUP2 SWAP1 MSTORE PUSH32 0x352C302E39292220666F6E742D66616D696C793D2273657269662220666F6E74 PUSH2 0x297 DUP9 ADD MSTORE PUSH11 0x16B9B4BD329E91189B111F PUSH1 0xA9 SHL PUSH2 0x2B7 DUP9 ADD MSTORE DUP3 MLOAD SWAP2 SWAP10 SWAP1 SWAP7 DUP11 SWAP6 PUSH2 0x2C2 SWAP5 SWAP3 SWAP4 DUP8 SWAP4 SWAP2 SWAP3 DUP5 SWAP3 PUSH2 0x40A2 SWAP1 DUP4 SWAP1 DUP10 DUP5 ADD SWAP1 DUP12 ADD PUSH2 0x32CC JUMP JUMPDEST ADD SWAP5 DUP6 ADD MSTORE PUSH2 0x2C9 DUP5 ADD PUSH32 0x3C7465787420783D223230302220793D223134302220746578742D616E63686F SWAP1 MSTORE DUP8 PUSH2 0x2E9 DUP6 ADD MSTORE PUSH32 0x352C302E38292220666F6E742D66616D696C793D2273657269662220666F6E74 SWAP3 DUP4 PUSH2 0x309 DUP7 ADD MSTORE PUSH11 0x16B9B4BD329E91189A111F PUSH1 0xA9 SHL SWAP5 DUP6 PUSH2 0x329 DUP3 ADD MSTORE PUSH2 0x334 DUP2 ADD PUSH9 0x45646974696F6E2023 PUSH1 0xB8 SHL SWAP1 MSTORE DUP2 MLOAD SWAP1 PUSH2 0x33D SWAP3 DUP3 DUP10 DUP6 DUP5 ADD SWAP3 ADD SWAP2 PUSH2 0x4142 SWAP3 PUSH2 0x32CC JUMP JUMPDEST ADD SWAP1 DUP2 ADD PUSH1 0x2F PUSH1 0xF8 SHL SWAP1 MSTORE DUP2 MLOAD SWAP2 DUP3 PUSH2 0x33E SWAP8 DUP9 DUP5 ADD SWAP3 ADD SWAP2 PUSH2 0x4164 SWAP3 PUSH2 0x32CC JUMP JUMPDEST ADD SWAP4 DUP5 ADD MSTORE PUSH2 0x345 DUP4 ADD PUSH32 0x3C7465787420783D223230302220793D223136302220746578742D616E63686F SWAP1 MSTORE DUP6 PUSH2 0x365 DUP5 ADD MSTORE PUSH2 0x385 DUP4 ADD MSTORE PUSH2 0x3A5 DUP3 ADD MSTORE DUP3 MLOAD SWAP1 PUSH2 0x3B0 SWAP4 DUP3 DUP11 DUP7 DUP5 ADD SWAP3 ADD SWAP2 PUSH2 0x41BC SWAP3 PUSH2 0x32CC JUMP JUMPDEST ADD SWAP2 DUP3 ADD MSTORE PUSH32 0x3C666F726569676E4F626A65637420783D2234302220793D2232303022207769 PUSH2 0x3B7 DUP3 ADD MSTORE PUSH32 0x6474683D2233323022206865696768743D22313230223E000000000000000000 PUSH2 0x3D7 DUP3 ADD MSTORE PUSH32 0x3C64697620786D6C6E733D22687474703A2F2F7777772E77332E6F72672F3139 PUSH2 0x3EE DUP3 ADD MSTORE PUSH32 0x39392F7868746D6C22207374796C653D22636F6C6F723A77686974653B666F6E PUSH2 0x40E DUP3 ADD MSTORE PUSH32 0x742D66616D696C793A73657269663B666F6E742D73697A653A313270783B7465 PUSH2 0x42E DUP3 ADD MSTORE PUSH32 0x78742D616C69676E3A63656E7465723B776F72642D777261703A627265616B2D PUSH2 0x44E DUP3 ADD MSTORE PUSH7 0x3BB7B9321D911F PUSH1 0xC9 SHL PUSH2 0x46E DUP3 ADD MSTORE DUP3 MLOAD PUSH2 0x475 SWAP4 SWAP1 SWAP2 SWAP1 PUSH2 0x42D6 SWAP1 DUP4 SWAP1 DUP7 DUP5 ADD SWAP1 DUP11 ADD PUSH2 0x32CC JUMP JUMPDEST PUSH6 0x1E17B234BB1F PUSH1 0xD1 SHL SWAP2 ADD SWAP3 DUP4 ADD MSTORE PUSH16 0x1E17B337B932B4B3B727B13532B1BA1F PUSH1 0x81 SHL PUSH2 0x47B DUP4 ADD MSTORE PUSH32 0x3C7465787420783D223230302220793D223335302220746578742D616E63686F PUSH2 0x48B DUP4 ADD MSTORE PUSH2 0x4AB DUP3 ADD MSTORE PUSH32 0x352C302E37292220666F6E742D66616D696C793D2273657269662220666F6E74 PUSH2 0x4CB DUP3 ADD MSTORE PUSH11 0x16B9B4BD329E911899111F PUSH1 0xA9 SHL PUSH2 0x4EB DUP3 ADD MSTORE PUSH9 0x41727469636C652023 PUSH1 0xB8 SHL PUSH2 0x4F6 DUP3 ADD MSTORE DUP2 MLOAD PUSH2 0x4FF SWAP5 SWAP1 SWAP3 PUSH2 0x4394 SWAP2 DUP5 SWAP2 DUP8 DUP6 ADD SWAP2 ADD PUSH2 0x32CC JUMP JUMPDEST ADD SWAP2 DUP3 ADD MSTORE PUSH2 0x506 DUP2 ADD PUSH6 0x1E17B9BB339F PUSH1 0xD1 SHL SWAP1 MSTORE SUB PUSH2 0x4EC DUP2 ADD DUP3 MSTORE PUSH2 0x50C ADD PUSH2 0x34D5 SWAP1 DUP3 PUSH2 0x3447 JUMP JUMPDEST SWAP11 PUSH32 0x34A632FD0BF9A1BE0ABDD53ECD86B54702208E50BC91AF37FD598EDE80E4A47E DUP5 MLOAD DUP13 MLOAD PUSH2 0x43FF DUP14 DUP3 DUP2 PUSH2 0xDC8 DUP2 DUP4 ADD SWAP7 DUP8 DUP2 MLOAD SWAP4 DUP5 SWAP3 ADD PUSH2 0x32CC JUMP JUMPDEST MLOAD SWAP1 KECCAK256 EQ PUSH2 0x4411 JUMPI JUMPDEST SWAP1 DUP10 SWAP3 SWAP2 PUSH2 0x3C9D JUMP JUMPDEST SWAP11 POP SWAP1 DUP9 SWAP2 DUP11 MLOAD PUSH2 0x4421 DUP2 PUSH2 0x3411 JUMP JUMPDEST PUSH1 0x7 DUP2 MSTORE PUSH7 0x23453841333137 PUSH1 0xC8 SHL DUP5 DUP3 ADD MSTORE SWAP12 SWAP1 SWAP2 SWAP3 POP PUSH2 0x4408 JUMP JUMPDEST DUP6 SWAP2 DUP3 SWAP2 PUSH2 0x444B DUP6 PUSH2 0x3581 JUMP JUMPDEST DUP2 MSTORE ADD SWAP3 ADD SWAP3 ADD SWAP2 SWAP1 DUP12 SWAP1 PUSH2 0x3B86 JUMP JUMPDEST SWAP1 PUSH2 0x4465 DUP3 PUSH2 0x3468 JUMP JUMPDEST PUSH2 0x4472 PUSH1 0x40 MLOAD SWAP2 DUP3 PUSH2 0x3447 JUMP JUMPDEST DUP3 DUP2 MSTORE DUP1 SWAP3 PUSH2 0x4483 PUSH1 0x1F NOT SWAP2 PUSH2 0x3468 JUMP JUMPDEST ADD SWAP1 PUSH1 0x20 CALLDATASIZE SWAP2 ADD CALLDATACOPY JUMP JUMPDEST DUP1 PUSH1 0x0 SWAP2 PUSH27 0x184F03E93FF9F4DAA797ED6E38ED64BF6A1F010000000000000000 DUP1 DUP3 LT ISZERO PUSH2 0x45C2 JUMPI JUMPDEST POP PUSH14 0x4EE2D6D415B85ACEF8100000000 DUP1 DUP4 LT ISZERO PUSH2 0x45B3 JUMPI JUMPDEST POP PUSH7 0x2386F26FC10000 DUP1 DUP4 LT ISZERO PUSH2 0x45A4 JUMPI JUMPDEST POP PUSH4 0x5F5E100 DUP1 DUP4 LT ISZERO PUSH2 0x4595 JUMPI JUMPDEST POP PUSH2 0x2710 DUP1 DUP4 LT ISZERO PUSH2 0x4586 JUMPI JUMPDEST POP PUSH1 0x64 DUP3 LT ISZERO PUSH2 0x4576 JUMPI JUMPDEST PUSH1 0xA DUP1 SWAP3 LT ISZERO PUSH2 0x456C JUMPI JUMPDEST PUSH1 0x1 SWAP1 DUP2 PUSH1 0x21 PUSH2 0x4524 DUP3 DUP8 ADD PUSH2 0x445B JUMP JUMPDEST SWAP6 DUP7 ADD ADD SWAP1 JUMPDEST PUSH2 0x4536 JUMPI JUMPDEST POP POP POP POP SWAP1 JUMP JUMPDEST PUSH1 0x0 NOT ADD SWAP1 DUP4 SWAP1 PUSH16 0x181899199A1A9B1B9C1CB0B131B232B3 PUSH1 0x81 SHL DUP3 DUP3 MOD BYTE DUP4 MSTORE8 DIV SWAP2 DUP3 ISZERO PUSH2 0x4567 JUMPI SWAP2 SWAP1 DUP3 PUSH2 0x452A JUMP JUMPDEST PUSH2 0x452F JUMP JUMPDEST SWAP2 PUSH1 0x1 ADD SWAP2 PUSH2 0x4513 JUMP JUMPDEST SWAP2 SWAP1 PUSH1 0x64 PUSH1 0x2 SWAP2 DIV SWAP2 ADD SWAP2 PUSH2 0x4508 JUMP JUMPDEST PUSH1 0x4 SWAP2 SWAP4 SWAP3 DIV SWAP2 ADD SWAP2 CODESIZE PUSH2 0x44FD JUMP JUMPDEST PUSH1 0x8 SWAP2 SWAP4 SWAP3 DIV SWAP2 ADD SWAP2 CODESIZE PUSH2 0x44F0 JUMP JUMPDEST PUSH1 0x10 SWAP2 SWAP4 SWAP3 DIV SWAP2 ADD SWAP2 CODESIZE PUSH2 0x44E1 JUMP JUMPDEST PUSH1 0x20 SWAP2 SWAP4 SWAP3 DIV SWAP2 ADD SWAP2 CODESIZE PUSH2 0x44CF JUMP JUMPDEST PUSH1 0x40 SWAP4 POP DUP2 DIV SWAP2 POP CODESIZE PUSH2 0x44B6 JUMP JUMPDEST PUSH1 0x40 MLOAD SWAP1 PUSH2 0x45DD DUP3 PUSH2 0x342C JUMP JUMPDEST PUSH1 0x40 DUP3 MSTORE PUSH32 0x6768696A6B6C6D6E6F707172737475767778797A303132333435363738392B2F PUSH1 0x40 DUP4 PUSH32 0x4142434445464748494A4B4C4D4E4F505152535455565758595A616263646566 PUSH1 0x20 DUP3 ADD MSTORE ADD MSTORE JUMP JUMPDEST DUP1 MLOAD ISZERO PUSH2 0x4712 JUMPI DUP1 MLOAD PUSH1 0x2 SWAP2 DUP3 DUP3 ADD DUP1 SWAP3 GT PUSH2 0x39EC JUMPI PUSH1 0x3 SWAP2 DUP3 SWAP1 DIV PUSH1 0x1 PUSH1 0x1 PUSH1 0xFE SHL SUB DUP2 AND DUP2 SUB PUSH2 0x39EC JUMPI PUSH2 0x4668 SWAP1 DUP5 SWAP6 SWAP5 SHL PUSH2 0x445B JUMP JUMPDEST SWAP4 PUSH1 0x20 DUP6 ADD SWAP4 DUP3 SWAP2 DUP4 MLOAD DUP5 ADD SWAP1 PUSH1 0x20 DUP3 ADD SWAP3 DUP4 MLOAD SWAP5 PUSH1 0x0 DUP6 MSTORE JUMPDEST DUP4 DUP2 LT PUSH2 0x46C1 JUMPI POP POP POP POP MSTORE MLOAD MOD DUP1 PUSH1 0x1 EQ PUSH2 0x46AE JUMPI PUSH1 0x2 EQ PUSH2 0x46A3 JUMPI POP SWAP1 JUMP JUMPDEST PUSH1 0x3D SWAP1 PUSH1 0x0 NOT ADD MSTORE8 SWAP1 JUMP JUMPDEST POP PUSH1 0x3D SWAP1 DUP2 PUSH1 0x0 NOT DUP3 ADD MSTORE8 PUSH1 0x1 NOT ADD MSTORE8 SWAP1 JUMP JUMPDEST DUP8 PUSH1 0x4 SWAP2 SWAP10 SWAP3 SWAP4 SWAP5 SWAP10 ADD SWAP2 DUP3 MLOAD PUSH1 0x1 SWAP1 PUSH1 0x3F SWAP1 DUP3 DUP3 DUP3 PUSH1 0x12 SHR AND DUP9 ADD ADD MLOAD DUP5 MSTORE8 DUP3 DUP3 DUP3 PUSH1 0xC SHR AND DUP9 ADD ADD MLOAD DUP4 DUP6 ADD MSTORE8 DUP3 DUP3 DUP3 PUSH1 0x6 SHR AND DUP9 ADD ADD MLOAD DUP9 DUP6 ADD MSTORE8 AND DUP6 ADD ADD MLOAD DUP10 DUP3 ADD MSTORE8 ADD SWAP8 SWAP3 SWAP2 SWAP1 PUSH2 0x4682 JUMP JUMPDEST POP POP PUSH1 0x40 MLOAD PUSH2 0x4720 DUP2 PUSH2 0x33F6 JUMP JUMPDEST PUSH1 0x0 DUP2 MSTORE SWAP1 JUMP JUMPDEST SWAP1 DUP2 MLOAD DUP2 LT ISZERO PUSH2 0x3373 JUMPI ADD PUSH1 0x20 ADD SWAP1 JUMP JUMPDEST PUSH1 0x64 DUP1 DUP3 MLOAD GT ISZERO PUSH2 0x47A8 JUMPI PUSH1 0x40 MLOAD SWAP2 PUSH1 0xA0 DUP4 ADD DUP4 DUP2 LT PUSH1 0x1 PUSH1 0x1 PUSH1 0x40 SHL SUB DUP3 GT OR PUSH2 0x33E0 JUMPI PUSH1 0x40 MSTORE DUP2 DUP4 MSTORE PUSH1 0x80 CALLDATASIZE PUSH1 0x20 DUP6 ADD CALLDATACOPY PUSH1 0x0 SWAP1 DUP2 JUMPDEST DUP4 DUP2 LT PUSH2 0x477E JUMPI POP POP POP POP SWAP1 JUMP JUMPDEST PUSH2 0x47A3 SWAP1 PUSH1 0x1 PUSH1 0x1 PUSH1 0xF8 SHL SUB NOT PUSH2 0x4795 DUP3 DUP6 PUSH2 0x4727 JUMP JUMPDEST MLOAD AND DUP5 BYTE PUSH2 0xC4D DUP3 DUP9 PUSH2 0x4727 JUMP JUMPDEST PUSH2 0x4770 JUMP JUMPDEST POP SWAP1 JUMP INVALID LOG2 PUSH5 0x6970667358 0x22 SLT KECCAK256 PUSH16 0x9C87F84F35E24EA596E062BE226D35B8 0x23 MSTORE REVERT CODECOPY PUSH20 0xA5AF332F7022CB579A3C64736F6C634300081400 CALLER "},"methodIdentifiers":{"BUYER_FEE()":"24aa774a","DAILY_NATIVE_LIMIT()":"3bc3a454","MAX_CONTENT_LENGTH()":"05b746b5","MAX_SUMMARY_LENGTH()":"544b5e61","MAX_TAGS()":"cce67226","MAX_TAG_LENGTH()":"f50496f4","MAX_TITLE_LENGTH()":"2ef9a160","MEMBERSHIP_TOKENS()":"a7d0f2fb","PLATFORM_TAKE_RATE()":"02c83902","PUBLISHER_CREDENTIALS()":"cb541ef2","PUBLISHING_FEE()":"8368a0c2","READER_LICENSE_AMM()":"ef6fe9b7","TREASURY()":"2d2c5565","approve(address,uint256)":"095ea7b3","articleNFTHolders(uint256,uint256)":"2683494d","articles(uint256)":"edcfafe6","availableEditions(uint256,uint256)":"11d0d538","balanceOf(address)":"70a08231","dailyPublishCount(address,uint256)":"4baf079c","editionsSold(uint256)":"8ba1393d","generateSVG(uint256)":"6dcee4ca","getApproved(uint256)":"081812fc","getArticlesByAuthor(address)":"1521ba3f","getAvailableEditions(uint256)":"968b5635","getEditionNumber(uint256)":"e91dab62","getNFTHolders(uint256)":"9fb53fcb","getTotalArticles()":"0ebf1d3d","holderNFTCount(uint256,address)":"6ef87121","isApprovedForAll(address,address)":"e985e9c5","mintNFTEdition(uint256)":"bdeb0fb1","name()":"06fdde03","owner()":"8da5cb5b","ownerOf(uint256)":"6352211e","publishArticle(string,string,string,string,string,string[],uint256,uint256,uint256,uint256)":"160953c3","renounceOwnership()":"715018a6","royaltyInfo(uint256,uint256)":"2a55205a","safeTransferFrom(address,address,uint256)":"42842e0e","safeTransferFrom(address,address,uint256,bytes)":"b88d4fde","setApprovalForAll(address,bool)":"a22cb465","setReaderLicenseAMM(address)":"98c6e821","supportsInterface(bytes4)":"01ffc9a7","symbol()":"95d89b41","tokenToArticle(uint256)":"b27dde6a","tokenToEdition(uint256)":"602787ed","tokenURI(uint256)":"c87b56dd","transferFrom(address,address,uint256)":"23b872dd","transferOwnership(address)":"f2fde38b"}}}}}