{"contracts/content/ReaderLicenseAMM.sol":{"ReaderLicenseAMM":{"abi":[{"inputs":[{"internalType":"address","name":"_encryptedArticles","type":"address"}],"stateMutability":"nonpayable","type":"constructor"},{"inputs":[{"internalType":"address","name":"sender","type":"address"},{"internalType":"uint256","name":"balance","type":"uint256"},{"internalType":"uint256","name":"needed","type":"uint256"},{"internalType":"uint256","name":"tokenId","type":"uint256"}],"name":"ERC1155InsufficientBalance","type":"error"},{"inputs":[{"internalType":"address","name":"approver","type":"address"}],"name":"ERC1155InvalidApprover","type":"error"},{"inputs":[{"internalType":"uint256","name":"idsLength","type":"uint256"},{"internalType":"uint256","name":"valuesLength","type":"uint256"}],"name":"ERC1155InvalidArrayLength","type":"error"},{"inputs":[{"internalType":"address","name":"operator","type":"address"}],"name":"ERC1155InvalidOperator","type":"error"},{"inputs":[{"internalType":"address","name":"receiver","type":"address"}],"name":"ERC1155InvalidReceiver","type":"error"},{"inputs":[{"internalType":"address","name":"sender","type":"address"}],"name":"ERC1155InvalidSender","type":"error"},{"inputs":[{"internalType":"address","name":"operator","type":"address"},{"internalType":"address","name":"owner","type":"address"}],"name":"ERC1155MissingApprovalForAll","type":"error"},{"inputs":[{"internalType":"address","name":"owner","type":"address"}],"name":"OwnableInvalidOwner","type":"error"},{"inputs":[{"internalType":"address","name":"account","type":"address"}],"name":"OwnableUnauthorizedAccount","type":"error"},{"anonymous":false,"inputs":[{"indexed":true,"internalType":"uint256","name":"articleId","type":"uint256"},{"indexed":true,"internalType":"address","name":"user","type":"address"},{"indexed":false,"internalType":"uint256","name":"expiryTime","type":"uint256"}],"name":"AccessGranted","type":"event"},{"anonymous":false,"inputs":[{"indexed":true,"internalType":"address","name":"account","type":"address"},{"indexed":true,"internalType":"address","name":"operator","type":"address"},{"indexed":false,"internalType":"bool","name":"approved","type":"bool"}],"name":"ApprovalForAll","type":"event"},{"anonymous":false,"inputs":[{"indexed":true,"internalType":"uint256","name":"articleId","type":"uint256"},{"indexed":true,"internalType":"address","name":"user","type":"address"},{"indexed":false,"internalType":"uint256","name":"expiryTime","type":"uint256"}],"name":"LicenseBurned","type":"event"},{"anonymous":false,"inputs":[{"indexed":true,"internalType":"uint256","name":"articleId","type":"uint256"},{"indexed":true,"internalType":"address","name":"holder","type":"address"},{"indexed":false,"internalType":"uint256","name":"count","type":"uint256"},{"indexed":false,"internalType":"uint256","name":"editionNumber","type":"uint256"}],"name":"LicenseMinted","type":"event"},{"anonymous":false,"inputs":[{"indexed":true,"internalType":"uint256","name":"articleId","type":"uint256"},{"indexed":true,"internalType":"address","name":"buyer","type":"address"},{"indexed":true,"internalType":"address","name":"seller","type":"address"},{"indexed":false,"internalType":"uint256","name":"price","type":"uint256"}],"name":"LicensePurchased","type":"event"},{"anonymous":false,"inputs":[{"indexed":true,"internalType":"uint256","name":"articleId","type":"uint256"},{"indexed":false,"internalType":"uint256","name":"count","type":"uint256"},{"indexed":false,"internalType":"uint256","name":"totalActive","type":"uint256"}],"name":"LicenseRegenerated","type":"event"},{"anonymous":false,"inputs":[{"indexed":true,"internalType":"address","name":"previousOwner","type":"address"},{"indexed":true,"internalType":"address","name":"newOwner","type":"address"}],"name":"OwnershipTransferred","type":"event"},{"anonymous":false,"inputs":[{"indexed":true,"internalType":"address","name":"operator","type":"address"},{"indexed":true,"internalType":"address","name":"from","type":"address"},{"indexed":true,"internalType":"address","name":"to","type":"address"},{"indexed":false,"internalType":"uint256[]","name":"ids","type":"uint256[]"},{"indexed":false,"internalType":"uint256[]","name":"values","type":"uint256[]"}],"name":"TransferBatch","type":"event"},{"anonymous":false,"inputs":[{"indexed":true,"internalType":"address","name":"operator","type":"address"},{"indexed":true,"internalType":"address","name":"from","type":"address"},{"indexed":true,"internalType":"address","name":"to","type":"address"},{"indexed":false,"internalType":"uint256","name":"id","type":"uint256"},{"indexed":false,"internalType":"uint256","name":"value","type":"uint256"}],"name":"TransferSingle","type":"event"},{"anonymous":false,"inputs":[{"indexed":false,"internalType":"string","name":"value","type":"string"},{"indexed":true,"internalType":"uint256","name":"id","type":"uint256"}],"name":"URI","type":"event"},{"inputs":[],"name":"BASE_PRICE","outputs":[{"internalType":"uint256","name":"","type":"uint256"}],"stateMutability":"view","type":"function"},{"inputs":[],"name":"CREATOR_PERCENTAGE","outputs":[{"internalType":"uint256","name":"","type":"uint256"}],"stateMutability":"view","type":"function"},{"inputs":[],"name":"ENCRYPTED_ARTICLES","outputs":[{"internalType":"contract IEncryptedArticles","name":"","type":"address"}],"stateMutability":"view","type":"function"},{"inputs":[],"name":"GAS_REIMBURSEMENT","outputs":[{"internalType":"uint256","name":"","type":"uint256"}],"stateMutability":"view","type":"function"},{"inputs":[],"name":"MAX_PRICE","outputs":[{"internalType":"uint256","name":"","type":"uint256"}],"stateMutability":"view","type":"function"},{"inputs":[],"name":"PLATFORM_PERCENTAGE","outputs":[{"internalType":"uint256","name":"","type":"uint256"}],"stateMutability":"view","type":"function"},{"inputs":[],"name":"REGENERATION_THRESHOLD","outputs":[{"internalType":"uint256","name":"","type":"uint256"}],"stateMutability":"view","type":"function"},{"inputs":[],"name":"SELLER_PERCENTAGE","outputs":[{"internalType":"uint256","name":"","type":"uint256"}],"stateMutability":"view","type":"function"},{"inputs":[],"name":"TREASURY","outputs":[{"internalType":"address","name":"","type":"address"}],"stateMutability":"view","type":"function"},{"inputs":[{"internalType":"uint256","name":"","type":"uint256"},{"internalType":"address","name":"","type":"address"}],"name":"accessInfo","outputs":[{"internalType":"uint256","name":"expiryTime","type":"uint256"},{"internalType":"bool","name":"hasAccess","type":"bool"}],"stateMutability":"view","type":"function"},{"inputs":[{"internalType":"address","name":"account","type":"address"},{"internalType":"uint256","name":"id","type":"uint256"}],"name":"balanceOf","outputs":[{"internalType":"uint256","name":"","type":"uint256"}],"stateMutability":"view","type":"function"},{"inputs":[{"internalType":"address[]","name":"accounts","type":"address[]"},{"internalType":"uint256[]","name":"ids","type":"uint256[]"}],"name":"balanceOfBatch","outputs":[{"internalType":"uint256[]","name":"","type":"uint256[]"}],"stateMutability":"view","type":"function"},{"inputs":[{"internalType":"uint256","name":"_articleId","type":"uint256"}],"name":"burnLicenseForAccess","outputs":[],"stateMutability":"nonpayable","type":"function"},{"inputs":[{"internalType":"uint256","name":"_articleId","type":"uint256"},{"internalType":"address","name":"_seller","type":"address"}],"name":"buyLicense","outputs":[],"stateMutability":"payable","type":"function"},{"inputs":[{"internalType":"uint256","name":"","type":"uint256"},{"internalType":"uint256","name":"","type":"uint256"}],"name":"dailyPurchases","outputs":[{"internalType":"uint256","name":"","type":"uint256"}],"stateMutability":"view","type":"function"},{"inputs":[],"name":"emergencyWithdrawGasPool","outputs":[],"stateMutability":"nonpayable","type":"function"},{"inputs":[],"name":"gasPool","outputs":[{"internalType":"uint256","name":"","type":"uint256"}],"stateMutability":"view","type":"function"},{"inputs":[{"internalType":"uint256","name":"_articleId","type":"uint256"}],"name":"getArticleSummary","outputs":[{"internalType":"string","name":"","type":"string"}],"stateMutability":"view","type":"function"},{"inputs":[{"internalType":"uint256","name":"_articleId","type":"uint256"}],"name":"getCurrentPrice","outputs":[{"internalType":"uint256","name":"","type":"uint256"}],"stateMutability":"view","type":"function"},{"inputs":[{"internalType":"uint256","name":"_articleId","type":"uint256"}],"name":"getEncryptedContent","outputs":[{"internalType":"string","name":"","type":"string"}],"stateMutability":"view","type":"function"},{"inputs":[{"internalType":"uint256","name":"_articleId","type":"uint256"}],"name":"getLicenseHolders","outputs":[{"internalType":"address[]","name":"","type":"address[]"},{"internalType":"uint256[]","name":"","type":"uint256[]"}],"stateMutability":"view","type":"function"},{"inputs":[{"internalType":"uint256","name":"_articleId","type":"uint256"}],"name":"getPurchaseHistory","outputs":[{"components":[{"internalType":"uint256","name":"timestamp","type":"uint256"},{"internalType":"uint256","name":"price","type":"uint256"},{"internalType":"address","name":"buyer","type":"address"},{"internalType":"address","name":"seller","type":"address"}],"internalType":"struct ReaderLicenseAMM.PurchaseRecord[]","name":"","type":"tuple[]"}],"stateMutability":"view","type":"function"},{"inputs":[{"internalType":"uint256","name":"_articleId","type":"uint256"},{"internalType":"address","name":"_user","type":"address"}],"name":"hasActiveAccess","outputs":[{"internalType":"bool","name":"","type":"bool"}],"stateMutability":"view","type":"function"},{"inputs":[{"internalType":"address","name":"account","type":"address"},{"internalType":"address","name":"operator","type":"address"}],"name":"isApprovedForAll","outputs":[{"internalType":"bool","name":"","type":"bool"}],"stateMutability":"view","type":"function"},{"inputs":[{"internalType":"uint256","name":"","type":"uint256"},{"internalType":"address","name":"","type":"address"}],"name":"licenseBalances","outputs":[{"internalType":"uint256","name":"","type":"uint256"}],"stateMutability":"view","type":"function"},{"inputs":[{"internalType":"uint256","name":"","type":"uint256"}],"name":"licenseInfo","outputs":[{"internalType":"uint256","name":"articleId","type":"uint256"},{"internalType":"uint256","name":"editionNumber","type":"uint256"},{"internalType":"uint256","name":"totalGenerated","type":"uint256"},{"internalType":"uint256","name":"activeLicenses","type":"uint256"},{"internalType":"uint256","name":"lastRegenerationTime","type":"uint256"}],"stateMutability":"view","type":"function"},{"inputs":[{"internalType":"uint256","name":"_articleId","type":"uint256"},{"internalType":"address","name":"_holder","type":"address"},{"internalType":"uint256","name":"_count","type":"uint256"},{"internalType":"uint256","name":"_editionNumber","type":"uint256"}],"name":"mintLicensesToHolder","outputs":[],"stateMutability":"nonpayable","type":"function"},{"inputs":[],"name":"owner","outputs":[{"internalType":"address","name":"","type":"address"}],"stateMutability":"view","type":"function"},{"inputs":[{"internalType":"uint256","name":"","type":"uint256"},{"internalType":"uint256","name":"","type":"uint256"}],"name":"purchaseHistory","outputs":[{"internalType":"uint256","name":"timestamp","type":"uint256"},{"internalType":"uint256","name":"price","type":"uint256"},{"internalType":"address","name":"buyer","type":"address"},{"internalType":"address","name":"seller","type":"address"}],"stateMutability":"view","type":"function"},{"inputs":[{"internalType":"uint256","name":"_articleId","type":"uint256"}],"name":"regenerateLicenses","outputs":[],"stateMutability":"nonpayable","type":"function"},{"inputs":[],"name":"renounceOwnership","outputs":[],"stateMutability":"nonpayable","type":"function"},{"inputs":[{"internalType":"address","name":"from","type":"address"},{"internalType":"address","name":"to","type":"address"},{"internalType":"uint256[]","name":"ids","type":"uint256[]"},{"internalType":"uint256[]","name":"values","type":"uint256[]"},{"internalType":"bytes","name":"data","type":"bytes"}],"name":"safeBatchTransferFrom","outputs":[],"stateMutability":"nonpayable","type":"function"},{"inputs":[{"internalType":"address","name":"from","type":"address"},{"internalType":"address","name":"to","type":"address"},{"internalType":"uint256","name":"id","type":"uint256"},{"internalType":"uint256","name":"value","type":"uint256"},{"internalType":"bytes","name":"data","type":"bytes"}],"name":"safeTransferFrom","outputs":[],"stateMutability":"nonpayable","type":"function"},{"inputs":[{"internalType":"address","name":"operator","type":"address"},{"internalType":"bool","name":"approved","type":"bool"}],"name":"setApprovalForAll","outputs":[],"stateMutability":"nonpayable","type":"function"},{"inputs":[{"internalType":"uint256","name":"_articleId","type":"uint256"}],"name":"shouldRegenerate","outputs":[{"internalType":"bool","name":"","type":"bool"}],"stateMutability":"view","type":"function"},{"inputs":[{"internalType":"bytes4","name":"interfaceId","type":"bytes4"}],"name":"supportsInterface","outputs":[{"internalType":"bool","name":"","type":"bool"}],"stateMutability":"view","type":"function"},{"inputs":[{"internalType":"uint256","name":"","type":"uint256"}],"name":"totalLicensesEverGenerated","outputs":[{"internalType":"uint256","name":"","type":"uint256"}],"stateMutability":"view","type":"function"},{"inputs":[{"internalType":"address","name":"newOwner","type":"address"}],"name":"transferOwnership","outputs":[],"stateMutability":"nonpayable","type":"function"},{"inputs":[{"internalType":"uint256","name":"tokenId","type":"uint256"}],"name":"uri","outputs":[{"internalType":"string","name":"","type":"string"}],"stateMutability":"view","type":"function"}],"evm":{"bytecode":{"linkReferences":{},"object":"60a034620001d8576001600160401b0390601f6200334c38819003918201601f191683019184831184841017620001c257808492602094604052833981010312620001d857516001600160a01b039182821691829003620001d857604051906020820190811182821017620001c25760405260008091526002546001908181811c91168015620001b7575b6020821014620001a357601f811162000159575b50508060025533156200014157600354903360018060a01b03198316176003557f8be0079c531659141344cd1fd0a4f28419497f9722a3daafe3b4186f6b6457e0604051943393169180a360805261316e9081620001de823960805181818161049501528181610b1d01528181610d0201528181610e9301528181610f920152818161139901528181611594015281816127e0015281816128de0152612f480152f35b60249060405190631e4fbdf760e01b82526004820152fd5b60028352601f0160051c7f405787fa12a823e0f2b7631cc41b3ba8828b3321ca811111fa75cd3aa3bb5ace908101905b8181106200019857506200009e565b838155820162000189565b634e487b7160e01b83526022600452602483fd5b90607f16906200008a565b634e487b7160e01b600052604160045260246000fd5b600080fdfe6080604052600436101561001257600080fd5b60003560e01c8062fdd58e1461028657806301c11d961461028157806301ffc9a71461027c5780630813d3f61461027757806309886c9c146102725780630e89341c1461026d5780631453a424146102685780631e084558146102635780632d2c55651461025e5780632eb2c2d61461025957806343c7580e146102545780634e1273f41461024f578063607ea36d1461024a578063715018a6146102455780637200952814610240578063753157161461023b5780638d40e0cd146102365780638da5cb5b1461023157806395f58ab81461022c57806398e9d0e014610227578063996cb74514610222578063a22cb4651461021d578063ab0b8b0414610218578063b3c655c014610213578063bca590031461020e578063c55d0f5614610209578063c98d6e9914610204578063ca9f19ef146101ff578063cb8b2522146101fa578063df81a823146101f5578063e3685397146101f0578063e985e9c5146101eb578063f242432a146101e6578063f24c4eac146101e1578063f2fde38b146101dc578063f499924b146101d7578063f4bf28a0146101d2578063f86325ed146101cd5763fa08b038146101c857600080fd5b611b1a565b611af8565b611a50565b6119bb565b611929565b6117cd565b61170b565b6116a3565b611687565b61153f565b61151d565b611501565b6114c7565b6114a1565b611475565b611361565b6112ab565b6111eb565b610ec2565b610e7d565b610e0e565b610dae565b610cba565b610c0f565b610bf3565b610b95565b610aef565b610a33565b6109c6565b610898565b6106ec565b610694565b61064c565b61045f565b6103e7565b610395565b610327565b6102f2565b6102a1565b6001600160a01b0381160361029c57565b600080fd5b3461029c57604036600319011261029c5760206102e96004356102c38161028b565b6024356000526000835260406000209060018060a01b0316600052602052604060002090565b54604051908152f35b3461029c57600036600319011261029c576020604051670de0b6b3a76400008152f35b6001600160e01b031981160361029c57565b3461029c57602036600319011261029c57602060043561034681610315565b63ffffffff60e01b16636cdb3d1360e11b8114908115610384575b8115610373575b506040519015158152f35b6301ffc9a760e01b14905038610368565b6303a24d0760e21b81149150610361565b3461029c576000806003193601126103e4576103af611b38565b80808080600b5481600b5560018060a01b03600354168282156103db575bf1156103d65780f35b612177565b506108fc6103cd565b80fd5b3461029c57600036600319011261029c576020604051600a8152f35b60005b8381106104165750506000910152565b8181015183820152602001610406565b9060209161043f81518092818552858086019101610403565b601f01601f1916010190565b90602061045c928181520190610426565b90565b3461029c57602036600319011261029c576040516376e7d7f360e11b815260048035908201526000816024816001600160a01b037f0000000000000000000000000000000000000000000000000000000000000000165afa80156103d65760009081928291610617575b506040517f7b226e616d65223a2022526561646572204c6963656e7365202d2000000000006020820152928392603b840161050391613121565b61088b60f21b81526002016f113232b9b1b934b83a34b7b7111d101160811b815260100161053091613121565b61088b60f21b81526002016e2261747472696275746573223a205b60881b8152600f017f7b2274726169745f74797065223a20224c6f636174696f6e222c202276616c7581526432911d101160d91b602082015260250161059091613121565b62089f4b60ea1b81526003017f7b2274726169745f74797065223a20224c6963656e73652054797065222c202281527f76616c7565223a202252656164657220416363657373227d00000000000000006020820152603801615d7d60f01b815260020103601f1981018252610605908261076e565b60405161061381928261044b565b0390f35b91905061063692503d8091833e61062e818361076e565b8101906125d6565b50505050505050509450509190509091386104c9565b3461029c57604036600319011261029c5760206102e960243561066e8161028b565b6004356000526006835260406000209060018060a01b0316600052602052604060002090565b3461029c57602036600319011261029c57600435600052600560205260a06040600020805490600181015490600281015460046003830154920154926040519485526020850152604084015260608301526080820152f35b3461029c57600036600319011261029c576020604051739402f9f20b4a27b55b1cc6cf015d98f764814fb28152f35b634e487b7160e01b600052604160045260246000fd5b6080810190811067ffffffffffffffff82111761074d57604052565b61071b565b6020810190811067ffffffffffffffff82111761074d57604052565b90601f8019910116810190811067ffffffffffffffff82111761074d57604052565b6040519061079d82610731565b565b604051906040820182811067ffffffffffffffff82111761074d57604052565b67ffffffffffffffff811161074d5760051b60200190565b81601f8201121561029c578035916107ee836107bf565b926107fc604051948561076e565b808452602092838086019260051b82010192831161029c578301905b828210610826575050505090565b81358152908301908301610818565b67ffffffffffffffff811161074d57601f01601f191660200190565b81601f8201121561029c5780359061086882610835565b92610876604051948561076e565b8284526020838301011161029c57816000926020809301838601378301015290565b3461029c5760a036600319011261029c57600480356108b68161028b565b6024356108c28161028b565b67ffffffffffffffff9060443582811161029c576108e390369086016107d7565b9060643583811161029c576108fb90369087016107d7565b9260843590811161029c576109139036908701610851565b936001600160a01b038082169033821415806109a2575b6109755783161561095d5715610946576109449550611e95565b005b604051626a0d4560e21b8152600081880152602490fd5b604051632bfa23e760e11b8152600081890152602490fd5b6040805163711bec9160e11b815233818b019081526001600160a01b038616602082015290918291010390fd5b50600082815260016020908152604080832033845290915290205460ff161561092a565b3461029c57602036600319011261029c5760206109e4600435612d87565b6040519015158152f35b90815180825260208080930193019160005b828110610a0e575050505090565b835185529381019392810192600101610a00565b90602061045c9281815201906109ee565b3461029c57604036600319011261029c5760043567ffffffffffffffff80821161029c573660238301121561029c578160040135610a70816107bf565b92610a7e604051948561076e565b81845260209160248386019160051b8301019136831161029c57602401905b828210610ad6578560243586811161029c5761061391610ac4610aca9236906004016107d7565b90611bd4565b60405191829182610a22565b8380918335610ae48161028b565b815201910190610a9d565b3461029c57602036600319011261029c576040516376e7d7f360e11b815260048035908201526000816024817f00000000000000000000000000000000000000000000000000000000000000006001600160a01b03165afa80156103d65761061391600091610b6e575b50604051918291602083526020830190610426565b610b81913d8091833e61062e818361076e565b505050505050505050509250505038610b59565b3461029c576000806003193601126103e457610baf611b38565b600380546001600160a01b0319811690915581906001600160a01b03167f8be0079c531659141344cd1fd0a4f28419497f9722a3daafe3b4186f6b6457e08280a380f35b3461029c57600036600319011261029c57602060405160468152f35b3461029c57602036600319011261029c57600435610c2c81612d87565b15610c7557610c506611c37937e0800091610c4b83600b541015612dd3565b612ee2565b610c63610c5e600b5461273a565b600b55565b600080808080943382f1156103d65780f35b60405162461bcd60e51b815260206004820152601760248201527f526567656e65726174696f6e206e6f74206e65656465640000000000000000006044820152606490fd5b3461029c57602036600319011261029c57600435610cd833826130b9565b15610d6a576040516376e7d7f360e11b815260048101919091526000816024816001600160a01b037f0000000000000000000000000000000000000000000000000000000000000000165afa80156103d65761061391600091610d43575b506040519182918261044b565b610d56913d8091833e61062e818361076e565b505050505050505050505091505038610d36565b606460405162461bcd60e51b815260206004820152602060248201527f4e6f206163746976652061636365737320746f20746869732061727469636c656044820152fd5b3461029c57600036600319011261029c576003546040516001600160a01b039091168152602090f35b634e487b7160e01b600052603260045260246000fd5b8054821015610e095760005260206000209060021b0190600090565b610dd7565b3461029c57604036600319011261029c5760243560043560005260096020526040600020805482101561029c57608091610e4791610ded565b5080549060018101549060018060a01b036003816002840154169201541691604051938452602084015260408301526060820152f35b3461029c57600036600319011261029c576040517f00000000000000000000000000000000000000000000000000000000000000006001600160a01b03168152602090f35b604036600319011261029c57602435600435610edd8261028b565b610f17610f0f83610ef8846000526006602052604060002090565b9060018060a01b0316600052602052604060002090565b541515612a1a565b610f2081612799565b91610f2a83612093565b92610f3784341015612a5f565b610f4a610f43826126af565b6064900490565b91610f57610f43836126c5565b94610f6b86610f66868661275e565b61275e565b6040516376e7d7f360e11b8152600481018790526000976001600160a01b039189816024817f000000000000000000000000000000000000000000000000000000000000000087165afa9081156103d6578a916111c3575b50610fdc86610ef88b6000526006602052604060002090565b610fe68154612aa2565b9055611012610fff8a6000526006602052604060002090565b3360009081526020919091526040902090565b61101c8154611bac565b9055611031611029612183565b8a3389611c64565b89808080868a169b8c8282156111ba575bf1156103d6578992839283928392839183156111b0575b1690f1156103d65786808080938181156111a7575b739402f9f20b4a27b55b1cc6cf015d98f764814fb290f1156103d65761111a869261109d610c5e600b54612093565b6110c96201518042046110ba896000526008602052604060002090565b90600052602052604060002090565b6110d38154611bac565b90556110e9876000526009602052604060002090565b6111156110f4610790565b42815260208101889052336040820152926001600160a01b03166060840152565b612aaf565b80341161117a575b5050827f3846a81a03c71d25212027d222553680c4fc1bd52b8dfb1f1fbbbcd74c8fec796040518061115a3395829190602083019252565b0390a461116681612d87565b61116e575080f35b61117790612ee2565b80f35b818061118781933461275e565b81811561119e575b3390f1156103d6578338611122565b506108fc61118f565b506108fc61106e565b6108fc9250611059565b506108fc611042565b6111d791503d808c833e61062e818361076e565b505050505050505050935050505038610fc3565b3461029c57604036600319011261029c576004356112088161028b565b602435908115159081830361029c576001600160a01b038116928315611293576112546112659233600052600160205260406000209060018060a01b0316600052602052604060002090565b9060ff801983541691151516179055565b6040519081527f17307eab39ab6107e8899845ad3d59bd9653f200f220920489ca2b5937696c3160203392a3005b60405162ced3e160e81b815260006004820152602490fd5b3461029c57604036600319011261029c5760406112f36024356112cd8161028b565b6004356000526007602052826000209060018060a01b0316600052602052604060002090565b60ff6001825492015416825191825215156020820152f35b9092916040820191604081528451809352606081019260208096019060005b8181106113445750505061045c93948184039101526109ee565b82516001600160a01b03168652948701949187019160010161132a565b3461029c57602036600319011261029c57604051639fb53fcb60e01b8152600480359082018190526000826024816001600160a01b037f0000000000000000000000000000000000000000000000000000000000000000165afa9182156103d657600092611452575b506113d58251611b64565b9160005b81518110156114435761143e9061142d6113fd856000526006602052604060002090565b61141761140a8487611bc0565b516001600160a01b031690565b60018060a01b0316600052602052604060002090565b546114388287611bc0565b52611bac565b6113d9565b6040518061061386858361130b565b61146e91923d8091833e611466818361076e565b810190612e17565b90386113ca565b3461029c57602036600319011261029c57600435600052600a6020526020604060002054604051908152f35b3461029c57602036600319011261029c5760206114bf600435612799565b604051908152f35b3461029c57604036600319011261029c57600435600052600860205260406000206024356000526020526020604060002054604051908152f35b3461029c57600036600319011261029c57602060405160148152f35b3461029c57600036600319011261029c5760206040516611c37937e080008152f35b3461029c57608036600319011261029c5760243560043561155f8261028b565b604435917fe3726a6d4ed43d7d4677d7dffa4cf0a0d67d40db3cd11cccf053dddceaf3d7d3906001600160a01b03906115bb337f0000000000000000000000000000000000000000000000000000000000000000841614612443565b836115d0816000526005602052604060002090565b5560026115e7856000526005602052604060002090565b016115f38682546120cc565b9055600361160b856000526005602052604060002090565b016116178682546120cc565b905561162d84600052600a602052604060002090565b6116388682546120cc565b905561165281610ef8866000526006602052604060002090565b61165d8682546120cc565b905561167261166a612183565b8686846124e6565b604080519586526064356020870152911693a3005b3461029c57600036600319011261029c57602060405160328152f35b3461029c57604036600319011261029c57602060ff6116ff6004356116c78161028b565b602435906116d48261028b565b60018060a01b03166000526001845260406000209060018060a01b0316600052602052604060002090565b54166040519015158152f35b3461029c5760a036600319011261029c576004356117288161028b565b6024356117348161028b565b60843567ffffffffffffffff811161029c57611754903690600401610851565b906001600160a01b0383163381141590816117a7575b5061178057610944926064359160443591611ce5565b60405163711bec9160e11b81523360048201526001600160a01b0384166024820152604490fd5b6000908152600160209081526040808320338452909152902060ff91505416153861176a565b3461029c57602036600319011261029c576004356118036117fb610fff836000526006602052604060002090565b541515612b36565b61181c61181761181333846130b9565b1590565b612b77565b61183433610ef8836000526006602052604060002090565b61183e8154612aa2565b90556003611856826000526005602052604060002090565b016118618154612aa2565b905561186d8133612be6565b611876426120a7565b6118a861188161079f565b828152600160208201526118a333610ef8866000526007602052604060002090565b612bc3565b604051818152339083907f8f4d6f0c7458447e5095acea28045c0cd637aa3b49812761a7ac022e6d643bf690602090a3817fc56e8aa8e9f4284830fd4657bc77d60640af2ec679f2099faf320ee4202ff4226040518061190e3395829190602083019252565b0390a361191a81612d87565b61192057005b61094490612ee2565b3461029c57602036600319011261029c576004356119468161028b565b61194e611b38565b6001600160a01b039081169081156119a257600354826bffffffffffffffffffffffff60a01b821617600355167f8be0079c531659141344cd1fd0a4f28419497f9722a3daafe3b4186f6b6457e0600080a3005b604051631e4fbdf760e01b815260006004820152602490fd5b3461029c57604036600319011261029c5760206109e46024356119dd8161028b565b6004356130b9565b60208082019080835283518092528060408094019401926000905b838210611a0f57505050505090565b8451805187528084015187850152808201516001600160a01b0390811688840152606091820151169087015260809095019493820193600190910190611a00565b3461029c5760208060031936011261029c576004908135600052600981526040918260002090815491611a82836107bf565b93611a8f8651958661076e565b83855260009182528082208186015b858410611ab25787518061061389826119e5565b84836001928a51611ac281610731565b855481528486015483820152848060a01b03806002880154168d8301526003870154166060820152815201920193019290611a9e565b3461029c57600036600319011261029c576020604051662386f26fc100008152f35b3461029c57600036600319011261029c576020600b54604051908152f35b6003546001600160a01b03163303611b4c57565b60405163118cdaa760e01b8152336004820152602490fd5b90611b6e826107bf565b611b7b604051918261076e565b8281528092611b8c601f19916107bf565b0190602036910137565b634e487b7160e01b600052601160045260246000fd5b6000198114611bbb5760010190565b611b96565b8051821015610e095760209160051b010190565b91909180518351808203611c42575050611bee8151611b64565b90600090815b8151811015611c3a578061142d611c359260051b85602080808489010151938c010151825252604086209060018060a01b0316600052602052604060002090565b611bf4565b509193505050565b604051635b05999160e01b815260048101919091526024810191909152604490fd5b9192916001600160a01b0382811615611ccc57811615611cb457611cac61079d9490604051916001835260208301526040820190600182526001606084015260808301604052565b929091611e95565b604051626a0d4560e21b815260006004820152602490fd5b604051632bfa23e760e11b815260006004820152602490fd5b92939290916001600160a01b0380841615611ccc57821615611cb45761079d94611cac60405192600184526020840152604083019160018352606084015260808301604052565b908051835190818103611c4257505060005b8151811015611daa57600581901b8281016020908101519186010151611d78929185906001600160a01b038216611d7d575b505050611bac565b611d3e565b611da091610ef8611d98926000526000602052604060002090565b9182546120cc565b9055388481611d70565b50805191939291600103611e4c576020818101518382015160408051928352928201526001600160a01b0386169160009133917fc3d58168c5ae7397731d063d5bbf3d657854427343f4c083240f7aacaa2d0f6291a45b6001600160a01b038416611e16575b50505050565b8051600103611e3d5790602080611e349593015191015191336121c6565b38808080611e10565b611e4793336123d7565b611e34565b6040516001600160a01b0385169060009033907f4a39dc06d4c0dbc64b70af90fd698a233a518aa5d07e595d983b8c0526c8f7fb9080611e8d8888836120d9565b0390a4611e01565b949190918151845190818103611c4257505060005b8251811015611f9d57600581901b83810160209081015191870101516001600160a01b03929186908a8516611f16575b611eec948216611ef157505050611bac565b611eaa565b611f0c91610ef8611d98926000526000602052604060002090565b9055388581611d70565b9192939050611f338a610ef8846000526000602052604060002090565b54838110611f665791879184611eec96959403611f5e8d610ef8856000526000602052604060002090565b559450611eda565b6040516303dee4c560e01b81526001600160a01b038c16600482015260248101919091526044810184905260648101839052608490fd5b509491939290936001855114600014612048576020858101518382015160408051928352928201526001600160a01b03838116929086169133917fc3d58168c5ae7397731d063d5bbf3d657854427343f4c083240f7aacaa2d0f6291a45b6001600160a01b038116612011575b5050505050565b84516001036120375760208061202d96015192015192336122c0565b388080808061200a565b6120439491923361240c565b61202d565b6040516001600160a01b03828116919085169033907f4a39dc06d4c0dbc64b70af90fd698a233a518aa5d07e595d983b8c0526c8f7fb908061208b888c836120d9565b0390a4611ffb565b906611c37937e080008201809211611bbb57565b9062093a808201809211611bbb57565b90662386f26fc10000918201809211611bbb57565b91908201809211611bbb57565b90916120f061045c936040845260408401906109ee565b9160208184039101526109ee565b9081602091031261029c575161045c81610315565b909260a09261045c9594600180861b0316835260006020840152604083015260608201528160808201520190610426565b919261045c95949160a094600180871b038092168552166020840152604083015260608201528160808201520190610426565b6040513d6000823e3d90fd5b6040519061219082610752565b60008252565b3d156121c1573d906121a782610835565b916121b5604051938461076e565b82523d6000602084013e565b606090565b9293919093843b6121d8575050505050565b6020916121fb604051948593849363f23a6e6160e01b9889865260048601612113565b038160006001600160a01b0388165af160009181612290575b506122535782612222612196565b805191908261224c57604051632bfa23e760e11b81526001600160a01b0383166004820152602490fd5b9050602001fd5b6001600160e01b0319160361226d5750388080808061200a565b604051632bfa23e760e11b81526001600160a01b03919091166004820152602490fd5b6122b291925060203d81116122b9575b6122aa818361076e565b8101906120fe565b9038612214565b503d6122a0565b939290949194853b6122d5575b505050505050565b6122f8602093604051958694859463f23a6e6160e01b998a875260048701612144565b038160006001600160a01b0388165af16000918161233a575b5061231f5782612222612196565b6001600160e01b0319160361226d57503880808080806122cd565b61235391925060203d81116122b9576122aa818361076e565b9038612311565b9261238961045c95936123979360018060a01b031686526000602087015260a0604087015260a08601906109ee565b9084820360608601526109ee565b916080818403910152610426565b939061045c9593612389916123979460018060a01b03809216885216602087015260a0604087015260a08601906109ee565b9293919093843b6123e9575050505050565b6020916121fb604051948593849363bc197c8160e01b988986526004860161235a565b939290949194853b61242057505050505050565b6122f8602093604051958694859463bc197c8160e01b998a8752600487016123a5565b1561244a57565b60405162461bcd60e51b815260206004820152602860248201527f4f6e6c7920456e6372797074656441727469636c657320636f6e74726163742060448201526718d85b881b5a5b9d60c21b6064820152608490fd5b9091906001600160a01b03811615611ccc576124e061079d9390604051916001835260208301526040820190600182526001606084015260808301604052565b91611d2c565b919291906001600160a01b03821615611ccc5761079d936124e060405192600184526020840152604083019160018352606084015260808301604052565b1561252b57565b60405162461bcd60e51b815260206004820152602260248201527f4e6f206c6963656e73657320657869737420666f7220746869732061727469636044820152616c6560f01b6064820152608490fd5b81601f8201121561029c57805161259181610835565b9261259f604051948561076e565b8184526020828401011161029c5761045c9160208085019101610403565b519061079d8261028b565b519060ff8216820361029c57565b6101c08183031261029c57805192602082015167ffffffffffffffff9081811161029c578461260691850161257b565b93604084015182811161029c578161261f91860161257b565b93606081015183811161029c578261263891830161257b565b93612645608083016125bd565b9360a083015181811161029c578461265e91850161257b565b9360c084015191821161029c5761267691840161257b565b9160e081015191610100820151916101208101519161014082015191610160810151916101a06126a961018084016125c8565b92015190565b90604682029180830460461490151715611bbb57565b90601482029180830460141490151715611bbb57565b81810292918115918404141715611bbb57565b156126f557565b60405162461bcd60e51b815260206004820152601d60248201527f496e76616c6964206c6963656e736520636f6e66696775726174696f6e0000006044820152606490fd5b6611c37937e07fff19810191908211611bbb57565b600019810191908211611bbb57565b91908203918211611bbb57565b634e487b7160e01b600052601260045260246000fd5b801561279457670dbd2fc137a300000490565b61276b565b6127ad81600052600a602052604060002090565b546127b9811515612524565b6040516376e7d7f360e11b8152600481018390526000929083816024816001600160a01b037f0000000000000000000000000000000000000000000000000000000000000000165afa80156103d657612864936128266128599261285e948890899261288b575b506126db565b6128318115156126ee565b60018111156128805761284e6128496128549261274f565b612781565b9161274f565b6126db565b6120b7565b906128b5565b670de0b6b3a764000091508181111561287b575090565b905090565b50612854869161274f565b90506128a191503d808a833e61062e818361076e565b50509a505050965050505050505038612820565b6040516376e7d7f360e11b81526004810182905260009391929084816024816001600160a01b037f0000000000000000000000000000000000000000000000000000000000000000165afa9081156103d6576129269161291d9187916129f2575b504261275e565b62015180900490565b9380936201518042049082955b878710806129e8575b156129db57612970612958836000526008602052604060002090565b612962898661275e565b600052602052604060002090565b5461298d5761298161298791611bac565b96611bac565b95612933565b93955050509193505b601e8111156129cf57506129af610f43601e5b846126db565b9050808211156129c25761045c9161275e565b505066038d7ea4c6800090565b610f436129af916129a9565b9395505050919350612996565b50601e871061293c565b612a0691503d8089833e61062e818361076e565b505050505050965050505050505038612916565b15612a2157565b60405162461bcd60e51b815260206004820152601660248201527553656c6c657220686173206e6f206c6963656e73657360501b6044820152606490fd5b15612a6657565b60405162461bcd60e51b8152602060048201526014602482015273125b9cdd59999a58da595b9d081c185e5b595b9d60621b6044820152606490fd5b8015611bbb576000190190565b80546801000000000000000081101561074d57612ad191600182018155610ded565b612b2057815181556020820151600182015560408201516002820180546001600160a01b039283166001600160a01b031991821617909155606090930151600390920180549093169116179055565b634e487b7160e01b600052600060045260246000fd5b15612b3d57565b60405162461bcd60e51b81526020600482015260126024820152712737903634b1b2b739b2903a3790313ab93760711b6044820152606490fd5b15612b7e57565b60405162461bcd60e51b815260206004820152601960248201527f416c7265616479206861732061637469766520616363657373000000000000006044820152606490fd5b6001602061079d93805184550151151591019060ff801983541691151516179055565b6001600160a01b038116918215611cb457612c20604051916001835260208301526040820190600182526001606084015260808301604052565b919060409460008651612c3281610752565b528151845190818103612d6657505060005b8251811015612cdf578060051b60208082860101519187010151612c7686610ef8846000526000602052604060002090565b54818110612ca95786610ef8612ca4959493612c9e9303936000526000602052604060002090565b55611bac565b612c44565b89516303dee4c560e01b81526001600160a01b038816600482015260248101919091526044810182905260648101839052608490fd5b50949060009493925060018151148514612d345760209081015192810151915192835282015233907fc3d58168c5ae7397731d063d5bbf3d657854427343f4c083240f7aacaa2d0f629080604081015b0390a4565b905133927f4a39dc06d4c0dbc64b70af90fd698a233a518aa5d07e595d983b8c0526c8f7fb928291612d2f91836120d9565b8751635b05999160e01b815260048101919091526024810191909152604490fd5b6000526005602052604060002060036002820154910154908015612dcc5781810391818311611bbb57606483029283046064149082141715611bbb5760329104101590565b5050600090565b15612dda57565b60405162461bcd60e51b8152602060048201526015602482015274125b9cdd59999a58da595b9d0819d85cc81c1bdbdb605a1b6044820152606490fd5b602090818184031261029c5780519067ffffffffffffffff821161029c57019180601f8401121561029c578251612e4d816107bf565b93612e5b604051958661076e565b818552838086019260051b82010192831161029c578301905b828210612e82575050505090565b8380918351612e908161028b565b815201910190612e74565b15612ea257565b60405162461bcd60e51b815260206004820152600e60248201526d4e6f204e465420686f6c6465727360901b6044820152606490fd5b8115612794570690565b90612f1c6002612efc846000526005602052604060002090565b01546003612f14856000526005602052604060002090565b01549061275e565b9182156130b457604051639fb53fcb60e01b815260048101829052926000846024816001600160a01b037f0000000000000000000000000000000000000000000000000000000000000000165afa9384156103d657600094613099575b50612f8684511515612e9b565b60005b81811061303e5750819293506003612fcb7eb4ea54fb8c538cd9c23515e23d54351acc66c4539507193ceae7d70e65d30d936000526005602052604060002090565b01612fd78282546120cc565b9055426004612ff0856000526005602052604060002090565b015561300683600052600a602052604060002090565b6130118282546120cc565b90556003613029846000526005602052604060002090565b015460408051928352602083019190915290a2565b6130949061308f61305c61140a613056895185612ed8565b89611bc0565b61307481610ef8886000526006602052604060002090565b61307e8154611bac565b905585613089612183565b916124a0565b611bac565b612f89565b6130ad91943d8091833e611466818361076e565b9238612f79565b509050565b60009081526007602090815260408083206001600160a01b0390941683529290522060405190604082019180831067ffffffffffffffff84111761074d5760209260405260ff6001835493848452015416151592839101528161311a575090565b9050421090565b9061313460209282815194859201610403565b019056fea2646970667358221220b1909d321a4c0b53c78dfefd6f2029d54ebfec0974cc8909a4ea00f62112975864736f6c63430008140033","opcodes":"PUSH1 0xA0 CALLVALUE PUSH3 0x1D8 JUMPI PUSH1 0x1 PUSH1 0x1 PUSH1 0x40 SHL SUB SWAP1 PUSH1 0x1F PUSH3 0x334C CODESIZE DUP2 SWAP1 SUB SWAP2 DUP3 ADD PUSH1 0x1F NOT AND DUP4 ADD SWAP2 DUP5 DUP4 GT DUP5 DUP5 LT OR PUSH3 0x1C2 JUMPI DUP1 DUP5 SWAP3 PUSH1 0x20 SWAP5 PUSH1 0x40 MSTORE DUP4 CODECOPY DUP2 ADD SUB SLT PUSH3 0x1D8 JUMPI MLOAD PUSH1 0x1 PUSH1 0x1 PUSH1 0xA0 SHL SUB SWAP2 DUP3 DUP3 AND SWAP2 DUP3 SWAP1 SUB PUSH3 0x1D8 JUMPI PUSH1 0x40 MLOAD SWAP1 PUSH1 0x20 DUP3 ADD SWAP1 DUP2 GT DUP3 DUP3 LT OR PUSH3 0x1C2 JUMPI PUSH1 0x40 MSTORE PUSH1 0x0 DUP1 SWAP2 MSTORE PUSH1 0x2 SLOAD PUSH1 0x1 SWAP1 DUP2 DUP2 DUP2 SHR SWAP2 AND DUP1 ISZERO PUSH3 0x1B7 JUMPI JUMPDEST PUSH1 0x20 DUP3 LT EQ PUSH3 0x1A3 JUMPI PUSH1 0x1F DUP2 GT PUSH3 0x159 JUMPI JUMPDEST POP POP DUP1 PUSH1 0x2 SSTORE CALLER ISZERO PUSH3 0x141 JUMPI PUSH1 0x3 SLOAD SWAP1 CALLER PUSH1 0x1 DUP1 PUSH1 0xA0 SHL SUB NOT DUP4 AND OR PUSH1 0x3 SSTORE PUSH32 0x8BE0079C531659141344CD1FD0A4F28419497F9722A3DAAFE3B4186F6B6457E0 PUSH1 0x40 MLOAD SWAP5 CALLER SWAP4 AND SWAP2 DUP1 LOG3 PUSH1 0x80 MSTORE PUSH2 0x316E SWAP1 DUP2 PUSH3 0x1DE DUP3 CODECOPY PUSH1 0x80 MLOAD DUP2 DUP2 DUP2 PUSH2 0x495 ADD MSTORE DUP2 DUP2 PUSH2 0xB1D ADD MSTORE DUP2 DUP2 PUSH2 0xD02 ADD MSTORE DUP2 DUP2 PUSH2 0xE93 ADD MSTORE DUP2 DUP2 PUSH2 0xF92 ADD MSTORE DUP2 DUP2 PUSH2 0x1399 ADD MSTORE DUP2 DUP2 PUSH2 0x1594 ADD MSTORE DUP2 DUP2 PUSH2 0x27E0 ADD MSTORE DUP2 DUP2 PUSH2 0x28DE ADD MSTORE PUSH2 0x2F48 ADD MSTORE RETURN JUMPDEST PUSH1 0x24 SWAP1 PUSH1 0x40 MLOAD SWAP1 PUSH4 0x1E4FBDF7 PUSH1 0xE0 SHL DUP3 MSTORE PUSH1 0x4 DUP3 ADD MSTORE REVERT JUMPDEST PUSH1 0x2 DUP4 MSTORE PUSH1 0x1F ADD PUSH1 0x5 SHR PUSH32 0x405787FA12A823E0F2B7631CC41B3BA8828B3321CA811111FA75CD3AA3BB5ACE SWAP1 DUP2 ADD SWAP1 JUMPDEST DUP2 DUP2 LT PUSH3 0x198 JUMPI POP PUSH3 0x9E JUMP JUMPDEST DUP4 DUP2 SSTORE DUP3 ADD PUSH3 0x189 JUMP JUMPDEST PUSH4 0x4E487B71 PUSH1 0xE0 SHL DUP4 MSTORE PUSH1 0x22 PUSH1 0x4 MSTORE PUSH1 0x24 DUP4 REVERT JUMPDEST SWAP1 PUSH1 0x7F AND SWAP1 PUSH3 0x8A JUMP JUMPDEST PUSH4 0x4E487B71 PUSH1 0xE0 SHL PUSH1 0x0 MSTORE PUSH1 0x41 PUSH1 0x4 MSTORE PUSH1 0x24 PUSH1 0x0 REVERT JUMPDEST PUSH1 0x0 DUP1 REVERT INVALID PUSH1 0x80 PUSH1 0x40 MSTORE PUSH1 0x4 CALLDATASIZE LT ISZERO PUSH2 0x12 JUMPI PUSH1 0x0 DUP1 REVERT JUMPDEST PUSH1 0x0 CALLDATALOAD PUSH1 0xE0 SHR DUP1 PUSH3 0xFDD58E EQ PUSH2 0x286 JUMPI DUP1 PUSH4 0x1C11D96 EQ PUSH2 0x281 JUMPI DUP1 PUSH4 0x1FFC9A7 EQ PUSH2 0x27C JUMPI DUP1 PUSH4 0x813D3F6 EQ PUSH2 0x277 JUMPI DUP1 PUSH4 0x9886C9C EQ PUSH2 0x272 JUMPI DUP1 PUSH4 0xE89341C EQ PUSH2 0x26D JUMPI DUP1 PUSH4 0x1453A424 EQ PUSH2 0x268 JUMPI DUP1 PUSH4 0x1E084558 EQ PUSH2 0x263 JUMPI DUP1 PUSH4 0x2D2C5565 EQ PUSH2 0x25E JUMPI DUP1 PUSH4 0x2EB2C2D6 EQ PUSH2 0x259 JUMPI DUP1 PUSH4 0x43C7580E EQ PUSH2 0x254 JUMPI DUP1 PUSH4 0x4E1273F4 EQ PUSH2 0x24F JUMPI DUP1 PUSH4 0x607EA36D EQ PUSH2 0x24A JUMPI DUP1 PUSH4 0x715018A6 EQ PUSH2 0x245 JUMPI DUP1 PUSH4 0x72009528 EQ PUSH2 0x240 JUMPI DUP1 PUSH4 0x75315716 EQ PUSH2 0x23B JUMPI DUP1 PUSH4 0x8D40E0CD EQ PUSH2 0x236 JUMPI DUP1 PUSH4 0x8DA5CB5B EQ PUSH2 0x231 JUMPI DUP1 PUSH4 0x95F58AB8 EQ PUSH2 0x22C JUMPI DUP1 PUSH4 0x98E9D0E0 EQ PUSH2 0x227 JUMPI DUP1 PUSH4 0x996CB745 EQ PUSH2 0x222 JUMPI DUP1 PUSH4 0xA22CB465 EQ PUSH2 0x21D JUMPI DUP1 PUSH4 0xAB0B8B04 EQ PUSH2 0x218 JUMPI DUP1 PUSH4 0xB3C655C0 EQ PUSH2 0x213 JUMPI DUP1 PUSH4 0xBCA59003 EQ PUSH2 0x20E JUMPI DUP1 PUSH4 0xC55D0F56 EQ PUSH2 0x209 JUMPI DUP1 PUSH4 0xC98D6E99 EQ PUSH2 0x204 JUMPI DUP1 PUSH4 0xCA9F19EF EQ PUSH2 0x1FF JUMPI DUP1 PUSH4 0xCB8B2522 EQ PUSH2 0x1FA JUMPI DUP1 PUSH4 0xDF81A823 EQ PUSH2 0x1F5 JUMPI DUP1 PUSH4 0xE3685397 EQ PUSH2 0x1F0 JUMPI DUP1 PUSH4 0xE985E9C5 EQ PUSH2 0x1EB JUMPI DUP1 PUSH4 0xF242432A EQ PUSH2 0x1E6 JUMPI DUP1 PUSH4 0xF24C4EAC EQ PUSH2 0x1E1 JUMPI DUP1 PUSH4 0xF2FDE38B EQ PUSH2 0x1DC JUMPI DUP1 PUSH4 0xF499924B EQ PUSH2 0x1D7 JUMPI DUP1 PUSH4 0xF4BF28A0 EQ PUSH2 0x1D2 JUMPI DUP1 PUSH4 0xF86325ED EQ PUSH2 0x1CD JUMPI PUSH4 0xFA08B038 EQ PUSH2 0x1C8 JUMPI PUSH1 0x0 DUP1 REVERT JUMPDEST PUSH2 0x1B1A JUMP JUMPDEST PUSH2 0x1AF8 JUMP JUMPDEST PUSH2 0x1A50 JUMP JUMPDEST PUSH2 0x19BB JUMP JUMPDEST PUSH2 0x1929 JUMP JUMPDEST PUSH2 0x17CD JUMP JUMPDEST PUSH2 0x170B JUMP JUMPDEST PUSH2 0x16A3 JUMP JUMPDEST PUSH2 0x1687 JUMP JUMPDEST PUSH2 0x153F JUMP JUMPDEST PUSH2 0x151D JUMP JUMPDEST PUSH2 0x1501 JUMP JUMPDEST PUSH2 0x14C7 JUMP JUMPDEST PUSH2 0x14A1 JUMP JUMPDEST PUSH2 0x1475 JUMP JUMPDEST PUSH2 0x1361 JUMP JUMPDEST PUSH2 0x12AB JUMP JUMPDEST PUSH2 0x11EB JUMP JUMPDEST PUSH2 0xEC2 JUMP JUMPDEST PUSH2 0xE7D JUMP JUMPDEST PUSH2 0xE0E JUMP JUMPDEST PUSH2 0xDAE JUMP JUMPDEST PUSH2 0xCBA JUMP JUMPDEST PUSH2 0xC0F JUMP JUMPDEST PUSH2 0xBF3 JUMP JUMPDEST PUSH2 0xB95 JUMP JUMPDEST PUSH2 0xAEF JUMP JUMPDEST PUSH2 0xA33 JUMP JUMPDEST PUSH2 0x9C6 JUMP JUMPDEST PUSH2 0x898 JUMP JUMPDEST PUSH2 0x6EC JUMP JUMPDEST PUSH2 0x694 JUMP JUMPDEST PUSH2 0x64C JUMP JUMPDEST PUSH2 0x45F JUMP JUMPDEST PUSH2 0x3E7 JUMP JUMPDEST PUSH2 0x395 JUMP JUMPDEST PUSH2 0x327 JUMP JUMPDEST PUSH2 0x2F2 JUMP JUMPDEST PUSH2 0x2A1 JUMP JUMPDEST PUSH1 0x1 PUSH1 0x1 PUSH1 0xA0 SHL SUB DUP2 AND SUB PUSH2 0x29C JUMPI JUMP JUMPDEST PUSH1 0x0 DUP1 REVERT JUMPDEST CALLVALUE PUSH2 0x29C JUMPI PUSH1 0x40 CALLDATASIZE PUSH1 0x3 NOT ADD SLT PUSH2 0x29C JUMPI PUSH1 0x20 PUSH2 0x2E9 PUSH1 0x4 CALLDATALOAD PUSH2 0x2C3 DUP2 PUSH2 0x28B JUMP JUMPDEST PUSH1 0x24 CALLDATALOAD PUSH1 0x0 MSTORE PUSH1 0x0 DUP4 MSTORE PUSH1 0x40 PUSH1 0x0 KECCAK256 SWAP1 PUSH1 0x1 DUP1 PUSH1 0xA0 SHL SUB AND PUSH1 0x0 MSTORE PUSH1 0x20 MSTORE PUSH1 0x40 PUSH1 0x0 KECCAK256 SWAP1 JUMP JUMPDEST SLOAD PUSH1 0x40 MLOAD SWAP1 DUP2 MSTORE RETURN JUMPDEST CALLVALUE PUSH2 0x29C JUMPI PUSH1 0x0 CALLDATASIZE PUSH1 0x3 NOT ADD SLT PUSH2 0x29C JUMPI PUSH1 0x20 PUSH1 0x40 MLOAD PUSH8 0xDE0B6B3A7640000 DUP2 MSTORE RETURN JUMPDEST PUSH1 0x1 PUSH1 0x1 PUSH1 0xE0 SHL SUB NOT DUP2 AND SUB PUSH2 0x29C JUMPI JUMP JUMPDEST CALLVALUE PUSH2 0x29C JUMPI PUSH1 0x20 CALLDATASIZE PUSH1 0x3 NOT ADD SLT PUSH2 0x29C JUMPI PUSH1 0x20 PUSH1 0x4 CALLDATALOAD PUSH2 0x346 DUP2 PUSH2 0x315 JUMP JUMPDEST PUSH4 0xFFFFFFFF PUSH1 0xE0 SHL AND PUSH4 0x6CDB3D13 PUSH1 0xE1 SHL DUP2 EQ SWAP1 DUP2 ISZERO PUSH2 0x384 JUMPI JUMPDEST DUP2 ISZERO PUSH2 0x373 JUMPI JUMPDEST POP PUSH1 0x40 MLOAD SWAP1 ISZERO ISZERO DUP2 MSTORE RETURN JUMPDEST PUSH4 0x1FFC9A7 PUSH1 0xE0 SHL EQ SWAP1 POP CODESIZE PUSH2 0x368 JUMP JUMPDEST PUSH4 0x3A24D07 PUSH1 0xE2 SHL DUP2 EQ SWAP2 POP PUSH2 0x361 JUMP JUMPDEST CALLVALUE PUSH2 0x29C JUMPI PUSH1 0x0 DUP1 PUSH1 0x3 NOT CALLDATASIZE ADD SLT PUSH2 0x3E4 JUMPI PUSH2 0x3AF PUSH2 0x1B38 JUMP JUMPDEST DUP1 DUP1 DUP1 DUP1 PUSH1 0xB SLOAD DUP2 PUSH1 0xB SSTORE PUSH1 0x1 DUP1 PUSH1 0xA0 SHL SUB PUSH1 0x3 SLOAD AND DUP3 DUP3 ISZERO PUSH2 0x3DB JUMPI JUMPDEST CALL ISZERO PUSH2 0x3D6 JUMPI DUP1 RETURN JUMPDEST PUSH2 0x2177 JUMP JUMPDEST POP PUSH2 0x8FC PUSH2 0x3CD JUMP JUMPDEST DUP1 REVERT JUMPDEST CALLVALUE PUSH2 0x29C JUMPI PUSH1 0x0 CALLDATASIZE PUSH1 0x3 NOT ADD SLT PUSH2 0x29C JUMPI PUSH1 0x20 PUSH1 0x40 MLOAD PUSH1 0xA DUP2 MSTORE RETURN JUMPDEST PUSH1 0x0 JUMPDEST DUP4 DUP2 LT PUSH2 0x416 JUMPI POP POP PUSH1 0x0 SWAP2 ADD MSTORE JUMP JUMPDEST DUP2 DUP2 ADD MLOAD DUP4 DUP3 ADD MSTORE PUSH1 0x20 ADD PUSH2 0x406 JUMP JUMPDEST SWAP1 PUSH1 0x20 SWAP2 PUSH2 0x43F DUP2 MLOAD DUP1 SWAP3 DUP2 DUP6 MSTORE DUP6 DUP1 DUP7 ADD SWAP2 ADD PUSH2 0x403 JUMP JUMPDEST PUSH1 0x1F ADD PUSH1 0x1F NOT AND ADD ADD SWAP1 JUMP JUMPDEST SWAP1 PUSH1 0x20 PUSH2 0x45C SWAP3 DUP2 DUP2 MSTORE ADD SWAP1 PUSH2 0x426 JUMP JUMPDEST SWAP1 JUMP JUMPDEST CALLVALUE PUSH2 0x29C JUMPI PUSH1 0x20 CALLDATASIZE PUSH1 0x3 NOT ADD SLT PUSH2 0x29C JUMPI PUSH1 0x40 MLOAD PUSH4 0x76E7D7F3 PUSH1 0xE1 SHL DUP2 MSTORE PUSH1 0x4 DUP1 CALLDATALOAD SWAP1 DUP3 ADD MSTORE PUSH1 0x0 DUP2 PUSH1 0x24 DUP2 PUSH1 0x1 PUSH1 0x1 PUSH1 0xA0 SHL SUB PUSH32 0x0 AND GAS STATICCALL DUP1 ISZERO PUSH2 0x3D6 JUMPI PUSH1 0x0 SWAP1 DUP2 SWAP3 DUP3 SWAP2 PUSH2 0x617 JUMPI JUMPDEST POP PUSH1 0x40 MLOAD PUSH32 0x7B226E616D65223A2022526561646572204C6963656E7365202D200000000000 PUSH1 0x20 DUP3 ADD MSTORE SWAP3 DUP4 SWAP3 PUSH1 0x3B DUP5 ADD PUSH2 0x503 SWAP2 PUSH2 0x3121 JUMP JUMPDEST PUSH2 0x88B PUSH1 0xF2 SHL DUP2 MSTORE PUSH1 0x2 ADD PUSH16 0x113232B9B1B934B83A34B7B7111D1011 PUSH1 0x81 SHL DUP2 MSTORE PUSH1 0x10 ADD PUSH2 0x530 SWAP2 PUSH2 0x3121 JUMP JUMPDEST PUSH2 0x88B PUSH1 0xF2 SHL DUP2 MSTORE PUSH1 0x2 ADD PUSH15 0x2261747472696275746573223A205B PUSH1 0x88 SHL DUP2 MSTORE PUSH1 0xF ADD PUSH32 0x7B2274726169745F74797065223A20224C6F636174696F6E222C202276616C75 DUP2 MSTORE PUSH5 0x32911D1011 PUSH1 0xD9 SHL PUSH1 0x20 DUP3 ADD MSTORE PUSH1 0x25 ADD PUSH2 0x590 SWAP2 PUSH2 0x3121 JUMP JUMPDEST PUSH3 0x89F4B PUSH1 0xEA SHL DUP2 MSTORE PUSH1 0x3 ADD PUSH32 0x7B2274726169745F74797065223A20224C6963656E73652054797065222C2022 DUP2 MSTORE PUSH32 0x76616C7565223A202252656164657220416363657373227D0000000000000000 PUSH1 0x20 DUP3 ADD MSTORE PUSH1 0x38 ADD PUSH2 0x5D7D PUSH1 0xF0 SHL DUP2 MSTORE PUSH1 0x2 ADD SUB PUSH1 0x1F NOT DUP2 ADD DUP3 MSTORE PUSH2 0x605 SWAP1 DUP3 PUSH2 0x76E JUMP JUMPDEST PUSH1 0x40 MLOAD PUSH2 0x613 DUP2 SWAP3 DUP3 PUSH2 0x44B JUMP JUMPDEST SUB SWAP1 RETURN JUMPDEST SWAP2 SWAP1 POP PUSH2 0x636 SWAP3 POP RETURNDATASIZE DUP1 SWAP2 DUP4 RETURNDATACOPY PUSH2 0x62E DUP2 DUP4 PUSH2 0x76E JUMP JUMPDEST DUP2 ADD SWAP1 PUSH2 0x25D6 JUMP JUMPDEST POP POP POP POP POP POP POP POP SWAP5 POP POP SWAP2 SWAP1 POP SWAP1 SWAP2 CODESIZE PUSH2 0x4C9 JUMP JUMPDEST CALLVALUE PUSH2 0x29C JUMPI PUSH1 0x40 CALLDATASIZE PUSH1 0x3 NOT ADD SLT PUSH2 0x29C JUMPI PUSH1 0x20 PUSH2 0x2E9 PUSH1 0x24 CALLDATALOAD PUSH2 0x66E DUP2 PUSH2 0x28B JUMP JUMPDEST PUSH1 0x4 CALLDATALOAD PUSH1 0x0 MSTORE PUSH1 0x6 DUP4 MSTORE PUSH1 0x40 PUSH1 0x0 KECCAK256 SWAP1 PUSH1 0x1 DUP1 PUSH1 0xA0 SHL SUB AND PUSH1 0x0 MSTORE PUSH1 0x20 MSTORE PUSH1 0x40 PUSH1 0x0 KECCAK256 SWAP1 JUMP JUMPDEST CALLVALUE PUSH2 0x29C JUMPI PUSH1 0x20 CALLDATASIZE PUSH1 0x3 NOT ADD SLT PUSH2 0x29C JUMPI PUSH1 0x4 CALLDATALOAD PUSH1 0x0 MSTORE PUSH1 0x5 PUSH1 0x20 MSTORE PUSH1 0xA0 PUSH1 0x40 PUSH1 0x0 KECCAK256 DUP1 SLOAD SWAP1 PUSH1 0x1 DUP2 ADD SLOAD SWAP1 PUSH1 0x2 DUP2 ADD SLOAD PUSH1 0x4 PUSH1 0x3 DUP4 ADD SLOAD SWAP3 ADD SLOAD SWAP3 PUSH1 0x40 MLOAD SWAP5 DUP6 MSTORE PUSH1 0x20 DUP6 ADD MSTORE PUSH1 0x40 DUP5 ADD MSTORE PUSH1 0x60 DUP4 ADD MSTORE PUSH1 0x80 DUP3 ADD MSTORE RETURN JUMPDEST CALLVALUE PUSH2 0x29C JUMPI PUSH1 0x0 CALLDATASIZE PUSH1 0x3 NOT ADD SLT PUSH2 0x29C JUMPI PUSH1 0x20 PUSH1 0x40 MLOAD PUSH20 0x9402F9F20B4A27B55B1CC6CF015D98F764814FB2 DUP2 MSTORE RETURN JUMPDEST PUSH4 0x4E487B71 PUSH1 0xE0 SHL PUSH1 0x0 MSTORE PUSH1 0x41 PUSH1 0x4 MSTORE PUSH1 0x24 PUSH1 0x0 REVERT JUMPDEST PUSH1 0x80 DUP2 ADD SWAP1 DUP2 LT PUSH8 0xFFFFFFFFFFFFFFFF DUP3 GT OR PUSH2 0x74D JUMPI PUSH1 0x40 MSTORE JUMP JUMPDEST PUSH2 0x71B JUMP JUMPDEST PUSH1 0x20 DUP2 ADD SWAP1 DUP2 LT PUSH8 0xFFFFFFFFFFFFFFFF DUP3 GT OR PUSH2 0x74D JUMPI PUSH1 0x40 MSTORE JUMP JUMPDEST SWAP1 PUSH1 0x1F DUP1 NOT SWAP2 ADD AND DUP2 ADD SWAP1 DUP2 LT PUSH8 0xFFFFFFFFFFFFFFFF DUP3 GT OR PUSH2 0x74D JUMPI PUSH1 0x40 MSTORE JUMP JUMPDEST PUSH1 0x40 MLOAD SWAP1 PUSH2 0x79D DUP3 PUSH2 0x731 JUMP JUMPDEST JUMP JUMPDEST PUSH1 0x40 MLOAD SWAP1 PUSH1 0x40 DUP3 ADD DUP3 DUP2 LT PUSH8 0xFFFFFFFFFFFFFFFF DUP3 GT OR PUSH2 0x74D JUMPI PUSH1 0x40 MSTORE JUMP JUMPDEST PUSH8 0xFFFFFFFFFFFFFFFF DUP2 GT PUSH2 0x74D JUMPI PUSH1 0x5 SHL PUSH1 0x20 ADD SWAP1 JUMP JUMPDEST DUP2 PUSH1 0x1F DUP3 ADD SLT ISZERO PUSH2 0x29C JUMPI DUP1 CALLDATALOAD SWAP2 PUSH2 0x7EE DUP4 PUSH2 0x7BF JUMP JUMPDEST SWAP3 PUSH2 0x7FC PUSH1 0x40 MLOAD SWAP5 DUP6 PUSH2 0x76E JUMP JUMPDEST DUP1 DUP5 MSTORE PUSH1 0x20 SWAP3 DUP4 DUP1 DUP7 ADD SWAP3 PUSH1 0x5 SHL DUP3 ADD ADD SWAP3 DUP4 GT PUSH2 0x29C JUMPI DUP4 ADD SWAP1 JUMPDEST DUP3 DUP3 LT PUSH2 0x826 JUMPI POP POP POP POP SWAP1 JUMP JUMPDEST DUP2 CALLDATALOAD DUP2 MSTORE SWAP1 DUP4 ADD SWAP1 DUP4 ADD PUSH2 0x818 JUMP JUMPDEST PUSH8 0xFFFFFFFFFFFFFFFF DUP2 GT PUSH2 0x74D JUMPI PUSH1 0x1F ADD PUSH1 0x1F NOT AND PUSH1 0x20 ADD SWAP1 JUMP JUMPDEST DUP2 PUSH1 0x1F DUP3 ADD SLT ISZERO PUSH2 0x29C JUMPI DUP1 CALLDATALOAD SWAP1 PUSH2 0x868 DUP3 PUSH2 0x835 JUMP JUMPDEST SWAP3 PUSH2 0x876 PUSH1 0x40 MLOAD SWAP5 DUP6 PUSH2 0x76E JUMP JUMPDEST DUP3 DUP5 MSTORE PUSH1 0x20 DUP4 DUP4 ADD ADD GT PUSH2 0x29C JUMPI DUP2 PUSH1 0x0 SWAP3 PUSH1 0x20 DUP1 SWAP4 ADD DUP4 DUP7 ADD CALLDATACOPY DUP4 ADD ADD MSTORE SWAP1 JUMP JUMPDEST CALLVALUE PUSH2 0x29C JUMPI PUSH1 0xA0 CALLDATASIZE PUSH1 0x3 NOT ADD SLT PUSH2 0x29C JUMPI PUSH1 0x4 DUP1 CALLDATALOAD PUSH2 0x8B6 DUP2 PUSH2 0x28B JUMP JUMPDEST PUSH1 0x24 CALLDATALOAD PUSH2 0x8C2 DUP2 PUSH2 0x28B JUMP JUMPDEST PUSH8 0xFFFFFFFFFFFFFFFF SWAP1 PUSH1 0x44 CALLDATALOAD DUP3 DUP2 GT PUSH2 0x29C JUMPI PUSH2 0x8E3 SWAP1 CALLDATASIZE SWAP1 DUP7 ADD PUSH2 0x7D7 JUMP JUMPDEST SWAP1 PUSH1 0x64 CALLDATALOAD DUP4 DUP2 GT PUSH2 0x29C JUMPI PUSH2 0x8FB SWAP1 CALLDATASIZE SWAP1 DUP8 ADD PUSH2 0x7D7 JUMP JUMPDEST SWAP3 PUSH1 0x84 CALLDATALOAD SWAP1 DUP2 GT PUSH2 0x29C JUMPI PUSH2 0x913 SWAP1 CALLDATASIZE SWAP1 DUP8 ADD PUSH2 0x851 JUMP JUMPDEST SWAP4 PUSH1 0x1 PUSH1 0x1 PUSH1 0xA0 SHL SUB DUP1 DUP3 AND SWAP1 CALLER DUP3 EQ ISZERO DUP1 PUSH2 0x9A2 JUMPI JUMPDEST PUSH2 0x975 JUMPI DUP4 AND ISZERO PUSH2 0x95D JUMPI ISZERO PUSH2 0x946 JUMPI PUSH2 0x944 SWAP6 POP PUSH2 0x1E95 JUMP JUMPDEST STOP JUMPDEST PUSH1 0x40 MLOAD PUSH3 0x6A0D45 PUSH1 0xE2 SHL DUP2 MSTORE PUSH1 0x0 DUP2 DUP9 ADD MSTORE PUSH1 0x24 SWAP1 REVERT JUMPDEST PUSH1 0x40 MLOAD PUSH4 0x2BFA23E7 PUSH1 0xE1 SHL DUP2 MSTORE PUSH1 0x0 DUP2 DUP10 ADD MSTORE PUSH1 0x24 SWAP1 REVERT JUMPDEST PUSH1 0x40 DUP1 MLOAD PUSH4 0x711BEC91 PUSH1 0xE1 SHL DUP2 MSTORE CALLER DUP2 DUP12 ADD SWAP1 DUP2 MSTORE PUSH1 0x1 PUSH1 0x1 PUSH1 0xA0 SHL SUB DUP7 AND PUSH1 0x20 DUP3 ADD MSTORE SWAP1 SWAP2 DUP3 SWAP2 ADD SUB SWAP1 REVERT JUMPDEST POP PUSH1 0x0 DUP3 DUP2 MSTORE PUSH1 0x1 PUSH1 0x20 SWAP1 DUP2 MSTORE PUSH1 0x40 DUP1 DUP4 KECCAK256 CALLER DUP5 MSTORE SWAP1 SWAP2 MSTORE SWAP1 KECCAK256 SLOAD PUSH1 0xFF AND ISZERO PUSH2 0x92A JUMP JUMPDEST CALLVALUE PUSH2 0x29C JUMPI PUSH1 0x20 CALLDATASIZE PUSH1 0x3 NOT ADD SLT PUSH2 0x29C JUMPI PUSH1 0x20 PUSH2 0x9E4 PUSH1 0x4 CALLDATALOAD PUSH2 0x2D87 JUMP JUMPDEST PUSH1 0x40 MLOAD SWAP1 ISZERO ISZERO DUP2 MSTORE RETURN JUMPDEST SWAP1 DUP2 MLOAD DUP1 DUP3 MSTORE PUSH1 0x20 DUP1 DUP1 SWAP4 ADD SWAP4 ADD SWAP2 PUSH1 0x0 JUMPDEST DUP3 DUP2 LT PUSH2 0xA0E JUMPI POP POP POP POP SWAP1 JUMP JUMPDEST DUP4 MLOAD DUP6 MSTORE SWAP4 DUP2 ADD SWAP4 SWAP3 DUP2 ADD SWAP3 PUSH1 0x1 ADD PUSH2 0xA00 JUMP JUMPDEST SWAP1 PUSH1 0x20 PUSH2 0x45C SWAP3 DUP2 DUP2 MSTORE ADD SWAP1 PUSH2 0x9EE JUMP JUMPDEST CALLVALUE PUSH2 0x29C JUMPI PUSH1 0x40 CALLDATASIZE PUSH1 0x3 NOT ADD SLT PUSH2 0x29C JUMPI PUSH1 0x4 CALLDATALOAD PUSH8 0xFFFFFFFFFFFFFFFF DUP1 DUP3 GT PUSH2 0x29C JUMPI CALLDATASIZE PUSH1 0x23 DUP4 ADD SLT ISZERO PUSH2 0x29C JUMPI DUP2 PUSH1 0x4 ADD CALLDATALOAD PUSH2 0xA70 DUP2 PUSH2 0x7BF JUMP JUMPDEST SWAP3 PUSH2 0xA7E PUSH1 0x40 MLOAD SWAP5 DUP6 PUSH2 0x76E JUMP JUMPDEST DUP2 DUP5 MSTORE PUSH1 0x20 SWAP2 PUSH1 0x24 DUP4 DUP7 ADD SWAP2 PUSH1 0x5 SHL DUP4 ADD ADD SWAP2 CALLDATASIZE DUP4 GT PUSH2 0x29C JUMPI PUSH1 0x24 ADD SWAP1 JUMPDEST DUP3 DUP3 LT PUSH2 0xAD6 JUMPI DUP6 PUSH1 0x24 CALLDATALOAD DUP7 DUP2 GT PUSH2 0x29C JUMPI PUSH2 0x613 SWAP2 PUSH2 0xAC4 PUSH2 0xACA SWAP3 CALLDATASIZE SWAP1 PUSH1 0x4 ADD PUSH2 0x7D7 JUMP JUMPDEST SWAP1 PUSH2 0x1BD4 JUMP JUMPDEST PUSH1 0x40 MLOAD SWAP2 DUP3 SWAP2 DUP3 PUSH2 0xA22 JUMP JUMPDEST DUP4 DUP1 SWAP2 DUP4 CALLDATALOAD PUSH2 0xAE4 DUP2 PUSH2 0x28B JUMP JUMPDEST DUP2 MSTORE ADD SWAP2 ADD SWAP1 PUSH2 0xA9D JUMP JUMPDEST CALLVALUE PUSH2 0x29C JUMPI PUSH1 0x20 CALLDATASIZE PUSH1 0x3 NOT ADD SLT PUSH2 0x29C JUMPI PUSH1 0x40 MLOAD PUSH4 0x76E7D7F3 PUSH1 0xE1 SHL DUP2 MSTORE PUSH1 0x4 DUP1 CALLDATALOAD SWAP1 DUP3 ADD MSTORE PUSH1 0x0 DUP2 PUSH1 0x24 DUP2 PUSH32 0x0 PUSH1 0x1 PUSH1 0x1 PUSH1 0xA0 SHL SUB AND GAS STATICCALL DUP1 ISZERO PUSH2 0x3D6 JUMPI PUSH2 0x613 SWAP2 PUSH1 0x0 SWAP2 PUSH2 0xB6E JUMPI JUMPDEST POP PUSH1 0x40 MLOAD SWAP2 DUP3 SWAP2 PUSH1 0x20 DUP4 MSTORE PUSH1 0x20 DUP4 ADD SWAP1 PUSH2 0x426 JUMP JUMPDEST PUSH2 0xB81 SWAP2 RETURNDATASIZE DUP1 SWAP2 DUP4 RETURNDATACOPY PUSH2 0x62E DUP2 DUP4 PUSH2 0x76E JUMP JUMPDEST POP POP POP POP POP POP POP POP POP POP SWAP3 POP POP POP CODESIZE PUSH2 0xB59 JUMP JUMPDEST CALLVALUE PUSH2 0x29C JUMPI PUSH1 0x0 DUP1 PUSH1 0x3 NOT CALLDATASIZE ADD SLT PUSH2 0x3E4 JUMPI PUSH2 0xBAF PUSH2 0x1B38 JUMP JUMPDEST PUSH1 0x3 DUP1 SLOAD PUSH1 0x1 PUSH1 0x1 PUSH1 0xA0 SHL SUB NOT DUP2 AND SWAP1 SWAP2 SSTORE DUP2 SWAP1 PUSH1 0x1 PUSH1 0x1 PUSH1 0xA0 SHL SUB AND PUSH32 0x8BE0079C531659141344CD1FD0A4F28419497F9722A3DAAFE3B4186F6B6457E0 DUP3 DUP1 LOG3 DUP1 RETURN JUMPDEST CALLVALUE PUSH2 0x29C JUMPI PUSH1 0x0 CALLDATASIZE PUSH1 0x3 NOT ADD SLT PUSH2 0x29C JUMPI PUSH1 0x20 PUSH1 0x40 MLOAD PUSH1 0x46 DUP2 MSTORE RETURN JUMPDEST CALLVALUE PUSH2 0x29C JUMPI PUSH1 0x20 CALLDATASIZE PUSH1 0x3 NOT ADD SLT PUSH2 0x29C JUMPI PUSH1 0x4 CALLDATALOAD PUSH2 0xC2C DUP2 PUSH2 0x2D87 JUMP JUMPDEST ISZERO PUSH2 0xC75 JUMPI PUSH2 0xC50 PUSH7 0x11C37937E08000 SWAP2 PUSH2 0xC4B DUP4 PUSH1 0xB SLOAD LT ISZERO PUSH2 0x2DD3 JUMP JUMPDEST PUSH2 0x2EE2 JUMP JUMPDEST PUSH2 0xC63 PUSH2 0xC5E PUSH1 0xB SLOAD PUSH2 0x273A JUMP JUMPDEST PUSH1 0xB SSTORE JUMP JUMPDEST PUSH1 0x0 DUP1 DUP1 DUP1 DUP1 SWAP5 CALLER DUP3 CALL ISZERO PUSH2 0x3D6 JUMPI DUP1 RETURN JUMPDEST PUSH1 0x40 MLOAD PUSH3 0x461BCD PUSH1 0xE5 SHL DUP2 MSTORE PUSH1 0x20 PUSH1 0x4 DUP3 ADD MSTORE PUSH1 0x17 PUSH1 0x24 DUP3 ADD MSTORE PUSH32 0x526567656E65726174696F6E206E6F74206E6565646564000000000000000000 PUSH1 0x44 DUP3 ADD MSTORE PUSH1 0x64 SWAP1 REVERT JUMPDEST CALLVALUE PUSH2 0x29C JUMPI PUSH1 0x20 CALLDATASIZE PUSH1 0x3 NOT ADD SLT PUSH2 0x29C JUMPI PUSH1 0x4 CALLDATALOAD PUSH2 0xCD8 CALLER DUP3 PUSH2 0x30B9 JUMP JUMPDEST ISZERO PUSH2 0xD6A JUMPI PUSH1 0x40 MLOAD PUSH4 0x76E7D7F3 PUSH1 0xE1 SHL DUP2 MSTORE PUSH1 0x4 DUP2 ADD SWAP2 SWAP1 SWAP2 MSTORE PUSH1 0x0 DUP2 PUSH1 0x24 DUP2 PUSH1 0x1 PUSH1 0x1 PUSH1 0xA0 SHL SUB PUSH32 0x0 AND GAS STATICCALL DUP1 ISZERO PUSH2 0x3D6 JUMPI PUSH2 0x613 SWAP2 PUSH1 0x0 SWAP2 PUSH2 0xD43 JUMPI JUMPDEST POP PUSH1 0x40 MLOAD SWAP2 DUP3 SWAP2 DUP3 PUSH2 0x44B JUMP JUMPDEST PUSH2 0xD56 SWAP2 RETURNDATASIZE DUP1 SWAP2 DUP4 RETURNDATACOPY PUSH2 0x62E DUP2 DUP4 PUSH2 0x76E JUMP JUMPDEST POP POP POP POP POP POP POP POP POP POP POP SWAP2 POP POP CODESIZE PUSH2 0xD36 JUMP JUMPDEST PUSH1 0x64 PUSH1 0x40 MLOAD PUSH3 0x461BCD PUSH1 0xE5 SHL DUP2 MSTORE PUSH1 0x20 PUSH1 0x4 DUP3 ADD MSTORE PUSH1 0x20 PUSH1 0x24 DUP3 ADD MSTORE PUSH32 0x4E6F206163746976652061636365737320746F20746869732061727469636C65 PUSH1 0x44 DUP3 ADD MSTORE REVERT JUMPDEST CALLVALUE PUSH2 0x29C JUMPI PUSH1 0x0 CALLDATASIZE PUSH1 0x3 NOT ADD SLT PUSH2 0x29C JUMPI PUSH1 0x3 SLOAD PUSH1 0x40 MLOAD PUSH1 0x1 PUSH1 0x1 PUSH1 0xA0 SHL SUB SWAP1 SWAP2 AND DUP2 MSTORE PUSH1 0x20 SWAP1 RETURN JUMPDEST PUSH4 0x4E487B71 PUSH1 0xE0 SHL PUSH1 0x0 MSTORE PUSH1 0x32 PUSH1 0x4 MSTORE PUSH1 0x24 PUSH1 0x0 REVERT JUMPDEST DUP1 SLOAD DUP3 LT ISZERO PUSH2 0xE09 JUMPI PUSH1 0x0 MSTORE PUSH1 0x20 PUSH1 0x0 KECCAK256 SWAP1 PUSH1 0x2 SHL ADD SWAP1 PUSH1 0x0 SWAP1 JUMP JUMPDEST PUSH2 0xDD7 JUMP JUMPDEST CALLVALUE PUSH2 0x29C JUMPI PUSH1 0x40 CALLDATASIZE PUSH1 0x3 NOT ADD SLT PUSH2 0x29C JUMPI PUSH1 0x24 CALLDATALOAD PUSH1 0x4 CALLDATALOAD PUSH1 0x0 MSTORE PUSH1 0x9 PUSH1 0x20 MSTORE PUSH1 0x40 PUSH1 0x0 KECCAK256 DUP1 SLOAD DUP3 LT ISZERO PUSH2 0x29C JUMPI PUSH1 0x80 SWAP2 PUSH2 0xE47 SWAP2 PUSH2 0xDED JUMP JUMPDEST POP DUP1 SLOAD SWAP1 PUSH1 0x1 DUP2 ADD SLOAD SWAP1 PUSH1 0x1 DUP1 PUSH1 0xA0 SHL SUB PUSH1 0x3 DUP2 PUSH1 0x2 DUP5 ADD SLOAD AND SWAP3 ADD SLOAD AND SWAP2 PUSH1 0x40 MLOAD SWAP4 DUP5 MSTORE PUSH1 0x20 DUP5 ADD MSTORE PUSH1 0x40 DUP4 ADD MSTORE PUSH1 0x60 DUP3 ADD MSTORE RETURN JUMPDEST CALLVALUE PUSH2 0x29C JUMPI PUSH1 0x0 CALLDATASIZE PUSH1 0x3 NOT ADD SLT PUSH2 0x29C JUMPI PUSH1 0x40 MLOAD PUSH32 0x0 PUSH1 0x1 PUSH1 0x1 PUSH1 0xA0 SHL SUB AND DUP2 MSTORE PUSH1 0x20 SWAP1 RETURN JUMPDEST PUSH1 0x40 CALLDATASIZE PUSH1 0x3 NOT ADD SLT PUSH2 0x29C JUMPI PUSH1 0x24 CALLDATALOAD PUSH1 0x4 CALLDATALOAD PUSH2 0xEDD DUP3 PUSH2 0x28B JUMP JUMPDEST PUSH2 0xF17 PUSH2 0xF0F DUP4 PUSH2 0xEF8 DUP5 PUSH1 0x0 MSTORE PUSH1 0x6 PUSH1 0x20 MSTORE PUSH1 0x40 PUSH1 0x0 KECCAK256 SWAP1 JUMP JUMPDEST SWAP1 PUSH1 0x1 DUP1 PUSH1 0xA0 SHL SUB AND PUSH1 0x0 MSTORE PUSH1 0x20 MSTORE PUSH1 0x40 PUSH1 0x0 KECCAK256 SWAP1 JUMP JUMPDEST SLOAD ISZERO ISZERO PUSH2 0x2A1A JUMP JUMPDEST PUSH2 0xF20 DUP2 PUSH2 0x2799 JUMP JUMPDEST SWAP2 PUSH2 0xF2A DUP4 PUSH2 0x2093 JUMP JUMPDEST SWAP3 PUSH2 0xF37 DUP5 CALLVALUE LT ISZERO PUSH2 0x2A5F JUMP JUMPDEST PUSH2 0xF4A PUSH2 0xF43 DUP3 PUSH2 0x26AF JUMP JUMPDEST PUSH1 0x64 SWAP1 DIV SWAP1 JUMP JUMPDEST SWAP2 PUSH2 0xF57 PUSH2 0xF43 DUP4 PUSH2 0x26C5 JUMP JUMPDEST SWAP5 PUSH2 0xF6B DUP7 PUSH2 0xF66 DUP7 DUP7 PUSH2 0x275E JUMP JUMPDEST PUSH2 0x275E JUMP JUMPDEST PUSH1 0x40 MLOAD PUSH4 0x76E7D7F3 PUSH1 0xE1 SHL DUP2 MSTORE PUSH1 0x4 DUP2 ADD DUP8 SWAP1 MSTORE PUSH1 0x0 SWAP8 PUSH1 0x1 PUSH1 0x1 PUSH1 0xA0 SHL SUB SWAP2 DUP10 DUP2 PUSH1 0x24 DUP2 PUSH32 0x0 DUP8 AND GAS STATICCALL SWAP1 DUP2 ISZERO PUSH2 0x3D6 JUMPI DUP11 SWAP2 PUSH2 0x11C3 JUMPI JUMPDEST POP PUSH2 0xFDC DUP7 PUSH2 0xEF8 DUP12 PUSH1 0x0 MSTORE PUSH1 0x6 PUSH1 0x20 MSTORE PUSH1 0x40 PUSH1 0x0 KECCAK256 SWAP1 JUMP JUMPDEST PUSH2 0xFE6 DUP2 SLOAD PUSH2 0x2AA2 JUMP JUMPDEST SWAP1 SSTORE PUSH2 0x1012 PUSH2 0xFFF DUP11 PUSH1 0x0 MSTORE PUSH1 0x6 PUSH1 0x20 MSTORE PUSH1 0x40 PUSH1 0x0 KECCAK256 SWAP1 JUMP JUMPDEST CALLER PUSH1 0x0 SWAP1 DUP2 MSTORE PUSH1 0x20 SWAP2 SWAP1 SWAP2 MSTORE PUSH1 0x40 SWAP1 KECCAK256 SWAP1 JUMP JUMPDEST PUSH2 0x101C DUP2 SLOAD PUSH2 0x1BAC JUMP JUMPDEST SWAP1 SSTORE PUSH2 0x1031 PUSH2 0x1029 PUSH2 0x2183 JUMP JUMPDEST DUP11 CALLER DUP10 PUSH2 0x1C64 JUMP JUMPDEST DUP10 DUP1 DUP1 DUP1 DUP7 DUP11 AND SWAP12 DUP13 DUP3 DUP3 ISZERO PUSH2 0x11BA JUMPI JUMPDEST CALL ISZERO PUSH2 0x3D6 JUMPI DUP10 SWAP3 DUP4 SWAP3 DUP4 SWAP3 DUP4 SWAP3 DUP4 SWAP2 DUP4 ISZERO PUSH2 0x11B0 JUMPI JUMPDEST AND SWAP1 CALL ISZERO PUSH2 0x3D6 JUMPI DUP7 DUP1 DUP1 DUP1 SWAP4 DUP2 DUP2 ISZERO PUSH2 0x11A7 JUMPI JUMPDEST PUSH20 0x9402F9F20B4A27B55B1CC6CF015D98F764814FB2 SWAP1 CALL ISZERO PUSH2 0x3D6 JUMPI PUSH2 0x111A DUP7 SWAP3 PUSH2 0x109D PUSH2 0xC5E PUSH1 0xB SLOAD PUSH2 0x2093 JUMP JUMPDEST PUSH2 0x10C9 PUSH3 0x15180 TIMESTAMP DIV PUSH2 0x10BA DUP10 PUSH1 0x0 MSTORE PUSH1 0x8 PUSH1 0x20 MSTORE PUSH1 0x40 PUSH1 0x0 KECCAK256 SWAP1 JUMP JUMPDEST SWAP1 PUSH1 0x0 MSTORE PUSH1 0x20 MSTORE PUSH1 0x40 PUSH1 0x0 KECCAK256 SWAP1 JUMP JUMPDEST PUSH2 0x10D3 DUP2 SLOAD PUSH2 0x1BAC JUMP JUMPDEST SWAP1 SSTORE PUSH2 0x10E9 DUP8 PUSH1 0x0 MSTORE PUSH1 0x9 PUSH1 0x20 MSTORE PUSH1 0x40 PUSH1 0x0 KECCAK256 SWAP1 JUMP JUMPDEST PUSH2 0x1115 PUSH2 0x10F4 PUSH2 0x790 JUMP JUMPDEST TIMESTAMP DUP2 MSTORE PUSH1 0x20 DUP2 ADD DUP9 SWAP1 MSTORE CALLER PUSH1 0x40 DUP3 ADD MSTORE SWAP3 PUSH1 0x1 PUSH1 0x1 PUSH1 0xA0 SHL SUB AND PUSH1 0x60 DUP5 ADD MSTORE JUMP JUMPDEST PUSH2 0x2AAF JUMP JUMPDEST DUP1 CALLVALUE GT PUSH2 0x117A JUMPI JUMPDEST POP POP DUP3 PUSH32 0x3846A81A03C71D25212027D222553680C4FC1BD52B8DFB1F1FBBBCD74C8FEC79 PUSH1 0x40 MLOAD DUP1 PUSH2 0x115A CALLER SWAP6 DUP3 SWAP2 SWAP1 PUSH1 0x20 DUP4 ADD SWAP3 MSTORE JUMP JUMPDEST SUB SWAP1 LOG4 PUSH2 0x1166 DUP2 PUSH2 0x2D87 JUMP JUMPDEST PUSH2 0x116E JUMPI POP DUP1 RETURN JUMPDEST PUSH2 0x1177 SWAP1 PUSH2 0x2EE2 JUMP JUMPDEST DUP1 RETURN JUMPDEST DUP2 DUP1 PUSH2 0x1187 DUP2 SWAP4 CALLVALUE PUSH2 0x275E JUMP JUMPDEST DUP2 DUP2 ISZERO PUSH2 0x119E JUMPI JUMPDEST CALLER SWAP1 CALL ISZERO PUSH2 0x3D6 JUMPI DUP4 CODESIZE PUSH2 0x1122 JUMP JUMPDEST POP PUSH2 0x8FC PUSH2 0x118F JUMP JUMPDEST POP PUSH2 0x8FC PUSH2 0x106E JUMP JUMPDEST PUSH2 0x8FC SWAP3 POP PUSH2 0x1059 JUMP JUMPDEST POP PUSH2 0x8FC PUSH2 0x1042 JUMP JUMPDEST PUSH2 0x11D7 SWAP2 POP RETURNDATASIZE DUP1 DUP13 DUP4 RETURNDATACOPY PUSH2 0x62E DUP2 DUP4 PUSH2 0x76E JUMP JUMPDEST POP POP POP POP POP POP POP POP POP SWAP4 POP POP POP POP CODESIZE PUSH2 0xFC3 JUMP JUMPDEST CALLVALUE PUSH2 0x29C JUMPI PUSH1 0x40 CALLDATASIZE PUSH1 0x3 NOT ADD SLT PUSH2 0x29C JUMPI PUSH1 0x4 CALLDATALOAD PUSH2 0x1208 DUP2 PUSH2 0x28B JUMP JUMPDEST PUSH1 0x24 CALLDATALOAD SWAP1 DUP2 ISZERO ISZERO SWAP1 DUP2 DUP4 SUB PUSH2 0x29C JUMPI PUSH1 0x1 PUSH1 0x1 PUSH1 0xA0 SHL SUB DUP2 AND SWAP3 DUP4 ISZERO PUSH2 0x1293 JUMPI PUSH2 0x1254 PUSH2 0x1265 SWAP3 CALLER PUSH1 0x0 MSTORE PUSH1 0x1 PUSH1 0x20 MSTORE PUSH1 0x40 PUSH1 0x0 KECCAK256 SWAP1 PUSH1 0x1 DUP1 PUSH1 0xA0 SHL SUB AND PUSH1 0x0 MSTORE PUSH1 0x20 MSTORE PUSH1 0x40 PUSH1 0x0 KECCAK256 SWAP1 JUMP JUMPDEST SWAP1 PUSH1 0xFF DUP1 NOT DUP4 SLOAD AND SWAP2 ISZERO ISZERO AND OR SWAP1 SSTORE JUMP JUMPDEST PUSH1 0x40 MLOAD SWAP1 DUP2 MSTORE PUSH32 0x17307EAB39AB6107E8899845AD3D59BD9653F200F220920489CA2B5937696C31 PUSH1 0x20 CALLER SWAP3 LOG3 STOP JUMPDEST PUSH1 0x40 MLOAD PUSH3 0xCED3E1 PUSH1 0xE8 SHL DUP2 MSTORE PUSH1 0x0 PUSH1 0x4 DUP3 ADD MSTORE PUSH1 0x24 SWAP1 REVERT JUMPDEST CALLVALUE PUSH2 0x29C JUMPI PUSH1 0x40 CALLDATASIZE PUSH1 0x3 NOT ADD SLT PUSH2 0x29C JUMPI PUSH1 0x40 PUSH2 0x12F3 PUSH1 0x24 CALLDATALOAD PUSH2 0x12CD DUP2 PUSH2 0x28B JUMP JUMPDEST PUSH1 0x4 CALLDATALOAD PUSH1 0x0 MSTORE PUSH1 0x7 PUSH1 0x20 MSTORE DUP3 PUSH1 0x0 KECCAK256 SWAP1 PUSH1 0x1 DUP1 PUSH1 0xA0 SHL SUB AND PUSH1 0x0 MSTORE PUSH1 0x20 MSTORE PUSH1 0x40 PUSH1 0x0 KECCAK256 SWAP1 JUMP JUMPDEST PUSH1 0xFF PUSH1 0x1 DUP3 SLOAD SWAP3 ADD SLOAD AND DUP3 MLOAD SWAP2 DUP3 MSTORE ISZERO ISZERO PUSH1 0x20 DUP3 ADD MSTORE RETURN JUMPDEST SWAP1 SWAP3 SWAP2 PUSH1 0x40 DUP3 ADD SWAP2 PUSH1 0x40 DUP2 MSTORE DUP5 MLOAD DUP1 SWAP4 MSTORE PUSH1 0x60 DUP2 ADD SWAP3 PUSH1 0x20 DUP1 SWAP7 ADD SWAP1 PUSH1 0x0 JUMPDEST DUP2 DUP2 LT PUSH2 0x1344 JUMPI POP POP POP PUSH2 0x45C SWAP4 SWAP5 DUP2 DUP5 SUB SWAP2 ADD MSTORE PUSH2 0x9EE JUMP JUMPDEST DUP3 MLOAD PUSH1 0x1 PUSH1 0x1 PUSH1 0xA0 SHL SUB AND DUP7 MSTORE SWAP5 DUP8 ADD SWAP5 SWAP2 DUP8 ADD SWAP2 PUSH1 0x1 ADD PUSH2 0x132A JUMP JUMPDEST CALLVALUE PUSH2 0x29C JUMPI PUSH1 0x20 CALLDATASIZE PUSH1 0x3 NOT ADD SLT PUSH2 0x29C JUMPI PUSH1 0x40 MLOAD PUSH4 0x9FB53FCB PUSH1 0xE0 SHL DUP2 MSTORE PUSH1 0x4 DUP1 CALLDATALOAD SWAP1 DUP3 ADD DUP2 SWAP1 MSTORE PUSH1 0x0 DUP3 PUSH1 0x24 DUP2 PUSH1 0x1 PUSH1 0x1 PUSH1 0xA0 SHL SUB PUSH32 0x0 AND GAS STATICCALL SWAP2 DUP3 ISZERO PUSH2 0x3D6 JUMPI PUSH1 0x0 SWAP3 PUSH2 0x1452 JUMPI JUMPDEST POP PUSH2 0x13D5 DUP3 MLOAD PUSH2 0x1B64 JUMP JUMPDEST SWAP2 PUSH1 0x0 JUMPDEST DUP2 MLOAD DUP2 LT ISZERO PUSH2 0x1443 JUMPI PUSH2 0x143E SWAP1 PUSH2 0x142D PUSH2 0x13FD DUP6 PUSH1 0x0 MSTORE PUSH1 0x6 PUSH1 0x20 MSTORE PUSH1 0x40 PUSH1 0x0 KECCAK256 SWAP1 JUMP JUMPDEST PUSH2 0x1417 PUSH2 0x140A DUP5 DUP8 PUSH2 0x1BC0 JUMP JUMPDEST MLOAD PUSH1 0x1 PUSH1 0x1 PUSH1 0xA0 SHL SUB AND SWAP1 JUMP JUMPDEST PUSH1 0x1 DUP1 PUSH1 0xA0 SHL SUB AND PUSH1 0x0 MSTORE PUSH1 0x20 MSTORE PUSH1 0x40 PUSH1 0x0 KECCAK256 SWAP1 JUMP JUMPDEST SLOAD PUSH2 0x1438 DUP3 DUP8 PUSH2 0x1BC0 JUMP JUMPDEST MSTORE PUSH2 0x1BAC JUMP JUMPDEST PUSH2 0x13D9 JUMP JUMPDEST PUSH1 0x40 MLOAD DUP1 PUSH2 0x613 DUP7 DUP6 DUP4 PUSH2 0x130B JUMP JUMPDEST PUSH2 0x146E SWAP2 SWAP3 RETURNDATASIZE DUP1 SWAP2 DUP4 RETURNDATACOPY PUSH2 0x1466 DUP2 DUP4 PUSH2 0x76E JUMP JUMPDEST DUP2 ADD SWAP1 PUSH2 0x2E17 JUMP JUMPDEST SWAP1 CODESIZE PUSH2 0x13CA JUMP JUMPDEST CALLVALUE PUSH2 0x29C JUMPI PUSH1 0x20 CALLDATASIZE PUSH1 0x3 NOT ADD SLT PUSH2 0x29C JUMPI PUSH1 0x4 CALLDATALOAD PUSH1 0x0 MSTORE PUSH1 0xA PUSH1 0x20 MSTORE PUSH1 0x20 PUSH1 0x40 PUSH1 0x0 KECCAK256 SLOAD PUSH1 0x40 MLOAD SWAP1 DUP2 MSTORE RETURN JUMPDEST CALLVALUE PUSH2 0x29C JUMPI PUSH1 0x20 CALLDATASIZE PUSH1 0x3 NOT ADD SLT PUSH2 0x29C JUMPI PUSH1 0x20 PUSH2 0x14BF PUSH1 0x4 CALLDATALOAD PUSH2 0x2799 JUMP JUMPDEST PUSH1 0x40 MLOAD SWAP1 DUP2 MSTORE RETURN JUMPDEST CALLVALUE PUSH2 0x29C JUMPI PUSH1 0x40 CALLDATASIZE PUSH1 0x3 NOT ADD SLT PUSH2 0x29C JUMPI PUSH1 0x4 CALLDATALOAD PUSH1 0x0 MSTORE PUSH1 0x8 PUSH1 0x20 MSTORE PUSH1 0x40 PUSH1 0x0 KECCAK256 PUSH1 0x24 CALLDATALOAD PUSH1 0x0 MSTORE PUSH1 0x20 MSTORE PUSH1 0x20 PUSH1 0x40 PUSH1 0x0 KECCAK256 SLOAD PUSH1 0x40 MLOAD SWAP1 DUP2 MSTORE RETURN JUMPDEST CALLVALUE PUSH2 0x29C JUMPI PUSH1 0x0 CALLDATASIZE PUSH1 0x3 NOT ADD SLT PUSH2 0x29C JUMPI PUSH1 0x20 PUSH1 0x40 MLOAD PUSH1 0x14 DUP2 MSTORE RETURN JUMPDEST CALLVALUE PUSH2 0x29C JUMPI PUSH1 0x0 CALLDATASIZE PUSH1 0x3 NOT ADD SLT PUSH2 0x29C JUMPI PUSH1 0x20 PUSH1 0x40 MLOAD PUSH7 0x11C37937E08000 DUP2 MSTORE RETURN JUMPDEST CALLVALUE PUSH2 0x29C JUMPI PUSH1 0x80 CALLDATASIZE PUSH1 0x3 NOT ADD SLT PUSH2 0x29C JUMPI PUSH1 0x24 CALLDATALOAD PUSH1 0x4 CALLDATALOAD PUSH2 0x155F DUP3 PUSH2 0x28B JUMP JUMPDEST PUSH1 0x44 CALLDATALOAD SWAP2 PUSH32 0xE3726A6D4ED43D7D4677D7DFFA4CF0A0D67D40DB3CD11CCCF053DDDCEAF3D7D3 SWAP1 PUSH1 0x1 PUSH1 0x1 PUSH1 0xA0 SHL SUB SWAP1 PUSH2 0x15BB CALLER PUSH32 0x0 DUP5 AND EQ PUSH2 0x2443 JUMP JUMPDEST DUP4 PUSH2 0x15D0 DUP2 PUSH1 0x0 MSTORE PUSH1 0x5 PUSH1 0x20 MSTORE PUSH1 0x40 PUSH1 0x0 KECCAK256 SWAP1 JUMP JUMPDEST SSTORE PUSH1 0x2 PUSH2 0x15E7 DUP6 PUSH1 0x0 MSTORE PUSH1 0x5 PUSH1 0x20 MSTORE PUSH1 0x40 PUSH1 0x0 KECCAK256 SWAP1 JUMP JUMPDEST ADD PUSH2 0x15F3 DUP7 DUP3 SLOAD PUSH2 0x20CC JUMP JUMPDEST SWAP1 SSTORE PUSH1 0x3 PUSH2 0x160B DUP6 PUSH1 0x0 MSTORE PUSH1 0x5 PUSH1 0x20 MSTORE PUSH1 0x40 PUSH1 0x0 KECCAK256 SWAP1 JUMP JUMPDEST ADD PUSH2 0x1617 DUP7 DUP3 SLOAD PUSH2 0x20CC JUMP JUMPDEST SWAP1 SSTORE PUSH2 0x162D DUP5 PUSH1 0x0 MSTORE PUSH1 0xA PUSH1 0x20 MSTORE PUSH1 0x40 PUSH1 0x0 KECCAK256 SWAP1 JUMP JUMPDEST PUSH2 0x1638 DUP7 DUP3 SLOAD PUSH2 0x20CC JUMP JUMPDEST SWAP1 SSTORE PUSH2 0x1652 DUP2 PUSH2 0xEF8 DUP7 PUSH1 0x0 MSTORE PUSH1 0x6 PUSH1 0x20 MSTORE PUSH1 0x40 PUSH1 0x0 KECCAK256 SWAP1 JUMP JUMPDEST PUSH2 0x165D DUP7 DUP3 SLOAD PUSH2 0x20CC JUMP JUMPDEST SWAP1 SSTORE PUSH2 0x1672 PUSH2 0x166A PUSH2 0x2183 JUMP JUMPDEST DUP7 DUP7 DUP5 PUSH2 0x24E6 JUMP JUMPDEST PUSH1 0x40 DUP1 MLOAD SWAP6 DUP7 MSTORE PUSH1 0x64 CALLDATALOAD PUSH1 0x20 DUP8 ADD MSTORE SWAP2 AND SWAP4 LOG3 STOP JUMPDEST CALLVALUE PUSH2 0x29C JUMPI PUSH1 0x0 CALLDATASIZE PUSH1 0x3 NOT ADD SLT PUSH2 0x29C JUMPI PUSH1 0x20 PUSH1 0x40 MLOAD PUSH1 0x32 DUP2 MSTORE RETURN JUMPDEST CALLVALUE PUSH2 0x29C JUMPI PUSH1 0x40 CALLDATASIZE PUSH1 0x3 NOT ADD SLT PUSH2 0x29C JUMPI PUSH1 0x20 PUSH1 0xFF PUSH2 0x16FF PUSH1 0x4 CALLDATALOAD PUSH2 0x16C7 DUP2 PUSH2 0x28B JUMP JUMPDEST PUSH1 0x24 CALLDATALOAD SWAP1 PUSH2 0x16D4 DUP3 PUSH2 0x28B JUMP JUMPDEST PUSH1 0x1 DUP1 PUSH1 0xA0 SHL SUB AND PUSH1 0x0 MSTORE PUSH1 0x1 DUP5 MSTORE PUSH1 0x40 PUSH1 0x0 KECCAK256 SWAP1 PUSH1 0x1 DUP1 PUSH1 0xA0 SHL SUB AND PUSH1 0x0 MSTORE PUSH1 0x20 MSTORE PUSH1 0x40 PUSH1 0x0 KECCAK256 SWAP1 JUMP JUMPDEST SLOAD AND PUSH1 0x40 MLOAD SWAP1 ISZERO ISZERO DUP2 MSTORE RETURN JUMPDEST CALLVALUE PUSH2 0x29C JUMPI PUSH1 0xA0 CALLDATASIZE PUSH1 0x3 NOT ADD SLT PUSH2 0x29C JUMPI PUSH1 0x4 CALLDATALOAD PUSH2 0x1728 DUP2 PUSH2 0x28B JUMP JUMPDEST PUSH1 0x24 CALLDATALOAD PUSH2 0x1734 DUP2 PUSH2 0x28B JUMP JUMPDEST PUSH1 0x84 CALLDATALOAD PUSH8 0xFFFFFFFFFFFFFFFF DUP2 GT PUSH2 0x29C JUMPI PUSH2 0x1754 SWAP1 CALLDATASIZE SWAP1 PUSH1 0x4 ADD PUSH2 0x851 JUMP JUMPDEST SWAP1 PUSH1 0x1 PUSH1 0x1 PUSH1 0xA0 SHL SUB DUP4 AND CALLER DUP2 EQ ISZERO SWAP1 DUP2 PUSH2 0x17A7 JUMPI JUMPDEST POP PUSH2 0x1780 JUMPI PUSH2 0x944 SWAP3 PUSH1 0x64 CALLDATALOAD SWAP2 PUSH1 0x44 CALLDATALOAD SWAP2 PUSH2 0x1CE5 JUMP JUMPDEST PUSH1 0x40 MLOAD PUSH4 0x711BEC91 PUSH1 0xE1 SHL DUP2 MSTORE CALLER PUSH1 0x4 DUP3 ADD MSTORE PUSH1 0x1 PUSH1 0x1 PUSH1 0xA0 SHL SUB DUP5 AND PUSH1 0x24 DUP3 ADD MSTORE PUSH1 0x44 SWAP1 REVERT JUMPDEST PUSH1 0x0 SWAP1 DUP2 MSTORE PUSH1 0x1 PUSH1 0x20 SWAP1 DUP2 MSTORE PUSH1 0x40 DUP1 DUP4 KECCAK256 CALLER DUP5 MSTORE SWAP1 SWAP2 MSTORE SWAP1 KECCAK256 PUSH1 0xFF SWAP2 POP SLOAD AND ISZERO CODESIZE PUSH2 0x176A JUMP JUMPDEST CALLVALUE PUSH2 0x29C JUMPI PUSH1 0x20 CALLDATASIZE PUSH1 0x3 NOT ADD SLT PUSH2 0x29C JUMPI PUSH1 0x4 CALLDATALOAD PUSH2 0x1803 PUSH2 0x17FB PUSH2 0xFFF DUP4 PUSH1 0x0 MSTORE PUSH1 0x6 PUSH1 0x20 MSTORE PUSH1 0x40 PUSH1 0x0 KECCAK256 SWAP1 JUMP JUMPDEST SLOAD ISZERO ISZERO PUSH2 0x2B36 JUMP JUMPDEST PUSH2 0x181C PUSH2 0x1817 PUSH2 0x1813 CALLER DUP5 PUSH2 0x30B9 JUMP JUMPDEST ISZERO SWAP1 JUMP JUMPDEST PUSH2 0x2B77 JUMP JUMPDEST PUSH2 0x1834 CALLER PUSH2 0xEF8 DUP4 PUSH1 0x0 MSTORE PUSH1 0x6 PUSH1 0x20 MSTORE PUSH1 0x40 PUSH1 0x0 KECCAK256 SWAP1 JUMP JUMPDEST PUSH2 0x183E DUP2 SLOAD PUSH2 0x2AA2 JUMP JUMPDEST SWAP1 SSTORE PUSH1 0x3 PUSH2 0x1856 DUP3 PUSH1 0x0 MSTORE PUSH1 0x5 PUSH1 0x20 MSTORE PUSH1 0x40 PUSH1 0x0 KECCAK256 SWAP1 JUMP JUMPDEST ADD PUSH2 0x1861 DUP2 SLOAD PUSH2 0x2AA2 JUMP JUMPDEST SWAP1 SSTORE PUSH2 0x186D DUP2 CALLER PUSH2 0x2BE6 JUMP JUMPDEST PUSH2 0x1876 TIMESTAMP PUSH2 0x20A7 JUMP JUMPDEST PUSH2 0x18A8 PUSH2 0x1881 PUSH2 0x79F JUMP JUMPDEST DUP3 DUP2 MSTORE PUSH1 0x1 PUSH1 0x20 DUP3 ADD MSTORE PUSH2 0x18A3 CALLER PUSH2 0xEF8 DUP7 PUSH1 0x0 MSTORE PUSH1 0x7 PUSH1 0x20 MSTORE PUSH1 0x40 PUSH1 0x0 KECCAK256 SWAP1 JUMP JUMPDEST PUSH2 0x2BC3 JUMP JUMPDEST PUSH1 0x40 MLOAD DUP2 DUP2 MSTORE CALLER SWAP1 DUP4 SWAP1 PUSH32 0x8F4D6F0C7458447E5095ACEA28045C0CD637AA3B49812761A7AC022E6D643BF6 SWAP1 PUSH1 0x20 SWAP1 LOG3 DUP2 PUSH32 0xC56E8AA8E9F4284830FD4657BC77D60640AF2EC679F2099FAF320EE4202FF422 PUSH1 0x40 MLOAD DUP1 PUSH2 0x190E CALLER SWAP6 DUP3 SWAP2 SWAP1 PUSH1 0x20 DUP4 ADD SWAP3 MSTORE JUMP JUMPDEST SUB SWAP1 LOG3 PUSH2 0x191A DUP2 PUSH2 0x2D87 JUMP JUMPDEST PUSH2 0x1920 JUMPI STOP JUMPDEST PUSH2 0x944 SWAP1 PUSH2 0x2EE2 JUMP JUMPDEST CALLVALUE PUSH2 0x29C JUMPI PUSH1 0x20 CALLDATASIZE PUSH1 0x3 NOT ADD SLT PUSH2 0x29C JUMPI PUSH1 0x4 CALLDATALOAD PUSH2 0x1946 DUP2 PUSH2 0x28B JUMP JUMPDEST PUSH2 0x194E PUSH2 0x1B38 JUMP JUMPDEST PUSH1 0x1 PUSH1 0x1 PUSH1 0xA0 SHL SUB SWAP1 DUP2 AND SWAP1 DUP2 ISZERO PUSH2 0x19A2 JUMPI PUSH1 0x3 SLOAD DUP3 PUSH12 0xFFFFFFFFFFFFFFFFFFFFFFFF PUSH1 0xA0 SHL DUP3 AND OR PUSH1 0x3 SSTORE AND PUSH32 0x8BE0079C531659141344CD1FD0A4F28419497F9722A3DAAFE3B4186F6B6457E0 PUSH1 0x0 DUP1 LOG3 STOP JUMPDEST PUSH1 0x40 MLOAD PUSH4 0x1E4FBDF7 PUSH1 0xE0 SHL DUP2 MSTORE PUSH1 0x0 PUSH1 0x4 DUP3 ADD MSTORE PUSH1 0x24 SWAP1 REVERT JUMPDEST CALLVALUE PUSH2 0x29C JUMPI PUSH1 0x40 CALLDATASIZE PUSH1 0x3 NOT ADD SLT PUSH2 0x29C JUMPI PUSH1 0x20 PUSH2 0x9E4 PUSH1 0x24 CALLDATALOAD PUSH2 0x19DD DUP2 PUSH2 0x28B JUMP JUMPDEST PUSH1 0x4 CALLDATALOAD PUSH2 0x30B9 JUMP JUMPDEST PUSH1 0x20 DUP1 DUP3 ADD SWAP1 DUP1 DUP4 MSTORE DUP4 MLOAD DUP1 SWAP3 MSTORE DUP1 PUSH1 0x40 DUP1 SWAP5 ADD SWAP5 ADD SWAP3 PUSH1 0x0 SWAP1 JUMPDEST DUP4 DUP3 LT PUSH2 0x1A0F JUMPI POP POP POP POP POP SWAP1 JUMP JUMPDEST DUP5 MLOAD DUP1 MLOAD DUP8 MSTORE DUP1 DUP5 ADD MLOAD DUP8 DUP6 ADD MSTORE DUP1 DUP3 ADD MLOAD PUSH1 0x1 PUSH1 0x1 PUSH1 0xA0 SHL SUB SWAP1 DUP2 AND DUP9 DUP5 ADD MSTORE PUSH1 0x60 SWAP2 DUP3 ADD MLOAD AND SWAP1 DUP8 ADD MSTORE PUSH1 0x80 SWAP1 SWAP6 ADD SWAP5 SWAP4 DUP3 ADD SWAP4 PUSH1 0x1 SWAP1 SWAP2 ADD SWAP1 PUSH2 0x1A00 JUMP JUMPDEST CALLVALUE PUSH2 0x29C JUMPI PUSH1 0x20 DUP1 PUSH1 0x3 NOT CALLDATASIZE ADD SLT PUSH2 0x29C JUMPI PUSH1 0x4 SWAP1 DUP2 CALLDATALOAD PUSH1 0x0 MSTORE PUSH1 0x9 DUP2 MSTORE PUSH1 0x40 SWAP2 DUP3 PUSH1 0x0 KECCAK256 SWAP1 DUP2 SLOAD SWAP2 PUSH2 0x1A82 DUP4 PUSH2 0x7BF JUMP JUMPDEST SWAP4 PUSH2 0x1A8F DUP7 MLOAD SWAP6 DUP7 PUSH2 0x76E JUMP JUMPDEST DUP4 DUP6 MSTORE PUSH1 0x0 SWAP2 DUP3 MSTORE DUP1 DUP3 KECCAK256 DUP2 DUP7 ADD JUMPDEST DUP6 DUP5 LT PUSH2 0x1AB2 JUMPI DUP8 MLOAD DUP1 PUSH2 0x613 DUP10 DUP3 PUSH2 0x19E5 JUMP JUMPDEST DUP5 DUP4 PUSH1 0x1 SWAP3 DUP11 MLOAD PUSH2 0x1AC2 DUP2 PUSH2 0x731 JUMP JUMPDEST DUP6 SLOAD DUP2 MSTORE DUP5 DUP7 ADD SLOAD DUP4 DUP3 ADD MSTORE DUP5 DUP1 PUSH1 0xA0 SHL SUB DUP1 PUSH1 0x2 DUP9 ADD SLOAD AND DUP14 DUP4 ADD MSTORE PUSH1 0x3 DUP8 ADD SLOAD AND PUSH1 0x60 DUP3 ADD MSTORE DUP2 MSTORE ADD SWAP3 ADD SWAP4 ADD SWAP3 SWAP1 PUSH2 0x1A9E JUMP JUMPDEST CALLVALUE PUSH2 0x29C JUMPI PUSH1 0x0 CALLDATASIZE PUSH1 0x3 NOT ADD SLT PUSH2 0x29C JUMPI PUSH1 0x20 PUSH1 0x40 MLOAD PUSH7 0x2386F26FC10000 DUP2 MSTORE RETURN JUMPDEST CALLVALUE PUSH2 0x29C JUMPI PUSH1 0x0 CALLDATASIZE PUSH1 0x3 NOT ADD SLT PUSH2 0x29C JUMPI PUSH1 0x20 PUSH1 0xB SLOAD PUSH1 0x40 MLOAD SWAP1 DUP2 MSTORE RETURN JUMPDEST PUSH1 0x3 SLOAD PUSH1 0x1 PUSH1 0x1 PUSH1 0xA0 SHL SUB AND CALLER SUB PUSH2 0x1B4C JUMPI JUMP JUMPDEST PUSH1 0x40 MLOAD PUSH4 0x118CDAA7 PUSH1 0xE0 SHL DUP2 MSTORE CALLER PUSH1 0x4 DUP3 ADD MSTORE PUSH1 0x24 SWAP1 REVERT JUMPDEST SWAP1 PUSH2 0x1B6E DUP3 PUSH2 0x7BF JUMP JUMPDEST PUSH2 0x1B7B PUSH1 0x40 MLOAD SWAP2 DUP3 PUSH2 0x76E JUMP JUMPDEST DUP3 DUP2 MSTORE DUP1 SWAP3 PUSH2 0x1B8C PUSH1 0x1F NOT SWAP2 PUSH2 0x7BF JUMP JUMPDEST ADD SWAP1 PUSH1 0x20 CALLDATASIZE SWAP2 ADD CALLDATACOPY JUMP JUMPDEST PUSH4 0x4E487B71 PUSH1 0xE0 SHL PUSH1 0x0 MSTORE PUSH1 0x11 PUSH1 0x4 MSTORE PUSH1 0x24 PUSH1 0x0 REVERT JUMPDEST PUSH1 0x0 NOT DUP2 EQ PUSH2 0x1BBB JUMPI PUSH1 0x1 ADD SWAP1 JUMP JUMPDEST PUSH2 0x1B96 JUMP JUMPDEST DUP1 MLOAD DUP3 LT ISZERO PUSH2 0xE09 JUMPI PUSH1 0x20 SWAP2 PUSH1 0x5 SHL ADD ADD SWAP1 JUMP JUMPDEST SWAP2 SWAP1 SWAP2 DUP1 MLOAD DUP4 MLOAD DUP1 DUP3 SUB PUSH2 0x1C42 JUMPI POP POP PUSH2 0x1BEE DUP2 MLOAD PUSH2 0x1B64 JUMP JUMPDEST SWAP1 PUSH1 0x0 SWAP1 DUP2 JUMPDEST DUP2 MLOAD DUP2 LT ISZERO PUSH2 0x1C3A JUMPI DUP1 PUSH2 0x142D PUSH2 0x1C35 SWAP3 PUSH1 0x5 SHL DUP6 PUSH1 0x20 DUP1 DUP1 DUP5 DUP10 ADD ADD MLOAD SWAP4 DUP13 ADD ADD MLOAD DUP3 MSTORE MSTORE PUSH1 0x40 DUP7 KECCAK256 SWAP1 PUSH1 0x1 DUP1 PUSH1 0xA0 SHL SUB AND PUSH1 0x0 MSTORE PUSH1 0x20 MSTORE PUSH1 0x40 PUSH1 0x0 KECCAK256 SWAP1 JUMP JUMPDEST PUSH2 0x1BF4 JUMP JUMPDEST POP SWAP2 SWAP4 POP POP POP JUMP JUMPDEST PUSH1 0x40 MLOAD PUSH4 0x5B059991 PUSH1 0xE0 SHL DUP2 MSTORE PUSH1 0x4 DUP2 ADD SWAP2 SWAP1 SWAP2 MSTORE PUSH1 0x24 DUP2 ADD SWAP2 SWAP1 SWAP2 MSTORE PUSH1 0x44 SWAP1 REVERT JUMPDEST SWAP2 SWAP3 SWAP2 PUSH1 0x1 PUSH1 0x1 PUSH1 0xA0 SHL SUB DUP3 DUP2 AND ISZERO PUSH2 0x1CCC JUMPI DUP2 AND ISZERO PUSH2 0x1CB4 JUMPI PUSH2 0x1CAC PUSH2 0x79D SWAP5 SWAP1 PUSH1 0x40 MLOAD SWAP2 PUSH1 0x1 DUP4 MSTORE PUSH1 0x20 DUP4 ADD MSTORE PUSH1 0x40 DUP3 ADD SWAP1 PUSH1 0x1 DUP3 MSTORE PUSH1 0x1 PUSH1 0x60 DUP5 ADD MSTORE PUSH1 0x80 DUP4 ADD PUSH1 0x40 MSTORE JUMP JUMPDEST SWAP3 SWAP1 SWAP2 PUSH2 0x1E95 JUMP JUMPDEST PUSH1 0x40 MLOAD PUSH3 0x6A0D45 PUSH1 0xE2 SHL DUP2 MSTORE PUSH1 0x0 PUSH1 0x4 DUP3 ADD MSTORE PUSH1 0x24 SWAP1 REVERT JUMPDEST PUSH1 0x40 MLOAD PUSH4 0x2BFA23E7 PUSH1 0xE1 SHL DUP2 MSTORE PUSH1 0x0 PUSH1 0x4 DUP3 ADD MSTORE PUSH1 0x24 SWAP1 REVERT JUMPDEST SWAP3 SWAP4 SWAP3 SWAP1 SWAP2 PUSH1 0x1 PUSH1 0x1 PUSH1 0xA0 SHL SUB DUP1 DUP5 AND ISZERO PUSH2 0x1CCC JUMPI DUP3 AND ISZERO PUSH2 0x1CB4 JUMPI PUSH2 0x79D SWAP5 PUSH2 0x1CAC PUSH1 0x40 MLOAD SWAP3 PUSH1 0x1 DUP5 MSTORE PUSH1 0x20 DUP5 ADD MSTORE PUSH1 0x40 DUP4 ADD SWAP2 PUSH1 0x1 DUP4 MSTORE PUSH1 0x60 DUP5 ADD MSTORE PUSH1 0x80 DUP4 ADD PUSH1 0x40 MSTORE JUMP JUMPDEST SWAP1 DUP1 MLOAD DUP4 MLOAD SWAP1 DUP2 DUP2 SUB PUSH2 0x1C42 JUMPI POP POP PUSH1 0x0 JUMPDEST DUP2 MLOAD DUP2 LT ISZERO PUSH2 0x1DAA JUMPI PUSH1 0x5 DUP2 SWAP1 SHL DUP3 DUP2 ADD PUSH1 0x20 SWAP1 DUP2 ADD MLOAD SWAP2 DUP7 ADD ADD MLOAD PUSH2 0x1D78 SWAP3 SWAP2 DUP6 SWAP1 PUSH1 0x1 PUSH1 0x1 PUSH1 0xA0 SHL SUB DUP3 AND PUSH2 0x1D7D JUMPI JUMPDEST POP POP POP PUSH2 0x1BAC JUMP JUMPDEST PUSH2 0x1D3E JUMP JUMPDEST PUSH2 0x1DA0 SWAP2 PUSH2 0xEF8 PUSH2 0x1D98 SWAP3 PUSH1 0x0 MSTORE PUSH1 0x0 PUSH1 0x20 MSTORE PUSH1 0x40 PUSH1 0x0 KECCAK256 SWAP1 JUMP JUMPDEST SWAP2 DUP3 SLOAD PUSH2 0x20CC JUMP JUMPDEST SWAP1 SSTORE CODESIZE DUP5 DUP2 PUSH2 0x1D70 JUMP JUMPDEST POP DUP1 MLOAD SWAP2 SWAP4 SWAP3 SWAP2 PUSH1 0x1 SUB PUSH2 0x1E4C JUMPI PUSH1 0x20 DUP2 DUP2 ADD MLOAD DUP4 DUP3 ADD MLOAD PUSH1 0x40 DUP1 MLOAD SWAP3 DUP4 MSTORE SWAP3 DUP3 ADD MSTORE PUSH1 0x1 PUSH1 0x1 PUSH1 0xA0 SHL SUB DUP7 AND SWAP2 PUSH1 0x0 SWAP2 CALLER SWAP2 PUSH32 0xC3D58168C5AE7397731D063D5BBF3D657854427343F4C083240F7AACAA2D0F62 SWAP2 LOG4 JUMPDEST PUSH1 0x1 PUSH1 0x1 PUSH1 0xA0 SHL SUB DUP5 AND PUSH2 0x1E16 JUMPI JUMPDEST POP POP POP POP JUMP JUMPDEST DUP1 MLOAD PUSH1 0x1 SUB PUSH2 0x1E3D JUMPI SWAP1 PUSH1 0x20 DUP1 PUSH2 0x1E34 SWAP6 SWAP4 ADD MLOAD SWAP2 ADD MLOAD SWAP2 CALLER PUSH2 0x21C6 JUMP JUMPDEST CODESIZE DUP1 DUP1 DUP1 PUSH2 0x1E10 JUMP JUMPDEST PUSH2 0x1E47 SWAP4 CALLER PUSH2 0x23D7 JUMP JUMPDEST PUSH2 0x1E34 JUMP JUMPDEST PUSH1 0x40 MLOAD PUSH1 0x1 PUSH1 0x1 PUSH1 0xA0 SHL SUB DUP6 AND SWAP1 PUSH1 0x0 SWAP1 CALLER SWAP1 PUSH32 0x4A39DC06D4C0DBC64B70AF90FD698A233A518AA5D07E595D983B8C0526C8F7FB SWAP1 DUP1 PUSH2 0x1E8D DUP9 DUP9 DUP4 PUSH2 0x20D9 JUMP JUMPDEST SUB SWAP1 LOG4 PUSH2 0x1E01 JUMP JUMPDEST SWAP5 SWAP2 SWAP1 SWAP2 DUP2 MLOAD DUP5 MLOAD SWAP1 DUP2 DUP2 SUB PUSH2 0x1C42 JUMPI POP POP PUSH1 0x0 JUMPDEST DUP3 MLOAD DUP2 LT ISZERO PUSH2 0x1F9D JUMPI PUSH1 0x5 DUP2 SWAP1 SHL DUP4 DUP2 ADD PUSH1 0x20 SWAP1 DUP2 ADD MLOAD SWAP2 DUP8 ADD ADD MLOAD PUSH1 0x1 PUSH1 0x1 PUSH1 0xA0 SHL SUB SWAP3 SWAP2 DUP7 SWAP1 DUP11 DUP6 AND PUSH2 0x1F16 JUMPI JUMPDEST PUSH2 0x1EEC SWAP5 DUP3 AND PUSH2 0x1EF1 JUMPI POP POP POP PUSH2 0x1BAC JUMP JUMPDEST PUSH2 0x1EAA JUMP JUMPDEST PUSH2 0x1F0C SWAP2 PUSH2 0xEF8 PUSH2 0x1D98 SWAP3 PUSH1 0x0 MSTORE PUSH1 0x0 PUSH1 0x20 MSTORE PUSH1 0x40 PUSH1 0x0 KECCAK256 SWAP1 JUMP JUMPDEST SWAP1 SSTORE CODESIZE DUP6 DUP2 PUSH2 0x1D70 JUMP JUMPDEST SWAP2 SWAP3 SWAP4 SWAP1 POP PUSH2 0x1F33 DUP11 PUSH2 0xEF8 DUP5 PUSH1 0x0 MSTORE PUSH1 0x0 PUSH1 0x20 MSTORE PUSH1 0x40 PUSH1 0x0 KECCAK256 SWAP1 JUMP JUMPDEST SLOAD DUP4 DUP2 LT PUSH2 0x1F66 JUMPI SWAP2 DUP8 SWAP2 DUP5 PUSH2 0x1EEC SWAP7 SWAP6 SWAP5 SUB PUSH2 0x1F5E DUP14 PUSH2 0xEF8 DUP6 PUSH1 0x0 MSTORE PUSH1 0x0 PUSH1 0x20 MSTORE PUSH1 0x40 PUSH1 0x0 KECCAK256 SWAP1 JUMP JUMPDEST SSTORE SWAP5 POP PUSH2 0x1EDA JUMP JUMPDEST PUSH1 0x40 MLOAD PUSH4 0x3DEE4C5 PUSH1 0xE0 SHL DUP2 MSTORE PUSH1 0x1 PUSH1 0x1 PUSH1 0xA0 SHL SUB DUP13 AND PUSH1 0x4 DUP3 ADD MSTORE PUSH1 0x24 DUP2 ADD SWAP2 SWAP1 SWAP2 MSTORE PUSH1 0x44 DUP2 ADD DUP5 SWAP1 MSTORE PUSH1 0x64 DUP2 ADD DUP4 SWAP1 MSTORE PUSH1 0x84 SWAP1 REVERT JUMPDEST POP SWAP5 SWAP2 SWAP4 SWAP3 SWAP1 SWAP4 PUSH1 0x1 DUP6 MLOAD EQ PUSH1 0x0 EQ PUSH2 0x2048 JUMPI PUSH1 0x20 DUP6 DUP2 ADD MLOAD DUP4 DUP3 ADD MLOAD PUSH1 0x40 DUP1 MLOAD SWAP3 DUP4 MSTORE SWAP3 DUP3 ADD MSTORE PUSH1 0x1 PUSH1 0x1 PUSH1 0xA0 SHL SUB DUP4 DUP2 AND SWAP3 SWAP1 DUP7 AND SWAP2 CALLER SWAP2 PUSH32 0xC3D58168C5AE7397731D063D5BBF3D657854427343F4C083240F7AACAA2D0F62 SWAP2 LOG4 JUMPDEST PUSH1 0x1 PUSH1 0x1 PUSH1 0xA0 SHL SUB DUP2 AND PUSH2 0x2011 JUMPI JUMPDEST POP POP POP POP POP JUMP JUMPDEST DUP5 MLOAD PUSH1 0x1 SUB PUSH2 0x2037 JUMPI PUSH1 0x20 DUP1 PUSH2 0x202D SWAP7 ADD MLOAD SWAP3 ADD MLOAD SWAP3 CALLER PUSH2 0x22C0 JUMP JUMPDEST CODESIZE DUP1 DUP1 DUP1 DUP1 PUSH2 0x200A JUMP JUMPDEST PUSH2 0x2043 SWAP5 SWAP2 SWAP3 CALLER PUSH2 0x240C JUMP JUMPDEST PUSH2 0x202D JUMP JUMPDEST PUSH1 0x40 MLOAD PUSH1 0x1 PUSH1 0x1 PUSH1 0xA0 SHL SUB DUP3 DUP2 AND SWAP2 SWAP1 DUP6 AND SWAP1 CALLER SWAP1 PUSH32 0x4A39DC06D4C0DBC64B70AF90FD698A233A518AA5D07E595D983B8C0526C8F7FB SWAP1 DUP1 PUSH2 0x208B DUP9 DUP13 DUP4 PUSH2 0x20D9 JUMP JUMPDEST SUB SWAP1 LOG4 PUSH2 0x1FFB JUMP JUMPDEST SWAP1 PUSH7 0x11C37937E08000 DUP3 ADD DUP1 SWAP3 GT PUSH2 0x1BBB JUMPI JUMP JUMPDEST SWAP1 PUSH3 0x93A80 DUP3 ADD DUP1 SWAP3 GT PUSH2 0x1BBB JUMPI JUMP JUMPDEST SWAP1 PUSH7 0x2386F26FC10000 SWAP2 DUP3 ADD DUP1 SWAP3 GT PUSH2 0x1BBB JUMPI JUMP JUMPDEST SWAP2 SWAP1 DUP3 ADD DUP1 SWAP3 GT PUSH2 0x1BBB JUMPI JUMP JUMPDEST SWAP1 SWAP2 PUSH2 0x20F0 PUSH2 0x45C SWAP4 PUSH1 0x40 DUP5 MSTORE PUSH1 0x40 DUP5 ADD SWAP1 PUSH2 0x9EE JUMP JUMPDEST SWAP2 PUSH1 0x20 DUP2 DUP5 SUB SWAP2 ADD MSTORE PUSH2 0x9EE JUMP JUMPDEST SWAP1 DUP2 PUSH1 0x20 SWAP2 SUB SLT PUSH2 0x29C JUMPI MLOAD PUSH2 0x45C DUP2 PUSH2 0x315 JUMP JUMPDEST SWAP1 SWAP3 PUSH1 0xA0 SWAP3 PUSH2 0x45C SWAP6 SWAP5 PUSH1 0x1 DUP1 DUP7 SHL SUB AND DUP4 MSTORE PUSH1 0x0 PUSH1 0x20 DUP5 ADD MSTORE PUSH1 0x40 DUP4 ADD MSTORE PUSH1 0x60 DUP3 ADD MSTORE DUP2 PUSH1 0x80 DUP3 ADD MSTORE ADD SWAP1 PUSH2 0x426 JUMP JUMPDEST SWAP2 SWAP3 PUSH2 0x45C SWAP6 SWAP5 SWAP2 PUSH1 0xA0 SWAP5 PUSH1 0x1 DUP1 DUP8 SHL SUB DUP1 SWAP3 AND DUP6 MSTORE AND PUSH1 0x20 DUP5 ADD MSTORE PUSH1 0x40 DUP4 ADD MSTORE PUSH1 0x60 DUP3 ADD MSTORE DUP2 PUSH1 0x80 DUP3 ADD MSTORE ADD SWAP1 PUSH2 0x426 JUMP JUMPDEST PUSH1 0x40 MLOAD RETURNDATASIZE PUSH1 0x0 DUP3 RETURNDATACOPY RETURNDATASIZE SWAP1 REVERT JUMPDEST PUSH1 0x40 MLOAD SWAP1 PUSH2 0x2190 DUP3 PUSH2 0x752 JUMP JUMPDEST PUSH1 0x0 DUP3 MSTORE JUMP JUMPDEST RETURNDATASIZE ISZERO PUSH2 0x21C1 JUMPI RETURNDATASIZE SWAP1 PUSH2 0x21A7 DUP3 PUSH2 0x835 JUMP JUMPDEST SWAP2 PUSH2 0x21B5 PUSH1 0x40 MLOAD SWAP4 DUP5 PUSH2 0x76E JUMP JUMPDEST DUP3 MSTORE RETURNDATASIZE PUSH1 0x0 PUSH1 0x20 DUP5 ADD RETURNDATACOPY JUMP JUMPDEST PUSH1 0x60 SWAP1 JUMP JUMPDEST SWAP3 SWAP4 SWAP2 SWAP1 SWAP4 DUP5 EXTCODESIZE PUSH2 0x21D8 JUMPI POP POP POP POP POP JUMP JUMPDEST PUSH1 0x20 SWAP2 PUSH2 0x21FB PUSH1 0x40 MLOAD SWAP5 DUP6 SWAP4 DUP5 SWAP4 PUSH4 0xF23A6E61 PUSH1 0xE0 SHL SWAP9 DUP10 DUP7 MSTORE PUSH1 0x4 DUP7 ADD PUSH2 0x2113 JUMP JUMPDEST SUB DUP2 PUSH1 0x0 PUSH1 0x1 PUSH1 0x1 PUSH1 0xA0 SHL SUB DUP9 AND GAS CALL PUSH1 0x0 SWAP2 DUP2 PUSH2 0x2290 JUMPI JUMPDEST POP PUSH2 0x2253 JUMPI DUP3 PUSH2 0x2222 PUSH2 0x2196 JUMP JUMPDEST DUP1 MLOAD SWAP2 SWAP1 DUP3 PUSH2 0x224C JUMPI PUSH1 0x40 MLOAD PUSH4 0x2BFA23E7 PUSH1 0xE1 SHL DUP2 MSTORE PUSH1 0x1 PUSH1 0x1 PUSH1 0xA0 SHL SUB DUP4 AND PUSH1 0x4 DUP3 ADD MSTORE PUSH1 0x24 SWAP1 REVERT JUMPDEST SWAP1 POP PUSH1 0x20 ADD REVERT JUMPDEST PUSH1 0x1 PUSH1 0x1 PUSH1 0xE0 SHL SUB NOT AND SUB PUSH2 0x226D JUMPI POP CODESIZE DUP1 DUP1 DUP1 DUP1 PUSH2 0x200A JUMP JUMPDEST PUSH1 0x40 MLOAD PUSH4 0x2BFA23E7 PUSH1 0xE1 SHL DUP2 MSTORE PUSH1 0x1 PUSH1 0x1 PUSH1 0xA0 SHL SUB SWAP2 SWAP1 SWAP2 AND PUSH1 0x4 DUP3 ADD MSTORE PUSH1 0x24 SWAP1 REVERT JUMPDEST PUSH2 0x22B2 SWAP2 SWAP3 POP PUSH1 0x20 RETURNDATASIZE DUP2 GT PUSH2 0x22B9 JUMPI JUMPDEST PUSH2 0x22AA DUP2 DUP4 PUSH2 0x76E JUMP JUMPDEST DUP2 ADD SWAP1 PUSH2 0x20FE JUMP JUMPDEST SWAP1 CODESIZE PUSH2 0x2214 JUMP JUMPDEST POP RETURNDATASIZE PUSH2 0x22A0 JUMP JUMPDEST SWAP4 SWAP3 SWAP1 SWAP5 SWAP2 SWAP5 DUP6 EXTCODESIZE PUSH2 0x22D5 JUMPI JUMPDEST POP POP POP POP POP POP JUMP JUMPDEST PUSH2 0x22F8 PUSH1 0x20 SWAP4 PUSH1 0x40 MLOAD SWAP6 DUP7 SWAP5 DUP6 SWAP5 PUSH4 0xF23A6E61 PUSH1 0xE0 SHL SWAP10 DUP11 DUP8 MSTORE PUSH1 0x4 DUP8 ADD PUSH2 0x2144 JUMP JUMPDEST SUB DUP2 PUSH1 0x0 PUSH1 0x1 PUSH1 0x1 PUSH1 0xA0 SHL SUB DUP9 AND GAS CALL PUSH1 0x0 SWAP2 DUP2 PUSH2 0x233A JUMPI JUMPDEST POP PUSH2 0x231F JUMPI DUP3 PUSH2 0x2222 PUSH2 0x2196 JUMP JUMPDEST PUSH1 0x1 PUSH1 0x1 PUSH1 0xE0 SHL SUB NOT AND SUB PUSH2 0x226D JUMPI POP CODESIZE DUP1 DUP1 DUP1 DUP1 DUP1 PUSH2 0x22CD JUMP JUMPDEST PUSH2 0x2353 SWAP2 SWAP3 POP PUSH1 0x20 RETURNDATASIZE DUP2 GT PUSH2 0x22B9 JUMPI PUSH2 0x22AA DUP2 DUP4 PUSH2 0x76E JUMP JUMPDEST SWAP1 CODESIZE PUSH2 0x2311 JUMP JUMPDEST SWAP3 PUSH2 0x2389 PUSH2 0x45C SWAP6 SWAP4 PUSH2 0x2397 SWAP4 PUSH1 0x1 DUP1 PUSH1 0xA0 SHL SUB AND DUP7 MSTORE PUSH1 0x0 PUSH1 0x20 DUP8 ADD MSTORE PUSH1 0xA0 PUSH1 0x40 DUP8 ADD MSTORE PUSH1 0xA0 DUP7 ADD SWAP1 PUSH2 0x9EE JUMP JUMPDEST SWAP1 DUP5 DUP3 SUB PUSH1 0x60 DUP7 ADD MSTORE PUSH2 0x9EE JUMP JUMPDEST SWAP2 PUSH1 0x80 DUP2 DUP5 SUB SWAP2 ADD MSTORE PUSH2 0x426 JUMP JUMPDEST SWAP4 SWAP1 PUSH2 0x45C SWAP6 SWAP4 PUSH2 0x2389 SWAP2 PUSH2 0x2397 SWAP5 PUSH1 0x1 DUP1 PUSH1 0xA0 SHL SUB DUP1 SWAP3 AND DUP9 MSTORE AND PUSH1 0x20 DUP8 ADD MSTORE PUSH1 0xA0 PUSH1 0x40 DUP8 ADD MSTORE PUSH1 0xA0 DUP7 ADD SWAP1 PUSH2 0x9EE JUMP JUMPDEST SWAP3 SWAP4 SWAP2 SWAP1 SWAP4 DUP5 EXTCODESIZE PUSH2 0x23E9 JUMPI POP POP POP POP POP JUMP JUMPDEST PUSH1 0x20 SWAP2 PUSH2 0x21FB PUSH1 0x40 MLOAD SWAP5 DUP6 SWAP4 DUP5 SWAP4 PUSH4 0xBC197C81 PUSH1 0xE0 SHL SWAP9 DUP10 DUP7 MSTORE PUSH1 0x4 DUP7 ADD PUSH2 0x235A JUMP JUMPDEST SWAP4 SWAP3 SWAP1 SWAP5 SWAP2 SWAP5 DUP6 EXTCODESIZE PUSH2 0x2420 JUMPI POP POP POP POP POP POP JUMP JUMPDEST PUSH2 0x22F8 PUSH1 0x20 SWAP4 PUSH1 0x40 MLOAD SWAP6 DUP7 SWAP5 DUP6 SWAP5 PUSH4 0xBC197C81 PUSH1 0xE0 SHL SWAP10 DUP11 DUP8 MSTORE PUSH1 0x4 DUP8 ADD PUSH2 0x23A5 JUMP JUMPDEST ISZERO PUSH2 0x244A JUMPI JUMP JUMPDEST PUSH1 0x40 MLOAD PUSH3 0x461BCD PUSH1 0xE5 SHL DUP2 MSTORE PUSH1 0x20 PUSH1 0x4 DUP3 ADD MSTORE PUSH1 0x28 PUSH1 0x24 DUP3 ADD MSTORE PUSH32 0x4F6E6C7920456E6372797074656441727469636C657320636F6E747261637420 PUSH1 0x44 DUP3 ADD MSTORE PUSH8 0x18D85B881B5A5B9D PUSH1 0xC2 SHL PUSH1 0x64 DUP3 ADD MSTORE PUSH1 0x84 SWAP1 REVERT JUMPDEST SWAP1 SWAP2 SWAP1 PUSH1 0x1 PUSH1 0x1 PUSH1 0xA0 SHL SUB DUP2 AND ISZERO PUSH2 0x1CCC JUMPI PUSH2 0x24E0 PUSH2 0x79D SWAP4 SWAP1 PUSH1 0x40 MLOAD SWAP2 PUSH1 0x1 DUP4 MSTORE PUSH1 0x20 DUP4 ADD MSTORE PUSH1 0x40 DUP3 ADD SWAP1 PUSH1 0x1 DUP3 MSTORE PUSH1 0x1 PUSH1 0x60 DUP5 ADD MSTORE PUSH1 0x80 DUP4 ADD PUSH1 0x40 MSTORE JUMP JUMPDEST SWAP2 PUSH2 0x1D2C JUMP JUMPDEST SWAP2 SWAP3 SWAP2 SWAP1 PUSH1 0x1 PUSH1 0x1 PUSH1 0xA0 SHL SUB DUP3 AND ISZERO PUSH2 0x1CCC JUMPI PUSH2 0x79D SWAP4 PUSH2 0x24E0 PUSH1 0x40 MLOAD SWAP3 PUSH1 0x1 DUP5 MSTORE PUSH1 0x20 DUP5 ADD MSTORE PUSH1 0x40 DUP4 ADD SWAP2 PUSH1 0x1 DUP4 MSTORE PUSH1 0x60 DUP5 ADD MSTORE PUSH1 0x80 DUP4 ADD PUSH1 0x40 MSTORE JUMP JUMPDEST ISZERO PUSH2 0x252B JUMPI JUMP JUMPDEST PUSH1 0x40 MLOAD PUSH3 0x461BCD PUSH1 0xE5 SHL DUP2 MSTORE PUSH1 0x20 PUSH1 0x4 DUP3 ADD MSTORE PUSH1 0x22 PUSH1 0x24 DUP3 ADD MSTORE PUSH32 0x4E6F206C6963656E73657320657869737420666F722074686973206172746963 PUSH1 0x44 DUP3 ADD MSTORE PUSH2 0x6C65 PUSH1 0xF0 SHL PUSH1 0x64 DUP3 ADD MSTORE PUSH1 0x84 SWAP1 REVERT JUMPDEST DUP2 PUSH1 0x1F DUP3 ADD SLT ISZERO PUSH2 0x29C JUMPI DUP1 MLOAD PUSH2 0x2591 DUP2 PUSH2 0x835 JUMP JUMPDEST SWAP3 PUSH2 0x259F PUSH1 0x40 MLOAD SWAP5 DUP6 PUSH2 0x76E JUMP JUMPDEST DUP2 DUP5 MSTORE PUSH1 0x20 DUP3 DUP5 ADD ADD GT PUSH2 0x29C JUMPI PUSH2 0x45C SWAP2 PUSH1 0x20 DUP1 DUP6 ADD SWAP2 ADD PUSH2 0x403 JUMP JUMPDEST MLOAD SWAP1 PUSH2 0x79D DUP3 PUSH2 0x28B JUMP JUMPDEST MLOAD SWAP1 PUSH1 0xFF DUP3 AND DUP3 SUB PUSH2 0x29C JUMPI JUMP JUMPDEST PUSH2 0x1C0 DUP2 DUP4 SUB SLT PUSH2 0x29C JUMPI DUP1 MLOAD SWAP3 PUSH1 0x20 DUP3 ADD MLOAD PUSH8 0xFFFFFFFFFFFFFFFF SWAP1 DUP2 DUP2 GT PUSH2 0x29C JUMPI DUP5 PUSH2 0x2606 SWAP2 DUP6 ADD PUSH2 0x257B JUMP JUMPDEST SWAP4 PUSH1 0x40 DUP5 ADD MLOAD DUP3 DUP2 GT PUSH2 0x29C JUMPI DUP2 PUSH2 0x261F SWAP2 DUP7 ADD PUSH2 0x257B JUMP JUMPDEST SWAP4 PUSH1 0x60 DUP2 ADD MLOAD DUP4 DUP2 GT PUSH2 0x29C JUMPI DUP3 PUSH2 0x2638 SWAP2 DUP4 ADD PUSH2 0x257B JUMP JUMPDEST SWAP4 PUSH2 0x2645 PUSH1 0x80 DUP4 ADD PUSH2 0x25BD JUMP JUMPDEST SWAP4 PUSH1 0xA0 DUP4 ADD MLOAD DUP2 DUP2 GT PUSH2 0x29C JUMPI DUP5 PUSH2 0x265E SWAP2 DUP6 ADD PUSH2 0x257B JUMP JUMPDEST SWAP4 PUSH1 0xC0 DUP5 ADD MLOAD SWAP2 DUP3 GT PUSH2 0x29C JUMPI PUSH2 0x2676 SWAP2 DUP5 ADD PUSH2 0x257B JUMP JUMPDEST SWAP2 PUSH1 0xE0 DUP2 ADD MLOAD SWAP2 PUSH2 0x100 DUP3 ADD MLOAD SWAP2 PUSH2 0x120 DUP2 ADD MLOAD SWAP2 PUSH2 0x140 DUP3 ADD MLOAD SWAP2 PUSH2 0x160 DUP2 ADD MLOAD SWAP2 PUSH2 0x1A0 PUSH2 0x26A9 PUSH2 0x180 DUP5 ADD PUSH2 0x25C8 JUMP JUMPDEST SWAP3 ADD MLOAD SWAP1 JUMP JUMPDEST SWAP1 PUSH1 0x46 DUP3 MUL SWAP2 DUP1 DUP4 DIV PUSH1 0x46 EQ SWAP1 ISZERO OR ISZERO PUSH2 0x1BBB JUMPI JUMP JUMPDEST SWAP1 PUSH1 0x14 DUP3 MUL SWAP2 DUP1 DUP4 DIV PUSH1 0x14 EQ SWAP1 ISZERO OR ISZERO PUSH2 0x1BBB JUMPI JUMP JUMPDEST DUP2 DUP2 MUL SWAP3 SWAP2 DUP2 ISZERO SWAP2 DUP5 DIV EQ OR ISZERO PUSH2 0x1BBB JUMPI JUMP JUMPDEST ISZERO PUSH2 0x26F5 JUMPI JUMP JUMPDEST PUSH1 0x40 MLOAD PUSH3 0x461BCD PUSH1 0xE5 SHL DUP2 MSTORE PUSH1 0x20 PUSH1 0x4 DUP3 ADD MSTORE PUSH1 0x1D PUSH1 0x24 DUP3 ADD MSTORE PUSH32 0x496E76616C6964206C6963656E736520636F6E66696775726174696F6E000000 PUSH1 0x44 DUP3 ADD MSTORE PUSH1 0x64 SWAP1 REVERT JUMPDEST PUSH7 0x11C37937E07FFF NOT DUP2 ADD SWAP2 SWAP1 DUP3 GT PUSH2 0x1BBB JUMPI JUMP JUMPDEST PUSH1 0x0 NOT DUP2 ADD SWAP2 SWAP1 DUP3 GT PUSH2 0x1BBB JUMPI JUMP JUMPDEST SWAP2 SWAP1 DUP3 SUB SWAP2 DUP3 GT PUSH2 0x1BBB JUMPI JUMP JUMPDEST PUSH4 0x4E487B71 PUSH1 0xE0 SHL PUSH1 0x0 MSTORE PUSH1 0x12 PUSH1 0x4 MSTORE PUSH1 0x24 PUSH1 0x0 REVERT JUMPDEST DUP1 ISZERO PUSH2 0x2794 JUMPI PUSH8 0xDBD2FC137A30000 DIV SWAP1 JUMP JUMPDEST PUSH2 0x276B JUMP JUMPDEST PUSH2 0x27AD DUP2 PUSH1 0x0 MSTORE PUSH1 0xA PUSH1 0x20 MSTORE PUSH1 0x40 PUSH1 0x0 KECCAK256 SWAP1 JUMP JUMPDEST SLOAD PUSH2 0x27B9 DUP2 ISZERO ISZERO PUSH2 0x2524 JUMP JUMPDEST PUSH1 0x40 MLOAD PUSH4 0x76E7D7F3 PUSH1 0xE1 SHL DUP2 MSTORE PUSH1 0x4 DUP2 ADD DUP4 SWAP1 MSTORE PUSH1 0x0 SWAP3 SWAP1 DUP4 DUP2 PUSH1 0x24 DUP2 PUSH1 0x1 PUSH1 0x1 PUSH1 0xA0 SHL SUB PUSH32 0x0 AND GAS STATICCALL DUP1 ISZERO PUSH2 0x3D6 JUMPI PUSH2 0x2864 SWAP4 PUSH2 0x2826 PUSH2 0x2859 SWAP3 PUSH2 0x285E SWAP5 DUP9 SWAP1 DUP10 SWAP3 PUSH2 0x288B JUMPI JUMPDEST POP PUSH2 0x26DB JUMP JUMPDEST PUSH2 0x2831 DUP2 ISZERO ISZERO PUSH2 0x26EE JUMP JUMPDEST PUSH1 0x1 DUP2 GT ISZERO PUSH2 0x2880 JUMPI PUSH2 0x284E PUSH2 0x2849 PUSH2 0x2854 SWAP3 PUSH2 0x274F JUMP JUMPDEST PUSH2 0x2781 JUMP JUMPDEST SWAP2 PUSH2 0x274F JUMP JUMPDEST PUSH2 0x26DB JUMP JUMPDEST PUSH2 0x20B7 JUMP JUMPDEST SWAP1 PUSH2 0x28B5 JUMP JUMPDEST PUSH8 0xDE0B6B3A7640000 SWAP2 POP DUP2 DUP2 GT ISZERO PUSH2 0x287B JUMPI POP SWAP1 JUMP JUMPDEST SWAP1 POP SWAP1 JUMP JUMPDEST POP PUSH2 0x2854 DUP7 SWAP2 PUSH2 0x274F JUMP JUMPDEST SWAP1 POP PUSH2 0x28A1 SWAP2 POP RETURNDATASIZE DUP1 DUP11 DUP4 RETURNDATACOPY PUSH2 0x62E DUP2 DUP4 PUSH2 0x76E JUMP JUMPDEST POP POP SWAP11 POP POP POP SWAP7 POP POP POP POP POP POP POP CODESIZE PUSH2 0x2820 JUMP JUMPDEST PUSH1 0x40 MLOAD PUSH4 0x76E7D7F3 PUSH1 0xE1 SHL DUP2 MSTORE PUSH1 0x4 DUP2 ADD DUP3 SWAP1 MSTORE PUSH1 0x0 SWAP4 SWAP2 SWAP3 SWAP1 DUP5 DUP2 PUSH1 0x24 DUP2 PUSH1 0x1 PUSH1 0x1 PUSH1 0xA0 SHL SUB PUSH32 0x0 AND GAS STATICCALL SWAP1 DUP2 ISZERO PUSH2 0x3D6 JUMPI PUSH2 0x2926 SWAP2 PUSH2 0x291D SWAP2 DUP8 SWAP2 PUSH2 0x29F2 JUMPI JUMPDEST POP TIMESTAMP PUSH2 0x275E JUMP JUMPDEST PUSH3 0x15180 SWAP1 DIV SWAP1 JUMP JUMPDEST SWAP4 DUP1 SWAP4 PUSH3 0x15180 TIMESTAMP DIV SWAP1 DUP3 SWAP6 JUMPDEST DUP8 DUP8 LT DUP1 PUSH2 0x29E8 JUMPI JUMPDEST ISZERO PUSH2 0x29DB JUMPI PUSH2 0x2970 PUSH2 0x2958 DUP4 PUSH1 0x0 MSTORE PUSH1 0x8 PUSH1 0x20 MSTORE PUSH1 0x40 PUSH1 0x0 KECCAK256 SWAP1 JUMP JUMPDEST PUSH2 0x2962 DUP10 DUP7 PUSH2 0x275E JUMP JUMPDEST PUSH1 0x0 MSTORE PUSH1 0x20 MSTORE PUSH1 0x40 PUSH1 0x0 KECCAK256 SWAP1 JUMP JUMPDEST SLOAD PUSH2 0x298D JUMPI PUSH2 0x2981 PUSH2 0x2987 SWAP2 PUSH2 0x1BAC JUMP JUMPDEST SWAP7 PUSH2 0x1BAC JUMP JUMPDEST SWAP6 PUSH2 0x2933 JUMP JUMPDEST SWAP4 SWAP6 POP POP POP SWAP2 SWAP4 POP JUMPDEST PUSH1 0x1E DUP2 GT ISZERO PUSH2 0x29CF JUMPI POP PUSH2 0x29AF PUSH2 0xF43 PUSH1 0x1E JUMPDEST DUP5 PUSH2 0x26DB JUMP JUMPDEST SWAP1 POP DUP1 DUP3 GT ISZERO PUSH2 0x29C2 JUMPI PUSH2 0x45C SWAP2 PUSH2 0x275E JUMP JUMPDEST POP POP PUSH7 0x38D7EA4C68000 SWAP1 JUMP JUMPDEST PUSH2 0xF43 PUSH2 0x29AF SWAP2 PUSH2 0x29A9 JUMP JUMPDEST SWAP4 SWAP6 POP POP POP SWAP2 SWAP4 POP PUSH2 0x2996 JUMP JUMPDEST POP PUSH1 0x1E DUP8 LT PUSH2 0x293C JUMP JUMPDEST PUSH2 0x2A06 SWAP2 POP RETURNDATASIZE DUP1 DUP10 DUP4 RETURNDATACOPY PUSH2 0x62E DUP2 DUP4 PUSH2 0x76E JUMP JUMPDEST POP POP POP POP POP POP SWAP7 POP POP POP POP POP POP POP CODESIZE PUSH2 0x2916 JUMP JUMPDEST ISZERO PUSH2 0x2A21 JUMPI JUMP JUMPDEST PUSH1 0x40 MLOAD PUSH3 0x461BCD PUSH1 0xE5 SHL DUP2 MSTORE PUSH1 0x20 PUSH1 0x4 DUP3 ADD MSTORE PUSH1 0x16 PUSH1 0x24 DUP3 ADD MSTORE PUSH22 0x53656C6C657220686173206E6F206C6963656E736573 PUSH1 0x50 SHL PUSH1 0x44 DUP3 ADD MSTORE PUSH1 0x64 SWAP1 REVERT JUMPDEST ISZERO PUSH2 0x2A66 JUMPI JUMP JUMPDEST PUSH1 0x40 MLOAD PUSH3 0x461BCD PUSH1 0xE5 SHL DUP2 MSTORE PUSH1 0x20 PUSH1 0x4 DUP3 ADD MSTORE PUSH1 0x14 PUSH1 0x24 DUP3 ADD MSTORE PUSH20 0x125B9CDD59999A58DA595B9D081C185E5B595B9D PUSH1 0x62 SHL PUSH1 0x44 DUP3 ADD MSTORE PUSH1 0x64 SWAP1 REVERT JUMPDEST DUP1 ISZERO PUSH2 0x1BBB JUMPI PUSH1 0x0 NOT ADD SWAP1 JUMP JUMPDEST DUP1 SLOAD PUSH9 0x10000000000000000 DUP2 LT ISZERO PUSH2 0x74D JUMPI PUSH2 0x2AD1 SWAP2 PUSH1 0x1 DUP3 ADD DUP2 SSTORE PUSH2 0xDED JUMP JUMPDEST PUSH2 0x2B20 JUMPI DUP2 MLOAD DUP2 SSTORE PUSH1 0x20 DUP3 ADD MLOAD PUSH1 0x1 DUP3 ADD SSTORE PUSH1 0x40 DUP3 ADD MLOAD PUSH1 0x2 DUP3 ADD DUP1 SLOAD PUSH1 0x1 PUSH1 0x1 PUSH1 0xA0 SHL SUB SWAP3 DUP4 AND PUSH1 0x1 PUSH1 0x1 PUSH1 0xA0 SHL SUB NOT SWAP2 DUP3 AND OR SWAP1 SWAP2 SSTORE PUSH1 0x60 SWAP1 SWAP4 ADD MLOAD PUSH1 0x3 SWAP1 SWAP3 ADD DUP1 SLOAD SWAP1 SWAP4 AND SWAP2 AND OR SWAP1 SSTORE JUMP JUMPDEST PUSH4 0x4E487B71 PUSH1 0xE0 SHL PUSH1 0x0 MSTORE PUSH1 0x0 PUSH1 0x4 MSTORE PUSH1 0x24 PUSH1 0x0 REVERT JUMPDEST ISZERO PUSH2 0x2B3D JUMPI JUMP JUMPDEST PUSH1 0x40 MLOAD PUSH3 0x461BCD PUSH1 0xE5 SHL DUP2 MSTORE PUSH1 0x20 PUSH1 0x4 DUP3 ADD MSTORE PUSH1 0x12 PUSH1 0x24 DUP3 ADD MSTORE PUSH18 0x2737903634B1B2B739B2903A3790313AB937 PUSH1 0x71 SHL PUSH1 0x44 DUP3 ADD MSTORE PUSH1 0x64 SWAP1 REVERT JUMPDEST ISZERO PUSH2 0x2B7E JUMPI JUMP JUMPDEST PUSH1 0x40 MLOAD PUSH3 0x461BCD PUSH1 0xE5 SHL DUP2 MSTORE PUSH1 0x20 PUSH1 0x4 DUP3 ADD MSTORE PUSH1 0x19 PUSH1 0x24 DUP3 ADD MSTORE PUSH32 0x416C726561647920686173206163746976652061636365737300000000000000 PUSH1 0x44 DUP3 ADD MSTORE PUSH1 0x64 SWAP1 REVERT JUMPDEST PUSH1 0x1 PUSH1 0x20 PUSH2 0x79D SWAP4 DUP1 MLOAD DUP5 SSTORE ADD MLOAD ISZERO ISZERO SWAP2 ADD SWAP1 PUSH1 0xFF DUP1 NOT DUP4 SLOAD AND SWAP2 ISZERO ISZERO AND OR SWAP1 SSTORE JUMP JUMPDEST PUSH1 0x1 PUSH1 0x1 PUSH1 0xA0 SHL SUB DUP2 AND SWAP2 DUP3 ISZERO PUSH2 0x1CB4 JUMPI PUSH2 0x2C20 PUSH1 0x40 MLOAD SWAP2 PUSH1 0x1 DUP4 MSTORE PUSH1 0x20 DUP4 ADD MSTORE PUSH1 0x40 DUP3 ADD SWAP1 PUSH1 0x1 DUP3 MSTORE PUSH1 0x1 PUSH1 0x60 DUP5 ADD MSTORE PUSH1 0x80 DUP4 ADD PUSH1 0x40 MSTORE JUMP JUMPDEST SWAP2 SWAP1 PUSH1 0x40 SWAP5 PUSH1 0x0 DUP7 MLOAD PUSH2 0x2C32 DUP2 PUSH2 0x752 JUMP JUMPDEST MSTORE DUP2 MLOAD DUP5 MLOAD SWAP1 DUP2 DUP2 SUB PUSH2 0x2D66 JUMPI POP POP PUSH1 0x0 JUMPDEST DUP3 MLOAD DUP2 LT ISZERO PUSH2 0x2CDF JUMPI DUP1 PUSH1 0x5 SHL PUSH1 0x20 DUP1 DUP3 DUP7 ADD ADD MLOAD SWAP2 DUP8 ADD ADD MLOAD PUSH2 0x2C76 DUP7 PUSH2 0xEF8 DUP5 PUSH1 0x0 MSTORE PUSH1 0x0 PUSH1 0x20 MSTORE PUSH1 0x40 PUSH1 0x0 KECCAK256 SWAP1 JUMP JUMPDEST SLOAD DUP2 DUP2 LT PUSH2 0x2CA9 JUMPI DUP7 PUSH2 0xEF8 PUSH2 0x2CA4 SWAP6 SWAP5 SWAP4 PUSH2 0x2C9E SWAP4 SUB SWAP4 PUSH1 0x0 MSTORE PUSH1 0x0 PUSH1 0x20 MSTORE PUSH1 0x40 PUSH1 0x0 KECCAK256 SWAP1 JUMP JUMPDEST SSTORE PUSH2 0x1BAC JUMP JUMPDEST PUSH2 0x2C44 JUMP JUMPDEST DUP10 MLOAD PUSH4 0x3DEE4C5 PUSH1 0xE0 SHL DUP2 MSTORE PUSH1 0x1 PUSH1 0x1 PUSH1 0xA0 SHL SUB DUP9 AND PUSH1 0x4 DUP3 ADD MSTORE PUSH1 0x24 DUP2 ADD SWAP2 SWAP1 SWAP2 MSTORE PUSH1 0x44 DUP2 ADD DUP3 SWAP1 MSTORE PUSH1 0x64 DUP2 ADD DUP4 SWAP1 MSTORE PUSH1 0x84 SWAP1 REVERT JUMPDEST POP SWAP5 SWAP1 PUSH1 0x0 SWAP5 SWAP4 SWAP3 POP PUSH1 0x1 DUP2 MLOAD EQ DUP6 EQ PUSH2 0x2D34 JUMPI PUSH1 0x20 SWAP1 DUP2 ADD MLOAD SWAP3 DUP2 ADD MLOAD SWAP2 MLOAD SWAP3 DUP4 MSTORE DUP3 ADD MSTORE CALLER SWAP1 PUSH32 0xC3D58168C5AE7397731D063D5BBF3D657854427343F4C083240F7AACAA2D0F62 SWAP1 DUP1 PUSH1 0x40 DUP2 ADD JUMPDEST SUB SWAP1 LOG4 JUMP JUMPDEST SWAP1 MLOAD CALLER SWAP3 PUSH32 0x4A39DC06D4C0DBC64B70AF90FD698A233A518AA5D07E595D983B8C0526C8F7FB SWAP3 DUP3 SWAP2 PUSH2 0x2D2F SWAP2 DUP4 PUSH2 0x20D9 JUMP JUMPDEST DUP8 MLOAD PUSH4 0x5B059991 PUSH1 0xE0 SHL DUP2 MSTORE PUSH1 0x4 DUP2 ADD SWAP2 SWAP1 SWAP2 MSTORE PUSH1 0x24 DUP2 ADD SWAP2 SWAP1 SWAP2 MSTORE PUSH1 0x44 SWAP1 REVERT JUMPDEST PUSH1 0x0 MSTORE PUSH1 0x5 PUSH1 0x20 MSTORE PUSH1 0x40 PUSH1 0x0 KECCAK256 PUSH1 0x3 PUSH1 0x2 DUP3 ADD SLOAD SWAP2 ADD SLOAD SWAP1 DUP1 ISZERO PUSH2 0x2DCC JUMPI DUP2 DUP2 SUB SWAP2 DUP2 DUP4 GT PUSH2 0x1BBB JUMPI PUSH1 0x64 DUP4 MUL SWAP3 DUP4 DIV PUSH1 0x64 EQ SWAP1 DUP3 EQ OR ISZERO PUSH2 0x1BBB JUMPI PUSH1 0x32 SWAP2 DIV LT ISZERO SWAP1 JUMP JUMPDEST POP POP PUSH1 0x0 SWAP1 JUMP JUMPDEST ISZERO PUSH2 0x2DDA JUMPI JUMP JUMPDEST PUSH1 0x40 MLOAD PUSH3 0x461BCD PUSH1 0xE5 SHL DUP2 MSTORE PUSH1 0x20 PUSH1 0x4 DUP3 ADD MSTORE PUSH1 0x15 PUSH1 0x24 DUP3 ADD MSTORE PUSH21 0x125B9CDD59999A58DA595B9D0819D85CC81C1BDBDB PUSH1 0x5A SHL PUSH1 0x44 DUP3 ADD MSTORE PUSH1 0x64 SWAP1 REVERT JUMPDEST PUSH1 0x20 SWAP1 DUP2 DUP2 DUP5 SUB SLT PUSH2 0x29C JUMPI DUP1 MLOAD SWAP1 PUSH8 0xFFFFFFFFFFFFFFFF DUP3 GT PUSH2 0x29C JUMPI ADD SWAP2 DUP1 PUSH1 0x1F DUP5 ADD SLT ISZERO PUSH2 0x29C JUMPI DUP3 MLOAD PUSH2 0x2E4D DUP2 PUSH2 0x7BF JUMP JUMPDEST SWAP4 PUSH2 0x2E5B PUSH1 0x40 MLOAD SWAP6 DUP7 PUSH2 0x76E JUMP JUMPDEST DUP2 DUP6 MSTORE DUP4 DUP1 DUP7 ADD SWAP3 PUSH1 0x5 SHL DUP3 ADD ADD SWAP3 DUP4 GT PUSH2 0x29C JUMPI DUP4 ADD SWAP1 JUMPDEST DUP3 DUP3 LT PUSH2 0x2E82 JUMPI POP POP POP POP SWAP1 JUMP JUMPDEST DUP4 DUP1 SWAP2 DUP4 MLOAD PUSH2 0x2E90 DUP2 PUSH2 0x28B JUMP JUMPDEST DUP2 MSTORE ADD SWAP2 ADD SWAP1 PUSH2 0x2E74 JUMP JUMPDEST ISZERO PUSH2 0x2EA2 JUMPI JUMP JUMPDEST PUSH1 0x40 MLOAD PUSH3 0x461BCD PUSH1 0xE5 SHL DUP2 MSTORE PUSH1 0x20 PUSH1 0x4 DUP3 ADD MSTORE PUSH1 0xE PUSH1 0x24 DUP3 ADD MSTORE PUSH14 0x4E6F204E465420686F6C64657273 PUSH1 0x90 SHL PUSH1 0x44 DUP3 ADD MSTORE PUSH1 0x64 SWAP1 REVERT JUMPDEST DUP2 ISZERO PUSH2 0x2794 JUMPI MOD SWAP1 JUMP JUMPDEST SWAP1 PUSH2 0x2F1C PUSH1 0x2 PUSH2 0x2EFC DUP5 PUSH1 0x0 MSTORE PUSH1 0x5 PUSH1 0x20 MSTORE PUSH1 0x40 PUSH1 0x0 KECCAK256 SWAP1 JUMP JUMPDEST ADD SLOAD PUSH1 0x3 PUSH2 0x2F14 DUP6 PUSH1 0x0 MSTORE PUSH1 0x5 PUSH1 0x20 MSTORE PUSH1 0x40 PUSH1 0x0 KECCAK256 SWAP1 JUMP JUMPDEST ADD SLOAD SWAP1 PUSH2 0x275E JUMP JUMPDEST SWAP2 DUP3 ISZERO PUSH2 0x30B4 JUMPI PUSH1 0x40 MLOAD PUSH4 0x9FB53FCB PUSH1 0xE0 SHL DUP2 MSTORE PUSH1 0x4 DUP2 ADD DUP3 SWAP1 MSTORE SWAP3 PUSH1 0x0 DUP5 PUSH1 0x24 DUP2 PUSH1 0x1 PUSH1 0x1 PUSH1 0xA0 SHL SUB PUSH32 0x0 AND GAS STATICCALL SWAP4 DUP5 ISZERO PUSH2 0x3D6 JUMPI PUSH1 0x0 SWAP5 PUSH2 0x3099 JUMPI JUMPDEST POP PUSH2 0x2F86 DUP5 MLOAD ISZERO ISZERO PUSH2 0x2E9B JUMP JUMPDEST PUSH1 0x0 JUMPDEST DUP2 DUP2 LT PUSH2 0x303E JUMPI POP DUP2 SWAP3 SWAP4 POP PUSH1 0x3 PUSH2 0x2FCB PUSH31 0xB4EA54FB8C538CD9C23515E23D54351ACC66C4539507193CEAE7D70E65D30D SWAP4 PUSH1 0x0 MSTORE PUSH1 0x5 PUSH1 0x20 MSTORE PUSH1 0x40 PUSH1 0x0 KECCAK256 SWAP1 JUMP JUMPDEST ADD PUSH2 0x2FD7 DUP3 DUP3 SLOAD PUSH2 0x20CC JUMP JUMPDEST SWAP1 SSTORE TIMESTAMP PUSH1 0x4 PUSH2 0x2FF0 DUP6 PUSH1 0x0 MSTORE PUSH1 0x5 PUSH1 0x20 MSTORE PUSH1 0x40 PUSH1 0x0 KECCAK256 SWAP1 JUMP JUMPDEST ADD SSTORE PUSH2 0x3006 DUP4 PUSH1 0x0 MSTORE PUSH1 0xA PUSH1 0x20 MSTORE PUSH1 0x40 PUSH1 0x0 KECCAK256 SWAP1 JUMP JUMPDEST PUSH2 0x3011 DUP3 DUP3 SLOAD PUSH2 0x20CC JUMP JUMPDEST SWAP1 SSTORE PUSH1 0x3 PUSH2 0x3029 DUP5 PUSH1 0x0 MSTORE PUSH1 0x5 PUSH1 0x20 MSTORE PUSH1 0x40 PUSH1 0x0 KECCAK256 SWAP1 JUMP JUMPDEST ADD SLOAD PUSH1 0x40 DUP1 MLOAD SWAP3 DUP4 MSTORE PUSH1 0x20 DUP4 ADD SWAP2 SWAP1 SWAP2 MSTORE SWAP1 LOG2 JUMP JUMPDEST PUSH2 0x3094 SWAP1 PUSH2 0x308F PUSH2 0x305C PUSH2 0x140A PUSH2 0x3056 DUP10 MLOAD DUP6 PUSH2 0x2ED8 JUMP JUMPDEST DUP10 PUSH2 0x1BC0 JUMP JUMPDEST PUSH2 0x3074 DUP2 PUSH2 0xEF8 DUP9 PUSH1 0x0 MSTORE PUSH1 0x6 PUSH1 0x20 MSTORE PUSH1 0x40 PUSH1 0x0 KECCAK256 SWAP1 JUMP JUMPDEST PUSH2 0x307E DUP2 SLOAD PUSH2 0x1BAC JUMP JUMPDEST SWAP1 SSTORE DUP6 PUSH2 0x3089 PUSH2 0x2183 JUMP JUMPDEST SWAP2 PUSH2 0x24A0 JUMP JUMPDEST PUSH2 0x1BAC JUMP JUMPDEST PUSH2 0x2F89 JUMP JUMPDEST PUSH2 0x30AD SWAP2 SWAP5 RETURNDATASIZE DUP1 SWAP2 DUP4 RETURNDATACOPY PUSH2 0x1466 DUP2 DUP4 PUSH2 0x76E JUMP JUMPDEST SWAP3 CODESIZE PUSH2 0x2F79 JUMP JUMPDEST POP SWAP1 POP JUMP JUMPDEST PUSH1 0x0 SWAP1 DUP2 MSTORE PUSH1 0x7 PUSH1 0x20 SWAP1 DUP2 MSTORE PUSH1 0x40 DUP1 DUP4 KECCAK256 PUSH1 0x1 PUSH1 0x1 PUSH1 0xA0 SHL SUB SWAP1 SWAP5 AND DUP4 MSTORE SWAP3 SWAP1 MSTORE KECCAK256 PUSH1 0x40 MLOAD SWAP1 PUSH1 0x40 DUP3 ADD SWAP2 DUP1 DUP4 LT PUSH8 0xFFFFFFFFFFFFFFFF DUP5 GT OR PUSH2 0x74D JUMPI PUSH1 0x20 SWAP3 PUSH1 0x40 MSTORE PUSH1 0xFF PUSH1 0x1 DUP4 SLOAD SWAP4 DUP5 DUP5 MSTORE ADD SLOAD AND ISZERO ISZERO SWAP3 DUP4 SWAP2 ADD MSTORE DUP2 PUSH2 0x311A JUMPI POP SWAP1 JUMP JUMPDEST SWAP1 POP TIMESTAMP LT SWAP1 JUMP JUMPDEST SWAP1 PUSH2 0x3134 PUSH1 0x20 SWAP3 DUP3 DUP2 MLOAD SWAP5 DUP6 SWAP3 ADD PUSH2 0x403 JUMP JUMPDEST ADD SWAP1 JUMP INVALID LOG2 PUSH5 0x6970667358 0x22 SLT KECCAK256 0xB1 SWAP1 SWAP14 ORIGIN BYTE 0x4C SIGNEXTEND MSTORE8 0xC7 DUP14 INVALID REVERT PUSH16 0x2029D54EBFEC0974CC8909A4EA00F621 SLT SWAP8 PC PUSH5 0x736F6C6343 STOP ADDMOD EQ STOP CALLER "},"methodIdentifiers":{"BASE_PRICE()":"f86325ed","CREATOR_PERCENTAGE()":"ca9f19ef","ENCRYPTED_ARTICLES()":"98e9d0e0","GAS_REIMBURSEMENT()":"cb8b2522","MAX_PRICE()":"01c11d96","PLATFORM_PERCENTAGE()":"09886c9c","REGENERATION_THRESHOLD()":"e3685397","SELLER_PERCENTAGE()":"72009528","TREASURY()":"2d2c5565","accessInfo(uint256,address)":"ab0b8b04","balanceOf(address,uint256)":"00fdd58e","balanceOfBatch(address[],uint256[])":"4e1273f4","burnLicenseForAccess(uint256)":"f24c4eac","buyLicense(uint256,address)":"996cb745","dailyPurchases(uint256,uint256)":"c98d6e99","emergencyWithdrawGasPool()":"0813d3f6","gasPool()":"fa08b038","getArticleSummary(uint256)":"607ea36d","getCurrentPrice(uint256)":"c55d0f56","getEncryptedContent(uint256)":"8d40e0cd","getLicenseHolders(uint256)":"b3c655c0","getPurchaseHistory(uint256)":"f4bf28a0","hasActiveAccess(uint256,address)":"f499924b","isApprovedForAll(address,address)":"e985e9c5","licenseBalances(uint256,address)":"1453a424","licenseInfo(uint256)":"1e084558","mintLicensesToHolder(uint256,address,uint256,uint256)":"df81a823","owner()":"8da5cb5b","purchaseHistory(uint256,uint256)":"95f58ab8","regenerateLicenses(uint256)":"75315716","renounceOwnership()":"715018a6","safeBatchTransferFrom(address,address,uint256[],uint256[],bytes)":"2eb2c2d6","safeTransferFrom(address,address,uint256,uint256,bytes)":"f242432a","setApprovalForAll(address,bool)":"a22cb465","shouldRegenerate(uint256)":"43c7580e","supportsInterface(bytes4)":"01ffc9a7","totalLicensesEverGenerated(uint256)":"bca59003","transferOwnership(address)":"f2fde38b","uri(uint256)":"0e89341c"}}}}}