{"contracts/content/EncryptedArticles.sol":{"EncryptedArticles":{"abi":[{"inputs":[{"internalType":"address","name":"_publisherCredentials","type":"address"},{"internalType":"address","name":"_membershipTokens","type":"address"}],"stateMutability":"nonpayable","type":"constructor"},{"inputs":[{"internalType":"uint256","name":"numerator","type":"uint256"},{"internalType":"uint256","name":"denominator","type":"uint256"}],"name":"ERC2981InvalidDefaultRoyalty","type":"error"},{"inputs":[{"internalType":"address","name":"receiver","type":"address"}],"name":"ERC2981InvalidDefaultRoyaltyReceiver","type":"error"},{"inputs":[{"internalType":"uint256","name":"tokenId","type":"uint256"},{"internalType":"uint256","name":"numerator","type":"uint256"},{"internalType":"uint256","name":"denominator","type":"uint256"}],"name":"ERC2981InvalidTokenRoyalty","type":"error"},{"inputs":[{"internalType":"uint256","name":"tokenId","type":"uint256"},{"internalType":"address","name":"receiver","type":"address"}],"name":"ERC2981InvalidTokenRoyaltyReceiver","type":"error"},{"inputs":[{"internalType":"address","name":"sender","type":"address"},{"internalType":"uint256","name":"tokenId","type":"uint256"},{"internalType":"address","name":"owner","type":"address"}],"name":"ERC721IncorrectOwner","type":"error"},{"inputs":[{"internalType":"address","name":"operator","type":"address"},{"internalType":"uint256","name":"tokenId","type":"uint256"}],"name":"ERC721InsufficientApproval","type":"error"},{"inputs":[{"internalType":"address","name":"approver","type":"address"}],"name":"ERC721InvalidApprover","type":"error"},{"inputs":[{"internalType":"address","name":"operator","type":"address"}],"name":"ERC721InvalidOperator","type":"error"},{"inputs":[{"internalType":"address","name":"owner","type":"address"}],"name":"ERC721InvalidOwner","type":"error"},{"inputs":[{"internalType":"address","name":"receiver","type":"address"}],"name":"ERC721InvalidReceiver","type":"error"},{"inputs":[{"internalType":"address","name":"sender","type":"address"}],"name":"ERC721InvalidSender","type":"error"},{"inputs":[{"internalType":"uint256","name":"tokenId","type":"uint256"}],"name":"ERC721NonexistentToken","type":"error"},{"inputs":[{"internalType":"address","name":"owner","type":"address"}],"name":"OwnableInvalidOwner","type":"error"},{"inputs":[{"internalType":"address","name":"account","type":"address"}],"name":"OwnableUnauthorizedAccount","type":"error"},{"anonymous":false,"inputs":[{"indexed":true,"internalType":"address","name":"owner","type":"address"},{"indexed":true,"internalType":"address","name":"approved","type":"address"},{"indexed":true,"internalType":"uint256","name":"tokenId","type":"uint256"}],"name":"Approval","type":"event"},{"anonymous":false,"inputs":[{"indexed":true,"internalType":"address","name":"owner","type":"address"},{"indexed":true,"internalType":"address","name":"operator","type":"address"},{"indexed":false,"internalType":"bool","name":"approved","type":"bool"}],"name":"ApprovalForAll","type":"event"},{"anonymous":false,"inputs":[{"indexed":true,"internalType":"uint256","name":"articleId","type":"uint256"},{"indexed":true,"internalType":"address","name":"author","type":"address"},{"indexed":false,"internalType":"string","name":"title","type":"string"},{"indexed":false,"internalType":"string","name":"location","type":"string"},{"indexed":false,"internalType":"uint256","name":"nftCount","type":"uint256"},{"indexed":false,"internalType":"uint256","name":"nftPrice","type":"uint256"}],"name":"ArticlePublished","type":"event"},{"anonymous":false,"inputs":[{"indexed":false,"internalType":"uint256","name":"_fromTokenId","type":"uint256"},{"indexed":false,"internalType":"uint256","name":"_toTokenId","type":"uint256"}],"name":"BatchMetadataUpdate","type":"event"},{"anonymous":false,"inputs":[{"indexed":false,"internalType":"uint256","name":"_tokenId","type":"uint256"}],"name":"MetadataUpdate","type":"event"},{"anonymous":false,"inputs":[{"indexed":true,"internalType":"uint256","name":"tokenId","type":"uint256"},{"indexed":true,"internalType":"uint256","name":"articleId","type":"uint256"},{"indexed":true,"internalType":"address","name":"buyer","type":"address"},{"indexed":false,"internalType":"uint256","name":"editionNumber","type":"uint256"},{"indexed":false,"internalType":"uint256","name":"price","type":"uint256"},{"indexed":false,"internalType":"uint256","name":"licensesGenerated","type":"uint256"}],"name":"NFTMinted","type":"event"},{"anonymous":false,"inputs":[{"indexed":true,"internalType":"address","name":"previousOwner","type":"address"},{"indexed":true,"internalType":"address","name":"newOwner","type":"address"}],"name":"OwnershipTransferred","type":"event"},{"anonymous":false,"inputs":[{"indexed":true,"internalType":"address","name":"from","type":"address"},{"indexed":true,"internalType":"address","name":"to","type":"address"},{"indexed":true,"internalType":"uint256","name":"tokenId","type":"uint256"}],"name":"Transfer","type":"event"},{"inputs":[],"name":"BUYER_FEE","outputs":[{"internalType":"uint256","name":"","type":"uint256"}],"stateMutability":"view","type":"function"},{"inputs":[],"name":"DAILY_NATIVE_LIMIT","outputs":[{"internalType":"uint256","name":"","type":"uint256"}],"stateMutability":"view","type":"function"},{"inputs":[],"name":"MAX_CONTENT_LENGTH","outputs":[{"internalType":"uint256","name":"","type":"uint256"}],"stateMutability":"view","type":"function"},{"inputs":[],"name":"MAX_SUMMARY_LENGTH","outputs":[{"internalType":"uint256","name":"","type":"uint256"}],"stateMutability":"view","type":"function"},{"inputs":[],"name":"MAX_TAGS","outputs":[{"internalType":"uint256","name":"","type":"uint256"}],"stateMutability":"view","type":"function"},{"inputs":[],"name":"MAX_TAG_LENGTH","outputs":[{"internalType":"uint256","name":"","type":"uint256"}],"stateMutability":"view","type":"function"},{"inputs":[],"name":"MAX_TITLE_LENGTH","outputs":[{"internalType":"uint256","name":"","type":"uint256"}],"stateMutability":"view","type":"function"},{"inputs":[],"name":"MEMBERSHIP_TOKENS","outputs":[{"internalType":"contract IMembershipTokens","name":"","type":"address"}],"stateMutability":"view","type":"function"},{"inputs":[],"name":"PLATFORM_TAKE_RATE","outputs":[{"internalType":"uint256","name":"","type":"uint256"}],"stateMutability":"view","type":"function"},{"inputs":[],"name":"PUBLISHER_CREDENTIALS","outputs":[{"internalType":"contract IPublisherCredentials","name":"","type":"address"}],"stateMutability":"view","type":"function"},{"inputs":[],"name":"PUBLISHING_FEE","outputs":[{"internalType":"uint256","name":"","type":"uint256"}],"stateMutability":"view","type":"function"},{"inputs":[],"name":"READER_LICENSE_AMM","outputs":[{"internalType":"contract IReaderLicenseAMM","name":"","type":"address"}],"stateMutability":"view","type":"function"},{"inputs":[],"name":"TREASURY","outputs":[{"internalType":"address","name":"","type":"address"}],"stateMutability":"view","type":"function"},{"inputs":[{"internalType":"address","name":"to","type":"address"},{"internalType":"uint256","name":"tokenId","type":"uint256"}],"name":"approve","outputs":[],"stateMutability":"nonpayable","type":"function"},{"inputs":[{"internalType":"uint256","name":"","type":"uint256"},{"internalType":"uint256","name":"","type":"uint256"}],"name":"articleNFTHolders","outputs":[{"internalType":"address","name":"","type":"address"}],"stateMutability":"view","type":"function"},{"inputs":[{"internalType":"uint256","name":"","type":"uint256"}],"name":"articles","outputs":[{"internalType":"uint256","name":"id","type":"uint256"},{"internalType":"string","name":"title","type":"string"},{"internalType":"string","name":"encryptedContent","type":"string"},{"internalType":"string","name":"summary","type":"string"},{"internalType":"address","name":"author","type":"address"},{"internalType":"string","name":"location","type":"string"},{"internalType":"string","name":"category","type":"string"},{"internalType":"uint256","name":"publishedAt","type":"uint256"},{"internalType":"uint256","name":"nftCount","type":"uint256"},{"internalType":"uint256","name":"nftPrice","type":"uint256"},{"internalType":"uint256","name":"journalistRetained","type":"uint256"},{"internalType":"uint256","name":"readerLicenseRatio","type":"uint256"},{"internalType":"enum EncryptedArticles.CreationSource","name":"creationSource","type":"uint8"},{"internalType":"uint256","name":"proposalId","type":"uint256"}],"stateMutability":"view","type":"function"},{"inputs":[{"internalType":"uint256","name":"","type":"uint256"},{"internalType":"uint256","name":"","type":"uint256"}],"name":"availableEditions","outputs":[{"internalType":"uint256","name":"","type":"uint256"}],"stateMutability":"view","type":"function"},{"inputs":[{"internalType":"address","name":"owner","type":"address"}],"name":"balanceOf","outputs":[{"internalType":"uint256","name":"","type":"uint256"}],"stateMutability":"view","type":"function"},{"inputs":[{"internalType":"address","name":"","type":"address"},{"internalType":"uint256","name":"","type":"uint256"}],"name":"dailyPublishCount","outputs":[{"internalType":"uint256","name":"","type":"uint256"}],"stateMutability":"view","type":"function"},{"inputs":[{"internalType":"uint256","name":"","type":"uint256"}],"name":"editionsSold","outputs":[{"internalType":"uint256","name":"","type":"uint256"}],"stateMutability":"view","type":"function"},{"inputs":[{"internalType":"uint256","name":"tokenId","type":"uint256"}],"name":"generateSVG","outputs":[{"internalType":"string","name":"","type":"string"}],"stateMutability":"view","type":"function"},{"inputs":[{"internalType":"uint256","name":"tokenId","type":"uint256"}],"name":"getApproved","outputs":[{"internalType":"address","name":"","type":"address"}],"stateMutability":"view","type":"function"},{"inputs":[{"internalType":"address","name":"_author","type":"address"}],"name":"getArticlesByAuthor","outputs":[{"internalType":"uint256[]","name":"","type":"uint256[]"}],"stateMutability":"view","type":"function"},{"inputs":[{"internalType":"uint256","name":"_articleId","type":"uint256"}],"name":"getAvailableEditions","outputs":[{"internalType":"uint256[]","name":"","type":"uint256[]"}],"stateMutability":"view","type":"function"},{"inputs":[{"internalType":"uint256","name":"tokenId","type":"uint256"}],"name":"getEditionNumber","outputs":[{"internalType":"uint256","name":"","type":"uint256"}],"stateMutability":"view","type":"function"},{"inputs":[{"internalType":"uint256","name":"_articleId","type":"uint256"}],"name":"getNFTHolders","outputs":[{"internalType":"address[]","name":"","type":"address[]"}],"stateMutability":"view","type":"function"},{"inputs":[],"name":"getTotalArticles","outputs":[{"internalType":"uint256","name":"","type":"uint256"}],"stateMutability":"view","type":"function"},{"inputs":[{"internalType":"uint256","name":"","type":"uint256"},{"internalType":"address","name":"","type":"address"}],"name":"holderNFTCount","outputs":[{"internalType":"uint256","name":"","type":"uint256"}],"stateMutability":"view","type":"function"},{"inputs":[{"internalType":"address","name":"owner","type":"address"},{"internalType":"address","name":"operator","type":"address"}],"name":"isApprovedForAll","outputs":[{"internalType":"bool","name":"","type":"bool"}],"stateMutability":"view","type":"function"},{"inputs":[{"internalType":"uint256","name":"_articleId","type":"uint256"}],"name":"mintNFTEdition","outputs":[],"stateMutability":"payable","type":"function"},{"inputs":[],"name":"name","outputs":[{"internalType":"string","name":"","type":"string"}],"stateMutability":"view","type":"function"},{"inputs":[],"name":"owner","outputs":[{"internalType":"address","name":"","type":"address"}],"stateMutability":"view","type":"function"},{"inputs":[{"internalType":"uint256","name":"tokenId","type":"uint256"}],"name":"ownerOf","outputs":[{"internalType":"address","name":"","type":"address"}],"stateMutability":"view","type":"function"},{"inputs":[{"internalType":"string","name":"_title","type":"string"},{"internalType":"string","name":"_encryptedContent","type":"string"},{"internalType":"string","name":"_summary","type":"string"},{"internalType":"string","name":"_location","type":"string"},{"internalType":"string","name":"_category","type":"string"},{"internalType":"string[]","name":"_tags","type":"string[]"},{"internalType":"uint256","name":"_nftCount","type":"uint256"},{"internalType":"uint256","name":"_nftPrice","type":"uint256"},{"internalType":"uint256","name":"_journalistRetained","type":"uint256"},{"internalType":"uint256","name":"_readerLicenseRatio","type":"uint256"}],"name":"publishArticle","outputs":[],"stateMutability":"payable","type":"function"},{"inputs":[],"name":"renounceOwnership","outputs":[],"stateMutability":"nonpayable","type":"function"},{"inputs":[{"internalType":"uint256","name":"tokenId","type":"uint256"},{"internalType":"uint256","name":"salePrice","type":"uint256"}],"name":"royaltyInfo","outputs":[{"internalType":"address","name":"","type":"address"},{"internalType":"uint256","name":"","type":"uint256"}],"stateMutability":"view","type":"function"},{"inputs":[{"internalType":"address","name":"from","type":"address"},{"internalType":"address","name":"to","type":"address"},{"internalType":"uint256","name":"tokenId","type":"uint256"}],"name":"safeTransferFrom","outputs":[],"stateMutability":"nonpayable","type":"function"},{"inputs":[{"internalType":"address","name":"from","type":"address"},{"internalType":"address","name":"to","type":"address"},{"internalType":"uint256","name":"tokenId","type":"uint256"},{"internalType":"bytes","name":"data","type":"bytes"}],"name":"safeTransferFrom","outputs":[],"stateMutability":"nonpayable","type":"function"},{"inputs":[{"internalType":"address","name":"operator","type":"address"},{"internalType":"bool","name":"approved","type":"bool"}],"name":"setApprovalForAll","outputs":[],"stateMutability":"nonpayable","type":"function"},{"inputs":[{"internalType":"address","name":"_ammAddress","type":"address"}],"name":"setReaderLicenseAMM","outputs":[],"stateMutability":"nonpayable","type":"function"},{"inputs":[{"internalType":"bytes4","name":"interfaceId","type":"bytes4"}],"name":"supportsInterface","outputs":[{"internalType":"bool","name":"","type":"bool"}],"stateMutability":"view","type":"function"},{"inputs":[],"name":"symbol","outputs":[{"internalType":"string","name":"","type":"string"}],"stateMutability":"view","type":"function"},{"inputs":[{"internalType":"uint256","name":"","type":"uint256"}],"name":"tokenToArticle","outputs":[{"internalType":"uint256","name":"","type":"uint256"}],"stateMutability":"view","type":"function"},{"inputs":[{"internalType":"uint256","name":"","type":"uint256"}],"name":"tokenToEdition","outputs":[{"internalType":"uint256","name":"","type":"uint256"}],"stateMutability":"view","type":"function"},{"inputs":[{"internalType":"uint256","name":"tokenId","type":"uint256"}],"name":"tokenURI","outputs":[{"internalType":"string","name":"","type":"string"}],"stateMutability":"view","type":"function"},{"inputs":[{"internalType":"address","name":"from","type":"address"},{"internalType":"address","name":"to","type":"address"},{"internalType":"uint256","name":"tokenId","type":"uint256"}],"name":"transferFrom","outputs":[],"stateMutability":"nonpayable","type":"function"},{"inputs":[{"internalType":"address","name":"newOwner","type":"address"}],"name":"transferOwnership","outputs":[],"stateMutability":"nonpayable","type":"function"}],"evm":{"bytecode":{"linkReferences":{},"object":"60c0346200043157601f199062004a12906001600160401b03601f38849003818101861684019083821185831017620004365780859160409788948552833981010312620004315762000052836200046c565b906200006260208095016200046c565b906200006d6200044c565b968588527f496d6d757461626c655479706520456e637279707465642041727469636c657386890152620000a06200044c565b91600498898452634954454160e01b8885015280518781116200034657600254916001928381811c9116801562000426575b8b8210146200032657908185849311620003cf575b508a9085831160011462000367576000926200035b575b5050600019600383901b1c191690821b176002555b835191878311620003465760039485548381811c911680156200033b575b8b8210146200032657828111620002db575b50899184116001146200027657839450908392916000946200026a575b50501b9160001990841b1c19161790555b3315620002535760098054336001600160a01b0319821681179092556001600160a01b03938492909183167f8be0079c531659141344cd1fd0a4f28419497f9722a3daafe3b4186f6b6457e0600080a3166080521660a05230156200023c57825190818401908111828210176200022757836101ea94955052308152015260f560a11b30176000555161459090816200048282396080518181816105160152611e62015260a051818181610d33015261153a0152f35b604185634e487b7160e01b6000525260246000fd5b8251635b6cc80560e11b8152600081860152602490fd5b8451631e4fbdf760e01b8152600081880152602490fd5b01519250388062000160565b919383169185600052838a6000209360005b8c88838310620002c35750505010620002aa575b505050811b01905562000171565b015160001983861b60f8161c191690553880806200029c565b86860151885590960195948501948793500162000288565b866000528a6000208380870160051c8201928d88106200031c575b0160051c019084905b8281106200030f57505062000143565b60008155018490620002ff565b92508192620002f6565b60228d634e487b7160e01b6000525260246000fd5b90607f169062000131565b60418b634e487b7160e01b6000525260246000fd5b015190503880620000fe565b90868594169160026000528c600020928d6000905b828210620003b757505084116200039d575b505050811b0160025562000113565b015160001960f88460031b161c191690553880806200038e565b83850151865588979095019493840193018e6200037c565b90915060026000528a6000208580850160051c8201928d86106200041c575b918691869594930160051c01915b8281106200040c575050620000e7565b60008155859450869101620003fc565b92508192620003ee565b90607f1690620000d2565b600080fd5b634e487b7160e01b600052604160045260246000fd5b60408051919082016001600160401b038111838210176200043657604052565b51906001600160a01b0382168203620004315756fe608080604052600436101561001357600080fd5b600090813560e01c90816301ffc9a71461302a5750806302c839021461300e57806305b746b514612ff157806306fdde0314612f4b578063081812fc14612f0e578063095ea7b314612e2b5780630ebf1d3d14612e0d57806311d0d53814612dcd5780631521ba3f14612cc9578063160953c314611d3657806323b872dd14611d1e57806324aa774a146118975780632683494d14611cd35780632a55205a14611aff5780632d2c556514611ad05780632ef9a16014611ab45780633bc3a45414611a9857806342842e0e14611a705780634baf079c14611a2d578063544b5e6114611a10578063602787ed146119e65780636352211e146119b55780636dcee4ca146119955780636ef871211461195157806370a08231146118f9578063715018a61461189c5780638368a0c2146118975780638ba1393d1461186d5780638da5cb5b1461184457806395d89b4114611773578063968b56351461170257806398c6e821146116c25780639fb53fcb1461160c578063a22cb46514611569578063a7d0f2fb14611524578063b27dde6a146114fa578063b88d4fde14611493578063bdeb0fb114610cc5578063c87b56dd14610545578063cb541ef214610500578063cce67226146104e4578063e91dab621461049d578063e985e9c514610449578063edcfafe6146102f8578063ef6fe9b7146102cf578063f2fde38b146102445763f50496f41461022657600080fd5b34610241578060031936011261024157602060405160328152f35b80fd5b50346102415760203660031901126102415761025e613113565b610266613426565b6001600160a01b039081169081156102b657600954826001600160601b0360a01b821617600955167f8be0079c531659141344cd1fd0a4f28419497f9722a3daafe3b4186f6b6457e0600080a380f35b604051631e4fbdf760e01b815260048101849052602490fd5b5034610241578060031936011261024157600a546040516001600160a01b039091168152602090f35b5034610241576020366003190112610241576004358152600d6020526040812080549061032760018201613380565b61033360028301613380565b9161034060038201613380565b60048201546001600160a01b0316939061035c60058401613380565b9461036960068501613380565b95600885015496600986015491600a87015493600b88015495600c89015497600d8a015460ff1699600e01549a6040519d8e528d6101c090816020820152016103b1916130ee565b8d810360408f01526103c2916130ee565b8c810360608e01526103d3916130ee565b9060808c01528a810360a08c01526103ea916130ee565b89810360c08b01526103fb916130ee565b9660e08901526101008801526101208701526101408601526101608501526002811015610435578394506101808401526101a08301520390f35b634e487b7160e01b85526021600452602485fd5b503461024157604036600319011261024157610463613113565b604061046d61312e565b9260018060a01b0380931681526007602052209116600052602052602060ff604060002054166040519015158152f35b5034610241576020366003190112610241576040602091600435808252600484526104d460018060a01b03848420541615156137fd565b8152600f83522054604051908152f35b50346102415780600319360112610241576020604051600a8152f35b50346102415780600319360112610241576040517f00000000000000000000000000000000000000000000000000000000000000006001600160a01b03168152602090f35b5034610241576020366003190112610241576004803582526020526040812054610579906001600160a01b031615156137fd565b6004358152600e602052604081205490600f6020526040812054918152600d60205260408120604051906105ac826131c3565b805482526105bc60018201613380565b60208301526105cd60028201613380565b60408301526105de60038201613380565b606083015260048101546001600160a01b0316608083015261060260058201613380565b60a083015261061360068201613380565b60c0830152600781018054610627816132d7565b916106356040519384613246565b81835285526020808620869184015b838310610ca8575050505090600e9160e084015260088101546101008401526009810154610120840152600a810154610140840152600b810154610160840152600c8101546101808401526106a460ff600d830154166101a085016137b7565b01546101c08201526020810151926106bb8161423b565b9260608301516106dd6106cf600435613840565b6106d761437e565b906143dd565b9160a08501519060c08601519460018060a01b036080880151169160405161070481613210565b601081526f181899199a1a9b1b9c1cb0b131b232b360811b60208201526040519361072e8561322b565b602a85526040366020870137845115610c945760306020860153845160011015610c945760786021860153825b60148110610ba157505050610b9d610b366107e76106cf6101b98e8e8e8e8e8e8e8e6107868f61423b565b9161079561012088015161423b565b946107b26101806107aa6101008b015161423b565b99015161423b565b98602a6040519e8f809d607b60f81b602083015268113730b6b2911d101160b91b6021830152602081519485930191016130cb565b8b016b202d2045646974696f6e202360a01b602a8201526108128251809360206036850191016130cb565b019461088b60f21b958660368201526f113232b9b1b934b83a34b7b7111d101160811b603882015261084e8251809360206048850191016130cb565b018560488201527f22696d616765223a2022646174613a696d6167652f7376672b786d6c3b626173604a82015263194d8d0b60e21b606a82015261089c825180936020606e850191016130cb565b0193606e8501526e2261747472696275746573223a205b60881b60708501527f7b2274726169745f74797065223a20224c6f636174696f6e222c202276616c75607f8501526432911d101160d91b9384609f82015261090582518093602060a4850191016130cb565b019462089f4b60ea1b9586948560a48301527f7b2274726169745f74797065223a202243617465676f7279222c202276616c7560a783015260c782015261095682518093602060cc850191016130cb565b018360cc8201527f7b2274726169745f74797065223a2022417574686f72222c202276616c75652260cf820152621d101160e91b60ef8201526109a382518093602060f2850191016130cb565b01908260f28301527f7b2274726169745f74797065223a202245646974696f6e204e756d626572222c60f58301526a10113b30b63ab2911d101160a91b91826101158201526109fd825180936020610120850191016130cb565b0190826101208301527f7b2274726169745f74797065223a2022546f74616c2045646974696f6e73222c610123830152610143820152825190610a4a8261014e95602087850191016130cb565b01918201527f7b2274726169745f74797065223a20225075626c69636174696f6e20446174656101518201526c111610113b30b63ab2911d101160991b610171820152825190610aa48261017e95602087850191016130cb565b01918201527f7b2274726169745f74797065223a2022526561646572204c6963656e73657320610181820152732832b91027232a111610113b30b63ab2911d101160611b6101a1820152815190610b05826101b594602086850191016130cb565b019061227d60f01b90820152605d60f81b6101b7820152607d60f81b6101b882015203610199810184520182613246565b610b89603d60405180937f646174613a6170706c69636174696f6e2f6a736f6e3b6261736536342c0000006020830152610b7981518092602086860191016130cb565b810103601d810184520182613246565b6040519182916020835260208301906130ee565b0390f35b600c81018111610c80576020600c82011015610c6c576001600160f81b0319610bd6600c830184901a60041c600f16856144d5565b5116818060011b0460021482151715610c58578160011b600201600211610c5857841a610c098260011b600201886144d5565b536001600160f81b0319610c26600c830184901a600f16856144d5565b51168160011b600301600311610c585790610c5391851a610c4d8260011b600301896144d5565b5361377e565b61075b565b634e487b7160e01b85526011600452602485fd5b634e487b7160e01b84526032600452602484fd5b634e487b7160e01b84526011600452602484fd5b634e487b7160e01b83526032600452602483fd5b600160208192610cb785613380565b815201920192019190610644565b506020366003190112610241576004358152600d60205260408120805415611455576004358252601260205260408220338352602052604082205461140657600435825260136020526040822054156113b3576040516370a0823160e01b81523360048201526020816024817f00000000000000000000000000000000000000000000000000000000000000006001600160a01b03165afa9081156113a8578391611376575b501561133157600a8101805491670de0b6b3a764000083018311610c8057670de0b6b3a7640000830134106112f55760043584526014602052604084205460405160208101914283524460408301523360601b6060830152600435607483015260948201526094815260c081018181106001600160401b038211176112e157604052519020916004358552601360205260408520549283156112cd5760043586526013602052610e208482066040882061315a565b90549060031b1c9360043587526013602052604087208054806000198101116112b95791610e5a610e7692610e8f9594600019019061315a565b90549060031b1c926004358a526013602052066040892061315a565b90919082549060031b91821b91600019901b1916179055565b6004358552601360205260408520805480156112a5576000190190610eb4828261315a565b8154906000199060031b1b1916905555610ecf600c5461377e565b9384600c55331561128c57848652600460205260408620546001600160a01b031680151590869082611257575b33895260056020526040892060018154019055818952600460205260408920336001600160601b0360a01b82541617905533907fddf252ad1be2c89b69c2b068fc378daa952ba7f163c4a11628f55a4df523b3ef8a80a461123e57848652600e6020526004356040872055600f60205283604087205560043586526012602052604086203387526020526040862054156111dc575b600435865260126020526040862033875260205260408620610fb3815461377e565b90556004358652601460205260408620610fcd815461377e565b9055815460be810281810460be14821517156111c857878080610ff661271082950480966137f0565b60048901546001600160a01b03168282156111bf575bf1156111b457670de0b6b3a764000081018091116111a0578680808093818115611197575b739402f9f20b4a27b55b1cc6cf015d98f764814fb290f11561118c57600a5486906001600160a01b0316806110fe575b5090670de0b6b3a7640000810134116110bc575b5050600c9054910154906040519283526020830152604082015233917f8fc9383161350d0d960dd74934d021dba1d6aad105ce6a90f55c4b99d853ae4c606060043593a480f35b81806110d3670de0b6b3a7640000829401346137f0565b8181156110f5575b3390f1156110ea578438611075565b6040513d86823e3d90fd5b506108fc6110db565b600c85015490803b156111885760848392604051948593849263df81a82360e01b8452600435600485015233602485015260448401528a60648401525af1801561117d5761114e575b8690611061565b6001600160401b038197929711611169576040529438611147565b634e487b7160e01b82526041600452602482fd5b6040513d89823e3d90fd5b8280fd5b6040513d87823e3d90fd5b506108fc611031565b634e487b7160e01b87526011600452602487fd5b6040513d88823e3d90fd5b506108fc61100c565b634e487b7160e01b88526011600452602488fd5b6004358652601160205260408620805490600160401b82101561122a57906112099160018201815561315a565b81546001600160a01b0360039290921b91821b19163390911b179055610f91565b634e487b7160e01b88526041600452602488fd5b6040516339e3563760e11b815260048101879052602490fd5b600082815260066020526040902080546001600160a01b03191690558089526005602052604089208054600019019055610efc565b604051633250574960e11b815260048101879052602490fd5b634e487b7160e01b87526031600452602487fd5b634e487b7160e01b89526011600452602489fd5b634e487b7160e01b86526012600452602486fd5b634e487b7160e01b87526041600452602487fd5b60405162461bcd60e51b8152602060048201526014602482015273125b9cdd59999a58da595b9d081c185e5b595b9d60621b6044820152606490fd5b60405162461bcd60e51b815260206004820152601960248201527f4d656d6265727368697020746f6b656e207265717569726564000000000000006044820152606490fd5b90506020813d6020116113a0575b8161139160209383613246565b81010312611188575138610d6b565b3d9150611384565b6040513d85823e3d90fd5b60405162461bcd60e51b815260206004820152602560248201527f4e6f2065646974696f6e7320617661696c61626c6520666f72207075626c69636044820152642073616c6560d81b6064820152608490fd5b60405162461bcd60e51b815260206004820152602160248201527f416c7265616479206f776e73204e465420666f7220746869732061727469636c6044820152606560f81b6064820152608490fd5b60405162461bcd60e51b8152602060048201526016602482015275105c9d1a58db1948191bd95cc81b9bdd08195e1a5cdd60521b6044820152606490fd5b5034610241576080366003190112610241576114ad613113565b6114b561312e565b606435916001600160401b0383116114f657366023840112156114f6576114e96114f3933690602481600401359101613282565b91604435916135f4565b80f35b8380fd5b50346102415760203660031901126102415760406020916004358152600e83522054604051908152f35b50346102415780600319360112610241576040517f00000000000000000000000000000000000000000000000000000000000000006001600160a01b03168152602090f35b503461024157604036600319011261024157611583613113565b60243590811515809203611188576001600160a01b03169081156115f3573383526007602052604083208284526020526040832060ff1981541660ff83161790556040519081527f17307eab39ab6107e8899845ad3d59bd9653f200f220920489ca2b5937696c3160203392a380f35b604051630b61174360e31b815260048101839052602490fd5b5034610241576020806003193601126116be576004358252601181526040822060405192838383549182815201908193835284832090835b8181106116a1575050508461165a910385613246565b60405193838594850191818652518092526040850193925b82811061168157505050500390f35b83516001600160a01b031685528695509381019392810192600101611672565b82546001600160a01b031684529286019260019283019201611644565b5080fd5b5034610241576020366003190112610241576116dc613113565b6116e4613426565b60018060a01b03166001600160601b0360a01b600a541617600a5580f35b5034610241576020806003193601126116be5760043582526013815260408220916040518092808554928381520194835280832092905b82821061175c57610b9d8561175081890382613246565b60405191829182613188565b835486529485019460019384019390910190611739565b5034610241578060031936011261024157604051908060035461179581613346565b8085529160019180831690811561181a57506001146117bf575b610b9d85610b8981870382613246565b9250600383527fc2575a0e9e593c00f959f8c92f12db2869c3395a3b0502d05e2516446f71f85b5b828410611802575050508101602001610b8982610b9d6117af565b805460208587018101919091529093019281016117e7565b869550610b9d96935060209250610b8994915060ff191682840152151560051b82010192936117af565b50346102415780600319360112610241576009546040516001600160a01b039091168152602090f35b50346102415760203660031901126102415760406020916004358152601483522054604051908152f35b613323565b50346102415780600319360112610241576118b5613426565b600980546001600160a01b0319811690915581906001600160a01b03167f8be0079c531659141344cd1fd0a4f28419497f9722a3daafe3b4186f6b6457e08280a380f35b5034610241576020366003190112610241576001600160a01b0361191b613113565b168015611938578160409160209352600583522054604051908152f35b6040516322718ad960e21b815260048101839052602490fd5b503461024157604036600319011261024157604060209161197061312e565b6004358252601284528282206001600160a01b03909116825283522054604051908152f35b503461024157602036600319011261024157610b9d610b89600435613840565b50346102415760203660031901126102415760206119d4600435613743565b6040516001600160a01b039091168152f35b50346102415760203660031901126102415760406020916004358152600f83522054604051908152f35b503461024157806003193601126102415760206040516101f48152f35b5034610241576040366003190112610241576020906040906001600160a01b03611a55613113565b16815260108352818120602435825283522054604051908152f35b5034610241576114f3611a82366132ee565b9060405192611a90846131f5565b8584526135f4565b5034610241578060031936011261024157602060405160038152f35b5034610241578060031936011261024157602060405160c88152f35b50346102415780600319360112610241576020604051739402f9f20b4a27b55b1cc6cf015d98f764814fb28152f35b503461024157611b0e36613144565b91908152602091600e835260408220548252600d83526040822090604051611b35816131c3565b82548152600192611b47848201613380565b86830152611b5760028201613380565b6040830152611b6860038201613380565b606083015260048101546001600160a01b039081166080840190815290969094611b9460058401613380565b60a0850152611ba560068401613380565b60c085015260078301805490611bba826132d7565b93611bc86040519586613246565b828552808501918a52808a208a925b848410611cb8575050505050506101c091600e9160e085015260088101546101008501526009810154610120850152600a810154610140850152600b810154610160850152600c810154610180850152611c3c60ff600d830154166101a086016137b7565b01549101526101ea90818102918183041490151715611ca457612710900491606283029280840460621490151715611c9057505160408051939091166001600160a01b031683526064909104602083015290f35b634e487b7160e01b81526011600452602490fd5b634e487b7160e01b83526011600452602483fd5b85838192611cc585613380565b815201920193019290611bd7565b503461024157611ce236613144565b91908152601160205260408120908154831015610241576020611d05848461315a565b905460405160039290921b1c6001600160a01b03168152f35b5034610241576114f3611d30366132ee565b91613452565b50610140366003190112610241576004356001600160401b0381116116be57611d639036906004016132b9565b906024356001600160401b0381116116be57611d839036906004016132b9565b906044356001600160401b0381116116be57611da39036906004016132b9565b926064356001600160401b03811161118857611dc39036906004016132b9565b936084356001600160401b0381116114f657611de39036906004016132b9565b9460a435946001600160401b038611612cc55736602387011215612cc557856004013595611e10876132d7565b96611e1e6040519889613246565b80885260051b810160240160208801368211612cc15760248301905b828210612c8e5750506040516370a0823160e01b8152336004820152915060209050816024817f00000000000000000000000000000000000000000000000000000000000000006001600160a01b03165afa9081156111b4578691612c58575b5015612c13573385526010602052604085206201518042048652602052600360408620541015612bc257670de0b6b3a76400003410612b7d5783518015159081612b71575b5015612b355780518015159081612b28575b5015612aea5782518015159081612add575b5015612a9f5760c435151580612a91575b15612a585760e43515612a1f5760c43561010435116129cf57610124351515806129c1575b1561298457600a86511161294f57845b8651811015611fa7576032611f5e82896137a3565b515111611f7357611f6e9061377e565b611f49565b60405162461bcd60e51b815260206004820152600c60248201526b54616720746f6f206c6f6e6760a01b6044820152606490fd5b508587611fb5600b5461377e565b9485600b5560405193611fc7856131c3565b868552876020860152604085015260608401523360808401528360a084015260c083015260e08201524261010082015260c43561012082015260e4356101408201526101043561016082015261012435610180820152846101a0820152846101c0820152828552600d60205260408520908051825560208101518051906001600160401b03821161122a5781906120616001860154613346565b601f811161291c575b50602090601f83116001146128ad5789926128a2575b50508160011b916000199060031b1c19161760018301555b60408101518051906001600160401b03821161122a5781906120bd6002860154613346565b601f811161286f575b50602090601f83116001146128005789926127f5575b50508160011b916000199060031b1c19161760028301555b60608101518051906001600160401b03821161122a5781906121196003860154613346565b601f81116127c2575b50602090601f8311600114612753578992612748575b50508160011b916000199060031b1c19161760038301555b6004820160018060a01b036080830151166001600160601b0360a01b82541617905560a08101518051906001600160401b03821161122a5781906121976005860154613346565b601f8111612715575b50602090601f83116001146126a657899261269b575b50508160011b916000199060031b1c19161760058301555b60c08101518051906001600160401b03821161122a5781906121f36006860154613346565b601f8111612668575b50602090601f83116001146125f95789926125ee575b50508160011b916000199060031b1c19161760068301555b60e0810151805190600160401b821161122a57600784015482600786015580831061257a575b506020016007840188526020882088915b83831061244a575050505061010081015160088301556101208101516009830155610140810151600a830155610160810151600b830155610180810151600c830155600d82016101a0820151600281101561243657916101c091600e9360ff8019835416911617905501519101556122de6101043560c4356137f0565b5060016101043501806101043511610c58575b60c4358111156123f95750338452601060205260408420620151804204855260205260408420612321815461377e565b905583808080670de0b6b3a7640000739402f9f20b4a27b55b1cc6cf015d98f764814fb282f1156113a857670de0b6b3a764000034116123be575b6123a47f9a83921aa1958993687dbb52ee90c6d28584e48a022470265aa4d743a24c9ba791612396604051956080875260808701906130ee565b9085820360208701526130ee565b9260c435604082015260e43560608201528033940390a380f35b670de0b6b3a763ffff193401348111610c585784808080938181156123f0575b3390f161235c576040513d85823e3d90fd5b506108fc6123de565b828552601360205260408520805490600160401b8210156112e15782610e768361242c936001612431979601815561315a565b61377e565b6122f1565b634e487b7160e01b88526021600452602488fd5b80518051906001600160401b038211612566578b6124688554613346565b601f811161252b575b50506020908c601f84116001146124be579280602093600196938796926124b3575b5050600019600383901b1c191690841b1785555b01920192019190612261565b015190508f80612493565b85905260208d2091908d5b601f1985168110612513575083602093600196938796938794601f198116106124fa575b505050811b0185556124a7565b015160001960f88460031b161c191690558f80806124ed565b919260206001819286850151815501940192016124c9565b60208287612555945220601f850160051c8101916020861061255c575b601f0160051c01906137d9565b8b8d612471565b9091508190612548565b634e487b7160e01b8c52604160045260248cfd5b60078501895260208920908382015b8183018110612599575050612250565b808b6125a760019354613346565b806125b5575b505001612589565b601f811184146125ca575081555b8b8d6125ad565b8282526125e5601f60208420920160051c82018583016137d9565b818355556125c3565b015190508880612212565b9250600685018952602089209089935b601f198416851061264d576001945083601f19811610612634575b505050811b01600683015561222a565b015160001960f88460031b161c19169055888080612624565b81810151835560209485019460019093019290910190612609565b61269590600687018b5260208b20601f850160051c8101916020861061255c57601f0160051c01906137d9565b896121fc565b0151905088806121b6565b9250600585018952602089209089935b601f19841685106126fa576001945083601f198116106126e1575b505050811b0160058301556121ce565b015160001960f88460031b161c191690558880806126d1565b818101518355602094850194600190930192909101906126b6565b61274290600587018b5260208b20601f850160051c8101916020861061255c57601f0160051c01906137d9565b896121a0565b015190508880612138565b9250600385018952602089209089935b601f19841685106127a7576001945083601f1981161061278e575b505050811b016003830155612150565b015160001960f88460031b161c1916905588808061277e565b81810151835560209485019460019093019290910190612763565b6127ef90600387018b5260208b20601f850160051c8101916020861061255c57601f0160051c01906137d9565b89612122565b0151905088806120dc565b9250600285018952602089209089935b601f1984168510612854576001945083601f1981161061283b575b505050811b0160028301556120f4565b015160001960f88460031b161c1916905588808061282b565b81810151835560209485019460019093019290910190612810565b61289c90600287018b5260208b20601f850160051c8101916020861061255c57601f0160051c01906137d9565b896120c6565b015190508880612080565b9250600185018952602089209089935b601f1984168510612901576001945083601f198116106128e8575b505050811b016001830155612098565b015160001960f88460031b161c191690558880806128d8565b818101518355602094850194600190930192909101906128bd565b61294990600187018b5260208b20601f850160051c8101916020861061255c57601f0160051c01906137d9565b8961206a565b60405162461bcd60e51b815260206004820152600d60248201526c546f6f206d616e79207461677360981b6044820152606490fd5b60405162461bcd60e51b8152602060048201526015602482015274496e76616c6964206c6963656e736520726174696f60581b6044820152606490fd5b506064610124351115611f39565b60405162461bcd60e51b815260206004820152602260248201527f43616e6e6f742072657461696e206d6f7265207468616e20746f74616c204e46604482015261547360f01b6064820152608490fd5b60405162461bcd60e51b8152602060048201526011602482015270496e76616c6964204e465420707269636560781b6044820152606490fd5b60405162461bcd60e51b8152602060048201526011602482015270125b9d985b1a59081391950818dbdd5b9d607a1b6044820152606490fd5b5061271060c4351115611f14565b60405162461bcd60e51b8152602060048201526016602482015275092dcecc2d8d2c840e6eadadac2e4f240d8cadccee8d60531b6044820152606490fd5b6101f49150111538611f03565b60405162461bcd60e51b8152602060048201526016602482015275092dcecc2d8d2c840c6dedce8cadce840d8cadccee8d60531b6044820152606490fd5b6161a89150111538611ef1565b60405162461bcd60e51b8152602060048201526014602482015273092dcecc2d8d2c840e8d2e8d8ca40d8cadccee8d60631b6044820152606490fd5b60c89150111538611edf565b60405162461bcd60e51b815260206004820152601b60248201527f496e73756666696369656e74207075626c697368696e672066656500000000006044820152606490fd5b60405162461bcd60e51b815260206004820152602360248201527f4461696c79206e61746976652061727469636c65206c696d697420657863656560448201526219195960ea1b6064820152608490fd5b60405162461bcd60e51b815260206004820152601e60248201527f5075626c69736865722063726564656e7469616c7320726571756972656400006044820152606490fd5b90506020813d602011612c86575b81612c7360209383613246565b81010312612c82575138611e9a565b8580fd5b3d9150612c66565b81356001600160401b038111612cbd57602091612cb28392602436918901016132b9565b815201910190611e3a565b8980fd5b8780fd5b8480fd5b5034610241576020908160031936011261024157612ce5613113565b600b549192906001600160a01b03908116908460015b85811115612d925750612d0d866132d7565b95612d1b6040519788613246565b808752612d2a601f19916132d7565b013685880137809360015b86811115612d4b5760405180610b9d8a82613188565b808352600d8252848460046040862001541614612d71575b612d6c9061377e565b612d35565b94612d8a8187612d84612d6c948c6137a3565b5261377e565b959050612d63565b808252600d8552838360046040852001541614612db8575b612db39061377e565b612cfb565b95612dc5612db39161377e565b969050612daa565b503461024157612ddc36613144565b91908152601360205260408120908154831015610241576020612dff848461315a565b90546040519160031b1c8152f35b50346102415780600319360112610241576020600b54604051908152f35b503461024157604036600319011261024157612e45613113565b602435612e5181613743565b33151580612efb575b80612ed0575b612eb8576001600160a01b039283169282918491167f8c5be1e5ebec7d5bd14f71427d1e84f3dd0314c0f7b2291e5b200ac8c7c3b9258680a4825260066020526040822080546001600160a01b031916909117905580f35b60405163a9fbf51f60e01b8152336004820152602490fd5b506001600160a01b038116845260076020908152604080862033875290915284205460ff1615612e60565b506001600160a01b038116331415612e5a565b503461024157602036600319011261024157602090600435612f2f81613743565b50815260068252604060018060a01b0391205416604051908152f35b50346102415780600319360112610241576040519080600254612f6d81613346565b8085529160019180831690811561181a5750600114612f9657610b9d85610b8981870382613246565b9250600283527f405787fa12a823e0f2b7631cc41b3ba8828b3321ca811111fa75cd3aa3bb5ace5b828410612fd9575050508101602001610b8982610b9d6117af565b80546020858701810191909152909301928101612fbe565b503461024157806003193601126102415760206040516161a88152f35b5034610241578060031936011261024157602060405160be8152f35b9050346116be5760203660031901126116be5760043563ffffffff60e01b81168091036111885760209250632483248360e11b811490811561306e575b5015158152f35b6380ac58cd60e01b8114915081156130ba575b811561308f575b5038613067565b63152a902d60e11b8114915081156130a9575b5038613088565b6301ffc9a760e01b149050386130a2565b635b5e139f60e01b81149150613081565b60005b8381106130de5750506000910152565b81810151838201526020016130ce565b90602091613107815180928185528580860191016130cb565b601f01601f1916010190565b600435906001600160a01b038216820361312957565b600080fd5b602435906001600160a01b038216820361312957565b6040906003190112613129576004359060243590565b80548210156131725760005260206000200190600090565b634e487b7160e01b600052603260045260246000fd5b6020908160408183019282815285518094520193019160005b8281106131af575050505090565b8351855293810193928101926001016131a1565b6101e081019081106001600160401b038211176131df57604052565b634e487b7160e01b600052604160045260246000fd5b602081019081106001600160401b038211176131df57604052565b604081019081106001600160401b038211176131df57604052565b606081019081106001600160401b038211176131df57604052565b90601f801991011681019081106001600160401b038211176131df57604052565b6001600160401b0381116131df57601f01601f191660200190565b92919261328e82613267565b9161329c6040519384613246565b829481845281830111613129578281602093846000960137010152565b9080601f83011215613129578160206132d493359101613282565b90565b6001600160401b0381116131df5760051b60200190565b6060906003190112613129576001600160a01b0390600435828116810361312957916024359081168103613129579060443590565b34613129576000366003190112613129576020604051670de0b6b3a76400008152f35b90600182811c92168015613376575b602083101461336057565b634e487b7160e01b600052602260045260246000fd5b91607f1691613355565b906040519182600082549261339484613346565b90818452600194858116908160001461340357506001146133c0575b50506133be92500383613246565b565b9093915060005260209081600020936000915b8183106133eb5750506133be935082010138806133b0565b855488840185015294850194879450918301916133d3565b9150506133be94506020925060ff191682840152151560051b82010138806133b0565b6009546001600160a01b0316330361343a57565b60405163118cdaa760e01b8152336004820152602490fd5b6001600160a01b0391821692909183156135db57600092828452826020956004875260409684888820541696879133151580613542575b509060047fddf252ad1be2c89b69c2b068fc378daa952ba7f163c4a11628f55a4df523b3ef928461350f575b858352600581528b8320805460010190558683525289812080546001600160a01b0319168517905580a416928383036134ee5750505050565b6064945051926364283d7b60e01b8452600484015260248301526044820152fd5b600087815260066020526040902080546001600160a01b0319169055848352600581528b832080546000190190556134b5565b9193945091508061359a575b1561355e57859291879138613489565b87868861357b576024915190637e27328960e01b82526004820152fd5b905163177e802f60e01b81523360048201526024810191909152604490fd5b5033871480156135bf575b8061354e575085825260068152338589842054161461354e565b5086825260078152878220338352815260ff88832054166135a5565b604051633250574960e11b815260006004820152602490fd5b6135ff838383613452565b813b61360c575b50505050565b604051630a85bd0160e11b8082523360048301526001600160a01b0392831660248301526044820194909452608060648201526020959290911693909290839061365a9060848301906130ee565b039285816000958187895af1849181613703575b506136ce575050503d6000146136c6573d61368881613267565b906136966040519283613246565b81528091843d92013e5b805192836136c157604051633250574960e11b815260048101849052602490fd5b019050fd5b5060606136a0565b919450915063ffffffff60e01b16036136eb575038808080613606565b60249060405190633250574960e11b82526004820152fd5b9091508681813d831161373c575b61371b8183613246565b81010312612cc557516001600160e01b031981168103612cc557903861366e565b503d613711565b6000818152600460205260409020546001600160a01b0316908115613766575090565b60249060405190637e27328960e01b82526004820152fd5b600019811461378d5760010190565b634e487b7160e01b600052601160045260246000fd5b80518210156131725760209160051b010190565b60028210156137c35752565b634e487b7160e01b600052602160045260246000fd5b8181106137e4575050565b600081556001016137d9565b9190820391821161378d57565b1561380457565b60405162461bcd60e51b8152602060048201526014602482015273151bdad95b88191bd95cc81b9bdd08195e1a5cdd60621b6044820152606490fd5b60009080825260206004815260018060a01b0360409261386682858720541615156137fd565b8452600e825282842054600f835283852054908552600d83528385209184519061388f826131c3565b835482526001906138a1828601613380565b908684019182526138b460028701613380565b888501526138c460038701613380565b606085015260048601541660808401526138e060058601613380565b9760a084019889526138f460068701613380565b9260c085019384526007870180549061390c826132d7565b936139198c519586613246565b8285529081528981208a8086015b8484106141ec5750505050505060e08401526008850154916101009283850152600e6009870154966101208601978852600a810154610140870152600b810154610160870152600c81015461018087015261398d60ff600d830154166101a088016137b7565b01546101c085015287516139a081613210565b60078152660233242333939360cc1b888201529488516139bf81613210565b6007815288810196662342333231314560c81b88527f0bbe70f0a12a12e8cfbdf026edf53845c04b28179b2c9393d342fa6e2cd4ef2a84518c51613a1f8d8281613a1281830196878151938492016130cb565b8101038084520182613246565b5190200361416e57509088918a51613a3681613210565b60078152662331443746364560c81b848201529b5b5191613a569061423b565b9851613a619061423b565b93519451613a6e906144e6565b9651613a799061423b565b97838c519d8e809e8382017f3c7376672077696474683d2234303022206865696768743d223430302220786d905281017f6c6e733d22687474703a2f2f7777772e77332e6f72672f323030302f737667229052606001601f60f91b90528d606181017f3c646566733e3c6c696e6561724772616469656e742069643d2262672220783190526081017f3d223025222079313d223025222078323d2231303025222079323d223130302590528d61111f60f11b9060a101528d60a381017f3c73746f70206f66667365743d22302522207374796c653d2273746f702d636f905260c301633637b91d60e11b90528d81519260c7849201920191613b7a926130cb565b8c01721db9ba37b816b7b830b1b4ba3c9d189110179f60691b928360c783015260da82017f3c73746f70206f66667365743d223130302522207374796c653d2273746f702d905260fa82016531b7b637b91d60d11b9052519182898301613be0926130cb565b01958601527f3c2f6c696e6561724772616469656e743e3c2f646566733e00000000000000006101138601527f3c726563742077696474683d2234303022206865696768743d2234303022206661012b8601526f34b6361e913ab9361411b1339491179f60811b61014b8601527f3c7265637420783d2232302220793d223230222077696474683d22333630222061015b8601527f6865696768743d22333630222066696c6c3d2272676261283235352c3235352c61017b8601527f3235352c302e312922207374726f6b653d2272676261283235352c3235352c3261019b8601527f35352c302e332922207374726f6b652d77696474683d2232222f3e00000000006101bb8601527f3c7465787420783d223230302220793d2238302220746578742d616e63686f726101d68601527f3d226d6964646c65222066696c6c3d2277686974652220666f6e742d66616d696101f68601527f6c793d2273657269662220666f6e742d73697a653d2232342220666f6e742d776102168601526c32b4b3b43a1e913137b632111f60991b6102368601526c496d6d757461626c655479706560981b610243860152661e17ba32bc3a1f60c91b61025086018190527f3c7465787420783d223230302220793d223132302220746578742d616e63686f6102578701527f723d226d6964646c65222066696c6c3d2272676261283235352c3235352c323561027787018190527f352c302e39292220666f6e742d66616d696c793d2273657269662220666f6e746102978801526a16b9b4bd329e91189b111f60a91b6102b78801528251919990968a956102c2949293879391928492613e50908390898401908b016130cb565b01948501526102c984017f3c7465787420783d223230302220793d223134302220746578742d616e63686f9052876102e98501527f352c302e38292220666f6e742d66616d696c793d2273657269662220666f6e7492836103098601526a16b9b4bd329e91189a111f60a91b948561032982015261033481016845646974696f6e202360b81b905281519061033d928289858401920191613ef0926130cb565b01908101602f60f81b90528151918261033e97888401920191613f12926130cb565b019384015261034583017f3c7465787420783d223230302220793d223136302220746578742d616e63686f9052856103658401526103858301526103a58201528251906103b093828a868401920191613f6a926130cb565b01918201527f3c666f726569676e4f626a65637420783d2234302220793d22323030222077696103b78201527f6474683d2233323022206865696768743d22313230223e0000000000000000006103d78201527f3c64697620786d6c6e733d22687474703a2f2f7777772e77332e6f72672f31396103ee8201527f39392f7868746d6c22207374796c653d22636f6c6f723a77686974653b666f6e61040e8201527f742d66616d696c793a73657269663b666f6e742d73697a653a313270783b746561042e8201527f78742d616c69676e3a63656e7465723b776f72642d777261703a627265616b2d61044e820152663bb7b9321d911f60c91b61046e820152825161047593909190614084908390868401908a016130cb565b651e17b234bb1f60d11b9101928301526f1e17b337b932b4b3b727b13532b1ba1f60811b61047b8301527f3c7465787420783d223230302220793d223335302220746578742d616e63686f61048b8301526104ab8201527f352c302e37292220666f6e742d66616d696c793d2273657269662220666f6e746104cb8201526a16b9b4bd329e911899111f60a91b6104eb8201526841727469636c65202360b81b6104f682015281516104ff94909261414291849187850191016130cb565b01918201526105068101651e17b9bb339f60d11b9052036104ec8101825261050c016132d49082613246565b9a7f34a632fd0bf9a1be0abdd53ecd86b54702208e50bc91af37fd598ede80e4a47e84518c516141ad8d8281613a1281830196878151938492016130cb565b519020146141bf575b90899291613a4b565b9a509088918a516141cf81613210565b60078152662345384133313760c81b848201529b909192506141b6565b859182916141f985613380565b8152019201920191908b90613927565b9061421382613267565b6142206040519182613246565b8281528092614231601f1991613267565b0190602036910137565b806000917a184f03e93ff9f4daa797ed6e38ed64bf6a1f01000000000000000080821015614370575b506d04ee2d6d415b85acef810000000080831015614361575b50662386f26fc1000080831015614352575b506305f5e10080831015614343575b5061271080831015614334575b506064821015614324575b600a8092101561431a575b6001908160216142d2828701614209565b95860101905b6142e4575b5050505090565b600019019083906f181899199a1a9b1b9c1cb0b131b232b360811b8282061a835304918215614315579190826142d8565b6142dd565b91600101916142c1565b91906064600291049101916142b6565b600491939204910191386142ab565b6008919392049101913861429e565b6010919392049101913861428f565b6020919392049101913861427d565b604093508104915038614264565b6040519061438b8261322b565b604082527f6768696a6b6c6d6e6f707172737475767778797a303132333435363738392b2f6040837f4142434445464748494a4b4c4d4e4f505152535455565758595a61626364656660208201520152565b8051156144c057805160029182820180921161378d576003918290046001600160fe1b038116810361378d57614416908495941b614209565b936020850193829183518401906020820192835194600085525b83811061446f57505050505251068060011461445c57600214614451575090565b603d90600019015390565b50603d9081600019820153600119015390565b87600491999293949901918251600190603f9082828260121c16880101518453828282600c1c16880101518385015382828260061c1688010151888501531685010151898201530197929190614430565b50506040516144ce816131f5565b6000815290565b908151811015613172570160200190565b60648082511115614556576040519160a083018381106001600160401b038211176131df576040528183526080366020850137600090815b83811061452c575050505090565b614551906001600160f81b031961454382856144d5565b5116841a610c4d82886144d5565b61451e565b509056fea2646970667358221220eb4b8304333540a72d0f1cbc67fef4a174e3a2171a7ec83ac9fb9964cf16021564736f6c63430008140033","opcodes":"PUSH1 0xC0 CALLVALUE PUSH3 0x431 JUMPI PUSH1 0x1F NOT SWAP1 PUSH3 0x4A12 SWAP1 PUSH1 0x1 PUSH1 0x1 PUSH1 0x40 SHL SUB PUSH1 0x1F CODESIZE DUP5 SWAP1 SUB DUP2 DUP2 ADD DUP7 AND DUP5 ADD SWAP1 DUP4 DUP3 GT DUP6 DUP4 LT OR PUSH3 0x436 JUMPI DUP1 DUP6 SWAP2 PUSH1 0x40 SWAP8 DUP9 SWAP5 DUP6 MSTORE DUP4 CODECOPY DUP2 ADD SUB SLT PUSH3 0x431 JUMPI PUSH3 0x52 DUP4 PUSH3 0x46C JUMP JUMPDEST SWAP1 PUSH3 0x62 PUSH1 0x20 DUP1 SWAP6 ADD PUSH3 0x46C JUMP JUMPDEST SWAP1 PUSH3 0x6D PUSH3 0x44C JUMP JUMPDEST SWAP7 DUP6 DUP9 MSTORE PUSH32 0x496D6D757461626C655479706520456E637279707465642041727469636C6573 DUP7 DUP10 ADD MSTORE PUSH3 0xA0 PUSH3 0x44C JUMP JUMPDEST SWAP2 PUSH1 0x4 SWAP9 DUP10 DUP5 MSTORE PUSH4 0x49544541 PUSH1 0xE0 SHL DUP9 DUP6 ADD MSTORE DUP1 MLOAD DUP8 DUP2 GT PUSH3 0x346 JUMPI PUSH1 0x2 SLOAD SWAP2 PUSH1 0x1 SWAP3 DUP4 DUP2 DUP2 SHR SWAP2 AND DUP1 ISZERO PUSH3 0x426 JUMPI JUMPDEST DUP12 DUP3 LT EQ PUSH3 0x326 JUMPI SWAP1 DUP2 DUP6 DUP5 SWAP4 GT PUSH3 0x3CF JUMPI JUMPDEST POP DUP11 SWAP1 DUP6 DUP4 GT PUSH1 0x1 EQ PUSH3 0x367 JUMPI PUSH1 0x0 SWAP3 PUSH3 0x35B JUMPI JUMPDEST POP POP PUSH1 0x0 NOT PUSH1 0x3 DUP4 SWAP1 SHL SHR NOT AND SWAP1 DUP3 SHL OR PUSH1 0x2 SSTORE JUMPDEST DUP4 MLOAD SWAP2 DUP8 DUP4 GT PUSH3 0x346 JUMPI PUSH1 0x3 SWAP5 DUP6 SLOAD DUP4 DUP2 DUP2 SHR SWAP2 AND DUP1 ISZERO PUSH3 0x33B JUMPI JUMPDEST DUP12 DUP3 LT EQ PUSH3 0x326 JUMPI DUP3 DUP2 GT PUSH3 0x2DB JUMPI JUMPDEST POP DUP10 SWAP2 DUP5 GT PUSH1 0x1 EQ PUSH3 0x276 JUMPI DUP4 SWAP5 POP SWAP1 DUP4 SWAP3 SWAP2 PUSH1 0x0 SWAP5 PUSH3 0x26A JUMPI JUMPDEST POP POP SHL SWAP2 PUSH1 0x0 NOT SWAP1 DUP5 SHL SHR NOT AND OR SWAP1 SSTORE JUMPDEST CALLER ISZERO PUSH3 0x253 JUMPI PUSH1 0x9 DUP1 SLOAD CALLER PUSH1 0x1 PUSH1 0x1 PUSH1 0xA0 SHL SUB NOT DUP3 AND DUP2 OR SWAP1 SWAP3 SSTORE PUSH1 0x1 PUSH1 0x1 PUSH1 0xA0 SHL SUB SWAP4 DUP5 SWAP3 SWAP1 SWAP2 DUP4 AND PUSH32 0x8BE0079C531659141344CD1FD0A4F28419497F9722A3DAAFE3B4186F6B6457E0 PUSH1 0x0 DUP1 LOG3 AND PUSH1 0x80 MSTORE AND PUSH1 0xA0 MSTORE ADDRESS ISZERO PUSH3 0x23C JUMPI DUP3 MLOAD SWAP1 DUP2 DUP5 ADD SWAP1 DUP2 GT DUP3 DUP3 LT OR PUSH3 0x227 JUMPI DUP4 PUSH2 0x1EA SWAP5 SWAP6 POP MSTORE ADDRESS DUP2 MSTORE ADD MSTORE PUSH1 0xF5 PUSH1 0xA1 SHL ADDRESS OR PUSH1 0x0 SSTORE MLOAD PUSH2 0x4590 SWAP1 DUP2 PUSH3 0x482 DUP3 CODECOPY PUSH1 0x80 MLOAD DUP2 DUP2 DUP2 PUSH2 0x516 ADD MSTORE PUSH2 0x1E62 ADD MSTORE PUSH1 0xA0 MLOAD DUP2 DUP2 DUP2 PUSH2 0xD33 ADD MSTORE PUSH2 0x153A ADD MSTORE RETURN JUMPDEST PUSH1 0x41 DUP6 PUSH4 0x4E487B71 PUSH1 0xE0 SHL PUSH1 0x0 MSTORE MSTORE PUSH1 0x24 PUSH1 0x0 REVERT JUMPDEST DUP3 MLOAD PUSH4 0x5B6CC805 PUSH1 0xE1 SHL DUP2 MSTORE PUSH1 0x0 DUP2 DUP7 ADD MSTORE PUSH1 0x24 SWAP1 REVERT JUMPDEST DUP5 MLOAD PUSH4 0x1E4FBDF7 PUSH1 0xE0 SHL DUP2 MSTORE PUSH1 0x0 DUP2 DUP9 ADD MSTORE PUSH1 0x24 SWAP1 REVERT JUMPDEST ADD MLOAD SWAP3 POP CODESIZE DUP1 PUSH3 0x160 JUMP JUMPDEST SWAP2 SWAP4 DUP4 AND SWAP2 DUP6 PUSH1 0x0 MSTORE DUP4 DUP11 PUSH1 0x0 KECCAK256 SWAP4 PUSH1 0x0 JUMPDEST DUP13 DUP9 DUP4 DUP4 LT PUSH3 0x2C3 JUMPI POP POP POP LT PUSH3 0x2AA JUMPI JUMPDEST POP POP POP DUP2 SHL ADD SWAP1 SSTORE PUSH3 0x171 JUMP JUMPDEST ADD MLOAD PUSH1 0x0 NOT DUP4 DUP7 SHL PUSH1 0xF8 AND SHR NOT AND SWAP1 SSTORE CODESIZE DUP1 DUP1 PUSH3 0x29C JUMP JUMPDEST DUP7 DUP7 ADD MLOAD DUP9 SSTORE SWAP1 SWAP7 ADD SWAP6 SWAP5 DUP6 ADD SWAP5 DUP8 SWAP4 POP ADD PUSH3 0x288 JUMP JUMPDEST DUP7 PUSH1 0x0 MSTORE DUP11 PUSH1 0x0 KECCAK256 DUP4 DUP1 DUP8 ADD PUSH1 0x5 SHR DUP3 ADD SWAP3 DUP14 DUP9 LT PUSH3 0x31C JUMPI JUMPDEST ADD PUSH1 0x5 SHR ADD SWAP1 DUP5 SWAP1 JUMPDEST DUP3 DUP2 LT PUSH3 0x30F JUMPI POP POP PUSH3 0x143 JUMP JUMPDEST PUSH1 0x0 DUP2 SSTORE ADD DUP5 SWAP1 PUSH3 0x2FF JUMP JUMPDEST SWAP3 POP DUP2 SWAP3 PUSH3 0x2F6 JUMP JUMPDEST PUSH1 0x22 DUP14 PUSH4 0x4E487B71 PUSH1 0xE0 SHL PUSH1 0x0 MSTORE MSTORE PUSH1 0x24 PUSH1 0x0 REVERT JUMPDEST SWAP1 PUSH1 0x7F AND SWAP1 PUSH3 0x131 JUMP JUMPDEST PUSH1 0x41 DUP12 PUSH4 0x4E487B71 PUSH1 0xE0 SHL PUSH1 0x0 MSTORE MSTORE PUSH1 0x24 PUSH1 0x0 REVERT JUMPDEST ADD MLOAD SWAP1 POP CODESIZE DUP1 PUSH3 0xFE JUMP JUMPDEST SWAP1 DUP7 DUP6 SWAP5 AND SWAP2 PUSH1 0x2 PUSH1 0x0 MSTORE DUP13 PUSH1 0x0 KECCAK256 SWAP3 DUP14 PUSH1 0x0 SWAP1 JUMPDEST DUP3 DUP3 LT PUSH3 0x3B7 JUMPI POP POP DUP5 GT PUSH3 0x39D JUMPI JUMPDEST POP POP POP DUP2 SHL ADD PUSH1 0x2 SSTORE PUSH3 0x113 JUMP JUMPDEST ADD MLOAD PUSH1 0x0 NOT PUSH1 0xF8 DUP5 PUSH1 0x3 SHL AND SHR NOT AND SWAP1 SSTORE CODESIZE DUP1 DUP1 PUSH3 0x38E JUMP JUMPDEST DUP4 DUP6 ADD MLOAD DUP7 SSTORE DUP9 SWAP8 SWAP1 SWAP6 ADD SWAP5 SWAP4 DUP5 ADD SWAP4 ADD DUP15 PUSH3 0x37C JUMP JUMPDEST SWAP1 SWAP2 POP PUSH1 0x2 PUSH1 0x0 MSTORE DUP11 PUSH1 0x0 KECCAK256 DUP6 DUP1 DUP6 ADD PUSH1 0x5 SHR DUP3 ADD SWAP3 DUP14 DUP7 LT PUSH3 0x41C JUMPI JUMPDEST SWAP2 DUP7 SWAP2 DUP7 SWAP6 SWAP5 SWAP4 ADD PUSH1 0x5 SHR ADD SWAP2 JUMPDEST DUP3 DUP2 LT PUSH3 0x40C JUMPI POP POP PUSH3 0xE7 JUMP JUMPDEST PUSH1 0x0 DUP2 SSTORE DUP6 SWAP5 POP DUP7 SWAP2 ADD PUSH3 0x3FC JUMP JUMPDEST SWAP3 POP DUP2 SWAP3 PUSH3 0x3EE JUMP JUMPDEST SWAP1 PUSH1 0x7F AND SWAP1 PUSH3 0xD2 JUMP JUMPDEST PUSH1 0x0 DUP1 REVERT JUMPDEST PUSH4 0x4E487B71 PUSH1 0xE0 SHL PUSH1 0x0 MSTORE PUSH1 0x41 PUSH1 0x4 MSTORE PUSH1 0x24 PUSH1 0x0 REVERT JUMPDEST PUSH1 0x40 DUP1 MLOAD SWAP2 SWAP1 DUP3 ADD PUSH1 0x1 PUSH1 0x1 PUSH1 0x40 SHL SUB DUP2 GT DUP4 DUP3 LT OR PUSH3 0x436 JUMPI PUSH1 0x40 MSTORE JUMP JUMPDEST MLOAD SWAP1 PUSH1 0x1 PUSH1 0x1 PUSH1 0xA0 SHL SUB DUP3 AND DUP3 SUB PUSH3 0x431 JUMPI JUMP INVALID PUSH1 0x80 DUP1 PUSH1 0x40 MSTORE PUSH1 0x4 CALLDATASIZE LT ISZERO PUSH2 0x13 JUMPI PUSH1 0x0 DUP1 REVERT JUMPDEST PUSH1 0x0 SWAP1 DUP2 CALLDATALOAD PUSH1 0xE0 SHR SWAP1 DUP2 PUSH4 0x1FFC9A7 EQ PUSH2 0x302A JUMPI POP DUP1 PUSH4 0x2C83902 EQ PUSH2 0x300E JUMPI DUP1 PUSH4 0x5B746B5 EQ PUSH2 0x2FF1 JUMPI DUP1 PUSH4 0x6FDDE03 EQ PUSH2 0x2F4B JUMPI DUP1 PUSH4 0x81812FC EQ PUSH2 0x2F0E JUMPI DUP1 PUSH4 0x95EA7B3 EQ PUSH2 0x2E2B JUMPI DUP1 PUSH4 0xEBF1D3D EQ PUSH2 0x2E0D JUMPI DUP1 PUSH4 0x11D0D538 EQ PUSH2 0x2DCD JUMPI DUP1 PUSH4 0x1521BA3F EQ PUSH2 0x2CC9 JUMPI DUP1 PUSH4 0x160953C3 EQ PUSH2 0x1D36 JUMPI DUP1 PUSH4 0x23B872DD EQ PUSH2 0x1D1E JUMPI DUP1 PUSH4 0x24AA774A EQ PUSH2 0x1897 JUMPI DUP1 PUSH4 0x2683494D EQ PUSH2 0x1CD3 JUMPI DUP1 PUSH4 0x2A55205A EQ PUSH2 0x1AFF JUMPI DUP1 PUSH4 0x2D2C5565 EQ PUSH2 0x1AD0 JUMPI DUP1 PUSH4 0x2EF9A160 EQ PUSH2 0x1AB4 JUMPI DUP1 PUSH4 0x3BC3A454 EQ PUSH2 0x1A98 JUMPI DUP1 PUSH4 0x42842E0E EQ PUSH2 0x1A70 JUMPI DUP1 PUSH4 0x4BAF079C EQ PUSH2 0x1A2D JUMPI DUP1 PUSH4 0x544B5E61 EQ PUSH2 0x1A10 JUMPI DUP1 PUSH4 0x602787ED EQ PUSH2 0x19E6 JUMPI DUP1 PUSH4 0x6352211E EQ PUSH2 0x19B5 JUMPI DUP1 PUSH4 0x6DCEE4CA EQ PUSH2 0x1995 JUMPI DUP1 PUSH4 0x6EF87121 EQ PUSH2 0x1951 JUMPI DUP1 PUSH4 0x70A08231 EQ PUSH2 0x18F9 JUMPI DUP1 PUSH4 0x715018A6 EQ PUSH2 0x189C JUMPI DUP1 PUSH4 0x8368A0C2 EQ PUSH2 0x1897 JUMPI DUP1 PUSH4 0x8BA1393D EQ PUSH2 0x186D JUMPI DUP1 PUSH4 0x8DA5CB5B EQ PUSH2 0x1844 JUMPI DUP1 PUSH4 0x95D89B41 EQ PUSH2 0x1773 JUMPI DUP1 PUSH4 0x968B5635 EQ PUSH2 0x1702 JUMPI DUP1 PUSH4 0x98C6E821 EQ PUSH2 0x16C2 JUMPI DUP1 PUSH4 0x9FB53FCB EQ PUSH2 0x160C JUMPI DUP1 PUSH4 0xA22CB465 EQ PUSH2 0x1569 JUMPI DUP1 PUSH4 0xA7D0F2FB EQ PUSH2 0x1524 JUMPI DUP1 PUSH4 0xB27DDE6A EQ PUSH2 0x14FA JUMPI DUP1 PUSH4 0xB88D4FDE EQ PUSH2 0x1493 JUMPI DUP1 PUSH4 0xBDEB0FB1 EQ PUSH2 0xCC5 JUMPI DUP1 PUSH4 0xC87B56DD EQ PUSH2 0x545 JUMPI DUP1 PUSH4 0xCB541EF2 EQ PUSH2 0x500 JUMPI DUP1 PUSH4 0xCCE67226 EQ PUSH2 0x4E4 JUMPI DUP1 PUSH4 0xE91DAB62 EQ PUSH2 0x49D JUMPI DUP1 PUSH4 0xE985E9C5 EQ PUSH2 0x449 JUMPI DUP1 PUSH4 0xEDCFAFE6 EQ PUSH2 0x2F8 JUMPI DUP1 PUSH4 0xEF6FE9B7 EQ PUSH2 0x2CF JUMPI DUP1 PUSH4 0xF2FDE38B EQ PUSH2 0x244 JUMPI PUSH4 0xF50496F4 EQ PUSH2 0x226 JUMPI PUSH1 0x0 DUP1 REVERT JUMPDEST CALLVALUE PUSH2 0x241 JUMPI DUP1 PUSH1 0x3 NOT CALLDATASIZE ADD SLT PUSH2 0x241 JUMPI PUSH1 0x20 PUSH1 0x40 MLOAD PUSH1 0x32 DUP2 MSTORE RETURN JUMPDEST DUP1 REVERT JUMPDEST POP CALLVALUE PUSH2 0x241 JUMPI PUSH1 0x20 CALLDATASIZE PUSH1 0x3 NOT ADD SLT PUSH2 0x241 JUMPI PUSH2 0x25E PUSH2 0x3113 JUMP JUMPDEST PUSH2 0x266 PUSH2 0x3426 JUMP JUMPDEST PUSH1 0x1 PUSH1 0x1 PUSH1 0xA0 SHL SUB SWAP1 DUP2 AND SWAP1 DUP2 ISZERO PUSH2 0x2B6 JUMPI PUSH1 0x9 SLOAD DUP3 PUSH1 0x1 PUSH1 0x1 PUSH1 0x60 SHL SUB PUSH1 0xA0 SHL DUP3 AND OR PUSH1 0x9 SSTORE AND PUSH32 0x8BE0079C531659141344CD1FD0A4F28419497F9722A3DAAFE3B4186F6B6457E0 PUSH1 0x0 DUP1 LOG3 DUP1 RETURN JUMPDEST PUSH1 0x40 MLOAD PUSH4 0x1E4FBDF7 PUSH1 0xE0 SHL DUP2 MSTORE PUSH1 0x4 DUP2 ADD DUP5 SWAP1 MSTORE PUSH1 0x24 SWAP1 REVERT JUMPDEST POP CALLVALUE PUSH2 0x241 JUMPI DUP1 PUSH1 0x3 NOT CALLDATASIZE ADD SLT PUSH2 0x241 JUMPI PUSH1 0xA SLOAD PUSH1 0x40 MLOAD PUSH1 0x1 PUSH1 0x1 PUSH1 0xA0 SHL SUB SWAP1 SWAP2 AND DUP2 MSTORE PUSH1 0x20 SWAP1 RETURN JUMPDEST POP CALLVALUE PUSH2 0x241 JUMPI PUSH1 0x20 CALLDATASIZE PUSH1 0x3 NOT ADD SLT PUSH2 0x241 JUMPI PUSH1 0x4 CALLDATALOAD DUP2 MSTORE PUSH1 0xD PUSH1 0x20 MSTORE PUSH1 0x40 DUP2 KECCAK256 DUP1 SLOAD SWAP1 PUSH2 0x327 PUSH1 0x1 DUP3 ADD PUSH2 0x3380 JUMP JUMPDEST PUSH2 0x333 PUSH1 0x2 DUP4 ADD PUSH2 0x3380 JUMP JUMPDEST SWAP2 PUSH2 0x340 PUSH1 0x3 DUP3 ADD PUSH2 0x3380 JUMP JUMPDEST PUSH1 0x4 DUP3 ADD SLOAD PUSH1 0x1 PUSH1 0x1 PUSH1 0xA0 SHL SUB AND SWAP4 SWAP1 PUSH2 0x35C PUSH1 0x5 DUP5 ADD PUSH2 0x3380 JUMP JUMPDEST SWAP5 PUSH2 0x369 PUSH1 0x6 DUP6 ADD PUSH2 0x3380 JUMP JUMPDEST SWAP6 PUSH1 0x8 DUP6 ADD SLOAD SWAP7 PUSH1 0x9 DUP7 ADD SLOAD SWAP2 PUSH1 0xA DUP8 ADD SLOAD SWAP4 PUSH1 0xB DUP9 ADD SLOAD SWAP6 PUSH1 0xC DUP10 ADD SLOAD SWAP8 PUSH1 0xD DUP11 ADD SLOAD PUSH1 0xFF AND SWAP10 PUSH1 0xE ADD SLOAD SWAP11 PUSH1 0x40 MLOAD SWAP14 DUP15 MSTORE DUP14 PUSH2 0x1C0 SWAP1 DUP2 PUSH1 0x20 DUP3 ADD MSTORE ADD PUSH2 0x3B1 SWAP2 PUSH2 0x30EE JUMP JUMPDEST DUP14 DUP2 SUB PUSH1 0x40 DUP16 ADD MSTORE PUSH2 0x3C2 SWAP2 PUSH2 0x30EE JUMP JUMPDEST DUP13 DUP2 SUB PUSH1 0x60 DUP15 ADD MSTORE PUSH2 0x3D3 SWAP2 PUSH2 0x30EE JUMP JUMPDEST SWAP1 PUSH1 0x80 DUP13 ADD MSTORE DUP11 DUP2 SUB PUSH1 0xA0 DUP13 ADD MSTORE PUSH2 0x3EA SWAP2 PUSH2 0x30EE JUMP JUMPDEST DUP10 DUP2 SUB PUSH1 0xC0 DUP12 ADD MSTORE PUSH2 0x3FB SWAP2 PUSH2 0x30EE JUMP JUMPDEST SWAP7 PUSH1 0xE0 DUP10 ADD MSTORE PUSH2 0x100 DUP9 ADD MSTORE PUSH2 0x120 DUP8 ADD MSTORE PUSH2 0x140 DUP7 ADD MSTORE PUSH2 0x160 DUP6 ADD MSTORE PUSH1 0x2 DUP2 LT ISZERO PUSH2 0x435 JUMPI DUP4 SWAP5 POP PUSH2 0x180 DUP5 ADD MSTORE PUSH2 0x1A0 DUP4 ADD MSTORE SUB SWAP1 RETURN JUMPDEST PUSH4 0x4E487B71 PUSH1 0xE0 SHL DUP6 MSTORE PUSH1 0x21 PUSH1 0x4 MSTORE PUSH1 0x24 DUP6 REVERT JUMPDEST POP CALLVALUE PUSH2 0x241 JUMPI PUSH1 0x40 CALLDATASIZE PUSH1 0x3 NOT ADD SLT PUSH2 0x241 JUMPI PUSH2 0x463 PUSH2 0x3113 JUMP JUMPDEST PUSH1 0x40 PUSH2 0x46D PUSH2 0x312E JUMP JUMPDEST SWAP3 PUSH1 0x1 DUP1 PUSH1 0xA0 SHL SUB DUP1 SWAP4 AND DUP2 MSTORE PUSH1 0x7 PUSH1 0x20 MSTORE KECCAK256 SWAP2 AND PUSH1 0x0 MSTORE PUSH1 0x20 MSTORE PUSH1 0x20 PUSH1 0xFF PUSH1 0x40 PUSH1 0x0 KECCAK256 SLOAD AND PUSH1 0x40 MLOAD SWAP1 ISZERO ISZERO DUP2 MSTORE RETURN JUMPDEST POP CALLVALUE PUSH2 0x241 JUMPI PUSH1 0x20 CALLDATASIZE PUSH1 0x3 NOT ADD SLT PUSH2 0x241 JUMPI PUSH1 0x40 PUSH1 0x20 SWAP2 PUSH1 0x4 CALLDATALOAD DUP1 DUP3 MSTORE PUSH1 0x4 DUP5 MSTORE PUSH2 0x4D4 PUSH1 0x1 DUP1 PUSH1 0xA0 SHL SUB DUP5 DUP5 KECCAK256 SLOAD AND ISZERO ISZERO PUSH2 0x37FD JUMP JUMPDEST DUP2 MSTORE PUSH1 0xF DUP4 MSTORE KECCAK256 SLOAD PUSH1 0x40 MLOAD SWAP1 DUP2 MSTORE RETURN JUMPDEST POP CALLVALUE PUSH2 0x241 JUMPI DUP1 PUSH1 0x3 NOT CALLDATASIZE ADD SLT PUSH2 0x241 JUMPI PUSH1 0x20 PUSH1 0x40 MLOAD PUSH1 0xA DUP2 MSTORE RETURN JUMPDEST POP CALLVALUE PUSH2 0x241 JUMPI DUP1 PUSH1 0x3 NOT CALLDATASIZE ADD SLT PUSH2 0x241 JUMPI PUSH1 0x40 MLOAD PUSH32 0x0 PUSH1 0x1 PUSH1 0x1 PUSH1 0xA0 SHL SUB AND DUP2 MSTORE PUSH1 0x20 SWAP1 RETURN JUMPDEST POP CALLVALUE PUSH2 0x241 JUMPI PUSH1 0x20 CALLDATASIZE PUSH1 0x3 NOT ADD SLT PUSH2 0x241 JUMPI PUSH1 0x4 DUP1 CALLDATALOAD DUP3 MSTORE PUSH1 0x20 MSTORE PUSH1 0x40 DUP2 KECCAK256 SLOAD PUSH2 0x579 SWAP1 PUSH1 0x1 PUSH1 0x1 PUSH1 0xA0 SHL SUB AND ISZERO ISZERO PUSH2 0x37FD JUMP JUMPDEST PUSH1 0x4 CALLDATALOAD DUP2 MSTORE PUSH1 0xE PUSH1 0x20 MSTORE PUSH1 0x40 DUP2 KECCAK256 SLOAD SWAP1 PUSH1 0xF PUSH1 0x20 MSTORE PUSH1 0x40 DUP2 KECCAK256 SLOAD SWAP2 DUP2 MSTORE PUSH1 0xD PUSH1 0x20 MSTORE PUSH1 0x40 DUP2 KECCAK256 PUSH1 0x40 MLOAD SWAP1 PUSH2 0x5AC DUP3 PUSH2 0x31C3 JUMP JUMPDEST DUP1 SLOAD DUP3 MSTORE PUSH2 0x5BC PUSH1 0x1 DUP3 ADD PUSH2 0x3380 JUMP JUMPDEST PUSH1 0x20 DUP4 ADD MSTORE PUSH2 0x5CD PUSH1 0x2 DUP3 ADD PUSH2 0x3380 JUMP JUMPDEST PUSH1 0x40 DUP4 ADD MSTORE PUSH2 0x5DE PUSH1 0x3 DUP3 ADD PUSH2 0x3380 JUMP JUMPDEST PUSH1 0x60 DUP4 ADD MSTORE PUSH1 0x4 DUP2 ADD SLOAD PUSH1 0x1 PUSH1 0x1 PUSH1 0xA0 SHL SUB AND PUSH1 0x80 DUP4 ADD MSTORE PUSH2 0x602 PUSH1 0x5 DUP3 ADD PUSH2 0x3380 JUMP JUMPDEST PUSH1 0xA0 DUP4 ADD MSTORE PUSH2 0x613 PUSH1 0x6 DUP3 ADD PUSH2 0x3380 JUMP JUMPDEST PUSH1 0xC0 DUP4 ADD MSTORE PUSH1 0x7 DUP2 ADD DUP1 SLOAD PUSH2 0x627 DUP2 PUSH2 0x32D7 JUMP JUMPDEST SWAP2 PUSH2 0x635 PUSH1 0x40 MLOAD SWAP4 DUP5 PUSH2 0x3246 JUMP JUMPDEST DUP2 DUP4 MSTORE DUP6 MSTORE PUSH1 0x20 DUP1 DUP7 KECCAK256 DUP7 SWAP2 DUP5 ADD JUMPDEST DUP4 DUP4 LT PUSH2 0xCA8 JUMPI POP POP POP POP SWAP1 PUSH1 0xE SWAP2 PUSH1 0xE0 DUP5 ADD MSTORE PUSH1 0x8 DUP2 ADD SLOAD PUSH2 0x100 DUP5 ADD MSTORE PUSH1 0x9 DUP2 ADD SLOAD PUSH2 0x120 DUP5 ADD MSTORE PUSH1 0xA DUP2 ADD SLOAD PUSH2 0x140 DUP5 ADD MSTORE PUSH1 0xB DUP2 ADD SLOAD PUSH2 0x160 DUP5 ADD MSTORE PUSH1 0xC DUP2 ADD SLOAD PUSH2 0x180 DUP5 ADD MSTORE PUSH2 0x6A4 PUSH1 0xFF PUSH1 0xD DUP4 ADD SLOAD AND PUSH2 0x1A0 DUP6 ADD PUSH2 0x37B7 JUMP JUMPDEST ADD SLOAD PUSH2 0x1C0 DUP3 ADD MSTORE PUSH1 0x20 DUP2 ADD MLOAD SWAP3 PUSH2 0x6BB DUP2 PUSH2 0x423B JUMP JUMPDEST SWAP3 PUSH1 0x60 DUP4 ADD MLOAD PUSH2 0x6DD PUSH2 0x6CF PUSH1 0x4 CALLDATALOAD PUSH2 0x3840 JUMP JUMPDEST PUSH2 0x6D7 PUSH2 0x437E JUMP JUMPDEST SWAP1 PUSH2 0x43DD JUMP JUMPDEST SWAP2 PUSH1 0xA0 DUP6 ADD MLOAD SWAP1 PUSH1 0xC0 DUP7 ADD MLOAD SWAP5 PUSH1 0x1 DUP1 PUSH1 0xA0 SHL SUB PUSH1 0x80 DUP9 ADD MLOAD AND SWAP2 PUSH1 0x40 MLOAD PUSH2 0x704 DUP2 PUSH2 0x3210 JUMP JUMPDEST PUSH1 0x10 DUP2 MSTORE PUSH16 0x181899199A1A9B1B9C1CB0B131B232B3 PUSH1 0x81 SHL PUSH1 0x20 DUP3 ADD MSTORE PUSH1 0x40 MLOAD SWAP4 PUSH2 0x72E DUP6 PUSH2 0x322B JUMP JUMPDEST PUSH1 0x2A DUP6 MSTORE PUSH1 0x40 CALLDATASIZE PUSH1 0x20 DUP8 ADD CALLDATACOPY DUP5 MLOAD ISZERO PUSH2 0xC94 JUMPI PUSH1 0x30 PUSH1 0x20 DUP7 ADD MSTORE8 DUP5 MLOAD PUSH1 0x1 LT ISZERO PUSH2 0xC94 JUMPI PUSH1 0x78 PUSH1 0x21 DUP7 ADD MSTORE8 DUP3 JUMPDEST PUSH1 0x14 DUP2 LT PUSH2 0xBA1 JUMPI POP POP POP PUSH2 0xB9D PUSH2 0xB36 PUSH2 0x7E7 PUSH2 0x6CF PUSH2 0x1B9 DUP15 DUP15 DUP15 DUP15 DUP15 DUP15 DUP15 DUP15 PUSH2 0x786 DUP16 PUSH2 0x423B JUMP JUMPDEST SWAP2 PUSH2 0x795 PUSH2 0x120 DUP9 ADD MLOAD PUSH2 0x423B JUMP JUMPDEST SWAP5 PUSH2 0x7B2 PUSH2 0x180 PUSH2 0x7AA PUSH2 0x100 DUP12 ADD MLOAD PUSH2 0x423B JUMP JUMPDEST SWAP10 ADD MLOAD PUSH2 0x423B JUMP JUMPDEST SWAP9 PUSH1 0x2A PUSH1 0x40 MLOAD SWAP15 DUP16 DUP1 SWAP14 PUSH1 0x7B PUSH1 0xF8 SHL PUSH1 0x20 DUP4 ADD MSTORE PUSH9 0x113730B6B2911D1011 PUSH1 0xB9 SHL PUSH1 0x21 DUP4 ADD MSTORE PUSH1 0x20 DUP2 MLOAD SWAP5 DUP6 SWAP4 ADD SWAP2 ADD PUSH2 0x30CB JUMP JUMPDEST DUP12 ADD PUSH12 0x202D2045646974696F6E2023 PUSH1 0xA0 SHL PUSH1 0x2A DUP3 ADD MSTORE PUSH2 0x812 DUP3 MLOAD DUP1 SWAP4 PUSH1 0x20 PUSH1 0x36 DUP6 ADD SWAP2 ADD PUSH2 0x30CB JUMP JUMPDEST ADD SWAP5 PUSH2 0x88B PUSH1 0xF2 SHL SWAP6 DUP7 PUSH1 0x36 DUP3 ADD MSTORE PUSH16 0x113232B9B1B934B83A34B7B7111D1011 PUSH1 0x81 SHL PUSH1 0x38 DUP3 ADD MSTORE PUSH2 0x84E DUP3 MLOAD DUP1 SWAP4 PUSH1 0x20 PUSH1 0x48 DUP6 ADD SWAP2 ADD PUSH2 0x30CB JUMP JUMPDEST ADD DUP6 PUSH1 0x48 DUP3 ADD MSTORE PUSH32 0x22696D616765223A2022646174613A696D6167652F7376672B786D6C3B626173 PUSH1 0x4A DUP3 ADD MSTORE PUSH4 0x194D8D0B PUSH1 0xE2 SHL PUSH1 0x6A DUP3 ADD MSTORE PUSH2 0x89C DUP3 MLOAD DUP1 SWAP4 PUSH1 0x20 PUSH1 0x6E DUP6 ADD SWAP2 ADD PUSH2 0x30CB JUMP JUMPDEST ADD SWAP4 PUSH1 0x6E DUP6 ADD MSTORE PUSH15 0x2261747472696275746573223A205B PUSH1 0x88 SHL PUSH1 0x70 DUP6 ADD MSTORE PUSH32 0x7B2274726169745F74797065223A20224C6F636174696F6E222C202276616C75 PUSH1 0x7F DUP6 ADD MSTORE PUSH5 0x32911D1011 PUSH1 0xD9 SHL SWAP4 DUP5 PUSH1 0x9F DUP3 ADD MSTORE PUSH2 0x905 DUP3 MLOAD DUP1 SWAP4 PUSH1 0x20 PUSH1 0xA4 DUP6 ADD SWAP2 ADD PUSH2 0x30CB JUMP JUMPDEST ADD SWAP5 PUSH3 0x89F4B PUSH1 0xEA SHL SWAP6 DUP7 SWAP5 DUP6 PUSH1 0xA4 DUP4 ADD MSTORE PUSH32 0x7B2274726169745F74797065223A202243617465676F7279222C202276616C75 PUSH1 0xA7 DUP4 ADD MSTORE PUSH1 0xC7 DUP3 ADD MSTORE PUSH2 0x956 DUP3 MLOAD DUP1 SWAP4 PUSH1 0x20 PUSH1 0xCC DUP6 ADD SWAP2 ADD PUSH2 0x30CB JUMP JUMPDEST ADD DUP4 PUSH1 0xCC DUP3 ADD MSTORE PUSH32 0x7B2274726169745F74797065223A2022417574686F72222C202276616C756522 PUSH1 0xCF DUP3 ADD MSTORE PUSH3 0x1D1011 PUSH1 0xE9 SHL PUSH1 0xEF DUP3 ADD MSTORE PUSH2 0x9A3 DUP3 MLOAD DUP1 SWAP4 PUSH1 0x20 PUSH1 0xF2 DUP6 ADD SWAP2 ADD PUSH2 0x30CB JUMP JUMPDEST ADD SWAP1 DUP3 PUSH1 0xF2 DUP4 ADD MSTORE PUSH32 0x7B2274726169745F74797065223A202245646974696F6E204E756D626572222C PUSH1 0xF5 DUP4 ADD MSTORE PUSH11 0x10113B30B63AB2911D1011 PUSH1 0xA9 SHL SWAP2 DUP3 PUSH2 0x115 DUP3 ADD MSTORE PUSH2 0x9FD DUP3 MLOAD DUP1 SWAP4 PUSH1 0x20 PUSH2 0x120 DUP6 ADD SWAP2 ADD PUSH2 0x30CB JUMP JUMPDEST ADD SWAP1 DUP3 PUSH2 0x120 DUP4 ADD MSTORE PUSH32 0x7B2274726169745F74797065223A2022546F74616C2045646974696F6E73222C PUSH2 0x123 DUP4 ADD MSTORE PUSH2 0x143 DUP3 ADD MSTORE DUP3 MLOAD SWAP1 PUSH2 0xA4A DUP3 PUSH2 0x14E SWAP6 PUSH1 0x20 DUP8 DUP6 ADD SWAP2 ADD PUSH2 0x30CB JUMP JUMPDEST ADD SWAP2 DUP3 ADD MSTORE PUSH32 0x7B2274726169745F74797065223A20225075626C69636174696F6E2044617465 PUSH2 0x151 DUP3 ADD MSTORE PUSH13 0x111610113B30B63AB2911D1011 PUSH1 0x99 SHL PUSH2 0x171 DUP3 ADD MSTORE DUP3 MLOAD SWAP1 PUSH2 0xAA4 DUP3 PUSH2 0x17E SWAP6 PUSH1 0x20 DUP8 DUP6 ADD SWAP2 ADD PUSH2 0x30CB JUMP JUMPDEST ADD SWAP2 DUP3 ADD MSTORE PUSH32 0x7B2274726169745F74797065223A2022526561646572204C6963656E73657320 PUSH2 0x181 DUP3 ADD MSTORE PUSH20 0x2832B91027232A111610113B30B63AB2911D1011 PUSH1 0x61 SHL PUSH2 0x1A1 DUP3 ADD MSTORE DUP2 MLOAD SWAP1 PUSH2 0xB05 DUP3 PUSH2 0x1B5 SWAP5 PUSH1 0x20 DUP7 DUP6 ADD SWAP2 ADD PUSH2 0x30CB JUMP JUMPDEST ADD SWAP1 PUSH2 0x227D PUSH1 0xF0 SHL SWAP1 DUP3 ADD MSTORE PUSH1 0x5D PUSH1 0xF8 SHL PUSH2 0x1B7 DUP3 ADD MSTORE PUSH1 0x7D PUSH1 0xF8 SHL PUSH2 0x1B8 DUP3 ADD MSTORE SUB PUSH2 0x199 DUP2 ADD DUP5 MSTORE ADD DUP3 PUSH2 0x3246 JUMP JUMPDEST PUSH2 0xB89 PUSH1 0x3D PUSH1 0x40 MLOAD DUP1 SWAP4 PUSH32 0x646174613A6170706C69636174696F6E2F6A736F6E3B6261736536342C000000 PUSH1 0x20 DUP4 ADD MSTORE PUSH2 0xB79 DUP2 MLOAD DUP1 SWAP3 PUSH1 0x20 DUP7 DUP7 ADD SWAP2 ADD PUSH2 0x30CB JUMP JUMPDEST DUP2 ADD SUB PUSH1 0x1D DUP2 ADD DUP5 MSTORE ADD DUP3 PUSH2 0x3246 JUMP JUMPDEST PUSH1 0x40 MLOAD SWAP2 DUP3 SWAP2 PUSH1 0x20 DUP4 MSTORE PUSH1 0x20 DUP4 ADD SWAP1 PUSH2 0x30EE JUMP JUMPDEST SUB SWAP1 RETURN JUMPDEST PUSH1 0xC DUP2 ADD DUP2 GT PUSH2 0xC80 JUMPI PUSH1 0x20 PUSH1 0xC DUP3 ADD LT ISZERO PUSH2 0xC6C JUMPI PUSH1 0x1 PUSH1 0x1 PUSH1 0xF8 SHL SUB NOT PUSH2 0xBD6 PUSH1 0xC DUP4 ADD DUP5 SWAP1 BYTE PUSH1 0x4 SHR PUSH1 0xF AND DUP6 PUSH2 0x44D5 JUMP JUMPDEST MLOAD AND DUP2 DUP1 PUSH1 0x1 SHL DIV PUSH1 0x2 EQ DUP3 ISZERO OR ISZERO PUSH2 0xC58 JUMPI DUP2 PUSH1 0x1 SHL PUSH1 0x2 ADD PUSH1 0x2 GT PUSH2 0xC58 JUMPI DUP5 BYTE PUSH2 0xC09 DUP3 PUSH1 0x1 SHL PUSH1 0x2 ADD DUP9 PUSH2 0x44D5 JUMP JUMPDEST MSTORE8 PUSH1 0x1 PUSH1 0x1 PUSH1 0xF8 SHL SUB NOT PUSH2 0xC26 PUSH1 0xC DUP4 ADD DUP5 SWAP1 BYTE PUSH1 0xF AND DUP6 PUSH2 0x44D5 JUMP JUMPDEST MLOAD AND DUP2 PUSH1 0x1 SHL PUSH1 0x3 ADD PUSH1 0x3 GT PUSH2 0xC58 JUMPI SWAP1 PUSH2 0xC53 SWAP2 DUP6 BYTE PUSH2 0xC4D DUP3 PUSH1 0x1 SHL PUSH1 0x3 ADD DUP10 PUSH2 0x44D5 JUMP JUMPDEST MSTORE8 PUSH2 0x377E JUMP JUMPDEST PUSH2 0x75B JUMP JUMPDEST PUSH4 0x4E487B71 PUSH1 0xE0 SHL DUP6 MSTORE PUSH1 0x11 PUSH1 0x4 MSTORE PUSH1 0x24 DUP6 REVERT JUMPDEST PUSH4 0x4E487B71 PUSH1 0xE0 SHL DUP5 MSTORE PUSH1 0x32 PUSH1 0x4 MSTORE PUSH1 0x24 DUP5 REVERT JUMPDEST PUSH4 0x4E487B71 PUSH1 0xE0 SHL DUP5 MSTORE PUSH1 0x11 PUSH1 0x4 MSTORE PUSH1 0x24 DUP5 REVERT JUMPDEST PUSH4 0x4E487B71 PUSH1 0xE0 SHL DUP4 MSTORE PUSH1 0x32 PUSH1 0x4 MSTORE PUSH1 0x24 DUP4 REVERT JUMPDEST PUSH1 0x1 PUSH1 0x20 DUP2 SWAP3 PUSH2 0xCB7 DUP6 PUSH2 0x3380 JUMP JUMPDEST DUP2 MSTORE ADD SWAP3 ADD SWAP3 ADD SWAP2 SWAP1 PUSH2 0x644 JUMP JUMPDEST POP PUSH1 0x20 CALLDATASIZE PUSH1 0x3 NOT ADD SLT PUSH2 0x241 JUMPI PUSH1 0x4 CALLDATALOAD DUP2 MSTORE PUSH1 0xD PUSH1 0x20 MSTORE PUSH1 0x40 DUP2 KECCAK256 DUP1 SLOAD ISZERO PUSH2 0x1455 JUMPI PUSH1 0x4 CALLDATALOAD DUP3 MSTORE PUSH1 0x12 PUSH1 0x20 MSTORE PUSH1 0x40 DUP3 KECCAK256 CALLER DUP4 MSTORE PUSH1 0x20 MSTORE PUSH1 0x40 DUP3 KECCAK256 SLOAD PUSH2 0x1406 JUMPI PUSH1 0x4 CALLDATALOAD DUP3 MSTORE PUSH1 0x13 PUSH1 0x20 MSTORE PUSH1 0x40 DUP3 KECCAK256 SLOAD ISZERO PUSH2 0x13B3 JUMPI PUSH1 0x40 MLOAD PUSH4 0x70A08231 PUSH1 0xE0 SHL DUP2 MSTORE CALLER PUSH1 0x4 DUP3 ADD MSTORE PUSH1 0x20 DUP2 PUSH1 0x24 DUP2 PUSH32 0x0 PUSH1 0x1 PUSH1 0x1 PUSH1 0xA0 SHL SUB AND GAS STATICCALL SWAP1 DUP2 ISZERO PUSH2 0x13A8 JUMPI DUP4 SWAP2 PUSH2 0x1376 JUMPI JUMPDEST POP ISZERO PUSH2 0x1331 JUMPI PUSH1 0xA DUP2 ADD DUP1 SLOAD SWAP2 PUSH8 0xDE0B6B3A7640000 DUP4 ADD DUP4 GT PUSH2 0xC80 JUMPI PUSH8 0xDE0B6B3A7640000 DUP4 ADD CALLVALUE LT PUSH2 0x12F5 JUMPI PUSH1 0x4 CALLDATALOAD DUP5 MSTORE PUSH1 0x14 PUSH1 0x20 MSTORE PUSH1 0x40 DUP5 KECCAK256 SLOAD PUSH1 0x40 MLOAD PUSH1 0x20 DUP2 ADD SWAP2 TIMESTAMP DUP4 MSTORE PREVRANDAO PUSH1 0x40 DUP4 ADD MSTORE CALLER PUSH1 0x60 SHL PUSH1 0x60 DUP4 ADD MSTORE PUSH1 0x4 CALLDATALOAD PUSH1 0x74 DUP4 ADD MSTORE PUSH1 0x94 DUP3 ADD MSTORE PUSH1 0x94 DUP2 MSTORE PUSH1 0xC0 DUP2 ADD DUP2 DUP2 LT PUSH1 0x1 PUSH1 0x1 PUSH1 0x40 SHL SUB DUP3 GT OR PUSH2 0x12E1 JUMPI PUSH1 0x40 MSTORE MLOAD SWAP1 KECCAK256 SWAP2 PUSH1 0x4 CALLDATALOAD DUP6 MSTORE PUSH1 0x13 PUSH1 0x20 MSTORE PUSH1 0x40 DUP6 KECCAK256 SLOAD SWAP3 DUP4 ISZERO PUSH2 0x12CD JUMPI PUSH1 0x4 CALLDATALOAD DUP7 MSTORE PUSH1 0x13 PUSH1 0x20 MSTORE PUSH2 0xE20 DUP5 DUP3 MOD PUSH1 0x40 DUP9 KECCAK256 PUSH2 0x315A JUMP JUMPDEST SWAP1 SLOAD SWAP1 PUSH1 0x3 SHL SHR SWAP4 PUSH1 0x4 CALLDATALOAD DUP8 MSTORE PUSH1 0x13 PUSH1 0x20 MSTORE PUSH1 0x40 DUP8 KECCAK256 DUP1 SLOAD DUP1 PUSH1 0x0 NOT DUP2 ADD GT PUSH2 0x12B9 JUMPI SWAP2 PUSH2 0xE5A PUSH2 0xE76 SWAP3 PUSH2 0xE8F SWAP6 SWAP5 PUSH1 0x0 NOT ADD SWAP1 PUSH2 0x315A JUMP JUMPDEST SWAP1 SLOAD SWAP1 PUSH1 0x3 SHL SHR SWAP3 PUSH1 0x4 CALLDATALOAD DUP11 MSTORE PUSH1 0x13 PUSH1 0x20 MSTORE MOD PUSH1 0x40 DUP10 KECCAK256 PUSH2 0x315A JUMP JUMPDEST SWAP1 SWAP2 SWAP1 DUP3 SLOAD SWAP1 PUSH1 0x3 SHL SWAP2 DUP3 SHL SWAP2 PUSH1 0x0 NOT SWAP1 SHL NOT AND OR SWAP1 SSTORE JUMP JUMPDEST PUSH1 0x4 CALLDATALOAD DUP6 MSTORE PUSH1 0x13 PUSH1 0x20 MSTORE PUSH1 0x40 DUP6 KECCAK256 DUP1 SLOAD DUP1 ISZERO PUSH2 0x12A5 JUMPI PUSH1 0x0 NOT ADD SWAP1 PUSH2 0xEB4 DUP3 DUP3 PUSH2 0x315A JUMP JUMPDEST DUP2 SLOAD SWAP1 PUSH1 0x0 NOT SWAP1 PUSH1 0x3 SHL SHL NOT AND SWAP1 SSTORE SSTORE PUSH2 0xECF PUSH1 0xC SLOAD PUSH2 0x377E JUMP JUMPDEST SWAP4 DUP5 PUSH1 0xC SSTORE CALLER ISZERO PUSH2 0x128C JUMPI DUP5 DUP7 MSTORE PUSH1 0x4 PUSH1 0x20 MSTORE PUSH1 0x40 DUP7 KECCAK256 SLOAD PUSH1 0x1 PUSH1 0x1 PUSH1 0xA0 SHL SUB AND DUP1 ISZERO ISZERO SWAP1 DUP7 SWAP1 DUP3 PUSH2 0x1257 JUMPI JUMPDEST CALLER DUP10 MSTORE PUSH1 0x5 PUSH1 0x20 MSTORE PUSH1 0x40 DUP10 KECCAK256 PUSH1 0x1 DUP2 SLOAD ADD SWAP1 SSTORE DUP2 DUP10 MSTORE PUSH1 0x4 PUSH1 0x20 MSTORE PUSH1 0x40 DUP10 KECCAK256 CALLER PUSH1 0x1 PUSH1 0x1 PUSH1 0x60 SHL SUB PUSH1 0xA0 SHL DUP3 SLOAD AND OR SWAP1 SSTORE CALLER SWAP1 PUSH32 0xDDF252AD1BE2C89B69C2B068FC378DAA952BA7F163C4A11628F55A4DF523B3EF DUP11 DUP1 LOG4 PUSH2 0x123E JUMPI DUP5 DUP7 MSTORE PUSH1 0xE PUSH1 0x20 MSTORE PUSH1 0x4 CALLDATALOAD PUSH1 0x40 DUP8 KECCAK256 SSTORE PUSH1 0xF PUSH1 0x20 MSTORE DUP4 PUSH1 0x40 DUP8 KECCAK256 SSTORE PUSH1 0x4 CALLDATALOAD DUP7 MSTORE PUSH1 0x12 PUSH1 0x20 MSTORE PUSH1 0x40 DUP7 KECCAK256 CALLER DUP8 MSTORE PUSH1 0x20 MSTORE PUSH1 0x40 DUP7 KECCAK256 SLOAD ISZERO PUSH2 0x11DC JUMPI JUMPDEST PUSH1 0x4 CALLDATALOAD DUP7 MSTORE PUSH1 0x12 PUSH1 0x20 MSTORE PUSH1 0x40 DUP7 KECCAK256 CALLER DUP8 MSTORE PUSH1 0x20 MSTORE PUSH1 0x40 DUP7 KECCAK256 PUSH2 0xFB3 DUP2 SLOAD PUSH2 0x377E JUMP JUMPDEST SWAP1 SSTORE PUSH1 0x4 CALLDATALOAD DUP7 MSTORE PUSH1 0x14 PUSH1 0x20 MSTORE PUSH1 0x40 DUP7 KECCAK256 PUSH2 0xFCD DUP2 SLOAD PUSH2 0x377E JUMP JUMPDEST SWAP1 SSTORE DUP2 SLOAD PUSH1 0xBE DUP2 MUL DUP2 DUP2 DIV PUSH1 0xBE EQ DUP3 ISZERO OR ISZERO PUSH2 0x11C8 JUMPI DUP8 DUP1 DUP1 PUSH2 0xFF6 PUSH2 0x2710 DUP3 SWAP6 DIV DUP1 SWAP7 PUSH2 0x37F0 JUMP JUMPDEST PUSH1 0x4 DUP10 ADD SLOAD PUSH1 0x1 PUSH1 0x1 PUSH1 0xA0 SHL SUB AND DUP3 DUP3 ISZERO PUSH2 0x11BF JUMPI JUMPDEST CALL ISZERO PUSH2 0x11B4 JUMPI PUSH8 0xDE0B6B3A7640000 DUP2 ADD DUP1 SWAP2 GT PUSH2 0x11A0 JUMPI DUP7 DUP1 DUP1 DUP1 SWAP4 DUP2 DUP2 ISZERO PUSH2 0x1197 JUMPI JUMPDEST PUSH20 0x9402F9F20B4A27B55B1CC6CF015D98F764814FB2 SWAP1 CALL ISZERO PUSH2 0x118C JUMPI PUSH1 0xA SLOAD DUP7 SWAP1 PUSH1 0x1 PUSH1 0x1 PUSH1 0xA0 SHL SUB AND DUP1 PUSH2 0x10FE JUMPI JUMPDEST POP SWAP1 PUSH8 0xDE0B6B3A7640000 DUP2 ADD CALLVALUE GT PUSH2 0x10BC JUMPI JUMPDEST POP POP PUSH1 0xC SWAP1 SLOAD SWAP2 ADD SLOAD SWAP1 PUSH1 0x40 MLOAD SWAP3 DUP4 MSTORE PUSH1 0x20 DUP4 ADD MSTORE PUSH1 0x40 DUP3 ADD MSTORE CALLER SWAP2 PUSH32 0x8FC9383161350D0D960DD74934D021DBA1D6AAD105CE6A90F55C4B99D853AE4C PUSH1 0x60 PUSH1 0x4 CALLDATALOAD SWAP4 LOG4 DUP1 RETURN JUMPDEST DUP2 DUP1 PUSH2 0x10D3 PUSH8 0xDE0B6B3A7640000 DUP3 SWAP5 ADD CALLVALUE PUSH2 0x37F0 JUMP JUMPDEST DUP2 DUP2 ISZERO PUSH2 0x10F5 JUMPI JUMPDEST CALLER SWAP1 CALL ISZERO PUSH2 0x10EA JUMPI DUP5 CODESIZE PUSH2 0x1075 JUMP JUMPDEST PUSH1 0x40 MLOAD RETURNDATASIZE DUP7 DUP3 RETURNDATACOPY RETURNDATASIZE SWAP1 REVERT JUMPDEST POP PUSH2 0x8FC PUSH2 0x10DB JUMP JUMPDEST PUSH1 0xC DUP6 ADD SLOAD SWAP1 DUP1 EXTCODESIZE ISZERO PUSH2 0x1188 JUMPI PUSH1 0x84 DUP4 SWAP3 PUSH1 0x40 MLOAD SWAP5 DUP6 SWAP4 DUP5 SWAP3 PUSH4 0xDF81A823 PUSH1 0xE0 SHL DUP5 MSTORE PUSH1 0x4 CALLDATALOAD PUSH1 0x4 DUP6 ADD MSTORE CALLER PUSH1 0x24 DUP6 ADD MSTORE PUSH1 0x44 DUP5 ADD MSTORE DUP11 PUSH1 0x64 DUP5 ADD MSTORE GAS CALL DUP1 ISZERO PUSH2 0x117D JUMPI PUSH2 0x114E JUMPI JUMPDEST DUP7 SWAP1 PUSH2 0x1061 JUMP JUMPDEST PUSH1 0x1 PUSH1 0x1 PUSH1 0x40 SHL SUB DUP2 SWAP8 SWAP3 SWAP8 GT PUSH2 0x1169 JUMPI PUSH1 0x40 MSTORE SWAP5 CODESIZE PUSH2 0x1147 JUMP JUMPDEST PUSH4 0x4E487B71 PUSH1 0xE0 SHL DUP3 MSTORE PUSH1 0x41 PUSH1 0x4 MSTORE PUSH1 0x24 DUP3 REVERT JUMPDEST PUSH1 0x40 MLOAD RETURNDATASIZE DUP10 DUP3 RETURNDATACOPY RETURNDATASIZE SWAP1 REVERT JUMPDEST DUP3 DUP1 REVERT JUMPDEST PUSH1 0x40 MLOAD RETURNDATASIZE DUP8 DUP3 RETURNDATACOPY RETURNDATASIZE SWAP1 REVERT JUMPDEST POP PUSH2 0x8FC PUSH2 0x1031 JUMP JUMPDEST PUSH4 0x4E487B71 PUSH1 0xE0 SHL DUP8 MSTORE PUSH1 0x11 PUSH1 0x4 MSTORE PUSH1 0x24 DUP8 REVERT JUMPDEST PUSH1 0x40 MLOAD RETURNDATASIZE DUP9 DUP3 RETURNDATACOPY RETURNDATASIZE SWAP1 REVERT JUMPDEST POP PUSH2 0x8FC PUSH2 0x100C JUMP JUMPDEST PUSH4 0x4E487B71 PUSH1 0xE0 SHL DUP9 MSTORE PUSH1 0x11 PUSH1 0x4 MSTORE PUSH1 0x24 DUP9 REVERT JUMPDEST PUSH1 0x4 CALLDATALOAD DUP7 MSTORE PUSH1 0x11 PUSH1 0x20 MSTORE PUSH1 0x40 DUP7 KECCAK256 DUP1 SLOAD SWAP1 PUSH1 0x1 PUSH1 0x40 SHL DUP3 LT ISZERO PUSH2 0x122A JUMPI SWAP1 PUSH2 0x1209 SWAP2 PUSH1 0x1 DUP3 ADD DUP2 SSTORE PUSH2 0x315A JUMP JUMPDEST DUP2 SLOAD PUSH1 0x1 PUSH1 0x1 PUSH1 0xA0 SHL SUB PUSH1 0x3 SWAP3 SWAP1 SWAP3 SHL SWAP2 DUP3 SHL NOT AND CALLER SWAP1 SWAP2 SHL OR SWAP1 SSTORE PUSH2 0xF91 JUMP JUMPDEST PUSH4 0x4E487B71 PUSH1 0xE0 SHL DUP9 MSTORE PUSH1 0x41 PUSH1 0x4 MSTORE PUSH1 0x24 DUP9 REVERT JUMPDEST PUSH1 0x40 MLOAD PUSH4 0x39E35637 PUSH1 0xE1 SHL DUP2 MSTORE PUSH1 0x4 DUP2 ADD DUP8 SWAP1 MSTORE PUSH1 0x24 SWAP1 REVERT JUMPDEST PUSH1 0x0 DUP3 DUP2 MSTORE PUSH1 0x6 PUSH1 0x20 MSTORE PUSH1 0x40 SWAP1 KECCAK256 DUP1 SLOAD PUSH1 0x1 PUSH1 0x1 PUSH1 0xA0 SHL SUB NOT AND SWAP1 SSTORE DUP1 DUP10 MSTORE PUSH1 0x5 PUSH1 0x20 MSTORE PUSH1 0x40 DUP10 KECCAK256 DUP1 SLOAD PUSH1 0x0 NOT ADD SWAP1 SSTORE PUSH2 0xEFC JUMP JUMPDEST PUSH1 0x40 MLOAD PUSH4 0x32505749 PUSH1 0xE1 SHL DUP2 MSTORE PUSH1 0x4 DUP2 ADD DUP8 SWAP1 MSTORE PUSH1 0x24 SWAP1 REVERT JUMPDEST PUSH4 0x4E487B71 PUSH1 0xE0 SHL DUP8 MSTORE PUSH1 0x31 PUSH1 0x4 MSTORE PUSH1 0x24 DUP8 REVERT JUMPDEST PUSH4 0x4E487B71 PUSH1 0xE0 SHL DUP10 MSTORE PUSH1 0x11 PUSH1 0x4 MSTORE PUSH1 0x24 DUP10 REVERT JUMPDEST PUSH4 0x4E487B71 PUSH1 0xE0 SHL DUP7 MSTORE PUSH1 0x12 PUSH1 0x4 MSTORE PUSH1 0x24 DUP7 REVERT JUMPDEST PUSH4 0x4E487B71 PUSH1 0xE0 SHL DUP8 MSTORE PUSH1 0x41 PUSH1 0x4 MSTORE PUSH1 0x24 DUP8 REVERT JUMPDEST PUSH1 0x40 MLOAD PUSH3 0x461BCD PUSH1 0xE5 SHL DUP2 MSTORE PUSH1 0x20 PUSH1 0x4 DUP3 ADD MSTORE PUSH1 0x14 PUSH1 0x24 DUP3 ADD MSTORE PUSH20 0x125B9CDD59999A58DA595B9D081C185E5B595B9D PUSH1 0x62 SHL PUSH1 0x44 DUP3 ADD MSTORE PUSH1 0x64 SWAP1 REVERT JUMPDEST PUSH1 0x40 MLOAD PUSH3 0x461BCD PUSH1 0xE5 SHL DUP2 MSTORE PUSH1 0x20 PUSH1 0x4 DUP3 ADD MSTORE PUSH1 0x19 PUSH1 0x24 DUP3 ADD MSTORE PUSH32 0x4D656D6265727368697020746F6B656E20726571756972656400000000000000 PUSH1 0x44 DUP3 ADD MSTORE PUSH1 0x64 SWAP1 REVERT JUMPDEST SWAP1 POP PUSH1 0x20 DUP2 RETURNDATASIZE PUSH1 0x20 GT PUSH2 0x13A0 JUMPI JUMPDEST DUP2 PUSH2 0x1391 PUSH1 0x20 SWAP4 DUP4 PUSH2 0x3246 JUMP JUMPDEST DUP2 ADD SUB SLT PUSH2 0x1188 JUMPI MLOAD CODESIZE PUSH2 0xD6B JUMP JUMPDEST RETURNDATASIZE SWAP2 POP PUSH2 0x1384 JUMP JUMPDEST PUSH1 0x40 MLOAD RETURNDATASIZE DUP6 DUP3 RETURNDATACOPY RETURNDATASIZE SWAP1 REVERT JUMPDEST PUSH1 0x40 MLOAD PUSH3 0x461BCD PUSH1 0xE5 SHL DUP2 MSTORE PUSH1 0x20 PUSH1 0x4 DUP3 ADD MSTORE PUSH1 0x25 PUSH1 0x24 DUP3 ADD MSTORE PUSH32 0x4E6F2065646974696F6E7320617661696C61626C6520666F72207075626C6963 PUSH1 0x44 DUP3 ADD MSTORE PUSH5 0x2073616C65 PUSH1 0xD8 SHL PUSH1 0x64 DUP3 ADD MSTORE PUSH1 0x84 SWAP1 REVERT JUMPDEST PUSH1 0x40 MLOAD PUSH3 0x461BCD PUSH1 0xE5 SHL DUP2 MSTORE PUSH1 0x20 PUSH1 0x4 DUP3 ADD MSTORE PUSH1 0x21 PUSH1 0x24 DUP3 ADD MSTORE PUSH32 0x416C7265616479206F776E73204E465420666F7220746869732061727469636C PUSH1 0x44 DUP3 ADD MSTORE PUSH1 0x65 PUSH1 0xF8 SHL PUSH1 0x64 DUP3 ADD MSTORE PUSH1 0x84 SWAP1 REVERT JUMPDEST PUSH1 0x40 MLOAD PUSH3 0x461BCD PUSH1 0xE5 SHL DUP2 MSTORE PUSH1 0x20 PUSH1 0x4 DUP3 ADD MSTORE PUSH1 0x16 PUSH1 0x24 DUP3 ADD MSTORE PUSH22 0x105C9D1A58DB1948191BD95CC81B9BDD08195E1A5CDD PUSH1 0x52 SHL PUSH1 0x44 DUP3 ADD MSTORE PUSH1 0x64 SWAP1 REVERT JUMPDEST POP CALLVALUE PUSH2 0x241 JUMPI PUSH1 0x80 CALLDATASIZE PUSH1 0x3 NOT ADD SLT PUSH2 0x241 JUMPI PUSH2 0x14AD PUSH2 0x3113 JUMP JUMPDEST PUSH2 0x14B5 PUSH2 0x312E JUMP JUMPDEST PUSH1 0x64 CALLDATALOAD SWAP2 PUSH1 0x1 PUSH1 0x1 PUSH1 0x40 SHL SUB DUP4 GT PUSH2 0x14F6 JUMPI CALLDATASIZE PUSH1 0x23 DUP5 ADD SLT ISZERO PUSH2 0x14F6 JUMPI PUSH2 0x14E9 PUSH2 0x14F3 SWAP4 CALLDATASIZE SWAP1 PUSH1 0x24 DUP2 PUSH1 0x4 ADD CALLDATALOAD SWAP2 ADD PUSH2 0x3282 JUMP JUMPDEST SWAP2 PUSH1 0x44 CALLDATALOAD SWAP2 PUSH2 0x35F4 JUMP JUMPDEST DUP1 RETURN JUMPDEST DUP4 DUP1 REVERT JUMPDEST POP CALLVALUE PUSH2 0x241 JUMPI PUSH1 0x20 CALLDATASIZE PUSH1 0x3 NOT ADD SLT PUSH2 0x241 JUMPI PUSH1 0x40 PUSH1 0x20 SWAP2 PUSH1 0x4 CALLDATALOAD DUP2 MSTORE PUSH1 0xE DUP4 MSTORE KECCAK256 SLOAD PUSH1 0x40 MLOAD SWAP1 DUP2 MSTORE RETURN JUMPDEST POP CALLVALUE PUSH2 0x241 JUMPI DUP1 PUSH1 0x3 NOT CALLDATASIZE ADD SLT PUSH2 0x241 JUMPI PUSH1 0x40 MLOAD PUSH32 0x0 PUSH1 0x1 PUSH1 0x1 PUSH1 0xA0 SHL SUB AND DUP2 MSTORE PUSH1 0x20 SWAP1 RETURN JUMPDEST POP CALLVALUE PUSH2 0x241 JUMPI PUSH1 0x40 CALLDATASIZE PUSH1 0x3 NOT ADD SLT PUSH2 0x241 JUMPI PUSH2 0x1583 PUSH2 0x3113 JUMP JUMPDEST PUSH1 0x24 CALLDATALOAD SWAP1 DUP2 ISZERO ISZERO DUP1 SWAP3 SUB PUSH2 0x1188 JUMPI PUSH1 0x1 PUSH1 0x1 PUSH1 0xA0 SHL SUB AND SWAP1 DUP2 ISZERO PUSH2 0x15F3 JUMPI CALLER DUP4 MSTORE PUSH1 0x7 PUSH1 0x20 MSTORE PUSH1 0x40 DUP4 KECCAK256 DUP3 DUP5 MSTORE PUSH1 0x20 MSTORE PUSH1 0x40 DUP4 KECCAK256 PUSH1 0xFF NOT DUP2 SLOAD AND PUSH1 0xFF DUP4 AND OR SWAP1 SSTORE PUSH1 0x40 MLOAD SWAP1 DUP2 MSTORE PUSH32 0x17307EAB39AB6107E8899845AD3D59BD9653F200F220920489CA2B5937696C31 PUSH1 0x20 CALLER SWAP3 LOG3 DUP1 RETURN JUMPDEST PUSH1 0x40 MLOAD PUSH4 0xB611743 PUSH1 0xE3 SHL DUP2 MSTORE PUSH1 0x4 DUP2 ADD DUP4 SWAP1 MSTORE PUSH1 0x24 SWAP1 REVERT JUMPDEST POP CALLVALUE PUSH2 0x241 JUMPI PUSH1 0x20 DUP1 PUSH1 0x3 NOT CALLDATASIZE ADD SLT PUSH2 0x16BE JUMPI PUSH1 0x4 CALLDATALOAD DUP3 MSTORE PUSH1 0x11 DUP2 MSTORE PUSH1 0x40 DUP3 KECCAK256 PUSH1 0x40 MLOAD SWAP3 DUP4 DUP4 DUP4 SLOAD SWAP2 DUP3 DUP2 MSTORE ADD SWAP1 DUP2 SWAP4 DUP4 MSTORE DUP5 DUP4 KECCAK256 SWAP1 DUP4 JUMPDEST DUP2 DUP2 LT PUSH2 0x16A1 JUMPI POP POP POP DUP5 PUSH2 0x165A SWAP2 SUB DUP6 PUSH2 0x3246 JUMP JUMPDEST PUSH1 0x40 MLOAD SWAP4 DUP4 DUP6 SWAP5 DUP6 ADD SWAP2 DUP2 DUP7 MSTORE MLOAD DUP1 SWAP3 MSTORE PUSH1 0x40 DUP6 ADD SWAP4 SWAP3 JUMPDEST DUP3 DUP2 LT PUSH2 0x1681 JUMPI POP POP POP POP SUB SWAP1 RETURN JUMPDEST DUP4 MLOAD PUSH1 0x1 PUSH1 0x1 PUSH1 0xA0 SHL SUB AND DUP6 MSTORE DUP7 SWAP6 POP SWAP4 DUP2 ADD SWAP4 SWAP3 DUP2 ADD SWAP3 PUSH1 0x1 ADD PUSH2 0x1672 JUMP JUMPDEST DUP3 SLOAD PUSH1 0x1 PUSH1 0x1 PUSH1 0xA0 SHL SUB AND DUP5 MSTORE SWAP3 DUP7 ADD SWAP3 PUSH1 0x1 SWAP3 DUP4 ADD SWAP3 ADD PUSH2 0x1644 JUMP JUMPDEST POP DUP1 REVERT JUMPDEST POP CALLVALUE PUSH2 0x241 JUMPI PUSH1 0x20 CALLDATASIZE PUSH1 0x3 NOT ADD SLT PUSH2 0x241 JUMPI PUSH2 0x16DC PUSH2 0x3113 JUMP JUMPDEST PUSH2 0x16E4 PUSH2 0x3426 JUMP JUMPDEST PUSH1 0x1 DUP1 PUSH1 0xA0 SHL SUB AND PUSH1 0x1 PUSH1 0x1 PUSH1 0x60 SHL SUB PUSH1 0xA0 SHL PUSH1 0xA SLOAD AND OR PUSH1 0xA SSTORE DUP1 RETURN JUMPDEST POP CALLVALUE PUSH2 0x241 JUMPI PUSH1 0x20 DUP1 PUSH1 0x3 NOT CALLDATASIZE ADD SLT PUSH2 0x16BE JUMPI PUSH1 0x4 CALLDATALOAD DUP3 MSTORE PUSH1 0x13 DUP2 MSTORE PUSH1 0x40 DUP3 KECCAK256 SWAP2 PUSH1 0x40 MLOAD DUP1 SWAP3 DUP1 DUP6 SLOAD SWAP3 DUP4 DUP2 MSTORE ADD SWAP5 DUP4 MSTORE DUP1 DUP4 KECCAK256 SWAP3 SWAP1 JUMPDEST DUP3 DUP3 LT PUSH2 0x175C JUMPI PUSH2 0xB9D DUP6 PUSH2 0x1750 DUP2 DUP10 SUB DUP3 PUSH2 0x3246 JUMP JUMPDEST PUSH1 0x40 MLOAD SWAP2 DUP3 SWAP2 DUP3 PUSH2 0x3188 JUMP JUMPDEST DUP4 SLOAD DUP7 MSTORE SWAP5 DUP6 ADD SWAP5 PUSH1 0x1 SWAP4 DUP5 ADD SWAP4 SWAP1 SWAP2 ADD SWAP1 PUSH2 0x1739 JUMP JUMPDEST POP CALLVALUE PUSH2 0x241 JUMPI DUP1 PUSH1 0x3 NOT CALLDATASIZE ADD SLT PUSH2 0x241 JUMPI PUSH1 0x40 MLOAD SWAP1 DUP1 PUSH1 0x3 SLOAD PUSH2 0x1795 DUP2 PUSH2 0x3346 JUMP JUMPDEST DUP1 DUP6 MSTORE SWAP2 PUSH1 0x1 SWAP2 DUP1 DUP4 AND SWAP1 DUP2 ISZERO PUSH2 0x181A JUMPI POP PUSH1 0x1 EQ PUSH2 0x17BF JUMPI JUMPDEST PUSH2 0xB9D DUP6 PUSH2 0xB89 DUP2 DUP8 SUB DUP3 PUSH2 0x3246 JUMP JUMPDEST SWAP3 POP PUSH1 0x3 DUP4 MSTORE PUSH32 0xC2575A0E9E593C00F959F8C92F12DB2869C3395A3B0502D05E2516446F71F85B JUMPDEST DUP3 DUP5 LT PUSH2 0x1802 JUMPI POP POP POP DUP2 ADD PUSH1 0x20 ADD PUSH2 0xB89 DUP3 PUSH2 0xB9D PUSH2 0x17AF JUMP JUMPDEST DUP1 SLOAD PUSH1 0x20 DUP6 DUP8 ADD DUP2 ADD SWAP2 SWAP1 SWAP2 MSTORE SWAP1 SWAP4 ADD SWAP3 DUP2 ADD PUSH2 0x17E7 JUMP JUMPDEST DUP7 SWAP6 POP PUSH2 0xB9D SWAP7 SWAP4 POP PUSH1 0x20 SWAP3 POP PUSH2 0xB89 SWAP5 SWAP2 POP PUSH1 0xFF NOT AND DUP3 DUP5 ADD MSTORE ISZERO ISZERO PUSH1 0x5 SHL DUP3 ADD ADD SWAP3 SWAP4 PUSH2 0x17AF JUMP JUMPDEST POP CALLVALUE PUSH2 0x241 JUMPI DUP1 PUSH1 0x3 NOT CALLDATASIZE ADD SLT PUSH2 0x241 JUMPI PUSH1 0x9 SLOAD PUSH1 0x40 MLOAD PUSH1 0x1 PUSH1 0x1 PUSH1 0xA0 SHL SUB SWAP1 SWAP2 AND DUP2 MSTORE PUSH1 0x20 SWAP1 RETURN JUMPDEST POP CALLVALUE PUSH2 0x241 JUMPI PUSH1 0x20 CALLDATASIZE PUSH1 0x3 NOT ADD SLT PUSH2 0x241 JUMPI PUSH1 0x40 PUSH1 0x20 SWAP2 PUSH1 0x4 CALLDATALOAD DUP2 MSTORE PUSH1 0x14 DUP4 MSTORE KECCAK256 SLOAD PUSH1 0x40 MLOAD SWAP1 DUP2 MSTORE RETURN JUMPDEST PUSH2 0x3323 JUMP JUMPDEST POP CALLVALUE PUSH2 0x241 JUMPI DUP1 PUSH1 0x3 NOT CALLDATASIZE ADD SLT PUSH2 0x241 JUMPI PUSH2 0x18B5 PUSH2 0x3426 JUMP JUMPDEST PUSH1 0x9 DUP1 SLOAD PUSH1 0x1 PUSH1 0x1 PUSH1 0xA0 SHL SUB NOT DUP2 AND SWAP1 SWAP2 SSTORE DUP2 SWAP1 PUSH1 0x1 PUSH1 0x1 PUSH1 0xA0 SHL SUB AND PUSH32 0x8BE0079C531659141344CD1FD0A4F28419497F9722A3DAAFE3B4186F6B6457E0 DUP3 DUP1 LOG3 DUP1 RETURN JUMPDEST POP CALLVALUE PUSH2 0x241 JUMPI PUSH1 0x20 CALLDATASIZE PUSH1 0x3 NOT ADD SLT PUSH2 0x241 JUMPI PUSH1 0x1 PUSH1 0x1 PUSH1 0xA0 SHL SUB PUSH2 0x191B PUSH2 0x3113 JUMP JUMPDEST AND DUP1 ISZERO PUSH2 0x1938 JUMPI DUP2 PUSH1 0x40 SWAP2 PUSH1 0x20 SWAP4 MSTORE PUSH1 0x5 DUP4 MSTORE KECCAK256 SLOAD PUSH1 0x40 MLOAD SWAP1 DUP2 MSTORE RETURN JUMPDEST PUSH1 0x40 MLOAD PUSH4 0x22718AD9 PUSH1 0xE2 SHL DUP2 MSTORE PUSH1 0x4 DUP2 ADD DUP4 SWAP1 MSTORE PUSH1 0x24 SWAP1 REVERT JUMPDEST POP CALLVALUE PUSH2 0x241 JUMPI PUSH1 0x40 CALLDATASIZE PUSH1 0x3 NOT ADD SLT PUSH2 0x241 JUMPI PUSH1 0x40 PUSH1 0x20 SWAP2 PUSH2 0x1970 PUSH2 0x312E JUMP JUMPDEST PUSH1 0x4 CALLDATALOAD DUP3 MSTORE PUSH1 0x12 DUP5 MSTORE DUP3 DUP3 KECCAK256 PUSH1 0x1 PUSH1 0x1 PUSH1 0xA0 SHL SUB SWAP1 SWAP2 AND DUP3 MSTORE DUP4 MSTORE KECCAK256 SLOAD PUSH1 0x40 MLOAD SWAP1 DUP2 MSTORE RETURN JUMPDEST POP CALLVALUE PUSH2 0x241 JUMPI PUSH1 0x20 CALLDATASIZE PUSH1 0x3 NOT ADD SLT PUSH2 0x241 JUMPI PUSH2 0xB9D PUSH2 0xB89 PUSH1 0x4 CALLDATALOAD PUSH2 0x3840 JUMP JUMPDEST POP CALLVALUE PUSH2 0x241 JUMPI PUSH1 0x20 CALLDATASIZE PUSH1 0x3 NOT ADD SLT PUSH2 0x241 JUMPI PUSH1 0x20 PUSH2 0x19D4 PUSH1 0x4 CALLDATALOAD PUSH2 0x3743 JUMP JUMPDEST PUSH1 0x40 MLOAD PUSH1 0x1 PUSH1 0x1 PUSH1 0xA0 SHL SUB SWAP1 SWAP2 AND DUP2 MSTORE RETURN JUMPDEST POP CALLVALUE PUSH2 0x241 JUMPI PUSH1 0x20 CALLDATASIZE PUSH1 0x3 NOT ADD SLT PUSH2 0x241 JUMPI PUSH1 0x40 PUSH1 0x20 SWAP2 PUSH1 0x4 CALLDATALOAD DUP2 MSTORE PUSH1 0xF DUP4 MSTORE KECCAK256 SLOAD PUSH1 0x40 MLOAD SWAP1 DUP2 MSTORE RETURN JUMPDEST POP CALLVALUE PUSH2 0x241 JUMPI DUP1 PUSH1 0x3 NOT CALLDATASIZE ADD SLT PUSH2 0x241 JUMPI PUSH1 0x20 PUSH1 0x40 MLOAD PUSH2 0x1F4 DUP2 MSTORE RETURN JUMPDEST POP CALLVALUE PUSH2 0x241 JUMPI PUSH1 0x40 CALLDATASIZE PUSH1 0x3 NOT ADD SLT PUSH2 0x241 JUMPI PUSH1 0x20 SWAP1 PUSH1 0x40 SWAP1 PUSH1 0x1 PUSH1 0x1 PUSH1 0xA0 SHL SUB PUSH2 0x1A55 PUSH2 0x3113 JUMP JUMPDEST AND DUP2 MSTORE PUSH1 0x10 DUP4 MSTORE DUP2 DUP2 KECCAK256 PUSH1 0x24 CALLDATALOAD DUP3 MSTORE DUP4 MSTORE KECCAK256 SLOAD PUSH1 0x40 MLOAD SWAP1 DUP2 MSTORE RETURN JUMPDEST POP CALLVALUE PUSH2 0x241 JUMPI PUSH2 0x14F3 PUSH2 0x1A82 CALLDATASIZE PUSH2 0x32EE JUMP JUMPDEST SWAP1 PUSH1 0x40 MLOAD SWAP3 PUSH2 0x1A90 DUP5 PUSH2 0x31F5 JUMP JUMPDEST DUP6 DUP5 MSTORE PUSH2 0x35F4 JUMP JUMPDEST POP CALLVALUE PUSH2 0x241 JUMPI DUP1 PUSH1 0x3 NOT CALLDATASIZE ADD SLT PUSH2 0x241 JUMPI PUSH1 0x20 PUSH1 0x40 MLOAD PUSH1 0x3 DUP2 MSTORE RETURN JUMPDEST POP CALLVALUE PUSH2 0x241 JUMPI DUP1 PUSH1 0x3 NOT CALLDATASIZE ADD SLT PUSH2 0x241 JUMPI PUSH1 0x20 PUSH1 0x40 MLOAD PUSH1 0xC8 DUP2 MSTORE RETURN JUMPDEST POP CALLVALUE PUSH2 0x241 JUMPI DUP1 PUSH1 0x3 NOT CALLDATASIZE ADD SLT PUSH2 0x241 JUMPI PUSH1 0x20 PUSH1 0x40 MLOAD PUSH20 0x9402F9F20B4A27B55B1CC6CF015D98F764814FB2 DUP2 MSTORE RETURN JUMPDEST POP CALLVALUE PUSH2 0x241 JUMPI PUSH2 0x1B0E CALLDATASIZE PUSH2 0x3144 JUMP JUMPDEST SWAP2 SWAP1 DUP2 MSTORE PUSH1 0x20 SWAP2 PUSH1 0xE DUP4 MSTORE PUSH1 0x40 DUP3 KECCAK256 SLOAD DUP3 MSTORE PUSH1 0xD DUP4 MSTORE PUSH1 0x40 DUP3 KECCAK256 SWAP1 PUSH1 0x40 MLOAD PUSH2 0x1B35 DUP2 PUSH2 0x31C3 JUMP JUMPDEST DUP3 SLOAD DUP2 MSTORE PUSH1 0x1 SWAP3 PUSH2 0x1B47 DUP5 DUP3 ADD PUSH2 0x3380 JUMP JUMPDEST DUP7 DUP4 ADD MSTORE PUSH2 0x1B57 PUSH1 0x2 DUP3 ADD PUSH2 0x3380 JUMP JUMPDEST PUSH1 0x40 DUP4 ADD MSTORE PUSH2 0x1B68 PUSH1 0x3 DUP3 ADD PUSH2 0x3380 JUMP JUMPDEST PUSH1 0x60 DUP4 ADD MSTORE PUSH1 0x4 DUP2 ADD SLOAD PUSH1 0x1 PUSH1 0x1 PUSH1 0xA0 SHL SUB SWAP1 DUP2 AND PUSH1 0x80 DUP5 ADD SWAP1 DUP2 MSTORE SWAP1 SWAP7 SWAP1 SWAP5 PUSH2 0x1B94 PUSH1 0x5 DUP5 ADD PUSH2 0x3380 JUMP JUMPDEST PUSH1 0xA0 DUP6 ADD MSTORE PUSH2 0x1BA5 PUSH1 0x6 DUP5 ADD PUSH2 0x3380 JUMP JUMPDEST PUSH1 0xC0 DUP6 ADD MSTORE PUSH1 0x7 DUP4 ADD DUP1 SLOAD SWAP1 PUSH2 0x1BBA DUP3 PUSH2 0x32D7 JUMP JUMPDEST SWAP4 PUSH2 0x1BC8 PUSH1 0x40 MLOAD SWAP6 DUP7 PUSH2 0x3246 JUMP JUMPDEST DUP3 DUP6 MSTORE DUP1 DUP6 ADD SWAP2 DUP11 MSTORE DUP1 DUP11 KECCAK256 DUP11 SWAP3 JUMPDEST DUP5 DUP5 LT PUSH2 0x1CB8 JUMPI POP POP POP POP POP POP PUSH2 0x1C0 SWAP2 PUSH1 0xE SWAP2 PUSH1 0xE0 DUP6 ADD MSTORE PUSH1 0x8 DUP2 ADD SLOAD PUSH2 0x100 DUP6 ADD MSTORE PUSH1 0x9 DUP2 ADD SLOAD PUSH2 0x120 DUP6 ADD MSTORE PUSH1 0xA DUP2 ADD SLOAD PUSH2 0x140 DUP6 ADD MSTORE PUSH1 0xB DUP2 ADD SLOAD PUSH2 0x160 DUP6 ADD MSTORE PUSH1 0xC DUP2 ADD SLOAD PUSH2 0x180 DUP6 ADD MSTORE PUSH2 0x1C3C PUSH1 0xFF PUSH1 0xD DUP4 ADD SLOAD AND PUSH2 0x1A0 DUP7 ADD PUSH2 0x37B7 JUMP JUMPDEST ADD SLOAD SWAP2 ADD MSTORE PUSH2 0x1EA SWAP1 DUP2 DUP2 MUL SWAP2 DUP2 DUP4 DIV EQ SWAP1 ISZERO OR ISZERO PUSH2 0x1CA4 JUMPI PUSH2 0x2710 SWAP1 DIV SWAP2 PUSH1 0x62 DUP4 MUL SWAP3 DUP1 DUP5 DIV PUSH1 0x62 EQ SWAP1 ISZERO OR ISZERO PUSH2 0x1C90 JUMPI POP MLOAD PUSH1 0x40 DUP1 MLOAD SWAP4 SWAP1 SWAP2 AND PUSH1 0x1 PUSH1 0x1 PUSH1 0xA0 SHL SUB AND DUP4 MSTORE PUSH1 0x64 SWAP1 SWAP2 DIV PUSH1 0x20 DUP4 ADD MSTORE SWAP1 RETURN JUMPDEST PUSH4 0x4E487B71 PUSH1 0xE0 SHL DUP2 MSTORE PUSH1 0x11 PUSH1 0x4 MSTORE PUSH1 0x24 SWAP1 REVERT JUMPDEST PUSH4 0x4E487B71 PUSH1 0xE0 SHL DUP4 MSTORE PUSH1 0x11 PUSH1 0x4 MSTORE PUSH1 0x24 DUP4 REVERT JUMPDEST DUP6 DUP4 DUP2 SWAP3 PUSH2 0x1CC5 DUP6 PUSH2 0x3380 JUMP JUMPDEST DUP2 MSTORE ADD SWAP3 ADD SWAP4 ADD SWAP3 SWAP1 PUSH2 0x1BD7 JUMP JUMPDEST POP CALLVALUE PUSH2 0x241 JUMPI PUSH2 0x1CE2 CALLDATASIZE PUSH2 0x3144 JUMP JUMPDEST SWAP2 SWAP1 DUP2 MSTORE PUSH1 0x11 PUSH1 0x20 MSTORE PUSH1 0x40 DUP2 KECCAK256 SWAP1 DUP2 SLOAD DUP4 LT ISZERO PUSH2 0x241 JUMPI PUSH1 0x20 PUSH2 0x1D05 DUP5 DUP5 PUSH2 0x315A JUMP JUMPDEST SWAP1 SLOAD PUSH1 0x40 MLOAD PUSH1 0x3 SWAP3 SWAP1 SWAP3 SHL SHR PUSH1 0x1 PUSH1 0x1 PUSH1 0xA0 SHL SUB AND DUP2 MSTORE RETURN JUMPDEST POP CALLVALUE PUSH2 0x241 JUMPI PUSH2 0x14F3 PUSH2 0x1D30 CALLDATASIZE PUSH2 0x32EE JUMP JUMPDEST SWAP2 PUSH2 0x3452 JUMP JUMPDEST POP PUSH2 0x140 CALLDATASIZE PUSH1 0x3 NOT ADD SLT PUSH2 0x241 JUMPI PUSH1 0x4 CALLDATALOAD PUSH1 0x1 PUSH1 0x1 PUSH1 0x40 SHL SUB DUP2 GT PUSH2 0x16BE JUMPI PUSH2 0x1D63 SWAP1 CALLDATASIZE SWAP1 PUSH1 0x4 ADD PUSH2 0x32B9 JUMP JUMPDEST SWAP1 PUSH1 0x24 CALLDATALOAD PUSH1 0x1 PUSH1 0x1 PUSH1 0x40 SHL SUB DUP2 GT PUSH2 0x16BE JUMPI PUSH2 0x1D83 SWAP1 CALLDATASIZE SWAP1 PUSH1 0x4 ADD PUSH2 0x32B9 JUMP JUMPDEST SWAP1 PUSH1 0x44 CALLDATALOAD PUSH1 0x1 PUSH1 0x1 PUSH1 0x40 SHL SUB DUP2 GT PUSH2 0x16BE JUMPI PUSH2 0x1DA3 SWAP1 CALLDATASIZE SWAP1 PUSH1 0x4 ADD PUSH2 0x32B9 JUMP JUMPDEST SWAP3 PUSH1 0x64 CALLDATALOAD PUSH1 0x1 PUSH1 0x1 PUSH1 0x40 SHL SUB DUP2 GT PUSH2 0x1188 JUMPI PUSH2 0x1DC3 SWAP1 CALLDATASIZE SWAP1 PUSH1 0x4 ADD PUSH2 0x32B9 JUMP JUMPDEST SWAP4 PUSH1 0x84 CALLDATALOAD PUSH1 0x1 PUSH1 0x1 PUSH1 0x40 SHL SUB DUP2 GT PUSH2 0x14F6 JUMPI PUSH2 0x1DE3 SWAP1 CALLDATASIZE SWAP1 PUSH1 0x4 ADD PUSH2 0x32B9 JUMP JUMPDEST SWAP5 PUSH1 0xA4 CALLDATALOAD SWAP5 PUSH1 0x1 PUSH1 0x1 PUSH1 0x40 SHL SUB DUP7 GT PUSH2 0x2CC5 JUMPI CALLDATASIZE PUSH1 0x23 DUP8 ADD SLT ISZERO PUSH2 0x2CC5 JUMPI DUP6 PUSH1 0x4 ADD CALLDATALOAD SWAP6 PUSH2 0x1E10 DUP8 PUSH2 0x32D7 JUMP JUMPDEST SWAP7 PUSH2 0x1E1E PUSH1 0x40 MLOAD SWAP9 DUP10 PUSH2 0x3246 JUMP JUMPDEST DUP1 DUP9 MSTORE PUSH1 0x5 SHL DUP2 ADD PUSH1 0x24 ADD PUSH1 0x20 DUP9 ADD CALLDATASIZE DUP3 GT PUSH2 0x2CC1 JUMPI PUSH1 0x24 DUP4 ADD SWAP1 JUMPDEST DUP3 DUP3 LT PUSH2 0x2C8E JUMPI POP POP PUSH1 0x40 MLOAD PUSH4 0x70A08231 PUSH1 0xE0 SHL DUP2 MSTORE CALLER PUSH1 0x4 DUP3 ADD MSTORE SWAP2 POP PUSH1 0x20 SWAP1 POP DUP2 PUSH1 0x24 DUP2 PUSH32 0x0 PUSH1 0x1 PUSH1 0x1 PUSH1 0xA0 SHL SUB AND GAS STATICCALL SWAP1 DUP2 ISZERO PUSH2 0x11B4 JUMPI DUP7 SWAP2 PUSH2 0x2C58 JUMPI JUMPDEST POP ISZERO PUSH2 0x2C13 JUMPI CALLER DUP6 MSTORE PUSH1 0x10 PUSH1 0x20 MSTORE PUSH1 0x40 DUP6 KECCAK256 PUSH3 0x15180 TIMESTAMP DIV DUP7 MSTORE PUSH1 0x20 MSTORE PUSH1 0x3 PUSH1 0x40 DUP7 KECCAK256 SLOAD LT ISZERO PUSH2 0x2BC2 JUMPI PUSH8 0xDE0B6B3A7640000 CALLVALUE LT PUSH2 0x2B7D JUMPI DUP4 MLOAD DUP1 ISZERO ISZERO SWAP1 DUP2 PUSH2 0x2B71 JUMPI JUMPDEST POP ISZERO PUSH2 0x2B35 JUMPI DUP1 MLOAD DUP1 ISZERO ISZERO SWAP1 DUP2 PUSH2 0x2B28 JUMPI JUMPDEST POP ISZERO PUSH2 0x2AEA JUMPI DUP3 MLOAD DUP1 ISZERO ISZERO SWAP1 DUP2 PUSH2 0x2ADD JUMPI JUMPDEST POP ISZERO PUSH2 0x2A9F JUMPI PUSH1 0xC4 CALLDATALOAD ISZERO ISZERO DUP1 PUSH2 0x2A91 JUMPI JUMPDEST ISZERO PUSH2 0x2A58 JUMPI PUSH1 0xE4 CALLDATALOAD ISZERO PUSH2 0x2A1F JUMPI PUSH1 0xC4 CALLDATALOAD PUSH2 0x104 CALLDATALOAD GT PUSH2 0x29CF JUMPI PUSH2 0x124 CALLDATALOAD ISZERO ISZERO DUP1 PUSH2 0x29C1 JUMPI JUMPDEST ISZERO PUSH2 0x2984 JUMPI PUSH1 0xA DUP7 MLOAD GT PUSH2 0x294F JUMPI DUP5 JUMPDEST DUP7 MLOAD DUP2 LT ISZERO PUSH2 0x1FA7 JUMPI PUSH1 0x32 PUSH2 0x1F5E DUP3 DUP10 PUSH2 0x37A3 JUMP JUMPDEST MLOAD MLOAD GT PUSH2 0x1F73 JUMPI PUSH2 0x1F6E SWAP1 PUSH2 0x377E JUMP JUMPDEST PUSH2 0x1F49 JUMP JUMPDEST PUSH1 0x40 MLOAD PUSH3 0x461BCD PUSH1 0xE5 SHL DUP2 MSTORE PUSH1 0x20 PUSH1 0x4 DUP3 ADD MSTORE PUSH1 0xC PUSH1 0x24 DUP3 ADD MSTORE PUSH12 0x54616720746F6F206C6F6E67 PUSH1 0xA0 SHL PUSH1 0x44 DUP3 ADD MSTORE PUSH1 0x64 SWAP1 REVERT JUMPDEST POP DUP6 DUP8 PUSH2 0x1FB5 PUSH1 0xB SLOAD PUSH2 0x377E JUMP JUMPDEST SWAP5 DUP6 PUSH1 0xB SSTORE PUSH1 0x40 MLOAD SWAP4 PUSH2 0x1FC7 DUP6 PUSH2 0x31C3 JUMP JUMPDEST DUP7 DUP6 MSTORE DUP8 PUSH1 0x20 DUP7 ADD MSTORE PUSH1 0x40 DUP6 ADD MSTORE PUSH1 0x60 DUP5 ADD MSTORE CALLER PUSH1 0x80 DUP5 ADD MSTORE DUP4 PUSH1 0xA0 DUP5 ADD MSTORE PUSH1 0xC0 DUP4 ADD MSTORE PUSH1 0xE0 DUP3 ADD MSTORE TIMESTAMP PUSH2 0x100 DUP3 ADD MSTORE PUSH1 0xC4 CALLDATALOAD PUSH2 0x120 DUP3 ADD MSTORE PUSH1 0xE4 CALLDATALOAD PUSH2 0x140 DUP3 ADD MSTORE PUSH2 0x104 CALLDATALOAD PUSH2 0x160 DUP3 ADD MSTORE PUSH2 0x124 CALLDATALOAD PUSH2 0x180 DUP3 ADD MSTORE DUP5 PUSH2 0x1A0 DUP3 ADD MSTORE DUP5 PUSH2 0x1C0 DUP3 ADD MSTORE DUP3 DUP6 MSTORE PUSH1 0xD PUSH1 0x20 MSTORE PUSH1 0x40 DUP6 KECCAK256 SWAP1 DUP1 MLOAD DUP3 SSTORE PUSH1 0x20 DUP2 ADD MLOAD DUP1 MLOAD SWAP1 PUSH1 0x1 PUSH1 0x1 PUSH1 0x40 SHL SUB DUP3 GT PUSH2 0x122A JUMPI DUP2 SWAP1 PUSH2 0x2061 PUSH1 0x1 DUP7 ADD SLOAD PUSH2 0x3346 JUMP JUMPDEST PUSH1 0x1F DUP2 GT PUSH2 0x291C JUMPI JUMPDEST POP PUSH1 0x20 SWAP1 PUSH1 0x1F DUP4 GT PUSH1 0x1 EQ PUSH2 0x28AD JUMPI DUP10 SWAP3 PUSH2 0x28A2 JUMPI JUMPDEST POP POP DUP2 PUSH1 0x1 SHL SWAP2 PUSH1 0x0 NOT SWAP1 PUSH1 0x3 SHL SHR NOT AND OR PUSH1 0x1 DUP4 ADD SSTORE JUMPDEST PUSH1 0x40 DUP2 ADD MLOAD DUP1 MLOAD SWAP1 PUSH1 0x1 PUSH1 0x1 PUSH1 0x40 SHL SUB DUP3 GT PUSH2 0x122A JUMPI DUP2 SWAP1 PUSH2 0x20BD PUSH1 0x2 DUP7 ADD SLOAD PUSH2 0x3346 JUMP JUMPDEST PUSH1 0x1F DUP2 GT PUSH2 0x286F JUMPI JUMPDEST POP PUSH1 0x20 SWAP1 PUSH1 0x1F DUP4 GT PUSH1 0x1 EQ PUSH2 0x2800 JUMPI DUP10 SWAP3 PUSH2 0x27F5 JUMPI JUMPDEST POP POP DUP2 PUSH1 0x1 SHL SWAP2 PUSH1 0x0 NOT SWAP1 PUSH1 0x3 SHL SHR NOT AND OR PUSH1 0x2 DUP4 ADD SSTORE JUMPDEST PUSH1 0x60 DUP2 ADD MLOAD DUP1 MLOAD SWAP1 PUSH1 0x1 PUSH1 0x1 PUSH1 0x40 SHL SUB DUP3 GT PUSH2 0x122A JUMPI DUP2 SWAP1 PUSH2 0x2119 PUSH1 0x3 DUP7 ADD SLOAD PUSH2 0x3346 JUMP JUMPDEST PUSH1 0x1F DUP2 GT PUSH2 0x27C2 JUMPI JUMPDEST POP PUSH1 0x20 SWAP1 PUSH1 0x1F DUP4 GT PUSH1 0x1 EQ PUSH2 0x2753 JUMPI DUP10 SWAP3 PUSH2 0x2748 JUMPI JUMPDEST POP POP DUP2 PUSH1 0x1 SHL SWAP2 PUSH1 0x0 NOT SWAP1 PUSH1 0x3 SHL SHR NOT AND OR PUSH1 0x3 DUP4 ADD SSTORE JUMPDEST PUSH1 0x4 DUP3 ADD PUSH1 0x1 DUP1 PUSH1 0xA0 SHL SUB PUSH1 0x80 DUP4 ADD MLOAD AND PUSH1 0x1 PUSH1 0x1 PUSH1 0x60 SHL SUB PUSH1 0xA0 SHL DUP3 SLOAD AND OR SWAP1 SSTORE PUSH1 0xA0 DUP2 ADD MLOAD DUP1 MLOAD SWAP1 PUSH1 0x1 PUSH1 0x1 PUSH1 0x40 SHL SUB DUP3 GT PUSH2 0x122A JUMPI DUP2 SWAP1 PUSH2 0x2197 PUSH1 0x5 DUP7 ADD SLOAD PUSH2 0x3346 JUMP JUMPDEST PUSH1 0x1F DUP2 GT PUSH2 0x2715 JUMPI JUMPDEST POP PUSH1 0x20 SWAP1 PUSH1 0x1F DUP4 GT PUSH1 0x1 EQ PUSH2 0x26A6 JUMPI DUP10 SWAP3 PUSH2 0x269B JUMPI JUMPDEST POP POP DUP2 PUSH1 0x1 SHL SWAP2 PUSH1 0x0 NOT SWAP1 PUSH1 0x3 SHL SHR NOT AND OR PUSH1 0x5 DUP4 ADD SSTORE JUMPDEST PUSH1 0xC0 DUP2 ADD MLOAD DUP1 MLOAD SWAP1 PUSH1 0x1 PUSH1 0x1 PUSH1 0x40 SHL SUB DUP3 GT PUSH2 0x122A JUMPI DUP2 SWAP1 PUSH2 0x21F3 PUSH1 0x6 DUP7 ADD SLOAD PUSH2 0x3346 JUMP JUMPDEST PUSH1 0x1F DUP2 GT PUSH2 0x2668 JUMPI JUMPDEST POP PUSH1 0x20 SWAP1 PUSH1 0x1F DUP4 GT PUSH1 0x1 EQ PUSH2 0x25F9 JUMPI DUP10 SWAP3 PUSH2 0x25EE JUMPI JUMPDEST POP POP DUP2 PUSH1 0x1 SHL SWAP2 PUSH1 0x0 NOT SWAP1 PUSH1 0x3 SHL SHR NOT AND OR PUSH1 0x6 DUP4 ADD SSTORE JUMPDEST PUSH1 0xE0 DUP2 ADD MLOAD DUP1 MLOAD SWAP1 PUSH1 0x1 PUSH1 0x40 SHL DUP3 GT PUSH2 0x122A JUMPI PUSH1 0x7 DUP5 ADD SLOAD DUP3 PUSH1 0x7 DUP7 ADD SSTORE DUP1 DUP4 LT PUSH2 0x257A JUMPI JUMPDEST POP PUSH1 0x20 ADD PUSH1 0x7 DUP5 ADD DUP9 MSTORE PUSH1 0x20 DUP9 KECCAK256 DUP9 SWAP2 JUMPDEST DUP4 DUP4 LT PUSH2 0x244A JUMPI POP POP POP POP PUSH2 0x100 DUP2 ADD MLOAD PUSH1 0x8 DUP4 ADD SSTORE PUSH2 0x120 DUP2 ADD MLOAD PUSH1 0x9 DUP4 ADD SSTORE PUSH2 0x140 DUP2 ADD MLOAD PUSH1 0xA DUP4 ADD SSTORE PUSH2 0x160 DUP2 ADD MLOAD PUSH1 0xB DUP4 ADD SSTORE PUSH2 0x180 DUP2 ADD MLOAD PUSH1 0xC DUP4 ADD SSTORE PUSH1 0xD DUP3 ADD PUSH2 0x1A0 DUP3 ADD MLOAD PUSH1 0x2 DUP2 LT ISZERO PUSH2 0x2436 JUMPI SWAP2 PUSH2 0x1C0 SWAP2 PUSH1 0xE SWAP4 PUSH1 0xFF DUP1 NOT DUP4 SLOAD AND SWAP2 AND OR SWAP1 SSTORE ADD MLOAD SWAP2 ADD SSTORE PUSH2 0x22DE PUSH2 0x104 CALLDATALOAD PUSH1 0xC4 CALLDATALOAD PUSH2 0x37F0 JUMP JUMPDEST POP PUSH1 0x1 PUSH2 0x104 CALLDATALOAD ADD DUP1 PUSH2 0x104 CALLDATALOAD GT PUSH2 0xC58 JUMPI JUMPDEST PUSH1 0xC4 CALLDATALOAD DUP2 GT ISZERO PUSH2 0x23F9 JUMPI POP CALLER DUP5 MSTORE PUSH1 0x10 PUSH1 0x20 MSTORE PUSH1 0x40 DUP5 KECCAK256 PUSH3 0x15180 TIMESTAMP DIV DUP6 MSTORE PUSH1 0x20 MSTORE PUSH1 0x40 DUP5 KECCAK256 PUSH2 0x2321 DUP2 SLOAD PUSH2 0x377E JUMP JUMPDEST SWAP1 SSTORE DUP4 DUP1 DUP1 DUP1 PUSH8 0xDE0B6B3A7640000 PUSH20 0x9402F9F20B4A27B55B1CC6CF015D98F764814FB2 DUP3 CALL ISZERO PUSH2 0x13A8 JUMPI PUSH8 0xDE0B6B3A7640000 CALLVALUE GT PUSH2 0x23BE JUMPI JUMPDEST PUSH2 0x23A4 PUSH32 0x9A83921AA1958993687DBB52EE90C6D28584E48A022470265AA4D743A24C9BA7 SWAP2 PUSH2 0x2396 PUSH1 0x40 MLOAD SWAP6 PUSH1 0x80 DUP8 MSTORE PUSH1 0x80 DUP8 ADD SWAP1 PUSH2 0x30EE JUMP JUMPDEST SWAP1 DUP6 DUP3 SUB PUSH1 0x20 DUP8 ADD MSTORE PUSH2 0x30EE JUMP JUMPDEST SWAP3 PUSH1 0xC4 CALLDATALOAD PUSH1 0x40 DUP3 ADD MSTORE PUSH1 0xE4 CALLDATALOAD PUSH1 0x60 DUP3 ADD MSTORE DUP1 CALLER SWAP5 SUB SWAP1 LOG3 DUP1 RETURN JUMPDEST PUSH8 0xDE0B6B3A763FFFF NOT CALLVALUE ADD CALLVALUE DUP2 GT PUSH2 0xC58 JUMPI DUP5 DUP1 DUP1 DUP1 SWAP4 DUP2 DUP2 ISZERO PUSH2 0x23F0 JUMPI JUMPDEST CALLER SWAP1 CALL PUSH2 0x235C JUMPI PUSH1 0x40 MLOAD RETURNDATASIZE DUP6 DUP3 RETURNDATACOPY RETURNDATASIZE SWAP1 REVERT JUMPDEST POP PUSH2 0x8FC PUSH2 0x23DE JUMP JUMPDEST DUP3 DUP6 MSTORE PUSH1 0x13 PUSH1 0x20 MSTORE PUSH1 0x40 DUP6 KECCAK256 DUP1 SLOAD SWAP1 PUSH1 0x1 PUSH1 0x40 SHL DUP3 LT ISZERO PUSH2 0x12E1 JUMPI DUP3 PUSH2 0xE76 DUP4 PUSH2 0x242C SWAP4 PUSH1 0x1 PUSH2 0x2431 SWAP8 SWAP7 ADD DUP2 SSTORE PUSH2 0x315A JUMP JUMPDEST PUSH2 0x377E JUMP JUMPDEST PUSH2 0x22F1 JUMP JUMPDEST PUSH4 0x4E487B71 PUSH1 0xE0 SHL DUP9 MSTORE PUSH1 0x21 PUSH1 0x4 MSTORE PUSH1 0x24 DUP9 REVERT JUMPDEST DUP1 MLOAD DUP1 MLOAD SWAP1 PUSH1 0x1 PUSH1 0x1 PUSH1 0x40 SHL SUB DUP3 GT PUSH2 0x2566 JUMPI DUP12 PUSH2 0x2468 DUP6 SLOAD PUSH2 0x3346 JUMP JUMPDEST PUSH1 0x1F DUP2 GT PUSH2 0x252B JUMPI JUMPDEST POP POP PUSH1 0x20 SWAP1 DUP13 PUSH1 0x1F DUP5 GT PUSH1 0x1 EQ PUSH2 0x24BE JUMPI SWAP3 DUP1 PUSH1 0x20 SWAP4 PUSH1 0x1 SWAP7 SWAP4 DUP8 SWAP7 SWAP3 PUSH2 0x24B3 JUMPI JUMPDEST POP POP PUSH1 0x0 NOT PUSH1 0x3 DUP4 SWAP1 SHL SHR NOT AND SWAP1 DUP5 SHL OR DUP6 SSTORE JUMPDEST ADD SWAP3 ADD SWAP3 ADD SWAP2 SWAP1 PUSH2 0x2261 JUMP JUMPDEST ADD MLOAD SWAP1 POP DUP16 DUP1 PUSH2 0x2493 JUMP JUMPDEST DUP6 SWAP1 MSTORE PUSH1 0x20 DUP14 KECCAK256 SWAP2 SWAP1 DUP14 JUMPDEST PUSH1 0x1F NOT DUP6 AND DUP2 LT PUSH2 0x2513 JUMPI POP DUP4 PUSH1 0x20 SWAP4 PUSH1 0x1 SWAP7 SWAP4 DUP8 SWAP7 SWAP4 DUP8 SWAP5 PUSH1 0x1F NOT DUP2 AND LT PUSH2 0x24FA JUMPI JUMPDEST POP POP POP DUP2 SHL ADD DUP6 SSTORE PUSH2 0x24A7 JUMP JUMPDEST ADD MLOAD PUSH1 0x0 NOT PUSH1 0xF8 DUP5 PUSH1 0x3 SHL AND SHR NOT AND SWAP1 SSTORE DUP16 DUP1 DUP1 PUSH2 0x24ED JUMP JUMPDEST SWAP2 SWAP3 PUSH1 0x20 PUSH1 0x1 DUP2 SWAP3 DUP7 DUP6 ADD MLOAD DUP2 SSTORE ADD SWAP5 ADD SWAP3 ADD PUSH2 0x24C9 JUMP JUMPDEST PUSH1 0x20 DUP3 DUP8 PUSH2 0x2555 SWAP5 MSTORE KECCAK256 PUSH1 0x1F DUP6 ADD PUSH1 0x5 SHR DUP2 ADD SWAP2 PUSH1 0x20 DUP7 LT PUSH2 0x255C JUMPI JUMPDEST PUSH1 0x1F ADD PUSH1 0x5 SHR ADD SWAP1 PUSH2 0x37D9 JUMP JUMPDEST DUP12 DUP14 PUSH2 0x2471 JUMP JUMPDEST SWAP1 SWAP2 POP DUP2 SWAP1 PUSH2 0x2548 JUMP JUMPDEST PUSH4 0x4E487B71 PUSH1 0xE0 SHL DUP13 MSTORE PUSH1 0x41 PUSH1 0x4 MSTORE PUSH1 0x24 DUP13 REVERT JUMPDEST PUSH1 0x7 DUP6 ADD DUP10 MSTORE PUSH1 0x20 DUP10 KECCAK256 SWAP1 DUP4 DUP3 ADD JUMPDEST DUP2 DUP4 ADD DUP2 LT PUSH2 0x2599 JUMPI POP POP PUSH2 0x2250 JUMP JUMPDEST DUP1 DUP12 PUSH2 0x25A7 PUSH1 0x1 SWAP4 SLOAD PUSH2 0x3346 JUMP JUMPDEST DUP1 PUSH2 0x25B5 JUMPI JUMPDEST POP POP ADD PUSH2 0x2589 JUMP JUMPDEST PUSH1 0x1F DUP2 GT DUP5 EQ PUSH2 0x25CA JUMPI POP DUP2 SSTORE JUMPDEST DUP12 DUP14 PUSH2 0x25AD JUMP JUMPDEST DUP3 DUP3 MSTORE PUSH2 0x25E5 PUSH1 0x1F PUSH1 0x20 DUP5 KECCAK256 SWAP3 ADD PUSH1 0x5 SHR DUP3 ADD DUP6 DUP4 ADD PUSH2 0x37D9 JUMP JUMPDEST DUP2 DUP4 SSTORE SSTORE PUSH2 0x25C3 JUMP JUMPDEST ADD MLOAD SWAP1 POP DUP9 DUP1 PUSH2 0x2212 JUMP JUMPDEST SWAP3 POP PUSH1 0x6 DUP6 ADD DUP10 MSTORE PUSH1 0x20 DUP10 KECCAK256 SWAP1 DUP10 SWAP4 JUMPDEST PUSH1 0x1F NOT DUP5 AND DUP6 LT PUSH2 0x264D JUMPI PUSH1 0x1 SWAP5 POP DUP4 PUSH1 0x1F NOT DUP2 AND LT PUSH2 0x2634 JUMPI JUMPDEST POP POP POP DUP2 SHL ADD PUSH1 0x6 DUP4 ADD SSTORE PUSH2 0x222A JUMP JUMPDEST ADD MLOAD PUSH1 0x0 NOT PUSH1 0xF8 DUP5 PUSH1 0x3 SHL AND SHR NOT AND SWAP1 SSTORE DUP9 DUP1 DUP1 PUSH2 0x2624 JUMP JUMPDEST DUP2 DUP2 ADD MLOAD DUP4 SSTORE PUSH1 0x20 SWAP5 DUP6 ADD SWAP5 PUSH1 0x1 SWAP1 SWAP4 ADD SWAP3 SWAP1 SWAP2 ADD SWAP1 PUSH2 0x2609 JUMP JUMPDEST PUSH2 0x2695 SWAP1 PUSH1 0x6 DUP8 ADD DUP12 MSTORE PUSH1 0x20 DUP12 KECCAK256 PUSH1 0x1F DUP6 ADD PUSH1 0x5 SHR DUP2 ADD SWAP2 PUSH1 0x20 DUP7 LT PUSH2 0x255C JUMPI PUSH1 0x1F ADD PUSH1 0x5 SHR ADD SWAP1 PUSH2 0x37D9 JUMP JUMPDEST DUP10 PUSH2 0x21FC JUMP JUMPDEST ADD MLOAD SWAP1 POP DUP9 DUP1 PUSH2 0x21B6 JUMP JUMPDEST SWAP3 POP PUSH1 0x5 DUP6 ADD DUP10 MSTORE PUSH1 0x20 DUP10 KECCAK256 SWAP1 DUP10 SWAP4 JUMPDEST PUSH1 0x1F NOT DUP5 AND DUP6 LT PUSH2 0x26FA JUMPI PUSH1 0x1 SWAP5 POP DUP4 PUSH1 0x1F NOT DUP2 AND LT PUSH2 0x26E1 JUMPI JUMPDEST POP POP POP DUP2 SHL ADD PUSH1 0x5 DUP4 ADD SSTORE PUSH2 0x21CE JUMP JUMPDEST ADD MLOAD PUSH1 0x0 NOT PUSH1 0xF8 DUP5 PUSH1 0x3 SHL AND SHR NOT AND SWAP1 SSTORE DUP9 DUP1 DUP1 PUSH2 0x26D1 JUMP JUMPDEST DUP2 DUP2 ADD MLOAD DUP4 SSTORE PUSH1 0x20 SWAP5 DUP6 ADD SWAP5 PUSH1 0x1 SWAP1 SWAP4 ADD SWAP3 SWAP1 SWAP2 ADD SWAP1 PUSH2 0x26B6 JUMP JUMPDEST PUSH2 0x2742 SWAP1 PUSH1 0x5 DUP8 ADD DUP12 MSTORE PUSH1 0x20 DUP12 KECCAK256 PUSH1 0x1F DUP6 ADD PUSH1 0x5 SHR DUP2 ADD SWAP2 PUSH1 0x20 DUP7 LT PUSH2 0x255C JUMPI PUSH1 0x1F ADD PUSH1 0x5 SHR ADD SWAP1 PUSH2 0x37D9 JUMP JUMPDEST DUP10 PUSH2 0x21A0 JUMP JUMPDEST ADD MLOAD SWAP1 POP DUP9 DUP1 PUSH2 0x2138 JUMP JUMPDEST SWAP3 POP PUSH1 0x3 DUP6 ADD DUP10 MSTORE PUSH1 0x20 DUP10 KECCAK256 SWAP1 DUP10 SWAP4 JUMPDEST PUSH1 0x1F NOT DUP5 AND DUP6 LT PUSH2 0x27A7 JUMPI PUSH1 0x1 SWAP5 POP DUP4 PUSH1 0x1F NOT DUP2 AND LT PUSH2 0x278E JUMPI JUMPDEST POP POP POP DUP2 SHL ADD PUSH1 0x3 DUP4 ADD SSTORE PUSH2 0x2150 JUMP JUMPDEST ADD MLOAD PUSH1 0x0 NOT PUSH1 0xF8 DUP5 PUSH1 0x3 SHL AND SHR NOT AND SWAP1 SSTORE DUP9 DUP1 DUP1 PUSH2 0x277E JUMP JUMPDEST DUP2 DUP2 ADD MLOAD DUP4 SSTORE PUSH1 0x20 SWAP5 DUP6 ADD SWAP5 PUSH1 0x1 SWAP1 SWAP4 ADD SWAP3 SWAP1 SWAP2 ADD SWAP1 PUSH2 0x2763 JUMP JUMPDEST PUSH2 0x27EF SWAP1 PUSH1 0x3 DUP8 ADD DUP12 MSTORE PUSH1 0x20 DUP12 KECCAK256 PUSH1 0x1F DUP6 ADD PUSH1 0x5 SHR DUP2 ADD SWAP2 PUSH1 0x20 DUP7 LT PUSH2 0x255C JUMPI PUSH1 0x1F ADD PUSH1 0x5 SHR ADD SWAP1 PUSH2 0x37D9 JUMP JUMPDEST DUP10 PUSH2 0x2122 JUMP JUMPDEST ADD MLOAD SWAP1 POP DUP9 DUP1 PUSH2 0x20DC JUMP JUMPDEST SWAP3 POP PUSH1 0x2 DUP6 ADD DUP10 MSTORE PUSH1 0x20 DUP10 KECCAK256 SWAP1 DUP10 SWAP4 JUMPDEST PUSH1 0x1F NOT DUP5 AND DUP6 LT PUSH2 0x2854 JUMPI PUSH1 0x1 SWAP5 POP DUP4 PUSH1 0x1F NOT DUP2 AND LT PUSH2 0x283B JUMPI JUMPDEST POP POP POP DUP2 SHL ADD PUSH1 0x2 DUP4 ADD SSTORE PUSH2 0x20F4 JUMP JUMPDEST ADD MLOAD PUSH1 0x0 NOT PUSH1 0xF8 DUP5 PUSH1 0x3 SHL AND SHR NOT AND SWAP1 SSTORE DUP9 DUP1 DUP1 PUSH2 0x282B JUMP JUMPDEST DUP2 DUP2 ADD MLOAD DUP4 SSTORE PUSH1 0x20 SWAP5 DUP6 ADD SWAP5 PUSH1 0x1 SWAP1 SWAP4 ADD SWAP3 SWAP1 SWAP2 ADD SWAP1 PUSH2 0x2810 JUMP JUMPDEST PUSH2 0x289C SWAP1 PUSH1 0x2 DUP8 ADD DUP12 MSTORE PUSH1 0x20 DUP12 KECCAK256 PUSH1 0x1F DUP6 ADD PUSH1 0x5 SHR DUP2 ADD SWAP2 PUSH1 0x20 DUP7 LT PUSH2 0x255C JUMPI PUSH1 0x1F ADD PUSH1 0x5 SHR ADD SWAP1 PUSH2 0x37D9 JUMP JUMPDEST DUP10 PUSH2 0x20C6 JUMP JUMPDEST ADD MLOAD SWAP1 POP DUP9 DUP1 PUSH2 0x2080 JUMP JUMPDEST SWAP3 POP PUSH1 0x1 DUP6 ADD DUP10 MSTORE PUSH1 0x20 DUP10 KECCAK256 SWAP1 DUP10 SWAP4 JUMPDEST PUSH1 0x1F NOT DUP5 AND DUP6 LT PUSH2 0x2901 JUMPI PUSH1 0x1 SWAP5 POP DUP4 PUSH1 0x1F NOT DUP2 AND LT PUSH2 0x28E8 JUMPI JUMPDEST POP POP POP DUP2 SHL ADD PUSH1 0x1 DUP4 ADD SSTORE PUSH2 0x2098 JUMP JUMPDEST ADD MLOAD PUSH1 0x0 NOT PUSH1 0xF8 DUP5 PUSH1 0x3 SHL AND SHR NOT AND SWAP1 SSTORE DUP9 DUP1 DUP1 PUSH2 0x28D8 JUMP JUMPDEST DUP2 DUP2 ADD MLOAD DUP4 SSTORE PUSH1 0x20 SWAP5 DUP6 ADD SWAP5 PUSH1 0x1 SWAP1 SWAP4 ADD SWAP3 SWAP1 SWAP2 ADD SWAP1 PUSH2 0x28BD JUMP JUMPDEST PUSH2 0x2949 SWAP1 PUSH1 0x1 DUP8 ADD DUP12 MSTORE PUSH1 0x20 DUP12 KECCAK256 PUSH1 0x1F DUP6 ADD PUSH1 0x5 SHR DUP2 ADD SWAP2 PUSH1 0x20 DUP7 LT PUSH2 0x255C JUMPI PUSH1 0x1F ADD PUSH1 0x5 SHR ADD SWAP1 PUSH2 0x37D9 JUMP JUMPDEST DUP10 PUSH2 0x206A JUMP JUMPDEST PUSH1 0x40 MLOAD PUSH3 0x461BCD PUSH1 0xE5 SHL DUP2 MSTORE PUSH1 0x20 PUSH1 0x4 DUP3 ADD MSTORE PUSH1 0xD PUSH1 0x24 DUP3 ADD MSTORE PUSH13 0x546F6F206D616E792074616773 PUSH1 0x98 SHL PUSH1 0x44 DUP3 ADD MSTORE PUSH1 0x64 SWAP1 REVERT JUMPDEST PUSH1 0x40 MLOAD PUSH3 0x461BCD PUSH1 0xE5 SHL DUP2 MSTORE PUSH1 0x20 PUSH1 0x4 DUP3 ADD MSTORE PUSH1 0x15 PUSH1 0x24 DUP3 ADD MSTORE PUSH21 0x496E76616C6964206C6963656E736520726174696F PUSH1 0x58 SHL PUSH1 0x44 DUP3 ADD MSTORE PUSH1 0x64 SWAP1 REVERT JUMPDEST POP PUSH1 0x64 PUSH2 0x124 CALLDATALOAD GT ISZERO PUSH2 0x1F39 JUMP JUMPDEST PUSH1 0x40 MLOAD PUSH3 0x461BCD PUSH1 0xE5 SHL DUP2 MSTORE PUSH1 0x20 PUSH1 0x4 DUP3 ADD MSTORE PUSH1 0x22 PUSH1 0x24 DUP3 ADD MSTORE PUSH32 0x43616E6E6F742072657461696E206D6F7265207468616E20746F74616C204E46 PUSH1 0x44 DUP3 ADD MSTORE PUSH2 0x5473 PUSH1 0xF0 SHL PUSH1 0x64 DUP3 ADD MSTORE PUSH1 0x84 SWAP1 REVERT JUMPDEST PUSH1 0x40 MLOAD PUSH3 0x461BCD PUSH1 0xE5 SHL DUP2 MSTORE PUSH1 0x20 PUSH1 0x4 DUP3 ADD MSTORE PUSH1 0x11 PUSH1 0x24 DUP3 ADD MSTORE PUSH17 0x496E76616C6964204E4654207072696365 PUSH1 0x78 SHL PUSH1 0x44 DUP3 ADD MSTORE PUSH1 0x64 SWAP1 REVERT JUMPDEST PUSH1 0x40 MLOAD PUSH3 0x461BCD PUSH1 0xE5 SHL DUP2 MSTORE PUSH1 0x20 PUSH1 0x4 DUP3 ADD MSTORE PUSH1 0x11 PUSH1 0x24 DUP3 ADD MSTORE PUSH17 0x125B9D985B1A59081391950818DBDD5B9D PUSH1 0x7A SHL PUSH1 0x44 DUP3 ADD MSTORE PUSH1 0x64 SWAP1 REVERT JUMPDEST POP PUSH2 0x2710 PUSH1 0xC4 CALLDATALOAD GT ISZERO PUSH2 0x1F14 JUMP JUMPDEST PUSH1 0x40 MLOAD PUSH3 0x461BCD PUSH1 0xE5 SHL DUP2 MSTORE PUSH1 0x20 PUSH1 0x4 DUP3 ADD MSTORE PUSH1 0x16 PUSH1 0x24 DUP3 ADD MSTORE PUSH22 0x92DCECC2D8D2C840E6EADADAC2E4F240D8CADCCEE8D PUSH1 0x53 SHL PUSH1 0x44 DUP3 ADD MSTORE PUSH1 0x64 SWAP1 REVERT JUMPDEST PUSH2 0x1F4 SWAP2 POP GT ISZERO CODESIZE PUSH2 0x1F03 JUMP JUMPDEST PUSH1 0x40 MLOAD PUSH3 0x461BCD PUSH1 0xE5 SHL DUP2 MSTORE PUSH1 0x20 PUSH1 0x4 DUP3 ADD MSTORE PUSH1 0x16 PUSH1 0x24 DUP3 ADD MSTORE PUSH22 0x92DCECC2D8D2C840C6DEDCE8CADCE840D8CADCCEE8D PUSH1 0x53 SHL PUSH1 0x44 DUP3 ADD MSTORE PUSH1 0x64 SWAP1 REVERT JUMPDEST PUSH2 0x61A8 SWAP2 POP GT ISZERO CODESIZE PUSH2 0x1EF1 JUMP JUMPDEST PUSH1 0x40 MLOAD PUSH3 0x461BCD PUSH1 0xE5 SHL DUP2 MSTORE PUSH1 0x20 PUSH1 0x4 DUP3 ADD MSTORE PUSH1 0x14 PUSH1 0x24 DUP3 ADD MSTORE PUSH20 0x92DCECC2D8D2C840E8D2E8D8CA40D8CADCCEE8D PUSH1 0x63 SHL PUSH1 0x44 DUP3 ADD MSTORE PUSH1 0x64 SWAP1 REVERT JUMPDEST PUSH1 0xC8 SWAP2 POP GT ISZERO CODESIZE PUSH2 0x1EDF JUMP JUMPDEST PUSH1 0x40 MLOAD PUSH3 0x461BCD PUSH1 0xE5 SHL DUP2 MSTORE PUSH1 0x20 PUSH1 0x4 DUP3 ADD MSTORE PUSH1 0x1B PUSH1 0x24 DUP3 ADD MSTORE PUSH32 0x496E73756666696369656E74207075626C697368696E67206665650000000000 PUSH1 0x44 DUP3 ADD MSTORE PUSH1 0x64 SWAP1 REVERT JUMPDEST PUSH1 0x40 MLOAD PUSH3 0x461BCD PUSH1 0xE5 SHL DUP2 MSTORE PUSH1 0x20 PUSH1 0x4 DUP3 ADD MSTORE PUSH1 0x23 PUSH1 0x24 DUP3 ADD MSTORE PUSH32 0x4461696C79206E61746976652061727469636C65206C696D6974206578636565 PUSH1 0x44 DUP3 ADD MSTORE PUSH3 0x191959 PUSH1 0xEA SHL PUSH1 0x64 DUP3 ADD MSTORE PUSH1 0x84 SWAP1 REVERT JUMPDEST PUSH1 0x40 MLOAD PUSH3 0x461BCD PUSH1 0xE5 SHL DUP2 MSTORE PUSH1 0x20 PUSH1 0x4 DUP3 ADD MSTORE PUSH1 0x1E PUSH1 0x24 DUP3 ADD MSTORE PUSH32 0x5075626C69736865722063726564656E7469616C732072657175697265640000 PUSH1 0x44 DUP3 ADD MSTORE PUSH1 0x64 SWAP1 REVERT JUMPDEST SWAP1 POP PUSH1 0x20 DUP2 RETURNDATASIZE PUSH1 0x20 GT PUSH2 0x2C86 JUMPI JUMPDEST DUP2 PUSH2 0x2C73 PUSH1 0x20 SWAP4 DUP4 PUSH2 0x3246 JUMP JUMPDEST DUP2 ADD SUB SLT PUSH2 0x2C82 JUMPI MLOAD CODESIZE PUSH2 0x1E9A JUMP JUMPDEST DUP6 DUP1 REVERT JUMPDEST RETURNDATASIZE SWAP2 POP PUSH2 0x2C66 JUMP JUMPDEST DUP2 CALLDATALOAD PUSH1 0x1 PUSH1 0x1 PUSH1 0x40 SHL SUB DUP2 GT PUSH2 0x2CBD JUMPI PUSH1 0x20 SWAP2 PUSH2 0x2CB2 DUP4 SWAP3 PUSH1 0x24 CALLDATASIZE SWAP2 DUP10 ADD ADD PUSH2 0x32B9 JUMP JUMPDEST DUP2 MSTORE ADD SWAP2 ADD SWAP1 PUSH2 0x1E3A JUMP JUMPDEST DUP10 DUP1 REVERT JUMPDEST DUP8 DUP1 REVERT JUMPDEST DUP5 DUP1 REVERT JUMPDEST POP CALLVALUE PUSH2 0x241 JUMPI PUSH1 0x20 SWAP1 DUP2 PUSH1 0x3 NOT CALLDATASIZE ADD SLT PUSH2 0x241 JUMPI PUSH2 0x2CE5 PUSH2 0x3113 JUMP JUMPDEST PUSH1 0xB SLOAD SWAP2 SWAP3 SWAP1 PUSH1 0x1 PUSH1 0x1 PUSH1 0xA0 SHL SUB SWAP1 DUP2 AND SWAP1 DUP5 PUSH1 0x1 JUMPDEST DUP6 DUP2 GT ISZERO PUSH2 0x2D92 JUMPI POP PUSH2 0x2D0D DUP7 PUSH2 0x32D7 JUMP JUMPDEST SWAP6 PUSH2 0x2D1B PUSH1 0x40 MLOAD SWAP8 DUP9 PUSH2 0x3246 JUMP JUMPDEST DUP1 DUP8 MSTORE PUSH2 0x2D2A PUSH1 0x1F NOT SWAP2 PUSH2 0x32D7 JUMP JUMPDEST ADD CALLDATASIZE DUP6 DUP9 ADD CALLDATACOPY DUP1 SWAP4 PUSH1 0x1 JUMPDEST DUP7 DUP2 GT ISZERO PUSH2 0x2D4B JUMPI PUSH1 0x40 MLOAD DUP1 PUSH2 0xB9D DUP11 DUP3 PUSH2 0x3188 JUMP JUMPDEST DUP1 DUP4 MSTORE PUSH1 0xD DUP3 MSTORE DUP5 DUP5 PUSH1 0x4 PUSH1 0x40 DUP7 KECCAK256 ADD SLOAD AND EQ PUSH2 0x2D71 JUMPI JUMPDEST PUSH2 0x2D6C SWAP1 PUSH2 0x377E JUMP JUMPDEST PUSH2 0x2D35 JUMP JUMPDEST SWAP5 PUSH2 0x2D8A DUP2 DUP8 PUSH2 0x2D84 PUSH2 0x2D6C SWAP5 DUP13 PUSH2 0x37A3 JUMP JUMPDEST MSTORE PUSH2 0x377E JUMP JUMPDEST SWAP6 SWAP1 POP PUSH2 0x2D63 JUMP JUMPDEST DUP1 DUP3 MSTORE PUSH1 0xD DUP6 MSTORE DUP4 DUP4 PUSH1 0x4 PUSH1 0x40 DUP6 KECCAK256 ADD SLOAD AND EQ PUSH2 0x2DB8 JUMPI JUMPDEST PUSH2 0x2DB3 SWAP1 PUSH2 0x377E JUMP JUMPDEST PUSH2 0x2CFB JUMP JUMPDEST SWAP6 PUSH2 0x2DC5 PUSH2 0x2DB3 SWAP2 PUSH2 0x377E JUMP JUMPDEST SWAP7 SWAP1 POP PUSH2 0x2DAA JUMP JUMPDEST POP CALLVALUE PUSH2 0x241 JUMPI PUSH2 0x2DDC CALLDATASIZE PUSH2 0x3144 JUMP JUMPDEST SWAP2 SWAP1 DUP2 MSTORE PUSH1 0x13 PUSH1 0x20 MSTORE PUSH1 0x40 DUP2 KECCAK256 SWAP1 DUP2 SLOAD DUP4 LT ISZERO PUSH2 0x241 JUMPI PUSH1 0x20 PUSH2 0x2DFF DUP5 DUP5 PUSH2 0x315A JUMP JUMPDEST SWAP1 SLOAD PUSH1 0x40 MLOAD SWAP2 PUSH1 0x3 SHL SHR DUP2 MSTORE RETURN JUMPDEST POP CALLVALUE PUSH2 0x241 JUMPI DUP1 PUSH1 0x3 NOT CALLDATASIZE ADD SLT PUSH2 0x241 JUMPI PUSH1 0x20 PUSH1 0xB SLOAD PUSH1 0x40 MLOAD SWAP1 DUP2 MSTORE RETURN JUMPDEST POP CALLVALUE PUSH2 0x241 JUMPI PUSH1 0x40 CALLDATASIZE PUSH1 0x3 NOT ADD SLT PUSH2 0x241 JUMPI PUSH2 0x2E45 PUSH2 0x3113 JUMP JUMPDEST PUSH1 0x24 CALLDATALOAD PUSH2 0x2E51 DUP2 PUSH2 0x3743 JUMP JUMPDEST CALLER ISZERO ISZERO DUP1 PUSH2 0x2EFB JUMPI JUMPDEST DUP1 PUSH2 0x2ED0 JUMPI JUMPDEST PUSH2 0x2EB8 JUMPI PUSH1 0x1 PUSH1 0x1 PUSH1 0xA0 SHL SUB SWAP3 DUP4 AND SWAP3 DUP3 SWAP2 DUP5 SWAP2 AND PUSH32 0x8C5BE1E5EBEC7D5BD14F71427D1E84F3DD0314C0F7B2291E5B200AC8C7C3B925 DUP7 DUP1 LOG4 DUP3 MSTORE PUSH1 0x6 PUSH1 0x20 MSTORE PUSH1 0x40 DUP3 KECCAK256 DUP1 SLOAD PUSH1 0x1 PUSH1 0x1 PUSH1 0xA0 SHL SUB NOT AND SWAP1 SWAP2 OR SWAP1 SSTORE DUP1 RETURN JUMPDEST PUSH1 0x40 MLOAD PUSH4 0xA9FBF51F PUSH1 0xE0 SHL DUP2 MSTORE CALLER PUSH1 0x4 DUP3 ADD MSTORE PUSH1 0x24 SWAP1 REVERT JUMPDEST POP PUSH1 0x1 PUSH1 0x1 PUSH1 0xA0 SHL SUB DUP2 AND DUP5 MSTORE PUSH1 0x7 PUSH1 0x20 SWAP1 DUP2 MSTORE PUSH1 0x40 DUP1 DUP7 KECCAK256 CALLER DUP8 MSTORE SWAP1 SWAP2 MSTORE DUP5 KECCAK256 SLOAD PUSH1 0xFF AND ISZERO PUSH2 0x2E60 JUMP JUMPDEST POP PUSH1 0x1 PUSH1 0x1 PUSH1 0xA0 SHL SUB DUP2 AND CALLER EQ ISZERO PUSH2 0x2E5A JUMP JUMPDEST POP CALLVALUE PUSH2 0x241 JUMPI PUSH1 0x20 CALLDATASIZE PUSH1 0x3 NOT ADD SLT PUSH2 0x241 JUMPI PUSH1 0x20 SWAP1 PUSH1 0x4 CALLDATALOAD PUSH2 0x2F2F DUP2 PUSH2 0x3743 JUMP JUMPDEST POP DUP2 MSTORE PUSH1 0x6 DUP3 MSTORE PUSH1 0x40 PUSH1 0x1 DUP1 PUSH1 0xA0 SHL SUB SWAP2 KECCAK256 SLOAD AND PUSH1 0x40 MLOAD SWAP1 DUP2 MSTORE RETURN JUMPDEST POP CALLVALUE PUSH2 0x241 JUMPI DUP1 PUSH1 0x3 NOT CALLDATASIZE ADD SLT PUSH2 0x241 JUMPI PUSH1 0x40 MLOAD SWAP1 DUP1 PUSH1 0x2 SLOAD PUSH2 0x2F6D DUP2 PUSH2 0x3346 JUMP JUMPDEST DUP1 DUP6 MSTORE SWAP2 PUSH1 0x1 SWAP2 DUP1 DUP4 AND SWAP1 DUP2 ISZERO PUSH2 0x181A JUMPI POP PUSH1 0x1 EQ PUSH2 0x2F96 JUMPI PUSH2 0xB9D DUP6 PUSH2 0xB89 DUP2 DUP8 SUB DUP3 PUSH2 0x3246 JUMP JUMPDEST SWAP3 POP PUSH1 0x2 DUP4 MSTORE PUSH32 0x405787FA12A823E0F2B7631CC41B3BA8828B3321CA811111FA75CD3AA3BB5ACE JUMPDEST DUP3 DUP5 LT PUSH2 0x2FD9 JUMPI POP POP POP DUP2 ADD PUSH1 0x20 ADD PUSH2 0xB89 DUP3 PUSH2 0xB9D PUSH2 0x17AF JUMP JUMPDEST DUP1 SLOAD PUSH1 0x20 DUP6 DUP8 ADD DUP2 ADD SWAP2 SWAP1 SWAP2 MSTORE SWAP1 SWAP4 ADD SWAP3 DUP2 ADD PUSH2 0x2FBE JUMP JUMPDEST POP CALLVALUE PUSH2 0x241 JUMPI DUP1 PUSH1 0x3 NOT CALLDATASIZE ADD SLT PUSH2 0x241 JUMPI PUSH1 0x20 PUSH1 0x40 MLOAD PUSH2 0x61A8 DUP2 MSTORE RETURN JUMPDEST POP CALLVALUE PUSH2 0x241 JUMPI DUP1 PUSH1 0x3 NOT CALLDATASIZE ADD SLT PUSH2 0x241 JUMPI PUSH1 0x20 PUSH1 0x40 MLOAD PUSH1 0xBE DUP2 MSTORE RETURN JUMPDEST SWAP1 POP CALLVALUE PUSH2 0x16BE JUMPI PUSH1 0x20 CALLDATASIZE PUSH1 0x3 NOT ADD SLT PUSH2 0x16BE JUMPI PUSH1 0x4 CALLDATALOAD PUSH4 0xFFFFFFFF PUSH1 0xE0 SHL DUP2 AND DUP1 SWAP2 SUB PUSH2 0x1188 JUMPI PUSH1 0x20 SWAP3 POP PUSH4 0x24832483 PUSH1 0xE1 SHL DUP2 EQ SWAP1 DUP2 ISZERO PUSH2 0x306E JUMPI JUMPDEST POP ISZERO ISZERO DUP2 MSTORE RETURN JUMPDEST PUSH4 0x80AC58CD PUSH1 0xE0 SHL DUP2 EQ SWAP2 POP DUP2 ISZERO PUSH2 0x30BA JUMPI JUMPDEST DUP2 ISZERO PUSH2 0x308F JUMPI JUMPDEST POP CODESIZE PUSH2 0x3067 JUMP JUMPDEST PUSH4 0x152A902D PUSH1 0xE1 SHL DUP2 EQ SWAP2 POP DUP2 ISZERO PUSH2 0x30A9 JUMPI JUMPDEST POP CODESIZE PUSH2 0x3088 JUMP JUMPDEST PUSH4 0x1FFC9A7 PUSH1 0xE0 SHL EQ SWAP1 POP CODESIZE PUSH2 0x30A2 JUMP JUMPDEST PUSH4 0x5B5E139F PUSH1 0xE0 SHL DUP2 EQ SWAP2 POP PUSH2 0x3081 JUMP JUMPDEST PUSH1 0x0 JUMPDEST DUP4 DUP2 LT PUSH2 0x30DE JUMPI POP POP PUSH1 0x0 SWAP2 ADD MSTORE JUMP JUMPDEST DUP2 DUP2 ADD MLOAD DUP4 DUP3 ADD MSTORE PUSH1 0x20 ADD PUSH2 0x30CE JUMP JUMPDEST SWAP1 PUSH1 0x20 SWAP2 PUSH2 0x3107 DUP2 MLOAD DUP1 SWAP3 DUP2 DUP6 MSTORE DUP6 DUP1 DUP7 ADD SWAP2 ADD PUSH2 0x30CB JUMP JUMPDEST PUSH1 0x1F ADD PUSH1 0x1F NOT AND ADD ADD SWAP1 JUMP JUMPDEST PUSH1 0x4 CALLDATALOAD SWAP1 PUSH1 0x1 PUSH1 0x1 PUSH1 0xA0 SHL SUB DUP3 AND DUP3 SUB PUSH2 0x3129 JUMPI JUMP JUMPDEST PUSH1 0x0 DUP1 REVERT JUMPDEST PUSH1 0x24 CALLDATALOAD SWAP1 PUSH1 0x1 PUSH1 0x1 PUSH1 0xA0 SHL SUB DUP3 AND DUP3 SUB PUSH2 0x3129 JUMPI JUMP JUMPDEST PUSH1 0x40 SWAP1 PUSH1 0x3 NOT ADD SLT PUSH2 0x3129 JUMPI PUSH1 0x4 CALLDATALOAD SWAP1 PUSH1 0x24 CALLDATALOAD SWAP1 JUMP JUMPDEST DUP1 SLOAD DUP3 LT ISZERO PUSH2 0x3172 JUMPI PUSH1 0x0 MSTORE PUSH1 0x20 PUSH1 0x0 KECCAK256 ADD SWAP1 PUSH1 0x0 SWAP1 JUMP JUMPDEST PUSH4 0x4E487B71 PUSH1 0xE0 SHL PUSH1 0x0 MSTORE PUSH1 0x32 PUSH1 0x4 MSTORE PUSH1 0x24 PUSH1 0x0 REVERT JUMPDEST PUSH1 0x20 SWAP1 DUP2 PUSH1 0x40 DUP2 DUP4 ADD SWAP3 DUP3 DUP2 MSTORE DUP6 MLOAD DUP1 SWAP5 MSTORE ADD SWAP4 ADD SWAP2 PUSH1 0x0 JUMPDEST DUP3 DUP2 LT PUSH2 0x31AF JUMPI POP POP POP POP SWAP1 JUMP JUMPDEST DUP4 MLOAD DUP6 MSTORE SWAP4 DUP2 ADD SWAP4 SWAP3 DUP2 ADD SWAP3 PUSH1 0x1 ADD PUSH2 0x31A1 JUMP JUMPDEST PUSH2 0x1E0 DUP2 ADD SWAP1 DUP2 LT PUSH1 0x1 PUSH1 0x1 PUSH1 0x40 SHL SUB DUP3 GT OR PUSH2 0x31DF JUMPI PUSH1 0x40 MSTORE JUMP JUMPDEST PUSH4 0x4E487B71 PUSH1 0xE0 SHL PUSH1 0x0 MSTORE PUSH1 0x41 PUSH1 0x4 MSTORE PUSH1 0x24 PUSH1 0x0 REVERT JUMPDEST PUSH1 0x20 DUP2 ADD SWAP1 DUP2 LT PUSH1 0x1 PUSH1 0x1 PUSH1 0x40 SHL SUB DUP3 GT OR PUSH2 0x31DF JUMPI PUSH1 0x40 MSTORE JUMP JUMPDEST PUSH1 0x40 DUP2 ADD SWAP1 DUP2 LT PUSH1 0x1 PUSH1 0x1 PUSH1 0x40 SHL SUB DUP3 GT OR PUSH2 0x31DF JUMPI PUSH1 0x40 MSTORE JUMP JUMPDEST PUSH1 0x60 DUP2 ADD SWAP1 DUP2 LT PUSH1 0x1 PUSH1 0x1 PUSH1 0x40 SHL SUB DUP3 GT OR PUSH2 0x31DF JUMPI PUSH1 0x40 MSTORE JUMP JUMPDEST SWAP1 PUSH1 0x1F DUP1 NOT SWAP2 ADD AND DUP2 ADD SWAP1 DUP2 LT PUSH1 0x1 PUSH1 0x1 PUSH1 0x40 SHL SUB DUP3 GT OR PUSH2 0x31DF JUMPI PUSH1 0x40 MSTORE JUMP JUMPDEST PUSH1 0x1 PUSH1 0x1 PUSH1 0x40 SHL SUB DUP2 GT PUSH2 0x31DF JUMPI PUSH1 0x1F ADD PUSH1 0x1F NOT AND PUSH1 0x20 ADD SWAP1 JUMP JUMPDEST SWAP3 SWAP2 SWAP3 PUSH2 0x328E DUP3 PUSH2 0x3267 JUMP JUMPDEST SWAP2 PUSH2 0x329C PUSH1 0x40 MLOAD SWAP4 DUP5 PUSH2 0x3246 JUMP JUMPDEST DUP3 SWAP5 DUP2 DUP5 MSTORE DUP2 DUP4 ADD GT PUSH2 0x3129 JUMPI DUP3 DUP2 PUSH1 0x20 SWAP4 DUP5 PUSH1 0x0 SWAP7 ADD CALLDATACOPY ADD ADD MSTORE JUMP JUMPDEST SWAP1 DUP1 PUSH1 0x1F DUP4 ADD SLT ISZERO PUSH2 0x3129 JUMPI DUP2 PUSH1 0x20 PUSH2 0x32D4 SWAP4 CALLDATALOAD SWAP2 ADD PUSH2 0x3282 JUMP JUMPDEST SWAP1 JUMP JUMPDEST PUSH1 0x1 PUSH1 0x1 PUSH1 0x40 SHL SUB DUP2 GT PUSH2 0x31DF JUMPI PUSH1 0x5 SHL PUSH1 0x20 ADD SWAP1 JUMP JUMPDEST PUSH1 0x60 SWAP1 PUSH1 0x3 NOT ADD SLT PUSH2 0x3129 JUMPI PUSH1 0x1 PUSH1 0x1 PUSH1 0xA0 SHL SUB SWAP1 PUSH1 0x4 CALLDATALOAD DUP3 DUP2 AND DUP2 SUB PUSH2 0x3129 JUMPI SWAP2 PUSH1 0x24 CALLDATALOAD SWAP1 DUP2 AND DUP2 SUB PUSH2 0x3129 JUMPI SWAP1 PUSH1 0x44 CALLDATALOAD SWAP1 JUMP JUMPDEST CALLVALUE PUSH2 0x3129 JUMPI PUSH1 0x0 CALLDATASIZE PUSH1 0x3 NOT ADD SLT PUSH2 0x3129 JUMPI PUSH1 0x20 PUSH1 0x40 MLOAD PUSH8 0xDE0B6B3A7640000 DUP2 MSTORE RETURN JUMPDEST SWAP1 PUSH1 0x1 DUP3 DUP2 SHR SWAP3 AND DUP1 ISZERO PUSH2 0x3376 JUMPI JUMPDEST PUSH1 0x20 DUP4 LT EQ PUSH2 0x3360 JUMPI JUMP JUMPDEST PUSH4 0x4E487B71 PUSH1 0xE0 SHL PUSH1 0x0 MSTORE PUSH1 0x22 PUSH1 0x4 MSTORE PUSH1 0x24 PUSH1 0x0 REVERT JUMPDEST SWAP2 PUSH1 0x7F AND SWAP2 PUSH2 0x3355 JUMP JUMPDEST SWAP1 PUSH1 0x40 MLOAD SWAP2 DUP3 PUSH1 0x0 DUP3 SLOAD SWAP3 PUSH2 0x3394 DUP5 PUSH2 0x3346 JUMP JUMPDEST SWAP1 DUP2 DUP5 MSTORE PUSH1 0x1 SWAP5 DUP6 DUP2 AND SWAP1 DUP2 PUSH1 0x0 EQ PUSH2 0x3403 JUMPI POP PUSH1 0x1 EQ PUSH2 0x33C0 JUMPI JUMPDEST POP POP PUSH2 0x33BE SWAP3 POP SUB DUP4 PUSH2 0x3246 JUMP JUMPDEST JUMP JUMPDEST SWAP1 SWAP4 SWAP2 POP PUSH1 0x0 MSTORE PUSH1 0x20 SWAP1 DUP2 PUSH1 0x0 KECCAK256 SWAP4 PUSH1 0x0 SWAP2 JUMPDEST DUP2 DUP4 LT PUSH2 0x33EB JUMPI POP POP PUSH2 0x33BE SWAP4 POP DUP3 ADD ADD CODESIZE DUP1 PUSH2 0x33B0 JUMP JUMPDEST DUP6 SLOAD DUP9 DUP5 ADD DUP6 ADD MSTORE SWAP5 DUP6 ADD SWAP5 DUP8 SWAP5 POP SWAP2 DUP4 ADD SWAP2 PUSH2 0x33D3 JUMP JUMPDEST SWAP2 POP POP PUSH2 0x33BE SWAP5 POP PUSH1 0x20 SWAP3 POP PUSH1 0xFF NOT AND DUP3 DUP5 ADD MSTORE ISZERO ISZERO PUSH1 0x5 SHL DUP3 ADD ADD CODESIZE DUP1 PUSH2 0x33B0 JUMP JUMPDEST PUSH1 0x9 SLOAD PUSH1 0x1 PUSH1 0x1 PUSH1 0xA0 SHL SUB AND CALLER SUB PUSH2 0x343A JUMPI JUMP JUMPDEST PUSH1 0x40 MLOAD PUSH4 0x118CDAA7 PUSH1 0xE0 SHL DUP2 MSTORE CALLER PUSH1 0x4 DUP3 ADD MSTORE PUSH1 0x24 SWAP1 REVERT JUMPDEST PUSH1 0x1 PUSH1 0x1 PUSH1 0xA0 SHL SUB SWAP2 DUP3 AND SWAP3 SWAP1 SWAP2 DUP4 ISZERO PUSH2 0x35DB JUMPI PUSH1 0x0 SWAP3 DUP3 DUP5 MSTORE DUP3 PUSH1 0x20 SWAP6 PUSH1 0x4 DUP8 MSTORE PUSH1 0x40 SWAP7 DUP5 DUP9 DUP9 KECCAK256 SLOAD AND SWAP7 DUP8 SWAP2 CALLER ISZERO ISZERO DUP1 PUSH2 0x3542 JUMPI JUMPDEST POP SWAP1 PUSH1 0x4 PUSH32 0xDDF252AD1BE2C89B69C2B068FC378DAA952BA7F163C4A11628F55A4DF523B3EF SWAP3 DUP5 PUSH2 0x350F JUMPI JUMPDEST DUP6 DUP4 MSTORE PUSH1 0x5 DUP2 MSTORE DUP12 DUP4 KECCAK256 DUP1 SLOAD PUSH1 0x1 ADD SWAP1 SSTORE DUP7 DUP4 MSTORE MSTORE DUP10 DUP2 KECCAK256 DUP1 SLOAD PUSH1 0x1 PUSH1 0x1 PUSH1 0xA0 SHL SUB NOT AND DUP6 OR SWAP1 SSTORE DUP1 LOG4 AND SWAP3 DUP4 DUP4 SUB PUSH2 0x34EE JUMPI POP POP POP POP JUMP JUMPDEST PUSH1 0x64 SWAP5 POP MLOAD SWAP3 PUSH4 0x64283D7B PUSH1 0xE0 SHL DUP5 MSTORE PUSH1 0x4 DUP5 ADD MSTORE PUSH1 0x24 DUP4 ADD MSTORE PUSH1 0x44 DUP3 ADD MSTORE REVERT JUMPDEST PUSH1 0x0 DUP8 DUP2 MSTORE PUSH1 0x6 PUSH1 0x20 MSTORE PUSH1 0x40 SWAP1 KECCAK256 DUP1 SLOAD PUSH1 0x1 PUSH1 0x1 PUSH1 0xA0 SHL SUB NOT AND SWAP1 SSTORE DUP5 DUP4 MSTORE PUSH1 0x5 DUP2 MSTORE DUP12 DUP4 KECCAK256 DUP1 SLOAD PUSH1 0x0 NOT ADD SWAP1 SSTORE PUSH2 0x34B5 JUMP JUMPDEST SWAP2 SWAP4 SWAP5 POP SWAP2 POP DUP1 PUSH2 0x359A JUMPI JUMPDEST ISZERO PUSH2 0x355E JUMPI DUP6 SWAP3 SWAP2 DUP8 SWAP2 CODESIZE PUSH2 0x3489 JUMP JUMPDEST DUP8 DUP7 DUP9 PUSH2 0x357B JUMPI PUSH1 0x24 SWAP2 MLOAD SWAP1 PUSH4 0x7E273289 PUSH1 0xE0 SHL DUP3 MSTORE PUSH1 0x4 DUP3 ADD MSTORE REVERT JUMPDEST SWAP1 MLOAD PUSH4 0x177E802F PUSH1 0xE0 SHL DUP2 MSTORE CALLER PUSH1 0x4 DUP3 ADD MSTORE PUSH1 0x24 DUP2 ADD SWAP2 SWAP1 SWAP2 MSTORE PUSH1 0x44 SWAP1 REVERT JUMPDEST POP CALLER DUP8 EQ DUP1 ISZERO PUSH2 0x35BF JUMPI JUMPDEST DUP1 PUSH2 0x354E JUMPI POP DUP6 DUP3 MSTORE PUSH1 0x6 DUP2 MSTORE CALLER DUP6 DUP10 DUP5 KECCAK256 SLOAD AND EQ PUSH2 0x354E JUMP JUMPDEST POP DUP7 DUP3 MSTORE PUSH1 0x7 DUP2 MSTORE DUP8 DUP3 KECCAK256 CALLER DUP4 MSTORE DUP2 MSTORE PUSH1 0xFF DUP9 DUP4 KECCAK256 SLOAD AND PUSH2 0x35A5 JUMP JUMPDEST PUSH1 0x40 MLOAD PUSH4 0x32505749 PUSH1 0xE1 SHL DUP2 MSTORE PUSH1 0x0 PUSH1 0x4 DUP3 ADD MSTORE PUSH1 0x24 SWAP1 REVERT JUMPDEST PUSH2 0x35FF DUP4 DUP4 DUP4 PUSH2 0x3452 JUMP JUMPDEST DUP2 EXTCODESIZE PUSH2 0x360C JUMPI JUMPDEST POP POP POP POP JUMP JUMPDEST PUSH1 0x40 MLOAD PUSH4 0xA85BD01 PUSH1 0xE1 SHL DUP1 DUP3 MSTORE CALLER PUSH1 0x4 DUP4 ADD MSTORE PUSH1 0x1 PUSH1 0x1 PUSH1 0xA0 SHL SUB SWAP3 DUP4 AND PUSH1 0x24 DUP4 ADD MSTORE PUSH1 0x44 DUP3 ADD SWAP5 SWAP1 SWAP5 MSTORE PUSH1 0x80 PUSH1 0x64 DUP3 ADD MSTORE PUSH1 0x20 SWAP6 SWAP3 SWAP1 SWAP2 AND SWAP4 SWAP1 SWAP3 SWAP1 DUP4 SWAP1 PUSH2 0x365A SWAP1 PUSH1 0x84 DUP4 ADD SWAP1 PUSH2 0x30EE JUMP JUMPDEST SUB SWAP3 DUP6 DUP2 PUSH1 0x0 SWAP6 DUP2 DUP8 DUP10 GAS CALL DUP5 SWAP2 DUP2 PUSH2 0x3703 JUMPI JUMPDEST POP PUSH2 0x36CE JUMPI POP POP POP RETURNDATASIZE PUSH1 0x0 EQ PUSH2 0x36C6 JUMPI RETURNDATASIZE PUSH2 0x3688 DUP2 PUSH2 0x3267 JUMP JUMPDEST SWAP1 PUSH2 0x3696 PUSH1 0x40 MLOAD SWAP3 DUP4 PUSH2 0x3246 JUMP JUMPDEST DUP2 MSTORE DUP1 SWAP2 DUP5 RETURNDATASIZE SWAP3 ADD RETURNDATACOPY JUMPDEST DUP1 MLOAD SWAP3 DUP4 PUSH2 0x36C1 JUMPI PUSH1 0x40 MLOAD PUSH4 0x32505749 PUSH1 0xE1 SHL DUP2 MSTORE PUSH1 0x4 DUP2 ADD DUP5 SWAP1 MSTORE PUSH1 0x24 SWAP1 REVERT JUMPDEST ADD SWAP1 POP REVERT JUMPDEST POP PUSH1 0x60 PUSH2 0x36A0 JUMP JUMPDEST SWAP2 SWAP5 POP SWAP2 POP PUSH4 0xFFFFFFFF PUSH1 0xE0 SHL AND SUB PUSH2 0x36EB JUMPI POP CODESIZE DUP1 DUP1 DUP1 PUSH2 0x3606 JUMP JUMPDEST PUSH1 0x24 SWAP1 PUSH1 0x40 MLOAD SWAP1 PUSH4 0x32505749 PUSH1 0xE1 SHL DUP3 MSTORE PUSH1 0x4 DUP3 ADD MSTORE REVERT JUMPDEST SWAP1 SWAP2 POP DUP7 DUP2 DUP2 RETURNDATASIZE DUP4 GT PUSH2 0x373C JUMPI JUMPDEST PUSH2 0x371B DUP2 DUP4 PUSH2 0x3246 JUMP JUMPDEST DUP2 ADD SUB SLT PUSH2 0x2CC5 JUMPI MLOAD PUSH1 0x1 PUSH1 0x1 PUSH1 0xE0 SHL SUB NOT DUP2 AND DUP2 SUB PUSH2 0x2CC5 JUMPI SWAP1 CODESIZE PUSH2 0x366E JUMP JUMPDEST POP RETURNDATASIZE PUSH2 0x3711 JUMP JUMPDEST PUSH1 0x0 DUP2 DUP2 MSTORE PUSH1 0x4 PUSH1 0x20 MSTORE PUSH1 0x40 SWAP1 KECCAK256 SLOAD PUSH1 0x1 PUSH1 0x1 PUSH1 0xA0 SHL SUB AND SWAP1 DUP2 ISZERO PUSH2 0x3766 JUMPI POP SWAP1 JUMP JUMPDEST PUSH1 0x24 SWAP1 PUSH1 0x40 MLOAD SWAP1 PUSH4 0x7E273289 PUSH1 0xE0 SHL DUP3 MSTORE PUSH1 0x4 DUP3 ADD MSTORE REVERT JUMPDEST PUSH1 0x0 NOT DUP2 EQ PUSH2 0x378D JUMPI PUSH1 0x1 ADD SWAP1 JUMP JUMPDEST PUSH4 0x4E487B71 PUSH1 0xE0 SHL PUSH1 0x0 MSTORE PUSH1 0x11 PUSH1 0x4 MSTORE PUSH1 0x24 PUSH1 0x0 REVERT JUMPDEST DUP1 MLOAD DUP3 LT ISZERO PUSH2 0x3172 JUMPI PUSH1 0x20 SWAP2 PUSH1 0x5 SHL ADD ADD SWAP1 JUMP JUMPDEST PUSH1 0x2 DUP3 LT ISZERO PUSH2 0x37C3 JUMPI MSTORE JUMP JUMPDEST PUSH4 0x4E487B71 PUSH1 0xE0 SHL PUSH1 0x0 MSTORE PUSH1 0x21 PUSH1 0x4 MSTORE PUSH1 0x24 PUSH1 0x0 REVERT JUMPDEST DUP2 DUP2 LT PUSH2 0x37E4 JUMPI POP POP JUMP JUMPDEST PUSH1 0x0 DUP2 SSTORE PUSH1 0x1 ADD PUSH2 0x37D9 JUMP JUMPDEST SWAP2 SWAP1 DUP3 SUB SWAP2 DUP3 GT PUSH2 0x378D JUMPI JUMP JUMPDEST ISZERO PUSH2 0x3804 JUMPI JUMP JUMPDEST PUSH1 0x40 MLOAD PUSH3 0x461BCD PUSH1 0xE5 SHL DUP2 MSTORE PUSH1 0x20 PUSH1 0x4 DUP3 ADD MSTORE PUSH1 0x14 PUSH1 0x24 DUP3 ADD MSTORE PUSH20 0x151BDAD95B88191BD95CC81B9BDD08195E1A5CDD PUSH1 0x62 SHL PUSH1 0x44 DUP3 ADD MSTORE PUSH1 0x64 SWAP1 REVERT JUMPDEST PUSH1 0x0 SWAP1 DUP1 DUP3 MSTORE PUSH1 0x20 PUSH1 0x4 DUP2 MSTORE PUSH1 0x1 DUP1 PUSH1 0xA0 SHL SUB PUSH1 0x40 SWAP3 PUSH2 0x3866 DUP3 DUP6 DUP8 KECCAK256 SLOAD AND ISZERO ISZERO PUSH2 0x37FD JUMP JUMPDEST DUP5 MSTORE PUSH1 0xE DUP3 MSTORE DUP3 DUP5 KECCAK256 SLOAD PUSH1 0xF DUP4 MSTORE DUP4 DUP6 KECCAK256 SLOAD SWAP1 DUP6 MSTORE PUSH1 0xD DUP4 MSTORE DUP4 DUP6 KECCAK256 SWAP2 DUP5 MLOAD SWAP1 PUSH2 0x388F DUP3 PUSH2 0x31C3 JUMP JUMPDEST DUP4 SLOAD DUP3 MSTORE PUSH1 0x1 SWAP1 PUSH2 0x38A1 DUP3 DUP7 ADD PUSH2 0x3380 JUMP JUMPDEST SWAP1 DUP7 DUP5 ADD SWAP2 DUP3 MSTORE PUSH2 0x38B4 PUSH1 0x2 DUP8 ADD PUSH2 0x3380 JUMP JUMPDEST DUP9 DUP6 ADD MSTORE PUSH2 0x38C4 PUSH1 0x3 DUP8 ADD PUSH2 0x3380 JUMP JUMPDEST PUSH1 0x60 DUP6 ADD MSTORE PUSH1 0x4 DUP7 ADD SLOAD AND PUSH1 0x80 DUP5 ADD MSTORE PUSH2 0x38E0 PUSH1 0x5 DUP7 ADD PUSH2 0x3380 JUMP JUMPDEST SWAP8 PUSH1 0xA0 DUP5 ADD SWAP9 DUP10 MSTORE PUSH2 0x38F4 PUSH1 0x6 DUP8 ADD PUSH2 0x3380 JUMP JUMPDEST SWAP3 PUSH1 0xC0 DUP6 ADD SWAP4 DUP5 MSTORE PUSH1 0x7 DUP8 ADD DUP1 SLOAD SWAP1 PUSH2 0x390C DUP3 PUSH2 0x32D7 JUMP JUMPDEST SWAP4 PUSH2 0x3919 DUP13 MLOAD SWAP6 DUP7 PUSH2 0x3246 JUMP JUMPDEST DUP3 DUP6 MSTORE SWAP1 DUP2 MSTORE DUP10 DUP2 KECCAK256 DUP11 DUP1 DUP7 ADD JUMPDEST DUP5 DUP5 LT PUSH2 0x41EC JUMPI POP POP POP POP POP POP PUSH1 0xE0 DUP5 ADD MSTORE PUSH1 0x8 DUP6 ADD SLOAD SWAP2 PUSH2 0x100 SWAP3 DUP4 DUP6 ADD MSTORE PUSH1 0xE PUSH1 0x9 DUP8 ADD SLOAD SWAP7 PUSH2 0x120 DUP7 ADD SWAP8 DUP9 MSTORE PUSH1 0xA DUP2 ADD SLOAD PUSH2 0x140 DUP8 ADD MSTORE PUSH1 0xB DUP2 ADD SLOAD PUSH2 0x160 DUP8 ADD MSTORE PUSH1 0xC DUP2 ADD SLOAD PUSH2 0x180 DUP8 ADD MSTORE PUSH2 0x398D PUSH1 0xFF PUSH1 0xD DUP4 ADD SLOAD AND PUSH2 0x1A0 DUP9 ADD PUSH2 0x37B7 JUMP JUMPDEST ADD SLOAD PUSH2 0x1C0 DUP6 ADD MSTORE DUP8 MLOAD PUSH2 0x39A0 DUP2 PUSH2 0x3210 JUMP JUMPDEST PUSH1 0x7 DUP2 MSTORE PUSH7 0x2332423339393 PUSH1 0xCC SHL DUP9 DUP3 ADD MSTORE SWAP5 DUP9 MLOAD PUSH2 0x39BF DUP2 PUSH2 0x3210 JUMP JUMPDEST PUSH1 0x7 DUP2 MSTORE DUP9 DUP2 ADD SWAP7 PUSH7 0x23423332313145 PUSH1 0xC8 SHL DUP9 MSTORE PUSH32 0xBBE70F0A12A12E8CFBDF026EDF53845C04B28179B2C9393D342FA6E2CD4EF2A DUP5 MLOAD DUP13 MLOAD PUSH2 0x3A1F DUP14 DUP3 DUP2 PUSH2 0x3A12 DUP2 DUP4 ADD SWAP7 DUP8 DUP2 MLOAD SWAP4 DUP5 SWAP3 ADD PUSH2 0x30CB JUMP JUMPDEST DUP2 ADD SUB DUP1 DUP5 MSTORE ADD DUP3 PUSH2 0x3246 JUMP JUMPDEST MLOAD SWAP1 KECCAK256 SUB PUSH2 0x416E JUMPI POP SWAP1 DUP9 SWAP2 DUP11 MLOAD PUSH2 0x3A36 DUP2 PUSH2 0x3210 JUMP JUMPDEST PUSH1 0x7 DUP2 MSTORE PUSH7 0x23314437463645 PUSH1 0xC8 SHL DUP5 DUP3 ADD MSTORE SWAP12 JUMPDEST MLOAD SWAP2 PUSH2 0x3A56 SWAP1 PUSH2 0x423B JUMP JUMPDEST SWAP9 MLOAD PUSH2 0x3A61 SWAP1 PUSH2 0x423B JUMP JUMPDEST SWAP4 MLOAD SWAP5 MLOAD PUSH2 0x3A6E SWAP1 PUSH2 0x44E6 JUMP JUMPDEST SWAP7 MLOAD PUSH2 0x3A79 SWAP1 PUSH2 0x423B JUMP JUMPDEST SWAP8 DUP4 DUP13 MLOAD SWAP14 DUP15 DUP1 SWAP15 DUP4 DUP3 ADD PUSH32 0x3C7376672077696474683D2234303022206865696768743D223430302220786D SWAP1 MSTORE DUP2 ADD PUSH32 0x6C6E733D22687474703A2F2F7777772E77332E6F72672F323030302F73766722 SWAP1 MSTORE PUSH1 0x60 ADD PUSH1 0x1F PUSH1 0xF9 SHL SWAP1 MSTORE DUP14 PUSH1 0x61 DUP2 ADD PUSH32 0x3C646566733E3C6C696E6561724772616469656E742069643D22626722207831 SWAP1 MSTORE PUSH1 0x81 ADD PUSH32 0x3D223025222079313D223025222078323D2231303025222079323D2231303025 SWAP1 MSTORE DUP14 PUSH2 0x111F PUSH1 0xF1 SHL SWAP1 PUSH1 0xA1 ADD MSTORE DUP14 PUSH1 0xA3 DUP2 ADD PUSH32 0x3C73746F70206F66667365743D22302522207374796C653D2273746F702D636F SWAP1 MSTORE PUSH1 0xC3 ADD PUSH4 0x3637B91D PUSH1 0xE1 SHL SWAP1 MSTORE DUP14 DUP2 MLOAD SWAP3 PUSH1 0xC7 DUP5 SWAP3 ADD SWAP3 ADD SWAP2 PUSH2 0x3B7A SWAP3 PUSH2 0x30CB JUMP JUMPDEST DUP13 ADD PUSH19 0x1DB9BA37B816B7B830B1B4BA3C9D189110179F PUSH1 0x69 SHL SWAP3 DUP4 PUSH1 0xC7 DUP4 ADD MSTORE PUSH1 0xDA DUP3 ADD PUSH32 0x3C73746F70206F66667365743D223130302522207374796C653D2273746F702D SWAP1 MSTORE PUSH1 0xFA DUP3 ADD PUSH6 0x31B7B637B91D PUSH1 0xD1 SHL SWAP1 MSTORE MLOAD SWAP2 DUP3 DUP10 DUP4 ADD PUSH2 0x3BE0 SWAP3 PUSH2 0x30CB JUMP JUMPDEST ADD SWAP6 DUP7 ADD MSTORE PUSH32 0x3C2F6C696E6561724772616469656E743E3C2F646566733E0000000000000000 PUSH2 0x113 DUP7 ADD MSTORE PUSH32 0x3C726563742077696474683D2234303022206865696768743D22343030222066 PUSH2 0x12B DUP7 ADD MSTORE PUSH16 0x34B6361E913AB9361411B1339491179F PUSH1 0x81 SHL PUSH2 0x14B DUP7 ADD MSTORE PUSH32 0x3C7265637420783D2232302220793D223230222077696474683D223336302220 PUSH2 0x15B DUP7 ADD MSTORE PUSH32 0x6865696768743D22333630222066696C6C3D2272676261283235352C3235352C PUSH2 0x17B DUP7 ADD MSTORE PUSH32 0x3235352C302E312922207374726F6B653D2272676261283235352C3235352C32 PUSH2 0x19B DUP7 ADD MSTORE PUSH32 0x35352C302E332922207374726F6B652D77696474683D2232222F3E0000000000 PUSH2 0x1BB DUP7 ADD MSTORE PUSH32 0x3C7465787420783D223230302220793D2238302220746578742D616E63686F72 PUSH2 0x1D6 DUP7 ADD MSTORE PUSH32 0x3D226D6964646C65222066696C6C3D2277686974652220666F6E742D66616D69 PUSH2 0x1F6 DUP7 ADD MSTORE PUSH32 0x6C793D2273657269662220666F6E742D73697A653D2232342220666F6E742D77 PUSH2 0x216 DUP7 ADD MSTORE PUSH13 0x32B4B3B43A1E913137B632111F PUSH1 0x99 SHL PUSH2 0x236 DUP7 ADD MSTORE PUSH13 0x496D6D757461626C6554797065 PUSH1 0x98 SHL PUSH2 0x243 DUP7 ADD MSTORE PUSH7 0x1E17BA32BC3A1F PUSH1 0xC9 SHL PUSH2 0x250 DUP7 ADD DUP2 SWAP1 MSTORE PUSH32 0x3C7465787420783D223230302220793D223132302220746578742D616E63686F PUSH2 0x257 DUP8 ADD MSTORE PUSH32 0x723D226D6964646C65222066696C6C3D2272676261283235352C3235352C3235 PUSH2 0x277 DUP8 ADD DUP2 SWAP1 MSTORE PUSH32 0x352C302E39292220666F6E742D66616D696C793D2273657269662220666F6E74 PUSH2 0x297 DUP9 ADD MSTORE PUSH11 0x16B9B4BD329E91189B111F PUSH1 0xA9 SHL PUSH2 0x2B7 DUP9 ADD MSTORE DUP3 MLOAD SWAP2 SWAP10 SWAP1 SWAP7 DUP11 SWAP6 PUSH2 0x2C2 SWAP5 SWAP3 SWAP4 DUP8 SWAP4 SWAP2 SWAP3 DUP5 SWAP3 PUSH2 0x3E50 SWAP1 DUP4 SWAP1 DUP10 DUP5 ADD SWAP1 DUP12 ADD PUSH2 0x30CB JUMP JUMPDEST ADD SWAP5 DUP6 ADD MSTORE PUSH2 0x2C9 DUP5 ADD PUSH32 0x3C7465787420783D223230302220793D223134302220746578742D616E63686F SWAP1 MSTORE DUP8 PUSH2 0x2E9 DUP6 ADD MSTORE PUSH32 0x352C302E38292220666F6E742D66616D696C793D2273657269662220666F6E74 SWAP3 DUP4 PUSH2 0x309 DUP7 ADD MSTORE PUSH11 0x16B9B4BD329E91189A111F PUSH1 0xA9 SHL SWAP5 DUP6 PUSH2 0x329 DUP3 ADD MSTORE PUSH2 0x334 DUP2 ADD PUSH9 0x45646974696F6E2023 PUSH1 0xB8 SHL SWAP1 MSTORE DUP2 MLOAD SWAP1 PUSH2 0x33D SWAP3 DUP3 DUP10 DUP6 DUP5 ADD SWAP3 ADD SWAP2 PUSH2 0x3EF0 SWAP3 PUSH2 0x30CB JUMP JUMPDEST ADD SWAP1 DUP2 ADD PUSH1 0x2F PUSH1 0xF8 SHL SWAP1 MSTORE DUP2 MLOAD SWAP2 DUP3 PUSH2 0x33E SWAP8 DUP9 DUP5 ADD SWAP3 ADD SWAP2 PUSH2 0x3F12 SWAP3 PUSH2 0x30CB JUMP JUMPDEST ADD SWAP4 DUP5 ADD MSTORE PUSH2 0x345 DUP4 ADD PUSH32 0x3C7465787420783D223230302220793D223136302220746578742D616E63686F SWAP1 MSTORE DUP6 PUSH2 0x365 DUP5 ADD MSTORE PUSH2 0x385 DUP4 ADD MSTORE PUSH2 0x3A5 DUP3 ADD MSTORE DUP3 MLOAD SWAP1 PUSH2 0x3B0 SWAP4 DUP3 DUP11 DUP7 DUP5 ADD SWAP3 ADD SWAP2 PUSH2 0x3F6A SWAP3 PUSH2 0x30CB JUMP JUMPDEST ADD SWAP2 DUP3 ADD MSTORE PUSH32 0x3C666F726569676E4F626A65637420783D2234302220793D2232303022207769 PUSH2 0x3B7 DUP3 ADD MSTORE PUSH32 0x6474683D2233323022206865696768743D22313230223E000000000000000000 PUSH2 0x3D7 DUP3 ADD MSTORE PUSH32 0x3C64697620786D6C6E733D22687474703A2F2F7777772E77332E6F72672F3139 PUSH2 0x3EE DUP3 ADD MSTORE PUSH32 0x39392F7868746D6C22207374796C653D22636F6C6F723A77686974653B666F6E PUSH2 0x40E DUP3 ADD MSTORE PUSH32 0x742D66616D696C793A73657269663B666F6E742D73697A653A313270783B7465 PUSH2 0x42E DUP3 ADD MSTORE PUSH32 0x78742D616C69676E3A63656E7465723B776F72642D777261703A627265616B2D PUSH2 0x44E DUP3 ADD MSTORE PUSH7 0x3BB7B9321D911F PUSH1 0xC9 SHL PUSH2 0x46E DUP3 ADD MSTORE DUP3 MLOAD PUSH2 0x475 SWAP4 SWAP1 SWAP2 SWAP1 PUSH2 0x4084 SWAP1 DUP4 SWAP1 DUP7 DUP5 ADD SWAP1 DUP11 ADD PUSH2 0x30CB JUMP JUMPDEST PUSH6 0x1E17B234BB1F PUSH1 0xD1 SHL SWAP2 ADD SWAP3 DUP4 ADD MSTORE PUSH16 0x1E17B337B932B4B3B727B13532B1BA1F PUSH1 0x81 SHL PUSH2 0x47B DUP4 ADD MSTORE PUSH32 0x3C7465787420783D223230302220793D223335302220746578742D616E63686F PUSH2 0x48B DUP4 ADD MSTORE PUSH2 0x4AB DUP3 ADD MSTORE PUSH32 0x352C302E37292220666F6E742D66616D696C793D2273657269662220666F6E74 PUSH2 0x4CB DUP3 ADD MSTORE PUSH11 0x16B9B4BD329E911899111F PUSH1 0xA9 SHL PUSH2 0x4EB DUP3 ADD MSTORE PUSH9 0x41727469636C652023 PUSH1 0xB8 SHL PUSH2 0x4F6 DUP3 ADD MSTORE DUP2 MLOAD PUSH2 0x4FF SWAP5 SWAP1 SWAP3 PUSH2 0x4142 SWAP2 DUP5 SWAP2 DUP8 DUP6 ADD SWAP2 ADD PUSH2 0x30CB JUMP JUMPDEST ADD SWAP2 DUP3 ADD MSTORE PUSH2 0x506 DUP2 ADD PUSH6 0x1E17B9BB339F PUSH1 0xD1 SHL SWAP1 MSTORE SUB PUSH2 0x4EC DUP2 ADD DUP3 MSTORE PUSH2 0x50C ADD PUSH2 0x32D4 SWAP1 DUP3 PUSH2 0x3246 JUMP JUMPDEST SWAP11 PUSH32 0x34A632FD0BF9A1BE0ABDD53ECD86B54702208E50BC91AF37FD598EDE80E4A47E DUP5 MLOAD DUP13 MLOAD PUSH2 0x41AD DUP14 DUP3 DUP2 PUSH2 0x3A12 DUP2 DUP4 ADD SWAP7 DUP8 DUP2 MLOAD SWAP4 DUP5 SWAP3 ADD PUSH2 0x30CB JUMP JUMPDEST MLOAD SWAP1 KECCAK256 EQ PUSH2 0x41BF JUMPI JUMPDEST SWAP1 DUP10 SWAP3 SWAP2 PUSH2 0x3A4B JUMP JUMPDEST SWAP11 POP SWAP1 DUP9 SWAP2 DUP11 MLOAD PUSH2 0x41CF DUP2 PUSH2 0x3210 JUMP JUMPDEST PUSH1 0x7 DUP2 MSTORE PUSH7 0x23453841333137 PUSH1 0xC8 SHL DUP5 DUP3 ADD MSTORE SWAP12 SWAP1 SWAP2 SWAP3 POP PUSH2 0x41B6 JUMP JUMPDEST DUP6 SWAP2 DUP3 SWAP2 PUSH2 0x41F9 DUP6 PUSH2 0x3380 JUMP JUMPDEST DUP2 MSTORE ADD SWAP3 ADD SWAP3 ADD SWAP2 SWAP1 DUP12 SWAP1 PUSH2 0x3927 JUMP JUMPDEST SWAP1 PUSH2 0x4213 DUP3 PUSH2 0x3267 JUMP JUMPDEST PUSH2 0x4220 PUSH1 0x40 MLOAD SWAP2 DUP3 PUSH2 0x3246 JUMP JUMPDEST DUP3 DUP2 MSTORE DUP1 SWAP3 PUSH2 0x4231 PUSH1 0x1F NOT SWAP2 PUSH2 0x3267 JUMP JUMPDEST ADD SWAP1 PUSH1 0x20 CALLDATASIZE SWAP2 ADD CALLDATACOPY JUMP JUMPDEST DUP1 PUSH1 0x0 SWAP2 PUSH27 0x184F03E93FF9F4DAA797ED6E38ED64BF6A1F010000000000000000 DUP1 DUP3 LT ISZERO PUSH2 0x4370 JUMPI JUMPDEST POP PUSH14 0x4EE2D6D415B85ACEF8100000000 DUP1 DUP4 LT ISZERO PUSH2 0x4361 JUMPI JUMPDEST POP PUSH7 0x2386F26FC10000 DUP1 DUP4 LT ISZERO PUSH2 0x4352 JUMPI JUMPDEST POP PUSH4 0x5F5E100 DUP1 DUP4 LT ISZERO PUSH2 0x4343 JUMPI JUMPDEST POP PUSH2 0x2710 DUP1 DUP4 LT ISZERO PUSH2 0x4334 JUMPI JUMPDEST POP PUSH1 0x64 DUP3 LT ISZERO PUSH2 0x4324 JUMPI JUMPDEST PUSH1 0xA DUP1 SWAP3 LT ISZERO PUSH2 0x431A JUMPI JUMPDEST PUSH1 0x1 SWAP1 DUP2 PUSH1 0x21 PUSH2 0x42D2 DUP3 DUP8 ADD PUSH2 0x4209 JUMP JUMPDEST SWAP6 DUP7 ADD ADD SWAP1 JUMPDEST PUSH2 0x42E4 JUMPI JUMPDEST POP POP POP POP SWAP1 JUMP JUMPDEST PUSH1 0x0 NOT ADD SWAP1 DUP4 SWAP1 PUSH16 0x181899199A1A9B1B9C1CB0B131B232B3 PUSH1 0x81 SHL DUP3 DUP3 MOD BYTE DUP4 MSTORE8 DIV SWAP2 DUP3 ISZERO PUSH2 0x4315 JUMPI SWAP2 SWAP1 DUP3 PUSH2 0x42D8 JUMP JUMPDEST PUSH2 0x42DD JUMP JUMPDEST SWAP2 PUSH1 0x1 ADD SWAP2 PUSH2 0x42C1 JUMP JUMPDEST SWAP2 SWAP1 PUSH1 0x64 PUSH1 0x2 SWAP2 DIV SWAP2 ADD SWAP2 PUSH2 0x42B6 JUMP JUMPDEST PUSH1 0x4 SWAP2 SWAP4 SWAP3 DIV SWAP2 ADD SWAP2 CODESIZE PUSH2 0x42AB JUMP JUMPDEST PUSH1 0x8 SWAP2 SWAP4 SWAP3 DIV SWAP2 ADD SWAP2 CODESIZE PUSH2 0x429E JUMP JUMPDEST PUSH1 0x10 SWAP2 SWAP4 SWAP3 DIV SWAP2 ADD SWAP2 CODESIZE PUSH2 0x428F JUMP JUMPDEST PUSH1 0x20 SWAP2 SWAP4 SWAP3 DIV SWAP2 ADD SWAP2 CODESIZE PUSH2 0x427D JUMP JUMPDEST PUSH1 0x40 SWAP4 POP DUP2 DIV SWAP2 POP CODESIZE PUSH2 0x4264 JUMP JUMPDEST PUSH1 0x40 MLOAD SWAP1 PUSH2 0x438B DUP3 PUSH2 0x322B JUMP JUMPDEST PUSH1 0x40 DUP3 MSTORE PUSH32 0x6768696A6B6C6D6E6F707172737475767778797A303132333435363738392B2F PUSH1 0x40 DUP4 PUSH32 0x4142434445464748494A4B4C4D4E4F505152535455565758595A616263646566 PUSH1 0x20 DUP3 ADD MSTORE ADD MSTORE JUMP JUMPDEST DUP1 MLOAD ISZERO PUSH2 0x44C0 JUMPI DUP1 MLOAD PUSH1 0x2 SWAP2 DUP3 DUP3 ADD DUP1 SWAP3 GT PUSH2 0x378D JUMPI PUSH1 0x3 SWAP2 DUP3 SWAP1 DIV PUSH1 0x1 PUSH1 0x1 PUSH1 0xFE SHL SUB DUP2 AND DUP2 SUB PUSH2 0x378D JUMPI PUSH2 0x4416 SWAP1 DUP5 SWAP6 SWAP5 SHL PUSH2 0x4209 JUMP JUMPDEST SWAP4 PUSH1 0x20 DUP6 ADD SWAP4 DUP3 SWAP2 DUP4 MLOAD DUP5 ADD SWAP1 PUSH1 0x20 DUP3 ADD SWAP3 DUP4 MLOAD SWAP5 PUSH1 0x0 DUP6 MSTORE JUMPDEST DUP4 DUP2 LT PUSH2 0x446F JUMPI POP POP POP POP MSTORE MLOAD MOD DUP1 PUSH1 0x1 EQ PUSH2 0x445C JUMPI PUSH1 0x2 EQ PUSH2 0x4451 JUMPI POP SWAP1 JUMP JUMPDEST PUSH1 0x3D SWAP1 PUSH1 0x0 NOT ADD MSTORE8 SWAP1 JUMP JUMPDEST POP PUSH1 0x3D SWAP1 DUP2 PUSH1 0x0 NOT DUP3 ADD MSTORE8 PUSH1 0x1 NOT ADD MSTORE8 SWAP1 JUMP JUMPDEST DUP8 PUSH1 0x4 SWAP2 SWAP10 SWAP3 SWAP4 SWAP5 SWAP10 ADD SWAP2 DUP3 MLOAD PUSH1 0x1 SWAP1 PUSH1 0x3F SWAP1 DUP3 DUP3 DUP3 PUSH1 0x12 SHR AND DUP9 ADD ADD MLOAD DUP5 MSTORE8 DUP3 DUP3 DUP3 PUSH1 0xC SHR AND DUP9 ADD ADD MLOAD DUP4 DUP6 ADD MSTORE8 DUP3 DUP3 DUP3 PUSH1 0x6 SHR AND DUP9 ADD ADD MLOAD DUP9 DUP6 ADD MSTORE8 AND DUP6 ADD ADD MLOAD DUP10 DUP3 ADD MSTORE8 ADD SWAP8 SWAP3 SWAP2 SWAP1 PUSH2 0x4430 JUMP JUMPDEST POP POP PUSH1 0x40 MLOAD PUSH2 0x44CE DUP2 PUSH2 0x31F5 JUMP JUMPDEST PUSH1 0x0 DUP2 MSTORE SWAP1 JUMP JUMPDEST SWAP1 DUP2 MLOAD DUP2 LT ISZERO PUSH2 0x3172 JUMPI ADD PUSH1 0x20 ADD SWAP1 JUMP JUMPDEST PUSH1 0x64 DUP1 DUP3 MLOAD GT ISZERO PUSH2 0x4556 JUMPI PUSH1 0x40 MLOAD SWAP2 PUSH1 0xA0 DUP4 ADD DUP4 DUP2 LT PUSH1 0x1 PUSH1 0x1 PUSH1 0x40 SHL SUB DUP3 GT OR PUSH2 0x31DF JUMPI PUSH1 0x40 MSTORE DUP2 DUP4 MSTORE PUSH1 0x80 CALLDATASIZE PUSH1 0x20 DUP6 ADD CALLDATACOPY PUSH1 0x0 SWAP1 DUP2 JUMPDEST DUP4 DUP2 LT PUSH2 0x452C JUMPI POP POP POP POP SWAP1 JUMP JUMPDEST PUSH2 0x4551 SWAP1 PUSH1 0x1 PUSH1 0x1 PUSH1 0xF8 SHL SUB NOT PUSH2 0x4543 DUP3 DUP6 PUSH2 0x44D5 JUMP JUMPDEST MLOAD AND DUP5 BYTE PUSH2 0xC4D DUP3 DUP9 PUSH2 0x44D5 JUMP JUMPDEST PUSH2 0x451E JUMP JUMPDEST POP SWAP1 JUMP INVALID LOG2 PUSH5 0x6970667358 0x22 SLT KECCAK256 0xEB 0x4B DUP4 DIV CALLER CALLDATALOAD BLOCKHASH 0xA7 0x2D 0xF SHR 0xBC PUSH8 0xFEF4A174E3A2171A PUSH31 0xC83AC9FB9964CF16021564736F6C6343000814003300000000000000000000 "},"methodIdentifiers":{"BUYER_FEE()":"24aa774a","DAILY_NATIVE_LIMIT()":"3bc3a454","MAX_CONTENT_LENGTH()":"05b746b5","MAX_SUMMARY_LENGTH()":"544b5e61","MAX_TAGS()":"cce67226","MAX_TAG_LENGTH()":"f50496f4","MAX_TITLE_LENGTH()":"2ef9a160","MEMBERSHIP_TOKENS()":"a7d0f2fb","PLATFORM_TAKE_RATE()":"02c83902","PUBLISHER_CREDENTIALS()":"cb541ef2","PUBLISHING_FEE()":"8368a0c2","READER_LICENSE_AMM()":"ef6fe9b7","TREASURY()":"2d2c5565","approve(address,uint256)":"095ea7b3","articleNFTHolders(uint256,uint256)":"2683494d","articles(uint256)":"edcfafe6","availableEditions(uint256,uint256)":"11d0d538","balanceOf(address)":"70a08231","dailyPublishCount(address,uint256)":"4baf079c","editionsSold(uint256)":"8ba1393d","generateSVG(uint256)":"6dcee4ca","getApproved(uint256)":"081812fc","getArticlesByAuthor(address)":"1521ba3f","getAvailableEditions(uint256)":"968b5635","getEditionNumber(uint256)":"e91dab62","getNFTHolders(uint256)":"9fb53fcb","getTotalArticles()":"0ebf1d3d","holderNFTCount(uint256,address)":"6ef87121","isApprovedForAll(address,address)":"e985e9c5","mintNFTEdition(uint256)":"bdeb0fb1","name()":"06fdde03","owner()":"8da5cb5b","ownerOf(uint256)":"6352211e","publishArticle(string,string,string,string,string,string[],uint256,uint256,uint256,uint256)":"160953c3","renounceOwnership()":"715018a6","royaltyInfo(uint256,uint256)":"2a55205a","safeTransferFrom(address,address,uint256)":"42842e0e","safeTransferFrom(address,address,uint256,bytes)":"b88d4fde","setApprovalForAll(address,bool)":"a22cb465","setReaderLicenseAMM(address)":"98c6e821","supportsInterface(bytes4)":"01ffc9a7","symbol()":"95d89b41","tokenToArticle(uint256)":"b27dde6a","tokenToEdition(uint256)":"602787ed","tokenURI(uint256)":"c87b56dd","transferFrom(address,address,uint256)":"23b872dd","transferOwnership(address)":"f2fde38b"}}}}}