{
  "_format": "hh-sol-artifact-1",
  "contractName": "ProfileNFT",
  "sourceName": "contracts/identity/ProfileNFT.sol",
  "abi": [
    {
      "inputs": [],
      "stateMutability": "nonpayable",
      "type": "constructor"
    },
    {
      "inputs": [
        {
          "internalType": "address",
          "name": "sender",
          "type": "address"
        },
        {
          "internalType": "uint256",
          "name": "tokenId",
          "type": "uint256"
        },
        {
          "internalType": "address",
          "name": "owner",
          "type": "address"
        }
      ],
      "name": "ERC721IncorrectOwner",
      "type": "error"
    },
    {
      "inputs": [
        {
          "internalType": "address",
          "name": "operator",
          "type": "address"
        },
        {
          "internalType": "uint256",
          "name": "tokenId",
          "type": "uint256"
        }
      ],
      "name": "ERC721InsufficientApproval",
      "type": "error"
    },
    {
      "inputs": [
        {
          "internalType": "address",
          "name": "approver",
          "type": "address"
        }
      ],
      "name": "ERC721InvalidApprover",
      "type": "error"
    },
    {
      "inputs": [
        {
          "internalType": "address",
          "name": "operator",
          "type": "address"
        }
      ],
      "name": "ERC721InvalidOperator",
      "type": "error"
    },
    {
      "inputs": [
        {
          "internalType": "address",
          "name": "owner",
          "type": "address"
        }
      ],
      "name": "ERC721InvalidOwner",
      "type": "error"
    },
    {
      "inputs": [
        {
          "internalType": "address",
          "name": "receiver",
          "type": "address"
        }
      ],
      "name": "ERC721InvalidReceiver",
      "type": "error"
    },
    {
      "inputs": [
        {
          "internalType": "address",
          "name": "sender",
          "type": "address"
        }
      ],
      "name": "ERC721InvalidSender",
      "type": "error"
    },
    {
      "inputs": [
        {
          "internalType": "uint256",
          "name": "tokenId",
          "type": "uint256"
        }
      ],
      "name": "ERC721NonexistentToken",
      "type": "error"
    },
    {
      "anonymous": false,
      "inputs": [
        {
          "indexed": true,
          "internalType": "address",
          "name": "owner",
          "type": "address"
        },
        {
          "indexed": true,
          "internalType": "address",
          "name": "approved",
          "type": "address"
        },
        {
          "indexed": true,
          "internalType": "uint256",
          "name": "tokenId",
          "type": "uint256"
        }
      ],
      "name": "Approval",
      "type": "event"
    },
    {
      "anonymous": false,
      "inputs": [
        {
          "indexed": true,
          "internalType": "address",
          "name": "owner",
          "type": "address"
        },
        {
          "indexed": true,
          "internalType": "address",
          "name": "operator",
          "type": "address"
        },
        {
          "indexed": false,
          "internalType": "bool",
          "name": "approved",
          "type": "bool"
        }
      ],
      "name": "ApprovalForAll",
      "type": "event"
    },
    {
      "anonymous": false,
      "inputs": [
        {
          "indexed": true,
          "internalType": "uint256",
          "name": "profileId",
          "type": "uint256"
        },
        {
          "indexed": true,
          "internalType": "address",
          "name": "owner",
          "type": "address"
        },
        {
          "indexed": false,
          "internalType": "uint256",
          "name": "membershipTokenId",
          "type": "uint256"
        },
        {
          "indexed": false,
          "internalType": "string",
          "name": "displayName",
          "type": "string"
        }
      ],
      "name": "ProfileMinted",
      "type": "event"
    },
    {
      "anonymous": false,
      "inputs": [
        {
          "indexed": true,
          "internalType": "uint256",
          "name": "profileId",
          "type": "uint256"
        },
        {
          "indexed": true,
          "internalType": "address",
          "name": "from",
          "type": "address"
        },
        {
          "indexed": true,
          "internalType": "address",
          "name": "to",
          "type": "address"
        }
      ],
      "name": "ProfileTransferred",
      "type": "event"
    },
    {
      "anonymous": false,
      "inputs": [
        {
          "indexed": true,
          "internalType": "uint256",
          "name": "profileId",
          "type": "uint256"
        },
        {
          "indexed": false,
          "internalType": "string[]",
          "name": "fieldsUpdated",
          "type": "string[]"
        },
        {
          "indexed": false,
          "internalType": "uint256",
          "name": "timestamp",
          "type": "uint256"
        }
      ],
      "name": "ProfileUpdated",
      "type": "event"
    },
    {
      "anonymous": false,
      "inputs": [
        {
          "indexed": true,
          "internalType": "address",
          "name": "from",
          "type": "address"
        },
        {
          "indexed": true,
          "internalType": "address",
          "name": "to",
          "type": "address"
        },
        {
          "indexed": true,
          "internalType": "uint256",
          "name": "tokenId",
          "type": "uint256"
        }
      ],
      "name": "Transfer",
      "type": "event"
    },
    {
      "inputs": [],
      "name": "MEMBERSHIP_TOKEN",
      "outputs": [
        {
          "internalType": "address",
          "name": "",
          "type": "address"
        }
      ],
      "stateMutability": "view",
      "type": "function"
    },
    {
      "inputs": [],
      "name": "PUBLISHER_CREDENTIALS",
      "outputs": [
        {
          "internalType": "address",
          "name": "",
          "type": "address"
        }
      ],
      "stateMutability": "view",
      "type": "function"
    },
    {
      "inputs": [
        {
          "internalType": "address",
          "name": "",
          "type": "address"
        }
      ],
      "name": "addressToProfileId",
      "outputs": [
        {
          "internalType": "uint256",
          "name": "",
          "type": "uint256"
        }
      ],
      "stateMutability": "view",
      "type": "function"
    },
    {
      "inputs": [
        {
          "internalType": "address",
          "name": "to",
          "type": "address"
        },
        {
          "internalType": "uint256",
          "name": "tokenId",
          "type": "uint256"
        }
      ],
      "name": "approve",
      "outputs": [],
      "stateMutability": "nonpayable",
      "type": "function"
    },
    {
      "inputs": [
        {
          "internalType": "address",
          "name": "owner",
          "type": "address"
        }
      ],
      "name": "balanceOf",
      "outputs": [
        {
          "internalType": "uint256",
          "name": "",
          "type": "uint256"
        }
      ],
      "stateMutability": "view",
      "type": "function"
    },
    {
      "inputs": [
        {
          "internalType": "uint256",
          "name": "tokenId",
          "type": "uint256"
        }
      ],
      "name": "getApproved",
      "outputs": [
        {
          "internalType": "address",
          "name": "",
          "type": "address"
        }
      ],
      "stateMutability": "view",
      "type": "function"
    },
    {
      "inputs": [
        {
          "internalType": "uint256",
          "name": "profileId",
          "type": "uint256"
        }
      ],
      "name": "getProfile",
      "outputs": [
        {
          "components": [
            {
              "internalType": "uint256",
              "name": "id",
              "type": "uint256"
            },
            {
              "internalType": "address",
              "name": "owner",
              "type": "address"
            },
            {
              "internalType": "uint256",
              "name": "membershipTokenId",
              "type": "uint256"
            },
            {
              "internalType": "string",
              "name": "displayName",
              "type": "string"
            },
            {
              "internalType": "string",
              "name": "bio",
              "type": "string"
            },
            {
              "internalType": "string",
              "name": "avatarUrl",
              "type": "string"
            },
            {
              "internalType": "string",
              "name": "location",
              "type": "string"
            },
            {
              "internalType": "uint256",
              "name": "createdAt",
              "type": "uint256"
            },
            {
              "internalType": "uint256",
              "name": "lastUpdatedAt",
              "type": "uint256"
            },
            {
              "internalType": "string",
              "name": "tosVersion",
              "type": "string"
            },
            {
              "internalType": "uint256",
              "name": "tosAcceptedAt",
              "type": "uint256"
            }
          ],
          "internalType": "struct ProfileNFT.Profile",
          "name": "",
          "type": "tuple"
        }
      ],
      "stateMutability": "view",
      "type": "function"
    },
    {
      "inputs": [
        {
          "internalType": "address",
          "name": "owner",
          "type": "address"
        }
      ],
      "name": "getProfileByAddress",
      "outputs": [
        {
          "components": [
            {
              "internalType": "uint256",
              "name": "id",
              "type": "uint256"
            },
            {
              "internalType": "address",
              "name": "owner",
              "type": "address"
            },
            {
              "internalType": "uint256",
              "name": "membershipTokenId",
              "type": "uint256"
            },
            {
              "internalType": "string",
              "name": "displayName",
              "type": "string"
            },
            {
              "internalType": "string",
              "name": "bio",
              "type": "string"
            },
            {
              "internalType": "string",
              "name": "avatarUrl",
              "type": "string"
            },
            {
              "internalType": "string",
              "name": "location",
              "type": "string"
            },
            {
              "internalType": "uint256",
              "name": "createdAt",
              "type": "uint256"
            },
            {
              "internalType": "uint256",
              "name": "lastUpdatedAt",
              "type": "uint256"
            },
            {
              "internalType": "string",
              "name": "tosVersion",
              "type": "string"
            },
            {
              "internalType": "uint256",
              "name": "tosAcceptedAt",
              "type": "uint256"
            }
          ],
          "internalType": "struct ProfileNFT.Profile",
          "name": "",
          "type": "tuple"
        }
      ],
      "stateMutability": "view",
      "type": "function"
    },
    {
      "inputs": [
        {
          "internalType": "uint256",
          "name": "profileId",
          "type": "uint256"
        }
      ],
      "name": "getProfileHistory",
      "outputs": [
        {
          "components": [
            {
              "internalType": "uint256",
              "name": "timestamp",
              "type": "uint256"
            },
            {
              "internalType": "string",
              "name": "fieldName",
              "type": "string"
            },
            {
              "internalType": "string",
              "name": "oldValue",
              "type": "string"
            },
            {
              "internalType": "string",
              "name": "newValue",
              "type": "string"
            },
            {
              "internalType": "address",
              "name": "updatedBy",
              "type": "address"
            }
          ],
          "internalType": "struct ProfileNFT.ProfileUpdate[]",
          "name": "",
          "type": "tuple[]"
        }
      ],
      "stateMutability": "view",
      "type": "function"
    },
    {
      "inputs": [
        {
          "internalType": "uint256",
          "name": "profileId",
          "type": "uint256"
        }
      ],
      "name": "getProfileMembershipToken",
      "outputs": [
        {
          "internalType": "uint256",
          "name": "",
          "type": "uint256"
        }
      ],
      "stateMutability": "view",
      "type": "function"
    },
    {
      "inputs": [
        {
          "internalType": "address",
          "name": "owner",
          "type": "address"
        }
      ],
      "name": "hasProfile",
      "outputs": [
        {
          "internalType": "bool",
          "name": "",
          "type": "bool"
        }
      ],
      "stateMutability": "view",
      "type": "function"
    },
    {
      "inputs": [
        {
          "internalType": "address",
          "name": "owner",
          "type": "address"
        },
        {
          "internalType": "address",
          "name": "operator",
          "type": "address"
        }
      ],
      "name": "isApprovedForAll",
      "outputs": [
        {
          "internalType": "bool",
          "name": "",
          "type": "bool"
        }
      ],
      "stateMutability": "view",
      "type": "function"
    },
    {
      "inputs": [
        {
          "internalType": "string",
          "name": "displayName",
          "type": "string"
        },
        {
          "internalType": "string",
          "name": "bio",
          "type": "string"
        },
        {
          "internalType": "string",
          "name": "avatarUrl",
          "type": "string"
        },
        {
          "internalType": "string",
          "name": "location",
          "type": "string"
        },
        {
          "internalType": "string",
          "name": "tosVersion",
          "type": "string"
        }
      ],
      "name": "mintProfile",
      "outputs": [
        {
          "internalType": "uint256",
          "name": "",
          "type": "uint256"
        }
      ],
      "stateMutability": "nonpayable",
      "type": "function"
    },
    {
      "inputs": [],
      "name": "name",
      "outputs": [
        {
          "internalType": "string",
          "name": "",
          "type": "string"
        }
      ],
      "stateMutability": "view",
      "type": "function"
    },
    {
      "inputs": [
        {
          "internalType": "uint256",
          "name": "tokenId",
          "type": "uint256"
        }
      ],
      "name": "ownerOf",
      "outputs": [
        {
          "internalType": "address",
          "name": "",
          "type": "address"
        }
      ],
      "stateMutability": "view",
      "type": "function"
    },
    {
      "inputs": [
        {
          "internalType": "uint256",
          "name": "",
          "type": "uint256"
        },
        {
          "internalType": "uint256",
          "name": "",
          "type": "uint256"
        }
      ],
      "name": "profileHistory",
      "outputs": [
        {
          "internalType": "uint256",
          "name": "timestamp",
          "type": "uint256"
        },
        {
          "internalType": "string",
          "name": "fieldName",
          "type": "string"
        },
        {
          "internalType": "string",
          "name": "oldValue",
          "type": "string"
        },
        {
          "internalType": "string",
          "name": "newValue",
          "type": "string"
        },
        {
          "internalType": "address",
          "name": "updatedBy",
          "type": "address"
        }
      ],
      "stateMutability": "view",
      "type": "function"
    },
    {
      "inputs": [
        {
          "internalType": "uint256",
          "name": "",
          "type": "uint256"
        }
      ],
      "name": "profiles",
      "outputs": [
        {
          "internalType": "uint256",
          "name": "id",
          "type": "uint256"
        },
        {
          "internalType": "address",
          "name": "owner",
          "type": "address"
        },
        {
          "internalType": "uint256",
          "name": "membershipTokenId",
          "type": "uint256"
        },
        {
          "internalType": "string",
          "name": "displayName",
          "type": "string"
        },
        {
          "internalType": "string",
          "name": "bio",
          "type": "string"
        },
        {
          "internalType": "string",
          "name": "avatarUrl",
          "type": "string"
        },
        {
          "internalType": "string",
          "name": "location",
          "type": "string"
        },
        {
          "internalType": "uint256",
          "name": "createdAt",
          "type": "uint256"
        },
        {
          "internalType": "uint256",
          "name": "lastUpdatedAt",
          "type": "uint256"
        },
        {
          "internalType": "string",
          "name": "tosVersion",
          "type": "string"
        },
        {
          "internalType": "uint256",
          "name": "tosAcceptedAt",
          "type": "uint256"
        }
      ],
      "stateMutability": "view",
      "type": "function"
    },
    {
      "inputs": [
        {
          "internalType": "address",
          "name": "from",
          "type": "address"
        },
        {
          "internalType": "address",
          "name": "to",
          "type": "address"
        },
        {
          "internalType": "uint256",
          "name": "tokenId",
          "type": "uint256"
        }
      ],
      "name": "safeTransferFrom",
      "outputs": [],
      "stateMutability": "nonpayable",
      "type": "function"
    },
    {
      "inputs": [
        {
          "internalType": "address",
          "name": "from",
          "type": "address"
        },
        {
          "internalType": "address",
          "name": "to",
          "type": "address"
        },
        {
          "internalType": "uint256",
          "name": "tokenId",
          "type": "uint256"
        },
        {
          "internalType": "bytes",
          "name": "data",
          "type": "bytes"
        }
      ],
      "name": "safeTransferFrom",
      "outputs": [],
      "stateMutability": "nonpayable",
      "type": "function"
    },
    {
      "inputs": [
        {
          "internalType": "address",
          "name": "operator",
          "type": "address"
        },
        {
          "internalType": "bool",
          "name": "approved",
          "type": "bool"
        }
      ],
      "name": "setApprovalForAll",
      "outputs": [],
      "stateMutability": "nonpayable",
      "type": "function"
    },
    {
      "inputs": [
        {
          "internalType": "bytes4",
          "name": "interfaceId",
          "type": "bytes4"
        }
      ],
      "name": "supportsInterface",
      "outputs": [
        {
          "internalType": "bool",
          "name": "",
          "type": "bool"
        }
      ],
      "stateMutability": "view",
      "type": "function"
    },
    {
      "inputs": [],
      "name": "symbol",
      "outputs": [
        {
          "internalType": "string",
          "name": "",
          "type": "string"
        }
      ],
      "stateMutability": "view",
      "type": "function"
    },
    {
      "inputs": [
        {
          "internalType": "uint256",
          "name": "tokenId",
          "type": "uint256"
        }
      ],
      "name": "tokenURI",
      "outputs": [
        {
          "internalType": "string",
          "name": "",
          "type": "string"
        }
      ],
      "stateMutability": "view",
      "type": "function"
    },
    {
      "inputs": [
        {
          "internalType": "address",
          "name": "from",
          "type": "address"
        },
        {
          "internalType": "address",
          "name": "to",
          "type": "address"
        },
        {
          "internalType": "uint256",
          "name": "tokenId",
          "type": "uint256"
        }
      ],
      "name": "transferFrom",
      "outputs": [],
      "stateMutability": "nonpayable",
      "type": "function"
    },
    {
      "inputs": [
        {
          "internalType": "uint256",
          "name": "profileId",
          "type": "uint256"
        },
        {
          "internalType": "string",
          "name": "displayName",
          "type": "string"
        },
        {
          "internalType": "string",
          "name": "bio",
          "type": "string"
        },
        {
          "internalType": "string",
          "name": "avatarUrl",
          "type": "string"
        },
        {
          "internalType": "string",
          "name": "location",
          "type": "string"
        }
      ],
      "name": "updateProfile",
      "outputs": [],
      "stateMutability": "nonpayable",
      "type": "function"
    }
  ],
  "bytecode": "0x60803462000323576001600160401b0390604090808201838111828210176200030d578252601681526020927f496d6d757461626c65547970652050726f66696c657300000000000000000000848301528251838101818110838211176200030d578452600381526204954560ec1b858201528251908282116200030d5760008054926001958685811c9516801562000302575b89861014620002ee578190601f958681116200029b575b508990868311600114620002375784926200022b575b5050600019600383901b1c191690861b1781555b8151938411620002175784548581811c911680156200020c575b88821014620001f857838111620001b0575b50869284116001146200014a578394959650926200013e575b5050600019600383901b1c191690821b1781555b600655516133809081620003298239f35b01519050388062000119565b9190601f1984169685845280842093905b8882106200019857505083859697106200017e575b505050811b0181556200012d565b015160001960f88460031b161c1916905538808062000170565b8087859682949686015181550195019301906200015b565b8582528782208480870160051c8201928a8810620001ee575b0160051c019086905b828110620001e257505062000100565b838155018690620001d2565b92508192620001c9565b634e487b7160e01b82526022600452602482fd5b90607f1690620000ee565b634e487b7160e01b81526041600452602490fd5b015190503880620000c0565b8480528a85208994509190601f198416865b8d8282106200028457505084116200026a575b505050811b018155620000d4565b015160001960f88460031b161c191690553880806200025c565b8385015186558c9790950194938401930162000249565b9091508380528984208680850160051c8201928c8610620002e4575b918a91869594930160051c01915b828110620002d5575050620000aa565b8681558594508a9101620002c5565b92508192620002b7565b634e487b7160e01b83526022600452602483fd5b94607f169462000093565b634e487b7160e01b600052604160045260246000fd5b600080fdfe608080604052600436101561001357600080fd5b60003560e01c90816301ffc9a7146123625750806306fdde03146122bf578063070117c414612285578063081812fc14612247578063095ea7b3146121605780631ad108201461208a57806323b872dd146120735780632f9f3041146116c35780633234a8651461167157806342842e0e146116435780634cd6959c146115a25780635341853c146109245780635b8fd9f9146108f55780636352211e146108c557806370a082311461086c578063879740c6146106c857806395d89b41146105e9578063a22cb46514610544578063a787c80b14610508578063b88d4fde1461049b578063c36fe3d61461033c578063c87b56dd146102e9578063cb541ef2146102ba578063e985e9c5146102645763f08f4f641461013257600080fd5b3461025f57602036600319011261025f5761025b600435610151613125565b506000818152600260205260409020546001600160a01b0391906101789083161515613178565b6000526007602052600a60406000206040519261019484612556565b815484526001820154166020840152600281015460408401526040516101c8816101c181600386016124a5565b03826125a8565b60608401526040516101e1816101c181600486016124a5565b60808401526040516101fa816101c181600586016124a5565b60a0840152604051610213816101c181600686016124a5565b60c0840152600781015460e08401526008810154610100840152604051610241816101c181600986016124a5565b61012084015201546101408201526040519182918261266e565b0390f35b600080fd5b3461025f57604036600319011261025f5761027d61240d565b610285612423565b9060018060a01b03809116600052600560205260406000209116600052602052602060ff604060002054166040519015158152f35b3461025f57600036600319011261025f576020604051738b351bc93799898a201e796405dbc30aad49ee218152f35b3461025f57602036600319011261025f576103056004356129ae565b50600060405161031481612572565b5261025b60405161032481612572565b600081526040519182916020835260208301906123cd565b3461025f57602036600319011261025f57600435600052600760205260406000208054600160a01b600190036001830154169160028101549060405180806003840190610388916124a5565b0361039390826125a8565b60405190816103a581600486016124a5565b036103b090836125a8565b604051806103c181600587016124a5565b036103cc90826125a8565b60405190816103de81600688016124a5565b036103e990836125a8565b6007850154936008860154936040519687806009830190610409916124a5565b0361041490896125a8565b600a0154976040519a8b9a8b5260208b015260408a01526101608060608b0152890161043f916123cd565b88810360808a0152610450916123cd565b87810360a0890152610461916123cd565b86810360c0880152610472916123cd565b9160e0860152610100850152838103610120850152610490916123cd565b906101408301520390f35b3461025f57608036600319011261025f576104b461240d565b6104bc612423565b90604435606435926001600160401b03841161025f573660238501121561025f576104f4610506943690602481600401359101612619565b92610500838383612734565b336129e9565b005b3461025f57602036600319011261025f576001600160a01b0361052961240d565b16600052600860205260206040600020541515604051908152f35b3461025f57604036600319011261025f5761055d61240d565b6024359081151580920361025f576001600160a01b03169081156105d057336000526005602052604060002082600052602052604060002060ff1981541660ff83161790556040519081527f17307eab39ab6107e8899845ad3d59bd9653f200f220920489ca2b5937696c3160203392a3005b604051630b61174360e31b815260048101839052602490fd5b3461025f57600036600319011261025f576040516000600180549061060d8261246b565b808552918181169081156106a15750600114610648575b61025b84610634818603826125a8565b6040519182916020835260208301906123cd565b600081815292507fb10e2d527612073b26eecdfd717e6a320cf44b4afac2b0732d9fcbe2b7fa0cf65b82841061068957505050810160200161063482610624565b80546020858701810191909152909301928101610671565b60ff191660208087019190915292151560051b850190920192506106349150839050610624565b3461025f5760208060031936011261025f57600435908160005260029081815260018060a01b039261070284604060002054161515613178565b60005260098152604060002090815461071a81612caa565b9361072860405195866125a8565b81855260009384528284208386019491855b8484106107ee575050505050604051928184019082855251809152604084019160408260051b86010193926000965b8388106107765786860387f35b90919293948380600192603f198a8203018652885190815181526107d16107be6107ac8585015160a080888701528501906123cd565b604085015184820360408601526123cd565b60608085015190848303908501526123cd565b918660808092015116910152970193019701969093929193610769565b60058660019260409a989a516108038161253b565b8654815260405161081a816101c181898c016124a5565b83820152604051610831816101c1818a8c016124a5565b604082015260405161084a816101c18160038c016124a5565b60608201528c600488015416608082015281520193019301929196949661073a565b3461025f57602036600319011261025f576001600160a01b0361088d61240d565b1680156108ac5760005260036020526020604060002054604051908152f35b6040516322718ad960e21b815260006004820152602490fd5b3461025f57602036600319011261025f5760206108e36004356129ae565b6040516001600160a01b039091168152f35b3461025f57600036600319011261025f57602060405173c90be82b23dca9453445b69fb22d5a90402654b28152f35b3461025f5760a036600319011261025f576004356001600160401b03811161025f57610954903690600401612650565b6024356001600160401b03811161025f57610973903690600401612650565b906044356001600160401b03811161025f57610993903690600401612650565b906064356001600160401b03811161025f576109b3903690600401612650565b6084356001600160401b03811161025f576109d2903690600401612650565b906040516370a0823160e01b815233600482015260208160248173c90be82b23dca9453445b69fb22d5a90402654b25afa90811561159657600091611564575b501561150e573360005260086020526040600020546114c957610a3783511515612b38565b610a45603284511115612b84565b610a546101f486511115612bc8565b610a6260c885511115612c03565b610a70606482511115612c45565b8151156114925760065493610a8485612c85565b600655604051610a9381612572565b600081523315611479576000868152600260205260409020546001600160a01b031680611442575b3360005260036020526040600020600181540190558660005260026020526040600020336001600160601b0360a01b8254161790558633827fddf252ad1be2c89b69c2b068fc378daa952ba7f163c4a11628f55a4df523b3ef600080a48015158161143a575b80611430575b61135d575b61134457333b611225575b5060405195610b4587612556565b8587523360208801526103e76040880152846060880152608087015260a086015260c08501524260e085015242610100850152610120840152426101408401528160005260076020526040600020835181556001810160018060a01b036020860151166001600160601b0360a01b8254161790556040840151600282015560608401518051906001600160401b038211610ede578190610be8600385015461246b565b601f81116111d2575b50602090601f831160011461116057600092611155575b50508160011b916000199060031b1c19161760038201555b60808401518051906001600160401b038211610ede578190610c45600485015461246b565b601f8111611102575b50602090601f83116001146110955760009261108a575b50508160011b916000199060031b1c19161760048201555b60a08401518051906001600160401b038211610ede578190610ca2600585015461246b565b601f8111611037575b50602090601f8311600114610fca57600092610fbf575b50508160011b916000199060031b1c19161760058201555b60c08401518051906001600160401b038211610ede578190610cff600685015461246b565b601f8111610f6c575b50602090601f8311600114610eff57600092610ef4575b50508160011b916000199060031b1c19161760068201555b60e0840151600782015561010084015160088201556101208401519384516001600160401b038111610ede57610d70600984015461246b565b95601f8711610e93575b602096508690601f8311600114610e1f579180600a949261014094600092610e14575b50508160011b916000199060031b1c19161760098501555b0151910155336000526008835281604060002055817f0b03cf2a4c64fd370d36088885bc7043b0562dd26f625a847517afb8a1de17fa6040516103e7815260408682015280610e09339560408301906123cd565b0390a3604051908152f35b015190508980610d9d565b9060098501600052876000209160005b601f1985168110610e7c575092600a94926001926101409583601f19811610610e63575b505050811b016009850155610db5565b015160001960f88460031b161c19169055898080610e53565b919289600181928685015181550194019201610e2f565b600984016000526020600020601f830160051c81019760208410610ed4575b601f0160051c01965b878110610ec85750610d7a565b60008155600101610ebb565b9097508790610eb2565b634e487b7160e01b600052604160045260246000fd5b015190508680610d1f565b600685016000908152602081209350601f198516905b818110610f545750908460019594939210610f3b575b505050811b016006820155610d37565b015160001960f88460031b161c19169055868080610f2b565b92936020600181928786015181550195019301610f15565b909150600684016000526020600020601f840160051c810160208510610fb8575b90849392915b601f830160051c82018110610fa9575050610d08565b60008155859450600101610f93565b5080610f8d565b015190508680610cc2565b600585016000908152602081209350601f198516905b81811061101f5750908460019594939210611006575b505050811b016005820155610cda565b015160001960f88460031b161c19169055868080610ff6565b92936020600181928786015181550195019301610fe0565b909150600584016000526020600020601f840160051c810160208510611083575b90849392915b601f830160051c82018110611074575050610cab565b6000815585945060010161105e565b5080611058565b015190508680610c65565b600485016000908152602081209350601f198516905b8181106110ea57509084600195949392106110d1575b505050811b016004820155610c7d565b015160001960f88460031b161c191690558680806110c1565b929360206001819287860151815501950193016110ab565b909150600484016000526020600020601f840160051c81016020851061114e575b90849392915b601f830160051c8201811061113f575050610c4e565b60008155859450600101611129565b5080611123565b015190508680610c08565b9250600384016000526020600020906000935b601f19841685106111b7576001945083601f1981161061119e575b505050811b016003820155610c20565b015160001960f88460031b161c1916905586808061118e565b81810151835560209485019460019093019290910190611173565b909150600384016000526020600020601f840160051c81016020851061121e575b90849392915b601f830160051c8201811061120f575050610bf1565b600081558594506001016111f9565b50806111f3565b60206112609160405180938192630a85bd0160e11b8352336004840152600060248401528a60448401526080606484015260848301906123cd565b03816000335af1600091816112ff575b506112ca573d156112c3573d611285816125fe565b9061129360405192836125a8565b81523d6000602083013e5b805190816112be57604051633250574960e11b8152336004820152602490fd5b602001fd5b606061129e565b6001600160e01b03191663757a42ff60e11b016112e75786610b37565b604051633250574960e11b8152336004820152602490fd5b9091506020813d60201161133c575b8161131b602093836125a8565b8101031261025f57516001600160e01b03198116810361025f579088611270565b3d915061130e565b6040516339e3563760e11b815260006004820152602490fd5b60076020526001604060002001336001600160601b0360a01b82541617905580600052600860205260006040812055336000528660406000205586600052600960205261140360406000206113b1836131ce565b906113bb336131ce565b604051926113c88461253b565b4284526040516113d78161258d565b600581526437bbb732b960d91b6020820152602085015260408401526060830152836080830152612ce8565b3381887fce17dd930136cb49c8d4082c496b659280c0ba465f563314a4d7d68cf4dd6b4b600080a4610b2c565b5033811415610b27565b506001610b21565b600087815260046020526040902080546001600160a01b031916905580600052600360205260406000206000198154019055610abb565b604051633250574960e11b815260006004820152602490fd5b60405162461bcd60e51b815260206004820152600f60248201526e4d7573742061636365707420544f5360881b6044820152606490fd5b60405162461bcd60e51b815260206004820152601d60248201527f4164647265737320616c72656164792068617320612070726f66696c650000006044820152606490fd5b60405162461bcd60e51b815260206004820152602860248201527f4d75737420686f6c6420496d6d757461626c6554797065206d656d626572736860448201526734b8103a37b5b2b760c11b6064820152608490fd5b90506020813d60201161158e575b8161157f602093836125a8565b8101031261025f575186610a12565b3d9150611572565b6040513d6000823e3d90fd5b3461025f57602036600319011261025f576115bb61240d565b6115c3613125565b506001600160a01b039081166000908152600860205260409020549081156116055761025b916000526007602052600a60406000206040519261019484612556565b60405162461bcd60e51b81526020600482015260166024820152754164647265737320686173206e6f2070726f66696c6560501b6044820152606490fd5b3461025f57610506611654366125c9565b906040519261166284612572565b60008452610500838383612734565b3461025f57602036600319011261025f576004356000818152600260205260409020546116a8906001600160a01b03161515613178565b60005260076020526020600260406000200154604051908152f35b3461025f5760a036600319011261025f576024356001600160401b03811161025f576116f3903690600401612650565b6044356001600160401b03811161025f57611712903690600401612650565b906064356001600160401b03811161025f57611732903690600401612650565b6084356001600160401b03811161025f57611751903690600401612650565b6004356000908152600760205260409020600101546001600160a01b0316330361203a5761178183511515612b38565b61178f603284511115612b84565b61179e6101f485511115612bc8565b6117ac60c883511115612c03565b6117ba606482511115612c45565b6004356000526007602052604060002091604051946117d88661253b565b6004865260005b6080811061202957506000946040516117ff816101c18160038a016124a5565b602081519101208151602083012003611e95575b50604051611828816101c181600489016124a5565b602081519101208151602083012003611cf7575b50604051611851816101c181600588016124a5565b602081519101208151602083012003611b59575b50600682019060405161187c816101c181866124a5565b6020815191012081516020830120036119b9575b505060084291015560ff809116806118a457005b6118ad81612caa565b926118bb60405194856125a8565b818452601f196118ca83612caa565b0160005b8181106119a857505060005b838116908382101561191457611909826118f761190f94866130a9565b51611902828a6130a9565b52876130a9565b5061308b565b6118da565b5050505050604051604081016040825282518091526060820190602060608260051b8501019401916000905b82821061197d57505050507fc0dcbc34f5bf307bb4b79635d05cb496e06ab2d057b3dceaa75839286621aeb59042602082015280600435930390a2005b9091929460208061199a600193605f1989820301865289516123cd565b970192019201909291611940565b8060606020809389010152016118ce565b6004356000526009602052611a106040600020604051906119d98261253b565b4282526119e4613101565b60208301526040516119fa816101c181896124a5565b6040830152836060830152336080830152612ce8565b8051906001600160401b038211610ede578190611a2d845461246b565b601f8111611b06575b50602090601f8311600114611aa057600092611a95575b50508160011b916000199060031b1c19161790555b611a8d611a6e8361308b565b9260ff611a79613101565b911690611a8682876130a9565b52846130a9565b508380611890565b015190508680611a4d565b6000858152602081209350601f198516905b818110611aee5750908460019594939210611ad5575b505050811b019055611a62565b015160001960f88460031b161c19169055868080611ac8565b92936020600181928786015181550195019301611ab2565b909150836000526020600020601f840160051c81019160208510611b4f575b90601f859493920160051c01905b818110611b405750611a36565b60008155849350600101611b33565b9091508190611b25565b6004356000526009602052611b9d604060002060405190611b798261253b565b428252611b846130dc565b60208301526040516119fa816101c18160058b016124a5565b8051906001600160401b038211610ede578190611bbd600586015461246b565b601f8111611ca4575b50602090601f8311600114611c3257600092611c27575b50508160011b916000199060031b1c19161760058301555b611c20611c018461308b565b9360ff611c0c6130dc565b911690611c1982886130a9565b52856130a9565b5084611865565b015190508680611bdd565b9250600585016000526020600020906000935b601f1984168510611c89576001945083601f19811610611c70575b505050811b016005830155611bf5565b015160001960f88460031b161c19169055868080611c60565b81810151835560209485019460019093019290910190611c45565b909150600585016000526020600020601f840160051c810160208510611cf0575b90849392915b601f830160051c82018110611ce1575050611bc6565b60008155859450600101611ccb565b5080611cc5565b6004356000526009602052611d3b604060002060405190611d178261253b565b428252611d226130bd565b60208301526040516119fa816101c18160048c016124a5565b8051906001600160401b038211610ede578190611d5b600487015461246b565b601f8111611e42575b50602090601f8311600114611dd057600092611dc5575b50508160011b916000199060031b1c19161760048401555b611dbe611d9f8561308b565b9460ff611daa6130bd565b911690611db782896130a9565b52866130a9565b508561183c565b015190508780611d7b565b9250600486016000526020600020906000935b601f1984168510611e27576001945083601f19811610611e0e575b505050811b016004840155611d93565b015160001960f88460031b161c19169055878080611dfe565b81810151835560209485019460019093019290910190611de3565b909150600486016000526020600020601f840160051c810160208510611e8e575b90849392915b601f830160051c82018110611e7f575050611d64565b60008155859450600101611e69565b5080611e63565b9094506004356000526009602052611edc604060002060405190611eb88261253b565b428252611ec3612cc1565b60208301526040516119fa816101c18160038c016124a5565b8051906001600160401b038211610ede578190611efc600387015461246b565b601f8111611fd6575b50602090601f8311600114611f6457600092611f59575b50508160011b916000199060031b1c19161760038401555b600193611f3f612cc1565b611f488761309c565b52611f528661309c565b5086611813565b015190508780611f1c565b9250600386016000526020600020906000935b601f1984168510611fbb576001945083601f19811610611fa2575b505050811b016003840155611f34565b015160001960f88460031b161c19169055878080611f92565b81810151835560209485019460019093019290910190611f77565b909150600386016000526020600020601f840160051c810160208510612022575b90849392915b601f830160051c82018110612013575050611f05565b60008155859450600101611ffd565b5080611ff7565b806060602080938a010152016117df565b60405162461bcd60e51b81526020600482015260116024820152702737ba10383937b334b6329037bbb732b960791b6044820152606490fd5b3461025f57610506612084366125c9565b91612734565b3461025f57604036600319011261025f576024356004356000526009602052604060002090815481101561025f576120c191612439565b508054604051916120e0836120d981600185016124a5565b03846125a8565b612156604051916120f8836120d981600285016124a5565b61214860405191612110836120d981600385016124a5565b600460018060a01b03910154169361213a604051978897885260a0602089015260a08801906123cd565b9086820360408801526123cd565b9084820360608601526123cd565b9060808301520390f35b3461025f57604036600319011261025f5761217961240d565b602435612185816129ae565b33151580612234575b80612207575b6121ef576001600160a01b039283169282918491167f8c5be1e5ebec7d5bd14f71427d1e84f3dd0314c0f7b2291e5b200ac8c7c3b925600080a4600090815260046020526040902080546001600160a01b0319169091179055005b60405163a9fbf51f60e01b8152336004820152602490fd5b5060018060a01b038116600052600560205260406000203360005260205260ff6040600020541615612194565b506001600160a01b03811633141561218e565b3461025f57602036600319011261025f57600435612264816129ae565b506000526004602052602060018060a01b0360406000205416604051908152f35b3461025f57602036600319011261025f576001600160a01b036122a661240d565b1660005260086020526020604060002054604051908152f35b3461025f57600036600319011261025f57604051600080546122e08161246b565b808452906001908181169081156106a157506001146123095761025b84610634818603826125a8565b600080805292507f290decd9548b62a8d60345a988386fc84ba6bc95484008f6362f93160ef3e5635b82841061234a57505050810160200161063482610624565b80546020858701810191909152909301928101612332565b3461025f57602036600319011261025f576004359063ffffffff60e01b821680920361025f576020916380ac58cd60e01b81149081156123bc575b81156123ab575b5015158152f35b6301ffc9a760e01b149050836123a4565b635b5e139f60e01b8114915061239d565b919082519283825260005b8481106123f9575050826000602080949584010152601f8019910116010190565b6020818301810151848301820152016123d8565b600435906001600160a01b038216820361025f57565b602435906001600160a01b038216820361025f57565b8054821015612455576000526005602060002091020190600090565b634e487b7160e01b600052603260045260246000fd5b90600182811c9216801561249b575b602083101461248557565b634e487b7160e01b600052602260045260246000fd5b91607f169161247a565b90600092918054916124b68361246b565b91828252600193848116908160001461251857506001146124d8575b50505050565b90919394506000526020928360002092846000945b8386106125045750505050010190388080806124d2565b8054858701830152940193859082016124ed565b9294505050602093945060ff191683830152151560051b010190388080806124d2565b60a081019081106001600160401b03821117610ede57604052565b61016081019081106001600160401b03821117610ede57604052565b602081019081106001600160401b03821117610ede57604052565b604081019081106001600160401b03821117610ede57604052565b90601f801991011681019081106001600160401b03821117610ede57604052565b606090600319011261025f576001600160a01b0390600435828116810361025f5791602435908116810361025f579060443590565b6001600160401b038111610ede57601f01601f191660200190565b929192612625826125fe565b9161263360405193846125a8565b82948184528183011161025f578281602093846000960137010152565b9080601f8301121561025f5781602061266b93359101612619565b90565b602081528151602082015260018060a01b0360208301511660408201526040820151606082015260608201516126b2610160918260808501526101808401906123cd565b61272b6126ff6126eb6126d7608088015194601f1995868983030160a08a01526123cd565b60a0880151858883030160c08901526123cd565b60c0870151848783030160e08801526123cd565b60e0860151610100908187015286015161012090818701528601516101409386830301848701526123cd565b93015191015290565b90916001600160a01b03808416928315611479576000938385526020600281528460409787868a809a20541698899433151580612916575b5085151593846128e3575b87845260038252828420805460010190558584526002825282842080546001600160a01b03199081168a17909155948689897fddf252ad1be2c89b69c2b068fc378daa952ba7f163c4a11628f55a4df523b3ef8880a4806128db575b806128d1575b612816575b505050505050505016928383036127f55750505050565b6064945051926364283d7b60e01b8452600484015260248301526044820152fd5b7fce17dd930136cb49c8d4082c496b659280c0ba465f563314a4d7d68cf4dd6b4b948860016128c295600786528720019182541617905586845260088252838d812055878452858d852055858452600982528c8085209161287f6128798a6131ce565b916131ce565b9180519461288c8661253b565b42865281519061289b8261258d565b600582526437bbb732b960d91b818301528601528401526060830152866080830152612ce8565b80a438848482808981806127de565b50878714156127d9565b5060016127d3565b600086815260046020526040902080546001600160a01b0319169055868452600382528284208054600019019055612777565b929450929450508061296d575b15612934579186918989943861276c565b888789612951576024915190637e27328960e01b82526004820152fd5b604491519063177e802f60e01b82523360048301526024820152fd5b503388148015612992575b8061292357508682526004815233868a8420541614612923565b5087825260058152888220338352815260ff8983205416612978565b6000818152600260205260409020546001600160a01b03169081156129d1575090565b60249060405190637e27328960e01b82526004820152fd5b909192833b6129fa575b5050505050565b604051630a85bd0160e11b8082526001600160a01b039384166004830152938316602482015260448101919091526080606482015260209591909316939091908390612a4a9060848301906123cd565b039285816000958187895af1849181612af4575b50612abe575050503d600014612ab6573d612a78816125fe565b90612a8660405192836125a8565b81528091843d92013e5b80519283612ab157604051633250574960e11b815260048101849052602490fd5b019050fd5b506060612a90565b919450915063ffffffff60e01b1603612adc575038808080806129f3565b60249060405190633250574960e11b82526004820152fd5b9091508681813d8311612b31575b612b0c81836125a8565b81010312612b2d57516001600160e01b031981168103612b2d579038612a5e565b8480fd5b503d612b02565b15612b3f57565b60405162461bcd60e51b815260206004820152601c60248201527f446973706c6179206e616d652063616e6e6f7420626520656d707479000000006044820152606490fd5b15612b8b57565b60405162461bcd60e51b8152602060048201526015602482015274446973706c6179206e616d6520746f6f206c6f6e6760581b6044820152606490fd5b15612bcf57565b60405162461bcd60e51b815260206004820152600c60248201526b42696f20746f6f206c6f6e6760a01b6044820152606490fd5b15612c0a57565b60405162461bcd60e51b81526020600482015260136024820152724176617461722055524c20746f6f206c6f6e6760681b6044820152606490fd5b15612c4c57565b60405162461bcd60e51b81526020600482015260116024820152704c6f636174696f6e20746f6f206c6f6e6760781b6044820152606490fd5b6000198114612c945760010190565b634e487b7160e01b600052601160045260246000fd5b6001600160401b038111610ede5760051b60200190565b60405190612cce8261258d565b600b82526a646973706c61794e616d6560a81b6020830152565b9190825468010000000000000000811015610ede57612d0e906001948582018155612439565b613075578151815583810193602090818401518051966001600160401b0397888111610ede5780612d3f835461246b565b93601f94858111613023575b508690858311600114612fc057600092612fb5575b5050600019600383901b1c191690841b1790555b600284016040860151805190898211610ede578190612d93845461246b565b858111612f64575b508690858311600114612f0157600092612ef6575b5050600019600383901b1c191690841b1790555b60038401926060860151908151988911610ede57612de2855461246b565b838111612eb0575b5080928911600114612e48575096809281926004979899600094612e3d575b50501b916000199060031b1c19161790555b0190608060018060a01b03910151166001600160601b0360a01b825416179055565b015192503880612e09565b909791601f198316988560005282600020926000905b8b8210612e9957505083600498999a10612e80575b505050811b019055612e1b565b015160001960f88460031b161c19169055388080612e73565b808785968294968601518155019501930190612e5e565b856000528160002084808c0160051c820192848d10612eed575b0160051c019085905b828110612ee1575050612dea565b60008155018590612ed3565b92508192612eca565b015190503880612db0565b90869350601f1983169185600052886000209260005b8a828210612f4e5750508411612f35575b505050811b019055612dc4565b015160001960f88460031b161c19169055388080612f28565b8385015186558a97909501949384019301612f17565b90915083600052866000208580850160051c820192898610612fac575b918891869594930160051c01915b828110612f9d575050612d9b565b60008155859450889101612f8f565b92508192612f81565b015190503880612d60565b90869350601f1983169185600052886000209260005b8a82821061300d5750508411612ff4575b505050811b019055612d74565b015160001960f88460031b161c19169055388080612fe7565b8385015186558a97909501949384019301612fd6565b90915060008481528781208680860160051c8201938a871061306c575b91899187969594930160051c01925b83811061305e57505050612d4b565b82815586955089910161304f565b93508193613040565b634e487b7160e01b600052600060045260246000fd5b60ff1660ff8114612c945760010190565b8051156124555760200190565b80518210156124555760209160051b010190565b604051906130ca8261258d565b600382526262696f60e81b6020830152565b604051906130e98261258d565b6009825268185d985d185c955c9b60ba1b6020830152565b6040519061310e8261258d565b60088252673637b1b0ba34b7b760c11b6020830152565b6040519061313282612556565b81610140600091828152826020820152826040820152606080808301528060808301528060a08301528060c08301528360e0830152836101008301526101208201520152565b1561317f57565b60405162461bcd60e51b8152602060048201526016602482015275141c9bd99a5b1948191bd95cc81b9bdd08195e1a5cdd60521b6044820152606490fd5b908151811015612455570160200190565b60405190606082018281106001600160401b03821117610ede57604052602a825260208201604036823782511561245557603090538151600190811015612455576078602184015360005b601481106132275750505090565b601390808203918211612c945760039180831b906001600160fd1b03811603612c945760ff90818111612c945784811b156132f2576001600160a01b038616901c60f0811682821603918211612c94576132899060f41b600f60f81b16613308565b82851b916001600160ff1b0384168403612c945760028301808411612c94576132b96132cc9360001a918a6131bd565b5360f81b6001600160f81b031916613308565b928101809111612c94576132e76132ed9360001a91876131bd565b53612c85565b613219565b634e487b7160e01b600052601260045260246000fd5b60f81c600a81101561332f5760300160ff8111612c945760f81b6001600160f81b03191690565b60570160ff8111612c945760f81b6001600160f81b0319169056fea2646970667358221220cd3f2d610899c6974d630c23ad2f5243ce4fdf204e071a3beb940ae29504e6f664736f6c63430008140033",
  "linkReferences": {},
  "deployedLinkReferences": {}
}