{
  "_format": "hh-sol-artifact-1",
  "contractName": "PortfolioArticles",
  "sourceName": "contracts/content/PortfolioArticles.sol",
  "abi": [
    {
      "inputs": [
        {
          "internalType": "address",
          "name": "_publisherCredentialsContract",
          "type": "address"
        },
        {
          "internalType": "address",
          "name": "_treasuryWallet",
          "type": "address"
        }
      ],
      "stateMutability": "nonpayable",
      "type": "constructor"
    },
    {
      "inputs": [
        {
          "internalType": "address",
          "name": "owner",
          "type": "address"
        }
      ],
      "name": "OwnableInvalidOwner",
      "type": "error"
    },
    {
      "inputs": [
        {
          "internalType": "address",
          "name": "account",
          "type": "address"
        }
      ],
      "name": "OwnableUnauthorizedAccount",
      "type": "error"
    },
    {
      "inputs": [],
      "name": "ReentrancyGuardReentrantCall",
      "type": "error"
    },
    {
      "anonymous": false,
      "inputs": [
        {
          "indexed": true,
          "internalType": "address",
          "name": "previousOwner",
          "type": "address"
        },
        {
          "indexed": true,
          "internalType": "address",
          "name": "newOwner",
          "type": "address"
        }
      ],
      "name": "OwnershipTransferred",
      "type": "event"
    },
    {
      "anonymous": false,
      "inputs": [
        {
          "indexed": true,
          "internalType": "uint256",
          "name": "articleId",
          "type": "uint256"
        },
        {
          "indexed": true,
          "internalType": "address",
          "name": "author",
          "type": "address"
        },
        {
          "indexed": true,
          "internalType": "string",
          "name": "category",
          "type": "string"
        },
        {
          "indexed": false,
          "internalType": "string",
          "name": "title",
          "type": "string"
        },
        {
          "indexed": false,
          "internalType": "string",
          "name": "contentUrl",
          "type": "string"
        },
        {
          "indexed": false,
          "internalType": "string",
          "name": "publicationName",
          "type": "string"
        },
        {
          "indexed": false,
          "internalType": "uint256",
          "name": "timestamp",
          "type": "uint256"
        }
      ],
      "name": "PortfolioArticleCreated",
      "type": "event"
    },
    {
      "anonymous": false,
      "inputs": [
        {
          "indexed": true,
          "internalType": "address",
          "name": "payer",
          "type": "address"
        },
        {
          "indexed": false,
          "internalType": "uint256",
          "name": "amount",
          "type": "uint256"
        },
        {
          "indexed": false,
          "internalType": "uint256",
          "name": "articleId",
          "type": "uint256"
        }
      ],
      "name": "TreasuryFeePaid",
      "type": "event"
    },
    {
      "inputs": [],
      "name": "MAX_POSTS_PER_DAY",
      "outputs": [
        {
          "internalType": "uint256",
          "name": "",
          "type": "uint256"
        }
      ],
      "stateMutability": "view",
      "type": "function"
    },
    {
      "inputs": [],
      "name": "PORTFOLIO_ARTICLE_FEE",
      "outputs": [
        {
          "internalType": "uint256",
          "name": "",
          "type": "uint256"
        }
      ],
      "stateMutability": "view",
      "type": "function"
    },
    {
      "inputs": [],
      "name": "PUBLISHER_CREDENTIALS_CONTRACT",
      "outputs": [
        {
          "internalType": "address",
          "name": "",
          "type": "address"
        }
      ],
      "stateMutability": "view",
      "type": "function"
    },
    {
      "inputs": [],
      "name": "SECONDS_PER_DAY",
      "outputs": [
        {
          "internalType": "uint256",
          "name": "",
          "type": "uint256"
        }
      ],
      "stateMutability": "view",
      "type": "function"
    },
    {
      "inputs": [],
      "name": "TREASURY_WALLET",
      "outputs": [
        {
          "internalType": "address",
          "name": "",
          "type": "address"
        }
      ],
      "stateMutability": "view",
      "type": "function"
    },
    {
      "inputs": [
        {
          "internalType": "uint256",
          "name": "",
          "type": "uint256"
        }
      ],
      "name": "articles",
      "outputs": [
        {
          "internalType": "uint256",
          "name": "id",
          "type": "uint256"
        },
        {
          "internalType": "string",
          "name": "title",
          "type": "string"
        },
        {
          "internalType": "string",
          "name": "description",
          "type": "string"
        },
        {
          "internalType": "string",
          "name": "contentUrl",
          "type": "string"
        },
        {
          "internalType": "string",
          "name": "category",
          "type": "string"
        },
        {
          "internalType": "string",
          "name": "location",
          "type": "string"
        },
        {
          "internalType": "string",
          "name": "originalAuthor",
          "type": "string"
        },
        {
          "internalType": "string",
          "name": "sourceDomain",
          "type": "string"
        },
        {
          "internalType": "string",
          "name": "publicationName",
          "type": "string"
        },
        {
          "internalType": "string",
          "name": "originalPublishDate",
          "type": "string"
        },
        {
          "internalType": "string",
          "name": "portfolioType",
          "type": "string"
        },
        {
          "internalType": "address",
          "name": "author",
          "type": "address"
        },
        {
          "internalType": "uint256",
          "name": "timestamp",
          "type": "uint256"
        },
        {
          "internalType": "bool",
          "name": "isActive",
          "type": "bool"
        }
      ],
      "stateMutability": "view",
      "type": "function"
    },
    {
      "inputs": [
        {
          "internalType": "address",
          "name": "",
          "type": "address"
        },
        {
          "internalType": "uint256",
          "name": "",
          "type": "uint256"
        }
      ],
      "name": "authorArticles",
      "outputs": [
        {
          "internalType": "uint256",
          "name": "",
          "type": "uint256"
        }
      ],
      "stateMutability": "view",
      "type": "function"
    },
    {
      "inputs": [
        {
          "internalType": "address",
          "name": "",
          "type": "address"
        },
        {
          "internalType": "string",
          "name": "",
          "type": "string"
        }
      ],
      "name": "authorUrlPosted",
      "outputs": [
        {
          "internalType": "bool",
          "name": "",
          "type": "bool"
        }
      ],
      "stateMutability": "view",
      "type": "function"
    },
    {
      "inputs": [
        {
          "internalType": "address",
          "name": "_user",
          "type": "address"
        }
      ],
      "name": "canUserPost",
      "outputs": [
        {
          "internalType": "bool",
          "name": "",
          "type": "bool"
        }
      ],
      "stateMutability": "view",
      "type": "function"
    },
    {
      "inputs": [
        {
          "components": [
            {
              "internalType": "string",
              "name": "title",
              "type": "string"
            },
            {
              "internalType": "string",
              "name": "description",
              "type": "string"
            },
            {
              "internalType": "string",
              "name": "contentUrl",
              "type": "string"
            },
            {
              "internalType": "string",
              "name": "category",
              "type": "string"
            },
            {
              "internalType": "string",
              "name": "location",
              "type": "string"
            },
            {
              "internalType": "string[]",
              "name": "tags",
              "type": "string[]"
            },
            {
              "internalType": "string",
              "name": "originalAuthor",
              "type": "string"
            },
            {
              "internalType": "string",
              "name": "sourceDomain",
              "type": "string"
            },
            {
              "internalType": "string",
              "name": "publicationName",
              "type": "string"
            },
            {
              "internalType": "string",
              "name": "originalPublishDate",
              "type": "string"
            },
            {
              "internalType": "string",
              "name": "portfolioType",
              "type": "string"
            }
          ],
          "internalType": "struct PortfolioArticles.ArticleInput",
          "name": "input",
          "type": "tuple"
        }
      ],
      "name": "createPortfolioArticle",
      "outputs": [],
      "stateMutability": "payable",
      "type": "function"
    },
    {
      "inputs": [
        {
          "internalType": "address",
          "name": "",
          "type": "address"
        }
      ],
      "name": "dailyPosts",
      "outputs": [
        {
          "internalType": "uint256",
          "name": "lastPostDay",
          "type": "uint256"
        },
        {
          "internalType": "uint256",
          "name": "postsToday",
          "type": "uint256"
        }
      ],
      "stateMutability": "view",
      "type": "function"
    },
    {
      "inputs": [
        {
          "internalType": "uint256",
          "name": "_articleId",
          "type": "uint256"
        }
      ],
      "name": "deactivateArticle",
      "outputs": [],
      "stateMutability": "nonpayable",
      "type": "function"
    },
    {
      "inputs": [],
      "name": "emergencyWithdraw",
      "outputs": [],
      "stateMutability": "nonpayable",
      "type": "function"
    },
    {
      "inputs": [
        {
          "internalType": "uint256",
          "name": "_articleId",
          "type": "uint256"
        }
      ],
      "name": "getArticle",
      "outputs": [
        {
          "components": [
            {
              "internalType": "uint256",
              "name": "id",
              "type": "uint256"
            },
            {
              "internalType": "string",
              "name": "title",
              "type": "string"
            },
            {
              "internalType": "string",
              "name": "description",
              "type": "string"
            },
            {
              "internalType": "string",
              "name": "contentUrl",
              "type": "string"
            },
            {
              "internalType": "string",
              "name": "category",
              "type": "string"
            },
            {
              "internalType": "string",
              "name": "location",
              "type": "string"
            },
            {
              "internalType": "string[]",
              "name": "tags",
              "type": "string[]"
            },
            {
              "internalType": "string",
              "name": "originalAuthor",
              "type": "string"
            },
            {
              "internalType": "string",
              "name": "sourceDomain",
              "type": "string"
            },
            {
              "internalType": "string",
              "name": "publicationName",
              "type": "string"
            },
            {
              "internalType": "string",
              "name": "originalPublishDate",
              "type": "string"
            },
            {
              "internalType": "string",
              "name": "portfolioType",
              "type": "string"
            },
            {
              "internalType": "address",
              "name": "author",
              "type": "address"
            },
            {
              "internalType": "uint256",
              "name": "timestamp",
              "type": "uint256"
            },
            {
              "internalType": "bool",
              "name": "isActive",
              "type": "bool"
            }
          ],
          "internalType": "struct PortfolioArticles.PortfolioArticle",
          "name": "",
          "type": "tuple"
        }
      ],
      "stateMutability": "view",
      "type": "function"
    },
    {
      "inputs": [
        {
          "internalType": "address",
          "name": "_author",
          "type": "address"
        }
      ],
      "name": "getArticlesByAuthor",
      "outputs": [
        {
          "internalType": "uint256[]",
          "name": "",
          "type": "uint256[]"
        }
      ],
      "stateMutability": "view",
      "type": "function"
    },
    {
      "inputs": [],
      "name": "getContractInfo",
      "outputs": [
        {
          "internalType": "address",
          "name": "publisherCredentialsContract",
          "type": "address"
        },
        {
          "internalType": "address",
          "name": "treasury",
          "type": "address"
        },
        {
          "internalType": "uint256",
          "name": "fee",
          "type": "uint256"
        },
        {
          "internalType": "uint256",
          "name": "totalArticleCount",
          "type": "uint256"
        }
      ],
      "stateMutability": "view",
      "type": "function"
    },
    {
      "inputs": [
        {
          "internalType": "address",
          "name": "_user",
          "type": "address"
        }
      ],
      "name": "getUserPostingStats",
      "outputs": [
        {
          "internalType": "uint256",
          "name": "totalPosts",
          "type": "uint256"
        },
        {
          "internalType": "uint256",
          "name": "postsToday",
          "type": "uint256"
        },
        {
          "internalType": "uint256",
          "name": "remainingToday",
          "type": "uint256"
        }
      ],
      "stateMutability": "view",
      "type": "function"
    },
    {
      "inputs": [],
      "name": "nextArticleId",
      "outputs": [
        {
          "internalType": "uint256",
          "name": "",
          "type": "uint256"
        }
      ],
      "stateMutability": "view",
      "type": "function"
    },
    {
      "inputs": [],
      "name": "owner",
      "outputs": [
        {
          "internalType": "address",
          "name": "",
          "type": "address"
        }
      ],
      "stateMutability": "view",
      "type": "function"
    },
    {
      "inputs": [],
      "name": "renounceOwnership",
      "outputs": [],
      "stateMutability": "nonpayable",
      "type": "function"
    },
    {
      "inputs": [],
      "name": "totalArticles",
      "outputs": [
        {
          "internalType": "uint256",
          "name": "",
          "type": "uint256"
        }
      ],
      "stateMutability": "view",
      "type": "function"
    },
    {
      "inputs": [
        {
          "internalType": "address",
          "name": "newOwner",
          "type": "address"
        }
      ],
      "name": "transferOwnership",
      "outputs": [],
      "stateMutability": "nonpayable",
      "type": "function"
    }
  ],
  "bytecode": "0x60c0346200011a57601f620028c238819003918201601f19168301916001600160401b038311848410176200011f5780849260409485528339810103126200011a576200005a6020620000528362000135565b920162000135565b60016000553315620001015760018054336001600160a01b0319821681179092556040519391906001600160a01b03167f8be0079c531659141344cd1fd0a4f28419497f9722a3daafe3b4186f6b6457e0600080a36001600655600060075560805260a05261277790816200014b823960805181818161096a01528181610b1d015281816122a60152612693015260a05181818161098e01528181610a5901526114420152f35b604051631e4fbdf760e01b815260006004820152602490fd5b600080fd5b634e487b7160e01b600052604160045260246000fd5b51906001600160a01b03821682036200011a5756fe6101c080604052600436101561001457600080fd5b60003560e01c90816304d4233714612293575080630c90062b14612215578063101a3cc4146121bc5780631521ba3f146121085780631b670f3814610ac75780631d622cd914610aa457806323163cdb14610a885780635daf314614610a43578063715018a6146109e657806374f0314f146109c85780637cc1f8671461094657806380baee8a1461090357806385c3ab54146108e55780638da5cb5b146108bc578063a61af29d1461088f578063bd85d867146104e6578063bef2e1ee146104c8578063db2e21bc14610446578063e24731461461038a578063e866300414610336578063edcfafe6146101a55763f2fde38b1461011257600080fd5b346101a05760203660031901126101a05761012b6122d5565b610133612509565b6001600160a01b0390811690811561018757600154826bffffffffffffffffffffffff60a01b821617600155167f8be0079c531659141344cd1fd0a4f28419497f9722a3daafe3b4186f6b6457e0600080a3005b604051631e4fbdf760e01b815260006004820152602490fd5b600080fd5b346101a05760203660031901126101a057600435600052600260205260406000208054600182016101d590612463565b916101e260028201612463565b6101ee60038301612463565b916101fb60048201612463565b61020760058301612463565b61021360078401612463565b61021f60088501612463565b61022b60098601612463565b91610238600a8701612463565b93610245600b8801612463565b95600160a01b60019003600c8901541699600d89015498600e015460ff16996040519d8e9d8e528d6101c0908160208201520161028191612404565b8d810360408f015261029291612404565b8c810360608e01526102a391612404565b8b810360808d01526102b491612404565b8a810360a08c01526102c591612404565b89810360c08b01526102d691612404565b88810360e08a01526102e791612404565b8781036101008901526102f991612404565b86810361012088015261030b91612404565b85810361014087015261031d91612404565b9261016085015261018084015215156101a08301520390f35b346101a05760203660031901126101a057600435610352612509565b8015158061037f575b61036490612626565b6000908152600260205260409020600e01805460ff19169055005b50600654811061035b565b346101a05760203660031901126101a0576103a36122d5565b60018060a01b031660005260036020526040600020546005602052602060406000206040516103d1816122eb565b6001825492838352015492839101526201518042041460001461043d57905b60328210610411576060916000905b60405192835260208301526040820152f35b81603203916032831161042757606092906103ff565b634e487b7160e01b600052601160045260246000fd5b506000906103f0565b346101a05760003660031901126101a05761045f612509565b600080808060018060a01b036001541647905af161047b6125d5565b501561048357005b60405162461bcd60e51b815260206004820152601b60248201527f456d657267656e6379207769746864726177616c206661696c656400000000006044820152606490fd5b346101a05760003660031901126101a0576020600754604051908152f35b346101a05760203660031901126101a05760043560006101c060405161050b81612306565b828152606060208201526060604082015260608082015260606080820152606060a0820152606060c0820152606060e0820152606061010082015260606101208201526060610140820152606061016082015282610180820152826101a0820152015280151580610884575b61058090612626565b600052600260205260406000206040519061059a82612306565b805482526105aa60018201612463565b60208301526105bb60028201612463565b60408301526105cc60038201612463565b60608301526105dd60048201612463565b60808301526105ee60058201612463565b60a08301526006810154610601816125a7565b9061060f6040519283612322565b808252602082016006840160005260206000206000915b838310610867578660ff600e888860c085015261064560078201612463565b60e085015261065660088201612463565b61010085015261066860098201612463565b61012085015261067a600a8201612463565b61014085015261068c600b8201612463565b61016085015260018060a01b03600c82015416610180850152600d8101546101a085015201541615156101c0820152604051602081528151602082015261074861073261071c6107066106f060208701516101e06040880152610200870190612404565b6040870151868203601f19016060880152612404565b6060860151858203601f19016080870152612404565b6080850151848203601f190160a0860152612404565b60a0840151838203601f190160c0850152612404565b9160c081015192601f198382030160e0840152835180825260208201916020808360051b8301019601926000915b83831061083a57508580866101c061080b6107f36107db6107c36107ab8f60e0880151601f198a8303016101008b0152612404565b610100870151888203601f19016101208a0152612404565b610120860151878203601f1901610140890152612404565b610140850151868203601f1901610160880152612404565b610160840151858203601f1901610180870152612404565b6101808301516001600160a01b03166101a0858101919091528301518285015291015115156101e08301520390f35b9091929396602080610858600193601f198682030187528b51612404565b99019301930191939290610776565b60016020819261087685612463565b815201920192019190610626565b506006548110610577565b346101a05760203660031901126101a05760206108b26108ad6122d5565b612667565b6040519015158152f35b346101a05760003660031901126101a0576001546040516001600160a01b039091168152602090f35b346101a05760003660031901126101a0576020600654604051908152f35b346101a05760203660031901126101a0576001600160a01b036109246122d5565b1660005260056020526040806000206001815491015482519182526020820152f35b346101a05760003660031901126101a05760806007546040519060018060a01b03807f00000000000000000000000000000000000000000000000000000000000000001683527f0000000000000000000000000000000000000000000000000000000000000000166020830152670de0b6b3a764000060408301526060820152f35b346101a05760003660031901126101a0576020604051620151808152f35b346101a05760003660031901126101a0576109ff612509565b600180546001600160a01b031981169091556000906001600160a01b03167f8be0079c531659141344cd1fd0a4f28419497f9722a3daafe3b4186f6b6457e08280a3005b346101a05760003660031901126101a0576040517f00000000000000000000000000000000000000000000000000000000000000006001600160a01b03168152602090f35b346101a05760003660031901126101a057602060405160328152f35b346101a05760003660031901126101a0576020604051670de0b6b3a76400008152f35b6003196020368201126101a0576001600160401b03600435116101a05761016090600435360301126101a0576002600054146120f657600260005560405163261e1c0f60e21b81523360048201526020816024817f00000000000000000000000000000000000000000000000000000000000000006001600160a01b03165afa9081156120ea576000916120bb575b501561206a57670de0b6b3a7640000341061203257610b7960048035018061254d565b905015611ffc57610b9460246004350160043560040161254d565b905015611fc057610baf60446004350160043560040161254d565b905015611f8457610bcb6101046004350160043560040161254d565b905015611f3f5760c8610be860246004350160043560040161254d565b905011611f035733600052600560205260206040600020604051610c0b816122eb565b60018254928383520154928391015262015180420414611eb0575b5033600052600460205260ff610c546040600020610c4e60446004350160043560040161254d565b9061257f565b5416611e7657600654610c6681612598565b600655610c7760048035018061254d565b60a05261010052610c9260246004350160043560040161254d565b6101a05290610ca96004803560448101910161254d565b92610cbe60646004350160043560040161254d565b9290610cd460846004350160043560040161254d565b60043560a4810135939291903603602219018412156101a0576001600160401b036004858135010135116101a057600484813501013560051b36036024856004350101136101a057610e03610e12938998610df4610d3c60c46004350160043560040161254d565b99909d610de5610d5660e46004350160043560040161254d565b9d909e610d6e6101046004350160043560040161254d565b6101805261014052610d8b6101246004350160043560040161254d565b60805260c052610da66101446004350160043560040161254d565b60e05261016052610dbd6040518061012052612306565b6101205152610dd23660a0516101005161235e565b61012051602001526101a051369161235e565b6040610120510152369161235e565b6060610120510152369161235e565b6080610120510152369161235e565b60a0610120510152610e2a60048281350101356125a7565b90610e386040519283612322565b600480358201908101358084526020840192913660059290921b01602401116101a0576024816004350101915b6004803583019081013560051b016024018310611e435750505094610e9891610ea7959660c0610120510152369161235e565b60e0610120510152369161235e565b610100610120510152610ec136610180516101405161235e565b61012080510152610ed73660805160c05161235e565b610140610120510152610ef03660e0516101605161235e565b61016061012051015233610180610120510152426101a061012051015260016101c061012051015280600052600260205260406000206020610120518051835501519182516001600160401b0381116115c957610f506001840154612429565b601f8111611e0e575b506020601f8211600114611da05781929394600092611d95575b50508160011b916000199060031b1c19161760018301555b60406101205101519182516001600160401b0381116115c957610fb16002830154612429565b601f8111611d60575b506020601f8211600114611cf25781929394600092611ce7575b50508160011b916000199060031b1c19161760028201555b60606101205101519182516001600160401b0381116115c9576110126003840154612429565b601f8111611cb2575b506020601f8211600114611c445781929394600092611c39575b50508160011b916000199060031b1c19161760038301555b60806101205101519182516001600160401b0381116115c9576110736004830154612429565b601f8111611c04575b506020601f8211600114611b965781929394600092611b8b575b50508160011b916000199060031b1c19161760048201555b60a06101205101519182516001600160401b0381116115c9576110d46005840154612429565b601f8111611b56575b506020601f8211600114611ae85781929394600092611add575b50508160011b916000199060031b1c19161760058301555b60c0610120510151805190600160401b82116115c9576006840154826006860155808310611a65575b5060200190600684016000526020600020916000905b82821061195057858560e06101205101519182516001600160401b0381116115c95761117d6007830154612429565b601f811161191b575b506020601f82116001146118ad57819293946000926118a2575b50508160011b916000199060031b1c19161760078201555b6101006101205101519182516001600160401b0381116115c9576111df6008840154612429565b601f811161186d575b506020601f82116001146117ff57819293946000926117f4575b50508160011b916000199060031b1c19161760088301555b610120805101519182516001600160401b0381116115c95761123f6009830154612429565b601f81116117bf575b506020601f82116001146117515781929394600092611746575b50508160011b916000199060031b1c19161760098201555b6101406101205101519182516001600160401b0381116115c9576112a1600a840154612429565b601f8111611711575b506020601f82116001146116a35781929394600092611698575b50508160011b916000199060031b1c191617600a8301555b6101606101205101519182516001600160401b0381116115c957611303600b830154612429565b601f8111611658575b506020601f82116001146115ea57819293946000926115df575b50508160011b916000199060031b1c191617600b8201555b6101c0600e600c830192610120519360018060a01b03610180860151166bffffffffffffffffffffffff60a01b8254161790556101a0840151600d82015501910151151560ff8019835416911617905533600052600360205260406000208054600160401b8110156115c9576113b9916001820181556123d6565b81549060031b9083821b91600019901b19161790553360005260046020526113f36040600020610c4e60446004350160043560040161254d565b600160ff19825416179055611409600754612598565b600755336000526005602052600160406000206201518042048154146000146115b957016114378154612598565b90555b6000808080347f00000000000000000000000000000000000000000000000000000000000000005af161146b6125d5565b5015611574576040513481528160208201527f398dd7ce3501a739dd0c9bb85d5c00456f92eac30baf6681145cd2b5a27216da60403392a26114b760646004350160043560040161254d565b917f56029eb4c6bd069e4c07b7eba6feaff36dbbfd7b7fc2fc2004e822d259cd8eab6115606114ea60048035018061254d565b94909561155261150460446004350160043560040161254d565b61154461151c6101046004350160043560040161254d565b9590968160405192839283378101600081520390209a6040519a60808c5260808c0191612605565b9189830360208b0152612605565b918683036040880152612605565b924260608201528033940390a46001600055005b60405162461bcd60e51b815260206004820152601860248201527f5472656173757279207472616e73666572206661696c656400000000000000006044820152606490fd5b620151804204815581015561143a565b634e487b7160e01b600052604160045260246000fd5b015190508480611326565b600b830160005260206000209060005b601f19841681106116405750600193949583601f19811610611627575b505050811b01600b82015561133e565b015160001960f88460031b161c19169055848080611617565b9091602060018192858a0151815501930191016115fa565b61168890600b84016000526020600020601f840160051c8101916020851061168e575b601f0160051c01906125be565b8461130c565b909150819061167b565b0151905084806112c4565b600a840160005260206000209060005b601f19841681106116f95750600193949583601f198116106116e0575b505050811b01600a8301556112dc565b015160001960f88460031b161c191690558480806116d0565b9091602060018192858a0151815501930191016116b3565b61174090600a85016000526020600020601f840160051c8101916020851061168e57601f0160051c01906125be565b846112aa565b015190508480611262565b6009830160005260206000209060005b601f19841681106117a75750600193949583601f1981161061178e575b505050811b01600982015561127a565b015160001960f88460031b161c1916905584808061177e565b9091602060018192858a015181550193019101611761565b6117ee90600984016000526020600020601f840160051c8101916020851061168e57601f0160051c01906125be565b84611248565b015190508480611202565b6008840160005260206000209060005b601f19841681106118555750600193949583601f1981161061183c575b505050811b01600883015561121a565b015160001960f88460031b161c1916905584808061182c565b9091602060018192858a01518155019301910161180f565b61189c90600885016000526020600020601f840160051c8101916020851061168e57601f0160051c01906125be565b846111e8565b0151905084806111a0565b6007830160005260206000209060005b601f19841681106119035750600193949583601f198116106118ea575b505050811b0160078201556111b8565b015160001960f88460031b161c191690558480806118da565b9091602060018192858a0151815501930191016118bd565b61194a90600784016000526020600020601f840160051c8101916020851061168e57601f0160051c01906125be565b84611186565b80518051906001600160401b0382116115c95761196d8654612429565b601f8111611a33575b50602090601f83116001146119c35792826001949360209386956000926119b8575b5050600019600383901b1c191690841b1787555b0194019101909261114e565b015190508b80611998565b908660005260206000209160005b601f1985168110611a1b575083602093600196938796938794601f19811610611a02575b505050811b0187556119ac565b015160001960f88460031b161c191690558b80806119f5565b919260206001819286850151815501940192016119d1565b611a5f90876000526020600020601f850160051c8101916020861061168e57601f0160051c01906125be565b88611976565b600685016000526020600020908382015b8183018110611a86575050611138565b80611a9360019254612429565b80611aa0575b5001611a76565b601f81118314611ab65750600081555b88611a99565b600090828252611ad4601f60208420920160051c82018583016125be565b81835555611ab0565b0151905084806110f7565b6005840160005260206000209060005b601f1984168110611b3e5750600193949583601f19811610611b25575b505050811b01600583015561110f565b015160001960f88460031b161c19169055848080611b15565b9091602060018192858a015181550193019101611af8565b611b8590600585016000526020600020601f840160051c8101916020851061168e57601f0160051c01906125be565b846110dd565b015190508480611096565b6004830160005260206000209060005b601f1984168110611bec5750600193949583601f19811610611bd3575b505050811b0160048201556110ae565b015160001960f88460031b161c19169055848080611bc3565b9091602060018192858a015181550193019101611ba6565b611c3390600484016000526020600020601f840160051c8101916020851061168e57601f0160051c01906125be565b8461107c565b015190508480611035565b6003840160005260206000209060005b601f1984168110611c9a5750600193949583601f19811610611c81575b505050811b01600383015561104d565b015160001960f88460031b161c19169055848080611c71565b9091602060018192858a015181550193019101611c54565b611ce190600385016000526020600020601f840160051c8101916020851061168e57601f0160051c01906125be565b8461101b565b015190508480610fd4565b6002830160005260206000209060005b601f1984168110611d485750600193949583601f19811610611d2f575b505050811b016002820155610fec565b015160001960f88460031b161c19169055848080611d1f565b9091602060018192858a015181550193019101611d02565b611d8f90600284016000526020600020601f840160051c8101916020851061168e57601f0160051c01906125be565b84610fba565b015190508480610f73565b6001840160005260206000209060005b601f1984168110611df65750600193949583601f19811610611ddd575b505050811b016001830155610f8b565b015160001960f88460031b161c19169055848080611dcd565b9091602060018192858a015181550193019101611db0565b611e3d90600185016000526020600020601f840160051c8101916020851061168e57601f0160051c01906125be565b84610f59565b82356001600160401b0381116101a057602091611e6b83926024369187600435010101612395565b815201920191610e65565b60405162461bcd60e51b815260206004820152601260248201527115549308185b1c9958591e481c1bdcdd195960721b6044820152606490fd5b60321115611ebe5780610c26565b60405162461bcd60e51b815260206004820152601860248201527f4461696c7920706f7374206c696d6974207265616368656400000000000000006044820152606490fd5b60405162461bcd60e51b81526020600482015260146024820152734465736372697074696f6e20746f6f206c6f6e6760601b6044820152606490fd5b60405162461bcd60e51b815260206004820152601960248201527f5075626c69636174696f6e206e616d65207265717569726564000000000000006044820152606490fd5b60405162461bcd60e51b815260206004820152601460248201527310dbdb9d195b9d08155493081c995c5d5a5c995960621b6044820152606490fd5b60405162461bcd60e51b815260206004820152601460248201527311195cd8dc9a5c1d1a5bdb881c995c5d5a5c995960621b6044820152606490fd5b60405162461bcd60e51b815260206004820152600e60248201526d151a5d1b19481c995c5d5a5c995960921b6044820152606490fd5b60405162461bcd60e51b815260206004820152601060248201526f496e73756666696369656e742066656560801b6044820152606490fd5b60405162461bcd60e51b815260206004820152602360248201527f56616c6964207075626c69736865722063726564656e7469616c2072657175696044820152621c995960ea1b6064820152608490fd5b6120dd915060203d6020116120e3575b6120d58183612322565b810190612535565b81610b56565b503d6120cb565b6040513d6000823e3d90fd5b604051633ee5aeb560e01b8152600490fd5b346101a0576020806003193601126101a0576001600160a01b0361212a6122d5565b1660005260038152604060002060405190818382549182815201908192600052846000209060005b868282106121a857868661216882880383612322565b604051928392818401908285525180915260408401929160005b82811061219157505050500390f35b835185528695509381019392810192600101612182565b835485529093019260019283019201612152565b346101a05760403660031901126101a0576121d56122d5565b6001600160a01b03166000908152600360205260409020805460243591908210156101a057602091612206916123d6565b90549060031b1c604051908152f35b346101a05760403660031901126101a05761222e6122d5565b6024356001600160401b0381116101a05761227e6020809361225660ff943690600401612395565b9060018060a01b031660005260048252604060002082604051948386809551938492016123b3565b82019081520301902054166040519015158152f35b346101a05760003660031901126101a0577f00000000000000000000000000000000000000000000000000000000000000006001600160a01b03168152602090f35b600435906001600160a01b03821682036101a057565b604081019081106001600160401b038211176115c957604052565b6101e081019081106001600160401b038211176115c957604052565b90601f801991011681019081106001600160401b038211176115c957604052565b6001600160401b0381116115c957601f01601f191660200190565b92919261236a82612343565b916123786040519384612322565b8294818452818301116101a0578281602093846000960137010152565b9080601f830112156101a0578160206123b09335910161235e565b90565b60005b8381106123c65750506000910152565b81810151838201526020016123b6565b80548210156123ee5760005260206000200190600090565b634e487b7160e01b600052603260045260246000fd5b9060209161241d815180928185528580860191016123b3565b601f01601f1916010190565b90600182811c92168015612459575b602083101461244357565b634e487b7160e01b600052602260045260246000fd5b91607f1691612438565b906040519182600082549261247784612429565b9081845260019485811690816000146124e657506001146124a3575b50506124a192500383612322565b565b9093915060005260209081600020936000915b8183106124ce5750506124a193508201013880612493565b855488840185015294850194879450918301916124b6565b9150506124a194506020925060ff191682840152151560051b8201013880612493565b6001546001600160a01b0316330361251d57565b60405163118cdaa760e01b8152336004820152602490fd5b908160209103126101a0575180151581036101a05790565b903590601e19813603018212156101a057018035906001600160401b0382116101a0576020019181360383136101a057565b6020919283604051948593843782019081520301902090565b60001981146104275760010190565b6001600160401b0381116115c95760051b60200190565b8181106125c9575050565b600081556001016125be565b3d15612600573d906125e682612343565b916125f46040519384612322565b82523d6000602084013e565b606090565b908060209392818452848401376000828201840152601f01601f1916010190565b1561262d57565b60405162461bcd60e51b8152602060048201526012602482015271125b9d985b1a5908185c9d1a58db1948125160721b6044820152606490fd5b60405163261e1c0f60e21b81526001600160a01b039182166004820181905291602090829060249082907f0000000000000000000000000000000000000000000000000000000000000000165afa9081156120ea57600091612723575b501561271d576000526005602052602060406000206040516126e5816122eb565b600182549283835201549283910152620151804204149081612711575b5061270c57600190565b600090565b60329150101538612702565b50600090565b61273b915060203d81116120e3576120d58183612322565b386126c456fea2646970667358221220389d8a6cbe7b8c17afc76162d1fb7310175d29fb90c177486648be49e6c6eb2d64736f6c63430008140033",
  "linkReferences": {},
  "deployedLinkReferences": {}
}