{
  "_format": "hh-sol-artifact-1",
  "contractName": "TippingContract",
  "sourceName": "contracts/treasury/TippingContract.sol",
  "abi": [
    {
      "inputs": [
        {
          "internalType": "address",
          "name": "_treasury",
          "type": "address"
        },
        {
          "internalType": "address",
          "name": "_profileNFT",
          "type": "address"
        },
        {
          "internalType": "address",
          "name": "_emojiToken",
          "type": "address"
        }
      ],
      "stateMutability": "nonpayable",
      "type": "constructor"
    },
    {
      "inputs": [
        {
          "internalType": "address",
          "name": "owner",
          "type": "address"
        }
      ],
      "name": "OwnableInvalidOwner",
      "type": "error"
    },
    {
      "inputs": [
        {
          "internalType": "address",
          "name": "account",
          "type": "address"
        }
      ],
      "name": "OwnableUnauthorizedAccount",
      "type": "error"
    },
    {
      "inputs": [],
      "name": "ReentrancyGuardReentrantCall",
      "type": "error"
    },
    {
      "anonymous": false,
      "inputs": [
        {
          "indexed": true,
          "internalType": "address",
          "name": "from",
          "type": "address"
        },
        {
          "indexed": true,
          "internalType": "address",
          "name": "to",
          "type": "address"
        },
        {
          "indexed": true,
          "internalType": "uint256",
          "name": "profileId",
          "type": "uint256"
        },
        {
          "indexed": false,
          "internalType": "uint256",
          "name": "amount",
          "type": "uint256"
        },
        {
          "indexed": false,
          "internalType": "bool",
          "name": "isPlatform",
          "type": "bool"
        }
      ],
      "name": "EmojiTipSent",
      "type": "event"
    },
    {
      "anonymous": false,
      "inputs": [
        {
          "indexed": true,
          "internalType": "address",
          "name": "from",
          "type": "address"
        },
        {
          "indexed": true,
          "internalType": "address",
          "name": "to",
          "type": "address"
        },
        {
          "indexed": true,
          "internalType": "uint256",
          "name": "profileId",
          "type": "uint256"
        },
        {
          "indexed": false,
          "internalType": "uint256",
          "name": "amount",
          "type": "uint256"
        },
        {
          "indexed": false,
          "internalType": "uint256",
          "name": "fee",
          "type": "uint256"
        },
        {
          "indexed": false,
          "internalType": "uint256",
          "name": "emojiRewards",
          "type": "uint256"
        },
        {
          "indexed": false,
          "internalType": "bool",
          "name": "isPlatform",
          "type": "bool"
        }
      ],
      "name": "FlowTipSent",
      "type": "event"
    },
    {
      "anonymous": false,
      "inputs": [
        {
          "indexed": true,
          "internalType": "address",
          "name": "previousOwner",
          "type": "address"
        },
        {
          "indexed": true,
          "internalType": "address",
          "name": "newOwner",
          "type": "address"
        }
      ],
      "name": "OwnershipTransferred",
      "type": "event"
    },
    {
      "inputs": [],
      "name": "MINIMUM_TIP_AMOUNT",
      "outputs": [
        {
          "internalType": "uint256",
          "name": "",
          "type": "uint256"
        }
      ],
      "stateMutability": "view",
      "type": "function"
    },
    {
      "inputs": [],
      "name": "PLATFORM_FEE_PERCENTAGE",
      "outputs": [
        {
          "internalType": "uint256",
          "name": "",
          "type": "uint256"
        }
      ],
      "stateMutability": "view",
      "type": "function"
    },
    {
      "inputs": [
        {
          "internalType": "address",
          "name": "",
          "type": "address"
        }
      ],
      "name": "addressTipStats",
      "outputs": [
        {
          "internalType": "uint256",
          "name": "totalFlowGiven",
          "type": "uint256"
        },
        {
          "internalType": "uint256",
          "name": "totalEmojiGiven",
          "type": "uint256"
        },
        {
          "internalType": "uint256",
          "name": "totalFlowReceived",
          "type": "uint256"
        },
        {
          "internalType": "uint256",
          "name": "totalEmojiReceived",
          "type": "uint256"
        },
        {
          "internalType": "uint256",
          "name": "tipsGivenCount",
          "type": "uint256"
        },
        {
          "internalType": "uint256",
          "name": "tipsReceivedCount",
          "type": "uint256"
        }
      ],
      "stateMutability": "view",
      "type": "function"
    },
    {
      "inputs": [],
      "name": "emojiToken",
      "outputs": [
        {
          "internalType": "address",
          "name": "",
          "type": "address"
        }
      ],
      "stateMutability": "view",
      "type": "function"
    },
    {
      "inputs": [
        {
          "internalType": "address",
          "name": "user",
          "type": "address"
        }
      ],
      "name": "getAddressTipStats",
      "outputs": [
        {
          "internalType": "uint256",
          "name": "",
          "type": "uint256"
        },
        {
          "internalType": "uint256",
          "name": "",
          "type": "uint256"
        },
        {
          "internalType": "uint256",
          "name": "",
          "type": "uint256"
        },
        {
          "internalType": "uint256",
          "name": "",
          "type": "uint256"
        },
        {
          "internalType": "uint256",
          "name": "",
          "type": "uint256"
        },
        {
          "internalType": "uint256",
          "name": "",
          "type": "uint256"
        }
      ],
      "stateMutability": "view",
      "type": "function"
    },
    {
      "inputs": [],
      "name": "getEmojiTokenAddress",
      "outputs": [
        {
          "internalType": "address",
          "name": "",
          "type": "address"
        }
      ],
      "stateMutability": "view",
      "type": "function"
    },
    {
      "inputs": [],
      "name": "getMinimumTipAmount",
      "outputs": [
        {
          "internalType": "uint256",
          "name": "",
          "type": "uint256"
        }
      ],
      "stateMutability": "pure",
      "type": "function"
    },
    {
      "inputs": [],
      "name": "getPlatformFeePercentage",
      "outputs": [
        {
          "internalType": "uint256",
          "name": "",
          "type": "uint256"
        }
      ],
      "stateMutability": "pure",
      "type": "function"
    },
    {
      "inputs": [],
      "name": "getProfileNFTAddress",
      "outputs": [
        {
          "internalType": "address",
          "name": "",
          "type": "address"
        }
      ],
      "stateMutability": "view",
      "type": "function"
    },
    {
      "inputs": [
        {
          "internalType": "uint256",
          "name": "profileId",
          "type": "uint256"
        }
      ],
      "name": "getProfileTipStats",
      "outputs": [
        {
          "internalType": "uint256",
          "name": "",
          "type": "uint256"
        },
        {
          "internalType": "uint256",
          "name": "",
          "type": "uint256"
        },
        {
          "internalType": "uint256",
          "name": "",
          "type": "uint256"
        }
      ],
      "stateMutability": "view",
      "type": "function"
    },
    {
      "inputs": [
        {
          "internalType": "address",
          "name": "user",
          "type": "address"
        }
      ],
      "name": "getTipsGivenPoints",
      "outputs": [
        {
          "internalType": "uint256",
          "name": "",
          "type": "uint256"
        }
      ],
      "stateMutability": "view",
      "type": "function"
    },
    {
      "inputs": [
        {
          "internalType": "address",
          "name": "user",
          "type": "address"
        }
      ],
      "name": "getTipsGivenValue",
      "outputs": [
        {
          "internalType": "uint256",
          "name": "",
          "type": "uint256"
        }
      ],
      "stateMutability": "view",
      "type": "function"
    },
    {
      "inputs": [
        {
          "internalType": "address",
          "name": "user",
          "type": "address"
        }
      ],
      "name": "getTipsReceivedValue",
      "outputs": [
        {
          "internalType": "uint256",
          "name": "",
          "type": "uint256"
        }
      ],
      "stateMutability": "view",
      "type": "function"
    },
    {
      "inputs": [
        {
          "internalType": "address",
          "name": "user",
          "type": "address"
        }
      ],
      "name": "getTotalTipValue",
      "outputs": [
        {
          "internalType": "uint256",
          "name": "",
          "type": "uint256"
        }
      ],
      "stateMutability": "view",
      "type": "function"
    },
    {
      "inputs": [],
      "name": "getTreasuryAddress",
      "outputs": [
        {
          "internalType": "address",
          "name": "",
          "type": "address"
        }
      ],
      "stateMutability": "view",
      "type": "function"
    },
    {
      "inputs": [],
      "name": "owner",
      "outputs": [
        {
          "internalType": "address",
          "name": "",
          "type": "address"
        }
      ],
      "stateMutability": "view",
      "type": "function"
    },
    {
      "inputs": [],
      "name": "profileNFT",
      "outputs": [
        {
          "internalType": "address",
          "name": "",
          "type": "address"
        }
      ],
      "stateMutability": "view",
      "type": "function"
    },
    {
      "inputs": [
        {
          "internalType": "uint256",
          "name": "",
          "type": "uint256"
        }
      ],
      "name": "profileTipStats",
      "outputs": [
        {
          "internalType": "uint256",
          "name": "totalFlowReceived",
          "type": "uint256"
        },
        {
          "internalType": "uint256",
          "name": "totalEmojiReceived",
          "type": "uint256"
        },
        {
          "internalType": "uint256",
          "name": "tipCount",
          "type": "uint256"
        }
      ],
      "stateMutability": "view",
      "type": "function"
    },
    {
      "inputs": [],
      "name": "renounceOwnership",
      "outputs": [],
      "stateMutability": "nonpayable",
      "type": "function"
    },
    {
      "inputs": [
        {
          "internalType": "address",
          "name": "_treasury",
          "type": "address"
        }
      ],
      "name": "setTreasury",
      "outputs": [],
      "stateMutability": "nonpayable",
      "type": "function"
    },
    {
      "inputs": [
        {
          "internalType": "address",
          "name": "recipient",
          "type": "address"
        },
        {
          "internalType": "uint256",
          "name": "amount",
          "type": "uint256"
        }
      ],
      "name": "tipAddressWithEmoji",
      "outputs": [],
      "stateMutability": "nonpayable",
      "type": "function"
    },
    {
      "inputs": [
        {
          "internalType": "address",
          "name": "recipient",
          "type": "address"
        }
      ],
      "name": "tipAddressWithFlow",
      "outputs": [],
      "stateMutability": "payable",
      "type": "function"
    },
    {
      "inputs": [
        {
          "internalType": "uint256",
          "name": "amount",
          "type": "uint256"
        }
      ],
      "name": "tipPlatformWithEmoji",
      "outputs": [],
      "stateMutability": "nonpayable",
      "type": "function"
    },
    {
      "inputs": [],
      "name": "tipPlatformWithFlow",
      "outputs": [],
      "stateMutability": "payable",
      "type": "function"
    },
    {
      "inputs": [
        {
          "internalType": "uint256",
          "name": "profileId",
          "type": "uint256"
        },
        {
          "internalType": "uint256",
          "name": "amount",
          "type": "uint256"
        }
      ],
      "name": "tipProfileWithEmoji",
      "outputs": [],
      "stateMutability": "nonpayable",
      "type": "function"
    },
    {
      "inputs": [
        {
          "internalType": "uint256",
          "name": "profileId",
          "type": "uint256"
        }
      ],
      "name": "tipProfileWithFlow",
      "outputs": [],
      "stateMutability": "payable",
      "type": "function"
    },
    {
      "inputs": [
        {
          "internalType": "address",
          "name": "newOwner",
          "type": "address"
        }
      ],
      "name": "transferOwnership",
      "outputs": [],
      "stateMutability": "nonpayable",
      "type": "function"
    },
    {
      "inputs": [],
      "name": "treasury",
      "outputs": [
        {
          "internalType": "address",
          "name": "",
          "type": "address"
        }
      ],
      "stateMutability": "view",
      "type": "function"
    }
  ],
  "bytecode": "0x60803461010157601f61132838819003918201601f19168301916001600160401b0383118484101761010657808492606094604052833981010312610101576100478161011c565b61005f60406100586020850161011c565b930161011c565b9033156100e857600080546001600160a01b03198082163390811784556040519691956001600160a01b039590948694859391908416907f8be0079c531659141344cd1fd0a4f28419497f9722a3daafe3b4186f6b6457e09080a3600180551685600254161760025516836003541617600355169060045416176004556111f790816101318239f35b604051631e4fbdf760e01b815260006004820152602490fd5b600080fd5b634e487b7160e01b600052604160045260246000fd5b51906001600160a01b03821682036101015756fe608060408181526004918236101561001657600080fd5b600092833560e01c91826309c37e9514610ebe5750816315548232146108fb5781633044320914610d3957816352e1cec514610d1357816356b639f41461093a57816361d027b31461080057816366b245e814610cda5781636c0297c914610b15578382636ecbaad5146109fd57508163705da325146109bc578163715018a61461096257816372409ddf1461082957816376359c151461093a578163768285bc146109175781637a3a27ea146108fb578163867c039f1461087e5781638da5cb5b14610856578163949675e914610697578163cc86e73014610829578163e00246041461080057838263e123d26a146106c057508163e2e4828e14610697578163f0f4426014610652578163f2fde38b146105cb578163f68a03cf146103a157838263f9a9b6261461023657508163fcbe830914610184575063ffa136371461015f57600080fd5b3461018057816003193601126101805760209051670de0b6b3a76400008152f35b5080fd5b905082346102335760203660031901126102335761022f9060a09084906001600160a01b036101b1610f3e565b1681526005602052208451936101c685610fbf565b81549485815260018301549687602083015260028401549182828201526005600386015494856060840152860154958660808401520154958691015251968796879260a094919796959260c0850198855260208501526040840152606083015260808201520152565b0390f35b80fd5b9291503461039d578160031936011261039d57610251610f3e565b91602435809261025f6110b3565b6001600160a01b03858116959061027833881415611032565b825485516323b872dd60e01b8152338186019081526001600160a01b0390941660208581019190915260408501969096529285928492169082908b90829060600103925af1801561039357917f68b55dd8c41968e125c711614a80388345a3ee387f0b8f6b040aa846342420099493918893610366575b5033835260058252600184842001610308878254611097565b9055338352600582528383200161031f81546110a4565b905585825260058152600383832001610339868254611097565b90558582526005815260058383200161035281546110a4565b905582519485528401523392a46001805580f35b61038590833d851161038c575b61037d8183610ff1565b8101906110d6565b50386102ef565b503d610373565b84513d89823e3d90fd5b5050fd5b83836020806003193601126105c7578335916103bb6110b3565b670de0b6b3a7640000906103d182341015610f85565b60035481516331a9108f60e11b81528781018690526001600160a01b03939185908290602490829088165afa9081156105bd579084918891610590575b50169361041d33861415611032565b60be340234810460be143415171561057d579088612710899594930492808410610575575b5061044d8334611074565b9585878982821561056c575b839283928392f1156105625785808086819460025416828215610559575bf11561054c5733855260058252838520610492878254611097565b905533855260058252838520016104a981546110a4565b9055858452600581526002838520016104c3868254611097565b9055858452600581526005838520016104dc81546110a4565b9055868452600681528284206104f3868254611097565b90558684526006815260028385200161050c81546110a4565b905582519485528401528201528360608201527f554d885dac84978f7c3bfec4808577da5ab50f84bde5e8752f1e1aac725fb32d60803392a46001805580f35b50505051903d90823e3d90fd5b506108fc610477565b84513d87823e3d90fd5b506108fc610459565b925089610442565b634e487b7160e01b885260118952602488fd5b6105b09150863d88116105b6575b6105a88183610ff1565b810190611013565b8961040e565b503d61059e565b83513d89823e3d90fd5b8280fd5b9050346105c75760203660031901126105c7576105e6610f3e565b906105ef610f59565b6001600160a01b0391821692831561063c57505082546001600160a01b0319811683178455167f8be0079c531659141344cd1fd0a4f28419497f9722a3daafe3b4186f6b6457e08380a380f35b51631e4fbdf760e01b8152908101849052602490fd5b83346102335760203660031901126102335761066c610f3e565b610674610f59565b60018060a01b03166bffffffffffffffffffffffff60a01b600254161760025580f35b50503461018057816003193601126101805760035490516001600160a01b039091168152602090f35b9291503461039d57602091826003193601126107fb578135916106e16110b3565b805460025483516323b872dd60e01b8152338185019081526001600160a01b039283166020820152604081018790529193929091879183918290036060019082908b9088165af1801561039357917f68b55dd8c41968e125c711614a80388345a3ee387f0b8f6b040aa846342420099493916001936107de575b50338852600587528284892001610773878254611097565b9055338852600587528388200161078a81546110a4565b905580600254168752600586526003838820016107a8868254611097565b905580600254168752600586526005838820016107c581546110a4565b9055600254169482519485528401523392a46001805580f35b6107f490883d8a1161038c5761037d8183610ff1565b503861075b565b505050fd5b50503461018057816003193601126101805760025490516001600160a01b039091168152602090f35b5050346101805760203660031901126101805760209061084f61084a610f3e565b6110ee565b9051908152f35b505034610180578160031936011261018057905490516001600160a01b039091168152602090f35b8284346102335760203660031901126102335761022f9082906001600160a01b036108a7610f3e565b16815260056020522091825492600181015494600282015460056003840154928401549301549351968796879260a094919796959260c0850198855260208501526040840152606083015260808201520152565b5050346101805781600319360112610180576020905160be8152f35b50503461018057816003193601126101805760209051670de0b6b3a76400008152f35b9050346105c757826003193601126105c7575490516001600160a01b03909116815260209150f35b833461023357806003193601126102335761097b610f59565b80546001600160a01b03198116825581906001600160a01b03167f8be0079c531659141344cd1fd0a4f28419497f9722a3daafe3b4186f6b6457e08280a380f35b9050346105c75760203660031901126105c7573582526006602090815291819020805460018201546002909201549251908152928301526040820152606090f35b8093925060031936011261039d57610a136110b3565b610a27670de0b6b3a7640000341015610f85565b60018060a01b039083808080856002541681903415610b0b575b3491f115610aff573384526005602052828420610a5f348254611097565b9055338452600560205282842001610a7781546110a4565b9055806002541683526005602052600282842001610a96348254611097565b9055806002541683526005602052600582842001610ab481546110a4565b9055600254169082815191348352816020840152820152600160608201527f554d885dac84978f7c3bfec4808577da5ab50f84bde5e8752f1e1aac725fb32d60803392a46001805580f35b505051903d90823e3d90fd5b6108fc9150610a41565b919050346105c757806003193601126105c757813590602435610b366110b3565b60035482516331a9108f60e11b8152858101859052946001600160a01b03939187916020918290899060249082908a165afa978815610cb35785610bcb9984928691610cbd575b5088811698610b8e338b1415611032565b84541690868851809d819582946323b872dd60e01b8452338a850160409194939294606082019560018060a01b0380921683521660208201520152565b03925af1978815610cb3577f68b55dd8c41968e125c711614a80388345a3ee387f0b8f6b040aa8463424200995969798610c96575b5033835260058252600184842001610c19878254611097565b90553383526005825283832001610c3081546110a4565b905585825260058152600383832001610c4a868254611097565b905585825260058152600583832001610c6381546110a4565b905586825260068152600183832001610c7d868254611097565b90558682526006815260028383200161035281546110a4565b610cac90833d851161038c5761037d8183610ff1565b5038610c00565b84513d85823e3d90fd5b610cd49150833d85116105b6576105a88183610ff1565b38610b7d565b5050346101805760203660031901126101805760209061084f610cfb610f3e565b610d0d610d07826110ee565b91611159565b90611097565b5050346101805760203660031901126101805760209061084f610d34610f3e565b611159565b83602084366003190182136105c757610d50610f3e565b90610d596110b3565b670de0b6b3a7640000610d6e81341015610f85565b6001600160a01b0392831693610d8633861415611032565b60be340234810460be1434151715610eab579661271087980492808410610ea3575b50610db38334611074565b94878688828215610e9a575b839283928392f1156103935787808086819460025416828215610e91575bf115610e8757908693929133855260058252838520610dfd878254611097565b90553385526005825283852001610e1481546110a4565b905585845260058152600283852001610e2e868254611097565b905585845260058152600583852001610e4781546110a4565b905582519485528401528201528260608201527f554d885dac84978f7c3bfec4808577da5ab50f84bde5e8752f1e1aac725fb32d60803392a46001805580f35b83513d88823e3d90fd5b506108fc610ddd565b506108fc610dbf565b925088610da8565b634e487b7160e01b875260118852602487fd5b849084346105c75760203660031901126105c75783358352600660205280832092606083019083821067ffffffffffffffff831117610f2b575081528254808352600184015460208085018290526002909501549383018490529151908152928301526040820152606090f35b634e487b7160e01b815260418652602490fd5b600435906001600160a01b0382168203610f5457565b600080fd5b6000546001600160a01b03163303610f6d57565b60405163118cdaa760e01b8152336004820152602490fd5b15610f8c57565b60405162461bcd60e51b815260206004820152600b60248201526a54697020746f6f206c6f7760a81b6044820152606490fd5b60c0810190811067ffffffffffffffff821117610fdb57604052565b634e487b7160e01b600052604160045260246000fd5b90601f8019910116810190811067ffffffffffffffff821117610fdb57604052565b90816020910312610f5457516001600160a01b0381168103610f545790565b1561103957565b60405162461bcd60e51b815260206004820152601360248201527221b0b73737ba103a34b8103cb7bab939b2b63360691b6044820152606490fd5b9190820391821161108157565b634e487b7160e01b600052601160045260246000fd5b9190820180921161108157565b60001981146110815760010190565b6002600154146110c4576002600155565b604051633ee5aeb560e01b8152600490fd5b90816020910312610f5457518015158103610f545790565b60018060a01b0316600052600560205261115660406000206103e86040519161111683610fbf565b80549283815260a0600560018401549384602085015260028101546040850152600381015460608501526004810154608085015201549101520490611097565b90565b60018060a01b0316600052600560205261115660406000206103e86040519161118183610fbf565b805483526001810154602084015260028101549283604082015260a06005600384015493846060850152600481015460808501520154910152049061109756fea2646970667358221220f186aa6b989848f9996a3ebe394ccf5f86cf3c653ef01a15407aec87ba535e3264736f6c63430008140033",
  "linkReferences": {},
  "deployedLinkReferences": {}
}