{
  "_format": "hh-sol-artifact-1",
  "contractName": "MembershipTokens",
  "sourceName": "contracts/solidity/MembershipTokens.sol",
  "abi": [
    {
      "inputs": [
        {
          "internalType": "address",
          "name": "godTokenOwner",
          "type": "address"
        }
      ],
      "stateMutability": "nonpayable",
      "type": "constructor"
    },
    {
      "inputs": [
        {
          "internalType": "address",
          "name": "sender",
          "type": "address"
        },
        {
          "internalType": "uint256",
          "name": "tokenId",
          "type": "uint256"
        },
        {
          "internalType": "address",
          "name": "owner",
          "type": "address"
        }
      ],
      "name": "ERC721IncorrectOwner",
      "type": "error"
    },
    {
      "inputs": [
        {
          "internalType": "address",
          "name": "operator",
          "type": "address"
        },
        {
          "internalType": "uint256",
          "name": "tokenId",
          "type": "uint256"
        }
      ],
      "name": "ERC721InsufficientApproval",
      "type": "error"
    },
    {
      "inputs": [
        {
          "internalType": "address",
          "name": "approver",
          "type": "address"
        }
      ],
      "name": "ERC721InvalidApprover",
      "type": "error"
    },
    {
      "inputs": [
        {
          "internalType": "address",
          "name": "operator",
          "type": "address"
        }
      ],
      "name": "ERC721InvalidOperator",
      "type": "error"
    },
    {
      "inputs": [
        {
          "internalType": "address",
          "name": "owner",
          "type": "address"
        }
      ],
      "name": "ERC721InvalidOwner",
      "type": "error"
    },
    {
      "inputs": [
        {
          "internalType": "address",
          "name": "receiver",
          "type": "address"
        }
      ],
      "name": "ERC721InvalidReceiver",
      "type": "error"
    },
    {
      "inputs": [
        {
          "internalType": "address",
          "name": "sender",
          "type": "address"
        }
      ],
      "name": "ERC721InvalidSender",
      "type": "error"
    },
    {
      "inputs": [
        {
          "internalType": "uint256",
          "name": "tokenId",
          "type": "uint256"
        }
      ],
      "name": "ERC721NonexistentToken",
      "type": "error"
    },
    {
      "inputs": [
        {
          "internalType": "address",
          "name": "owner",
          "type": "address"
        }
      ],
      "name": "OwnableInvalidOwner",
      "type": "error"
    },
    {
      "inputs": [
        {
          "internalType": "address",
          "name": "account",
          "type": "address"
        }
      ],
      "name": "OwnableUnauthorizedAccount",
      "type": "error"
    },
    {
      "anonymous": false,
      "inputs": [
        {
          "indexed": true,
          "internalType": "address",
          "name": "owner",
          "type": "address"
        },
        {
          "indexed": true,
          "internalType": "address",
          "name": "approved",
          "type": "address"
        },
        {
          "indexed": true,
          "internalType": "uint256",
          "name": "tokenId",
          "type": "uint256"
        }
      ],
      "name": "Approval",
      "type": "event"
    },
    {
      "anonymous": false,
      "inputs": [
        {
          "indexed": true,
          "internalType": "address",
          "name": "owner",
          "type": "address"
        },
        {
          "indexed": true,
          "internalType": "address",
          "name": "operator",
          "type": "address"
        },
        {
          "indexed": false,
          "internalType": "bool",
          "name": "approved",
          "type": "bool"
        }
      ],
      "name": "ApprovalForAll",
      "type": "event"
    },
    {
      "anonymous": false,
      "inputs": [
        {
          "indexed": false,
          "internalType": "uint256",
          "name": "_fromTokenId",
          "type": "uint256"
        },
        {
          "indexed": false,
          "internalType": "uint256",
          "name": "_toTokenId",
          "type": "uint256"
        }
      ],
      "name": "BatchMetadataUpdate",
      "type": "event"
    },
    {
      "anonymous": false,
      "inputs": [
        {
          "indexed": false,
          "internalType": "uint256",
          "name": "_tokenId",
          "type": "uint256"
        }
      ],
      "name": "MetadataUpdate",
      "type": "event"
    },
    {
      "anonymous": false,
      "inputs": [
        {
          "indexed": true,
          "internalType": "address",
          "name": "previousOwner",
          "type": "address"
        },
        {
          "indexed": true,
          "internalType": "address",
          "name": "newOwner",
          "type": "address"
        }
      ],
      "name": "OwnershipTransferred",
      "type": "event"
    },
    {
      "anonymous": false,
      "inputs": [
        {
          "indexed": true,
          "internalType": "uint256",
          "name": "tokenId",
          "type": "uint256"
        },
        {
          "indexed": true,
          "internalType": "address",
          "name": "owner",
          "type": "address"
        },
        {
          "indexed": false,
          "internalType": "string",
          "name": "name",
          "type": "string"
        }
      ],
      "name": "TokenMinted",
      "type": "event"
    },
    {
      "anonymous": false,
      "inputs": [
        {
          "indexed": true,
          "internalType": "address",
          "name": "from",
          "type": "address"
        },
        {
          "indexed": true,
          "internalType": "address",
          "name": "to",
          "type": "address"
        },
        {
          "indexed": true,
          "internalType": "uint256",
          "name": "tokenId",
          "type": "uint256"
        }
      ],
      "name": "Transfer",
      "type": "event"
    },
    {
      "inputs": [],
      "name": "MAX_TOKEN_ID",
      "outputs": [
        {
          "internalType": "uint256",
          "name": "",
          "type": "uint256"
        }
      ],
      "stateMutability": "view",
      "type": "function"
    },
    {
      "inputs": [
        {
          "internalType": "address",
          "name": "to",
          "type": "address"
        },
        {
          "internalType": "uint256",
          "name": "tokenId",
          "type": "uint256"
        }
      ],
      "name": "approve",
      "outputs": [],
      "stateMutability": "nonpayable",
      "type": "function"
    },
    {
      "inputs": [
        {
          "internalType": "address",
          "name": "owner",
          "type": "address"
        }
      ],
      "name": "balanceOf",
      "outputs": [
        {
          "internalType": "uint256",
          "name": "",
          "type": "uint256"
        }
      ],
      "stateMutability": "view",
      "type": "function"
    },
    {
      "inputs": [
        {
          "internalType": "uint256",
          "name": "tokenId",
          "type": "uint256"
        }
      ],
      "name": "getApproved",
      "outputs": [
        {
          "internalType": "address",
          "name": "",
          "type": "address"
        }
      ],
      "stateMutability": "view",
      "type": "function"
    },
    {
      "inputs": [],
      "name": "getAvailableTokens",
      "outputs": [
        {
          "internalType": "uint256[]",
          "name": "",
          "type": "uint256[]"
        }
      ],
      "stateMutability": "view",
      "type": "function"
    },
    {
      "inputs": [
        {
          "internalType": "uint256",
          "name": "tokenId",
          "type": "uint256"
        }
      ],
      "name": "getMember",
      "outputs": [
        {
          "internalType": "address",
          "name": "owner",
          "type": "address"
        },
        {
          "internalType": "string",
          "name": "name",
          "type": "string"
        },
        {
          "internalType": "uint256",
          "name": "mintedAt",
          "type": "uint256"
        },
        {
          "internalType": "bool",
          "name": "isActive",
          "type": "bool"
        }
      ],
      "stateMutability": "view",
      "type": "function"
    },
    {
      "inputs": [
        {
          "internalType": "address",
          "name": "owner",
          "type": "address"
        },
        {
          "internalType": "address",
          "name": "operator",
          "type": "address"
        }
      ],
      "name": "isApprovedForAll",
      "outputs": [
        {
          "internalType": "bool",
          "name": "",
          "type": "bool"
        }
      ],
      "stateMutability": "view",
      "type": "function"
    },
    {
      "inputs": [
        {
          "internalType": "uint256",
          "name": "tokenId",
          "type": "uint256"
        }
      ],
      "name": "isTokenMinted",
      "outputs": [
        {
          "internalType": "bool",
          "name": "",
          "type": "bool"
        }
      ],
      "stateMutability": "view",
      "type": "function"
    },
    {
      "inputs": [
        {
          "internalType": "uint256",
          "name": "",
          "type": "uint256"
        }
      ],
      "name": "members",
      "outputs": [
        {
          "internalType": "address",
          "name": "owner",
          "type": "address"
        },
        {
          "internalType": "string",
          "name": "name",
          "type": "string"
        },
        {
          "internalType": "uint256",
          "name": "mintedAt",
          "type": "uint256"
        },
        {
          "internalType": "bool",
          "name": "isActive",
          "type": "bool"
        }
      ],
      "stateMutability": "view",
      "type": "function"
    },
    {
      "inputs": [
        {
          "internalType": "uint256",
          "name": "tokenId",
          "type": "uint256"
        },
        {
          "internalType": "address",
          "name": "to",
          "type": "address"
        },
        {
          "internalType": "string",
          "name": "name",
          "type": "string"
        }
      ],
      "name": "mintToken",
      "outputs": [],
      "stateMutability": "nonpayable",
      "type": "function"
    },
    {
      "inputs": [],
      "name": "name",
      "outputs": [
        {
          "internalType": "string",
          "name": "",
          "type": "string"
        }
      ],
      "stateMutability": "view",
      "type": "function"
    },
    {
      "inputs": [],
      "name": "owner",
      "outputs": [
        {
          "internalType": "address",
          "name": "",
          "type": "address"
        }
      ],
      "stateMutability": "view",
      "type": "function"
    },
    {
      "inputs": [
        {
          "internalType": "uint256",
          "name": "tokenId",
          "type": "uint256"
        }
      ],
      "name": "ownerOf",
      "outputs": [
        {
          "internalType": "address",
          "name": "",
          "type": "address"
        }
      ],
      "stateMutability": "view",
      "type": "function"
    },
    {
      "inputs": [],
      "name": "renounceOwnership",
      "outputs": [],
      "stateMutability": "nonpayable",
      "type": "function"
    },
    {
      "inputs": [
        {
          "internalType": "address",
          "name": "from",
          "type": "address"
        },
        {
          "internalType": "address",
          "name": "to",
          "type": "address"
        },
        {
          "internalType": "uint256",
          "name": "tokenId",
          "type": "uint256"
        }
      ],
      "name": "safeTransferFrom",
      "outputs": [],
      "stateMutability": "nonpayable",
      "type": "function"
    },
    {
      "inputs": [
        {
          "internalType": "address",
          "name": "from",
          "type": "address"
        },
        {
          "internalType": "address",
          "name": "to",
          "type": "address"
        },
        {
          "internalType": "uint256",
          "name": "tokenId",
          "type": "uint256"
        },
        {
          "internalType": "bytes",
          "name": "data",
          "type": "bytes"
        }
      ],
      "name": "safeTransferFrom",
      "outputs": [],
      "stateMutability": "nonpayable",
      "type": "function"
    },
    {
      "inputs": [
        {
          "internalType": "address",
          "name": "operator",
          "type": "address"
        },
        {
          "internalType": "bool",
          "name": "approved",
          "type": "bool"
        }
      ],
      "name": "setApprovalForAll",
      "outputs": [],
      "stateMutability": "nonpayable",
      "type": "function"
    },
    {
      "inputs": [
        {
          "internalType": "bytes4",
          "name": "interfaceId",
          "type": "bytes4"
        }
      ],
      "name": "supportsInterface",
      "outputs": [
        {
          "internalType": "bool",
          "name": "",
          "type": "bool"
        }
      ],
      "stateMutability": "view",
      "type": "function"
    },
    {
      "inputs": [],
      "name": "symbol",
      "outputs": [
        {
          "internalType": "string",
          "name": "",
          "type": "string"
        }
      ],
      "stateMutability": "view",
      "type": "function"
    },
    {
      "inputs": [
        {
          "internalType": "uint256",
          "name": "",
          "type": "uint256"
        }
      ],
      "name": "tokenExists",
      "outputs": [
        {
          "internalType": "bool",
          "name": "",
          "type": "bool"
        }
      ],
      "stateMutability": "view",
      "type": "function"
    },
    {
      "inputs": [
        {
          "internalType": "uint256",
          "name": "tokenId",
          "type": "uint256"
        }
      ],
      "name": "tokenURI",
      "outputs": [
        {
          "internalType": "string",
          "name": "",
          "type": "string"
        }
      ],
      "stateMutability": "view",
      "type": "function"
    },
    {
      "inputs": [],
      "name": "totalMinted",
      "outputs": [
        {
          "internalType": "uint256",
          "name": "",
          "type": "uint256"
        }
      ],
      "stateMutability": "view",
      "type": "function"
    },
    {
      "inputs": [
        {
          "internalType": "address",
          "name": "from",
          "type": "address"
        },
        {
          "internalType": "address",
          "name": "to",
          "type": "address"
        },
        {
          "internalType": "uint256",
          "name": "tokenId",
          "type": "uint256"
        }
      ],
      "name": "transferFrom",
      "outputs": [],
      "stateMutability": "nonpayable",
      "type": "function"
    },
    {
      "inputs": [
        {
          "internalType": "address",
          "name": "newOwner",
          "type": "address"
        }
      ],
      "name": "transferOwnership",
      "outputs": [],
      "stateMutability": "nonpayable",
      "type": "function"
    }
  ],
  "bytecode": "0x60806040523480156200001157600080fd5b5060405162002d9738038062002d978339810160408190526200003491620008b7565b336040518060400160405280601e81526020017f496d6d757461626c655479706520466f756e64696e67204d656d626572730000815250604051806040016040528060048152602001634954464d60e01b815250816000908162000099919062000985565b506001620000a8828262000985565b5050506001600160a01b038116620000db57604051631e4fbdf760e01b8152600060048201526024015b60405180910390fd5b620000e68162000286565b50620000f4816000620002d8565b7fec8156718a8372b1db44bb411437d0870f3e3790d4a08526d024ce1b0b668f6b8054600160ff199091168117909155600a819055604080516080810182526001600160a01b038481168252825180840184526011815270476f6420546f6b656e202841646d696e2960781b6020808301919091528084019182524294840194909452606083019490945260008052600890925280517f5eff886ea0ce6ca488a3d6e336d6c0f75f46d19b42c06ce5ee98e42c96d256c780546001600160a01b0319169190931617825591517f5eff886ea0ce6ca488a3d6e336d6c0f75f46d19b42c06ce5ee98e42c96d256c890620001ee908262000985565b5060408281015160028301556060909201516003909101805491151560ff19909216919091179055516001600160a01b038216906000907fec2cd236ed6d37bf5a71276ac93889db12834493a090efd543a3d2eca8dcdcc8906200027790602080825260119082015270476f6420546f6b656e202841646d696e2960781b604082015260600190565b60405180910390a35062000af0565b600780546001600160a01b038381166001600160a01b0319831681179093556040519116919082907f8be0079c531659141344cd1fd0a4f28419497f9722a3daafe3b4186f6b6457e090600090a35050565b620002fa828260405180602001604052806000815250620002fe60201b60201c565b5050565b6200030a83836200031f565b6200031a33600085858562000389565b505050565b6001600160a01b0382166200034b57604051633250574960e11b815260006004820152602401620000d2565b60006200035a838383620004c1565b90506001600160a01b038116156200031a576040516339e3563760e11b815260006004820152602401620000d2565b6001600160a01b0383163b15620004ba57604051630a85bd0160e11b81526001600160a01b0384169063150b7a0290620003ce90889088908790879060040162000a51565b6020604051808303816000875af19250505080156200040c575060408051601f3d908101601f19168201909252620004099181019062000ac4565b60015b6200047a573d8080156200043d576040519150601f19603f3d011682016040523d82523d6000602084013e62000442565b606091505b5080516000036200047257604051633250574960e11b81526001600160a01b0385166004820152602401620000d2565b805181602001fd5b6001600160e01b03198116630a85bd0160e11b14620004b857604051633250574960e11b81526001600160a01b0385166004820152602401620000d2565b505b5050505050565b6000828152600260205260408120546001600160a01b03168015801590620004f157506001600160a01b03851615155b15620005405760405162461bcd60e51b815260206004820152601f60248201527f536f756c626f756e643a205472616e73666572206e6f7420616c6c6f776564006044820152606401620000d2565b6200054d85858562000556565b95945050505050565b6000828152600260205260408120546001600160a01b039081169083161562000586576200058681848662000655565b6001600160a01b03811615620005c657620005a56000858180620006bf565b6001600160a01b038116600090815260036020526040902080546000190190555b6001600160a01b03851615620005f6576001600160a01b0385166000908152600360205260409020805460010190555b60008481526002602052604080822080546001600160a01b0319166001600160a01b0389811691821790925591518793918516917fddf252ad1be2c89b69c2b068fc378daa952ba7f163c4a11628f55a4df523b3ef91a4949350505050565b62000662838383620007ed565b6200031a576001600160a01b0383166200069357604051637e27328960e01b815260048101829052602401620000d2565b60405163177e802f60e01b81526001600160a01b038316600482015260248101829052604401620000d2565b8080620006d457506001600160a01b03821615155b15620007bd576000620006e78462000876565b90506001600160a01b03831615801590620007145750826001600160a01b0316816001600160a01b031614155b80156200074757506001600160a01b0380821660009081526005602090815260408083209387168352929052205460ff16155b15620007725760405163a9fbf51f60e01b81526001600160a01b0384166004820152602401620000d2565b8115620007bb5783856001600160a01b0316826001600160a01b03167f8c5be1e5ebec7d5bd14f71427d1e84f3dd0314c0f7b2291e5b200ac8c7c3b92560405160405180910390a45b505b5050600090815260046020526040902080546001600160a01b0319166001600160a01b0392909216919091179055565b60006001600160a01b038316158015906200086e5750826001600160a01b0316846001600160a01b031614806200084957506001600160a01b0380851660009081526005602090815260408083209387168352929052205460ff165b806200086e57506000828152600460205260409020546001600160a01b038481169116145b949350505050565b6000818152600260205260408120546001600160a01b031680620008b157604051637e27328960e01b815260048101849052602401620000d2565b92915050565b600060208284031215620008ca57600080fd5b81516001600160a01b0381168114620008e257600080fd5b9392505050565b634e487b7160e01b600052604160045260246000fd5b600181811c908216806200091457607f821691505b6020821081036200093557634e487b7160e01b600052602260045260246000fd5b50919050565b601f8211156200031a57600081815260208120601f850160051c81016020861015620009645750805b601f850160051c820191505b81811015620004b85782815560010162000970565b81516001600160401b03811115620009a157620009a1620008e9565b620009b981620009b28454620008ff565b846200093b565b602080601f831160018114620009f15760008415620009d85750858301515b600019600386901b1c1916600185901b178555620004b8565b600085815260208120601f198616915b8281101562000a225788860151825594840194600190910190840162000a01565b508582101562000a415787850151600019600388901b60f8161c191681555b5050505050600190811b01905550565b600060018060a01b038087168352602081871681850152856040850152608060608501528451915081608085015260005b8281101562000aa05785810182015185820160a00152810162000a82565b5050600060a0828501015260a0601f19601f83011684010191505095945050505050565b60006020828403121562000ad757600080fd5b81516001600160e01b031981168114620008e257600080fd5b6122978062000b006000396000f3fe608060405234801561001057600080fd5b50600436106101575760003560e01c80638da5cb5b116100c3578063b88d4fde1161007c578063b88d4fde146102f4578063c87b56dd14610307578063ca8197011461031a578063e35568cb1461032d578063e985e9c514610342578063f2fde38b1461035557600080fd5b80638da5cb5b146102895780638f96a7cb1461029a57806395d89b41146102bd578063a22cb465146102c5578063a2309ff8146102d8578063ab3545e5146102e157600080fd5b806342842e0e1161011557806342842e0e1461020f5780635daf08ca146102225780636352211e146102455780636da612d81461025857806370a082311461026e578063715018a61461028157600080fd5b8062923f9e1461015c57806301ffc9a71461019457806306fdde03146101a7578063081812fc146101bc578063095ea7b3146101e757806323b872dd146101fc575b600080fd5b61017f61016a36600461163d565b60096020526000908152604090205460ff1681565b60405190151581526020015b60405180910390f35b61017f6101a236600461166c565b610368565b6101af610379565b60405161018b91906116e0565b6101cf6101ca36600461163d565b61040b565b6040516001600160a01b03909116815260200161018b565b6101fa6101f536600461170f565b610434565b005b6101fa61020a366004611739565b610443565b6101fa61021d366004611739565b6104d3565b61023561023036600461163d565b6104f3565b60405161018b9493929190611775565b6101cf61025336600461163d565b6105b2565b610260606381565b60405190815260200161018b565b61026061027c3660046117b1565b6105bd565b6101fa610605565b6007546001600160a01b03166101cf565b61017f6102a836600461163d565b60009081526009602052604090205460ff1690565b6101af610619565b6101fa6102d33660046117cc565b610628565b610260600a5481565b6102356102ef36600461163d565b610633565b6101fa610302366004611894565b61078d565b6101af61031536600461163d565b6107a5565b6101fa610328366004611910565b61087b565b610335610a88565b60405161018b919061197b565b61017f6103503660046119bf565b610be3565b6101fa6103633660046117b1565b610c11565b600061037382610c4f565b92915050565b606060008054610388906119f2565b80601f01602080910402602001604051908101604052809291908181526020018280546103b4906119f2565b80156104015780601f106103d657610100808354040283529160200191610401565b820191906000526020600020905b8154815290600101906020018083116103e457829003601f168201915b5050505050905090565b600061041682610c74565b506000828152600460205260409020546001600160a01b0316610373565b61043f828233610cad565b5050565b6001600160a01b03821661047257604051633250574960e11b8152600060048201526024015b60405180910390fd5b600061047f838333610cba565b9050836001600160a01b0316816001600160a01b0316146104cd576040516364283d7b60e01b81526001600160a01b0380861660048301526024820184905282166044820152606401610469565b50505050565b6104ee8383836040518060200160405280600081525061078d565b505050565b600860205260009081526040902080546001820180546001600160a01b03909216929161051f906119f2565b80601f016020809104026020016040519081016040528092919081815260200182805461054b906119f2565b80156105985780601f1061056d57610100808354040283529160200191610598565b820191906000526020600020905b81548152906001019060200180831161057b57829003601f168201915b50505050600283015460039093015491929160ff16905084565b600061037382610c74565b60006001600160a01b0382166105e9576040516322718ad960e21b815260006004820152602401610469565b506001600160a01b031660009081526003602052604090205490565b61060d610d4a565b6106176000610d77565b565b606060018054610388906119f2565b61043f338383610dc9565b6000818152600960205260408120546060908290819060ff1661068f5760405162461bcd60e51b8152602060048201526014602482015273151bdad95b88191bd95cc81b9bdd08195e1a5cdd60621b6044820152606401610469565b600085815260086020908152604080832081516080810190925280546001600160a01b0316825260018101805492939192918401916106cd906119f2565b80601f01602080910402602001604051908101604052809291908181526020018280546106f9906119f2565b80156107465780601f1061071b57610100808354040283529160200191610746565b820191906000526020600020905b81548152906001019060200180831161072957829003601f168201915b5050509183525050600282015460208083019190915260039092015460ff161515604091820152825191830151908301516060909301519199909850919650945092505050565b610798848484610443565b6104cd3385858585610e60565b60008181526009602052604090205460609060ff166107fd5760405162461bcd60e51b8152602060048201526014602482015273151bdad95b88191bd95cc81b9bdd08195e1a5cdd60621b6044820152606401610469565b600061080883610f8b565b9050600061081584610fe1565b61081e836110ea565b61082786610fe1565b60405160200161083993929190611a48565b6040516020818303038152906040529050610853816110ea565b6040516020016108639190611bf3565b60405160208183030381529060405292505050919050565b610883610d4a565b60638311156108d45760405162461bcd60e51b815260206004820152601860248201527f546f6b656e2049442065786365656473206d6178696d756d00000000000000006044820152606401610469565b60008381526009602052604090205460ff161561092a5760405162461bcd60e51b8152602060048201526014602482015273151bdad95b88185b1c9958591e481b5a5b9d195960621b6044820152606401610469565b6001600160a01b0382166109805760405162461bcd60e51b815260206004820152601b60248201527f43616e6e6f74206d696e7420746f207a65726f206164647265737300000000006044820152606401610469565b61098a828461124d565b6000838152600960205260408120805460ff19166001179055600a8054916109b183611c4e565b9091555050604080516080810182526001600160a01b038481168252602080830185815242848601526001606085018190526000898152600890935294909120835181546001600160a01b0319169316929092178255519192909190820190610a1a9082611cad565b5060408281015160028301556060909201516003909101805460ff1916911515919091179055516001600160a01b0383169084907fec2cd236ed6d37bf5a71276ac93889db12834493a090efd543a3d2eca8dcdcc890610a7b9085906116e0565b60405180910390a3505050565b60606000600a546064610a9b9190611d6d565b67ffffffffffffffff811115610ab357610ab3611808565b604051908082528060200260200182016040528015610adc578160200160208202803683370190505b5090506000805b60638111610b3f5760008181526009602052604090205460ff16610b2d5780838381518110610b1457610b14611d80565b602090810291909101015281610b2981611c4e565b9250505b80610b3781611c4e565b915050610ae3565b5060008167ffffffffffffffff811115610b5b57610b5b611808565b604051908082528060200260200182016040528015610b84578160200160208202803683370190505b50905060005b82811015610bdb57838181518110610ba457610ba4611d80565b6020026020010151828281518110610bbe57610bbe611d80565b602090810291909101015280610bd381611c4e565b915050610b8a565b509392505050565b6001600160a01b03918216600090815260056020908152604080832093909416825291909152205460ff1690565b610c19610d4a565b6001600160a01b038116610c4357604051631e4fbdf760e01b815260006004820152602401610469565b610c4c81610d77565b50565b60006001600160e01b03198216632483248360e11b1480610373575061037382611267565b6000818152600260205260408120546001600160a01b03168061037357604051637e27328960e01b815260048101849052602401610469565b6104ee83838360016112b7565b6000828152600260205260408120546001600160a01b03168015801590610ce957506001600160a01b03851615155b15610d365760405162461bcd60e51b815260206004820152601f60248201527f536f756c626f756e643a205472616e73666572206e6f7420616c6c6f776564006044820152606401610469565b610d418585856113bd565b95945050505050565b6007546001600160a01b031633146106175760405163118cdaa760e01b8152336004820152602401610469565b600780546001600160a01b038381166001600160a01b0319831681179093556040519116919082907f8be0079c531659141344cd1fd0a4f28419497f9722a3daafe3b4186f6b6457e090600090a35050565b6001600160a01b038216610dfb57604051630b61174360e31b81526001600160a01b0383166004820152602401610469565b6001600160a01b03838116600081815260056020908152604080832094871680845294825291829020805460ff191686151590811790915591519182527f17307eab39ab6107e8899845ad3d59bd9653f200f220920489ca2b5937696c319101610a7b565b6001600160a01b0383163b15610f8457604051630a85bd0160e11b81526001600160a01b0384169063150b7a0290610ea2908890889087908790600401611d96565b6020604051808303816000875af1925050508015610edd575060408051601f3d908101601f19168201909252610eda91810190611dd3565b60015b610f46573d808015610f0b576040519150601f19603f3d011682016040523d82523d6000602084013e610f10565b606091505b508051600003610f3e57604051633250574960e11b81526001600160a01b0385166004820152602401610469565b805181602001fd5b6001600160e01b03198116630a85bd0160e11b14610f8257604051633250574960e11b81526001600160a01b0385166004820152602401610469565b505b5050505050565b60606000610f98836114b6565b604051602001610fa89190611df0565b604051602081830303815290604052905080604051602001610fca9190611e1a565b604051602081830303815290604052915050919050565b6060816000036110085750506040805180820190915260018152600360fc1b602082015290565b8160005b8115611032578061101c81611c4e565b915061102b9050600a836121a6565b915061100c565b60008167ffffffffffffffff81111561104d5761104d611808565b6040519080825280601f01601f191660200182016040528015611077576020820181803683370190505b5090505b84156110e25761108c600183611d6d565b9150611099600a866121ba565b6110a49060306121ce565b60f81b8183815181106110b9576110b9611d80565b60200101906001600160f81b031916908160001a9053506110db600a866121a6565b945061107b565b949350505050565b6060815160000361110957505060408051602081019091526000815290565b6000604051806060016040528060408152602001612222604091399050600060038451600261113891906121ce565b61114291906121a6565b61114d9060046121e1565b9050600061115c8260206121ce565b67ffffffffffffffff81111561117457611174611808565b6040519080825280601f01601f19166020018201604052801561119e576020820181803683370190505b509050600183018586518101602084015b81831015611207576003830192508251603f8160121c168501518253600182019150603f81600c1c168501518253600182019150603f8160061c168501518253600182019150603f81168501518253506001016111af565b60038951066001811461122157600281146112325761123e565b613d3d60f01b60011983015261123e565b603d60f81b6000198301525b50505092825250949350505050565b61043f8282604051806020016040528060008152506114f9565b60006001600160e01b031982166380ac58cd60e01b148061129857506001600160e01b03198216635b5e139f60e01b145b8061037357506301ffc9a760e01b6001600160e01b0319831614610373565b80806112cb57506001600160a01b03821615155b1561138d5760006112db84610c74565b90506001600160a01b038316158015906113075750826001600160a01b0316816001600160a01b031614155b801561131a57506113188184610be3565b155b156113435760405163a9fbf51f60e01b81526001600160a01b0384166004820152602401610469565b811561138b5783856001600160a01b0316826001600160a01b03167f8c5be1e5ebec7d5bd14f71427d1e84f3dd0314c0f7b2291e5b200ac8c7c3b92560405160405180910390a45b505b5050600090815260046020526040902080546001600160a01b0319166001600160a01b0392909216919091179055565b6000828152600260205260408120546001600160a01b03908116908316156113ea576113ea818486611511565b6001600160a01b03811615611428576114076000856000806112b7565b6001600160a01b038116600090815260036020526040902080546000190190555b6001600160a01b03851615611457576001600160a01b0385166000908152600360205260409020805460010190555b60008481526002602052604080822080546001600160a01b0319166001600160a01b0389811691821790925591518793918516917fddf252ad1be2c89b69c2b068fc378daa952ba7f163c4a11628f55a4df523b3ef91a4949350505050565b6060600a8210156114f0576114ca82610fe1565b6040516020016114da91906121f8565b6040516020818303038152906040529050919050565b61037382610fe1565b6115038383611575565b6104ee336000858585610e60565b61151c8383836115da565b6104ee576001600160a01b03831661154a57604051637e27328960e01b815260048101829052602401610469565b60405163177e802f60e01b81526001600160a01b038316600482015260248101829052604401610469565b6001600160a01b03821661159f57604051633250574960e11b815260006004820152602401610469565b60006115ad83836000610cba565b90506001600160a01b038116156104ee576040516339e3563760e11b815260006004820152602401610469565b60006001600160a01b038316158015906110e25750826001600160a01b0316846001600160a01b0316148061161457506116148484610be3565b806110e25750506000908152600460205260409020546001600160a01b03908116911614919050565b60006020828403121561164f57600080fd5b5035919050565b6001600160e01b031981168114610c4c57600080fd5b60006020828403121561167e57600080fd5b813561168981611656565b9392505050565b60005b838110156116ab578181015183820152602001611693565b50506000910152565b600081518084526116cc816020860160208601611690565b601f01601f19169290920160200192915050565b60208152600061168960208301846116b4565b80356001600160a01b038116811461170a57600080fd5b919050565b6000806040838503121561172257600080fd5b61172b836116f3565b946020939093013593505050565b60008060006060848603121561174e57600080fd5b611757846116f3565b9250611765602085016116f3565b9150604084013590509250925092565b6001600160a01b0385168152608060208201819052600090611799908301866116b4565b60408301949094525090151560609091015292915050565b6000602082840312156117c357600080fd5b611689826116f3565b600080604083850312156117df57600080fd5b6117e8836116f3565b9150602083013580151581146117fd57600080fd5b809150509250929050565b634e487b7160e01b600052604160045260246000fd5b600067ffffffffffffffff8084111561183957611839611808565b604051601f8501601f19908116603f0116810190828211818310171561186157611861611808565b8160405280935085815286868601111561187a57600080fd5b858560208301376000602087830101525050509392505050565b600080600080608085870312156118aa57600080fd5b6118b3856116f3565b93506118c1602086016116f3565b925060408501359150606085013567ffffffffffffffff8111156118e457600080fd5b8501601f810187136118f557600080fd5b6119048782356020840161181e565b91505092959194509250565b60008060006060848603121561192557600080fd5b83359250611935602085016116f3565b9150604084013567ffffffffffffffff81111561195157600080fd5b8401601f8101861361196257600080fd5b6119718682356020840161181e565b9150509250925092565b6020808252825182820181905260009190848201906040850190845b818110156119b357835183529284019291840191600101611997565b50909695505050505050565b600080604083850312156119d257600080fd5b6119db836116f3565b91506119e9602084016116f3565b90509250929050565b600181811c90821680611a0657607f821691505b602082108103611a2657634e487b7160e01b600052602260045260246000fd5b50919050565b60008151611a3e818560208601611690565b9290920192915050565b7f7b226e616d65223a22496d6d757461626c655479706520466f756e64696e67208152674d656d626572202360c01b602082015260008451611a91816028850160208901611690565b7f222c226465736372697074696f6e223a22466f756e64696e67206d656d6265726028918401918201527f20746f6b656e20666f7220496d6d757461626c655479706520646563656e747260488201527f616c697a6564206a6f75726e616c69736d20706c6174666f726d222c22696d6160688201527f6765223a22646174613a696d6167652f7376672b786d6c3b6261736536342c0060888201528451611b408160a7840160208901611690565b7f222c2261747472696275746573223a5b7b2274726169745f74797065223a225460a792909101918201527137b5b2b71024a21116113b30b63ab2911d1160711b60c78201528351611b998160d9840160208801611690565b611be860d9828401017f227d2c7b2274726169745f74797065223a2254797065222c2276616c7565223a81527322466f756e64696e67204d656d626572227d5d7d60601b602082015260340190565b979650505050505050565b7f646174613a6170706c69636174696f6e2f6a736f6e3b6261736536342c000000815260008251611c2b81601d850160208701611690565b91909101601d0192915050565b634e487b7160e01b600052601160045260246000fd5b600060018201611c6057611c60611c38565b5060010190565b601f8211156104ee57600081815260208120601f850160051c81016020861015611c8e5750805b601f850160051c820191505b81811015610f8257828155600101611c9a565b815167ffffffffffffffff811115611cc757611cc7611808565b611cdb81611cd584546119f2565b84611c67565b602080601f831160018114611d105760008415611cf85750858301515b600019600386901b1c1916600185901b178555610f82565b600085815260208120601f198616915b82811015611d3f57888601518255948401946001909101908401611d20565b5085821015611d5d5787850151600019600388901b60f8161c191681555b5050505050600190811b01905550565b8181038181111561037357610373611c38565b634e487b7160e01b600052603260045260246000fd5b6001600160a01b0385811682528416602082015260408101839052608060608201819052600090611dc9908301846116b4565b9695505050505050565b600060208284031215611de557600080fd5b815161168981611656565b61125560f21b815260008251611e0d816002850160208701611690565b9190910160020192915050565b7f3c7376672077696474683d2234303022206865696768743d223235302220786d81527f6c6e733d22687474703a2f2f7777772e77332e6f72672f323030302f737667226020820152601f60f91b604082018190527f3c726563742077696474683d2234303022206865696768743d2232353022207260418301527f783d223235222072793d223235222066696c6c3d22234646443730302220737460618301527f726f6b653d222342383836304222207374726f6b652d77696474683d2233222f608183015260a18201527f3c7265637420783d2232302220793d223230222077696474683d22333630222060a28201527f6865696768743d22323130222072783d223135222072793d223135222066696c60c28201527f6c3d226e6f6e6522207374726f6b653d222342383836304222207374726f6b6560e28201526b16bbb4b23a341e911911179f60a11b6101028201527f3c7465787420783d223230302220793d223133302220666f6e742d66616d696c61010e8201527f793d22417269616c2c2073616e732d73657269662220666f6e742d73697a653d61012e8201527f2234382220666f6e742d7765696768743d22626f6c642220746578742d616e6361014e8201527f686f723d226d6964646c65222066696c6c3d2223303030303030223e0000000061016e820152600061168961217e6120d461203961202661018a870188611a2c565b661e17ba32bc3a1f60c91b815260070190565b7f3c7465787420783d223230302220793d223138302220666f6e742d66616d696c81527f793d22417269616c2c2073616e732d73657269662220666f6e742d73697a653d60208201527f2231362220746578742d616e63686f723d226d6964646c65222066696c6c3d2260408201527f23303030303030223e464f554e44494e47204d454d4245523c2f746578743e006060820152607f0190565b7f3c7465787420783d223230302220793d223230302220666f6e742d66616d696c81527f793d22417269616c2c2073616e732d73657269662220666f6e742d73697a653d60208201527f2231322220746578742d616e63686f723d226d6964646c65222066696c6c3d2260408201527f23303030303030223e496d6d757461626c655479706520506c6174666f726d3c60608201526517ba32bc3a1f60d11b608082015260860190565b651e17b9bb339f60d11b815260060190565b634e487b7160e01b600052601260045260246000fd5b6000826121b5576121b5612190565b500490565b6000826121c9576121c9612190565b500690565b8082018082111561037357610373611c38565b808202811582820484141761037357610373611c38565b600360fc1b815260008251612214816001850160208701611690565b919091016001019291505056fe4142434445464748494a4b4c4d4e4f505152535455565758595a6162636465666768696a6b6c6d6e6f707172737475767778797a303132333435363738392b2fa26469706673582212203625bb57febae8af35f13d5812f45aeb6daca6cc4a9cd031644309de5fb9392d64736f6c63430008140033",
  "linkReferences": {},
  "deployedLinkReferences": {}
}