{
  "_format": "hh-sol-artifact-1",
  "contractName": "BookmarkContract",
  "sourceName": "contracts/engagement/BookmarkContract.sol",
  "abi": [
    {
      "inputs": [
        {
          "internalType": "address",
          "name": "_profileNFT",
          "type": "address"
        },
        {
          "internalType": "address",
          "name": "_treasuryWallet",
          "type": "address"
        }
      ],
      "stateMutability": "nonpayable",
      "type": "constructor"
    },
    {
      "anonymous": false,
      "inputs": [
        {
          "indexed": true,
          "internalType": "address",
          "name": "user",
          "type": "address"
        },
        {
          "indexed": true,
          "internalType": "string",
          "name": "contentId",
          "type": "string"
        },
        {
          "indexed": true,
          "internalType": "enum BookmarkContract.ContentType",
          "name": "contentType",
          "type": "uint8"
        },
        {
          "indexed": false,
          "internalType": "uint256",
          "name": "timestamp",
          "type": "uint256"
        }
      ],
      "name": "BookmarkAdded",
      "type": "event"
    },
    {
      "anonymous": false,
      "inputs": [
        {
          "indexed": true,
          "internalType": "address",
          "name": "user",
          "type": "address"
        },
        {
          "indexed": true,
          "internalType": "string",
          "name": "contentId",
          "type": "string"
        },
        {
          "indexed": true,
          "internalType": "enum BookmarkContract.ContentType",
          "name": "contentType",
          "type": "uint8"
        },
        {
          "indexed": false,
          "internalType": "uint256",
          "name": "timestamp",
          "type": "uint256"
        }
      ],
      "name": "BookmarkRemoved",
      "type": "event"
    },
    {
      "anonymous": false,
      "inputs": [
        {
          "indexed": true,
          "internalType": "address",
          "name": "payer",
          "type": "address"
        },
        {
          "indexed": false,
          "internalType": "uint256",
          "name": "amount",
          "type": "uint256"
        }
      ],
      "name": "TreasuryFeePaid",
      "type": "event"
    },
    {
      "inputs": [],
      "name": "BOOKMARK_FEE",
      "outputs": [
        {
          "internalType": "uint256",
          "name": "",
          "type": "uint256"
        }
      ],
      "stateMutability": "view",
      "type": "function"
    },
    {
      "inputs": [
        {
          "internalType": "string",
          "name": "contentId",
          "type": "string"
        },
        {
          "internalType": "enum BookmarkContract.ContentType",
          "name": "contentType",
          "type": "uint8"
        }
      ],
      "name": "addBookmark",
      "outputs": [],
      "stateMutability": "payable",
      "type": "function"
    },
    {
      "inputs": [
        {
          "internalType": "address",
          "name": "",
          "type": "address"
        },
        {
          "internalType": "string",
          "name": "",
          "type": "string"
        },
        {
          "internalType": "uint8",
          "name": "",
          "type": "uint8"
        }
      ],
      "name": "bookmarkIndex",
      "outputs": [
        {
          "internalType": "uint256",
          "name": "",
          "type": "uint256"
        }
      ],
      "stateMutability": "view",
      "type": "function"
    },
    {
      "inputs": [
        {
          "internalType": "string",
          "name": "",
          "type": "string"
        },
        {
          "internalType": "uint8",
          "name": "",
          "type": "uint8"
        },
        {
          "internalType": "uint256",
          "name": "",
          "type": "uint256"
        }
      ],
      "name": "bookmarkedBy",
      "outputs": [
        {
          "internalType": "address",
          "name": "",
          "type": "address"
        }
      ],
      "stateMutability": "view",
      "type": "function"
    },
    {
      "inputs": [],
      "name": "getBookmarkFee",
      "outputs": [
        {
          "internalType": "uint256",
          "name": "",
          "type": "uint256"
        }
      ],
      "stateMutability": "pure",
      "type": "function"
    },
    {
      "inputs": [
        {
          "internalType": "string",
          "name": "contentId",
          "type": "string"
        },
        {
          "internalType": "enum BookmarkContract.ContentType",
          "name": "contentType",
          "type": "uint8"
        }
      ],
      "name": "getContentBookmarkCount",
      "outputs": [
        {
          "internalType": "uint256",
          "name": "",
          "type": "uint256"
        }
      ],
      "stateMutability": "view",
      "type": "function"
    },
    {
      "inputs": [
        {
          "internalType": "string",
          "name": "contentId",
          "type": "string"
        },
        {
          "internalType": "enum BookmarkContract.ContentType",
          "name": "contentType",
          "type": "uint8"
        }
      ],
      "name": "getContentBookmarkers",
      "outputs": [
        {
          "internalType": "address[]",
          "name": "",
          "type": "address[]"
        }
      ],
      "stateMutability": "view",
      "type": "function"
    },
    {
      "inputs": [],
      "name": "getContractInfo",
      "outputs": [
        {
          "internalType": "address",
          "name": "profileContract",
          "type": "address"
        },
        {
          "internalType": "address",
          "name": "treasury",
          "type": "address"
        },
        {
          "internalType": "uint256",
          "name": "fee",
          "type": "uint256"
        }
      ],
      "stateMutability": "view",
      "type": "function"
    },
    {
      "inputs": [
        {
          "internalType": "address",
          "name": "user",
          "type": "address"
        }
      ],
      "name": "getUserBookmarkCount",
      "outputs": [
        {
          "internalType": "uint256",
          "name": "",
          "type": "uint256"
        }
      ],
      "stateMutability": "view",
      "type": "function"
    },
    {
      "inputs": [
        {
          "internalType": "address",
          "name": "user",
          "type": "address"
        }
      ],
      "name": "getUserBookmarks",
      "outputs": [
        {
          "components": [
            {
              "internalType": "string",
              "name": "contentId",
              "type": "string"
            },
            {
              "internalType": "enum BookmarkContract.ContentType",
              "name": "contentType",
              "type": "uint8"
            },
            {
              "internalType": "uint256",
              "name": "timestamp",
              "type": "uint256"
            },
            {
              "internalType": "bool",
              "name": "isActive",
              "type": "bool"
            }
          ],
          "internalType": "struct BookmarkContract.Bookmark[]",
          "name": "",
          "type": "tuple[]"
        }
      ],
      "stateMutability": "view",
      "type": "function"
    },
    {
      "inputs": [
        {
          "internalType": "address",
          "name": "user",
          "type": "address"
        },
        {
          "internalType": "enum BookmarkContract.ContentType",
          "name": "contentType",
          "type": "uint8"
        }
      ],
      "name": "getUserBookmarksByType",
      "outputs": [
        {
          "components": [
            {
              "internalType": "string",
              "name": "contentId",
              "type": "string"
            },
            {
              "internalType": "enum BookmarkContract.ContentType",
              "name": "contentType",
              "type": "uint8"
            },
            {
              "internalType": "uint256",
              "name": "timestamp",
              "type": "uint256"
            },
            {
              "internalType": "bool",
              "name": "isActive",
              "type": "bool"
            }
          ],
          "internalType": "struct BookmarkContract.Bookmark[]",
          "name": "",
          "type": "tuple[]"
        }
      ],
      "stateMutability": "view",
      "type": "function"
    },
    {
      "inputs": [
        {
          "internalType": "address",
          "name": "",
          "type": "address"
        },
        {
          "internalType": "string",
          "name": "",
          "type": "string"
        },
        {
          "internalType": "uint8",
          "name": "",
          "type": "uint8"
        }
      ],
      "name": "hasBookmarked",
      "outputs": [
        {
          "internalType": "bool",
          "name": "",
          "type": "bool"
        }
      ],
      "stateMutability": "view",
      "type": "function"
    },
    {
      "inputs": [
        {
          "internalType": "address",
          "name": "user",
          "type": "address"
        },
        {
          "internalType": "string",
          "name": "contentId",
          "type": "string"
        },
        {
          "internalType": "enum BookmarkContract.ContentType",
          "name": "contentType",
          "type": "uint8"
        }
      ],
      "name": "isBookmarked",
      "outputs": [
        {
          "internalType": "bool",
          "name": "",
          "type": "bool"
        }
      ],
      "stateMutability": "view",
      "type": "function"
    },
    {
      "inputs": [],
      "name": "profileNFT",
      "outputs": [
        {
          "internalType": "address",
          "name": "",
          "type": "address"
        }
      ],
      "stateMutability": "view",
      "type": "function"
    },
    {
      "inputs": [
        {
          "internalType": "string",
          "name": "contentId",
          "type": "string"
        },
        {
          "internalType": "enum BookmarkContract.ContentType",
          "name": "contentType",
          "type": "uint8"
        }
      ],
      "name": "removeBookmark",
      "outputs": [],
      "stateMutability": "payable",
      "type": "function"
    },
    {
      "inputs": [
        {
          "internalType": "string",
          "name": "",
          "type": "string"
        },
        {
          "internalType": "uint8",
          "name": "",
          "type": "uint8"
        }
      ],
      "name": "totalBookmarks",
      "outputs": [
        {
          "internalType": "uint256",
          "name": "",
          "type": "uint256"
        }
      ],
      "stateMutability": "view",
      "type": "function"
    },
    {
      "inputs": [],
      "name": "treasuryWallet",
      "outputs": [
        {
          "internalType": "address",
          "name": "",
          "type": "address"
        }
      ],
      "stateMutability": "view",
      "type": "function"
    },
    {
      "inputs": [
        {
          "internalType": "address",
          "name": "",
          "type": "address"
        },
        {
          "internalType": "uint256",
          "name": "",
          "type": "uint256"
        }
      ],
      "name": "userBookmarks",
      "outputs": [
        {
          "internalType": "string",
          "name": "contentId",
          "type": "string"
        },
        {
          "internalType": "enum BookmarkContract.ContentType",
          "name": "contentType",
          "type": "uint8"
        },
        {
          "internalType": "uint256",
          "name": "timestamp",
          "type": "uint256"
        },
        {
          "internalType": "bool",
          "name": "isActive",
          "type": "bool"
        }
      ],
      "stateMutability": "view",
      "type": "function"
    }
  ],
  "bytecode": "0x60c0346200015057601f62001b6d38819003918201601f19168301916001600160401b038311848410176200015557808492604094855283398101031262000150576200005a602062000052836200016b565b92016200016b565b906001600160a01b03808216156200010b57821615620000c65760805260a0526040516119ec9081620001818239608051818181610112015281816109a701528181610a650152610af3015260a0518181816101c701528181610a8901528181610ba7015261117f0152f35b60405162461bcd60e51b815260206004820152601860248201527f496e76616c6964207472656173757279206164647265737300000000000000006044820152606490fd5b60405162461bcd60e51b815260206004820152601a60248201527f496e76616c69642050726f66696c654e465420616464726573730000000000006044820152606490fd5b600080fd5b634e487b7160e01b600052604160045260246000fd5b51906001600160a01b0382168203620001505756fe6080604052600436101561001257600080fd5b60003560e01c806325a698f91461138a578063367b3f98146112b457806344b64517146111ae5780634626402b1461116957806361ceee54146110cd578063675c495d1461105757806373069d2c14610ee557806373ae9d0714610abd5780637cc1f86714610a455780637e82da9e146109f85780638592a62a146109d65780638c238833146109d6578063949675e91461099157806396398c0b146108f5578063a439d8aa146106ce578063f0e2cb6214610685578063f5ece017146106385763fefd80ce146100e257600080fd5b6100eb3661143b565b60405163a787c80b60e01b81523360048201529092906001600160a01b03906020816024817f000000000000000000000000000000000000000000000000000000000000000086165afa80156105ac5761014d91600091610609575b506117cc565b6002841015908161049157841580156105fb575b61016a9061180e565b610175841515611851565b66038d7ea4c680009161018a8334101561189d565b3360005260026020526101a2604060002086866118dc565b906104915760ff861660005260205260ff604060002054166105c157600080808481947f00000000000000000000000000000000000000000000000000000000000000001682f1156105ac576040518181527f4725c66fd1de2ed786f4413bc1e120ee55ec77599b11dfc5c0c063ea926b389d60203392a23411610584575b60405161022d816114e3565b61023836848461161c565b815261024784602083016118f5565b4260408201526001606082015233600052600060205260406000208054600160401b8110156104655761027f91600182018155611477565b91909161056e57805180519067ffffffffffffffff82116104655781906102a685546114a9565b601f811161051e575b50602090601f83116001146104b2576000926104a7575b50508160011b916000199060031b1c19161782555b6020810151916001810160028410156104915760609160039160ff199560ff8783541691161790556040840151600282015501910151151560ff838354169116179055336000526000602052604060002054600019810190811161047b57336000526001602052610351604060002085856118dc565b60ff8616600052602052604060002055336000526002602052610379604060002084846118dc565b60ff8516600052602052600160406000209182541617905560405182828237602081848101600381520301902060ff841660005260205260406000206103bf815461190e565b905560405182828237602081848101600481520301902060ff84166000526020526040600020805490600160401b82101561046557816104079160016104259401815561179c565b81546001600160a01b0360039290921b91821b19163390911b179055565b8160405192839283378101600081520390206040514281527f7cd2530bacdcc5fe130b31f7dac7aafe343ddc95dda18d94b88777d1f672a25260203392a4005b634e487b7160e01b600052604160045260246000fd5b634e487b7160e01b600052601160045260246000fd5b634e487b7160e01b600052602160045260246000fd5b0151905038806102c6565b9250846000526020600020906000935b601f1984168510610503576001945083601f198116106104ea575b505050811b0182556102db565b015160001960f88460031b161c191690553880806104dd565b818101518355602094850194600190930192909101906104c2565b909150846000526020600020601f840160051c810160208510610567575b90849392915b601f830160051c820181106105585750506102af565b60008155859450600101610542565b508061053c565b634e487b7160e01b600052600060045260246000fd5b66038d7ea4c67fff19340134811161047b576000808080938181156105b8575b3390f1610221575b6040513d6000823e3d90fd5b506108fc6105a4565b60405162461bcd60e51b8152602060048201526012602482015271105b1c9958591e48189bdbdadb585c9ad95960721b6044820152606490fd5b506000915060018514610161565b61062b915060203d602011610631575b61062381836114ff565b8101906117b4565b38610147565b503d610619565b346106805761066860ff61064b3661174b565b939160018060a01b03166000526001602052604060002090611691565b91166000526020526020604060002054604051908152f35b600080fd5b346106805760206106953661143b565b929091826040519384928337810160038152030190209060028110156104915760ff166000526020526020604060002054604051908152f35b34610680576040366003190112610680576106e76113f7565b6024908135906002908183101590816106805760018060a01b031660005260209260008452604060002091825461071d8161191d565b9361072b60405195866114ff565b8185526000908152868120878087015b84841061089f57505050505060009360005b84518110156107d55760606107628287611935565b510151151580610795575b610780575b61077b9061190e565b61074d565b9461078d61077b9161190e565b959050610772565b50826107ac886107a58489611935565b5101611901565b906107c057828110156107c057841461076d565b88634e487b7160e01b60005260216004526000fd5b50928691926107e48796611949565b9360009360005b845181101561088d5760606108008287611935565b510151151580610854575b61081e575b6108199061190e565b6107eb565b9461084c610819916108308888611935565b5161083b828b611935565b52610846818a611935565b5061190e565b959050610810565b50826108648a6107a58489611935565b90610878578881101561087857841461080b565b82634e487b7160e01b60005260216004526000fd5b6040518061089b89826116b7565b0390f35b6001916004916040516108b1816114e3565b6108ba86611521565b815260ff6108cf8187890154168584016118f5565b8c870154604083015260038701541615156060820152815201920192019190889061073b565b346106805760603660031901126106805760043567ffffffffffffffff811161068057610926903690600401611663565b61092e611681565b60ff61094c60206044359481604051938285809451938492016115c7565b81016004815203019020911660005260205260406000208054821015610680576020916109789161179c565b905460405160039290921b1c6001600160a01b03168152f35b34610680576000366003190112610680576040517f00000000000000000000000000000000000000000000000000000000000000006001600160a01b03168152602090f35b3461068057600036600319011261068057602060405166038d7ea4c680008152f35b3461068057610a2860ff610a0b3661174b565b939160018060a01b03166000526002602052604060002090611691565b9116600052602052602060ff604060002054166040519015158152f35b3461068057600036600319011261068057606060405160018060a01b03807f00000000000000000000000000000000000000000000000000000000000000001682527f000000000000000000000000000000000000000000000000000000000000000016602082015266038d7ea4c680006040820152f35b610ac63661143b565b60405163a787c80b60e01b815233600482015290926001600160a01b0392602092909190602490848183817f00000000000000000000000000000000000000000000000000000000000000008a165afa80156105ac57610b2d91600091610ec857506117cc565b60028610159081610eb45786158015610ea6575b610b4a9061180e565b610b55841515611851565b66038d7ea4c68000610b698134101561189d565b3360005260028652610b80604060002086866118dc565b92610e915760ff88169283600052865260ff6040600020541615610e5c576000808080848b7f00000000000000000000000000000000000000000000000000000000000000001682f1156105ac576040518181527f4725c66fd1de2ed786f4413bc1e120ee55ec77599b11dfc5c0c063ea926b389d873392a23411610e0b575b33600052600195868652610c19604060002086866118dc565b836000528652610c3a60406000205433600052600088526040600020611477565b5092600380940160ff19908181541690553360005260028852610c62604060002088886118dc565b8260005288526040600020908154169055604051868682378781888101878152030190208160005287526040600020908154918215610df65760001992830190556040518787823788818981016004815203019020906000528752604060002092886000905b610d11575b8a898989816040519283928337810160008152039020907fc623d7cd7778d5e0e742a06656deed5c8b72dc169485faf4dfdbe83ad7a42cfc604051914283523392a4005b845480821015610df05784610d26838861179c565b905490891b1c163314610d435750610d3d9061190e565b89610cc8565b909192809495969798999a508101908111610ddb5790610d7885610d6a610d97948961179c565b9054908a1b1c16918761179c565b90919082549060031b9160018060a01b03809116831b921b1916179055565b8354908115610dc757500192610dad848461179c565b81939154921b1b1916905555908291858080808080610ccd565b634e487b7160e01b60009081526031600452fd5b82634e487b7160e01b60005260116004526000fd5b50610ccd565b84634e487b7160e01b60005260116004526000fd5b66038d7ea4c67fff193401348111610e4757600080808093818115610e3e575b3390f1610c00576040513d6000823e3d90fd5b506108fc610e2b565b50634e487b7160e01b60009081526011600452fd5b60405162461bcd60e51b815260048101879052600e818401526d139bdd08189bdbdadb585c9ad95960921b6044820152606490fd5b50634e487b7160e01b60009081526021600452fd5b506000915060018714610b41565b634e487b7160e01b60009081526021600452fd5b610edf9150863d88116106315761062381836114ff565b88610147565b3461068057602080600319360112610680576001600160a01b03610f076113f7565b16600052600081526040600020805490610f208261191d565b92610f2e60405194856114ff565b82845260009182528082208185015b84841061100257856000805b8251811015610f89576060610f5e8285611935565b510151610f74575b610f6f9061190e565b610f49565b90610f81610f6f9161190e565b919050610f66565b50610f9390611949565b60009060005b8351811015610ff4576060610fae8286611935565b510151610fc4575b610fbf9061190e565b610f99565b91610fec610fbf91610fd68587611935565b51610fe18286611935565b526108468185611935565b929050610fb6565b6040518061089b84826116b7565b600483600192604051611014816114e3565b61101d86611521565b815260ff6110328187890154168584016118f5565b6002870154604083015260038701541615156060820152815201920193019290610f3d565b346106805760403660031901126106805760043567ffffffffffffffff811161068057611088903690600401611663565b60ff6110ab6020611097611681565b9381604051938285809451938492016115c7565b8101600381520301902091166000526020526020604060002054604051908152f35b34610680576040366003190112610680576110e66113f7565b6024359060018060a01b03166000526000602052604060002080548210156106805761114e9161111591611477565b5061111f81611521565b9060ff6001820154169060ff6003600283015492015416906111596040519586956080875260808701906115ea565b93602086019061160f565b6040840152151560608301520390f35b34610680576000366003190112610680576040517f00000000000000000000000000000000000000000000000000000000000000006001600160a01b03168152602090f35b3461068057602080600319360112610680576001600160a01b036111d06113f7565b166000526000815260406000209081546111e98161191d565b926111f760405194856114ff565b8184526000908152828120838086015b84841061125d5786826000805b83518110156112545760606112298286611935565b51015161123f575b61123a9061190e565b611214565b9061124c61123a9161190e565b919050611231565b50604051908152f35b60019160049160405161126f816114e3565b61127886611521565b815260ff61128d8187890154168584016118f5565b60028701546040830152600387015416151560608201528152019201920191908490611207565b34610680576112c23661143b565b90918260405193849283378101600481526020938491030190209060028110156104915760ff166000528152604060002060405190818382549182815201908192600052846000209060005b8682821061136d578686611324828803836114ff565b604051928392818401908285525180915260408401929160005b82811061134d57505050500390f35b83516001600160a01b03168552869550938101939281019260010161133e565b83546001600160a01b03168552909301926001928301920161130e565b34610680576060366003190112610680576113a36113f7565b60243567ffffffffffffffff8111610680576113c390369060040161140d565b9091604435926002841015610680576001600160a01b03909116600090815260026020526040902060ff92610a28926118dc565b600435906001600160a01b038216820361068057565b9181601f840112156106805782359167ffffffffffffffff8311610680576020838186019501011161068057565b6040600319820112610680576004359067ffffffffffffffff8211610680576114669160040161140d565b909160243560028110156106805790565b80548210156114935760005260206000209060021b0190600090565b634e487b7160e01b600052603260045260246000fd5b90600182811c921680156114d9575b60208310146114c357565b634e487b7160e01b600052602260045260246000fd5b91607f16916114b8565b6080810190811067ffffffffffffffff82111761046557604052565b90601f8019910116810190811067ffffffffffffffff82111761046557604052565b9060405191826000825492611535846114a9565b9081845260019485811690816000146115a45750600114611561575b505061155f925003836114ff565b565b9093915060005260209081600020936000915b81831061158c57505061155f93508201013880611551565b85548884018501529485019487945091830191611574565b91505061155f94506020925060ff191682840152151560051b8201013880611551565b60005b8381106115da5750506000910152565b81810151838201526020016115ca565b90602091611603815180928185528580860191016115c7565b601f01601f1916010190565b9060028210156104915752565b92919267ffffffffffffffff82116104655760405191611646601f8201601f1916602001846114ff565b829481845281830111610680578281602093846000960137010152565b9080601f830112156106805781602061167e9335910161161c565b90565b6024359060ff8216820361068057565b6020906116ab9282604051948386809551938492016115c7565b82019081520301902090565b602080820190808352835180925260409283810182858560051b8401019601946000925b8584106116ec575050505050505090565b909192939495968580600192603f198582030187528a5190611716825160808084528301906115ea565b91611727848201518584019061160f565b878101518883015260608091015115159101529901940194019295949391906116db565b906060600319830112610680576004356001600160a01b038116810361068057916024359067ffffffffffffffff82116106805761178b91600401611663565b9060443560ff811681036106805790565b80548210156114935760005260206000200190600090565b90816020910312610680575180151581036106805790565b156117d357565b60405162461bcd60e51b81526020600482015260136024820152724d757374206861766520612070726f66696c6560681b6044820152606490fd5b1561181557565b60405162461bcd60e51b8152602060048201526014602482015273496e76616c696420636f6e74656e74207479706560601b6044820152606490fd5b1561185857565b60405162461bcd60e51b815260206004820152601a60248201527f436f6e74656e742049442063616e6e6f7420626520656d7074790000000000006044820152606490fd5b156118a457565b60405162461bcd60e51b815260206004820152601060248201526f496e73756666696369656e742066656560801b6044820152606490fd5b6020919283604051948593843782019081520301902090565b60028210156104915752565b5160028110156104915790565b600019811461047b5760010190565b67ffffffffffffffff81116104655760051b60200190565b80518210156114935760209160051b010190565b906119538261191d565b604090611962825191826114ff565b8381528093611973601f199161191d565b0191600091825b848110611988575050505050565b6020908351611996816114e3565b60608082528684918183850152818885015283015282850101520161197a56fea26469706673582212208ee872a6d9021044559fce51e548cea23088ebbc3ca7618203f5cf93144db45a64736f6c63430008140033",
  "linkReferences": {},
  "deployedLinkReferences": {}
}