{
  "_format": "hh-sol-artifact-1",
  "contractName": "PublisherProfile",
  "sourceName": "contracts/PublisherProfile.sol",
  "abi": [
    {
      "inputs": [
        {
          "internalType": "address",
          "name": "initialOwner",
          "type": "address"
        },
        {
          "internalType": "string",
          "name": "username",
          "type": "string"
        },
        {
          "internalType": "string",
          "name": "bio",
          "type": "string"
        },
        {
          "internalType": "uint256",
          "name": "publisherId",
          "type": "uint256"
        }
      ],
      "stateMutability": "nonpayable",
      "type": "constructor"
    },
    {
      "anonymous": false,
      "inputs": [
        {
          "indexed": true,
          "internalType": "address",
          "name": "previousOwner",
          "type": "address"
        },
        {
          "indexed": true,
          "internalType": "address",
          "name": "newOwner",
          "type": "address"
        }
      ],
      "name": "OwnershipTransferred",
      "type": "event"
    },
    {
      "anonymous": false,
      "inputs": [
        {
          "indexed": true,
          "internalType": "address",
          "name": "publisher",
          "type": "address"
        },
        {
          "indexed": false,
          "internalType": "string",
          "name": "username",
          "type": "string"
        }
      ],
      "name": "ProfileUpdated",
      "type": "event"
    },
    {
      "anonymous": false,
      "inputs": [
        {
          "indexed": true,
          "internalType": "address",
          "name": "publisher",
          "type": "address"
        },
        {
          "indexed": false,
          "internalType": "uint256",
          "name": "amount",
          "type": "uint256"
        }
      ],
      "name": "TipsWithdrawn",
      "type": "event"
    },
    {
      "inputs": [],
      "name": "getProfile",
      "outputs": [
        {
          "components": [
            {
              "internalType": "string",
              "name": "username",
              "type": "string"
            },
            {
              "internalType": "string",
              "name": "bio",
              "type": "string"
            },
            {
              "internalType": "string",
              "name": "avatarHash",
              "type": "string"
            },
            {
              "internalType": "string",
              "name": "socialLinks",
              "type": "string"
            },
            {
              "internalType": "uint256",
              "name": "createdAt",
              "type": "uint256"
            },
            {
              "internalType": "uint256",
              "name": "lastUpdated",
              "type": "uint256"
            },
            {
              "internalType": "uint256",
              "name": "publisherId",
              "type": "uint256"
            }
          ],
          "internalType": "struct PublisherProfile.ProfileData",
          "name": "",
          "type": "tuple"
        }
      ],
      "stateMutability": "view",
      "type": "function"
    },
    {
      "inputs": [],
      "name": "getTipsBalance",
      "outputs": [
        {
          "internalType": "uint256",
          "name": "",
          "type": "uint256"
        }
      ],
      "stateMutability": "view",
      "type": "function"
    },
    {
      "inputs": [],
      "name": "owner",
      "outputs": [
        {
          "internalType": "address",
          "name": "",
          "type": "address"
        }
      ],
      "stateMutability": "view",
      "type": "function"
    },
    {
      "inputs": [],
      "name": "profile",
      "outputs": [
        {
          "internalType": "string",
          "name": "username",
          "type": "string"
        },
        {
          "internalType": "string",
          "name": "bio",
          "type": "string"
        },
        {
          "internalType": "string",
          "name": "avatarHash",
          "type": "string"
        },
        {
          "internalType": "string",
          "name": "socialLinks",
          "type": "string"
        },
        {
          "internalType": "uint256",
          "name": "createdAt",
          "type": "uint256"
        },
        {
          "internalType": "uint256",
          "name": "lastUpdated",
          "type": "uint256"
        },
        {
          "internalType": "uint256",
          "name": "publisherId",
          "type": "uint256"
        }
      ],
      "stateMutability": "view",
      "type": "function"
    },
    {
      "inputs": [],
      "name": "renounceOwnership",
      "outputs": [],
      "stateMutability": "nonpayable",
      "type": "function"
    },
    {
      "inputs": [
        {
          "internalType": "address",
          "name": "newOwner",
          "type": "address"
        }
      ],
      "name": "transferOwnership",
      "outputs": [],
      "stateMutability": "nonpayable",
      "type": "function"
    },
    {
      "inputs": [
        {
          "internalType": "string",
          "name": "_username",
          "type": "string"
        },
        {
          "internalType": "string",
          "name": "_bio",
          "type": "string"
        },
        {
          "internalType": "string",
          "name": "_avatarHash",
          "type": "string"
        },
        {
          "internalType": "string",
          "name": "_socialLinks",
          "type": "string"
        }
      ],
      "name": "updateProfile",
      "outputs": [],
      "stateMutability": "nonpayable",
      "type": "function"
    },
    {
      "inputs": [],
      "name": "withdrawTips",
      "outputs": [
        {
          "internalType": "bool",
          "name": "",
          "type": "bool"
        }
      ],
      "stateMutability": "nonpayable",
      "type": "function"
    },
    {
      "stateMutability": "payable",
      "type": "receive"
    }
  ],
  "bytecode": "0x60806040523480156200001157600080fd5b5060405162001223380380620012238339810160408190526200003491620001e2565b6200003f33620000c5565b6200004a84620000c5565b600162000058848262000303565b50600262000067838262000303565b5042600581905560065560078190556040516001600160a01b038516907fdd635a4cd84864e37e4479dbfc2ec667acfa473c83c8422a8ac9d9d07599b01c90620000b3908690620003cf565b60405180910390a25050505062000404565b600080546001600160a01b038381166001600160a01b0319831681178455604051919092169283917f8be0079c531659141344cd1fd0a4f28419497f9722a3daafe3b4186f6b6457e09190a35050565b634e487b7160e01b600052604160045260246000fd5b60005b83811015620001485781810151838201526020016200012e565b50506000910152565b600082601f8301126200016357600080fd5b81516001600160401b038082111562000180576200018062000115565b604051601f8301601f19908116603f01168101908282118183101715620001ab57620001ab62000115565b81604052838152866020858801011115620001c557600080fd5b620001d88460208301602089016200012b565b9695505050505050565b60008060008060808587031215620001f957600080fd5b84516001600160a01b03811681146200021157600080fd5b60208601519094506001600160401b03808211156200022f57600080fd5b6200023d8883890162000151565b945060408701519150808211156200025457600080fd5b50620002638782880162000151565b606096909601519497939650505050565b600181811c908216806200028957607f821691505b602082108103620002aa57634e487b7160e01b600052602260045260246000fd5b50919050565b601f821115620002fe57600081815260208120601f850160051c81016020861015620002d95750805b601f850160051c820191505b81811015620002fa57828155600101620002e5565b5050505b505050565b81516001600160401b038111156200031f576200031f62000115565b620003378162000330845462000274565b84620002b0565b602080601f8311600181146200036f5760008415620003565750858301515b600019600386901b1c1916600185901b178555620002fa565b600085815260208120601f198616915b82811015620003a0578886015182559484019460019091019084016200037f565b5085821015620003bf5787850151600019600388901b60f8161c191681555b5050505050600190811b01905550565b6020815260008251806020840152620003f08160408501602087016200012b565b601f01601f19169190910160400192915050565b610e0f80620004146000396000f3fe60806040526004361061007f5760003560e01c8063ab60636c1161004e578063ab60636c14610114578063d6afc9b11461013c578063e1e42fa01461015e578063f2fde38b1461017957600080fd5b80633aaa74b21461008b578063715018a6146100b55780638da5cb5b146100cc5780639483f25c146100f457600080fd5b3661008657005b600080fd5b34801561009757600080fd5b506100a0610199565b60405190151581526020015b60405180910390f35b3480156100c157600080fd5b506100ca6102da565b005b3480156100d857600080fd5b506000546040516001600160a01b0390911681526020016100ac565b34801561010057600080fd5b506100ca61010f366004610a4c565b6102ee565b34801561012057600080fd5b50610129610380565b6040516100ac9796959493929190610b3f565b34801561014857600080fd5b506101516105ce565b6040516100ac9190610bac565b34801561016a57600080fd5b506040514781526020016100ac565b34801561018557600080fd5b506100ca610194366004610c4d565b610886565b60006101a36108ff565b47806101ec5760405162461bcd60e51b81526020600482015260136024820152724e6f207469707320746f20776974686472617760681b60448201526064015b60405180910390fd5b600080546040516001600160a01b039091169083908381818185875af1925050503d8060008114610239576040519150601f19603f3d011682016040523d82523d6000602084013e61023e565b606091505b50509050806102835760405162461bcd60e51b815260206004820152601160248201527015da5d1a191c985dd85b0819985a5b1959607a1b60448201526064016101e3565b6000546001600160a01b03166001600160a01b03167fdbcc78aa7a73614521d0f2e855bccce29cc98fe3d4cd706eb865205cb09a4306836040516102c991815260200190565b60405180910390a260019250505090565b6102e26108ff565b6102ec6000610959565b565b6102f66108ff565b60016103028582610d06565b50600261030f8482610d06565b50600361031c8382610d06565b5060046103298282610d06565b50426006556000546001600160a01b03166001600160a01b03167fdd635a4cd84864e37e4479dbfc2ec667acfa473c83c8422a8ac9d9d07599b01c856040516103729190610dc6565b60405180910390a250505050565b60018054819061038f90610c7d565b80601f01602080910402602001604051908101604052809291908181526020018280546103bb90610c7d565b80156104085780601f106103dd57610100808354040283529160200191610408565b820191906000526020600020905b8154815290600101906020018083116103eb57829003601f168201915b50505050509080600101805461041d90610c7d565b80601f016020809104026020016040519081016040528092919081815260200182805461044990610c7d565b80156104965780601f1061046b57610100808354040283529160200191610496565b820191906000526020600020905b81548152906001019060200180831161047957829003601f168201915b5050505050908060020180546104ab90610c7d565b80601f01602080910402602001604051908101604052809291908181526020018280546104d790610c7d565b80156105245780601f106104f957610100808354040283529160200191610524565b820191906000526020600020905b81548152906001019060200180831161050757829003601f168201915b50505050509080600301805461053990610c7d565b80601f016020809104026020016040519081016040528092919081815260200182805461056590610c7d565b80156105b25780601f10610587576101008083540402835291602001916105b2565b820191906000526020600020905b81548152906001019060200180831161059557829003601f168201915b5050505050908060040154908060050154908060060154905087565b61060e6040518060e00160405280606081526020016060815260200160608152602001606081526020016000815260200160008152602001600081525090565b60016040518060e001604052908160008201805461062b90610c7d565b80601f016020809104026020016040519081016040528092919081815260200182805461065790610c7d565b80156106a45780601f10610679576101008083540402835291602001916106a4565b820191906000526020600020905b81548152906001019060200180831161068757829003601f168201915b505050505081526020016001820180546106bd90610c7d565b80601f01602080910402602001604051908101604052809291908181526020018280546106e990610c7d565b80156107365780601f1061070b57610100808354040283529160200191610736565b820191906000526020600020905b81548152906001019060200180831161071957829003601f168201915b5050505050815260200160028201805461074f90610c7d565b80601f016020809104026020016040519081016040528092919081815260200182805461077b90610c7d565b80156107c85780601f1061079d576101008083540402835291602001916107c8565b820191906000526020600020905b8154815290600101906020018083116107ab57829003601f168201915b505050505081526020016003820180546107e190610c7d565b80601f016020809104026020016040519081016040528092919081815260200182805461080d90610c7d565b801561085a5780601f1061082f5761010080835404028352916020019161085a565b820191906000526020600020905b81548152906001019060200180831161083d57829003601f168201915b505050505081526020016004820154815260200160058201548152602001600682015481525050905090565b61088e6108ff565b6001600160a01b0381166108f35760405162461bcd60e51b815260206004820152602660248201527f4f776e61626c653a206e6577206f776e657220697320746865207a65726f206160448201526564647265737360d01b60648201526084016101e3565b6108fc81610959565b50565b6000546001600160a01b031633146102ec5760405162461bcd60e51b815260206004820181905260248201527f4f776e61626c653a2063616c6c6572206973206e6f7420746865206f776e657260448201526064016101e3565b600080546001600160a01b038381166001600160a01b0319831681178455604051919092169283917f8be0079c531659141344cd1fd0a4f28419497f9722a3daafe3b4186f6b6457e09190a35050565b634e487b7160e01b600052604160045260246000fd5b600082601f8301126109d057600080fd5b813567ffffffffffffffff808211156109eb576109eb6109a9565b604051601f8301601f19908116603f01168101908282118183101715610a1357610a136109a9565b81604052838152866020858801011115610a2c57600080fd5b836020870160208301376000602085830101528094505050505092915050565b60008060008060808587031215610a6257600080fd5b843567ffffffffffffffff80821115610a7a57600080fd5b610a86888389016109bf565b95506020870135915080821115610a9c57600080fd5b610aa8888389016109bf565b94506040870135915080821115610abe57600080fd5b610aca888389016109bf565b93506060870135915080821115610ae057600080fd5b50610aed878288016109bf565b91505092959194509250565b6000815180845260005b81811015610b1f57602081850181015186830182015201610b03565b506000602082860101526020601f19601f83011685010191505092915050565b60e081526000610b5260e083018a610af9565b8281036020840152610b64818a610af9565b90508281036040840152610b788189610af9565b90508281036060840152610b8c8188610af9565b6080840196909652505060a081019290925260c090910152949350505050565b602081526000825160e06020840152610bc9610100840182610af9565b90506020840151601f1980858403016040860152610be78383610af9565b92506040860151915080858403016060860152610c048383610af9565b9250606086015191508085840301608086015250610c228282610af9565b915050608084015160a084015260a084015160c084015260c084015160e08401528091505092915050565b600060208284031215610c5f57600080fd5b81356001600160a01b0381168114610c7657600080fd5b9392505050565b600181811c90821680610c9157607f821691505b602082108103610cb157634e487b7160e01b600052602260045260246000fd5b50919050565b601f821115610d0157600081815260208120601f850160051c81016020861015610cde5750805b601f850160051c820191505b81811015610cfd57828155600101610cea565b5050505b505050565b815167ffffffffffffffff811115610d2057610d206109a9565b610d3481610d2e8454610c7d565b84610cb7565b602080601f831160018114610d695760008415610d515750858301515b600019600386901b1c1916600185901b178555610cfd565b600085815260208120601f198616915b82811015610d9857888601518255948401946001909101908401610d79565b5085821015610db65787850151600019600388901b60f8161c191681555b5050505050600190811b01905550565b602081526000610c766020830184610af956fea26469706673582212207b06ac7fbcebd384d5a0c2fcf731571f6cb01509956d24dcfa53f54f98bb96f164736f6c63430008140033",
  "linkReferences": {},
  "deployedLinkReferences": {}
}