{
  "_format": "hh-sol-artifact-1",
  "contractName": "PublisherRegistry",
  "sourceName": "contracts/PublisherRegistry.sol",
  "abi": [
    {
      "inputs": [
        {
          "internalType": "address",
          "name": "initialOwner",
          "type": "address"
        }
      ],
      "stateMutability": "nonpayable",
      "type": "constructor"
    },
    {
      "anonymous": false,
      "inputs": [
        {
          "indexed": true,
          "internalType": "address",
          "name": "previousOwner",
          "type": "address"
        },
        {
          "indexed": true,
          "internalType": "address",
          "name": "newOwner",
          "type": "address"
        }
      ],
      "name": "OwnershipTransferred",
      "type": "event"
    },
    {
      "anonymous": false,
      "inputs": [
        {
          "indexed": true,
          "internalType": "address",
          "name": "publisher",
          "type": "address"
        }
      ],
      "name": "PublisherAuthorized",
      "type": "event"
    },
    {
      "anonymous": false,
      "inputs": [
        {
          "indexed": true,
          "internalType": "string",
          "name": "username",
          "type": "string"
        },
        {
          "indexed": false,
          "internalType": "address",
          "name": "profileContract",
          "type": "address"
        },
        {
          "indexed": false,
          "internalType": "address",
          "name": "publisher",
          "type": "address"
        },
        {
          "indexed": false,
          "internalType": "uint256",
          "name": "publisherId",
          "type": "uint256"
        }
      ],
      "name": "PublisherRegistered",
      "type": "event"
    },
    {
      "anonymous": false,
      "inputs": [
        {
          "indexed": true,
          "internalType": "string",
          "name": "username",
          "type": "string"
        },
        {
          "indexed": false,
          "internalType": "address",
          "name": "profileContract",
          "type": "address"
        }
      ],
      "name": "PublisherRemoved",
      "type": "event"
    },
    {
      "anonymous": false,
      "inputs": [
        {
          "indexed": true,
          "internalType": "address",
          "name": "publisher",
          "type": "address"
        }
      ],
      "name": "PublisherRevoked",
      "type": "event"
    },
    {
      "inputs": [
        {
          "internalType": "address",
          "name": "publisher",
          "type": "address"
        }
      ],
      "name": "authorizePublisher",
      "outputs": [],
      "stateMutability": "nonpayable",
      "type": "function"
    },
    {
      "inputs": [],
      "name": "getAllUsernames",
      "outputs": [
        {
          "internalType": "string[]",
          "name": "",
          "type": "string[]"
        }
      ],
      "stateMutability": "view",
      "type": "function"
    },
    {
      "inputs": [],
      "name": "getCurrentPublisherId",
      "outputs": [
        {
          "internalType": "uint256",
          "name": "",
          "type": "uint256"
        }
      ],
      "stateMutability": "view",
      "type": "function"
    },
    {
      "inputs": [],
      "name": "getNextPublisherId",
      "outputs": [
        {
          "internalType": "uint256",
          "name": "",
          "type": "uint256"
        }
      ],
      "stateMutability": "view",
      "type": "function"
    },
    {
      "inputs": [],
      "name": "getPublisherCount",
      "outputs": [
        {
          "internalType": "uint256",
          "name": "",
          "type": "uint256"
        }
      ],
      "stateMutability": "view",
      "type": "function"
    },
    {
      "inputs": [
        {
          "internalType": "address",
          "name": "profileContract",
          "type": "address"
        }
      ],
      "name": "getPublisherId",
      "outputs": [
        {
          "internalType": "uint256",
          "name": "",
          "type": "uint256"
        }
      ],
      "stateMutability": "view",
      "type": "function"
    },
    {
      "inputs": [
        {
          "internalType": "string",
          "name": "username",
          "type": "string"
        }
      ],
      "name": "getPublisherProfile",
      "outputs": [
        {
          "internalType": "address",
          "name": "",
          "type": "address"
        }
      ],
      "stateMutability": "view",
      "type": "function"
    },
    {
      "inputs": [
        {
          "internalType": "address",
          "name": "profileContract",
          "type": "address"
        }
      ],
      "name": "getPublisherUsername",
      "outputs": [
        {
          "internalType": "string",
          "name": "",
          "type": "string"
        }
      ],
      "stateMutability": "view",
      "type": "function"
    },
    {
      "inputs": [
        {
          "internalType": "address",
          "name": "publisher",
          "type": "address"
        }
      ],
      "name": "isAuthorizedPublisher",
      "outputs": [
        {
          "internalType": "bool",
          "name": "",
          "type": "bool"
        }
      ],
      "stateMutability": "view",
      "type": "function"
    },
    {
      "inputs": [],
      "name": "owner",
      "outputs": [
        {
          "internalType": "address",
          "name": "",
          "type": "address"
        }
      ],
      "stateMutability": "view",
      "type": "function"
    },
    {
      "inputs": [
        {
          "internalType": "string",
          "name": "username",
          "type": "string"
        },
        {
          "internalType": "address",
          "name": "profileContract",
          "type": "address"
        }
      ],
      "name": "registerPublisher",
      "outputs": [],
      "stateMutability": "nonpayable",
      "type": "function"
    },
    {
      "inputs": [
        {
          "internalType": "string",
          "name": "username",
          "type": "string"
        }
      ],
      "name": "removePublisher",
      "outputs": [],
      "stateMutability": "nonpayable",
      "type": "function"
    },
    {
      "inputs": [],
      "name": "renounceOwnership",
      "outputs": [],
      "stateMutability": "nonpayable",
      "type": "function"
    },
    {
      "inputs": [
        {
          "internalType": "address",
          "name": "publisher",
          "type": "address"
        }
      ],
      "name": "revokePublisher",
      "outputs": [],
      "stateMutability": "nonpayable",
      "type": "function"
    },
    {
      "inputs": [
        {
          "internalType": "address",
          "name": "newOwner",
          "type": "address"
        }
      ],
      "name": "transferOwnership",
      "outputs": [],
      "stateMutability": "nonpayable",
      "type": "function"
    }
  ],
  "bytecode": "0x6080604052600060065534801561001557600080fd5b5060405161139a38038061139a833981016040819052610034916100e5565b61003d33610095565b61004681610095565b6001600160a01b038116600081815260056020526040808220805460ff19166001179055517fa0de74b78322d2ea97546c726c7580acda24a6919331f2a70ccc6ca48b9b5c8a9190a250610115565b600080546001600160a01b038381166001600160a01b0319831681178455604051919092169283917f8be0079c531659141344cd1fd0a4f28419497f9722a3daafe3b4186f6b6457e09190a35050565b6000602082840312156100f757600080fd5b81516001600160a01b038116811461010e57600080fd5b9392505050565b611276806101246000396000f3fe608060405234801561001057600080fd5b50600436106100f55760003560e01c8063a0470a6e11610097578063e33c100111610066578063e33c1001146101d5578063e8b348a0146101e8578063eaab2ab814610224578063f2fde38b1461023757600080fd5b8063a0470a6e1461019f578063a80efec3146101a7578063c781c1a8146101ba578063d29632b1146101cd57600080fd5b806353620375116100d3578063536203751461014a578063715018a61461015f5780638da5cb5b146101675780638f5b2b211461018c57600080fd5b80631cfefdcd146100fa57806336d0cf42146101235780633bb63db714610135575b600080fd5b61010d610108366004610b77565b61024a565b60405161011a9190610be9565b60405180910390f35b6004545b60405190815260200161011a565b610148610143366004610b77565b6102f6565b005b61015261034a565b60405161011a9190610bfc565b610148610423565b6000546001600160a01b03165b6040516001600160a01b03909116815260200161011a565b61014861019a366004610b77565b610437565b600654610127565b6101486101b5366004610d4c565b610488565b6101276101c8366004610b77565b6106a8565b610127610739565b6101746101e3366004610d4c565b61074f565b6102146101f6366004610b77565b6001600160a01b031660009081526005602052604090205460ff1690565b604051901515815260200161011a565b610148610232366004610d89565b610780565b610148610245366004610b77565b6109ea565b6001600160a01b038116600090815260026020526040902080546060919061027190610dd7565b80601f016020809104026020016040519081016040528092919081815260200182805461029d90610dd7565b80156102ea5780601f106102bf576101008083540402835291602001916102ea565b820191906000526020600020905b8154815290600101906020018083116102cd57829003601f168201915b50505050509050919050565b6102fe610a63565b6001600160a01b038116600081815260056020526040808220805460ff19166001179055517fa0de74b78322d2ea97546c726c7580acda24a6919331f2a70ccc6ca48b9b5c8a9190a250565b60606004805480602002602001604051908101604052809291908181526020016000905b8282101561041a57838290600052602060002001805461038d90610dd7565b80601f01602080910402602001604051908101604052809291908181526020018280546103b990610dd7565b80156104065780601f106103db57610100808354040283529160200191610406565b820191906000526020600020905b8154815290600101906020018083116103e957829003601f168201915b50505050508152602001906001019061036e565b50505050905090565b61042b610a63565b6104356000610abd565b565b61043f610a63565b6001600160a01b038116600081815260056020526040808220805460ff19169055517f8591c806c51bb1950fcd2fe84423c1ad01b03662e3c900dc21b213fd482de7c09190a250565b610490610a63565b60006001826040516104a29190610e11565b908152604051908190036020019020546001600160a01b03169050806105055760405162461bcd60e51b8152602060048201526013602482015272141d589b1a5cda195c881b9bdd08199bdd5b99606a1b60448201526064015b60405180910390fd5b6001600160a01b038116600090815260026020526040812061052691610b0d565b6001826040516105369190610e11565b908152604080516020928190038301902080546001600160a01b03191690556001600160a01b0383166000908152600390925281208190555b6004548110156106525782805190602001206004828154811061059457610594610e2d565b906000526020600020016040516105ab9190610e43565b60405180910390200361064057600480546105c890600190610ecf565b815481106105d8576105d8610e2d565b90600052602060002001600482815481106105f5576105f5610e2d565b90600052602060002001908161060b9190610f37565b50600480548061061d5761061d611018565b6001900381819060005260206000200160006106399190610b0d565b9055610652565b8061064a8161102e565b91505061056f565b50816040516106619190610e11565b6040519081900381206001600160a01b0383168252907f065ac62007affcdec9cb0d1e7d5fc65e6d0fca47900f23c29b66110bfb8500629060200160405180910390a25050565b6001600160a01b038116600090815260026020526040812080548291906106ce90610dd7565b90501161071d5760405162461bcd60e51b815260206004820152601860248201527f5075626c6973686572206e6f742072656769737465726564000000000000000060448201526064016104fc565b506001600160a01b031660009081526003602052604090205490565b6000600160065461074a9190610ecf565b905090565b60006001826040516107619190610e11565b908152604051908190036020019020546001600160a01b031692915050565b60006001600160a01b031660018360405161079b9190610e11565b908152604051908190036020019020546001600160a01b0316146108015760405162461bcd60e51b815260206004820152601b60248201527f557365726e616d6520616c72656164792072656769737465726564000000000060448201526064016104fc565b60008190506000816001600160a01b031663d6afc9b16040518163ffffffff1660e01b8152600401600060405180830381865afa158015610846573d6000803e3d6000fd5b505050506040513d6000823e601f3d908101601f1916820160405261086e919081019061108c565b90508380519060200120816000015180519060200120146108c55760405162461bcd60e51b81526020600482015260116024820152700aae6cae4dcc2daca40dad2e6dac2e8c6d607b1b60448201526064016104fc565b6006805490819060006108d78361102e565b9190505550836001866040516108ed9190610e11565b908152604080516020928190038301902080546001600160a01b0319166001600160a01b0394851617905591861660009081526002909152206109308682611186565b506001600160a01b03841660009081526003602052604081208290556004805460018101825591527f8a35acfbc15ff81a39ae7d344fd709f28e8600b4aa8c65c6b64bfe7fe36bd19b016109848682611186565b50846040516109939190610e11565b604080519182900382206001600160a01b0387168352336020840152908201839052907fc413d334cbc35aeb7bccec5274feee0f2660ef6ba718b599505340ec5c2128cf9060600160405180910390a25050505050565b6109f2610a63565b6001600160a01b038116610a575760405162461bcd60e51b815260206004820152602660248201527f4f776e61626c653a206e6577206f776e657220697320746865207a65726f206160448201526564647265737360d01b60648201526084016104fc565b610a6081610abd565b50565b6000546001600160a01b031633146104355760405162461bcd60e51b815260206004820181905260248201527f4f776e61626c653a2063616c6c6572206973206e6f7420746865206f776e657260448201526064016104fc565b600080546001600160a01b038381166001600160a01b0319831681178455604051919092169283917f8be0079c531659141344cd1fd0a4f28419497f9722a3daafe3b4186f6b6457e09190a35050565b508054610b1990610dd7565b6000825580601f10610b29575050565b601f016020900490600052602060002090810190610a6091905b80821115610b575760008155600101610b43565b5090565b80356001600160a01b0381168114610b7257600080fd5b919050565b600060208284031215610b8957600080fd5b610b9282610b5b565b9392505050565b60005b83811015610bb4578181015183820152602001610b9c565b50506000910152565b60008151808452610bd5816020860160208601610b99565b601f01601f19169290920160200192915050565b602081526000610b926020830184610bbd565b6000602080830181845280855180835260408601915060408160051b870101925083870160005b82811015610c5157603f19888603018452610c3f858351610bbd565b94509285019290850190600101610c23565b5092979650505050505050565b634e487b7160e01b600052604160045260246000fd5b60405160e0810167ffffffffffffffff81118282101715610c9757610c97610c5e565b60405290565b604051601f8201601f1916810167ffffffffffffffff81118282101715610cc657610cc6610c5e565b604052919050565b600067ffffffffffffffff821115610ce857610ce8610c5e565b50601f01601f191660200190565b600082601f830112610d0757600080fd5b8135610d1a610d1582610cce565b610c9d565b818152846020838601011115610d2f57600080fd5b816020850160208301376000918101602001919091529392505050565b600060208284031215610d5e57600080fd5b813567ffffffffffffffff811115610d7557600080fd5b610d8184828501610cf6565b949350505050565b60008060408385031215610d9c57600080fd5b823567ffffffffffffffff811115610db357600080fd5b610dbf85828601610cf6565b925050610dce60208401610b5b565b90509250929050565b600181811c90821680610deb57607f821691505b602082108103610e0b57634e487b7160e01b600052602260045260246000fd5b50919050565b60008251610e23818460208701610b99565b9190910192915050565b634e487b7160e01b600052603260045260246000fd5b6000808354610e5181610dd7565b60018281168015610e695760018114610e7e57610ead565b60ff1984168752821515830287019450610ead565b8760005260208060002060005b85811015610ea45781548a820152908401908201610e8b565b50505082870194505b50929695505050505050565b634e487b7160e01b600052601160045260246000fd5b81810381811115610ee257610ee2610eb9565b92915050565b601f821115610f3257600081815260208120601f850160051c81016020861015610f0f5750805b601f850160051c820191505b81811015610f2e57828155600101610f1b565b5050505b505050565b818103610f42575050565b610f4c8254610dd7565b67ffffffffffffffff811115610f6457610f64610c5e565b610f7881610f728454610dd7565b84610ee8565b6000601f821160018114610fac5760008315610f945750848201545b600019600385901b1c1916600184901b178455611011565b600085815260209020601f19841690600086815260209020845b83811015610fe65782860154825560019586019590910190602001610fc6565b50858310156110045781850154600019600388901b60f8161c191681555b50505060018360011b0184555b5050505050565b634e487b7160e01b600052603160045260246000fd5b60006001820161104057611040610eb9565b5060010190565b600082601f83011261105857600080fd5b8151611066610d1582610cce565b81815284602083860101111561107b57600080fd5b610d81826020830160208701610b99565b60006020828403121561109e57600080fd5b815167ffffffffffffffff808211156110b657600080fd5b9083019060e082860312156110ca57600080fd5b6110d2610c74565b8251828111156110e157600080fd5b6110ed87828601611047565b82525060208301518281111561110257600080fd5b61110e87828601611047565b60208301525060408301518281111561112657600080fd5b61113287828601611047565b60408301525060608301518281111561114a57600080fd5b61115687828601611047565b6060830152506080830151608082015260a083015160a082015260c083015160c082015280935050505092915050565b815167ffffffffffffffff8111156111a0576111a0610c5e565b6111ae81610f728454610dd7565b602080601f8311600181146111e357600084156111cb5750858301515b600019600386901b1c1916600185901b178555610f2e565b600085815260208120601f198616915b82811015611212578886015182559484019460019091019084016111f3565b50858210156112305787850151600019600388901b60f8161c191681555b5050505050600190811b0190555056fea264697066735822122086af43c05a22726f1285d1486d2a80ffb82a2674b4f9a0e2502783f7ce84c53564736f6c63430008140033",
  "linkReferences": {},
  "deployedLinkReferences": {}
}