{
  "_format": "hh-sol-artifact-1",
  "contractName": "CommunityArticles",
  "sourceName": "contracts/content/CommunityArticles.sol",
  "abi": [
    {
      "inputs": [
        {
          "internalType": "address",
          "name": "_membershipTokenContract",
          "type": "address"
        },
        {
          "internalType": "address",
          "name": "_treasuryWallet",
          "type": "address"
        }
      ],
      "stateMutability": "nonpayable",
      "type": "constructor"
    },
    {
      "inputs": [
        {
          "internalType": "address",
          "name": "owner",
          "type": "address"
        }
      ],
      "name": "OwnableInvalidOwner",
      "type": "error"
    },
    {
      "inputs": [
        {
          "internalType": "address",
          "name": "account",
          "type": "address"
        }
      ],
      "name": "OwnableUnauthorizedAccount",
      "type": "error"
    },
    {
      "inputs": [],
      "name": "ReentrancyGuardReentrantCall",
      "type": "error"
    },
    {
      "anonymous": false,
      "inputs": [
        {
          "indexed": true,
          "internalType": "uint256",
          "name": "articleId",
          "type": "uint256"
        },
        {
          "indexed": true,
          "internalType": "address",
          "name": "author",
          "type": "address"
        },
        {
          "indexed": true,
          "internalType": "string",
          "name": "category",
          "type": "string"
        },
        {
          "indexed": false,
          "internalType": "string",
          "name": "title",
          "type": "string"
        },
        {
          "indexed": false,
          "internalType": "string",
          "name": "contentUrl",
          "type": "string"
        },
        {
          "indexed": false,
          "internalType": "uint256",
          "name": "timestamp",
          "type": "uint256"
        }
      ],
      "name": "CommunityArticleCreated",
      "type": "event"
    },
    {
      "anonymous": false,
      "inputs": [
        {
          "indexed": true,
          "internalType": "address",
          "name": "previousOwner",
          "type": "address"
        },
        {
          "indexed": true,
          "internalType": "address",
          "name": "newOwner",
          "type": "address"
        }
      ],
      "name": "OwnershipTransferred",
      "type": "event"
    },
    {
      "anonymous": false,
      "inputs": [
        {
          "indexed": true,
          "internalType": "address",
          "name": "payer",
          "type": "address"
        },
        {
          "indexed": false,
          "internalType": "uint256",
          "name": "amount",
          "type": "uint256"
        },
        {
          "indexed": false,
          "internalType": "uint256",
          "name": "articleId",
          "type": "uint256"
        }
      ],
      "name": "TreasuryFeePaid",
      "type": "event"
    },
    {
      "inputs": [],
      "name": "COMMUNITY_ARTICLE_FEE",
      "outputs": [
        {
          "internalType": "uint256",
          "name": "",
          "type": "uint256"
        }
      ],
      "stateMutability": "view",
      "type": "function"
    },
    {
      "inputs": [],
      "name": "MAX_POSTS_PER_DAY",
      "outputs": [
        {
          "internalType": "uint256",
          "name": "",
          "type": "uint256"
        }
      ],
      "stateMutability": "view",
      "type": "function"
    },
    {
      "inputs": [],
      "name": "MEMBERSHIP_TOKEN_CONTRACT",
      "outputs": [
        {
          "internalType": "address",
          "name": "",
          "type": "address"
        }
      ],
      "stateMutability": "view",
      "type": "function"
    },
    {
      "inputs": [],
      "name": "SECONDS_PER_DAY",
      "outputs": [
        {
          "internalType": "uint256",
          "name": "",
          "type": "uint256"
        }
      ],
      "stateMutability": "view",
      "type": "function"
    },
    {
      "inputs": [],
      "name": "TREASURY_WALLET",
      "outputs": [
        {
          "internalType": "address",
          "name": "",
          "type": "address"
        }
      ],
      "stateMutability": "view",
      "type": "function"
    },
    {
      "inputs": [
        {
          "internalType": "uint256",
          "name": "",
          "type": "uint256"
        }
      ],
      "name": "articles",
      "outputs": [
        {
          "internalType": "uint256",
          "name": "id",
          "type": "uint256"
        },
        {
          "internalType": "string",
          "name": "title",
          "type": "string"
        },
        {
          "internalType": "string",
          "name": "description",
          "type": "string"
        },
        {
          "internalType": "string",
          "name": "contentUrl",
          "type": "string"
        },
        {
          "internalType": "string",
          "name": "category",
          "type": "string"
        },
        {
          "internalType": "string",
          "name": "location",
          "type": "string"
        },
        {
          "internalType": "string",
          "name": "originalAuthor",
          "type": "string"
        },
        {
          "internalType": "string",
          "name": "sourceDomain",
          "type": "string"
        },
        {
          "internalType": "address",
          "name": "author",
          "type": "address"
        },
        {
          "internalType": "uint256",
          "name": "timestamp",
          "type": "uint256"
        },
        {
          "internalType": "bool",
          "name": "isActive",
          "type": "bool"
        }
      ],
      "stateMutability": "view",
      "type": "function"
    },
    {
      "inputs": [
        {
          "internalType": "address",
          "name": "",
          "type": "address"
        },
        {
          "internalType": "uint256",
          "name": "",
          "type": "uint256"
        }
      ],
      "name": "authorArticles",
      "outputs": [
        {
          "internalType": "uint256",
          "name": "",
          "type": "uint256"
        }
      ],
      "stateMutability": "view",
      "type": "function"
    },
    {
      "inputs": [
        {
          "internalType": "address",
          "name": "",
          "type": "address"
        },
        {
          "internalType": "string",
          "name": "",
          "type": "string"
        }
      ],
      "name": "authorUrlPosted",
      "outputs": [
        {
          "internalType": "bool",
          "name": "",
          "type": "bool"
        }
      ],
      "stateMutability": "view",
      "type": "function"
    },
    {
      "inputs": [
        {
          "internalType": "address",
          "name": "_user",
          "type": "address"
        }
      ],
      "name": "canUserPost",
      "outputs": [
        {
          "internalType": "bool",
          "name": "",
          "type": "bool"
        }
      ],
      "stateMutability": "view",
      "type": "function"
    },
    {
      "inputs": [
        {
          "components": [
            {
              "internalType": "string",
              "name": "title",
              "type": "string"
            },
            {
              "internalType": "string",
              "name": "description",
              "type": "string"
            },
            {
              "internalType": "string",
              "name": "contentUrl",
              "type": "string"
            },
            {
              "internalType": "string",
              "name": "category",
              "type": "string"
            },
            {
              "internalType": "string",
              "name": "location",
              "type": "string"
            },
            {
              "internalType": "string[]",
              "name": "tags",
              "type": "string[]"
            },
            {
              "internalType": "string",
              "name": "originalAuthor",
              "type": "string"
            },
            {
              "internalType": "string",
              "name": "sourceDomain",
              "type": "string"
            }
          ],
          "internalType": "struct CommunityArticles.ArticleInput",
          "name": "input",
          "type": "tuple"
        }
      ],
      "name": "createCommunityArticle",
      "outputs": [],
      "stateMutability": "payable",
      "type": "function"
    },
    {
      "inputs": [
        {
          "internalType": "address",
          "name": "",
          "type": "address"
        }
      ],
      "name": "dailyPosts",
      "outputs": [
        {
          "internalType": "uint256",
          "name": "lastPostDay",
          "type": "uint256"
        },
        {
          "internalType": "uint256",
          "name": "postsToday",
          "type": "uint256"
        }
      ],
      "stateMutability": "view",
      "type": "function"
    },
    {
      "inputs": [
        {
          "internalType": "uint256",
          "name": "_articleId",
          "type": "uint256"
        }
      ],
      "name": "deactivateArticle",
      "outputs": [],
      "stateMutability": "nonpayable",
      "type": "function"
    },
    {
      "inputs": [],
      "name": "emergencyWithdraw",
      "outputs": [],
      "stateMutability": "nonpayable",
      "type": "function"
    },
    {
      "inputs": [
        {
          "internalType": "uint256",
          "name": "_articleId",
          "type": "uint256"
        }
      ],
      "name": "getArticle",
      "outputs": [
        {
          "components": [
            {
              "internalType": "uint256",
              "name": "id",
              "type": "uint256"
            },
            {
              "internalType": "string",
              "name": "title",
              "type": "string"
            },
            {
              "internalType": "string",
              "name": "description",
              "type": "string"
            },
            {
              "internalType": "string",
              "name": "contentUrl",
              "type": "string"
            },
            {
              "internalType": "string",
              "name": "category",
              "type": "string"
            },
            {
              "internalType": "string",
              "name": "location",
              "type": "string"
            },
            {
              "internalType": "string[]",
              "name": "tags",
              "type": "string[]"
            },
            {
              "internalType": "string",
              "name": "originalAuthor",
              "type": "string"
            },
            {
              "internalType": "string",
              "name": "sourceDomain",
              "type": "string"
            },
            {
              "internalType": "address",
              "name": "author",
              "type": "address"
            },
            {
              "internalType": "uint256",
              "name": "timestamp",
              "type": "uint256"
            },
            {
              "internalType": "bool",
              "name": "isActive",
              "type": "bool"
            }
          ],
          "internalType": "struct CommunityArticles.CommunityArticle",
          "name": "",
          "type": "tuple"
        }
      ],
      "stateMutability": "view",
      "type": "function"
    },
    {
      "inputs": [
        {
          "internalType": "address",
          "name": "_author",
          "type": "address"
        }
      ],
      "name": "getArticlesByAuthor",
      "outputs": [
        {
          "internalType": "uint256[]",
          "name": "",
          "type": "uint256[]"
        }
      ],
      "stateMutability": "view",
      "type": "function"
    },
    {
      "inputs": [],
      "name": "getContractInfo",
      "outputs": [
        {
          "internalType": "address",
          "name": "membershipContract",
          "type": "address"
        },
        {
          "internalType": "address",
          "name": "treasury",
          "type": "address"
        },
        {
          "internalType": "uint256",
          "name": "fee",
          "type": "uint256"
        },
        {
          "internalType": "uint256",
          "name": "totalArticleCount",
          "type": "uint256"
        }
      ],
      "stateMutability": "view",
      "type": "function"
    },
    {
      "inputs": [
        {
          "internalType": "address",
          "name": "_user",
          "type": "address"
        }
      ],
      "name": "getUserPostingStats",
      "outputs": [
        {
          "internalType": "uint256",
          "name": "totalPosts",
          "type": "uint256"
        },
        {
          "internalType": "uint256",
          "name": "postsToday",
          "type": "uint256"
        },
        {
          "internalType": "uint256",
          "name": "remainingToday",
          "type": "uint256"
        }
      ],
      "stateMutability": "view",
      "type": "function"
    },
    {
      "inputs": [],
      "name": "nextArticleId",
      "outputs": [
        {
          "internalType": "uint256",
          "name": "",
          "type": "uint256"
        }
      ],
      "stateMutability": "view",
      "type": "function"
    },
    {
      "inputs": [],
      "name": "owner",
      "outputs": [
        {
          "internalType": "address",
          "name": "",
          "type": "address"
        }
      ],
      "stateMutability": "view",
      "type": "function"
    },
    {
      "inputs": [],
      "name": "renounceOwnership",
      "outputs": [],
      "stateMutability": "nonpayable",
      "type": "function"
    },
    {
      "inputs": [],
      "name": "totalArticles",
      "outputs": [
        {
          "internalType": "uint256",
          "name": "",
          "type": "uint256"
        }
      ],
      "stateMutability": "view",
      "type": "function"
    },
    {
      "inputs": [
        {
          "internalType": "address",
          "name": "newOwner",
          "type": "address"
        }
      ],
      "name": "transferOwnership",
      "outputs": [],
      "stateMutability": "nonpayable",
      "type": "function"
    }
  ],
  "bytecode": "0x60c0346200011a57601f6200235438819003918201601f19168301916001600160401b038311848410176200011f5780849260409485528339810103126200011a576200005a6020620000528362000135565b920162000135565b60016000553315620001015760018054336001600160a01b0319821681179092556040519391906001600160a01b03167f8be0079c531659141344cd1fd0a4f28419497f9722a3daafe3b4186f6b6457e0600080a36001600655600060075560805260a05261220990816200014b8239608051818181610881015281816109af01528181611bb10152612115015260a0518181816108a5015281816110ec0152611b500152f35b604051631e4fbdf760e01b815260006004820152602490fd5b600080fd5b634e487b7160e01b600052604160045260246000fd5b51906001600160a01b03821682036200011a5756fe60a0604052600436101561001257600080fd5b60003560e01c80630c90062b14611ced578063101a3cc414611c945780631521ba3f14611be05780631fc04b6414611b9b57806323163cdb14611b7f5780635daf314614611b3a5780636c446f0d14610959578063715018a6146108fc57806374f0314f146108de5780637cc1f8671461085d57806380baee8a1461081a57806385c3ab54146107fc57806387e90cb6146107da5780638da5cb5b146107b1578063a61af29d14610784578063bd85d86714610486578063bef2e1ee14610468578063db2e21bc146103e6578063e24731461461032a578063e8663004146102d6578063edcfafe6146101a15763f2fde38b1461010e57600080fd5b3461019c57602036600319011261019c57610127611d6b565b61012f611f9f565b6001600160a01b0390811690811561018357600154826bffffffffffffffffffffffff60a01b821617600155167f8be0079c531659141344cd1fd0a4f28419497f9722a3daafe3b4186f6b6457e0600080a3005b604051631e4fbdf760e01b815260006004820152602490fd5b600080fd5b3461019c57602036600319011261019c57600435600052600260205260406000208054600182016101d190611ef9565b916101de60028201611ef9565b6101ea60038301611ef9565b916101f760048201611ef9565b61020360058301611ef9565b61020f60078401611ef9565b9061021c60088501611ef9565b92600160a01b6001900360098601541696600a86015495600b015460ff16966040519a8b9a8b526101608060208d01528b0161025791611e9a565b8a810360408c015261026891611e9a565b89810360608b015261027991611e9a565b88810360808a015261028a91611e9a565b87810360a089015261029b91611e9a565b86810360c08801526102ac91611e9a565b85810360e08701526102bd91611e9a565b9261010085015261012084015215156101408301520390f35b3461019c57602036600319011261019c576004356102f2611f9f565b8015158061031f575b610304906120a4565b6000908152600260205260409020600b01805460ff19169055005b5060065481106102fb565b3461019c57602036600319011261019c57610343611d6b565b60018060a01b0316600052600360205260406000205460056020526020604060002060405161037181611d81565b600182549283835201549283910152620151804204146000146103dd57905b601482106103b1576060916000905b60405192835260208301526040820152f35b8160140391601483116103c7576060929061039f565b634e487b7160e01b600052601160045260246000fd5b50600090610390565b3461019c57600036600319011261019c576103ff611f9f565b600080808060018060a01b036001541647905af161041b612053565b501561042357005b60405162461bcd60e51b815260206004820152601b60248201527f456d657267656e6379207769746864726177616c206661696c656400000000006044820152606490fd5b3461019c57600036600319011261019c576020600754604051908152f35b3461019c57602036600319011261019c5760043560006101606040516104ab81611d9c565b828152606060208201526060604082015260608082015260606080820152606060a0820152606060c0820152606060e082015260606101008201528261012082015282610140820152015280151580610779575b610508906120a4565b600052600260205260406000206040519061052282611d9c565b8054825261053260018201611ef9565b602083015261054360028201611ef9565b604083015261055460038201611ef9565b606083015261056560048201611ef9565b608083015261057660058201611ef9565b60a083015260068101805461058a81612025565b916105986040519384611db8565b818352602083019060005260206000206000915b83831061075c578660ff600b888860c08501526105cb60078201611ef9565b60e08501526105dc60088201611ef9565b61010085015260018060a01b03600982015416610120850152600a81015461014085015201541615156101608201526040516020815281516020820152610634602083015161018060408401526101a0830190611e9a565b9161069661068261066e61065a604085015196601f199788888303016060890152611e9a565b606085015187878303016080880152611e9a565b6080840151868683030160a0870152611e9a565b60a0830151858583030160c0860152611e9a565b60c082015190848482030160e0850152815180825260208201916020808360051b8301019401926000915b838310610731578780886101606107028d6106eb8c60e08601518388830301610100890152611e9a565b906101008501519086830301610120870152611e9a565b6101208301516001600160a01b0316610140858101919091528301518285015291015115156101808301520390f35b909192939460208061074d838c86600196030187528951611e9a565b970193019301919392906106c1565b60016020819261076b85611ef9565b8152019201920191906105ac565b5060065481106104ff565b3461019c57602036600319011261019c5760206107a76107a2611d6b565b6120e5565b6040519015158152f35b3461019c57600036600319011261019c576001546040516001600160a01b039091168152602090f35b3461019c57600036600319011261019c576020604051661ff973cafa80008152f35b3461019c57600036600319011261019c576020600654604051908152f35b3461019c57602036600319011261019c576001600160a01b0361083b611d6b565b1660005260056020526040806000206001815491015482519182526020820152f35b3461019c57600036600319011261019c5760806007546040519060018060a01b03807f00000000000000000000000000000000000000000000000000000000000000001683527f0000000000000000000000000000000000000000000000000000000000000000166020830152661ff973cafa800060408301526060820152f35b3461019c57600036600319011261019c576020604051620151808152f35b3461019c57600036600319011261019c57610915611f9f565b600180546001600160a01b031981169091556000906001600160a01b03167f8be0079c531659141344cd1fd0a4f28419497f9722a3daafe3b4186f6b6457e08280a3005b60031960203682011261019c576001600160401b036004351161019c57610100906004353603011261019c57600260005414611b285760026000556040516370a0823160e01b81523360048201526020816024817f00000000000000000000000000000000000000000000000000000000000000006001600160a01b03165afa908115611b1c57600091611aea575b5015611aa557661ff973cafa80003410611a6d57610a0a600480350180611fcb565b905015611a3757610a25602460043501600435600401611fcb565b9050156119fb57610a40604460043501600435600401611fcb565b9050156119bf5760c8610a5d602460043501600435600401611fcb565b9050116119835733600052600560205260206040600020604051610a8081611d81565b60018254928383520154928391015262015180420414611930575b5033600052600460205260ff610ac96040600020610ac3604460043501600435600401611fcb565b90611ffd565b54166118f657600654610adb81612016565b600655610aec600480350180611fcb565b610b03602460049493943501600435600401611fcb565b9390610b19604460043501600435600401611fcb565b90610b2e606460043501600435600401611fcb565b610b42608460043501600435600401611fcb565b93909460221960043536030160a46004350135121561019c576001600160401b036004803560a48101350101351161019c576004803560a4810135019081013560051b360360249091011361019c57610ba36004803560c481019101611fcb565b97909b60043560e40160043560040190610bbc91611fcb565b9a909b60405180608052610bcf90611d9c565b8d608051523690610bdf92611df4565b608051602001523690610bf192611df4565b608051604001523690610c0392611df4565b608051606001523690610c1592611df4565b608051608001523690610c2792611df4565b60805160a0015260043560a401356004350160040135610c4690612025565b60405190610c549082611db8565b6004803560a4810135019081013580835260208301913660059290921b016024011161019c5760043560a481013501602401905b6004803560a4810135019081013560051b0160240182106118bd57505094610cbd91610ccb959660c060805101523691611df4565b60e060805101523691611df4565b61010060805101523361012060805101524261014060805101526001610160608051015280600052600260205260406000209060206080518051845501519182516001600160401b03811161124d57610d276001830154611ebf565b601f8111611888575b506020601f821160011461181a578192939460009261180f575b50508160011b916000199060031b1c19161760018201555b604060805101519182516001600160401b03811161124d57610d876002840154611ebf565b601f81116117da575b506020601f821160011461176c5781929394600092611761575b50508160011b916000199060031b1c19161760028301555b606060805101519182516001600160401b03811161124d57610de76003830154611ebf565b601f811161172c575b506020601f82116001146116be57819293946000926116b3575b50508160011b916000199060031b1c19161760038201555b6080805101519182516001600160401b03811161124d57610e466004840154611ebf565b601f811161167e575b506020601f82116001146116105781929394600092611605575b50508160011b916000199060031b1c19161760048301555b60a060805101519182516001600160401b03811161124d57610ea66005830154611ebf565b601f81116115d0575b506020601f82116001146115625781929394600092611557575b50508160011b916000199060031b1c19161760058201555b60c06080510151805190600160401b821161124d5760068301548260068501558083106114df575b5060200190600683016000526020600020916000905b8282106113ca57858560e060805101519182516001600160401b03811161124d57610f4d6007840154611ebf565b601f8111611395575b506020601f8211600114611327578192939460009261131c575b50508160011b916000199060031b1c19161760078301555b61010060805101519182516001600160401b03811161124d57610fae6008830154611ebf565b601f81116112dc575b506020601f821160011461126e5781929394600092611263575b50508160011b916000199060031b1c19161760088201555b610160600b60098301926080519360018060a01b03610120860151166bffffffffffffffffffffffff60a01b825416179055610140840151600a82015501910151151560ff8019835416911617905533600052600360205260406000208054600160401b81101561124d5761106391600182018155611e6c565b81549060031b9083821b91600019901b191617905533600052600460205261109d6040600020610ac3604460043501600435600401611fcb565b600160ff198254161790556110b3600754612016565b6007553360005260056020526001604060002062015180420481541460001461123d57016110e18154612016565b90555b6000808080347f00000000000000000000000000000000000000000000000000000000000000005af1611115612053565b50156111f8576040513481528160208201527f398dd7ce3501a739dd0c9bb85d5c00456f92eac30baf6681145cd2b5a27216da60403392a2611161606460043501600435600401611fcb565b917f8f9ea643454b3d83c4457a51e94e4ab4c8b8fe32905b26b5173dc982da4edeb06111e4611194600480350180611fcb565b9490956111d66111ae604460043501600435600401611fcb565b9290938160405192839283378101600081520390209760405197606089526060890191612083565b918683036020880152612083565b924260408201528033940390a46001600055005b60405162461bcd60e51b815260206004820152601860248201527f5472656173757279207472616e73666572206661696c656400000000000000006044820152606490fd5b62015180420481558101556110e4565b634e487b7160e01b600052604160045260246000fd5b015190508480610fd1565b6008830160005260206000209060005b601f19841681106112c45750600193949583601f198116106112ab575b505050811b016008820155610fe9565b015160001960f88460031b161c1916905584808061129b565b9091602060018192858a01518155019301910161127e565b61130c90600884016000526020600020601f840160051c81019160208510611312575b601f0160051c019061203c565b84610fb7565b90915081906112ff565b015190508480610f70565b6007840160005260206000209060005b601f198416811061137d5750600193949583601f19811610611364575b505050811b016007830155610f88565b015160001960f88460031b161c19169055848080611354565b9091602060018192858a015181550193019101611337565b6113c490600785016000526020600020601f840160051c8101916020851061131257601f0160051c019061203c565b84610f56565b80518051906001600160401b03821161124d576113e78654611ebf565b601f81116114ad575b50602090601f831160011461143d579282600194936020938695600092611432575b5050600019600383901b1c191690841b1787555b01940191019092610f1f565b015190508b80611412565b908660005260206000209160005b601f1985168110611495575083602093600196938796938794601f1981161061147c575b505050811b018755611426565b015160001960f88460031b161c191690558b808061146f565b9192602060018192868501518155019401920161144b565b6114d990876000526020600020601f850160051c8101916020861061131257601f0160051c019061203c565b886113f0565b600684016000526020600020908382015b8183018110611500575050610f09565b8061150d60019254611ebf565b8061151a575b50016114f0565b601f811183146115305750600081555b88611513565b60009082825261154e601f60208420920160051c820185830161203c565b8183555561152a565b015190508480610ec9565b6005830160005260206000209060005b601f19841681106115b85750600193949583601f1981161061159f575b505050811b016005820155610ee1565b015160001960f88460031b161c1916905584808061158f565b9091602060018192858a015181550193019101611572565b6115ff90600584016000526020600020601f840160051c8101916020851061131257601f0160051c019061203c565b84610eaf565b015190508480610e69565b6004840160005260206000209060005b601f19841681106116665750600193949583601f1981161061164d575b505050811b016004830155610e81565b015160001960f88460031b161c1916905584808061163d565b9091602060018192858a015181550193019101611620565b6116ad90600485016000526020600020601f840160051c8101916020851061131257601f0160051c019061203c565b84610e4f565b015190508480610e0a565b6003830160005260206000209060005b601f19841681106117145750600193949583601f198116106116fb575b505050811b016003820155610e22565b015160001960f88460031b161c191690558480806116eb565b9091602060018192858a0151815501930191016116ce565b61175b90600384016000526020600020601f840160051c8101916020851061131257601f0160051c019061203c565b84610df0565b015190508480610daa565b6002840160005260206000209060005b601f19841681106117c25750600193949583601f198116106117a9575b505050811b016002830155610dc2565b015160001960f88460031b161c19169055848080611799565b9091602060018192858a01518155019301910161177c565b61180990600285016000526020600020601f840160051c8101916020851061131257601f0160051c019061203c565b84610d90565b015190508480610d4a565b6001830160005260206000209060005b601f19841681106118705750600193949583601f19811610611857575b505050811b016001820155610d62565b015160001960f88460031b161c19169055848080611847565b9091602060018192858a01518155019301910161182a565b6118b790600184016000526020600020601f840160051c8101916020851061131257601f0160051c019061203c565b84610d30565b81356001600160401b03811161019c576020916118eb83926024369160a46004350135600435010101611e2b565b815201910190610c88565b60405162461bcd60e51b815260206004820152601260248201527115549308185b1c9958591e481c1bdcdd195960721b6044820152606490fd5b6014111561193e5780610a9b565b60405162461bcd60e51b815260206004820152601860248201527f4461696c7920706f7374206c696d6974207265616368656400000000000000006044820152606490fd5b60405162461bcd60e51b81526020600482015260146024820152734465736372697074696f6e20746f6f206c6f6e6760601b6044820152606490fd5b60405162461bcd60e51b815260206004820152601460248201527310dbdb9d195b9d08155493081c995c5d5a5c995960621b6044820152606490fd5b60405162461bcd60e51b815260206004820152601460248201527311195cd8dc9a5c1d1a5bdb881c995c5d5a5c995960621b6044820152606490fd5b60405162461bcd60e51b815260206004820152600e60248201526d151a5d1b19481c995c5d5a5c995960921b6044820152606490fd5b60405162461bcd60e51b815260206004820152601060248201526f496e73756666696369656e742066656560801b6044820152606490fd5b60405162461bcd60e51b815260206004820152601960248201527f4d656d6265727368697020746f6b656e207265717569726564000000000000006044820152606490fd5b90506020813d602011611b14575b81611b0560209383611db8565b8101031261019c5751816109e8565b3d9150611af8565b6040513d6000823e3d90fd5b604051633ee5aeb560e01b8152600490fd5b3461019c57600036600319011261019c576040517f00000000000000000000000000000000000000000000000000000000000000006001600160a01b03168152602090f35b3461019c57600036600319011261019c57602060405160148152f35b3461019c57600036600319011261019c576040517f00000000000000000000000000000000000000000000000000000000000000006001600160a01b03168152602090f35b3461019c5760208060031936011261019c576001600160a01b03611c02611d6b565b1660005260038152604060002060405190818382549182815201908192600052846000209060005b86828210611c80578686611c4082880383611db8565b604051928392818401908285525180915260408401929160005b828110611c6957505050500390f35b835185528695509381019392810192600101611c5a565b835485529093019260019283019201611c2a565b3461019c57604036600319011261019c57611cad611d6b565b6001600160a01b031660009081526003602052604090208054602435919082101561019c57602091611cde91611e6c565b90549060031b1c604051908152f35b3461019c57604036600319011261019c57611d06611d6b565b6024356001600160401b03811161019c57611d5660208093611d2e60ff943690600401611e2b565b9060018060a01b03166000526004825260406000208260405194838680955193849201611e49565b82019081520301902054166040519015158152f35b600435906001600160a01b038216820361019c57565b604081019081106001600160401b0382111761124d57604052565b61018081019081106001600160401b0382111761124d57604052565b90601f801991011681019081106001600160401b0382111761124d57604052565b6001600160401b03811161124d57601f01601f191660200190565b929192611e0082611dd9565b91611e0e6040519384611db8565b82948184528183011161019c578281602093846000960137010152565b9080601f8301121561019c57816020611e4693359101611df4565b90565b60005b838110611e5c5750506000910152565b8181015183820152602001611e4c565b8054821015611e845760005260206000200190600090565b634e487b7160e01b600052603260045260246000fd5b90602091611eb381518092818552858086019101611e49565b601f01601f1916010190565b90600182811c92168015611eef575b6020831014611ed957565b634e487b7160e01b600052602260045260246000fd5b91607f1691611ece565b9060405191826000825492611f0d84611ebf565b908184526001948581169081600014611f7c5750600114611f39575b5050611f3792500383611db8565b565b9093915060005260209081600020936000915b818310611f64575050611f3793508201013880611f29565b85548884018501529485019487945091830191611f4c565b915050611f3794506020925060ff191682840152151560051b8201013880611f29565b6001546001600160a01b03163303611fb357565b60405163118cdaa760e01b8152336004820152602490fd5b903590601e198136030182121561019c57018035906001600160401b03821161019c5760200191813603831361019c57565b6020919283604051948593843782019081520301902090565b60001981146103c75760010190565b6001600160401b03811161124d5760051b60200190565b818110612047575050565b6000815560010161203c565b3d1561207e573d9061206482611dd9565b916120726040519384611db8565b82523d6000602084013e565b606090565b908060209392818452848401376000828201840152601f01601f1916010190565b156120ab57565b60405162461bcd60e51b8152602060048201526012602482015271125b9d985b1a5908185c9d1a58db1948125160721b6044820152606490fd5b6040516370a0823160e01b81526001600160a01b03918216600482018190526020929091908390829060249082907f0000000000000000000000000000000000000000000000000000000000000000165afa908115611b1c576000916121a3575b501561219c5760005260058152604060002060405161216481611d81565b600182549283835201549283910152620151804204149081612190575b5061218b57600190565b600090565b60149150101538612181565b5050600090565b908382813d83116121cc575b6121b98183611db8565b810103126121c957505138612146565b80fd5b503d6121af56fea2646970667358221220cd30fe260c54e331dcfb7d8306765930847519aff59f305c7164adb5f9322bff64736f6c63430008140033",
  "linkReferences": {},
  "deployedLinkReferences": {}
}