{
  "_format": "hh-sol-artifact-1",
  "contractName": "PublisherCredentials",
  "sourceName": "contracts/solidity/PublisherCredentials.sol",
  "abi": [
    {
      "inputs": [],
      "stateMutability": "nonpayable",
      "type": "constructor"
    },
    {
      "inputs": [
        {
          "internalType": "address",
          "name": "sender",
          "type": "address"
        },
        {
          "internalType": "uint256",
          "name": "tokenId",
          "type": "uint256"
        },
        {
          "internalType": "address",
          "name": "owner",
          "type": "address"
        }
      ],
      "name": "ERC721IncorrectOwner",
      "type": "error"
    },
    {
      "inputs": [
        {
          "internalType": "address",
          "name": "operator",
          "type": "address"
        },
        {
          "internalType": "uint256",
          "name": "tokenId",
          "type": "uint256"
        }
      ],
      "name": "ERC721InsufficientApproval",
      "type": "error"
    },
    {
      "inputs": [
        {
          "internalType": "address",
          "name": "approver",
          "type": "address"
        }
      ],
      "name": "ERC721InvalidApprover",
      "type": "error"
    },
    {
      "inputs": [
        {
          "internalType": "address",
          "name": "operator",
          "type": "address"
        }
      ],
      "name": "ERC721InvalidOperator",
      "type": "error"
    },
    {
      "inputs": [
        {
          "internalType": "address",
          "name": "owner",
          "type": "address"
        }
      ],
      "name": "ERC721InvalidOwner",
      "type": "error"
    },
    {
      "inputs": [
        {
          "internalType": "address",
          "name": "receiver",
          "type": "address"
        }
      ],
      "name": "ERC721InvalidReceiver",
      "type": "error"
    },
    {
      "inputs": [
        {
          "internalType": "address",
          "name": "sender",
          "type": "address"
        }
      ],
      "name": "ERC721InvalidSender",
      "type": "error"
    },
    {
      "inputs": [
        {
          "internalType": "uint256",
          "name": "tokenId",
          "type": "uint256"
        }
      ],
      "name": "ERC721NonexistentToken",
      "type": "error"
    },
    {
      "inputs": [
        {
          "internalType": "address",
          "name": "owner",
          "type": "address"
        }
      ],
      "name": "OwnableInvalidOwner",
      "type": "error"
    },
    {
      "inputs": [
        {
          "internalType": "address",
          "name": "account",
          "type": "address"
        }
      ],
      "name": "OwnableUnauthorizedAccount",
      "type": "error"
    },
    {
      "anonymous": false,
      "inputs": [
        {
          "indexed": true,
          "internalType": "address",
          "name": "owner",
          "type": "address"
        },
        {
          "indexed": true,
          "internalType": "address",
          "name": "approved",
          "type": "address"
        },
        {
          "indexed": true,
          "internalType": "uint256",
          "name": "tokenId",
          "type": "uint256"
        }
      ],
      "name": "Approval",
      "type": "event"
    },
    {
      "anonymous": false,
      "inputs": [
        {
          "indexed": true,
          "internalType": "address",
          "name": "owner",
          "type": "address"
        },
        {
          "indexed": true,
          "internalType": "address",
          "name": "operator",
          "type": "address"
        },
        {
          "indexed": false,
          "internalType": "bool",
          "name": "approved",
          "type": "bool"
        }
      ],
      "name": "ApprovalForAll",
      "type": "event"
    },
    {
      "anonymous": false,
      "inputs": [
        {
          "indexed": true,
          "internalType": "uint256",
          "name": "tokenId",
          "type": "uint256"
        },
        {
          "indexed": true,
          "internalType": "address",
          "name": "journalist",
          "type": "address"
        },
        {
          "indexed": false,
          "internalType": "string",
          "name": "name",
          "type": "string"
        }
      ],
      "name": "CredentialIssued",
      "type": "event"
    },
    {
      "anonymous": false,
      "inputs": [
        {
          "indexed": true,
          "internalType": "uint256",
          "name": "tokenId",
          "type": "uint256"
        },
        {
          "indexed": true,
          "internalType": "address",
          "name": "journalist",
          "type": "address"
        }
      ],
      "name": "CredentialRevoked",
      "type": "event"
    },
    {
      "anonymous": false,
      "inputs": [
        {
          "indexed": true,
          "internalType": "address",
          "name": "previousOwner",
          "type": "address"
        },
        {
          "indexed": true,
          "internalType": "address",
          "name": "newOwner",
          "type": "address"
        }
      ],
      "name": "OwnershipTransferred",
      "type": "event"
    },
    {
      "anonymous": false,
      "inputs": [
        {
          "indexed": true,
          "internalType": "address",
          "name": "from",
          "type": "address"
        },
        {
          "indexed": true,
          "internalType": "address",
          "name": "to",
          "type": "address"
        },
        {
          "indexed": true,
          "internalType": "uint256",
          "name": "tokenId",
          "type": "uint256"
        }
      ],
      "name": "Transfer",
      "type": "event"
    },
    {
      "inputs": [
        {
          "internalType": "address",
          "name": "to",
          "type": "address"
        },
        {
          "internalType": "uint256",
          "name": "tokenId",
          "type": "uint256"
        }
      ],
      "name": "approve",
      "outputs": [],
      "stateMutability": "nonpayable",
      "type": "function"
    },
    {
      "inputs": [
        {
          "internalType": "address",
          "name": "owner",
          "type": "address"
        }
      ],
      "name": "balanceOf",
      "outputs": [
        {
          "internalType": "uint256",
          "name": "",
          "type": "uint256"
        }
      ],
      "stateMutability": "view",
      "type": "function"
    },
    {
      "inputs": [
        {
          "internalType": "uint256",
          "name": "",
          "type": "uint256"
        }
      ],
      "name": "credentials",
      "outputs": [
        {
          "internalType": "address",
          "name": "journalist",
          "type": "address"
        },
        {
          "internalType": "string",
          "name": "name",
          "type": "string"
        },
        {
          "internalType": "uint256",
          "name": "issuedAt",
          "type": "uint256"
        },
        {
          "internalType": "bool",
          "name": "isActive",
          "type": "bool"
        }
      ],
      "stateMutability": "view",
      "type": "function"
    },
    {
      "inputs": [
        {
          "internalType": "uint256",
          "name": "tokenId",
          "type": "uint256"
        }
      ],
      "name": "getApproved",
      "outputs": [
        {
          "internalType": "address",
          "name": "",
          "type": "address"
        }
      ],
      "stateMutability": "view",
      "type": "function"
    },
    {
      "inputs": [
        {
          "internalType": "uint256",
          "name": "tokenId",
          "type": "uint256"
        }
      ],
      "name": "getCredential",
      "outputs": [
        {
          "internalType": "address",
          "name": "journalist",
          "type": "address"
        },
        {
          "internalType": "string",
          "name": "name",
          "type": "string"
        },
        {
          "internalType": "string[]",
          "name": "geographicRights",
          "type": "string[]"
        },
        {
          "internalType": "string[]",
          "name": "subjectRights",
          "type": "string[]"
        },
        {
          "internalType": "uint256",
          "name": "issuedAt",
          "type": "uint256"
        },
        {
          "internalType": "bool",
          "name": "isActive",
          "type": "bool"
        }
      ],
      "stateMutability": "view",
      "type": "function"
    },
    {
      "inputs": [
        {
          "internalType": "address",
          "name": "journalist",
          "type": "address"
        }
      ],
      "name": "hasValidCredential",
      "outputs": [
        {
          "internalType": "bool",
          "name": "",
          "type": "bool"
        }
      ],
      "stateMutability": "view",
      "type": "function"
    },
    {
      "inputs": [
        {
          "internalType": "address",
          "name": "owner",
          "type": "address"
        },
        {
          "internalType": "address",
          "name": "operator",
          "type": "address"
        }
      ],
      "name": "isApprovedForAll",
      "outputs": [
        {
          "internalType": "bool",
          "name": "",
          "type": "bool"
        }
      ],
      "stateMutability": "view",
      "type": "function"
    },
    {
      "inputs": [
        {
          "internalType": "address",
          "name": "journalist",
          "type": "address"
        },
        {
          "internalType": "string",
          "name": "name",
          "type": "string"
        },
        {
          "internalType": "string[]",
          "name": "geographicRights",
          "type": "string[]"
        },
        {
          "internalType": "string[]",
          "name": "subjectRights",
          "type": "string[]"
        }
      ],
      "name": "issueCredential",
      "outputs": [
        {
          "internalType": "uint256",
          "name": "",
          "type": "uint256"
        }
      ],
      "stateMutability": "nonpayable",
      "type": "function"
    },
    {
      "inputs": [
        {
          "internalType": "address",
          "name": "",
          "type": "address"
        }
      ],
      "name": "journalistToTokenId",
      "outputs": [
        {
          "internalType": "uint256",
          "name": "",
          "type": "uint256"
        }
      ],
      "stateMutability": "view",
      "type": "function"
    },
    {
      "inputs": [],
      "name": "name",
      "outputs": [
        {
          "internalType": "string",
          "name": "",
          "type": "string"
        }
      ],
      "stateMutability": "view",
      "type": "function"
    },
    {
      "inputs": [],
      "name": "owner",
      "outputs": [
        {
          "internalType": "address",
          "name": "",
          "type": "address"
        }
      ],
      "stateMutability": "view",
      "type": "function"
    },
    {
      "inputs": [
        {
          "internalType": "uint256",
          "name": "tokenId",
          "type": "uint256"
        }
      ],
      "name": "ownerOf",
      "outputs": [
        {
          "internalType": "address",
          "name": "",
          "type": "address"
        }
      ],
      "stateMutability": "view",
      "type": "function"
    },
    {
      "inputs": [],
      "name": "renounceOwnership",
      "outputs": [],
      "stateMutability": "nonpayable",
      "type": "function"
    },
    {
      "inputs": [
        {
          "internalType": "uint256",
          "name": "tokenId",
          "type": "uint256"
        }
      ],
      "name": "revokeCredential",
      "outputs": [],
      "stateMutability": "nonpayable",
      "type": "function"
    },
    {
      "inputs": [
        {
          "internalType": "address",
          "name": "from",
          "type": "address"
        },
        {
          "internalType": "address",
          "name": "to",
          "type": "address"
        },
        {
          "internalType": "uint256",
          "name": "tokenId",
          "type": "uint256"
        }
      ],
      "name": "safeTransferFrom",
      "outputs": [],
      "stateMutability": "nonpayable",
      "type": "function"
    },
    {
      "inputs": [
        {
          "internalType": "address",
          "name": "from",
          "type": "address"
        },
        {
          "internalType": "address",
          "name": "to",
          "type": "address"
        },
        {
          "internalType": "uint256",
          "name": "tokenId",
          "type": "uint256"
        },
        {
          "internalType": "bytes",
          "name": "data",
          "type": "bytes"
        }
      ],
      "name": "safeTransferFrom",
      "outputs": [],
      "stateMutability": "nonpayable",
      "type": "function"
    },
    {
      "inputs": [
        {
          "internalType": "address",
          "name": "operator",
          "type": "address"
        },
        {
          "internalType": "bool",
          "name": "approved",
          "type": "bool"
        }
      ],
      "name": "setApprovalForAll",
      "outputs": [],
      "stateMutability": "nonpayable",
      "type": "function"
    },
    {
      "inputs": [
        {
          "internalType": "bytes4",
          "name": "interfaceId",
          "type": "bytes4"
        }
      ],
      "name": "supportsInterface",
      "outputs": [
        {
          "internalType": "bool",
          "name": "",
          "type": "bool"
        }
      ],
      "stateMutability": "view",
      "type": "function"
    },
    {
      "inputs": [],
      "name": "symbol",
      "outputs": [
        {
          "internalType": "string",
          "name": "",
          "type": "string"
        }
      ],
      "stateMutability": "view",
      "type": "function"
    },
    {
      "inputs": [
        {
          "internalType": "uint256",
          "name": "tokenId",
          "type": "uint256"
        }
      ],
      "name": "tokenURI",
      "outputs": [
        {
          "internalType": "string",
          "name": "",
          "type": "string"
        }
      ],
      "stateMutability": "view",
      "type": "function"
    },
    {
      "inputs": [],
      "name": "totalSupply",
      "outputs": [
        {
          "internalType": "uint256",
          "name": "",
          "type": "uint256"
        }
      ],
      "stateMutability": "view",
      "type": "function"
    },
    {
      "inputs": [
        {
          "internalType": "address",
          "name": "from",
          "type": "address"
        },
        {
          "internalType": "address",
          "name": "to",
          "type": "address"
        },
        {
          "internalType": "uint256",
          "name": "tokenId",
          "type": "uint256"
        }
      ],
      "name": "transferFrom",
      "outputs": [],
      "stateMutability": "nonpayable",
      "type": "function"
    },
    {
      "inputs": [
        {
          "internalType": "address",
          "name": "newOwner",
          "type": "address"
        }
      ],
      "name": "transferOwnership",
      "outputs": [],
      "stateMutability": "nonpayable",
      "type": "function"
    }
  ],
  "bytecode": "0x60806040523480156200001157600080fd5b503360405180606001604052806023815260200162001f9e602391396040805180820190915260048152634954504360e01b60208201526000620000568382620001a0565b506001620000658282620001a0565b5050506001600160a01b0381166200009757604051631e4fbdf760e01b81526000600482015260240160405180910390fd5b620000a281620000a9565b506200026c565b600680546001600160a01b038381166001600160a01b0319831681179093556040519116919082907f8be0079c531659141344cd1fd0a4f28419497f9722a3daafe3b4186f6b6457e090600090a35050565b634e487b7160e01b600052604160045260246000fd5b600181811c908216806200012657607f821691505b6020821081036200014757634e487b7160e01b600052602260045260246000fd5b50919050565b601f8211156200019b57600081815260208120601f850160051c81016020861015620001765750805b601f850160051c820191505b81811015620001975782815560010162000182565b5050505b505050565b81516001600160401b03811115620001bc57620001bc620000fb565b620001d481620001cd845462000111565b846200014d565b602080601f8311600181146200020c5760008415620001f35750858301515b600019600386901b1c1916600185901b17855562000197565b600085815260208120601f198616915b828110156200023d578886015182559484019460019091019084016200021c565b50858210156200025c5787850151600019600388901b60f8161c191681555b5050505050600190811b01905550565b611d22806200027c6000396000f3fe608060405234801561001057600080fd5b506004361061014d5760003560e01c806370a08231116100c3578063a22cb4651161007c578063a22cb465146102d0578063b88d4fde146102e3578063c87b56dd146102f6578063e0574e3f14610309578063e985e9c51461032c578063f2fde38b1461033f57600080fd5b806370a0823114610264578063715018a6146102775780638da5cb5b1461027f5780638dd18d2d1461029057806395d89b41146102b55780639878703c146102bd57600080fd5b806315affd6b1161011557806315affd6b146101f057806318160ddd146102105780631b87278d1461021857806323b872dd1461022b57806342842e0e1461023e5780636352211e1461025157600080fd5b806301ffc9a71461015257806306fdde031461017a578063081812fc1461018f578063095ea7b3146101ba57806311488121146101cf575b600080fd5b6101656101603660046115fa565b610352565b60405190151581526020015b60405180910390f35b6101826103a4565b6040516101719190611667565b6101a261019d36600461167a565b610436565b6040516001600160a01b039091168152602001610171565b6101cd6101c83660046116af565b61045f565b005b6101e26101dd366004611837565b61046e565b604051908152602001610171565b6101e26101fe3660046118d0565b60096020526000908152604090205481565b6007546101e2565b6101cd61022636600461167a565b61063c565b6101cd6102393660046118eb565b610717565b6101cd61024c3660046118eb565b6107a2565b6101a261025f36600461167a565b6107c2565b6101e26102723660046118d0565b6107cd565b6101cd610815565b6006546001600160a01b03166101a2565b6102a361029e36600461167a565b610829565b6040516101719695949392919061197c565b610182610af1565b6101656102cb3660046118d0565b610b00565b6101cd6102de3660046119e1565b610b40565b6101cd6102f1366004611a1d565b610b4b565b61018261030436600461167a565b610b63565b61031c61031736600461167a565b610bd7565b6040516101719493929190611a8d565b61016561033a366004611ac9565b610c96565b6101cd61034d3660046118d0565b610cc4565b60006001600160e01b031982166380ac58cd60e01b148061038357506001600160e01b03198216635b5e139f60e01b145b8061039e57506301ffc9a760e01b6001600160e01b03198316145b92915050565b6060600080546103b390611afc565b80601f01602080910402602001604051908101604052809291908181526020018280546103df90611afc565b801561042c5780601f106104015761010080835404028352916020019161042c565b820191906000526020600020905b81548152906001019060200180831161040f57829003601f168201915b5050505050905090565b600061044182610d02565b506000828152600460205260409020546001600160a01b031661039e565b61046a828233610d3b565b5050565b6000610478610d48565b6001600160a01b038516600090815260096020526040902054156104ed5760405162461bcd60e51b815260206004820152602160248201527f4a6f75726e616c69737420616c7265616479206861732063726564656e7469616044820152601b60fa1b60648201526084015b60405180910390fd5b600780549060006104fd83611b36565b909155505060075461050f8682610d75565b6040805160c0810182526001600160a01b038881168252602080830189815283850189905260608401889052426080850152600160a085018190526000878152600890935294909120835181546001600160a01b03191693169290921782555191929091908201906105819082611ba3565b506040820151805161059d916002840191602090910190611527565b50606082015180516105b9916003840191602090910190611527565b506080820151600482015560a0909101516005909101805460ff19169115159190911790556001600160a01b038616600081815260096020526040908190208390555182907ff03729c4e45d56313830b69839594a662bd953079e350899f22c95272f29567f9061062b908990611667565b60405180910390a395945050505050565b610644610d48565b6000818152600260205260409020546001600160a01b031661069f5760405162461bcd60e51b8152602060048201526014602482015273151bdad95b88191bd95cc81b9bdd08195e1a5cdd60621b60448201526064016104e4565b600081815260086020908152604080832060058101805460ff19169055546001600160a01b031680845260099092528220919091556106dd82610d8f565b6040516001600160a01b0382169083907f936526f4a3155895d9f01699716f2e0c548d726a24a1437e5ce92b3dacaad35b90600090a35050565b6001600160a01b03821661074157604051633250574960e11b8152600060048201526024016104e4565b600061074e838333610dca565b9050836001600160a01b0316816001600160a01b03161461079c576040516364283d7b60e01b81526001600160a01b03808616600483015260248201849052821660448201526064016104e4565b50505050565b6107bd83838360405180602001604052806000815250610b4b565b505050565b600061039e82610d02565b60006001600160a01b0382166107f9576040516322718ad960e21b8152600060048201526024016104e4565b506001600160a01b031660009081526003602052604090205490565b61081d610d48565b6108276000610e5a565b565b6000818152600860209081526040808320815160c0810190925280546001600160a01b03168252600181018054606094859485948894859485948401919061087090611afc565b80601f016020809104026020016040519081016040528092919081815260200182805461089c90611afc565b80156108e95780601f106108be576101008083540402835291602001916108e9565b820191906000526020600020905b8154815290600101906020018083116108cc57829003601f168201915b5050505050815260200160028201805480602002602001604051908101604052809291908181526020016000905b828210156109c357838290600052602060002001805461093690611afc565b80601f016020809104026020016040519081016040528092919081815260200182805461096290611afc565b80156109af5780601f10610984576101008083540402835291602001916109af565b820191906000526020600020905b81548152906001019060200180831161099257829003601f168201915b505050505081526020019060010190610917565b50505050815260200160038201805480602002602001604051908101604052809291908181526020016000905b82821015610a9c578382906000526020600020018054610a0f90611afc565b80601f0160208091040260200160405190810160405280929190818152602001828054610a3b90611afc565b8015610a885780601f10610a5d57610100808354040283529160200191610a88565b820191906000526020600020905b815481529060010190602001808311610a6b57829003601f168201915b5050505050815260200190600101906109f0565b50505090825250600482015460208083019190915260059092015460ff161515604091820152825191830151908301516060840151608085015160a090950151939d929c50909a509850919650945092505050565b6060600180546103b390611afc565b6001600160a01b0381166000908152600960205260408120548015801590610b39575060008181526008602052604090206005015460ff165b9392505050565b61046a338383610eac565b610b56848484610717565b61079c3385858585610f4b565b6060610b6e82610d02565b506000610b8660408051602081019091526000815290565b90506000815111610ba65760405180602001604052806000815250610b39565b80610bb084611076565b604051602001610bc1929190611c63565b6040516020818303038152906040529392505050565b600860205260009081526040902080546001820180546001600160a01b039092169291610c0390611afc565b80601f0160208091040260200160405190810160405280929190818152602001828054610c2f90611afc565b8015610c7c5780601f10610c5157610100808354040283529160200191610c7c565b820191906000526020600020905b815481529060010190602001808311610c5f57829003601f168201915b50505050600483015460059093015491929160ff16905084565b6001600160a01b03918216600090815260056020908152604080832093909416825291909152205460ff1690565b610ccc610d48565b6001600160a01b038116610cf657604051631e4fbdf760e01b8152600060048201526024016104e4565b610cff81610e5a565b50565b6000818152600260205260408120546001600160a01b03168061039e57604051637e27328960e01b8152600481018490526024016104e4565b6107bd8383836001611109565b6006546001600160a01b031633146108275760405163118cdaa760e01b81523360048201526024016104e4565b61046a82826040518060200160405280600081525061120f565b6000610d9e6000836000610dca565b90506001600160a01b03811661046a57604051637e27328960e01b8152600481018390526024016104e4565b6000828152600260205260408120546001600160a01b03168015801590610df957506001600160a01b03851615155b15610e465760405162461bcd60e51b815260206004820152601f60248201527f536f756c626f756e643a205472616e73666572206e6f7420616c6c6f7765640060448201526064016104e4565b610e51858585611227565b95945050505050565b600680546001600160a01b038381166001600160a01b0319831681179093556040519116919082907f8be0079c531659141344cd1fd0a4f28419497f9722a3daafe3b4186f6b6457e090600090a35050565b6001600160a01b038216610ede57604051630b61174360e31b81526001600160a01b03831660048201526024016104e4565b6001600160a01b03838116600081815260056020908152604080832094871680845294825291829020805460ff191686151590811790915591519182527f17307eab39ab6107e8899845ad3d59bd9653f200f220920489ca2b5937696c31910160405180910390a3505050565b6001600160a01b0383163b1561106f57604051630a85bd0160e11b81526001600160a01b0384169063150b7a0290610f8d908890889087908790600401611c92565b6020604051808303816000875af1925050508015610fc8575060408051601f3d908101601f19168201909252610fc591810190611ccf565b60015b611031573d808015610ff6576040519150601f19603f3d011682016040523d82523d6000602084013e610ffb565b606091505b50805160000361102957604051633250574960e11b81526001600160a01b03851660048201526024016104e4565b805181602001fd5b6001600160e01b03198116630a85bd0160e11b1461106d57604051633250574960e11b81526001600160a01b03851660048201526024016104e4565b505b5050505050565b6060600061108383611320565b600101905060008167ffffffffffffffff8111156110a3576110a36116d9565b6040519080825280601f01601f1916602001820160405280156110cd576020820181803683370190505b5090508181016020015b600019016f181899199a1a9b1b9c1cb0b131b232b360811b600a86061a8153600a85049450846110d757509392505050565b808061111d57506001600160a01b03821615155b156111df57600061112d84610d02565b90506001600160a01b038316158015906111595750826001600160a01b0316816001600160a01b031614155b801561116c575061116a8184610c96565b155b156111955760405163a9fbf51f60e01b81526001600160a01b03841660048201526024016104e4565b81156111dd5783856001600160a01b0316826001600160a01b03167f8c5be1e5ebec7d5bd14f71427d1e84f3dd0314c0f7b2291e5b200ac8c7c3b92560405160405180910390a45b505b5050600090815260046020526040902080546001600160a01b0319166001600160a01b0392909216919091179055565b61121983836113f8565b6107bd336000858585610f4b565b6000828152600260205260408120546001600160a01b03908116908316156112545761125481848661145d565b6001600160a01b0381161561129257611271600085600080611109565b6001600160a01b038116600090815260036020526040902080546000190190555b6001600160a01b038516156112c1576001600160a01b0385166000908152600360205260409020805460010190555b60008481526002602052604080822080546001600160a01b0319166001600160a01b0389811691821790925591518793918516917fddf252ad1be2c89b69c2b068fc378daa952ba7f163c4a11628f55a4df523b3ef91a4949350505050565b60008072184f03e93ff9f4daa797ed6e38ed64bf6a1f0160401b831061135f5772184f03e93ff9f4daa797ed6e38ed64bf6a1f0160401b830492506040015b6d04ee2d6d415b85acef8100000000831061138b576d04ee2d6d415b85acef8100000000830492506020015b662386f26fc1000083106113a957662386f26fc10000830492506010015b6305f5e10083106113c1576305f5e100830492506008015b61271083106113d557612710830492506004015b606483106113e7576064830492506002015b600a831061039e5760010192915050565b6001600160a01b03821661142257604051633250574960e11b8152600060048201526024016104e4565b600061143083836000610dca565b90506001600160a01b038116156107bd576040516339e3563760e11b8152600060048201526024016104e4565b6114688383836114c1565b6107bd576001600160a01b03831661149657604051637e27328960e01b8152600481018290526024016104e4565b60405163177e802f60e01b81526001600160a01b0383166004820152602481018290526044016104e4565b60006001600160a01b0383161580159061151f5750826001600160a01b0316846001600160a01b031614806114fb57506114fb8484610c96565b8061151f57506000828152600460205260409020546001600160a01b038481169116145b949350505050565b82805482825590600052602060002090810192821561156d579160200282015b8281111561156d578251829061155d9082611ba3565b5091602001919060010190611547565b5061157992915061157d565b5090565b80821115611579576000611591828261159a565b5060010161157d565b5080546115a690611afc565b6000825580601f106115b6575050565b601f016020900490600052602060002090810190610cff91905b8082111561157957600081556001016115d0565b6001600160e01b031981168114610cff57600080fd5b60006020828403121561160c57600080fd5b8135610b39816115e4565b60005b8381101561163257818101518382015260200161161a565b50506000910152565b60008151808452611653816020860160208601611617565b601f01601f19169290920160200192915050565b602081526000610b39602083018461163b565b60006020828403121561168c57600080fd5b5035919050565b80356001600160a01b03811681146116aa57600080fd5b919050565b600080604083850312156116c257600080fd5b6116cb83611693565b946020939093013593505050565b634e487b7160e01b600052604160045260246000fd5b604051601f8201601f1916810167ffffffffffffffff81118282101715611718576117186116d9565b604052919050565b600067ffffffffffffffff83111561173a5761173a6116d9565b61174d601f8401601f19166020016116ef565b905082815283838301111561176157600080fd5b828260208301376000602084830101529392505050565b600082601f83011261178957600080fd5b610b3983833560208501611720565b600082601f8301126117a957600080fd5b8135602067ffffffffffffffff808311156117c6576117c66116d9565b8260051b6117d58382016116ef565b93845285810183019383810190888611156117ef57600080fd5b84880192505b8583101561182b5782358481111561180d5760008081fd5b61181b8a87838c0101611778565b83525091840191908401906117f5565b98975050505050505050565b6000806000806080858703121561184d57600080fd5b61185685611693565b9350602085013567ffffffffffffffff8082111561187357600080fd5b61187f88838901611778565b9450604087013591508082111561189557600080fd5b6118a188838901611798565b935060608701359150808211156118b757600080fd5b506118c487828801611798565b91505092959194509250565b6000602082840312156118e257600080fd5b610b3982611693565b60008060006060848603121561190057600080fd5b61190984611693565b925061191760208501611693565b9150604084013590509250925092565b600081518084526020808501808196508360051b8101915082860160005b8581101561196f57828403895261195d84835161163b565b98850198935090840190600101611945565b5091979650505050505050565b6001600160a01b038716815260c0602082018190526000906119a09083018861163b565b82810360408401526119b28188611927565b905082810360608401526119c68187611927565b6080840195909552505090151560a090910152949350505050565b600080604083850312156119f457600080fd5b6119fd83611693565b915060208301358015158114611a1257600080fd5b809150509250929050565b60008060008060808587031215611a3357600080fd5b611a3c85611693565b9350611a4a60208601611693565b925060408501359150606085013567ffffffffffffffff811115611a6d57600080fd5b8501601f81018713611a7e57600080fd5b6118c487823560208401611720565b6001600160a01b0385168152608060208201819052600090611ab19083018661163b565b60408301949094525090151560609091015292915050565b60008060408385031215611adc57600080fd5b611ae583611693565b9150611af360208401611693565b90509250929050565b600181811c90821680611b1057607f821691505b602082108103611b3057634e487b7160e01b600052602260045260246000fd5b50919050565b600060018201611b5657634e487b7160e01b600052601160045260246000fd5b5060010190565b601f8211156107bd57600081815260208120601f850160051c81016020861015611b845750805b601f850160051c820191505b8181101561106d57828155600101611b90565b815167ffffffffffffffff811115611bbd57611bbd6116d9565b611bd181611bcb8454611afc565b84611b5d565b602080601f831160018114611c065760008415611bee5750858301515b600019600386901b1c1916600185901b17855561106d565b600085815260208120601f198616915b82811015611c3557888601518255948401946001909101908401611c16565b5085821015611c535787850151600019600388901b60f8161c191681555b5050505050600190811b01905550565b60008351611c75818460208801611617565b835190830190611c89818360208801611617565b01949350505050565b6001600160a01b0385811682528416602082015260408101839052608060608201819052600090611cc59083018461163b565b9695505050505050565b600060208284031215611ce157600080fd5b8151610b39816115e456fea264697066735822122037807995cde6b0af254a602dddb204bfed41592c8d7a7e9c8e03198e1857cd7a64736f6c63430008140033496d6d757461626c6554797065205075626c69736865722043726564656e7469616c73",
  "linkReferences": {},
  "deployedLinkReferences": {}
}