{
  "_format": "hh-sol-artifact-1",
  "contractName": "GMAction",
  "sourceName": "contracts/engagement/GMAction.sol",
  "abi": [
    {
      "inputs": [
        {
          "internalType": "address",
          "name": "_profileNFT",
          "type": "address"
        }
      ],
      "stateMutability": "nonpayable",
      "type": "constructor"
    },
    {
      "anonymous": false,
      "inputs": [
        {
          "indexed": true,
          "internalType": "address",
          "name": "emojiCredit",
          "type": "address"
        }
      ],
      "name": "EmojiCreditContractSet",
      "type": "event"
    },
    {
      "anonymous": false,
      "inputs": [
        {
          "indexed": true,
          "internalType": "address",
          "name": "user",
          "type": "address"
        },
        {
          "indexed": true,
          "internalType": "uint256",
          "name": "day",
          "type": "uint256"
        },
        {
          "indexed": false,
          "internalType": "uint256",
          "name": "streak",
          "type": "uint256"
        }
      ],
      "name": "GMSaid",
      "type": "event"
    },
    {
      "inputs": [
        {
          "internalType": "address",
          "name": "",
          "type": "address"
        }
      ],
      "name": "currentStreak",
      "outputs": [
        {
          "internalType": "uint256",
          "name": "",
          "type": "uint256"
        }
      ],
      "stateMutability": "view",
      "type": "function"
    },
    {
      "inputs": [
        {
          "internalType": "uint256",
          "name": "",
          "type": "uint256"
        }
      ],
      "name": "dailyGMCount",
      "outputs": [
        {
          "internalType": "uint256",
          "name": "",
          "type": "uint256"
        }
      ],
      "stateMutability": "view",
      "type": "function"
    },
    {
      "inputs": [
        {
          "internalType": "uint256",
          "name": "",
          "type": "uint256"
        },
        {
          "internalType": "uint256",
          "name": "",
          "type": "uint256"
        }
      ],
      "name": "dailyGMUsers",
      "outputs": [
        {
          "internalType": "address",
          "name": "",
          "type": "address"
        }
      ],
      "stateMutability": "view",
      "type": "function"
    },
    {
      "inputs": [],
      "name": "emojiCreditContract",
      "outputs": [
        {
          "internalType": "address",
          "name": "",
          "type": "address"
        }
      ],
      "stateMutability": "view",
      "type": "function"
    },
    {
      "inputs": [],
      "name": "getCurrentDay",
      "outputs": [
        {
          "internalType": "uint256",
          "name": "",
          "type": "uint256"
        }
      ],
      "stateMutability": "view",
      "type": "function"
    },
    {
      "inputs": [
        {
          "internalType": "uint256",
          "name": "day",
          "type": "uint256"
        }
      ],
      "name": "getDailyStats",
      "outputs": [
        {
          "internalType": "uint256",
          "name": "count",
          "type": "uint256"
        },
        {
          "internalType": "address[]",
          "name": "users",
          "type": "address[]"
        }
      ],
      "stateMutability": "view",
      "type": "function"
    },
    {
      "inputs": [],
      "name": "getMiamiMidnight",
      "outputs": [
        {
          "internalType": "uint256",
          "name": "",
          "type": "uint256"
        }
      ],
      "stateMutability": "view",
      "type": "function"
    },
    {
      "inputs": [],
      "name": "getTodaysGMCount",
      "outputs": [
        {
          "internalType": "uint256",
          "name": "",
          "type": "uint256"
        }
      ],
      "stateMutability": "view",
      "type": "function"
    },
    {
      "inputs": [
        {
          "internalType": "address",
          "name": "user",
          "type": "address"
        }
      ],
      "name": "getUserStats",
      "outputs": [
        {
          "internalType": "uint256",
          "name": "total",
          "type": "uint256"
        },
        {
          "internalType": "uint256",
          "name": "streak",
          "type": "uint256"
        },
        {
          "internalType": "bool",
          "name": "saidToday",
          "type": "bool"
        }
      ],
      "stateMutability": "view",
      "type": "function"
    },
    {
      "inputs": [
        {
          "internalType": "address",
          "name": "",
          "type": "address"
        },
        {
          "internalType": "uint256",
          "name": "",
          "type": "uint256"
        }
      ],
      "name": "hasSaidGM",
      "outputs": [
        {
          "internalType": "bool",
          "name": "",
          "type": "bool"
        }
      ],
      "stateMutability": "view",
      "type": "function"
    },
    {
      "inputs": [
        {
          "internalType": "address",
          "name": "user",
          "type": "address"
        }
      ],
      "name": "hasUserSaidGMToday",
      "outputs": [
        {
          "internalType": "bool",
          "name": "",
          "type": "bool"
        }
      ],
      "stateMutability": "view",
      "type": "function"
    },
    {
      "inputs": [
        {
          "internalType": "address",
          "name": "",
          "type": "address"
        }
      ],
      "name": "lastGMDay",
      "outputs": [
        {
          "internalType": "uint256",
          "name": "",
          "type": "uint256"
        }
      ],
      "stateMutability": "view",
      "type": "function"
    },
    {
      "inputs": [],
      "name": "profileNFT",
      "outputs": [
        {
          "internalType": "address",
          "name": "",
          "type": "address"
        }
      ],
      "stateMutability": "view",
      "type": "function"
    },
    {
      "inputs": [],
      "name": "sayGM",
      "outputs": [],
      "stateMutability": "nonpayable",
      "type": "function"
    },
    {
      "inputs": [
        {
          "internalType": "address",
          "name": "_emojiCredit",
          "type": "address"
        }
      ],
      "name": "setEmojiCreditContract",
      "outputs": [],
      "stateMutability": "nonpayable",
      "type": "function"
    },
    {
      "inputs": [
        {
          "internalType": "address",
          "name": "",
          "type": "address"
        }
      ],
      "name": "totalGMs",
      "outputs": [
        {
          "internalType": "uint256",
          "name": "",
          "type": "uint256"
        }
      ],
      "stateMutability": "view",
      "type": "function"
    }
  ],
  "bytecode": "0x60a03461007157601f6109cb38819003918201601f19168301916001600160401b038311848410176100765780849260209460405283398101031261007157516001600160a01b03811681036100715760805260405161093e908161008d82396080518181816102ab01526105350152f35b600080fd5b634e487b7160e01b600052604160045260246000fdfe60406080815260048036101561001457600080fd5b600090813560e01c80630599692e1461081357806325406903146104fc5780633649049b146104c55780633e6968b6146104a55780634e43603a1461043d5780634e43dbbd146104145780634eafd5e5146103755780635390f7201461034a5780635c45f7391461031257806381eddd51146102da578063949675e914610296578063ac53dc041461026e578063cac59d9714610223578063cec4f553146101dc578063db605a09146101955763e2f800d7146100d057600080fd5b34610191576020908160031936011261018d578284913581526005835281812054906006845282812091835194858185549182815201908195855282852090855b81811061017057505050866101279103876108ab565b845195858796870193875282870152518092526060850193925b82811061015057505050500390f35b83516001600160a01b031685528695509381019392810192600101610141565b82546001600160a01b031684529284019260019283019201610111565b8280fd5b5080fd5b82843461019157806003193601126101915760209160ff9082906001600160a01b036101bf610890565b168152600185528181206024358252855220541690519015158152f35b5091346101915781600319360112610191576201518091824204838102938185041490151715610210576020838351908152f35b634e487b7160e01b815260118452602490fd5b8284346101915760203660031901126101915760209160ff9082906001600160a01b0361024e610890565b168152600185528181206201518042048252855220541690519015158152f35b828434610191578160031936011261019157905490516001600160a01b039091168152602090f35b828434610191578160031936011261019157517f00000000000000000000000000000000000000000000000000000000000000006001600160a01b03168152602090f35b8284346101915760203660031901126101915760209181906001600160a01b03610302610890565b1681526002845220549051908152f35b8284346101915760203660031901126101915760209181906001600160a01b0361033a610890565b1681526003845220549051908152f35b8284346101915781600319360112610191578060209262015180420481526005845220549051908152f35b50823461018d57602036600319011261018d57610390610890565b8354926001600160a01b03928385166103e35750501680916bffffffffffffffffffffffff60a01b161782557f5c7e52b0143a210ac9465b279a79b812e080222ad8dcd9f381e3b7185ee118328280a280f35b906020606492519162461bcd60e51b8352820152600b60248201526a105b1c9958591e481cd95d60aa1b6044820152fd5b5082903461018d57602036600319011261018d5760209282913581526005845220549051908152f35b5050346104a25760209182600319360112610191576060926001600160a01b03610465610890565b1683526002815281832054926003825260ff8380832054926001855281812062015180420482528552205416918351948552840152151590820152f35b80fd5b828434610191578160031936011261019157602090516201518042048152f35b5082903461018d57602036600319011261018d5760209282916001600160a01b036104ee610890565b168252845220549051908152f35b50823461018d578260031936011261018d57805163a787c80b60e01b815233838201526001600160a01b039260209160249190838184817f00000000000000000000000000000000000000000000000000000000000000008a165afa9081156107265787916107d9575b50156107a35762015180420494338752600190818552858820878952855260ff86892054166107695733885281855285882087895285528588208260ff19825416179055338852600285528588206105be81546108e3565b905533885282855285882054600019880190888211610757570361074657338852600385528588206105f081546108e3565b90555b33885282855286868920558688526005855285882061061281546108e3565b90558688526006855285882080549068010000000000000000821015610734578161064691858c9897969594018155610862565b81549060031b908333831b921b19161790558454168061069c575b8488887fd478e71acb0ea1d0fd6b75c34f2e463f1088b9e14d74e53bc106a81ac4540ebe89338552600381528285205492519283523392a380f35b803b156107305760448592885196879384926340c10f1960e01b84523388850152888401525af18015610726576106d6575b808793610661565b67ffffffffffffffff83979497116107155750508252927fd478e71acb0ea1d0fd6b75c34f2e463f1088b9e14d74e53bc106a81ac4540ebe85806106ce565b634e487b7160e01b84526041905282fd5b85513d89823e3d90fd5b8480fd5b634e487b7160e01b8a5260418552858afd5b3388526003855281868920556105f3565b634e487b7160e01b8a5260118552858afd5b855162461bcd60e51b815280840186905260158186015274416c7265616479207361696420474d20746f64617960581b6044820152606490fd5b60136064928486519362461bcd60e51b8552840152820152724d757374206861766520612070726f66696c6560681b6044820152fd5b90508381813d831161080c575b6107f081836108ab565b81010312610808575180151581036108085787610566565b8680fd5b503d6107e6565b509190346104a257816003193601126104a2576024359235815260066020528181209081548410156104a2575060209261084c91610862565b905491519160018060a01b039160031b1c168152f35b805482101561087a5760005260206000200190600090565b634e487b7160e01b600052603260045260246000fd5b600435906001600160a01b03821682036108a657565b600080fd5b90601f8019910116810190811067ffffffffffffffff8211176108cd57604052565b634e487b7160e01b600052604160045260246000fd5b60001981146108f25760010190565b634e487b7160e01b600052601160045260246000fdfea26469706673582212206f3566f68b024ea932ba1002a951cdaa84dbf8f357250ececc00b90197700f0564736f6c63430008140033",
  "linkReferences": {},
  "deployedLinkReferences": {}
}