{
  "_format": "hh-sol-artifact-1",
  "contractName": "ReaderLicenseAMM",
  "sourceName": "contracts/content/ReaderLicenseAMM.sol",
  "abi": [
    {
      "inputs": [
        {
          "internalType": "address",
          "name": "_encryptedArticles",
          "type": "address"
        }
      ],
      "stateMutability": "nonpayable",
      "type": "constructor"
    },
    {
      "inputs": [
        {
          "internalType": "address",
          "name": "sender",
          "type": "address"
        },
        {
          "internalType": "uint256",
          "name": "balance",
          "type": "uint256"
        },
        {
          "internalType": "uint256",
          "name": "needed",
          "type": "uint256"
        },
        {
          "internalType": "uint256",
          "name": "tokenId",
          "type": "uint256"
        }
      ],
      "name": "ERC1155InsufficientBalance",
      "type": "error"
    },
    {
      "inputs": [
        {
          "internalType": "address",
          "name": "approver",
          "type": "address"
        }
      ],
      "name": "ERC1155InvalidApprover",
      "type": "error"
    },
    {
      "inputs": [
        {
          "internalType": "uint256",
          "name": "idsLength",
          "type": "uint256"
        },
        {
          "internalType": "uint256",
          "name": "valuesLength",
          "type": "uint256"
        }
      ],
      "name": "ERC1155InvalidArrayLength",
      "type": "error"
    },
    {
      "inputs": [
        {
          "internalType": "address",
          "name": "operator",
          "type": "address"
        }
      ],
      "name": "ERC1155InvalidOperator",
      "type": "error"
    },
    {
      "inputs": [
        {
          "internalType": "address",
          "name": "receiver",
          "type": "address"
        }
      ],
      "name": "ERC1155InvalidReceiver",
      "type": "error"
    },
    {
      "inputs": [
        {
          "internalType": "address",
          "name": "sender",
          "type": "address"
        }
      ],
      "name": "ERC1155InvalidSender",
      "type": "error"
    },
    {
      "inputs": [
        {
          "internalType": "address",
          "name": "operator",
          "type": "address"
        },
        {
          "internalType": "address",
          "name": "owner",
          "type": "address"
        }
      ],
      "name": "ERC1155MissingApprovalForAll",
      "type": "error"
    },
    {
      "inputs": [
        {
          "internalType": "address",
          "name": "owner",
          "type": "address"
        }
      ],
      "name": "OwnableInvalidOwner",
      "type": "error"
    },
    {
      "inputs": [
        {
          "internalType": "address",
          "name": "account",
          "type": "address"
        }
      ],
      "name": "OwnableUnauthorizedAccount",
      "type": "error"
    },
    {
      "anonymous": false,
      "inputs": [
        {
          "indexed": true,
          "internalType": "uint256",
          "name": "articleId",
          "type": "uint256"
        },
        {
          "indexed": true,
          "internalType": "address",
          "name": "user",
          "type": "address"
        },
        {
          "indexed": false,
          "internalType": "uint256",
          "name": "expiryTime",
          "type": "uint256"
        }
      ],
      "name": "AccessGranted",
      "type": "event"
    },
    {
      "anonymous": false,
      "inputs": [
        {
          "indexed": true,
          "internalType": "address",
          "name": "account",
          "type": "address"
        },
        {
          "indexed": true,
          "internalType": "address",
          "name": "operator",
          "type": "address"
        },
        {
          "indexed": false,
          "internalType": "bool",
          "name": "approved",
          "type": "bool"
        }
      ],
      "name": "ApprovalForAll",
      "type": "event"
    },
    {
      "anonymous": false,
      "inputs": [
        {
          "indexed": true,
          "internalType": "uint256",
          "name": "articleId",
          "type": "uint256"
        },
        {
          "indexed": true,
          "internalType": "address",
          "name": "user",
          "type": "address"
        },
        {
          "indexed": false,
          "internalType": "uint256",
          "name": "expiryTime",
          "type": "uint256"
        }
      ],
      "name": "LicenseBurned",
      "type": "event"
    },
    {
      "anonymous": false,
      "inputs": [
        {
          "indexed": true,
          "internalType": "uint256",
          "name": "articleId",
          "type": "uint256"
        },
        {
          "indexed": true,
          "internalType": "address",
          "name": "holder",
          "type": "address"
        },
        {
          "indexed": false,
          "internalType": "uint256",
          "name": "count",
          "type": "uint256"
        },
        {
          "indexed": false,
          "internalType": "uint256",
          "name": "editionNumber",
          "type": "uint256"
        }
      ],
      "name": "LicenseMinted",
      "type": "event"
    },
    {
      "anonymous": false,
      "inputs": [
        {
          "indexed": true,
          "internalType": "uint256",
          "name": "articleId",
          "type": "uint256"
        },
        {
          "indexed": true,
          "internalType": "address",
          "name": "buyer",
          "type": "address"
        },
        {
          "indexed": true,
          "internalType": "address",
          "name": "seller",
          "type": "address"
        },
        {
          "indexed": false,
          "internalType": "uint256",
          "name": "price",
          "type": "uint256"
        }
      ],
      "name": "LicensePurchased",
      "type": "event"
    },
    {
      "anonymous": false,
      "inputs": [
        {
          "indexed": true,
          "internalType": "uint256",
          "name": "articleId",
          "type": "uint256"
        },
        {
          "indexed": false,
          "internalType": "uint256",
          "name": "count",
          "type": "uint256"
        },
        {
          "indexed": false,
          "internalType": "uint256",
          "name": "totalActive",
          "type": "uint256"
        }
      ],
      "name": "LicenseRegenerated",
      "type": "event"
    },
    {
      "anonymous": false,
      "inputs": [
        {
          "indexed": true,
          "internalType": "address",
          "name": "previousOwner",
          "type": "address"
        },
        {
          "indexed": true,
          "internalType": "address",
          "name": "newOwner",
          "type": "address"
        }
      ],
      "name": "OwnershipTransferred",
      "type": "event"
    },
    {
      "anonymous": false,
      "inputs": [
        {
          "indexed": true,
          "internalType": "address",
          "name": "operator",
          "type": "address"
        },
        {
          "indexed": true,
          "internalType": "address",
          "name": "from",
          "type": "address"
        },
        {
          "indexed": true,
          "internalType": "address",
          "name": "to",
          "type": "address"
        },
        {
          "indexed": false,
          "internalType": "uint256[]",
          "name": "ids",
          "type": "uint256[]"
        },
        {
          "indexed": false,
          "internalType": "uint256[]",
          "name": "values",
          "type": "uint256[]"
        }
      ],
      "name": "TransferBatch",
      "type": "event"
    },
    {
      "anonymous": false,
      "inputs": [
        {
          "indexed": true,
          "internalType": "address",
          "name": "operator",
          "type": "address"
        },
        {
          "indexed": true,
          "internalType": "address",
          "name": "from",
          "type": "address"
        },
        {
          "indexed": true,
          "internalType": "address",
          "name": "to",
          "type": "address"
        },
        {
          "indexed": false,
          "internalType": "uint256",
          "name": "id",
          "type": "uint256"
        },
        {
          "indexed": false,
          "internalType": "uint256",
          "name": "value",
          "type": "uint256"
        }
      ],
      "name": "TransferSingle",
      "type": "event"
    },
    {
      "anonymous": false,
      "inputs": [
        {
          "indexed": false,
          "internalType": "string",
          "name": "value",
          "type": "string"
        },
        {
          "indexed": true,
          "internalType": "uint256",
          "name": "id",
          "type": "uint256"
        }
      ],
      "name": "URI",
      "type": "event"
    },
    {
      "inputs": [],
      "name": "BASE_PRICE",
      "outputs": [
        {
          "internalType": "uint256",
          "name": "",
          "type": "uint256"
        }
      ],
      "stateMutability": "view",
      "type": "function"
    },
    {
      "inputs": [],
      "name": "CREATOR_PERCENTAGE",
      "outputs": [
        {
          "internalType": "uint256",
          "name": "",
          "type": "uint256"
        }
      ],
      "stateMutability": "view",
      "type": "function"
    },
    {
      "inputs": [],
      "name": "ENCRYPTED_ARTICLES",
      "outputs": [
        {
          "internalType": "contract IEncryptedArticles",
          "name": "",
          "type": "address"
        }
      ],
      "stateMutability": "view",
      "type": "function"
    },
    {
      "inputs": [],
      "name": "GAS_REIMBURSEMENT",
      "outputs": [
        {
          "internalType": "uint256",
          "name": "",
          "type": "uint256"
        }
      ],
      "stateMutability": "view",
      "type": "function"
    },
    {
      "inputs": [],
      "name": "MAX_PRICE",
      "outputs": [
        {
          "internalType": "uint256",
          "name": "",
          "type": "uint256"
        }
      ],
      "stateMutability": "view",
      "type": "function"
    },
    {
      "inputs": [],
      "name": "PLATFORM_PERCENTAGE",
      "outputs": [
        {
          "internalType": "uint256",
          "name": "",
          "type": "uint256"
        }
      ],
      "stateMutability": "view",
      "type": "function"
    },
    {
      "inputs": [],
      "name": "REGENERATION_THRESHOLD",
      "outputs": [
        {
          "internalType": "uint256",
          "name": "",
          "type": "uint256"
        }
      ],
      "stateMutability": "view",
      "type": "function"
    },
    {
      "inputs": [],
      "name": "SELLER_PERCENTAGE",
      "outputs": [
        {
          "internalType": "uint256",
          "name": "",
          "type": "uint256"
        }
      ],
      "stateMutability": "view",
      "type": "function"
    },
    {
      "inputs": [],
      "name": "TREASURY",
      "outputs": [
        {
          "internalType": "address",
          "name": "",
          "type": "address"
        }
      ],
      "stateMutability": "view",
      "type": "function"
    },
    {
      "inputs": [
        {
          "internalType": "uint256",
          "name": "",
          "type": "uint256"
        },
        {
          "internalType": "address",
          "name": "",
          "type": "address"
        }
      ],
      "name": "accessInfo",
      "outputs": [
        {
          "internalType": "uint256",
          "name": "expiryTime",
          "type": "uint256"
        },
        {
          "internalType": "bool",
          "name": "hasAccess",
          "type": "bool"
        }
      ],
      "stateMutability": "view",
      "type": "function"
    },
    {
      "inputs": [
        {
          "internalType": "address",
          "name": "account",
          "type": "address"
        },
        {
          "internalType": "uint256",
          "name": "id",
          "type": "uint256"
        }
      ],
      "name": "balanceOf",
      "outputs": [
        {
          "internalType": "uint256",
          "name": "",
          "type": "uint256"
        }
      ],
      "stateMutability": "view",
      "type": "function"
    },
    {
      "inputs": [
        {
          "internalType": "address[]",
          "name": "accounts",
          "type": "address[]"
        },
        {
          "internalType": "uint256[]",
          "name": "ids",
          "type": "uint256[]"
        }
      ],
      "name": "balanceOfBatch",
      "outputs": [
        {
          "internalType": "uint256[]",
          "name": "",
          "type": "uint256[]"
        }
      ],
      "stateMutability": "view",
      "type": "function"
    },
    {
      "inputs": [
        {
          "internalType": "uint256",
          "name": "_articleId",
          "type": "uint256"
        }
      ],
      "name": "burnLicenseForAccess",
      "outputs": [],
      "stateMutability": "nonpayable",
      "type": "function"
    },
    {
      "inputs": [
        {
          "internalType": "uint256",
          "name": "_articleId",
          "type": "uint256"
        },
        {
          "internalType": "address",
          "name": "_seller",
          "type": "address"
        }
      ],
      "name": "buyLicense",
      "outputs": [],
      "stateMutability": "payable",
      "type": "function"
    },
    {
      "inputs": [
        {
          "internalType": "uint256",
          "name": "",
          "type": "uint256"
        },
        {
          "internalType": "uint256",
          "name": "",
          "type": "uint256"
        }
      ],
      "name": "dailyPurchases",
      "outputs": [
        {
          "internalType": "uint256",
          "name": "",
          "type": "uint256"
        }
      ],
      "stateMutability": "view",
      "type": "function"
    },
    {
      "inputs": [],
      "name": "emergencyWithdrawGasPool",
      "outputs": [],
      "stateMutability": "nonpayable",
      "type": "function"
    },
    {
      "inputs": [],
      "name": "gasPool",
      "outputs": [
        {
          "internalType": "uint256",
          "name": "",
          "type": "uint256"
        }
      ],
      "stateMutability": "view",
      "type": "function"
    },
    {
      "inputs": [
        {
          "internalType": "uint256",
          "name": "_articleId",
          "type": "uint256"
        }
      ],
      "name": "getArticleSummary",
      "outputs": [
        {
          "internalType": "string",
          "name": "",
          "type": "string"
        }
      ],
      "stateMutability": "view",
      "type": "function"
    },
    {
      "inputs": [
        {
          "internalType": "uint256",
          "name": "_articleId",
          "type": "uint256"
        }
      ],
      "name": "getCurrentPrice",
      "outputs": [
        {
          "internalType": "uint256",
          "name": "",
          "type": "uint256"
        }
      ],
      "stateMutability": "view",
      "type": "function"
    },
    {
      "inputs": [
        {
          "internalType": "uint256",
          "name": "_articleId",
          "type": "uint256"
        }
      ],
      "name": "getEncryptedContent",
      "outputs": [
        {
          "internalType": "string",
          "name": "",
          "type": "string"
        }
      ],
      "stateMutability": "view",
      "type": "function"
    },
    {
      "inputs": [
        {
          "internalType": "uint256",
          "name": "_articleId",
          "type": "uint256"
        }
      ],
      "name": "getLicenseHolders",
      "outputs": [
        {
          "internalType": "address[]",
          "name": "",
          "type": "address[]"
        },
        {
          "internalType": "uint256[]",
          "name": "",
          "type": "uint256[]"
        }
      ],
      "stateMutability": "view",
      "type": "function"
    },
    {
      "inputs": [
        {
          "internalType": "uint256",
          "name": "_articleId",
          "type": "uint256"
        }
      ],
      "name": "getPurchaseHistory",
      "outputs": [
        {
          "components": [
            {
              "internalType": "uint256",
              "name": "timestamp",
              "type": "uint256"
            },
            {
              "internalType": "uint256",
              "name": "price",
              "type": "uint256"
            },
            {
              "internalType": "address",
              "name": "buyer",
              "type": "address"
            },
            {
              "internalType": "address",
              "name": "seller",
              "type": "address"
            }
          ],
          "internalType": "struct ReaderLicenseAMM.PurchaseRecord[]",
          "name": "",
          "type": "tuple[]"
        }
      ],
      "stateMutability": "view",
      "type": "function"
    },
    {
      "inputs": [
        {
          "internalType": "uint256",
          "name": "_articleId",
          "type": "uint256"
        },
        {
          "internalType": "address",
          "name": "_user",
          "type": "address"
        }
      ],
      "name": "hasActiveAccess",
      "outputs": [
        {
          "internalType": "bool",
          "name": "",
          "type": "bool"
        }
      ],
      "stateMutability": "view",
      "type": "function"
    },
    {
      "inputs": [
        {
          "internalType": "address",
          "name": "account",
          "type": "address"
        },
        {
          "internalType": "address",
          "name": "operator",
          "type": "address"
        }
      ],
      "name": "isApprovedForAll",
      "outputs": [
        {
          "internalType": "bool",
          "name": "",
          "type": "bool"
        }
      ],
      "stateMutability": "view",
      "type": "function"
    },
    {
      "inputs": [
        {
          "internalType": "uint256",
          "name": "",
          "type": "uint256"
        },
        {
          "internalType": "address",
          "name": "",
          "type": "address"
        }
      ],
      "name": "licenseBalances",
      "outputs": [
        {
          "internalType": "uint256",
          "name": "",
          "type": "uint256"
        }
      ],
      "stateMutability": "view",
      "type": "function"
    },
    {
      "inputs": [
        {
          "internalType": "uint256",
          "name": "",
          "type": "uint256"
        }
      ],
      "name": "licenseInfo",
      "outputs": [
        {
          "internalType": "uint256",
          "name": "articleId",
          "type": "uint256"
        },
        {
          "internalType": "uint256",
          "name": "editionNumber",
          "type": "uint256"
        },
        {
          "internalType": "uint256",
          "name": "totalGenerated",
          "type": "uint256"
        },
        {
          "internalType": "uint256",
          "name": "activeLicenses",
          "type": "uint256"
        },
        {
          "internalType": "uint256",
          "name": "lastRegenerationTime",
          "type": "uint256"
        }
      ],
      "stateMutability": "view",
      "type": "function"
    },
    {
      "inputs": [
        {
          "internalType": "uint256",
          "name": "_articleId",
          "type": "uint256"
        },
        {
          "internalType": "address",
          "name": "_holder",
          "type": "address"
        },
        {
          "internalType": "uint256",
          "name": "_count",
          "type": "uint256"
        },
        {
          "internalType": "uint256",
          "name": "_editionNumber",
          "type": "uint256"
        }
      ],
      "name": "mintLicensesToHolder",
      "outputs": [],
      "stateMutability": "nonpayable",
      "type": "function"
    },
    {
      "inputs": [],
      "name": "owner",
      "outputs": [
        {
          "internalType": "address",
          "name": "",
          "type": "address"
        }
      ],
      "stateMutability": "view",
      "type": "function"
    },
    {
      "inputs": [
        {
          "internalType": "uint256",
          "name": "",
          "type": "uint256"
        },
        {
          "internalType": "uint256",
          "name": "",
          "type": "uint256"
        }
      ],
      "name": "purchaseHistory",
      "outputs": [
        {
          "internalType": "uint256",
          "name": "timestamp",
          "type": "uint256"
        },
        {
          "internalType": "uint256",
          "name": "price",
          "type": "uint256"
        },
        {
          "internalType": "address",
          "name": "buyer",
          "type": "address"
        },
        {
          "internalType": "address",
          "name": "seller",
          "type": "address"
        }
      ],
      "stateMutability": "view",
      "type": "function"
    },
    {
      "inputs": [
        {
          "internalType": "uint256",
          "name": "_articleId",
          "type": "uint256"
        }
      ],
      "name": "regenerateLicenses",
      "outputs": [],
      "stateMutability": "nonpayable",
      "type": "function"
    },
    {
      "inputs": [],
      "name": "renounceOwnership",
      "outputs": [],
      "stateMutability": "nonpayable",
      "type": "function"
    },
    {
      "inputs": [
        {
          "internalType": "address",
          "name": "from",
          "type": "address"
        },
        {
          "internalType": "address",
          "name": "to",
          "type": "address"
        },
        {
          "internalType": "uint256[]",
          "name": "ids",
          "type": "uint256[]"
        },
        {
          "internalType": "uint256[]",
          "name": "values",
          "type": "uint256[]"
        },
        {
          "internalType": "bytes",
          "name": "data",
          "type": "bytes"
        }
      ],
      "name": "safeBatchTransferFrom",
      "outputs": [],
      "stateMutability": "nonpayable",
      "type": "function"
    },
    {
      "inputs": [
        {
          "internalType": "address",
          "name": "from",
          "type": "address"
        },
        {
          "internalType": "address",
          "name": "to",
          "type": "address"
        },
        {
          "internalType": "uint256",
          "name": "id",
          "type": "uint256"
        },
        {
          "internalType": "uint256",
          "name": "value",
          "type": "uint256"
        },
        {
          "internalType": "bytes",
          "name": "data",
          "type": "bytes"
        }
      ],
      "name": "safeTransferFrom",
      "outputs": [],
      "stateMutability": "nonpayable",
      "type": "function"
    },
    {
      "inputs": [
        {
          "internalType": "address",
          "name": "operator",
          "type": "address"
        },
        {
          "internalType": "bool",
          "name": "approved",
          "type": "bool"
        }
      ],
      "name": "setApprovalForAll",
      "outputs": [],
      "stateMutability": "nonpayable",
      "type": "function"
    },
    {
      "inputs": [
        {
          "internalType": "uint256",
          "name": "_articleId",
          "type": "uint256"
        }
      ],
      "name": "shouldRegenerate",
      "outputs": [
        {
          "internalType": "bool",
          "name": "",
          "type": "bool"
        }
      ],
      "stateMutability": "view",
      "type": "function"
    },
    {
      "inputs": [
        {
          "internalType": "bytes4",
          "name": "interfaceId",
          "type": "bytes4"
        }
      ],
      "name": "supportsInterface",
      "outputs": [
        {
          "internalType": "bool",
          "name": "",
          "type": "bool"
        }
      ],
      "stateMutability": "view",
      "type": "function"
    },
    {
      "inputs": [
        {
          "internalType": "uint256",
          "name": "",
          "type": "uint256"
        }
      ],
      "name": "totalLicensesEverGenerated",
      "outputs": [
        {
          "internalType": "uint256",
          "name": "",
          "type": "uint256"
        }
      ],
      "stateMutability": "view",
      "type": "function"
    },
    {
      "inputs": [
        {
          "internalType": "address",
          "name": "newOwner",
          "type": "address"
        }
      ],
      "name": "transferOwnership",
      "outputs": [],
      "stateMutability": "nonpayable",
      "type": "function"
    },
    {
      "inputs": [
        {
          "internalType": "uint256",
          "name": "tokenId",
          "type": "uint256"
        }
      ],
      "name": "uri",
      "outputs": [
        {
          "internalType": "string",
          "name": "",
          "type": "string"
        }
      ],
      "stateMutability": "view",
      "type": "function"
    }
  ],
  "bytecode": "0x60a034620001d8576001600160401b0390601f6200334c38819003918201601f191683019184831184841017620001c257808492602094604052833981010312620001d857516001600160a01b039182821691829003620001d857604051906020820190811182821017620001c25760405260008091526002546001908181811c91168015620001b7575b6020821014620001a357601f811162000159575b50508060025533156200014157600354903360018060a01b03198316176003557f8be0079c531659141344cd1fd0a4f28419497f9722a3daafe3b4186f6b6457e0604051943393169180a360805261316e9081620001de823960805181818161049501528181610b1d01528181610d0201528181610e9301528181610f920152818161139901528181611594015281816127e0015281816128de0152612f480152f35b60249060405190631e4fbdf760e01b82526004820152fd5b60028352601f0160051c7f405787fa12a823e0f2b7631cc41b3ba8828b3321ca811111fa75cd3aa3bb5ace908101905b8181106200019857506200009e565b838155820162000189565b634e487b7160e01b83526022600452602483fd5b90607f16906200008a565b634e487b7160e01b600052604160045260246000fd5b600080fdfe6080604052600436101561001257600080fd5b60003560e01c8062fdd58e1461028657806301c11d961461028157806301ffc9a71461027c5780630813d3f61461027757806309886c9c146102725780630e89341c1461026d5780631453a424146102685780631e084558146102635780632d2c55651461025e5780632eb2c2d61461025957806343c7580e146102545780634e1273f41461024f578063607ea36d1461024a578063715018a6146102455780637200952814610240578063753157161461023b5780638d40e0cd146102365780638da5cb5b1461023157806395f58ab81461022c57806398e9d0e014610227578063996cb74514610222578063a22cb4651461021d578063ab0b8b0414610218578063b3c655c014610213578063bca590031461020e578063c55d0f5614610209578063c98d6e9914610204578063ca9f19ef146101ff578063cb8b2522146101fa578063df81a823146101f5578063e3685397146101f0578063e985e9c5146101eb578063f242432a146101e6578063f24c4eac146101e1578063f2fde38b146101dc578063f499924b146101d7578063f4bf28a0146101d2578063f86325ed146101cd5763fa08b038146101c857600080fd5b611b1a565b611af8565b611a50565b6119bb565b611929565b6117cd565b61170b565b6116a3565b611687565b61153f565b61151d565b611501565b6114c7565b6114a1565b611475565b611361565b6112ab565b6111eb565b610ec2565b610e7d565b610e0e565b610dae565b610cba565b610c0f565b610bf3565b610b95565b610aef565b610a33565b6109c6565b610898565b6106ec565b610694565b61064c565b61045f565b6103e7565b610395565b610327565b6102f2565b6102a1565b6001600160a01b0381160361029c57565b600080fd5b3461029c57604036600319011261029c5760206102e96004356102c38161028b565b6024356000526000835260406000209060018060a01b0316600052602052604060002090565b54604051908152f35b3461029c57600036600319011261029c576020604051670de0b6b3a76400008152f35b6001600160e01b031981160361029c57565b3461029c57602036600319011261029c57602060043561034681610315565b63ffffffff60e01b16636cdb3d1360e11b8114908115610384575b8115610373575b506040519015158152f35b6301ffc9a760e01b14905038610368565b6303a24d0760e21b81149150610361565b3461029c576000806003193601126103e4576103af611b38565b80808080600b5481600b5560018060a01b03600354168282156103db575bf1156103d65780f35b612177565b506108fc6103cd565b80fd5b3461029c57600036600319011261029c576020604051600a8152f35b60005b8381106104165750506000910152565b8181015183820152602001610406565b9060209161043f81518092818552858086019101610403565b601f01601f1916010190565b90602061045c928181520190610426565b90565b3461029c57602036600319011261029c576040516376e7d7f360e11b815260048035908201526000816024816001600160a01b037f0000000000000000000000000000000000000000000000000000000000000000165afa80156103d65760009081928291610617575b506040517f7b226e616d65223a2022526561646572204c6963656e7365202d2000000000006020820152928392603b840161050391613121565b61088b60f21b81526002016f113232b9b1b934b83a34b7b7111d101160811b815260100161053091613121565b61088b60f21b81526002016e2261747472696275746573223a205b60881b8152600f017f7b2274726169745f74797065223a20224c6f636174696f6e222c202276616c7581526432911d101160d91b602082015260250161059091613121565b62089f4b60ea1b81526003017f7b2274726169745f74797065223a20224c6963656e73652054797065222c202281527f76616c7565223a202252656164657220416363657373227d00000000000000006020820152603801615d7d60f01b815260020103601f1981018252610605908261076e565b60405161061381928261044b565b0390f35b91905061063692503d8091833e61062e818361076e565b8101906125d6565b50505050505050509450509190509091386104c9565b3461029c57604036600319011261029c5760206102e960243561066e8161028b565b6004356000526006835260406000209060018060a01b0316600052602052604060002090565b3461029c57602036600319011261029c57600435600052600560205260a06040600020805490600181015490600281015460046003830154920154926040519485526020850152604084015260608301526080820152f35b3461029c57600036600319011261029c576020604051739402f9f20b4a27b55b1cc6cf015d98f764814fb28152f35b634e487b7160e01b600052604160045260246000fd5b6080810190811067ffffffffffffffff82111761074d57604052565b61071b565b6020810190811067ffffffffffffffff82111761074d57604052565b90601f8019910116810190811067ffffffffffffffff82111761074d57604052565b6040519061079d82610731565b565b604051906040820182811067ffffffffffffffff82111761074d57604052565b67ffffffffffffffff811161074d5760051b60200190565b81601f8201121561029c578035916107ee836107bf565b926107fc604051948561076e565b808452602092838086019260051b82010192831161029c578301905b828210610826575050505090565b81358152908301908301610818565b67ffffffffffffffff811161074d57601f01601f191660200190565b81601f8201121561029c5780359061086882610835565b92610876604051948561076e565b8284526020838301011161029c57816000926020809301838601378301015290565b3461029c5760a036600319011261029c57600480356108b68161028b565b6024356108c28161028b565b67ffffffffffffffff9060443582811161029c576108e390369086016107d7565b9060643583811161029c576108fb90369087016107d7565b9260843590811161029c576109139036908701610851565b936001600160a01b038082169033821415806109a2575b6109755783161561095d5715610946576109449550611e95565b005b604051626a0d4560e21b8152600081880152602490fd5b604051632bfa23e760e11b8152600081890152602490fd5b6040805163711bec9160e11b815233818b019081526001600160a01b038616602082015290918291010390fd5b50600082815260016020908152604080832033845290915290205460ff161561092a565b3461029c57602036600319011261029c5760206109e4600435612d87565b6040519015158152f35b90815180825260208080930193019160005b828110610a0e575050505090565b835185529381019392810192600101610a00565b90602061045c9281815201906109ee565b3461029c57604036600319011261029c5760043567ffffffffffffffff80821161029c573660238301121561029c578160040135610a70816107bf565b92610a7e604051948561076e565b81845260209160248386019160051b8301019136831161029c57602401905b828210610ad6578560243586811161029c5761061391610ac4610aca9236906004016107d7565b90611bd4565b60405191829182610a22565b8380918335610ae48161028b565b815201910190610a9d565b3461029c57602036600319011261029c576040516376e7d7f360e11b815260048035908201526000816024817f00000000000000000000000000000000000000000000000000000000000000006001600160a01b03165afa80156103d65761061391600091610b6e575b50604051918291602083526020830190610426565b610b81913d8091833e61062e818361076e565b505050505050505050509250505038610b59565b3461029c576000806003193601126103e457610baf611b38565b600380546001600160a01b0319811690915581906001600160a01b03167f8be0079c531659141344cd1fd0a4f28419497f9722a3daafe3b4186f6b6457e08280a380f35b3461029c57600036600319011261029c57602060405160468152f35b3461029c57602036600319011261029c57600435610c2c81612d87565b15610c7557610c506611c37937e0800091610c4b83600b541015612dd3565b612ee2565b610c63610c5e600b5461273a565b600b55565b600080808080943382f1156103d65780f35b60405162461bcd60e51b815260206004820152601760248201527f526567656e65726174696f6e206e6f74206e65656465640000000000000000006044820152606490fd5b3461029c57602036600319011261029c57600435610cd833826130b9565b15610d6a576040516376e7d7f360e11b815260048101919091526000816024816001600160a01b037f0000000000000000000000000000000000000000000000000000000000000000165afa80156103d65761061391600091610d43575b506040519182918261044b565b610d56913d8091833e61062e818361076e565b505050505050505050505091505038610d36565b606460405162461bcd60e51b815260206004820152602060248201527f4e6f206163746976652061636365737320746f20746869732061727469636c656044820152fd5b3461029c57600036600319011261029c576003546040516001600160a01b039091168152602090f35b634e487b7160e01b600052603260045260246000fd5b8054821015610e095760005260206000209060021b0190600090565b610dd7565b3461029c57604036600319011261029c5760243560043560005260096020526040600020805482101561029c57608091610e4791610ded565b5080549060018101549060018060a01b036003816002840154169201541691604051938452602084015260408301526060820152f35b3461029c57600036600319011261029c576040517f00000000000000000000000000000000000000000000000000000000000000006001600160a01b03168152602090f35b604036600319011261029c57602435600435610edd8261028b565b610f17610f0f83610ef8846000526006602052604060002090565b9060018060a01b0316600052602052604060002090565b541515612a1a565b610f2081612799565b91610f2a83612093565b92610f3784341015612a5f565b610f4a610f43826126af565b6064900490565b91610f57610f43836126c5565b94610f6b86610f66868661275e565b61275e565b6040516376e7d7f360e11b8152600481018790526000976001600160a01b039189816024817f000000000000000000000000000000000000000000000000000000000000000087165afa9081156103d6578a916111c3575b50610fdc86610ef88b6000526006602052604060002090565b610fe68154612aa2565b9055611012610fff8a6000526006602052604060002090565b3360009081526020919091526040902090565b61101c8154611bac565b9055611031611029612183565b8a3389611c64565b89808080868a169b8c8282156111ba575bf1156103d6578992839283928392839183156111b0575b1690f1156103d65786808080938181156111a7575b739402f9f20b4a27b55b1cc6cf015d98f764814fb290f1156103d65761111a869261109d610c5e600b54612093565b6110c96201518042046110ba896000526008602052604060002090565b90600052602052604060002090565b6110d38154611bac565b90556110e9876000526009602052604060002090565b6111156110f4610790565b42815260208101889052336040820152926001600160a01b03166060840152565b612aaf565b80341161117a575b5050827f3846a81a03c71d25212027d222553680c4fc1bd52b8dfb1f1fbbbcd74c8fec796040518061115a3395829190602083019252565b0390a461116681612d87565b61116e575080f35b61117790612ee2565b80f35b818061118781933461275e565b81811561119e575b3390f1156103d6578338611122565b506108fc61118f565b506108fc61106e565b6108fc9250611059565b506108fc611042565b6111d791503d808c833e61062e818361076e565b505050505050505050935050505038610fc3565b3461029c57604036600319011261029c576004356112088161028b565b602435908115159081830361029c576001600160a01b038116928315611293576112546112659233600052600160205260406000209060018060a01b0316600052602052604060002090565b9060ff801983541691151516179055565b6040519081527f17307eab39ab6107e8899845ad3d59bd9653f200f220920489ca2b5937696c3160203392a3005b60405162ced3e160e81b815260006004820152602490fd5b3461029c57604036600319011261029c5760406112f36024356112cd8161028b565b6004356000526007602052826000209060018060a01b0316600052602052604060002090565b60ff6001825492015416825191825215156020820152f35b9092916040820191604081528451809352606081019260208096019060005b8181106113445750505061045c93948184039101526109ee565b82516001600160a01b03168652948701949187019160010161132a565b3461029c57602036600319011261029c57604051639fb53fcb60e01b8152600480359082018190526000826024816001600160a01b037f0000000000000000000000000000000000000000000000000000000000000000165afa9182156103d657600092611452575b506113d58251611b64565b9160005b81518110156114435761143e9061142d6113fd856000526006602052604060002090565b61141761140a8487611bc0565b516001600160a01b031690565b60018060a01b0316600052602052604060002090565b546114388287611bc0565b52611bac565b6113d9565b6040518061061386858361130b565b61146e91923d8091833e611466818361076e565b810190612e17565b90386113ca565b3461029c57602036600319011261029c57600435600052600a6020526020604060002054604051908152f35b3461029c57602036600319011261029c5760206114bf600435612799565b604051908152f35b3461029c57604036600319011261029c57600435600052600860205260406000206024356000526020526020604060002054604051908152f35b3461029c57600036600319011261029c57602060405160148152f35b3461029c57600036600319011261029c5760206040516611c37937e080008152f35b3461029c57608036600319011261029c5760243560043561155f8261028b565b604435917fe3726a6d4ed43d7d4677d7dffa4cf0a0d67d40db3cd11cccf053dddceaf3d7d3906001600160a01b03906115bb337f0000000000000000000000000000000000000000000000000000000000000000841614612443565b836115d0816000526005602052604060002090565b5560026115e7856000526005602052604060002090565b016115f38682546120cc565b9055600361160b856000526005602052604060002090565b016116178682546120cc565b905561162d84600052600a602052604060002090565b6116388682546120cc565b905561165281610ef8866000526006602052604060002090565b61165d8682546120cc565b905561167261166a612183565b8686846124e6565b604080519586526064356020870152911693a3005b3461029c57600036600319011261029c57602060405160328152f35b3461029c57604036600319011261029c57602060ff6116ff6004356116c78161028b565b602435906116d48261028b565b60018060a01b03166000526001845260406000209060018060a01b0316600052602052604060002090565b54166040519015158152f35b3461029c5760a036600319011261029c576004356117288161028b565b6024356117348161028b565b60843567ffffffffffffffff811161029c57611754903690600401610851565b906001600160a01b0383163381141590816117a7575b5061178057610944926064359160443591611ce5565b60405163711bec9160e11b81523360048201526001600160a01b0384166024820152604490fd5b6000908152600160209081526040808320338452909152902060ff91505416153861176a565b3461029c57602036600319011261029c576004356118036117fb610fff836000526006602052604060002090565b541515612b36565b61181c61181761181333846130b9565b1590565b612b77565b61183433610ef8836000526006602052604060002090565b61183e8154612aa2565b90556003611856826000526005602052604060002090565b016118618154612aa2565b905561186d8133612be6565b611876426120a7565b6118a861188161079f565b828152600160208201526118a333610ef8866000526007602052604060002090565b612bc3565b604051818152339083907f8f4d6f0c7458447e5095acea28045c0cd637aa3b49812761a7ac022e6d643bf690602090a3817fc56e8aa8e9f4284830fd4657bc77d60640af2ec679f2099faf320ee4202ff4226040518061190e3395829190602083019252565b0390a361191a81612d87565b61192057005b61094490612ee2565b3461029c57602036600319011261029c576004356119468161028b565b61194e611b38565b6001600160a01b039081169081156119a257600354826bffffffffffffffffffffffff60a01b821617600355167f8be0079c531659141344cd1fd0a4f28419497f9722a3daafe3b4186f6b6457e0600080a3005b604051631e4fbdf760e01b815260006004820152602490fd5b3461029c57604036600319011261029c5760206109e46024356119dd8161028b565b6004356130b9565b60208082019080835283518092528060408094019401926000905b838210611a0f57505050505090565b8451805187528084015187850152808201516001600160a01b0390811688840152606091820151169087015260809095019493820193600190910190611a00565b3461029c5760208060031936011261029c576004908135600052600981526040918260002090815491611a82836107bf565b93611a8f8651958661076e565b83855260009182528082208186015b858410611ab25787518061061389826119e5565b84836001928a51611ac281610731565b855481528486015483820152848060a01b03806002880154168d8301526003870154166060820152815201920193019290611a9e565b3461029c57600036600319011261029c576020604051662386f26fc100008152f35b3461029c57600036600319011261029c576020600b54604051908152f35b6003546001600160a01b03163303611b4c57565b60405163118cdaa760e01b8152336004820152602490fd5b90611b6e826107bf565b611b7b604051918261076e565b8281528092611b8c601f19916107bf565b0190602036910137565b634e487b7160e01b600052601160045260246000fd5b6000198114611bbb5760010190565b611b96565b8051821015610e095760209160051b010190565b91909180518351808203611c42575050611bee8151611b64565b90600090815b8151811015611c3a578061142d611c359260051b85602080808489010151938c010151825252604086209060018060a01b0316600052602052604060002090565b611bf4565b509193505050565b604051635b05999160e01b815260048101919091526024810191909152604490fd5b9192916001600160a01b0382811615611ccc57811615611cb457611cac61079d9490604051916001835260208301526040820190600182526001606084015260808301604052565b929091611e95565b604051626a0d4560e21b815260006004820152602490fd5b604051632bfa23e760e11b815260006004820152602490fd5b92939290916001600160a01b0380841615611ccc57821615611cb45761079d94611cac60405192600184526020840152604083019160018352606084015260808301604052565b908051835190818103611c4257505060005b8151811015611daa57600581901b8281016020908101519186010151611d78929185906001600160a01b038216611d7d575b505050611bac565b611d3e565b611da091610ef8611d98926000526000602052604060002090565b9182546120cc565b9055388481611d70565b50805191939291600103611e4c576020818101518382015160408051928352928201526001600160a01b0386169160009133917fc3d58168c5ae7397731d063d5bbf3d657854427343f4c083240f7aacaa2d0f6291a45b6001600160a01b038416611e16575b50505050565b8051600103611e3d5790602080611e349593015191015191336121c6565b38808080611e10565b611e4793336123d7565b611e34565b6040516001600160a01b0385169060009033907f4a39dc06d4c0dbc64b70af90fd698a233a518aa5d07e595d983b8c0526c8f7fb9080611e8d8888836120d9565b0390a4611e01565b949190918151845190818103611c4257505060005b8251811015611f9d57600581901b83810160209081015191870101516001600160a01b03929186908a8516611f16575b611eec948216611ef157505050611bac565b611eaa565b611f0c91610ef8611d98926000526000602052604060002090565b9055388581611d70565b9192939050611f338a610ef8846000526000602052604060002090565b54838110611f665791879184611eec96959403611f5e8d610ef8856000526000602052604060002090565b559450611eda565b6040516303dee4c560e01b81526001600160a01b038c16600482015260248101919091526044810184905260648101839052608490fd5b509491939290936001855114600014612048576020858101518382015160408051928352928201526001600160a01b03838116929086169133917fc3d58168c5ae7397731d063d5bbf3d657854427343f4c083240f7aacaa2d0f6291a45b6001600160a01b038116612011575b5050505050565b84516001036120375760208061202d96015192015192336122c0565b388080808061200a565b6120439491923361240c565b61202d565b6040516001600160a01b03828116919085169033907f4a39dc06d4c0dbc64b70af90fd698a233a518aa5d07e595d983b8c0526c8f7fb908061208b888c836120d9565b0390a4611ffb565b906611c37937e080008201809211611bbb57565b9062093a808201809211611bbb57565b90662386f26fc10000918201809211611bbb57565b91908201809211611bbb57565b90916120f061045c936040845260408401906109ee565b9160208184039101526109ee565b9081602091031261029c575161045c81610315565b909260a09261045c9594600180861b0316835260006020840152604083015260608201528160808201520190610426565b919261045c95949160a094600180871b038092168552166020840152604083015260608201528160808201520190610426565b6040513d6000823e3d90fd5b6040519061219082610752565b60008252565b3d156121c1573d906121a782610835565b916121b5604051938461076e565b82523d6000602084013e565b606090565b9293919093843b6121d8575050505050565b6020916121fb604051948593849363f23a6e6160e01b9889865260048601612113565b038160006001600160a01b0388165af160009181612290575b506122535782612222612196565b805191908261224c57604051632bfa23e760e11b81526001600160a01b0383166004820152602490fd5b9050602001fd5b6001600160e01b0319160361226d5750388080808061200a565b604051632bfa23e760e11b81526001600160a01b03919091166004820152602490fd5b6122b291925060203d81116122b9575b6122aa818361076e565b8101906120fe565b9038612214565b503d6122a0565b939290949194853b6122d5575b505050505050565b6122f8602093604051958694859463f23a6e6160e01b998a875260048701612144565b038160006001600160a01b0388165af16000918161233a575b5061231f5782612222612196565b6001600160e01b0319160361226d57503880808080806122cd565b61235391925060203d81116122b9576122aa818361076e565b9038612311565b9261238961045c95936123979360018060a01b031686526000602087015260a0604087015260a08601906109ee565b9084820360608601526109ee565b916080818403910152610426565b939061045c9593612389916123979460018060a01b03809216885216602087015260a0604087015260a08601906109ee565b9293919093843b6123e9575050505050565b6020916121fb604051948593849363bc197c8160e01b988986526004860161235a565b939290949194853b61242057505050505050565b6122f8602093604051958694859463bc197c8160e01b998a8752600487016123a5565b1561244a57565b60405162461bcd60e51b815260206004820152602860248201527f4f6e6c7920456e6372797074656441727469636c657320636f6e74726163742060448201526718d85b881b5a5b9d60c21b6064820152608490fd5b9091906001600160a01b03811615611ccc576124e061079d9390604051916001835260208301526040820190600182526001606084015260808301604052565b91611d2c565b919291906001600160a01b03821615611ccc5761079d936124e060405192600184526020840152604083019160018352606084015260808301604052565b1561252b57565b60405162461bcd60e51b815260206004820152602260248201527f4e6f206c6963656e73657320657869737420666f7220746869732061727469636044820152616c6560f01b6064820152608490fd5b81601f8201121561029c57805161259181610835565b9261259f604051948561076e565b8184526020828401011161029c5761045c9160208085019101610403565b519061079d8261028b565b519060ff8216820361029c57565b6101c08183031261029c57805192602082015167ffffffffffffffff9081811161029c578461260691850161257b565b93604084015182811161029c578161261f91860161257b565b93606081015183811161029c578261263891830161257b565b93612645608083016125bd565b9360a083015181811161029c578461265e91850161257b565b9360c084015191821161029c5761267691840161257b565b9160e081015191610100820151916101208101519161014082015191610160810151916101a06126a961018084016125c8565b92015190565b90604682029180830460461490151715611bbb57565b90601482029180830460141490151715611bbb57565b81810292918115918404141715611bbb57565b156126f557565b60405162461bcd60e51b815260206004820152601d60248201527f496e76616c6964206c6963656e736520636f6e66696775726174696f6e0000006044820152606490fd5b6611c37937e07fff19810191908211611bbb57565b600019810191908211611bbb57565b91908203918211611bbb57565b634e487b7160e01b600052601260045260246000fd5b801561279457670dbd2fc137a300000490565b61276b565b6127ad81600052600a602052604060002090565b546127b9811515612524565b6040516376e7d7f360e11b8152600481018390526000929083816024816001600160a01b037f0000000000000000000000000000000000000000000000000000000000000000165afa80156103d657612864936128266128599261285e948890899261288b575b506126db565b6128318115156126ee565b60018111156128805761284e6128496128549261274f565b612781565b9161274f565b6126db565b6120b7565b906128b5565b670de0b6b3a764000091508181111561287b575090565b905090565b50612854869161274f565b90506128a191503d808a833e61062e818361076e565b50509a505050965050505050505038612820565b6040516376e7d7f360e11b81526004810182905260009391929084816024816001600160a01b037f0000000000000000000000000000000000000000000000000000000000000000165afa9081156103d6576129269161291d9187916129f2575b504261275e565b62015180900490565b9380936201518042049082955b878710806129e8575b156129db57612970612958836000526008602052604060002090565b612962898661275e565b600052602052604060002090565b5461298d5761298161298791611bac565b96611bac565b95612933565b93955050509193505b601e8111156129cf57506129af610f43601e5b846126db565b9050808211156129c25761045c9161275e565b505066038d7ea4c6800090565b610f436129af916129a9565b9395505050919350612996565b50601e871061293c565b612a0691503d8089833e61062e818361076e565b505050505050965050505050505038612916565b15612a2157565b60405162461bcd60e51b815260206004820152601660248201527553656c6c657220686173206e6f206c6963656e73657360501b6044820152606490fd5b15612a6657565b60405162461bcd60e51b8152602060048201526014602482015273125b9cdd59999a58da595b9d081c185e5b595b9d60621b6044820152606490fd5b8015611bbb576000190190565b80546801000000000000000081101561074d57612ad191600182018155610ded565b612b2057815181556020820151600182015560408201516002820180546001600160a01b039283166001600160a01b031991821617909155606090930151600390920180549093169116179055565b634e487b7160e01b600052600060045260246000fd5b15612b3d57565b60405162461bcd60e51b81526020600482015260126024820152712737903634b1b2b739b2903a3790313ab93760711b6044820152606490fd5b15612b7e57565b60405162461bcd60e51b815260206004820152601960248201527f416c7265616479206861732061637469766520616363657373000000000000006044820152606490fd5b6001602061079d93805184550151151591019060ff801983541691151516179055565b6001600160a01b038116918215611cb457612c20604051916001835260208301526040820190600182526001606084015260808301604052565b919060409460008651612c3281610752565b528151845190818103612d6657505060005b8251811015612cdf578060051b60208082860101519187010151612c7686610ef8846000526000602052604060002090565b54818110612ca95786610ef8612ca4959493612c9e9303936000526000602052604060002090565b55611bac565b612c44565b89516303dee4c560e01b81526001600160a01b038816600482015260248101919091526044810182905260648101839052608490fd5b50949060009493925060018151148514612d345760209081015192810151915192835282015233907fc3d58168c5ae7397731d063d5bbf3d657854427343f4c083240f7aacaa2d0f629080604081015b0390a4565b905133927f4a39dc06d4c0dbc64b70af90fd698a233a518aa5d07e595d983b8c0526c8f7fb928291612d2f91836120d9565b8751635b05999160e01b815260048101919091526024810191909152604490fd5b6000526005602052604060002060036002820154910154908015612dcc5781810391818311611bbb57606483029283046064149082141715611bbb5760329104101590565b5050600090565b15612dda57565b60405162461bcd60e51b8152602060048201526015602482015274125b9cdd59999a58da595b9d0819d85cc81c1bdbdb605a1b6044820152606490fd5b602090818184031261029c5780519067ffffffffffffffff821161029c57019180601f8401121561029c578251612e4d816107bf565b93612e5b604051958661076e565b818552838086019260051b82010192831161029c578301905b828210612e82575050505090565b8380918351612e908161028b565b815201910190612e74565b15612ea257565b60405162461bcd60e51b815260206004820152600e60248201526d4e6f204e465420686f6c6465727360901b6044820152606490fd5b8115612794570690565b90612f1c6002612efc846000526005602052604060002090565b01546003612f14856000526005602052604060002090565b01549061275e565b9182156130b457604051639fb53fcb60e01b815260048101829052926000846024816001600160a01b037f0000000000000000000000000000000000000000000000000000000000000000165afa9384156103d657600094613099575b50612f8684511515612e9b565b60005b81811061303e5750819293506003612fcb7eb4ea54fb8c538cd9c23515e23d54351acc66c4539507193ceae7d70e65d30d936000526005602052604060002090565b01612fd78282546120cc565b9055426004612ff0856000526005602052604060002090565b015561300683600052600a602052604060002090565b6130118282546120cc565b90556003613029846000526005602052604060002090565b015460408051928352602083019190915290a2565b6130949061308f61305c61140a613056895185612ed8565b89611bc0565b61307481610ef8886000526006602052604060002090565b61307e8154611bac565b905585613089612183565b916124a0565b611bac565b612f89565b6130ad91943d8091833e611466818361076e565b9238612f79565b509050565b60009081526007602090815260408083206001600160a01b0390941683529290522060405190604082019180831067ffffffffffffffff84111761074d5760209260405260ff6001835493848452015416151592839101528161311a575090565b9050421090565b9061313460209282815194859201610403565b019056fea2646970667358221220b1909d321a4c0b53c78dfefd6f2029d54ebfec0974cc8909a4ea00f62112975864736f6c63430008140033",
  "linkReferences": {},
  "deployedLinkReferences": {}
}