{
  "_format": "hh-sol-artifact-1",
  "contractName": "EmojiToken",
  "sourceName": "contracts/token/EmojiToken.sol",
  "abi": [
    {
      "inputs": [
        {
          "internalType": "address",
          "name": "_treasury",
          "type": "address"
        },
        {
          "internalType": "address",
          "name": "_founder",
          "type": "address"
        }
      ],
      "stateMutability": "nonpayable",
      "type": "constructor"
    },
    {
      "inputs": [],
      "name": "AccessControlBadConfirmation",
      "type": "error"
    },
    {
      "inputs": [
        {
          "internalType": "address",
          "name": "account",
          "type": "address"
        },
        {
          "internalType": "bytes32",
          "name": "neededRole",
          "type": "bytes32"
        }
      ],
      "name": "AccessControlUnauthorizedAccount",
      "type": "error"
    },
    {
      "inputs": [
        {
          "internalType": "address",
          "name": "spender",
          "type": "address"
        },
        {
          "internalType": "uint256",
          "name": "allowance",
          "type": "uint256"
        },
        {
          "internalType": "uint256",
          "name": "needed",
          "type": "uint256"
        }
      ],
      "name": "ERC20InsufficientAllowance",
      "type": "error"
    },
    {
      "inputs": [
        {
          "internalType": "address",
          "name": "sender",
          "type": "address"
        },
        {
          "internalType": "uint256",
          "name": "balance",
          "type": "uint256"
        },
        {
          "internalType": "uint256",
          "name": "needed",
          "type": "uint256"
        }
      ],
      "name": "ERC20InsufficientBalance",
      "type": "error"
    },
    {
      "inputs": [
        {
          "internalType": "address",
          "name": "approver",
          "type": "address"
        }
      ],
      "name": "ERC20InvalidApprover",
      "type": "error"
    },
    {
      "inputs": [
        {
          "internalType": "address",
          "name": "receiver",
          "type": "address"
        }
      ],
      "name": "ERC20InvalidReceiver",
      "type": "error"
    },
    {
      "inputs": [
        {
          "internalType": "address",
          "name": "sender",
          "type": "address"
        }
      ],
      "name": "ERC20InvalidSender",
      "type": "error"
    },
    {
      "inputs": [
        {
          "internalType": "address",
          "name": "spender",
          "type": "address"
        }
      ],
      "name": "ERC20InvalidSpender",
      "type": "error"
    },
    {
      "anonymous": false,
      "inputs": [
        {
          "indexed": true,
          "internalType": "address",
          "name": "owner",
          "type": "address"
        },
        {
          "indexed": true,
          "internalType": "address",
          "name": "spender",
          "type": "address"
        },
        {
          "indexed": false,
          "internalType": "uint256",
          "name": "value",
          "type": "uint256"
        }
      ],
      "name": "Approval",
      "type": "event"
    },
    {
      "anonymous": false,
      "inputs": [
        {
          "indexed": true,
          "internalType": "uint256",
          "name": "profileId",
          "type": "uint256"
        },
        {
          "indexed": true,
          "internalType": "address",
          "name": "owner",
          "type": "address"
        },
        {
          "indexed": false,
          "internalType": "uint256",
          "name": "amount",
          "type": "uint256"
        }
      ],
      "name": "ProfileBonusClaimed",
      "type": "event"
    },
    {
      "anonymous": false,
      "inputs": [
        {
          "indexed": true,
          "internalType": "bytes32",
          "name": "role",
          "type": "bytes32"
        },
        {
          "indexed": true,
          "internalType": "bytes32",
          "name": "previousAdminRole",
          "type": "bytes32"
        },
        {
          "indexed": true,
          "internalType": "bytes32",
          "name": "newAdminRole",
          "type": "bytes32"
        }
      ],
      "name": "RoleAdminChanged",
      "type": "event"
    },
    {
      "anonymous": false,
      "inputs": [
        {
          "indexed": true,
          "internalType": "bytes32",
          "name": "role",
          "type": "bytes32"
        },
        {
          "indexed": true,
          "internalType": "address",
          "name": "account",
          "type": "address"
        },
        {
          "indexed": true,
          "internalType": "address",
          "name": "sender",
          "type": "address"
        }
      ],
      "name": "RoleGranted",
      "type": "event"
    },
    {
      "anonymous": false,
      "inputs": [
        {
          "indexed": true,
          "internalType": "bytes32",
          "name": "role",
          "type": "bytes32"
        },
        {
          "indexed": true,
          "internalType": "address",
          "name": "account",
          "type": "address"
        },
        {
          "indexed": true,
          "internalType": "address",
          "name": "sender",
          "type": "address"
        }
      ],
      "name": "RoleRevoked",
      "type": "event"
    },
    {
      "anonymous": false,
      "inputs": [
        {
          "indexed": true,
          "internalType": "address",
          "name": "user",
          "type": "address"
        },
        {
          "indexed": false,
          "internalType": "uint256",
          "name": "amount",
          "type": "uint256"
        },
        {
          "indexed": false,
          "internalType": "string",
          "name": "action",
          "type": "string"
        }
      ],
      "name": "TokensBurnedForEngagement",
      "type": "event"
    },
    {
      "anonymous": false,
      "inputs": [
        {
          "indexed": true,
          "internalType": "address",
          "name": "buyer",
          "type": "address"
        },
        {
          "indexed": false,
          "internalType": "uint256",
          "name": "amount",
          "type": "uint256"
        },
        {
          "indexed": false,
          "internalType": "uint256",
          "name": "flowPaid",
          "type": "uint256"
        }
      ],
      "name": "TokensPurchased",
      "type": "event"
    },
    {
      "anonymous": false,
      "inputs": [
        {
          "indexed": true,
          "internalType": "address",
          "name": "from",
          "type": "address"
        },
        {
          "indexed": true,
          "internalType": "address",
          "name": "to",
          "type": "address"
        },
        {
          "indexed": false,
          "internalType": "uint256",
          "name": "value",
          "type": "uint256"
        }
      ],
      "name": "Transfer",
      "type": "event"
    },
    {
      "anonymous": false,
      "inputs": [
        {
          "indexed": true,
          "internalType": "address",
          "name": "newTreasury",
          "type": "address"
        }
      ],
      "name": "TreasuryUpdated",
      "type": "event"
    },
    {
      "inputs": [],
      "name": "DEFAULT_ADMIN_ROLE",
      "outputs": [
        {
          "internalType": "bytes32",
          "name": "",
          "type": "bytes32"
        }
      ],
      "stateMutability": "view",
      "type": "function"
    },
    {
      "inputs": [],
      "name": "ENGAGEMENT_ROLE",
      "outputs": [
        {
          "internalType": "bytes32",
          "name": "",
          "type": "bytes32"
        }
      ],
      "stateMutability": "view",
      "type": "function"
    },
    {
      "inputs": [],
      "name": "FIRST_PROFILES_ALLOCATION",
      "outputs": [
        {
          "internalType": "uint256",
          "name": "",
          "type": "uint256"
        }
      ],
      "stateMutability": "view",
      "type": "function"
    },
    {
      "inputs": [],
      "name": "FIRST_PROFILES_BONUS",
      "outputs": [
        {
          "internalType": "uint256",
          "name": "",
          "type": "uint256"
        }
      ],
      "stateMutability": "view",
      "type": "function"
    },
    {
      "inputs": [],
      "name": "FOUNDER_ALLOCATION",
      "outputs": [
        {
          "internalType": "uint256",
          "name": "",
          "type": "uint256"
        }
      ],
      "stateMutability": "view",
      "type": "function"
    },
    {
      "inputs": [],
      "name": "MAX_PROFILE_BONUSES",
      "outputs": [
        {
          "internalType": "uint256",
          "name": "",
          "type": "uint256"
        }
      ],
      "stateMutability": "view",
      "type": "function"
    },
    {
      "inputs": [],
      "name": "MAX_PURCHASE_PERCENTAGE",
      "outputs": [
        {
          "internalType": "uint256",
          "name": "",
          "type": "uint256"
        }
      ],
      "stateMutability": "view",
      "type": "function"
    },
    {
      "inputs": [],
      "name": "MAX_SUPPLY",
      "outputs": [
        {
          "internalType": "uint256",
          "name": "",
          "type": "uint256"
        }
      ],
      "stateMutability": "view",
      "type": "function"
    },
    {
      "inputs": [],
      "name": "MINTER_ROLE",
      "outputs": [
        {
          "internalType": "bytes32",
          "name": "",
          "type": "bytes32"
        }
      ],
      "stateMutability": "view",
      "type": "function"
    },
    {
      "inputs": [],
      "name": "PRICE",
      "outputs": [
        {
          "internalType": "uint256",
          "name": "",
          "type": "uint256"
        }
      ],
      "stateMutability": "view",
      "type": "function"
    },
    {
      "inputs": [],
      "name": "PUBLIC_SALE_ALLOCATION",
      "outputs": [
        {
          "internalType": "uint256",
          "name": "",
          "type": "uint256"
        }
      ],
      "stateMutability": "view",
      "type": "function"
    },
    {
      "inputs": [],
      "name": "RESERVE_ALLOCATION",
      "outputs": [
        {
          "internalType": "uint256",
          "name": "",
          "type": "uint256"
        }
      ],
      "stateMutability": "view",
      "type": "function"
    },
    {
      "inputs": [],
      "name": "REWARDS_ALLOCATION",
      "outputs": [
        {
          "internalType": "uint256",
          "name": "",
          "type": "uint256"
        }
      ],
      "stateMutability": "view",
      "type": "function"
    },
    {
      "inputs": [
        {
          "internalType": "address",
          "name": "owner",
          "type": "address"
        },
        {
          "internalType": "address",
          "name": "spender",
          "type": "address"
        }
      ],
      "name": "allowance",
      "outputs": [
        {
          "internalType": "uint256",
          "name": "",
          "type": "uint256"
        }
      ],
      "stateMutability": "view",
      "type": "function"
    },
    {
      "inputs": [
        {
          "internalType": "address",
          "name": "spender",
          "type": "address"
        },
        {
          "internalType": "uint256",
          "name": "value",
          "type": "uint256"
        }
      ],
      "name": "approve",
      "outputs": [
        {
          "internalType": "bool",
          "name": "",
          "type": "bool"
        }
      ],
      "stateMutability": "nonpayable",
      "type": "function"
    },
    {
      "inputs": [
        {
          "internalType": "address",
          "name": "account",
          "type": "address"
        }
      ],
      "name": "balanceOf",
      "outputs": [
        {
          "internalType": "uint256",
          "name": "",
          "type": "uint256"
        }
      ],
      "stateMutability": "view",
      "type": "function"
    },
    {
      "inputs": [
        {
          "internalType": "uint256",
          "name": "value",
          "type": "uint256"
        }
      ],
      "name": "burn",
      "outputs": [],
      "stateMutability": "nonpayable",
      "type": "function"
    },
    {
      "inputs": [
        {
          "internalType": "address",
          "name": "from",
          "type": "address"
        },
        {
          "internalType": "uint256",
          "name": "amount",
          "type": "uint256"
        },
        {
          "internalType": "string",
          "name": "action",
          "type": "string"
        }
      ],
      "name": "burnForEngagement",
      "outputs": [],
      "stateMutability": "nonpayable",
      "type": "function"
    },
    {
      "inputs": [
        {
          "internalType": "address",
          "name": "account",
          "type": "address"
        },
        {
          "internalType": "uint256",
          "name": "value",
          "type": "uint256"
        }
      ],
      "name": "burnFrom",
      "outputs": [],
      "stateMutability": "nonpayable",
      "type": "function"
    },
    {
      "inputs": [
        {
          "internalType": "uint256",
          "name": "profileId",
          "type": "uint256"
        }
      ],
      "name": "claimProfileBonus",
      "outputs": [],
      "stateMutability": "nonpayable",
      "type": "function"
    },
    {
      "inputs": [],
      "name": "decimals",
      "outputs": [
        {
          "internalType": "uint8",
          "name": "",
          "type": "uint8"
        }
      ],
      "stateMutability": "view",
      "type": "function"
    },
    {
      "inputs": [
        {
          "internalType": "string",
          "name": "allocationType",
          "type": "string"
        }
      ],
      "name": "getRemainingAllocation",
      "outputs": [
        {
          "internalType": "uint256",
          "name": "",
          "type": "uint256"
        }
      ],
      "stateMutability": "view",
      "type": "function"
    },
    {
      "inputs": [
        {
          "internalType": "bytes32",
          "name": "role",
          "type": "bytes32"
        }
      ],
      "name": "getRoleAdmin",
      "outputs": [
        {
          "internalType": "bytes32",
          "name": "",
          "type": "bytes32"
        }
      ],
      "stateMutability": "view",
      "type": "function"
    },
    {
      "inputs": [
        {
          "internalType": "bytes32",
          "name": "role",
          "type": "bytes32"
        },
        {
          "internalType": "address",
          "name": "account",
          "type": "address"
        }
      ],
      "name": "grantRole",
      "outputs": [],
      "stateMutability": "nonpayable",
      "type": "function"
    },
    {
      "inputs": [
        {
          "internalType": "bytes32",
          "name": "role",
          "type": "bytes32"
        },
        {
          "internalType": "address",
          "name": "account",
          "type": "address"
        }
      ],
      "name": "hasRole",
      "outputs": [
        {
          "internalType": "bool",
          "name": "",
          "type": "bool"
        }
      ],
      "stateMutability": "view",
      "type": "function"
    },
    {
      "inputs": [
        {
          "internalType": "address",
          "name": "to",
          "type": "address"
        },
        {
          "internalType": "uint256",
          "name": "amount",
          "type": "uint256"
        }
      ],
      "name": "mintReserve",
      "outputs": [],
      "stateMutability": "nonpayable",
      "type": "function"
    },
    {
      "inputs": [
        {
          "internalType": "address",
          "name": "to",
          "type": "address"
        },
        {
          "internalType": "uint256",
          "name": "amount",
          "type": "uint256"
        }
      ],
      "name": "mintReward",
      "outputs": [],
      "stateMutability": "nonpayable",
      "type": "function"
    },
    {
      "inputs": [],
      "name": "name",
      "outputs": [
        {
          "internalType": "string",
          "name": "",
          "type": "string"
        }
      ],
      "stateMutability": "view",
      "type": "function"
    },
    {
      "inputs": [
        {
          "internalType": "uint256",
          "name": "",
          "type": "uint256"
        }
      ],
      "name": "profileBonusClaimed",
      "outputs": [
        {
          "internalType": "bool",
          "name": "",
          "type": "bool"
        }
      ],
      "stateMutability": "view",
      "type": "function"
    },
    {
      "inputs": [],
      "name": "profileBonusesIssued",
      "outputs": [
        {
          "internalType": "uint256",
          "name": "",
          "type": "uint256"
        }
      ],
      "stateMutability": "view",
      "type": "function"
    },
    {
      "inputs": [],
      "name": "profileNFT",
      "outputs": [
        {
          "internalType": "address",
          "name": "",
          "type": "address"
        }
      ],
      "stateMutability": "view",
      "type": "function"
    },
    {
      "inputs": [],
      "name": "publicSaleMinted",
      "outputs": [
        {
          "internalType": "uint256",
          "name": "",
          "type": "uint256"
        }
      ],
      "stateMutability": "view",
      "type": "function"
    },
    {
      "inputs": [],
      "name": "purchase",
      "outputs": [],
      "stateMutability": "payable",
      "type": "function"
    },
    {
      "inputs": [
        {
          "internalType": "bytes32",
          "name": "role",
          "type": "bytes32"
        },
        {
          "internalType": "address",
          "name": "callerConfirmation",
          "type": "address"
        }
      ],
      "name": "renounceRole",
      "outputs": [],
      "stateMutability": "nonpayable",
      "type": "function"
    },
    {
      "inputs": [],
      "name": "reserveMinted",
      "outputs": [
        {
          "internalType": "uint256",
          "name": "",
          "type": "uint256"
        }
      ],
      "stateMutability": "view",
      "type": "function"
    },
    {
      "inputs": [
        {
          "internalType": "bytes32",
          "name": "role",
          "type": "bytes32"
        },
        {
          "internalType": "address",
          "name": "account",
          "type": "address"
        }
      ],
      "name": "revokeRole",
      "outputs": [],
      "stateMutability": "nonpayable",
      "type": "function"
    },
    {
      "inputs": [],
      "name": "rewardsMinted",
      "outputs": [
        {
          "internalType": "uint256",
          "name": "",
          "type": "uint256"
        }
      ],
      "stateMutability": "view",
      "type": "function"
    },
    {
      "inputs": [
        {
          "internalType": "address",
          "name": "_profileNFT",
          "type": "address"
        }
      ],
      "name": "setProfileNFT",
      "outputs": [],
      "stateMutability": "nonpayable",
      "type": "function"
    },
    {
      "inputs": [
        {
          "internalType": "address",
          "name": "_treasury",
          "type": "address"
        }
      ],
      "name": "setTreasury",
      "outputs": [],
      "stateMutability": "nonpayable",
      "type": "function"
    },
    {
      "inputs": [
        {
          "internalType": "bytes4",
          "name": "interfaceId",
          "type": "bytes4"
        }
      ],
      "name": "supportsInterface",
      "outputs": [
        {
          "internalType": "bool",
          "name": "",
          "type": "bool"
        }
      ],
      "stateMutability": "view",
      "type": "function"
    },
    {
      "inputs": [],
      "name": "symbol",
      "outputs": [
        {
          "internalType": "string",
          "name": "",
          "type": "string"
        }
      ],
      "stateMutability": "view",
      "type": "function"
    },
    {
      "inputs": [],
      "name": "totalMinted",
      "outputs": [
        {
          "internalType": "uint256",
          "name": "",
          "type": "uint256"
        }
      ],
      "stateMutability": "view",
      "type": "function"
    },
    {
      "inputs": [],
      "name": "totalSupply",
      "outputs": [
        {
          "internalType": "uint256",
          "name": "",
          "type": "uint256"
        }
      ],
      "stateMutability": "view",
      "type": "function"
    },
    {
      "inputs": [
        {
          "internalType": "address",
          "name": "to",
          "type": "address"
        },
        {
          "internalType": "uint256",
          "name": "value",
          "type": "uint256"
        }
      ],
      "name": "transfer",
      "outputs": [
        {
          "internalType": "bool",
          "name": "",
          "type": "bool"
        }
      ],
      "stateMutability": "nonpayable",
      "type": "function"
    },
    {
      "inputs": [
        {
          "internalType": "address",
          "name": "from",
          "type": "address"
        },
        {
          "internalType": "address",
          "name": "to",
          "type": "address"
        },
        {
          "internalType": "uint256",
          "name": "value",
          "type": "uint256"
        }
      ],
      "name": "transferFrom",
      "outputs": [
        {
          "internalType": "bool",
          "name": "",
          "type": "bool"
        }
      ],
      "stateMutability": "nonpayable",
      "type": "function"
    },
    {
      "inputs": [],
      "name": "treasury",
      "outputs": [
        {
          "internalType": "address",
          "name": "",
          "type": "address"
        }
      ],
      "stateMutability": "view",
      "type": "function"
    }
  ],
  "bytecode": "0x6080346200046757620021a590601f906001600160401b0390601f19388590038481018216830190848211848310176200036b5780849160409889948552833981010312620004675762000053826200048c565b906200006360208094016200048c565b936200006e6200046c565b95600b87526a22b6b7b534902a37b5b2b760a91b85880152620000906200046c565b966005885264454d4f4a4960d81b868901528051918383116200036b5760039283546001938482811c921680156200045c575b8a83101462000446578184849311620003f0575b5089908483116001146200038d5760009262000381575b505060001982861b1c191690831b1783555b88519384116200036b5760049889548381811c9116801562000360575b898210146200034b5782811162000300575b50879185116001146200029757849550908492916000956200028b575b50501b92600019911b1c19161784555b6001600160a01b0390811690811562000255578316928315620002205780620001896200019092620004a1565b5062000522565b5060018060a01b0319600b541617600b556002546a084595161401484a000000938482018092116200020b57506000917fddf252ad1be2c89b69c2b068fc378daa952ba7f163c4a11628f55a4df523b3ef916002558383528281528583208581540190558551858152a360065551611bbf9081620005c68239f35b601190634e487b7160e01b6000525260246000fd5b855162461bcd60e51b8152808601849052600f60248201526e24b73b30b634b2103337bab73232b960891b6044820152606490fd5b855162461bcd60e51b8152808601849052601060248201526f496e76616c696420747265617375727960801b6044820152606490fd5b0151935038806200014c565b9291948416928960005284886000209460005b8a89838310620002e85750505010620002cd575b50505050811b0184556200015c565b01519060f884600019921b161c1916905538808080620002be565b868601518955909701969485019488935001620002aa565b8a600052886000208380880160051c8201928b891062000341575b0160051c019084905b828110620003345750506200012f565b6000815501849062000324565b925081926200031b565b60228b634e487b7160e01b6000525260246000fd5b90607f16906200011d565b634e487b7160e01b600052604160045260246000fd5b015190503880620000ee565b908886941691876000528b6000209260005b8d828210620003d95750508411620003c0575b505050811b01835562000100565b015160001983881b60f8161c19169055388080620003b2565b83850151865589979095019493840193016200039f565b90915085600052896000208480850160051c8201928c86106200043c575b918791869594930160051c01915b8281106200042c575050620000d7565b600081558594508791016200041c565b925081926200040e565b634e487b7160e01b600052602260045260246000fd5b91607f1691620000c3565b600080fd5b60408051919082016001600160401b038111838210176200036b57604052565b51906001600160a01b03821682036200046757565b6001600160a01b031660008181527f05b8ccbb9d4d8fb16ea74ce3c29a41f1b461fbdaff4714a0d9a8eb05499746bc602052604081205490919060ff166200051e5781805260056020526040822081835260205260408220600160ff198254161790553391600080516020620021858339815191528180a4600190565b5090565b6001600160a01b031660008181527f15a28d26fa1bf736cf7edc9922607171ccb09c3c73b808e7772a3013e068a52260205260408120549091907f9f2df0fed2c77648de5860a4cc508cd0818c85b8b8a1ab4ceeef8d981c8956a69060ff16620005c05780835260056020526040832082845260205260408320600160ff1982541617905560008051602062002185833981519152339380a4600190565b50509056fe608060408181526004918236101561001657600080fd5b600092833560e01c918262b8c324146114035750816301ffc9a7146113ad578163066d986e146112f457816306fdde03146111ff578163095ea7b31461115557816318160ddd146111365781631bf44a57146110f257816323b872dd146110b5578163248a9ca31461108a5781632aaa37ec146110645781632f2ff15d1461103a578163313ce5671461101e57816332cb6b0c14610ff8578163340f9b5714610fdc57816336568abe14610f965781633af4b7e514610ebd5781633dc762f014610e9757816342966c6814610e795781634c81433f14610e5a57816361d027b314610e31578163620d147f14610df657816364edfbf014610bba5781636513084d1461090257816370a08231146108cb57816379cc67901461089b5781637b5c7f03146108755781638d859f3e146108535781638e825be01461079657816391d148541461074f578163949675e91461072657816394d32a5d1461070057816395d89b41146105e25781639a49090e146104ba578163a217fddf1461049f578163a2309ff814610480578163a666098d14610461578163a9059cbb14610430578163b6abf5ff14610411578163c64a4527146103f5578163ce42ac65146103d6578163d53913931461039b578163d547741f1461035b578163dd62ed3e14610312578163e023c237146102ed578163f0f4426014610245575063fc08f1f41461021e57600080fd5b346102415781600319360112610241576020905169d3c21bcecceda10000008152f35b5080fd5b9050346102e95760203660031901126102e957610260611431565b610268611559565b6001600160a01b03169182156102b3575050600b80546001600160a01b031916821790557f7dae230f18360d76a040c81f050aa14eb9d6dc7901b20fc5d855e2a20fe814d18280a280f35b906020606492519162461bcd60e51b8352820152601060248201526f496e76616c696420747265617375727960801b6044820152fd5b8280fd5b5050346102415781600319360112610241576020905169021e19e0c9bab24000008152f35b50503461024157806003193601126102415780602092610330611431565b61033861144c565b6001600160a01b0391821683526001865283832091168252845220549051908152f35b919050346102e957806003193601126102e9576103979135610392600161038061144c565b938387526005602052862001546115b1565b611657565b5080f35b505034610241578160031936011261024157602090517f9f2df0fed2c77648de5860a4cc508cd0818c85b8b8a1ab4ceeef8d981c8956a68152f35b505034610241578160031936011261024157602090600a549051908152f35b50503461024157816003193601126102415760209051600a8152f35b5050346102415781600319360112610241576020906008549051908152f35b50503461024157806003193601126102415760209061045a610450611431565b60243590336116ce565b5160018152f35b5050346102415781600319360112610241576020906007549051908152f35b5050346102415781600319360112610241576020906006549051908152f35b50503461024157816003193601126102415751908152602090f35b839150346102415782600319360112610241576104d5611431565b602435917f9f2df0fed2c77648de5860a4cc508cd0818c85b8b8a1ab4ceeef8d981c8956a6808552600560205285852033865260205260ff8686205416156105c55750600854906a18d0bf423c03d8de000000610532858461179a565b1161058257509061057783809361056f61057f966006549261056a6a52b7d2dcc80cd2e4000000610563848761179a565b1115611969565b61179a565b60085561179a565b60065561191d565b80f35b606490602087519162461bcd60e51b8352820152601a60248201527f45786365656473207265776172647320616c6c6f636174696f6e0000000000006044820152fd5b6044925085519163e2517d3f60e01b835233908301526024820152fd5b8284346106fd57806003193601126106fd5781519181845492600184811c918186169586156106f3575b60209687851081146106e0579087899a92868b999a9b5291826000146106b657505060011461065b575b858861065789610648848a03856114d4565b51928284938452830190611462565b0390f35b815286935091907f8a35acfbc15ff81a39ae7d344fd709f28e8600b4aa8c65c6b64bfe7fe36bd19b5b82841061069e575050508201018161064861065788610636565b8054848a018601528895508794909301928101610684565b60ff19168882015294151560051b8701909401945085935061064892506106579150899050610636565b634e487b7160e01b835260228a52602483fd5b92607f169261060c565b80fd5b505034610241578160031936011261024157602090516a084595161401484a0000008152f35b505034610241578160031936011261024157600c5490516001600160a01b039091168152602090f35b9050346102e957816003193601126102e9578160209360ff9261077061144c565b90358252600586528282206001600160a01b039091168252855220549151911615158152f35b839150346102415782600319360112610241576107b1611431565b602435916107bd611559565b600954906a108b2a2c280290940000006107d7858461179a565b1161081057509061057783809361080861057f966006549261056a6a52b7d2dcc80cd2e4000000610563848761179a565b60095561179a565b606490602087519162461bcd60e51b8352820152601a60248201527f45786365656473207265736572766520616c6c6f636174696f6e0000000000006044820152fd5b50503461024157816003193601126102415760209051662386f26fc100008152f35b505034610241578160031936011261024157602090516a108b2a2c280290940000008152f35b505034610241573660031901126106fd5761057f6108b7611431565b602435906108c68233836117bd565b611890565b5050346102415760203660031901126102415760209181906001600160a01b036108f3611431565b16815280845220549051908152f35b8391503461024157602092836003193601126102e957600c54823591906001600160a01b03908116908115610b825783151580610b77575b15610b4557838652600d875260ff8387205416610b1057908291879351978880936331a9108f60e11b8252878983015260249a8b915afa918215610b06578792610aca575b5033911603610a9457828552600d8252808520805460ff19166001179055600a546000198114610a8257600101600a556008549369021e19e0c9bab240000094858101809111610a7057600855600654858101809111610a70576006553315610a5c5760025490858201809211610a4a5750907f8c53c7889ce3adeda52cd6d265c4e3654b09ce4628c8abf4ce3d7770284ccb389291600255338652858252808620858154019055805185815286600080516020611b6a833981519152843393a3519384523393a380f35b634e487b7160e01b8752601190528686fd5b858792519163ec442f0560e01b8352820152fd5b634e487b7160e01b8752601182528787fd5b634e487b7160e01b8652601185528686fd5b5162461bcd60e51b815280840191909152601181860152702737ba10383937b334b6329037bbb732b960791b6044820152606490fd5b9091508381813d8311610aff575b610ae281836114d4565b81010312610afb57518181168103610afb57908861097f565b8680fd5b503d610ad8565b83513d89823e3d90fd5b825162461bcd60e51b8152808601889052600f60248201526e105b1c9958591e4818db185a5b5959608a1b6044820152606490fd5b825162461bcd60e51b8152808601889052600c60248201526b4e6f7420656c696769626c6560a01b6044820152606490fd5b50606484111561093a565b825162461bcd60e51b81528086018890526012602482015271141c9bd99a5b19539195081b9bdd081cd95d60721b6044820152606490fd5b919050826003193601126102e9573415610dc257670de0b6b3a76400008034029034820403610daf57662386f26fc10000900491600254600a810290808204600a1490151715610d9c57606490048311610d5a576007546a2116545850052128000000610c27858361179a565b11610d175783610c5a91610c52826006549261056a6a52b7d2dcc80cd2e4000000610563848761179a565b60075561179a565b600655610c67833361191d565b838080803460018060a01b03600b54165af13d15610d12573d610c89816114f6565b90610c96855192836114d4565b81528560203d92013e5b15610cd95750807f8fafebcaf9d154343dad25669bfa277f4fbacd7ac6b0c4fed522580e040a0f3391519283523460208401523392a280f35b6020606492519162461bcd60e51b83528201526014602482015273119313d5c81d1c985b9cd9995c8819985a5b195960621b6044820152fd5b610ca0565b506020606492519162461bcd60e51b8352820152601e60248201527f45786365656473207075626c69632073616c6520616c6c6f636174696f6e00006044820152fd5b6020606492519162461bcd60e51b8352820152601a60248201527f45786365656473206d6178207075726368617365206c696d69740000000000006044820152fd5b634e487b7160e01b855260118252602485fd5b634e487b7160e01b845260118352602484fd5b906020606492519162461bcd60e51b8352820152600e60248201526d4d7573742073656e6420464c4f5760901b6044820152fd5b505034610241578160031936011261024157602090517f4a18edb508dc2ac5e2019b19f24f38759d189a86f7889d9e167dc1824713246d8152f35b505034610241578160031936011261024157600b5490516001600160a01b039091168152602090f35b5050346102415781600319360112610241576020906009549051908152f35b8390346102415760203660031901126102415761057f903533611890565b505034610241578160031936011261024157602090516a21165458500521280000008152f35b9050346102e95760603660031901126102e957610ed8611431565b906024359060443567ffffffffffffffff8111610f9257610efc9036908301611512565b907f4a18edb508dc2ac5e2019b19f24f38759d189a86f7889d9e167dc1824713246d808752600560205285872033885260205260ff8688205416156105c557505090610f8c8392610f6e837fe2532d46a46b8a0c79f113b313549c6b1ed237a8b083c47360fd2c996b282a3196611890565b8551938493845286602085015260018060a01b031695830190611462565b0390a280f35b8580fd5b838334610241578060031936011261024157610fb061144c565b90336001600160a01b03831603610fcd5750610397919235611657565b5163334bd91960e11b81528390fd5b5050346102415781600319360112610241576020905160648152f35b505034610241578160031936011261024157602090516a52b7d2dcc80cd2e40000008152f35b5050346102415781600319360112610241576020905160128152f35b919050346102e957806003193601126102e957610397913561105f600161038061144c565b6115d7565b505034610241578160031936011261024157602090516a18d0bf423c03d8de0000008152f35b9050346102e95760203660031901126102e95781602093600192358152600585522001549051908152f35b5050346102415760603660031901126102415760209061045a6110d6611431565b6110de61144c565b604435916110ed8333836117bd565b6116ce565b8284346106fd5760203660031901126106fd5782359067ffffffffffffffff82116106fd575061112a60209361112f92369101611512565b6119aa565b9051908152f35b5050346102415781600319360112610241576020906002549051908152f35b9050346102e957816003193601126102e95761116f611431565b6024359033156111e8576001600160a01b03169182156111d157508083602095338152600187528181208582528752205582519081527f8c5be1e5ebec7d5bd14f71427d1e84f3dd0314c0f7b2291e5b200ac8c7c3b925843392a35160018152f35b8351634a1406b160e11b8152908101859052602490fd5b835163e602df0560e01b8152808401869052602490fd5b8284346106fd57806003193601126106fd578151918160035492600184811c918186169586156112ea575b60209687851081146106e0578899509688969785829a5291826000146112c3575050600114611267575b50505061065792916106489103856114d4565b9190869350600383527fc2575a0e9e593c00f959f8c92f12db2869c3395a3b0502d05e2516446f71f85b5b8284106112ab5750505082010181610648610657611254565b8054848a018601528895508794909301928101611292565b60ff19168782015293151560051b8601909301935084925061064891506106579050611254565b92607f169261122a565b9050346102e95760203660031901126102e95761130f611431565b90611318611559565b600c54916001600160a01b039081841661137c57169283156113475750506001600160a01b03191617600c5580f35b906020606492519162461bcd60e51b8352820152600f60248201526e496e76616c6964206164647265737360881b6044820152fd5b845162461bcd60e51b8152602081850152600b60248201526a105b1c9958591e481cd95d60aa1b6044820152606490fd5b9050346102e95760203660031901126102e957359063ffffffff60e01b82168092036102e95760209250637965db0b60e01b82149182156113f2575b50519015158152f35b6301ffc9a760e01b149150386113e9565b9291503461142d57602036600319011261142d57358352600d602090815292205460ff1615158152f35b8380fd5b600435906001600160a01b038216820361144757565b600080fd5b602435906001600160a01b038216820361144757565b919082519283825260005b84811061148e575050826000602080949584010152601f8019910116010190565b60208183018101518483018201520161146d565b6040810190811067ffffffffffffffff8211176114be57604052565b634e487b7160e01b600052604160045260246000fd5b90601f8019910116810190811067ffffffffffffffff8211176114be57604052565b67ffffffffffffffff81116114be57601f01601f191660200190565b81601f8201121561144757803590611529826114f6565b9261153760405194856114d4565b8284526020838301011161144757816000926020809301838601378301015290565b3360009081527f05b8ccbb9d4d8fb16ea74ce3c29a41f1b461fbdaff4714a0d9a8eb05499746bc602052604081205460ff16156115935750565b6044906040519063e2517d3f60e01b82523360048301526024820152fd5b80600052600560205260406000203360005260205260ff60406000205416156115935750565b906000918083526005602052604083209160018060a01b03169182845260205260ff604084205416156000146116525780835260056020526040832082845260205260408320600160ff198254161790557f2f8788117e7eff1d82e926ec794901d17c78024a50270940304540a733656f0d339380a4600190565b505090565b906000918083526005602052604083209160018060a01b03169182845260205260ff604084205416600014611652578083526005602052604083208284526020526040832060ff1981541690557ff6391f5c32d9c69d2a47ea670b442974b53935d1edc7fd64eb21e047a839171b339380a4600190565b916001600160a01b038084169283156117815716928315611768576000908382528160205260408220549083821061173657509160408282600080516020611b6a833981519152958760209652828652038282205586815220818154019055604051908152a3565b60405163391434e360e21b81526001600160a01b03919091166004820152602481019190915260448101839052606490fd5b60405163ec442f0560e01b815260006004820152602490fd5b604051634b637e8f60e11b815260006004820152602490fd5b919082018092116117a757565b634e487b7160e01b600052601160045260246000fd5b9160018060a01b0380931691600093838552600160205260409384862091831691828752602052848620549260001984106117fc575b50505050505050565b84841061186057508015611848578115611830578552600160205283852090855260205203912055388080808080806117f3565b8451634a1406b160e11b815260048101879052602490fd5b845163e602df0560e01b815260048101879052602490fd5b8551637dc7a0d960e11b81526001600160a01b039190911660048201526024810184905260448101859052606490fd5b906001600160a01b03821690811561178157600092828452836020526040842054908282106118eb575081600080516020611b6a833981519152926020928587528684520360408620558060025403600255604051908152a3565b60405163391434e360e21b81526001600160a01b03919091166004820152602481019190915260448101829052606490fd5b6001600160a01b031690811561176857600080516020611b6a83398151915260208261194d60009460025461179a565b60025584845283825260408420818154019055604051908152a3565b1561197057565b60405162461bcd60e51b815260206004820152601260248201527145786365656473206d617820737570706c7960701b6044820152606490fd5b80517f3c0c3a2537aaf75b853bbf2b595e872d3db0359b7e792ebd8907fb017c3b71a260208301918220657075626c696360d01b60206040516119ec816114a2565b60068152015203611a155750506007546a21165458500521280000009081039081116117a75790565b7f34c4f69c5a540b12dc1972f35b6a4d869e650b9e8617cf155838305cfb43cfde82518220667265776172647360c81b6020604051611a53816114a2565b60078152015203611a7c5750506008546a18d0bf423c03d8de0000009081039081116117a75790565b7ff712c2fa585715e22c7fcc833629ce4482ad96496ecd08f3a14847183c4ef4ee82518220667265736572766560c81b6020604051611aba816114a2565b60078152015203611ae35750506009546a108b2a2c280290940000009081039081116117a75790565b7f02d9a0f9b8529f5cacaa29ad3e68768f733ff3a16dfcf1f2363e9eeebeedecb9915190206770726f66696c657360c01b6020604051611b22816114a2565b60088152015214611b3257600090565b600a5469021e19e0c9bab2400000908181029181830414901517156117a75769d3c21bcecceda10000009081039081116117a7579056feddf252ad1be2c89b69c2b068fc378daa952ba7f163c4a11628f55a4df523b3efa2646970667358221220788b39da2d1016343c03c58a93da4187014f3db9335964f7b95e14e3c5419a1e64736f6c634300081400332f8788117e7eff1d82e926ec794901d17c78024a50270940304540a733656f0d",
  "linkReferences": {},
  "deployedLinkReferences": {}
}