{
  "_format": "hh-sol-artifact-1",
  "contractName": "GMActionV2",
  "sourceName": "contracts/engagement/GMActionV2.sol",
  "abi": [
    {
      "inputs": [
        {
          "internalType": "address",
          "name": "_profileNFT",
          "type": "address"
        }
      ],
      "stateMutability": "nonpayable",
      "type": "constructor"
    },
    {
      "anonymous": false,
      "inputs": [
        {
          "indexed": true,
          "internalType": "address",
          "name": "emojiCredit",
          "type": "address"
        }
      ],
      "name": "EmojiCreditContractSet",
      "type": "event"
    },
    {
      "anonymous": false,
      "inputs": [
        {
          "indexed": true,
          "internalType": "address",
          "name": "user",
          "type": "address"
        },
        {
          "indexed": true,
          "internalType": "uint256",
          "name": "day",
          "type": "uint256"
        },
        {
          "indexed": false,
          "internalType": "uint256",
          "name": "streak",
          "type": "uint256"
        }
      ],
      "name": "GMSaid",
      "type": "event"
    },
    {
      "inputs": [
        {
          "internalType": "address",
          "name": "",
          "type": "address"
        }
      ],
      "name": "currentStreak",
      "outputs": [
        {
          "internalType": "uint256",
          "name": "",
          "type": "uint256"
        }
      ],
      "stateMutability": "view",
      "type": "function"
    },
    {
      "inputs": [
        {
          "internalType": "uint256",
          "name": "",
          "type": "uint256"
        }
      ],
      "name": "dailyGMCount",
      "outputs": [
        {
          "internalType": "uint256",
          "name": "",
          "type": "uint256"
        }
      ],
      "stateMutability": "view",
      "type": "function"
    },
    {
      "inputs": [
        {
          "internalType": "uint256",
          "name": "",
          "type": "uint256"
        },
        {
          "internalType": "uint256",
          "name": "",
          "type": "uint256"
        }
      ],
      "name": "dailyGMUsers",
      "outputs": [
        {
          "internalType": "address",
          "name": "",
          "type": "address"
        }
      ],
      "stateMutability": "view",
      "type": "function"
    },
    {
      "inputs": [],
      "name": "emojiCreditContract",
      "outputs": [
        {
          "internalType": "address",
          "name": "",
          "type": "address"
        }
      ],
      "stateMutability": "view",
      "type": "function"
    },
    {
      "inputs": [],
      "name": "getCurrentDay",
      "outputs": [
        {
          "internalType": "uint256",
          "name": "",
          "type": "uint256"
        }
      ],
      "stateMutability": "view",
      "type": "function"
    },
    {
      "inputs": [],
      "name": "getTodaysGMCount",
      "outputs": [
        {
          "internalType": "uint256",
          "name": "",
          "type": "uint256"
        }
      ],
      "stateMutability": "view",
      "type": "function"
    },
    {
      "inputs": [
        {
          "internalType": "address",
          "name": "user",
          "type": "address"
        }
      ],
      "name": "getUserStats",
      "outputs": [
        {
          "internalType": "uint256",
          "name": "total",
          "type": "uint256"
        },
        {
          "internalType": "uint256",
          "name": "streak",
          "type": "uint256"
        },
        {
          "internalType": "bool",
          "name": "saidToday",
          "type": "bool"
        }
      ],
      "stateMutability": "view",
      "type": "function"
    },
    {
      "inputs": [
        {
          "internalType": "address",
          "name": "",
          "type": "address"
        },
        {
          "internalType": "uint256",
          "name": "",
          "type": "uint256"
        }
      ],
      "name": "hasSaidGM",
      "outputs": [
        {
          "internalType": "bool",
          "name": "",
          "type": "bool"
        }
      ],
      "stateMutability": "view",
      "type": "function"
    },
    {
      "inputs": [
        {
          "internalType": "address",
          "name": "user",
          "type": "address"
        }
      ],
      "name": "hasUserSaidGMToday",
      "outputs": [
        {
          "internalType": "bool",
          "name": "",
          "type": "bool"
        }
      ],
      "stateMutability": "view",
      "type": "function"
    },
    {
      "inputs": [
        {
          "internalType": "address",
          "name": "",
          "type": "address"
        }
      ],
      "name": "lastGMDay",
      "outputs": [
        {
          "internalType": "uint256",
          "name": "",
          "type": "uint256"
        }
      ],
      "stateMutability": "view",
      "type": "function"
    },
    {
      "inputs": [],
      "name": "profileNFT",
      "outputs": [
        {
          "internalType": "address",
          "name": "",
          "type": "address"
        }
      ],
      "stateMutability": "view",
      "type": "function"
    },
    {
      "inputs": [],
      "name": "sayGM",
      "outputs": [],
      "stateMutability": "nonpayable",
      "type": "function"
    },
    {
      "inputs": [
        {
          "internalType": "address",
          "name": "_emojiCredit",
          "type": "address"
        }
      ],
      "name": "setEmojiCreditContract",
      "outputs": [],
      "stateMutability": "nonpayable",
      "type": "function"
    },
    {
      "inputs": [
        {
          "internalType": "address",
          "name": "",
          "type": "address"
        }
      ],
      "name": "totalGMs",
      "outputs": [
        {
          "internalType": "uint256",
          "name": "",
          "type": "uint256"
        }
      ],
      "stateMutability": "view",
      "type": "function"
    }
  ],
  "bytecode": "0x60a03461007157601f61082b38819003918201601f19168301916001600160401b038311848410176100765780849260209460405283398101031261007157516001600160a01b03811681036100715760805260405161079e908161008d823960805181818161018d01526104240152f35b600080fd5b634e487b7160e01b600052604160045260246000fdfe6040608081526004908136101561001557600080fd5b600091823560e01c9081630599692e1461069657816325406903146103ea5781633649049b146103b45781633e6968b6146103905781634e43603a146103225781634e43dbbd146102fa5781634eafd5e514610256575080635390f7201461022a5780635c45f739146101f357806381eddd51146101bc578063949675e914610179578063ac53dc0414610152578063cac59d97146101065763db605a09146100bd57600080fd5b3461010257806003193601126101025760209160ff9082906001600160a01b036100e5610712565b168152600185528181206024358252855220541690519015158152f35b5080fd5b50346101025760203660031901126101025760209160ff9082906001600160a01b03610130610712565b1681526001855281812061014261072d565b8252855220541690519015158152f35b5034610102578160031936011261010257905490516001600160a01b039091168152602090f35b5034610102578160031936011261010257517f00000000000000000000000000000000000000000000000000000000000000006001600160a01b03168152602090f35b50346101025760203660031901126101025760209181906001600160a01b036101e3610712565b1681526002845220549051908152f35b50346101025760203660031901126101025760209181906001600160a01b0361021a610712565b1681526003845220549051908152f35b50346101025781600319360112610102578060209261024761072d565b81526005845220549051908152f35b919050346102f65760203660031901126102f657610272610712565b8354926001600160a01b03928385166102c55750501680916bffffffffffffffffffffffff60a01b161782557f5c7e52b0143a210ac9465b279a79b812e080222ad8dcd9f381e3b7185ee118328280a280f35b906020606492519162461bcd60e51b8352820152600b60248201526a105b1c9958591e481cd95d60aa1b6044820152fd5b8280fd5b9050346102f65760203660031901126102f65760209282913581526005845220549051908152f35b82843461038d576020918260031936011261010257606092610342610712565b61034a61072d565b6001600160a01b0390911684526002825282842054600383528385205460018452848620928652918352938390205483519485529184015260ff16151590820152f35b80fd5b5050346101025781600319360112610102576020906103ad61072d565b9051908152f35b9050346102f65760203660031901126102f65760209282916001600160a01b036103dc610712565b168252845220549051908152f35b919050346102f657826003193601126102f657805163a787c80b60e01b815233838201526024926020916001600160a01b039190838187817f000000000000000000000000000000000000000000000000000000000000000087165afa90811561068c578791610629575b50156105f15761046361072d565b9433875260018452848720868852845260ff85882054166105b757338752600184528487208688528452848720600160ff19825416179055338752600284528487206104af8154610759565b9055338752818452848720546000198701908782116105a5570361059357338752600384528487206104e18154610759565b90555b3387528184528585882055858752600584528487206105038154610759565b9055858752600684528487209081549268010000000000000000841015610582575050816105599160017fd478e71acb0ea1d0fd6b75c34f2e463f1088b9e14d74e53bc106a81ac4540ebe9695940181556106e4565b819291549060031b9133831b921b1916179055338552600381528285205492519283523392a380f35b634e487b7160e01b89526041905287fd5b338752600384526001858820556104e4565b634e487b7160e01b8952601184528289fd5b845162461bcd60e51b815291820184905260159082015274416c7265616479207361696420474d20746f64617960581b6044820152606490fd5b835162461bcd60e51b8152908101839052601381860152724d757374206861766520612070726f66696c6560681b6044820152606490fd5b9050833d8511610685575b601f8101601f1916820167ffffffffffffffff811183821017610673578591839188528101031261066f5751801515810361066f5738610455565b8680fd5b634e487b7160e01b8952604184528789fd5b503d610634565b85513d89823e3d90fd5b82843461038d578160031936011261038d5760243592358152600660205281812090815484101561038d57506020926106ce916106e4565b905491519160018060a01b039160031b1c168152f35b80548210156106fc5760005260206000200190600090565b634e487b7160e01b600052603260045260246000fd5b600435906001600160a01b038216820361072857565b600080fd5b61383f1942014281116107435762015180900490565b634e487b7160e01b600052601160045260246000fd5b6000198114610743576001019056fea2646970667358221220a1a81bdbe8693cc837cb6f46b782d99daf7a16080cfbdaa0ae5f616aec09734d64736f6c63430008140033",
  "linkReferences": {},
  "deployedLinkReferences": {}
}