{
  "_format": "hh-sol-artifact-1",
  "contractName": "TippingSystem",
  "sourceName": "contracts/TippingSystem.sol",
  "abi": [
    {
      "inputs": [
        {
          "internalType": "address",
          "name": "initialOwner",
          "type": "address"
        }
      ],
      "stateMutability": "nonpayable",
      "type": "constructor"
    },
    {
      "anonymous": false,
      "inputs": [
        {
          "indexed": true,
          "internalType": "address",
          "name": "previousOwner",
          "type": "address"
        },
        {
          "indexed": true,
          "internalType": "address",
          "name": "newOwner",
          "type": "address"
        }
      ],
      "name": "OwnershipTransferred",
      "type": "event"
    },
    {
      "anonymous": false,
      "inputs": [
        {
          "indexed": true,
          "internalType": "address",
          "name": "from",
          "type": "address"
        },
        {
          "indexed": true,
          "internalType": "address",
          "name": "to",
          "type": "address"
        },
        {
          "indexed": false,
          "internalType": "uint256",
          "name": "amount",
          "type": "uint256"
        },
        {
          "indexed": false,
          "internalType": "uint256",
          "name": "platformFee",
          "type": "uint256"
        }
      ],
      "name": "TipSent",
      "type": "event"
    },
    {
      "anonymous": false,
      "inputs": [
        {
          "indexed": true,
          "internalType": "address",
          "name": "previousWallet",
          "type": "address"
        },
        {
          "indexed": true,
          "internalType": "address",
          "name": "newWallet",
          "type": "address"
        }
      ],
      "name": "TreasuryWalletUpdated",
      "type": "event"
    },
    {
      "inputs": [],
      "name": "owner",
      "outputs": [
        {
          "internalType": "address",
          "name": "",
          "type": "address"
        }
      ],
      "stateMutability": "view",
      "type": "function"
    },
    {
      "inputs": [],
      "name": "platformFeePercentage",
      "outputs": [
        {
          "internalType": "uint256",
          "name": "",
          "type": "uint256"
        }
      ],
      "stateMutability": "view",
      "type": "function"
    },
    {
      "inputs": [],
      "name": "renounceOwnership",
      "outputs": [],
      "stateMutability": "nonpayable",
      "type": "function"
    },
    {
      "inputs": [
        {
          "internalType": "address payable",
          "name": "publisherProfile",
          "type": "address"
        }
      ],
      "name": "sendTip",
      "outputs": [],
      "stateMutability": "payable",
      "type": "function"
    },
    {
      "inputs": [
        {
          "internalType": "uint256",
          "name": "_feePercentage",
          "type": "uint256"
        }
      ],
      "name": "setPlatformFee",
      "outputs": [],
      "stateMutability": "nonpayable",
      "type": "function"
    },
    {
      "inputs": [
        {
          "internalType": "address",
          "name": "_treasuryWallet",
          "type": "address"
        }
      ],
      "name": "setTreasuryWallet",
      "outputs": [],
      "stateMutability": "nonpayable",
      "type": "function"
    },
    {
      "inputs": [
        {
          "internalType": "address",
          "name": "newOwner",
          "type": "address"
        }
      ],
      "name": "transferOwnership",
      "outputs": [],
      "stateMutability": "nonpayable",
      "type": "function"
    },
    {
      "inputs": [],
      "name": "treasuryWallet",
      "outputs": [
        {
          "internalType": "address",
          "name": "",
          "type": "address"
        }
      ],
      "stateMutability": "view",
      "type": "function"
    },
    {
      "stateMutability": "payable",
      "type": "receive"
    }
  ],
  "bytecode": "0x6080604052600560015534801561001557600080fd5b506040516107e33803806107e3833981016040819052610034916100c2565b61003d33610072565b61004681610072565b50600280546001600160a01b031916739402f9f20b4a27b55b1cc6cf015d98f764814fb21790556100f2565b600080546001600160a01b038381166001600160a01b0319831681178455604051919092169283917f8be0079c531659141344cd1fd0a4f28419497f9722a3daafe3b4186f6b6457e09190a35050565b6000602082840312156100d457600080fd5b81516001600160a01b03811681146100eb57600080fd5b9392505050565b6106e2806101016000396000f3fe60806040526004361061007f5760003560e01c8063a4e81be01161004e578063a4e81be01461011d578063a8602fea14610130578063cdd78cfc14610150578063f2fde38b1461017457600080fd5b806312e8e2c31461008b5780634626402b146100ad578063715018a6146100ea5780638da5cb5b146100ff57600080fd5b3661008657005b600080fd5b34801561009757600080fd5b506100ab6100a63660046105f2565b610194565b005b3480156100b957600080fd5b506002546100cd906001600160a01b031681565b6040516001600160a01b0390911681526020015b60405180910390f35b3480156100f657600080fd5b506100ab6101ef565b34801561010b57600080fd5b506000546001600160a01b03166100cd565b6100ab61012b366004610620565b610203565b34801561013c57600080fd5b506100ab61014b366004610620565b61041f565b34801561015c57600080fd5b5061016660015481565b6040519081526020016100e1565b34801561018057600080fd5b506100ab61018f366004610620565b6104cf565b61019c610548565b600a8111156101ea5760405162461bcd60e51b81526020600482015260156024820152744665652063616e6e6f74206578636565642031302560581b60448201526064015b60405180910390fd5b600155565b6101f7610548565b61020160006105a2565b565b6000341161025d5760405162461bcd60e51b815260206004820152602160248201527f54697020616d6f756e74206d7573742062652067726561746572207468616e206044820152600360fc1b60648201526084016101e1565b600060646001543461026f919061065a565b6102799190610677565b905060006102878234610699565b6002546040519192506000916001600160a01b039091169084908381818185875af1925050503d80600081146102d9576040519150601f19603f3d011682016040523d82523d6000602084013e6102de565b606091505b505090508061032f5760405162461bcd60e51b815260206004820152601c60248201527f506c6174666f726d20666565207472616e73666572206661696c65640000000060448201526064016101e1565b6000846001600160a01b03168360405160006040518083038185875af1925050503d806000811461037c576040519150601f19603f3d011682016040523d82523d6000602084013e610381565b606091505b50509050806103d25760405162461bcd60e51b815260206004820152601960248201527f5075626c6973686572207472616e73666572206661696c65640000000000000060448201526064016101e1565b60408051848152602081018690526001600160a01b0387169133917f46caa0ebed33f94f22a64c88eb5e4283c4c91eb15dea2eda91009729f309e9ec910160405180910390a35050505050565b610427610548565b6001600160a01b03811661047d5760405162461bcd60e51b815260206004820152601f60248201527f496e76616c69642074726561737572792077616c6c657420616464726573730060448201526064016101e1565b600280546001600160a01b038381166001600160a01b0319831681179093556040519116919082907fa982575859d7ad2f390dc12b23f7dab8bbda047f9d0140ac68344b27bf34bfb490600090a35050565b6104d7610548565b6001600160a01b03811661053c5760405162461bcd60e51b815260206004820152602660248201527f4f776e61626c653a206e6577206f776e657220697320746865207a65726f206160448201526564647265737360d01b60648201526084016101e1565b610545816105a2565b50565b6000546001600160a01b031633146102015760405162461bcd60e51b815260206004820181905260248201527f4f776e61626c653a2063616c6c6572206973206e6f7420746865206f776e657260448201526064016101e1565b600080546001600160a01b038381166001600160a01b0319831681178455604051919092169283917f8be0079c531659141344cd1fd0a4f28419497f9722a3daafe3b4186f6b6457e09190a35050565b60006020828403121561060457600080fd5b5035919050565b6001600160a01b038116811461054557600080fd5b60006020828403121561063257600080fd5b813561063d8161060b565b9392505050565b634e487b7160e01b600052601160045260246000fd5b808202811582820484141761067157610671610644565b92915050565b60008261069457634e487b7160e01b600052601260045260246000fd5b500490565b818103818111156106715761067161064456fea2646970667358221220aa62e27285e9f84d4bc1dcca01f4abd56ddb55c0b4b0b831b1aff2cafbcffc4464736f6c63430008140033",
  "linkReferences": {},
  "deployedLinkReferences": {}
}