{
  "_format": "hh-sol-artifact-1",
  "contractName": "ArticleMinter",
  "sourceName": "contracts/ArticleMinter.sol",
  "abi": [
    {
      "inputs": [],
      "stateMutability": "nonpayable",
      "type": "constructor"
    },
    {
      "anonymous": false,
      "inputs": [
        {
          "indexed": true,
          "internalType": "address",
          "name": "owner",
          "type": "address"
        },
        {
          "indexed": true,
          "internalType": "address",
          "name": "approved",
          "type": "address"
        },
        {
          "indexed": true,
          "internalType": "uint256",
          "name": "tokenId",
          "type": "uint256"
        }
      ],
      "name": "Approval",
      "type": "event"
    },
    {
      "anonymous": false,
      "inputs": [
        {
          "indexed": true,
          "internalType": "address",
          "name": "owner",
          "type": "address"
        },
        {
          "indexed": true,
          "internalType": "address",
          "name": "operator",
          "type": "address"
        },
        {
          "indexed": false,
          "internalType": "bool",
          "name": "approved",
          "type": "bool"
        }
      ],
      "name": "ApprovalForAll",
      "type": "event"
    },
    {
      "anonymous": false,
      "inputs": [
        {
          "indexed": true,
          "internalType": "uint256",
          "name": "tokenId",
          "type": "uint256"
        },
        {
          "indexed": true,
          "internalType": "address",
          "name": "author",
          "type": "address"
        },
        {
          "indexed": false,
          "internalType": "string",
          "name": "contentHash",
          "type": "string"
        },
        {
          "indexed": false,
          "internalType": "string",
          "name": "title",
          "type": "string"
        },
        {
          "indexed": false,
          "internalType": "address",
          "name": "publisherProfile",
          "type": "address"
        },
        {
          "indexed": false,
          "internalType": "uint256",
          "name": "timestamp",
          "type": "uint256"
        }
      ],
      "name": "ArticlePublished",
      "type": "event"
    },
    {
      "anonymous": false,
      "inputs": [
        {
          "indexed": false,
          "internalType": "uint256",
          "name": "_fromTokenId",
          "type": "uint256"
        },
        {
          "indexed": false,
          "internalType": "uint256",
          "name": "_toTokenId",
          "type": "uint256"
        }
      ],
      "name": "BatchMetadataUpdate",
      "type": "event"
    },
    {
      "anonymous": false,
      "inputs": [
        {
          "indexed": false,
          "internalType": "bool",
          "name": "enabled",
          "type": "bool"
        },
        {
          "indexed": false,
          "internalType": "uint256",
          "name": "endTime",
          "type": "uint256"
        }
      ],
      "name": "GracePeriodSet",
      "type": "event"
    },
    {
      "anonymous": false,
      "inputs": [
        {
          "indexed": false,
          "internalType": "uint256",
          "name": "_tokenId",
          "type": "uint256"
        }
      ],
      "name": "MetadataUpdate",
      "type": "event"
    },
    {
      "anonymous": false,
      "inputs": [
        {
          "indexed": true,
          "internalType": "address",
          "name": "previousOwner",
          "type": "address"
        },
        {
          "indexed": true,
          "internalType": "address",
          "name": "newOwner",
          "type": "address"
        }
      ],
      "name": "OwnershipTransferred",
      "type": "event"
    },
    {
      "anonymous": false,
      "inputs": [
        {
          "indexed": true,
          "internalType": "address",
          "name": "oldToken",
          "type": "address"
        },
        {
          "indexed": true,
          "internalType": "address",
          "name": "newToken",
          "type": "address"
        }
      ],
      "name": "PublisherAccessTokenUpdated",
      "type": "event"
    },
    {
      "anonymous": false,
      "inputs": [
        {
          "indexed": true,
          "internalType": "address",
          "name": "from",
          "type": "address"
        },
        {
          "indexed": true,
          "internalType": "address",
          "name": "to",
          "type": "address"
        },
        {
          "indexed": true,
          "internalType": "uint256",
          "name": "tokenId",
          "type": "uint256"
        }
      ],
      "name": "Transfer",
      "type": "event"
    },
    {
      "inputs": [],
      "name": "GATEWAY_URL",
      "outputs": [
        {
          "internalType": "string",
          "name": "",
          "type": "string"
        }
      ],
      "stateMutability": "view",
      "type": "function"
    },
    {
      "inputs": [
        {
          "internalType": "address",
          "name": "to",
          "type": "address"
        },
        {
          "internalType": "uint256",
          "name": "tokenId",
          "type": "uint256"
        }
      ],
      "name": "approve",
      "outputs": [],
      "stateMutability": "nonpayable",
      "type": "function"
    },
    {
      "inputs": [
        {
          "internalType": "uint256",
          "name": "",
          "type": "uint256"
        }
      ],
      "name": "articles",
      "outputs": [
        {
          "internalType": "string",
          "name": "contentHash",
          "type": "string"
        },
        {
          "internalType": "string",
          "name": "title",
          "type": "string"
        },
        {
          "internalType": "address",
          "name": "author",
          "type": "address"
        },
        {
          "internalType": "address",
          "name": "publisherProfile",
          "type": "address"
        },
        {
          "internalType": "uint256",
          "name": "timestamp",
          "type": "uint256"
        }
      ],
      "stateMutability": "view",
      "type": "function"
    },
    {
      "inputs": [
        {
          "internalType": "address",
          "name": "owner",
          "type": "address"
        }
      ],
      "name": "balanceOf",
      "outputs": [
        {
          "internalType": "uint256",
          "name": "",
          "type": "uint256"
        }
      ],
      "stateMutability": "view",
      "type": "function"
    },
    {
      "inputs": [
        {
          "internalType": "uint256",
          "name": "tokenId",
          "type": "uint256"
        }
      ],
      "name": "getApproved",
      "outputs": [
        {
          "internalType": "address",
          "name": "",
          "type": "address"
        }
      ],
      "stateMutability": "view",
      "type": "function"
    },
    {
      "inputs": [
        {
          "internalType": "uint256",
          "name": "tokenId",
          "type": "uint256"
        }
      ],
      "name": "getArticle",
      "outputs": [
        {
          "internalType": "string",
          "name": "contentHash",
          "type": "string"
        },
        {
          "internalType": "string",
          "name": "title",
          "type": "string"
        },
        {
          "internalType": "address",
          "name": "author",
          "type": "address"
        },
        {
          "internalType": "address",
          "name": "publisherProfile",
          "type": "address"
        },
        {
          "internalType": "uint256",
          "name": "timestamp",
          "type": "uint256"
        }
      ],
      "stateMutability": "view",
      "type": "function"
    },
    {
      "inputs": [
        {
          "internalType": "uint256",
          "name": "tokenId",
          "type": "uint256"
        }
      ],
      "name": "getContentURI",
      "outputs": [
        {
          "internalType": "string",
          "name": "",
          "type": "string"
        }
      ],
      "stateMutability": "view",
      "type": "function"
    },
    {
      "inputs": [
        {
          "internalType": "address",
          "name": "publisherProfile",
          "type": "address"
        }
      ],
      "name": "getPublisherArticles",
      "outputs": [
        {
          "internalType": "uint256[]",
          "name": "",
          "type": "uint256[]"
        }
      ],
      "stateMutability": "view",
      "type": "function"
    },
    {
      "inputs": [],
      "name": "getPublishersUsingGrace",
      "outputs": [
        {
          "internalType": "address[]",
          "name": "",
          "type": "address[]"
        }
      ],
      "stateMutability": "view",
      "type": "function"
    },
    {
      "inputs": [],
      "name": "graceEnabled",
      "outputs": [
        {
          "internalType": "bool",
          "name": "",
          "type": "bool"
        }
      ],
      "stateMutability": "view",
      "type": "function"
    },
    {
      "inputs": [],
      "name": "graceEndTime",
      "outputs": [
        {
          "internalType": "uint256",
          "name": "",
          "type": "uint256"
        }
      ],
      "stateMutability": "view",
      "type": "function"
    },
    {
      "inputs": [
        {
          "internalType": "address",
          "name": "owner",
          "type": "address"
        },
        {
          "internalType": "address",
          "name": "operator",
          "type": "address"
        }
      ],
      "name": "isApprovedForAll",
      "outputs": [
        {
          "internalType": "bool",
          "name": "",
          "type": "bool"
        }
      ],
      "stateMutability": "view",
      "type": "function"
    },
    {
      "inputs": [],
      "name": "name",
      "outputs": [
        {
          "internalType": "string",
          "name": "",
          "type": "string"
        }
      ],
      "stateMutability": "view",
      "type": "function"
    },
    {
      "inputs": [],
      "name": "owner",
      "outputs": [
        {
          "internalType": "address",
          "name": "",
          "type": "address"
        }
      ],
      "stateMutability": "view",
      "type": "function"
    },
    {
      "inputs": [
        {
          "internalType": "uint256",
          "name": "tokenId",
          "type": "uint256"
        }
      ],
      "name": "ownerOf",
      "outputs": [
        {
          "internalType": "address",
          "name": "",
          "type": "address"
        }
      ],
      "stateMutability": "view",
      "type": "function"
    },
    {
      "inputs": [
        {
          "internalType": "string",
          "name": "_contentHash",
          "type": "string"
        },
        {
          "internalType": "string",
          "name": "_title",
          "type": "string"
        },
        {
          "internalType": "address",
          "name": "_publisherProfile",
          "type": "address"
        }
      ],
      "name": "publishArticle",
      "outputs": [
        {
          "internalType": "uint256",
          "name": "",
          "type": "uint256"
        }
      ],
      "stateMutability": "nonpayable",
      "type": "function"
    },
    {
      "inputs": [
        {
          "internalType": "string",
          "name": "_contentHash",
          "type": "string"
        },
        {
          "internalType": "string",
          "name": "_title",
          "type": "string"
        }
      ],
      "name": "publishArticle",
      "outputs": [
        {
          "internalType": "uint256",
          "name": "",
          "type": "uint256"
        }
      ],
      "stateMutability": "nonpayable",
      "type": "function"
    },
    {
      "inputs": [
        {
          "internalType": "address",
          "name": "",
          "type": "address"
        }
      ],
      "name": "publishedDuringGrace",
      "outputs": [
        {
          "internalType": "bool",
          "name": "",
          "type": "bool"
        }
      ],
      "stateMutability": "view",
      "type": "function"
    },
    {
      "inputs": [],
      "name": "publisherAccessToken",
      "outputs": [
        {
          "internalType": "address",
          "name": "",
          "type": "address"
        }
      ],
      "stateMutability": "view",
      "type": "function"
    },
    {
      "inputs": [],
      "name": "publisherRegistry",
      "outputs": [
        {
          "internalType": "address",
          "name": "",
          "type": "address"
        }
      ],
      "stateMutability": "view",
      "type": "function"
    },
    {
      "inputs": [],
      "name": "renounceOwnership",
      "outputs": [],
      "stateMutability": "nonpayable",
      "type": "function"
    },
    {
      "inputs": [
        {
          "internalType": "address",
          "name": "from",
          "type": "address"
        },
        {
          "internalType": "address",
          "name": "to",
          "type": "address"
        },
        {
          "internalType": "uint256",
          "name": "tokenId",
          "type": "uint256"
        }
      ],
      "name": "safeTransferFrom",
      "outputs": [],
      "stateMutability": "nonpayable",
      "type": "function"
    },
    {
      "inputs": [
        {
          "internalType": "address",
          "name": "from",
          "type": "address"
        },
        {
          "internalType": "address",
          "name": "to",
          "type": "address"
        },
        {
          "internalType": "uint256",
          "name": "tokenId",
          "type": "uint256"
        },
        {
          "internalType": "bytes",
          "name": "data",
          "type": "bytes"
        }
      ],
      "name": "safeTransferFrom",
      "outputs": [],
      "stateMutability": "nonpayable",
      "type": "function"
    },
    {
      "inputs": [
        {
          "internalType": "address",
          "name": "operator",
          "type": "address"
        },
        {
          "internalType": "bool",
          "name": "approved",
          "type": "bool"
        }
      ],
      "name": "setApprovalForAll",
      "outputs": [],
      "stateMutability": "nonpayable",
      "type": "function"
    },
    {
      "inputs": [
        {
          "internalType": "bool",
          "name": "enabled",
          "type": "bool"
        },
        {
          "internalType": "uint256",
          "name": "durationInSeconds",
          "type": "uint256"
        }
      ],
      "name": "setGracePeriod",
      "outputs": [],
      "stateMutability": "nonpayable",
      "type": "function"
    },
    {
      "inputs": [
        {
          "internalType": "address",
          "name": "_publisherAccessToken",
          "type": "address"
        }
      ],
      "name": "setPublisherAccessToken",
      "outputs": [],
      "stateMutability": "nonpayable",
      "type": "function"
    },
    {
      "inputs": [
        {
          "internalType": "address",
          "name": "_publisherRegistry",
          "type": "address"
        }
      ],
      "name": "setPublisherRegistry",
      "outputs": [],
      "stateMutability": "nonpayable",
      "type": "function"
    },
    {
      "inputs": [
        {
          "internalType": "bytes4",
          "name": "interfaceId",
          "type": "bytes4"
        }
      ],
      "name": "supportsInterface",
      "outputs": [
        {
          "internalType": "bool",
          "name": "",
          "type": "bool"
        }
      ],
      "stateMutability": "view",
      "type": "function"
    },
    {
      "inputs": [],
      "name": "symbol",
      "outputs": [
        {
          "internalType": "string",
          "name": "",
          "type": "string"
        }
      ],
      "stateMutability": "view",
      "type": "function"
    },
    {
      "inputs": [
        {
          "internalType": "uint256",
          "name": "tokenId",
          "type": "uint256"
        }
      ],
      "name": "tokenURI",
      "outputs": [
        {
          "internalType": "string",
          "name": "",
          "type": "string"
        }
      ],
      "stateMutability": "view",
      "type": "function"
    },
    {
      "inputs": [
        {
          "internalType": "address",
          "name": "from",
          "type": "address"
        },
        {
          "internalType": "address",
          "name": "to",
          "type": "address"
        },
        {
          "internalType": "uint256",
          "name": "tokenId",
          "type": "uint256"
        }
      ],
      "name": "transferFrom",
      "outputs": [],
      "stateMutability": "nonpayable",
      "type": "function"
    },
    {
      "inputs": [
        {
          "internalType": "address",
          "name": "newOwner",
          "type": "address"
        }
      ],
      "name": "transferOwnership",
      "outputs": [],
      "stateMutability": "nonpayable",
      "type": "function"
    }
  ],
  "bytecode": "0x6080604052600a805460ff60a01b191690553480156200001e57600080fd5b506040518060400160405280600b81526020016a466c6f7741727469636c6560a81b815250604051806040016040528060088152602001674641525449434c4560c01b8152508160009081620000759190620001a2565b506001620000848282620001a2565b505050620000a16200009b620000a760201b60201c565b620000ab565b6200026e565b3390565b600780546001600160a01b038381166001600160a01b0319831681179093556040519116919082907f8be0079c531659141344cd1fd0a4f28419497f9722a3daafe3b4186f6b6457e090600090a35050565b634e487b7160e01b600052604160045260246000fd5b600181811c908216806200012857607f821691505b6020821081036200014957634e487b7160e01b600052602260045260246000fd5b50919050565b601f8211156200019d57600081815260208120601f850160051c81016020861015620001785750805b601f850160051c820191505b81811015620001995782815560010162000184565b5050505b505050565b81516001600160401b03811115620001be57620001be620000fd565b620001d681620001cf845462000113565b846200014f565b602080601f8311600181146200020e5760008415620001f55750858301515b600019600386901b1c1916600185901b17855562000199565b600085815260208120601f198616915b828110156200023f578886015182559484019460019091019084016200021e565b50858210156200025e5787850151600019600388901b60f8161c191681555b5050505050600190811b01905550565b612740806200027e6000396000f3fe608060405234801561001057600080fd5b50600436106101f05760003560e01c80637cc535701161010f578063b88d4fde116100a2578063edcfafe611610071578063edcfafe614610473578063f2fde38b14610486578063f3de74a814610499578063f820ef93146104ae57600080fd5b8063b88d4fde146103ed578063bd85d86714610400578063c87b56dd14610424578063e985e9c51461043757600080fd5b806395d89b41116100de57806395d89b41146103b7578063a22cb465146103bf578063a385e954146103d2578063b6fd00e2146103e557600080fd5b80637cc53570146103605780638da5cb5b146103735780638f9db8571461038457806395961f05146103a457600080fd5b806323b872dd116101875780636352211e116101565780636352211e1461031e57806370a0823114610331578063715018a6146103445780637265fa041461034c57600080fd5b806323b872dd146102d25780632894ceda146102e557806342842e0e146102f85780635279c5851461030b57600080fd5b8063095ea7b3116101c3578063095ea7b31461027e5780630cf92d19146102935780630edecff4146102a65780631b3c1a78146102c957600080fd5b806301ffc9a7146101f557806306fdde031461021d578063081812fc1461023257806308da17311461025d575b600080fd5b610208610203366004611e35565b6104c1565b60405190151581526020015b60405180910390f35b6102256104d2565b6040516102149190611ea2565b610245610240366004611eb5565b610564565b6040516001600160a01b039091168152602001610214565b61027061026b366004611fb7565b61058b565b604051908152602001610214565b61029161028c36600461202b565b6109ca565b005b600a54610245906001600160a01b031681565b6102086102b4366004612055565b600c6020526000908152604090205460ff1681565b610270600b5481565b6102916102e0366004612070565b610adf565b600954610245906001600160a01b031681565b610291610306366004612070565b610b10565b610291610319366004612055565b610b2b565b61024561032c366004611eb5565b610b85565b61027061033f366004612055565b610be5565b610291610c6b565b600a5461020890600160a01b900460ff1681565b61022561036e366004611eb5565b610c7f565b6007546001600160a01b0316610245565b610397610392366004612055565b610e82565b60405161021491906120ac565b6102706103b23660046120f0565b610eee565b610225610f03565b6102916103cd366004612162565b610f12565b6102916103e0366004612199565b610f21565b610225610fa6565b6102916103fb3660046121b7565b610fc2565b61041361040e366004611eb5565b610ffa565b604051610214959493929190612233565b610225610432366004611eb5565b6111e8565b61020861044536600461227d565b6001600160a01b03918216600090815260056020908152604080832093909416825291909152205460ff1690565b610413610481366004611eb5565b6111f3565b610291610494366004612055565b61133e565b6104a16113b7565b60405161021491906122b0565b6102916104bc366004612055565b611594565b60006104cc826115be565b92915050565b6060600080546104e1906122f1565b80601f016020809104026020016040519081016040528092919081815260200182805461050d906122f1565b801561055a5780601f1061052f5761010080835404028352916020019161055a565b820191906000526020600020905b81548152906001019060200180831161053d57829003601f168201915b5050505050905090565b600061056f826115e3565b506000908152600460205260409020546001600160a01b031690565b6000808451116105e25760405162461bcd60e51b815260206004820152601c60248201527f436f6e74656e7420686173682063616e6e6f7420626520656d7074790000000060448201526064015b60405180910390fd5b600083511161062b5760405162461bcd60e51b81526020600482015260156024820152745469746c652063616e6e6f7420626520656d70747960581b60448201526064016105d9565b61063433611633565b6106be5760405162461bcd60e51b815260206004820152604f60248201527f4e6f207075626c697368696e67207065726d697373696f6e3a206d757374206f60448201527f776e207075626c69736865722061636365737320746f6b656e206f722062652060648201526e1a5b8819dc9858d9481c195c9a5bd9608a1b608482015260a4016105d9565b600a546001600160a01b0316158015906106e15750600a54600160a01b900460ff165b80156106ef5750600b544211155b80156107645750600a5460405163e40f9a3560e01b81523360048201526001600160a01b039091169063e40f9a3590602401602060405180830381865afa15801561073e573d6000803e3d6000fd5b505050506040513d601f19601f82011682018060405250810190610762919061232b565b155b1561078457336000908152600c60205260409020805460ff191660011790555b6001600160a01b038216158015906107a657506009546001600160a01b031615155b1561087857600954604051631cfefdcd60e01b81526001600160a01b038481166004830152909116906000908290631cfefdcd90602401600060405180830381865afa1580156107fa573d6000803e3d6000fd5b505050506040513d6000823e601f3d908101601f191682016040526108229190810190612348565b905060008151116108755760405162461bcd60e51b815260206004820152601860248201527f5075626c6973686572206e6f742072656769737465726564000000000000000060448201526064016105d9565b50505b610886600880546001019055565b600061089160085490565b6040805160a081018252878152602080820188905233828401526001600160a01b03871660608301524260808301526000848152600d909152919091208151929350909181906108e1908261240d565b50602082015160018201906108f6908261240d565b5060408201516002820180546001600160a01b03199081166001600160a01b03938416179091556060840151600384018054909216908316179055608090920151600490910155831615610970576001600160a01b0383166000908152600e60209081526040822080546001810182559083529120018190555b61097a33826116f9565b336001600160a01b0316817f50c726c65353d25e01080466c8610c0a26dd16728b1903f59955aff9c84d1add878787426040516109ba94939291906124cd565b60405180910390a3949350505050565b60006109d582610b85565b9050806001600160a01b0316836001600160a01b031603610a425760405162461bcd60e51b815260206004820152602160248201527f4552433732313a20617070726f76616c20746f2063757272656e74206f776e656044820152603960f91b60648201526084016105d9565b336001600160a01b0382161480610a5e5750610a5e8133610445565b610ad05760405162461bcd60e51b815260206004820152603d60248201527f4552433732313a20617070726f76652063616c6c6572206973206e6f7420746f60448201527f6b656e206f776e6572206f7220617070726f76656420666f7220616c6c00000060648201526084016105d9565b610ada8383611713565b505050565b610ae93382611781565b610b055760405162461bcd60e51b81526004016105d99061250f565b610ada838383611800565b610ada83838360405180602001604052806000815250610fc2565b610b33611964565b600a80546001600160a01b038381166001600160a01b0319831681179093556040519116919082907f1bebe2cc199da137227dc2666d8b7d50447462e5c2562df31d04938141fe037990600090a35050565b6000818152600260205260408120546001600160a01b0316806104cc5760405162461bcd60e51b8152602060048201526018602482015277115490cdcc8c4e881a5b9d985b1a59081d1bdad95b88125160421b60448201526064016105d9565b60006001600160a01b038216610c4f5760405162461bcd60e51b815260206004820152602960248201527f4552433732313a2061646472657373207a65726f206973206e6f7420612076616044820152683634b21037bbb732b960b91b60648201526084016105d9565b506001600160a01b031660009081526003602052604090205490565b610c73611964565b610c7d60006119be565b565b6060610c8a82611a10565b610ccf5760405162461bcd60e51b8152602060048201526016602482015275105c9d1a58db1948191bd95cc81b9bdd08195e1a5cdd60521b60448201526064016105d9565b6000828152600d6020526040808220815160a08101909252805482908290610cf6906122f1565b80601f0160208091040260200160405190810160405280929190818152602001828054610d22906122f1565b8015610d6f5780601f10610d4457610100808354040283529160200191610d6f565b820191906000526020600020905b815481529060010190602001808311610d5257829003601f168201915b50505050508152602001600182018054610d88906122f1565b80601f0160208091040260200160405190810160405280929190818152602001828054610db4906122f1565b8015610e015780601f10610dd657610100808354040283529160200191610e01565b820191906000526020600020905b815481529060010190602001808311610de457829003601f168201915b505050918352505060028201546001600160a01b0390811660208084019190915260038401549091166040808401919091526004909301546060928301528251918201909252603680825292935091906126d5908301398151604051610e6b92919060200161255c565b604051602081830303815290604052915050919050565b6001600160a01b0381166000908152600e6020908152604091829020805483518184028101840190945280845260609392830182828015610ee257602002820191906000526020600020905b815481526020019060010190808311610ece575b50505050509050919050565b6000610efc8383600061058b565b9392505050565b6060600180546104e1906122f1565b610f1d338383611a2d565b5050565b610f29611964565b600a805483158015600160a01b0260ff60a01b1990921691909117909155610f5d57610f5581426125a1565b600b55610f63565b6000600b555b600b5460408051841515815260208101929092527f3f9e20a7821ea88488e942998db7f6cfcb6fc51fb88e4238700d9d099fa45100910160405180910390a15050565b6040518060600160405280603681526020016126d56036913981565b610fcc3383611781565b610fe85760405162461bcd60e51b81526004016105d99061250f565b610ff484848484611afb565b50505050565b606080600080600061100b86611a10565b6110505760405162461bcd60e51b8152602060048201526016602482015275105c9d1a58db1948191bd95cc81b9bdd08195e1a5cdd60521b60448201526064016105d9565b6000868152600d6020526040808220815160a08101909252805482908290611077906122f1565b80601f01602080910402602001604051908101604052809291908181526020018280546110a3906122f1565b80156110f05780601f106110c5576101008083540402835291602001916110f0565b820191906000526020600020905b8154815290600101906020018083116110d357829003601f168201915b50505050508152602001600182018054611109906122f1565b80601f0160208091040260200160405190810160405280929190818152602001828054611135906122f1565b80156111825780601f1061115757610100808354040283529160200191611182565b820191906000526020600020905b81548152906001019060200180831161116557829003601f168201915b505050918352505060028201546001600160a01b0390811660208084019190915260038401549091166040808401919091526004909301546060928301528351908401519284015191840151608090940151909b929a5090985091965090945092505050565b60606104cc82610c7f565b600d6020526000908152604090208054819061120e906122f1565b80601f016020809104026020016040519081016040528092919081815260200182805461123a906122f1565b80156112875780601f1061125c57610100808354040283529160200191611287565b820191906000526020600020905b81548152906001019060200180831161126a57829003601f168201915b50505050509080600101805461129c906122f1565b80601f01602080910402602001604051908101604052809291908181526020018280546112c8906122f1565b80156113155780601f106112ea57610100808354040283529160200191611315565b820191906000526020600020905b8154815290600101906020018083116112f857829003601f168201915b505050506002830154600384015460049094015492936001600160a01b03918216939116915085565b611346611964565b6001600160a01b0381166113ab5760405162461bcd60e51b815260206004820152602660248201527f4f776e61626c653a206e6577206f776e657220697320746865207a65726f206160448201526564647265737360d01b60648201526084016105d9565b6113b4816119be565b50565b60606113c1611964565b6000806113cd60085490565b905060015b81811161143b576113e281611a10565b15611429576000818152600d60209081526040808320600201546001600160a01b0316808452600c9092529091205460ff16156114275783611423816125b4565b9450505b505b80611433816125b4565b9150506113d2565b5060008267ffffffffffffffff81111561145757611457611ece565b604051908082528060200260200182016040528015611480578160200160208202803683370190505b509050600060015b83811161158a5761149881611a10565b15611578576000818152600d60209081526040808320600201546001600160a01b0316808452600c9092529091205460ff1615611576576000805b8481101561152857826001600160a01b03168682815181106114f7576114f76125cd565b60200260200101516001600160a01b0316036115165760019150611528565b80611520816125b4565b9150506114d3565b508015801561153657508684105b15611574578185858151811061154e5761154e6125cd565b6001600160a01b039092166020928302919091019091015283611570816125b4565b9450505b505b505b80611582816125b4565b915050611488565b5090935050505090565b61159c611964565b600980546001600160a01b0319166001600160a01b0392909216919091179055565b60006001600160e01b03198216632483248360e11b14806104cc57506104cc82611b2e565b6115ec81611a10565b6113b45760405162461bcd60e51b8152602060048201526018602482015277115490cdcc8c4e881a5b9d985b1a59081d1bdad95b88125160421b60448201526064016105d9565b600a546000906001600160a01b031661164e57506001919050565b600a5460405163e40f9a3560e01b81526001600160a01b0384811660048301529091169063e40f9a3590602401602060405180830381865afa158015611698573d6000803e3d6000fd5b505050506040513d601f19601f820116820180604052508101906116bc919061232b565b156116c957506001919050565b600a54600160a01b900460ff1680156116e45750600b544211155b156116f157506001919050565b506000919050565b610f1d828260405180602001604052806000815250611b7e565b600081815260046020526040902080546001600160a01b0319166001600160a01b038416908117909155819061174882610b85565b6001600160a01b03167f8c5be1e5ebec7d5bd14f71427d1e84f3dd0314c0f7b2291e5b200ac8c7c3b92560405160405180910390a45050565b60008061178d83610b85565b9050806001600160a01b0316846001600160a01b031614806117d457506001600160a01b0380821660009081526005602090815260408083209388168352929052205460ff165b806117f85750836001600160a01b03166117ed84610564565b6001600160a01b0316145b949350505050565b826001600160a01b031661181382610b85565b6001600160a01b0316146118395760405162461bcd60e51b81526004016105d9906125e3565b6001600160a01b03821661189b5760405162461bcd60e51b8152602060048201526024808201527f4552433732313a207472616e7366657220746f20746865207a65726f206164646044820152637265737360e01b60648201526084016105d9565b826001600160a01b03166118ae82610b85565b6001600160a01b0316146118d45760405162461bcd60e51b81526004016105d9906125e3565b600081815260046020908152604080832080546001600160a01b03199081169091556001600160a01b0387811680865260038552838620805460001901905590871680865283862080546001019055868652600290945282852080549092168417909155905184937fddf252ad1be2c89b69c2b068fc378daa952ba7f163c4a11628f55a4df523b3ef91a4505050565b6007546001600160a01b03163314610c7d5760405162461bcd60e51b815260206004820181905260248201527f4f776e61626c653a2063616c6c6572206973206e6f7420746865206f776e657260448201526064016105d9565b600780546001600160a01b038381166001600160a01b0319831681179093556040519116919082907f8be0079c531659141344cd1fd0a4f28419497f9722a3daafe3b4186f6b6457e090600090a35050565b6000908152600260205260409020546001600160a01b0316151590565b816001600160a01b0316836001600160a01b031603611a8e5760405162461bcd60e51b815260206004820152601960248201527f4552433732313a20617070726f766520746f2063616c6c65720000000000000060448201526064016105d9565b6001600160a01b03838116600081815260056020908152604080832094871680845294825291829020805460ff191686151590811790915591519182527f17307eab39ab6107e8899845ad3d59bd9653f200f220920489ca2b5937696c31910160405180910390a3505050565b611b06848484611800565b611b1284848484611bb1565b610ff45760405162461bcd60e51b81526004016105d990612628565b60006001600160e01b031982166380ac58cd60e01b1480611b5f57506001600160e01b03198216635b5e139f60e01b145b806104cc57506301ffc9a760e01b6001600160e01b03198316146104cc565b611b888383611cb2565b611b956000848484611bb1565b610ada5760405162461bcd60e51b81526004016105d990612628565b60006001600160a01b0384163b15611ca757604051630a85bd0160e11b81526001600160a01b0385169063150b7a0290611bf590339089908890889060040161267a565b6020604051808303816000875af1925050508015611c30575060408051601f3d908101601f19168201909252611c2d918101906126b7565b60015b611c8d573d808015611c5e576040519150601f19603f3d011682016040523d82523d6000602084013e611c63565b606091505b508051600003611c855760405162461bcd60e51b81526004016105d990612628565b805181602001fd5b6001600160e01b031916630a85bd0160e11b1490506117f8565b506001949350505050565b6001600160a01b038216611d085760405162461bcd60e51b815260206004820181905260248201527f4552433732313a206d696e7420746f20746865207a65726f206164647265737360448201526064016105d9565b611d1181611a10565b15611d5e5760405162461bcd60e51b815260206004820152601c60248201527f4552433732313a20746f6b656e20616c7265616479206d696e7465640000000060448201526064016105d9565b611d6781611a10565b15611db45760405162461bcd60e51b815260206004820152601c60248201527f4552433732313a20746f6b656e20616c7265616479206d696e7465640000000060448201526064016105d9565b6001600160a01b038216600081815260036020908152604080832080546001019055848352600290915280822080546001600160a01b0319168417905551839291907fddf252ad1be2c89b69c2b068fc378daa952ba7f163c4a11628f55a4df523b3ef908290a45050565b6001600160e01b0319811681146113b457600080fd5b600060208284031215611e4757600080fd5b8135610efc81611e1f565b60005b83811015611e6d578181015183820152602001611e55565b50506000910152565b60008151808452611e8e816020860160208601611e52565b601f01601f19169290920160200192915050565b602081526000610efc6020830184611e76565b600060208284031215611ec757600080fd5b5035919050565b634e487b7160e01b600052604160045260246000fd5b604051601f8201601f1916810167ffffffffffffffff81118282101715611f0d57611f0d611ece565b604052919050565b600067ffffffffffffffff821115611f2f57611f2f611ece565b50601f01601f191660200190565b6000611f50611f4b84611f15565b611ee4565b9050828152838383011115611f6457600080fd5b828260208301376000602084830101529392505050565b600082601f830112611f8c57600080fd5b610efc83833560208501611f3d565b80356001600160a01b0381168114611fb257600080fd5b919050565b600080600060608486031215611fcc57600080fd5b833567ffffffffffffffff80821115611fe457600080fd5b611ff087838801611f7b565b9450602086013591508082111561200657600080fd5b5061201386828701611f7b565b92505061202260408501611f9b565b90509250925092565b6000806040838503121561203e57600080fd5b61204783611f9b565b946020939093013593505050565b60006020828403121561206757600080fd5b610efc82611f9b565b60008060006060848603121561208557600080fd5b61208e84611f9b565b925061209c60208501611f9b565b9150604084013590509250925092565b6020808252825182820181905260009190848201906040850190845b818110156120e4578351835292840192918401916001016120c8565b50909695505050505050565b6000806040838503121561210357600080fd5b823567ffffffffffffffff8082111561211b57600080fd5b61212786838701611f7b565b9350602085013591508082111561213d57600080fd5b5061214a85828601611f7b565b9150509250929050565b80151581146113b457600080fd5b6000806040838503121561217557600080fd5b61217e83611f9b565b9150602083013561218e81612154565b809150509250929050565b600080604083850312156121ac57600080fd5b823561204781612154565b600080600080608085870312156121cd57600080fd5b6121d685611f9b565b93506121e460208601611f9b565b925060408501359150606085013567ffffffffffffffff81111561220757600080fd5b8501601f8101871361221857600080fd5b61222787823560208401611f3d565b91505092959194509250565b60a08152600061224660a0830188611e76565b82810360208401526122588188611e76565b6001600160a01b03968716604085015294909516606083015250608001529392505050565b6000806040838503121561229057600080fd5b61229983611f9b565b91506122a760208401611f9b565b90509250929050565b6020808252825182820181905260009190848201906040850190845b818110156120e45783516001600160a01b0316835292840192918401916001016122cc565b600181811c9082168061230557607f821691505b60208210810361232557634e487b7160e01b600052602260045260246000fd5b50919050565b60006020828403121561233d57600080fd5b8151610efc81612154565b60006020828403121561235a57600080fd5b815167ffffffffffffffff81111561237157600080fd5b8201601f8101841361238257600080fd5b8051612390611f4b82611f15565b8181528560208385010111156123a557600080fd5b6123b6826020830160208601611e52565b95945050505050565b601f821115610ada57600081815260208120601f850160051c810160208610156123e65750805b601f850160051c820191505b81811015612405578281556001016123f2565b505050505050565b815167ffffffffffffffff81111561242757612427611ece565b61243b8161243584546122f1565b846123bf565b602080601f83116001811461247057600084156124585750858301515b600019600386901b1c1916600185901b178555612405565b600085815260208120601f198616915b8281101561249f57888601518255948401946001909101908401612480565b50858210156124bd5787850151600019600388901b60f8161c191681555b5050505050600190811b01905550565b6080815260006124e06080830187611e76565b82810360208401526124f28187611e76565b6001600160a01b0395909516604084015250506060015292915050565b6020808252602d908201527f4552433732313a2063616c6c6572206973206e6f7420746f6b656e206f776e6560408201526c1c881bdc88185c1c1c9bdd9959609a1b606082015260800190565b6000835161256e818460208801611e52565b835190830190612582818360208801611e52565b01949350505050565b634e487b7160e01b600052601160045260246000fd5b808201808211156104cc576104cc61258b565b6000600182016125c6576125c661258b565b5060010190565b634e487b7160e01b600052603260045260246000fd5b60208082526025908201527f4552433732313a207472616e736665722066726f6d20696e636f72726563742060408201526437bbb732b960d91b606082015260800190565b60208082526032908201527f4552433732313a207472616e7366657220746f206e6f6e20455243373231526560408201527131b2b4bb32b91034b6b83632b6b2b73a32b960711b606082015260800190565b6001600160a01b03858116825284166020820152604081018390526080606082018190526000906126ad90830184611e76565b9695505050505050565b6000602082840312156126c957600080fd5b8151610efc81611e1f56fe68747470733a2f2f6d6167656e74612d6d616769632d686164646f636b2d3530392e6d7970696e6174612e636c6f75642f697066732fa2646970667358221220c6372ddc17fb79e5971f2cfd99567bba01662dde010698c6ed752680300eff4d64736f6c63430008140033",
  "linkReferences": {},
  "deployedLinkReferences": {}
}